{"contracts/PolygonNFTMarketplace.sol":{"PolygonNFTMarketplace":{"abi":[{"inputs":[],"stateMutability":"nonpayable","type":"constructor"},{"anonymous":false,"inputs":[{"indexed":true,"internalType":"address","name":"owner","type":"address"},{"indexed":true,"internalType":"address","name":"approved","type":"address"},{"indexed":true,"internalType":"uint256","name":"tokenId","type":"uint256"}],"name":"Approval","type":"event"},{"anonymous":false,"inputs":[{"indexed":true,"internalType":"address","name":"owner","type":"address"},{"indexed":true,"internalType":"address","name":"operator","type":"address"},{"indexed":false,"internalType":"bool","name":"approved","type":"bool"}],"name":"ApprovalForAll","type":"event"},{"anonymous":false,"inputs":[{"indexed":false,"internalType":"uint256","name":"_fromTokenId","type":"uint256"},{"indexed":false,"internalType":"uint256","name":"_toTokenId","type":"uint256"}],"name":"BatchMetadataUpdate","type":"event"},{"anonymous":false,"inputs":[{"indexed":false,"internalType":"uint256","name":"_tokenId","type":"uint256"}],"name":"MetadataUpdate","type":"event"},{"anonymous":false,"inputs":[{"indexed":true,"internalType":"address","name":"from","type":"address"},{"indexed":true,"internalType":"address","name":"to","type":"address"},{"indexed":true,"internalType":"uint256","name":"tokenId","type":"uint256"}],"name":"Transfer","type":"event"},{"inputs":[],"name":"BuyCount","outputs":[{"internalType":"uint256","name":"_value","type":"uint256"}],"stateMutability":"view","type":"function"},{"inputs":[{"internalType":"string","name":"tokenURI","type":"string"},{"internalType":"string","name":"imageHash","type":"string"},{"internalType":"uint256","name":"fileType","type":"uint256"}],"name":"CreateToken","outputs":[{"internalType":"uint256","name":"","type":"uint256"}],"stateMutability":"payable","type":"function"},{"inputs":[{"internalType":"uint256","name":"","type":"uint256"}],"name":"Creators","outputs":[{"internalType":"address","name":"","type":"address"}],"stateMutability":"view","type":"function"},{"inputs":[],"name":"CreatorsCount","outputs":[{"internalType":"uint256","name":"_value","type":"uint256"}],"stateMutability":"view","type":"function"},{"inputs":[{"internalType":"uint256","name":"price","type":"uint256"},{"internalType":"uint256","name":"id","type":"uint256"}],"name":"ListNFT","outputs":[],"stateMutability":"nonpayable","type":"function"},{"inputs":[{"internalType":"uint256","name":"tokenId","type":"uint256"}],"name":"ReportNFT","outputs":[],"stateMutability":"nonpayable","type":"function"},{"inputs":[],"name":"STATUS_DONE","outputs":[{"internalType":"uint8","name":"","type":"uint8"}],"stateMutability":"view","type":"function"},{"inputs":[],"name":"STATUS_OPEN","outputs":[{"internalType":"uint8","name":"","type":"uint8"}],"stateMutability":"view","type":"function"},{"inputs":[],"name":"SoldCount","outputs":[{"internalType":"uint256","name":"_value","type":"uint256"}],"stateMutability":"view","type":"function"},{"inputs":[],"name":"TokenCount","outputs":[{"internalType":"uint256","name":"_value","type":"uint256"}],"stateMutability":"view","type":"function"},{"inputs":[{"internalType":"address","name":"to","type":"address"},{"internalType":"uint256","name":"tokenId","type":"uint256"}],"name":"approve","outputs":[],"stateMutability":"nonpayable","type":"function"},{"inputs":[{"internalType":"address","name":"owner","type":"address"}],"name":"balanceOf","outputs":[{"internalType":"uint256","name":"","type":"uint256"}],"stateMutability":"view","type":"function"},{"inputs":[{"internalType":"uint256","name":"listingId","type":"uint256"}],"name":"bid","outputs":[],"stateMutability":"payable","type":"function"},{"inputs":[],"name":"biddingCounter","outputs":[{"internalType":"uint256","name":"_value","type":"uint256"}],"stateMutability":"view","type":"function"},{"inputs":[{"internalType":"uint256","name":"listingId","type":"uint256"}],"name":"completeAuction","outputs":[],"stateMutability":"payable","type":"function"},{"inputs":[{"internalType":"uint256","name":"price","type":"uint256"},{"internalType":"uint256","name":"tokenId","type":"uint256"},{"internalType":"uint256","name":"deadline","type":"uint256"},{"internalType":"string","name":"aucDate","type":"string"}],"name":"createAuctionListing","outputs":[{"internalType":"uint256","name":"","type":"uint256"}],"stateMutability":"nonpayable","type":"function"},{"inputs":[{"internalType":"uint256","name":"tokenId","type":"uint256"}],"name":"executeSale","outputs":[],"stateMutability":"payable","type":"function"},{"inputs":[],"name":"getAllBiddedNfts","outputs":[{"components":[{"internalType":"uint256","name":"biddingId","type":"uint256"},{"internalType":"address payable","name":"seller","type":"address"},{"internalType":"uint256","name":"tokenId","type":"uint256"},{"internalType":"uint256","name":"price","type":"uint256"},{"internalType":"uint256","name":"netPrice","type":"uint256"},{"internalType":"uint256","name":"startAt","type":"uint256"},{"internalType":"uint256","name":"deadline","type":"uint256"},{"internalType":"string","name":"date","type":"string"},{"internalType":"uint256","name":"status","type":"uint256"}],"internalType":"struct PolygonNFTMarketplace.Listing[]","name":"","type":"tuple[]"}],"stateMutability":"view","type":"function"},{"inputs":[],"name":"getAllBiddingWithListingID","outputs":[{"components":[{"internalType":"uint256","name":"tokenId","type":"uint256"},{"internalType":"uint256","name":"biddingId","type":"uint256"},{"internalType":"address","name":"bidder","type":"address"},{"internalType":"uint256","name":"price","type":"uint256"}],"internalType":"struct PolygonNFTMarketplace.Bidding[]","name":"","type":"tuple[]"}],"stateMutability":"view","type":"function"},{"inputs":[],"name":"getAllImageNfts","outputs":[{"components":[{"internalType":"uint256","name":"tokenId","type":"uint256"},{"internalType":"uint256","name":"price","type":"uint256"},{"internalType":"uint256","name":"bidPrice","type":"uint256"},{"internalType":"string","name":"imgHash","type":"string"},{"internalType":"address payable","name":"owner","type":"address"},{"internalType":"uint256","name":"format","type":"uint256"},{"internalType":"bool","name":"NFTsold","type":"bool"},{"internalType":"bool","name":"NFTbought","type":"bool"},{"internalType":"bool","name":"NFTListed","type":"bool"},{"internalType":"bool","name":"NFTBidded","type":"bool"},{"internalType":"bool","name":"ReportNft","type":"bool"}],"internalType":"struct PolygonNFTMarketplace.ListedToken[]","name":"","type":"tuple[]"}],"stateMutability":"view","type":"function"},{"inputs":[],"name":"getAllNfts","outputs":[{"components":[{"internalType":"uint256","name":"tokenId","type":"uint256"},{"internalType":"uint256","name":"price","type":"uint256"},{"internalType":"uint256","name":"bidPrice","type":"uint256"},{"internalType":"string","name":"imgHash","type":"string"},{"internalType":"address payable","name":"owner","type":"address"},{"internalType":"uint256","name":"format","type":"uint256"},{"internalType":"bool","name":"NFTsold","type":"bool"},{"internalType":"bool","name":"NFTbought","type":"bool"},{"internalType":"bool","name":"NFTListed","type":"bool"},{"internalType":"bool","name":"NFTBidded","type":"bool"},{"internalType":"bool","name":"ReportNft","type":"bool"}],"internalType":"struct PolygonNFTMarketplace.ListedToken[]","name":"","type":"tuple[]"}],"stateMutability":"view","type":"function"},{"inputs":[{"internalType":"uint256","name":"tokenId","type":"uint256"}],"name":"getApproved","outputs":[{"internalType":"address","name":"","type":"address"}],"stateMutability":"view","type":"function"},{"inputs":[{"internalType":"uint256","name":"listingId","type":"uint256"}],"name":"getHighestBidder","outputs":[{"internalType":"address","name":"","type":"address"}],"stateMutability":"view","type":"function"},{"inputs":[{"internalType":"uint256","name":"listingId","type":"uint256"}],"name":"getHighestBiddingAmount","outputs":[{"internalType":"uint256","name":"","type":"uint256"}],"stateMutability":"view","type":"function"},{"inputs":[],"name":"getMyNFTs","outputs":[{"components":[{"internalType":"uint256","name":"tokenId","type":"uint256"},{"internalType":"uint256","name":"price","type":"uint256"},{"internalType":"uint256","name":"bidPrice","type":"uint256"},{"internalType":"string","name":"imgHash","type":"string"},{"internalType":"address payable","name":"owner","type":"address"},{"internalType":"uint256","name":"format","type":"uint256"},{"internalType":"bool","name":"NFTsold","type":"bool"},{"internalType":"bool","name":"NFTbought","type":"bool"},{"internalType":"bool","name":"NFTListed","type":"bool"},{"internalType":"bool","name":"NFTBidded","type":"bool"},{"internalType":"bool","name":"ReportNft","type":"bool"}],"internalType":"struct PolygonNFTMarketplace.ListedToken[]","name":"","type":"tuple[]"}],"stateMutability":"view","type":"function"},{"inputs":[],"name":"getMySoldNFTs","outputs":[{"components":[{"internalType":"uint256","name":"tokenId","type":"uint256"},{"internalType":"uint256","name":"price","type":"uint256"},{"internalType":"address payable","name":"owner","type":"address"},{"internalType":"address","name":"newOwner","type":"address"},{"internalType":"bool","name":"NFTsold","type":"bool"}],"internalType":"struct PolygonNFTMarketplace.ItemsSold[]","name":"","type":"tuple[]"}],"stateMutability":"view","type":"function"},{"inputs":[],"name":"getTotalBiddedTokens","outputs":[{"internalType":"uint256","name":"","type":"uint256"}],"stateMutability":"view","type":"function"},{"inputs":[],"name":"getTotalMintedTokens","outputs":[{"internalType":"uint256","name":"","type":"uint256"}],"stateMutability":"view","type":"function"},{"inputs":[],"name":"getTotalSoldTokens","outputs":[{"internalType":"uint256","name":"","type":"uint256"}],"stateMutability":"view","type":"function"},{"inputs":[],"name":"getTotalUser","outputs":[{"internalType":"uint256","name":"","type":"uint256"}],"stateMutability":"view","type":"function"},{"inputs":[{"internalType":"uint256","name":"","type":"uint256"}],"name":"highestBidder","outputs":[{"internalType":"address","name":"","type":"address"}],"stateMutability":"view","type":"function"},{"inputs":[{"internalType":"uint256","name":"","type":"uint256"}],"name":"highestBiddingAmount","outputs":[{"internalType":"uint256","name":"","type":"uint256"}],"stateMutability":"view","type":"function"},{"inputs":[{"internalType":"uint256","name":"","type":"uint256"}],"name":"idToBiddedToken","outputs":[{"internalType":"uint256","name":"tokenId","type":"uint256"},{"internalType":"uint256","name":"biddingId","type":"uint256"},{"internalType":"address","name":"bidder","type":"address"},{"internalType":"uint256","name":"price","type":"uint256"}],"stateMutability":"view","type":"function"},{"inputs":[{"internalType":"uint256","name":"","type":"uint256"}],"name":"idToImageHash","outputs":[{"internalType":"string","name":"","type":"string"}],"stateMutability":"view","type":"function"},{"inputs":[{"internalType":"uint256","name":"","type":"uint256"}],"name":"idToListedToken","outputs":[{"internalType":"uint256","name":"tokenId","type":"uint256"},{"internalType":"uint256","name":"price","type":"uint256"},{"internalType":"uint256","name":"bidPrice","type":"uint256"},{"internalType":"string","name":"imgHash","type":"string"},{"internalType":"address payable","name":"owner","type":"address"},{"internalType":"uint256","name":"format","type":"uint256"},{"internalType":"bool","name":"NFTsold","type":"bool"},{"internalType":"bool","name":"NFTbought","type":"bool"},{"internalType":"bool","name":"NFTListed","type":"bool"},{"internalType":"bool","name":"NFTBidded","type":"bool"},{"internalType":"bool","name":"ReportNft","type":"bool"}],"stateMutability":"view","type":"function"},{"inputs":[{"internalType":"uint256","name":"","type":"uint256"}],"name":"idToSoldItems","outputs":[{"internalType":"uint256","name":"tokenId","type":"uint256"},{"internalType":"uint256","name":"price","type":"uint256"},{"internalType":"address payable","name":"owner","type":"address"},{"internalType":"address","name":"newOwner","type":"address"},{"internalType":"bool","name":"NFTsold","type":"bool"}],"stateMutability":"view","type":"function"},{"inputs":[{"internalType":"address","name":"owner","type":"address"},{"internalType":"address","name":"operator","type":"address"}],"name":"isApprovedForAll","outputs":[{"internalType":"bool","name":"","type":"bool"}],"stateMutability":"view","type":"function"},{"inputs":[{"internalType":"uint256","name":"id","type":"uint256"}],"name":"isAuctionExpired","outputs":[{"internalType":"bool","name":"","type":"bool"}],"stateMutability":"view","type":"function"},{"inputs":[{"internalType":"uint256","name":"id","type":"uint256"}],"name":"isAuctionOpen","outputs":[{"internalType":"bool","name":"","type":"bool"}],"stateMutability":"view","type":"function"},{"inputs":[],"name":"listingCounter","outputs":[{"internalType":"uint256","name":"_value","type":"uint256"}],"stateMutability":"view","type":"function"},{"inputs":[{"internalType":"uint256","name":"","type":"uint256"}],"name":"listings","outputs":[{"internalType":"uint256","name":"biddingId","type":"uint256"},{"internalType":"address payable","name":"seller","type":"address"},{"internalType":"uint256","name":"tokenId","type":"uint256"},{"internalType":"uint256","name":"price","type":"uint256"},{"internalType":"uint256","name":"netPrice","type":"uint256"},{"internalType":"uint256","name":"startAt","type":"uint256"},{"internalType":"uint256","name":"deadline","type":"uint256"},{"internalType":"string","name":"date","type":"string"},{"internalType":"uint256","name":"status","type":"uint256"}],"stateMutability":"view","type":"function"},{"inputs":[],"name":"minAuctionIncrement","outputs":[{"internalType":"uint256","name":"","type":"uint256"}],"stateMutability":"view","type":"function"},{"inputs":[],"name":"name","outputs":[{"internalType":"string","name":"","type":"string"}],"stateMutability":"view","type":"function"},{"inputs":[{"internalType":"address","name":"user","type":"address"}],"name":"newUser","outputs":[],"stateMutability":"nonpayable","type":"function"},{"inputs":[{"internalType":"uint256","name":"tokenId","type":"uint256"}],"name":"ownerOf","outputs":[{"internalType":"address","name":"","type":"address"}],"stateMutability":"view","type":"function"},{"inputs":[{"internalType":"address","name":"from","type":"address"},{"internalType":"address","name":"to","type":"address"},{"internalType":"uint256","name":"tokenId","type":"uint256"}],"name":"safeTransferFrom","outputs":[],"stateMutability":"nonpayable","type":"function"},{"inputs":[{"internalType":"address","name":"from","type":"address"},{"internalType":"address","name":"to","type":"address"},{"internalType":"uint256","name":"tokenId","type":"uint256"},{"internalType":"bytes","name":"data","type":"bytes"}],"name":"safeTransferFrom","outputs":[],"stateMutability":"nonpayable","type":"function"},{"inputs":[{"internalType":"address","name":"operator","type":"address"},{"internalType":"bool","name":"approved","type":"bool"}],"name":"setApprovalForAll","outputs":[],"stateMutability":"nonpayable","type":"function"},{"inputs":[{"internalType":"bytes4","name":"interfaceId","type":"bytes4"}],"name":"supportsInterface","outputs":[{"internalType":"bool","name":"","type":"bool"}],"stateMutability":"view","type":"function"},{"inputs":[],"name":"symbol","outputs":[{"internalType":"string","name":"","type":"string"}],"stateMutability":"view","type":"function"},{"inputs":[{"internalType":"uint256","name":"tokenId","type":"uint256"}],"name":"tokenURI","outputs":[{"internalType":"string","name":"","type":"string"}],"stateMutability":"view","type":"function"},{"inputs":[{"internalType":"address","name":"from","type":"address"},{"internalType":"address","name":"to","type":"address"},{"internalType":"uint256","name":"tokenId","type":"uint256"}],"name":"transferFrom","outputs":[],"stateMutability":"nonpayable","type":"function"},{"inputs":[{"internalType":"uint256","name":"listingId","type":"uint256"}],"name":"withdrawBid","outputs":[],"stateMutability":"payable","type":"function"}],"evm":{"bytecode":{"linkReferences":{},"object":"6080604052600a6012553480156200001657600080fd5b50604080518082018252601581527f506f6c79676f6e4e46544d61726b6574706c61636500000000000000000000006020808301918252835180850190945260048452634441524b60e01b90840152815191929162000078916000916200009c565b5080516200008e9060019060208401906200009c565b50506001600755506200017f565b828054620000aa9062000142565b90600052602060002090601f016020900481019282620000ce576000855562000119565b82601f10620000e957805160ff191683800117855562000119565b8280016001018555821562000119579182015b8281111562000119578251825591602001919060010190620000fc565b50620001279291506200012b565b5090565b5b808211156200012757600081556001016200012c565b600181811c908216806200015757607f821691505b602082108114156200017957634e487b7160e01b600052602260045260246000fd5b50919050565b614438806200018f6000396000f3fe60806040526004361061031a5760003560e01c806370a08231116101ab578063adc2524c116100f7578063e57a497a11610095578063e985e9c51161006f578063e985e9c514610a80578063edf2ebcc14610ac9578063f67a769c14610ae0578063fad266fe14610af557600080fd5b8063e57a497a146109db578063e5afe4d114610a12578063e877d3f814610a5357600080fd5b8063b88d4fde116100d1578063b88d4fde14610930578063c750cb7914610950578063c87b56dd14610986578063de74e57b146109a657600080fd5b8063adc2524c146108a7578063b27dce81146108ec578063b820a6d11461090e57600080fd5b806395d89b4111610164578063a22cb4651161013e578063a22cb46514610844578063a4fdb63514610864578063a71ffa761461087b578063a9c63aa01461089257600080fd5b806395d89b41146108075780639b1225c41461081c5780639d6e5fb31461082f57600080fd5b806370a082311461073a578063732e8d731461075a578063740db2801461076f5780637aea3738146107845780638055ccaa146107b157806392a374b7146107e757600080fd5b8063330241001161026a5780634945dcdd116102235780636352211e116101fd5780636352211e146106705780636b8c91cb146106905780636c2c9c7d1461070d578063708d4d351461072457600080fd5b80634945dcdd1461062457806359be5e4514610646578063629cb2e41461065b57600080fd5b806333024100146104f2578063356e93921461058357806336ad658f146105a457806342842e0e146105bb578063451df52e146105db578063454a2ab31461061157600080fd5b80630cb5f653116102d757806321b62886116102b157806321b628861461047657806323b872dd1461048957806324f8515b146104a9578063287906b5146104d057600080fd5b80630cb5f653146104105780630eaaf4c8146104305780631389b1171461044357600080fd5b806301ffc9a71461031f57806306fdde0314610354578063081812fc14610376578063095ea7b3146103ae5780630ad48628146103d05780630ad52cc6146103f0575b600080fd5b34801561032b57600080fd5b5061033f61033a366004613cf9565b610b0c565b60405190151581526020015b60405180910390f35b34801561036057600080fd5b50610369610b37565b60405161034b919061415f565b34801561038257600080fd5b50610396610391366004613d9b565b610bc9565b6040516001600160a01b03909116815260200161034b565b3480156103ba57600080fd5b506103ce6103c9366004613cd0565b610bf0565b005b3480156103dc57600080fd5b5061033f6103eb366004613d9b565b610d0b565b3480156103fc57600080fd5b5061036961040b366004613d9b565b610d3f565b34801561041c57600080fd5b506103ce61042b366004613b96565b610dd9565b6103ce61043e366004613d9b565b610e99565b34801561044f57600080fd5b5061033f61045e366004613d9b565b60009081526013602052604090206006015442101590565b6103ce610484366004613d9b565b611086565b34801561049557600080fd5b506103ce6104a4366004613be2565b61131a565b3480156104b557600080fd5b506104be600181565b60405160ff909116815260200161034b565b3480156104dc57600080fd5b506104e561134b565b60405161034b9190613fb2565b3480156104fe57600080fd5b5061054d61050d366004613d9b565b600f602052600090815260409020805460018201546002830154600390930154919290916001600160a01b0391821691811690600160a01b900460ff1685565b6040805195865260208601949094526001600160a01b03928316938501939093521660608301521515608082015260a00161034b565b610596610591366004613d31565b6115ee565b60405190815260200161034b565b3480156105b057600080fd5b506008546105969081565b3480156105c757600080fd5b506103ce6105d6366004613be2565b6117c3565b3480156105e757600080fd5b506103966105f6366004613d9b565b6014602052600090815260409020546001600160a01b031681565b6103ce61061f366004613d9b565b6117de565b34801561063057600080fd5b50610639611b2c565b60405161034b91906140a1565b34801561065257600080fd5b50610596611de0565b34801561066757600080fd5b506104e5611df0565b34801561067c57600080fd5b5061039661068b366004613d9b565b61209c565b34801561069c57600080fd5b506106de6106ab366004613d9b565b6016602052600090815260409020805460018201546002830154600390930154919290916001600160a01b039091169084565b60405161034b949392919093845260208401929092526001600160a01b03166040830152606082015260800190565b34801561071957600080fd5b50600b546105969081565b34801561073057600080fd5b5061059660125481565b34801561074657600080fd5b50610596610755366004613b96565b6120fc565b34801561076657600080fd5b506104e5612182565b34801561077b57600080fd5b506104be600081565b34801561079057600080fd5b5061059661079f366004613d9b565b60009081526015602052604090205490565b3480156107bd57600080fd5b506103966107cc366004613d9b565b6011602052600090815260409020546001600160a01b031681565b3480156107f357600080fd5b50610596610802366004613dd4565b61241a565b34801561081357600080fd5b50610369612584565b6103ce61082a366004613d9b565b612593565b34801561083b57600080fd5b5061059661278c565b34801561085057600080fd5b506103ce61085f366004613c96565b612797565b34801561087057600080fd5b50600c546105969081565b34801561088757600080fd5b50600d546105969081565b34801561089e57600080fd5b506105966127a6565b3480156108b357600080fd5b506103ce6108c2366004613db3565b6000908152600e602052604090206001810191909155600601805462ff0000191662010000179055565b3480156108f857600080fd5b506109016127b1565b60405161034b9190613f41565b34801561091a57600080fd5b506109236129a7565b60405161034b9190613ed4565b34801561093c57600080fd5b506103ce61094b366004613c1d565b612b7c565b34801561095c57600080fd5b5061039661096b366004613d9b565b6000908152601460205260409020546001600160a01b031690565b34801561099257600080fd5b506103696109a1366004613d9b565b612bb4565b3480156109b257600080fd5b506109c66109c1366004613d9b565b612cbd565b60405161034b99989796959493929190614256565b3480156109e757600080fd5b506109fb6109f6366004613d9b565b612d9c565b60405161034b9b9a999897969594939291906142b4565b348015610a1e57600080fd5b506103ce610a2d366004613d9b565b6000908152600e60205260409020600601805464ff000000001916640100000000179055565b348015610a5f57600080fd5b50610596610a6e366004613d9b565b60156020526000908152604090205481565b348015610a8c57600080fd5b5061033f610a9b366004613bb0565b6001600160a01b03918216600090815260056020908152604080832093909416825291909152205460ff1690565b348015610ad557600080fd5b506009546105969081565b348015610aec57600080fd5b50610596612e97565b348015610b0157600080fd5b50600a546105969081565b60006001600160e01b03198216632483248360e11b1480610b315750610b3182612ea2565b92915050565b606060008054610b469061436a565b80601f0160208091040260200160405190810160405280929190818152602001828054610b729061436a565b8015610bbf5780601f10610b9457610100808354040283529160200191610bbf565b820191906000526020600020905b815481529060010190602001808311610ba257829003601f168201915b5050505050905090565b6000610bd482612ef2565b506000908152600460205260409020546001600160a01b031690565b6000610bfb8261209c565b9050806001600160a01b0316836001600160a01b03161415610c6e5760405162461bcd60e51b815260206004820152602160248201527f4552433732313a20617070726f76616c20746f2063757272656e74206f776e656044820152603960f91b60648201526084015b60405180910390fd5b336001600160a01b0382161480610c8a5750610c8a8133610a9b565b610cfc5760405162461bcd60e51b815260206004820152603d60248201527f4552433732313a20617070726f76652063616c6c6572206973206e6f7420746f60448201527f6b656e206f776e6572206f7220617070726f76656420666f7220616c6c0000006064820152608401610c65565b610d068383612f51565b505050565b6000818152601360205260408120600801546001148015610b31575050600090815260136020526040902060060154421090565b60106020526000908152604090208054610d589061436a565b80601f0160208091040260200160405190810160405280929190818152602001828054610d849061436a565b8015610dd15780601f10610da657610100808354040283529160200191610dd1565b820191906000526020600020905b815481529060010190602001808311610db457829003601f168201915b505050505081565b6000610de4600d5490565b90506000805b82811015610e4b576001600160a01b03841660116000610e0b846001614326565b81526020810191909152604001600020546001600160a01b03161415610e3957610e36600183614326565b91505b80610e43816143a5565b915050610dea565b5080610d0657610e5f600d80546001019055565b6000610e6a600d5490565b600090815260116020526040902080546001600160a01b0386166001600160a01b031990911617905550505050565b610ea1612fbf565b600081815260136020526040902060060154421015610efa5760405162461bcd60e51b8152602060048201526015602482015274185d58dd1a5bdb881b5d5cdd08189948195b991959605a1b6044820152606401610c65565b6000818152601460205260409020546001600160a01b0316331415610f6c5760405162461bcd60e51b815260206004820152602260248201527f68696768657374206269646465722063616e6e6f7420776974686472617720626044820152611a5960f21b6064820152608401610c65565b6000610f77600c5490565b90506000805b82811015611048573360166000610f95846001614326565b81526020810191909152604001600020600201546001600160a01b0316148015610fde575060166000610fc9836001614326565b81526020019081526020016000206001015484145b156110365760166000610ff2836001614326565b8152602001908152602001600020600301548261100f9190614326565b91506000601681611021846001614326565b81526020810191909152604001600020600301555b80611040816143a5565b915050610f7d565b50604051339082156108fc029083906000818181858888f19350505050158015611076573d6000803e3d6000fd5b5050506110836001600755565b50565b61108e612fbf565b61109781610d0b565b156110dc5760405162461bcd60e51b815260206004820152601560248201527430bab1ba34b7b71034b99039ba34b6361037b832b760591b6044820152606401610c65565b600081815260136020908152604080832060149092529091205460018201546001600160a01b03918216911633148061111d5750336001600160a01b038216145b61117c5760405162461bcd60e51b815260206004820152602a60248201527f6f6e6c792073656c6c6572206f722077696e6e65722063616e20636f6d706c656044820152693a329030bab1ba34b7b760b11b6064820152608401610c65565b6000838152601560205260409020546002830154816111c257600060088501819055818152600e6020526040812060068101805463ff000000191690556002015561130c565b600184015460028501546001600160a01b03909116906111e59082908690613019565b6040516001600160a01b0382169084156108fc029085906000818181858888f1935050505015801561121b573d6000803e3d6000fd5b5061122a600980546001019055565b600061123560095490565b6040805160a08101825285815260208082018881526001600160a01b0396871683850190815233606085019081526001608086018181526000988952600f865287892096518755935186820155915160028087018054928c166001600160a01b031993841617905591516003909601805494511515600160a01b026001600160a81b0319909516968b1696909617939093179094558b018054978b1697821688179055878552600e9091529183206004810180549093169095179091556008880182905583015550600601805463ff000000191690555b505050506110836001600755565b611324338261317d565b6113405760405162461bcd60e51b8152600401610c6590614172565b610d06838383613019565b6060600061135860085490565b905060008060005b838110156113b157600e6000611377836001614326565b8152602001908152602001600020600501546001141561139f5761139c600184614326565b92505b6113aa600182614326565b9050611360565b5060008267ffffffffffffffff8111156113db57634e487b7160e01b600052604160045260246000fd5b60405190808252806020026020018201604052801561141457816020015b6114016139f1565b8152602001906001900390816113f95790505b50905060005b848110156115e5576000600e81611432846001614326565b81526020019081526020016000209050600e60008360016114539190614326565b815260200190815260200160002060050154600114156115d25780604051806101600160405290816000820154815260200160018201548152602001600282015481526020016003820180546114a89061436a565b80601f01602080910402602001604051908101604052809291908181526020018280546114d49061436a565b80156115215780601f106114f657610100808354040283529160200191611521565b820191906000526020600020905b81548152906001019060200180831161150457829003601f168201915b505050918352505060048201546001600160a01b031660208201526005820154604082015260069091015460ff8082161515606084015261010082048116151560808401526201000082048116151560a0840152630100000082048116151560c084015264010000000090910416151560e09091015283518490869081106115b957634e487b7160e01b600052603260045260246000fd5b60209081029190910101526115cf600185614326565b93505b506115de600182614326565b905061141a565b50949350505050565b6000806115fa60085490565b90508061160657611760565b606060005b8281101561175d5760106000611622836001614326565b8152602001908152602001600020805461163b9061436a565b80601f01602080910402602001604051908101604052809291908181526020018280546116679061436a565b80156116b45780601f10611689576101008083540402835291602001916116b4565b820191906000526020600020905b81548152906001019060200180831161169757829003601f168201915b50505050509150856040516020016116cc9190613e4c565b60405160208183030381529060405280519060200120826040516020016116f39190613e4c565b60405160208183030381529060405280519060200120141561174b5760405162461bcd60e51b815260206004820152601160248201527013919508185b1c9958591e48195e1a5cdd607a1b6044820152606401610c65565b80611755816143a5565b91505061160b565b50505b61176e600880546001019055565b600061177960085490565b905061178533826131fb565b61178f8187613215565b600081815260106020908152604090912086516117ae92880190613a4c565b506117ba8185876132e7565b95945050505050565b610d0683838360405180602001604052806000815250612b7c565b6117e6612fbf565b6117ef81610d0b565b61182f5760405162461bcd60e51b8152602060048201526011602482015270185d58dd1a5bdb881a185cc8195b991959607a1b6044820152606401610c65565b600081815260136020526040902060030154341161188f5760405162461bcd60e51b815260206004820152601f60248201527f56616c756520697320736d616c6c6572207468616e206269642076616c7565006044820152606401610c65565b6000818152601360205260409020600101546001600160a01b03163314156118f95760405162461bcd60e51b815260206004820152601a60248201527f796f752063616e27742062696420796f7572206f776e206e66740000000000006044820152606401610c65565b60008060005b600c54811015611a3a5760166000611918836001614326565b81526020810191909152604001600020600201546001600160a01b03163314801561196257506016600061194d836001614326565b81526020019081526020016000206001015484145b15611a28573460166000611977846001614326565b815260200190815260200160002060030160008282546119979190614326565b909155505060008481526015602052604081205460019450925082906016906119c08487614326565b8152602001908152602001600020600301541115611a2857600084815260146020526040812080546001600160a01b03191633179055601690611a04836001614326565b81526020808201929092526040908101600090812060030154878252601590935220555b80611a32816143a5565b9150506118ff565b5081611b1757611a4e600c80546001019055565b6000611a59600c5490565b6040805160808101825260008781526013602090815283822060029081015484528184018a8152338587019081523460608701818152898752601686528887209751885592516001880155905192860180546001600160a01b0319166001600160a01b0390941693909317909255516003909401939093558882526015905291909120549350909150821015611b1557600084815260146020908152604080832080546001600160a01b03191633179055601590915290203490555b505b611b2033610dd9565b50506110836001600755565b60606000611b39600b5490565b905060008060005b83811015611b915760136000611b58836001614326565b815260200190815260200160002060030154600014611b7f57611b7c600184614326565b92505b611b8a600182614326565b9050611b41565b5060008267ffffffffffffffff811115611bbb57634e487b7160e01b600052604160045260246000fd5b604051908082528060200260200182016040528015611c4457816020015b611c316040518061012001604052806000815260200160006001600160a01b03168152602001600081526020016000815260200160008152602001600081526020016000815260200160608152602001600081525090565b815260200190600190039081611bd95790505b50905060005b848110156115e5576000601381611c62846001614326565b8152602001908152602001600020905060136000836001611c839190614326565b815260200190815260200160002060030154600014611dcd5760408051610120810182528254815260018301546001600160a01b031660208201526002830154918101919091526003820154606082015260048201546080820152600582015460a0820152600682015460c0820152600782018054839160e0840191611d089061436a565b80601f0160208091040260200160405190810160405280929190818152602001828054611d349061436a565b8015611d815780601f10611d5657610100808354040283529160200191611d81565b820191906000526020600020905b815481529060010190602001808311611d6457829003601f168201915b50505050508152602001600882015481525050838581518110611db457634e487b7160e01b600052603260045260246000fd5b6020908102919091010152611dca600185614326565b93505b50611dd9600182614326565b9050611c4a565b6000611deb60095490565b905090565b60606000611dfd60085490565b9050600080805b83811015611e5f5733600e6000611e1c846001614326565b81526020810191909152604001600020600401546001600160a01b03161415611e4d5781611e49816143a5565b9250505b80611e57816143a5565b915050611e04565b5060008167ffffffffffffffff811115611e8957634e487b7160e01b600052604160045260246000fd5b604051908082528060200260200182016040528015611ec257816020015b611eaf6139f1565b815260200190600190039081611ea75790505b50905060005b848110156115e55733600e6000611ee0846001614326565b81526020810191909152604001600020600401546001600160a01b0316141561208a576000600e81611f13846001614326565b815260200190815260200160002090508060405180610160016040529081600082015481526020016001820154815260200160028201548152602001600382018054611f5e9061436a565b80601f0160208091040260200160405190810160405280929190818152602001828054611f8a9061436a565b8015611fd75780601f10611fac57610100808354040283529160200191611fd7565b820191906000526020600020905b815481529060010190602001808311611fba57829003601f168201915b505050918352505060048201546001600160a01b031660208201526005820154604082015260069091015460ff8082161515606084015261010082048116151560808401526201000082048116151560a0840152630100000082048116151560c084015264010000000090910416151560e090910152835184908790811061206f57634e487b7160e01b600052603260045260246000fd5b60200260200101819052508480612085906143a5565b955050505b80612094816143a5565b915050611ec8565b6000818152600260205260408120546001600160a01b031680610b315760405162461bcd60e51b8152602060048201526018602482015277115490cdcc8c4e881a5b9d985b1a59081d1bdad95b88125160421b6044820152606401610c65565b60006001600160a01b0382166121665760405162461bcd60e51b815260206004820152602960248201527f4552433732313a2061646472657373207a65726f206973206e6f7420612076616044820152683634b21037bbb732b960b91b6064820152608401610c65565b506001600160a01b031660009081526003602052604090205490565b6060600061218f60085490565b905060008060005b838110156121e757600e60006121ae836001614326565b8152602001908152602001600020600101546000146121d5576121d2600184614326565b92505b6121e0600182614326565b9050612197565b5060008267ffffffffffffffff81111561221157634e487b7160e01b600052604160045260246000fd5b60405190808252806020026020018201604052801561224a57816020015b6122376139f1565b81526020019060019003908161222f5790505b50905060005b848110156115e5576000600e81612268846001614326565b81526020019081526020016000209050600e60008360016122899190614326565b8152602001908152602001600020600101546000146124075780604051806101600160405290816000820154815260200160018201548152602001600282015481526020016003820180546122dd9061436a565b80601f01602080910402602001604051908101604052809291908181526020018280546123099061436a565b80156123565780601f1061232b57610100808354040283529160200191612356565b820191906000526020600020905b81548152906001019060200180831161233957829003601f168201915b505050918352505060048201546001600160a01b031660208201526005820154604082015260069091015460ff8082161515606084015261010082048116151560808401526201000082048116151560a0840152630100000082048116151560c084015264010000000090910416151560e09091015283518490869081106123ee57634e487b7160e01b600052603260045260246000fd5b6020908102919091010152612404600185614326565b93505b50612413600182614326565b9050612250565b600061242a600b80546001019055565b6000612435600b5490565b90504260006124448683614326565b905087600e600089815260200190815260200160002060020181905550604051806101200160405280848152602001336001600160a01b03168152602001888152602001898152602001898152602001838152602001828152602001868152602001600160ff16815250601360008581526020019081526020016000206000820151816000015560208201518160010160006101000a8154816001600160a01b0302191690836001600160a01b0316021790555060408201518160020155606082015181600301556080820151816004015560a0820151816005015560c0820151816006015560e0820151816007019080519060200190612546929190613a4c565b50610100919091015160089091015550506000858152600e60205260409020600601805463ff0000001916630100000017905590505b949350505050565b606060018054610b469061436a565b6000818152600e6020526040902060018101546004909101546001600160a01b03163314156126045760405162461bcd60e51b815260206004820152601a60248201527f796f752063616e27742062757920796f7572206f776e206e66740000000000006044820152606401610c65565b6000828152600e60205260409020600401546001600160a01b031661262a813385613019565b6126348184610bf0565b6000838152600e60205260408082206004810180546001600160a01b03191633179055600601805461010161ffff19909116179055516001600160a01b038316913480156108fc02929091818181858888f1935050505015801561269c573d6000803e3d6000fd5b506126ab600980546001019055565b60006126b660095490565b6040805160a08101825286815260208082018781526001600160a01b03808816848601908152336060860181815260016080880181815260008b8152600f89528a812099518a5596518983015593516002890180549187166001600160a01b031990921691909117905590516003909701805493511515600160a01b026001600160a81b0319909416979094169690961791909117909155898252600e9092529283209091019190915590915061276c90610dd9565b5050506000908152600e60205260409020600601805462ff000019169055565b6000611deb600c5490565b6127a2338383613430565b5050565b6000611deb600d5490565b606060006127be60095490565b9050600080805b838110156128205733600f60006127dd846001614326565b81526020810191909152604001600020600201546001600160a01b0316141561280e578161280a816143a5565b9250505b80612818816143a5565b9150506127c5565b5060008167ffffffffffffffff81111561284a57634e487b7160e01b600052604160045260246000fd5b6040519080825280602002602001820160405280156128a357816020015b6040805160a0810182526000808252602080830182905292820181905260608201819052608082015282526000199092019101816128685790505b50905060005b848110156115e55733600f60006128c1846001614326565b81526020810191909152604001600020600201546001600160a01b03161415612995576000600f816128f4846001614326565b81526020808201929092526040908101600020815160a0810183528154815260018201549381019390935260028101546001600160a01b039081169284019290925260038101549182166060840152600160a01b90910460ff1615156080830152845190925084908790811061297a57634e487b7160e01b600052603260045260246000fd5b60200260200101819052508480612990906143a5565b955050505b8061299f816143a5565b9150506128a9565b606060006129b4600c5490565b9050600080805b83811015612a0b57601660006129d2836001614326565b8152602001908152602001600020600301546000146129f957816129f5816143a5565b9250505b80612a03816143a5565b9150506129bb565b5060008167ffffffffffffffff811115612a3557634e487b7160e01b600052604160045260246000fd5b604051908082528060200260200182016040528015612a9a57816020015b612a876040518060800160405280600081526020016000815260200160006001600160a01b03168152602001600081525090565b815260200190600190039081612a535790505b50905060005b848110156115e55760166000612ab7836001614326565b815260200190815260200160002060030154600014612b6a576000601681612ae0846001614326565b8152602080820192909252604090810160002081516080810183528154815260018201549381019390935260028101546001600160a01b031691830191909152600381015460608301528451909250849087908110612b4f57634e487b7160e01b600052603260045260246000fd5b60200260200101819052508480612b65906143a5565b955050505b80612b74816143a5565b915050612aa0565b612b86338361317d565b612ba25760405162461bcd60e51b8152600401610c6590614172565b612bae848484846134ff565b50505050565b6060612bbf82612ef2565b60008281526006602052604081208054612bd89061436a565b80601f0160208091040260200160405190810160405280929190818152602001828054612c049061436a565b8015612c515780601f10612c2657610100808354040283529160200191612c51565b820191906000526020600020905b815481529060010190602001808311612c3457829003601f168201915b505050505090506000612c6f60408051602081019091526000815290565b9050805160001415612c82575092915050565b815115612cb4578082604051602001612c9c929190613e68565b60405160208183030381529060405292505050919050565b61257c84613532565b6013602052600090815260409020805460018201546002830154600384015460048501546005860154600687015460078801805497986001600160a01b03909716979596949593949293919291612d139061436a565b80601f0160208091040260200160405190810160405280929190818152602001828054612d3f9061436a565b8015612d8c5780601f10612d6157610100808354040283529160200191612d8c565b820191906000526020600020905b815481529060010190602001808311612d6f57829003601f168201915b5050505050908060080154905089565b600e60205260009081526040902080546001820154600283015460038401805493949293919291612dcc9061436a565b80601f0160208091040260200160405190810160405280929190818152602001828054612df89061436a565b8015612e455780601f10612e1a57610100808354040283529160200191612e45565b820191906000526020600020905b815481529060010190602001808311612e2857829003601f168201915b5050506004840154600585015460069095015493946001600160a01b039091169390925060ff80821692506101008204811691620100008104821691630100000082048116916401000000009004168b565b6000611deb60085490565b60006001600160e01b031982166380ac58cd60e01b1480612ed357506001600160e01b03198216635b5e139f60e01b145b80610b3157506301ffc9a760e01b6001600160e01b0319831614610b31565b6000818152600260205260409020546001600160a01b03166110835760405162461bcd60e51b8152602060048201526018602482015277115490cdcc8c4e881a5b9d985b1a59081d1bdad95b88125160421b6044820152606401610c65565b600081815260046020526040902080546001600160a01b0319166001600160a01b0384169081179091558190612f868261209c565b6001600160a01b03167f8c5be1e5ebec7d5bd14f71427d1e84f3dd0314c0f7b2291e5b200ac8c7c3b92560405160405180910390a45050565b600260075414156130125760405162461bcd60e51b815260206004820152601f60248201527f5265656e7472616e637947756172643a207265656e7472616e742063616c6c006044820152606401610c65565b6002600755565b826001600160a01b031661302c8261209c565b6001600160a01b0316146130525760405162461bcd60e51b8152600401610c6590614211565b6001600160a01b0382166130b45760405162461bcd60e51b8152602060048201526024808201527f4552433732313a207472616e7366657220746f20746865207a65726f206164646044820152637265737360e01b6064820152608401610c65565b826001600160a01b03166130c78261209c565b6001600160a01b0316146130ed5760405162461bcd60e51b8152600401610c6590614211565b600081815260046020908152604080832080546001600160a01b03199081169091556001600160a01b0387811680865260038552838620805460001901905590871680865283862080546001019055868652600290945282852080549092168417909155905184937fddf252ad1be2c89b69c2b068fc378daa952ba7f163c4a11628f55a4df523b3ef91a4505050565b6000806131898361209c565b9050806001600160a01b0316846001600160a01b031614806131d057506001600160a01b0380821660009081526005602090815260408083209388168352929052205460ff165b8061257c5750836001600160a01b03166131e984610bc9565b6001600160a01b031614949350505050565b6127a28282604051806020016040528060008152506135a6565b6000828152600260205260409020546001600160a01b03166132905760405162461bcd60e51b815260206004820152602e60248201527f45524337323155524953746f726167653a2055524920736574206f66206e6f6e60448201526d32bc34b9ba32b73a103a37b5b2b760911b6064820152608401610c65565b600082815260066020908152604090912082516132af92840190613a4c565b506040518281527ff8e1a15aba9398e019f0b49df1a4fde98ee17ae345cb5f6b5e2c27f5033e8ce79060200160405180910390a15050565b6040805161016081018252848152600060208083018281528385018381526060850187815233608087015260a0860189905260c0860185905260e08601859052610100860185905261012086018590526101408601859052898552600e84529590932084518155905160018201559151600283015592518051929391926133749260038501920190613a4c565b5060808201516004820180546001600160a01b0319166001600160a01b0390921691909117905560a0820151600582015560c08201516006909101805460e0840151610100808601516101208701516101409097015161ffff1990941695151561ff00191695909517911515021763ffff00001916620100009315159390930263ff0000001916929092176301000000931515939093029290921764ff00000000191664010000000091151591909102179055610d0633610dd9565b816001600160a01b0316836001600160a01b031614156134925760405162461bcd60e51b815260206004820152601960248201527f4552433732313a20617070726f766520746f2063616c6c6572000000000000006044820152606401610c65565b6001600160a01b03838116600081815260056020908152604080832094871680845294825291829020805460ff191686151590811790915591519182527f17307eab39ab6107e8899845ad3d59bd9653f200f220920489ca2b5937696c31910160405180910390a3505050565b61350a848484613019565b613516848484846135d9565b612bae5760405162461bcd60e51b8152600401610c65906141bf565b606061353d82612ef2565b600061355460408051602081019091526000815290565b90506000815111613574576040518060200160405280600081525061359f565b8061357e846136e3565b60405160200161358f929190613e68565b6040516020818303038152906040525b9392505050565b6135b0838361378e565b6135bd60008484846135d9565b610d065760405162461bcd60e51b8152600401610c65906141bf565b60006001600160a01b0384163b156136db57604051630a85bd0160e11b81526001600160a01b0385169063150b7a029061361d903390899088908890600401613e97565b602060405180830381600087803b15801561363757600080fd5b505af1925050508015613667575060408051601f3d908101601f1916820190925261366491810190613d15565b60015b6136c1573d808015613695576040519150601f19603f3d011682016040523d82523d6000602084013e61369a565b606091505b5080516136b95760405162461bcd60e51b8152600401610c65906141bf565b805181602001fd5b6001600160e01b031916630a85bd0160e11b14905061257c565b50600161257c565b606060006136f083613919565b600101905060008167ffffffffffffffff81111561371e57634e487b7160e01b600052604160045260246000fd5b6040519080825280601f01601f191660200182016040528015613748576020820181803683370190505b5090508181016020015b600019016f181899199a1a9b1b9c1cb0b131b232b360811b600a86061a8153600a850494508461378157613786565b613752565b509392505050565b6001600160a01b0382166137e45760405162461bcd60e51b815260206004820181905260248201527f4552433732313a206d696e7420746f20746865207a65726f20616464726573736044820152606401610c65565b6000818152600260205260409020546001600160a01b0316156138495760405162461bcd60e51b815260206004820152601c60248201527f4552433732313a20746f6b656e20616c7265616479206d696e746564000000006044820152606401610c65565b6000818152600260205260409020546001600160a01b0316156138ae5760405162461bcd60e51b815260206004820152601c60248201527f4552433732313a20746f6b656e20616c7265616479206d696e746564000000006044820152606401610c65565b6001600160a01b038216600081815260036020908152604080832080546001019055848352600290915280822080546001600160a01b0319168417905551839291907fddf252ad1be2c89b69c2b068fc378daa952ba7f163c4a11628f55a4df523b3ef908290a45050565b60008072184f03e93ff9f4daa797ed6e38ed64bf6a1f0160401b83106139585772184f03e93ff9f4daa797ed6e38ed64bf6a1f0160401b830492506040015b6d04ee2d6d415b85acef81000000008310613984576d04ee2d6d415b85acef8100000000830492506020015b662386f26fc1000083106139a257662386f26fc10000830492506010015b6305f5e10083106139ba576305f5e100830492506008015b61271083106139ce57612710830492506004015b606483106139e0576064830492506002015b600a8310610b315760010192915050565b60408051610160810182526000808252602082018190529181018290526060808201526080810182905260a0810182905260c0810182905260e081018290526101008101829052610120810182905261014081019190915290565b828054613a589061436a565b90600052602060002090601f016020900481019282613a7a5760008555613ac0565b82601f10613a9357805160ff1916838001178555613ac0565b82800160010185558215613ac0579182015b82811115613ac0578251825591602001919060010190613aa5565b50613acc929150613ad0565b5090565b5b80821115613acc5760008155600101613ad1565b600067ffffffffffffffff80841115613b0057613b006143d6565b604051601f8501601f19908116603f01168101908282118183101715613b2857613b286143d6565b81604052809350858152868686011115613b4157600080fd5b858560208301376000602087830101525050509392505050565b80356001600160a01b0381168114613b7257600080fd5b919050565b600082601f830112613b87578081fd5b61359f83833560208501613ae5565b600060208284031215613ba7578081fd5b61359f82613b5b565b60008060408385031215613bc2578081fd5b613bcb83613b5b565b9150613bd960208401613b5b565b90509250929050565b600080600060608486031215613bf6578081fd5b613bff84613b5b565b9250613c0d60208501613b5b565b9150604084013590509250925092565b60008060008060808587031215613c32578081fd5b613c3b85613b5b565b9350613c4960208601613b5b565b925060408501359150606085013567ffffffffffffffff811115613c6b578182fd5b8501601f81018713613c7b578182fd5b613c8a87823560208401613ae5565b91505092959194509250565b60008060408385031215613ca8578182fd5b613cb183613b5b565b915060208301358015158114613cc5578182fd5b809150509250929050565b60008060408385031215613ce2578182fd5b613ceb83613b5b565b946020939093013593505050565b600060208284031215613d0a578081fd5b813561359f816143ec565b600060208284031215613d26578081fd5b815161359f816143ec565b600080600060608486031215613d45578283fd5b833567ffffffffffffffff80821115613d5c578485fd5b613d6887838801613b77565b94506020860135915080821115613d7d578384fd5b50613d8a86828701613b77565b925050604084013590509250925092565b600060208284031215613dac578081fd5b5035919050565b60008060408385031215613dc5578182fd5b50508035926020909101359150565b60008060008060808587031215613de9578384fd5b843593506020850135925060408501359150606085013567ffffffffffffffff811115613e14578182fd5b613c8a87828801613b77565b60008151808452613e3881602086016020860161433e565b601f01601f19169290920160200192915050565b60008251613e5e81846020870161433e565b9190910192915050565b60008351613e7a81846020880161433e565b835190830190613e8e81836020880161433e565b01949350505050565b6001600160a01b0385811682528416602082015260408101839052608060608201819052600090613eca90830184613e20565b9695505050505050565b602080825282518282018190526000919060409081850190868401855b82811015613f34578151805185528681015187860152858101516001600160a01b0316868601526060908101519085015260809093019290850190600101613ef1565b5091979650505050505050565b602080825282518282018190526000919060409081850190868401855b82811015613f34578151805185528681015187860152858101516001600160a01b03908116878701526060808301519091169086015260809081015115159085015260a09093019290850190600101613f5e565b60006020808301818452808551808352604092508286019150828160051b870101848801865b8381101561409357603f1989840301855281516101608151855288820151898601528782015188860152606080830151828288015261401983880182613e20565b92505050608080830151614037828801826001600160a01b03169052565b505060a0828101519086015260c08083015115159086015260e080830151151590860152610100808301511515908601526101208083015115159086015261014091820151151591909401529386019390860190600101613fd8565b509098975050505050505050565b60006020808301818452808551808352604092508286019150828160051b870101848801865b8381101561409357603f19898403018552815180518452878101516001600160a01b0316888501528681015187850152606080820151908501526080808201519085015260a0808201519085015260c0808201519085015260e080820151610120828701819052919061413c83880182613e20565b6101009485015197909401969096525050948701949250908601906001016140c7565b60208152600061359f6020830184613e20565b6020808252602d908201527f4552433732313a2063616c6c6572206973206e6f7420746f6b656e206f776e6560408201526c1c881bdc88185c1c1c9bdd9959609a1b606082015260800190565b60208082526032908201527f4552433732313a207472616e7366657220746f206e6f6e20455243373231526560408201527131b2b4bb32b91034b6b83632b6b2b73a32b960711b606082015260800190565b60208082526025908201527f4552433732313a207472616e736665722066726f6d20696e636f72726563742060408201526437bbb732b960d91b606082015260800190565b60006101208b835260018060a01b038b1660208401528960408401528860608401528760808401528660a08401528560c08401528060e084015261429c81840186613e20565b915050826101008301529a9950505050505050505050565b60006101608d83528c60208401528b60408401528060608401526142da8184018c613e20565b6001600160a01b039a909a166080840152505060a081019690965293151560c086015291151560e085015215156101008401521515610120830152151561014090910152949350505050565b60008219821115614339576143396143c0565b500190565b60005b83811015614359578181015183820152602001614341565b83811115612bae5750506000910152565b600181811c9082168061437e57607f821691505b6020821081141561439f57634e487b7160e01b600052602260045260246000fd5b50919050565b60006000198214156143b9576143b96143c0565b5060010190565b634e487b7160e01b600052601160045260246000fd5b634e487b7160e01b600052604160045260246000fd5b6001600160e01b03198116811461108357600080fdfea2646970667358221220f2cd7814ac1ef01914a9ffcd6e55bd02e9c90eed159187bac0b049735d15531664736f6c63430008040033","opcodes":"PUSH1 0x80 PUSH1 0x40 MSTORE PUSH1 0xA PUSH1 0x12 SSTORE CALLVALUE DUP1 ISZERO PUSH3 0x16 JUMPI PUSH1 0x0 DUP1 REVERT JUMPDEST POP PUSH1 0x40 DUP1 MLOAD DUP1 DUP3 ADD DUP3 MSTORE PUSH1 0x15 DUP2 MSTORE PUSH32 0x506F6C79676F6E4E46544D61726B6574706C6163650000000000000000000000 PUSH1 0x20 DUP1 DUP4 ADD SWAP2 DUP3 MSTORE DUP4 MLOAD DUP1 DUP6 ADD SWAP1 SWAP5 MSTORE PUSH1 0x4 DUP5 MSTORE PUSH4 0x4441524B PUSH1 0xE0 SHL SWAP1 DUP5 ADD MSTORE DUP2 MLOAD SWAP2 SWAP3 SWAP2 PUSH3 0x78 SWAP2 PUSH1 0x0 SWAP2 PUSH3 0x9C JUMP JUMPDEST POP DUP1 MLOAD PUSH3 0x8E SWAP1 PUSH1 0x1 SWAP1 PUSH1 0x20 DUP5 ADD SWAP1 PUSH3 0x9C JUMP JUMPDEST POP POP PUSH1 0x1 PUSH1 0x7 SSTORE POP PUSH3 0x17F JUMP JUMPDEST DUP3 DUP1 SLOAD PUSH3 0xAA SWAP1 PUSH3 0x142 JUMP JUMPDEST SWAP1 PUSH1 0x0 MSTORE PUSH1 0x20 PUSH1 0x0 KECCAK256 SWAP1 PUSH1 0x1F ADD PUSH1 0x20 SWAP1 DIV DUP2 ADD SWAP3 DUP3 PUSH3 0xCE JUMPI PUSH1 0x0 DUP6 SSTORE PUSH3 0x119 JUMP JUMPDEST DUP3 PUSH1 0x1F LT PUSH3 0xE9 JUMPI DUP1 MLOAD PUSH1 0xFF NOT AND DUP4 DUP1 ADD OR DUP6 SSTORE PUSH3 0x119 JUMP JUMPDEST DUP3 DUP1 ADD PUSH1 0x1 ADD DUP6 SSTORE DUP3 ISZERO PUSH3 0x119 JUMPI SWAP2 DUP3 ADD JUMPDEST DUP3 DUP2 GT ISZERO PUSH3 0x119 JUMPI DUP3 MLOAD DUP3 SSTORE SWAP2 PUSH1 0x20 ADD SWAP2 SWAP1 PUSH1 0x1 ADD SWAP1 PUSH3 0xFC JUMP JUMPDEST POP PUSH3 0x127 SWAP3 SWAP2 POP PUSH3 0x12B JUMP JUMPDEST POP SWAP1 JUMP JUMPDEST JUMPDEST DUP1 DUP3 GT ISZERO PUSH3 0x127 JUMPI PUSH1 0x0 DUP2 SSTORE PUSH1 0x1 ADD PUSH3 0x12C JUMP JUMPDEST PUSH1 0x1 DUP2 DUP2 SHR SWAP1 DUP3 AND DUP1 PUSH3 0x157 JUMPI PUSH1 0x7F DUP3 AND SWAP2 POP JUMPDEST PUSH1 0x20 DUP3 LT DUP2 EQ ISZERO PUSH3 0x179 JUMPI PUSH4 0x4E487B71 PUSH1 0xE0 SHL PUSH1 0x0 MSTORE PUSH1 0x22 PUSH1 0x4 MSTORE PUSH1 0x24 PUSH1 0x0 REVERT JUMPDEST POP SWAP2 SWAP1 POP JUMP JUMPDEST PUSH2 0x4438 DUP1 PUSH3 0x18F PUSH1 0x0 CODECOPY PUSH1 0x0 RETURN INVALID PUSH1 0x80 PUSH1 0x40 MSTORE PUSH1 0x4 CALLDATASIZE LT PUSH2 0x31A JUMPI PUSH1 0x0 CALLDATALOAD PUSH1 0xE0 SHR DUP1 PUSH4 0x70A08231 GT PUSH2 0x1AB JUMPI DUP1 PUSH4 0xADC2524C GT PUSH2 0xF7 JUMPI DUP1 PUSH4 0xE57A497A GT PUSH2 0x95 JUMPI DUP1 PUSH4 0xE985E9C5 GT PUSH2 0x6F JUMPI DUP1 PUSH4 0xE985E9C5 EQ PUSH2 0xA80 JUMPI DUP1 PUSH4 0xEDF2EBCC EQ PUSH2 0xAC9 JUMPI DUP1 PUSH4 0xF67A769C EQ PUSH2 0xAE0 JUMPI DUP1 PUSH4 0xFAD266FE EQ PUSH2 0xAF5 JUMPI PUSH1 0x0 DUP1 REVERT JUMPDEST DUP1 PUSH4 0xE57A497A EQ PUSH2 0x9DB JUMPI DUP1 PUSH4 0xE5AFE4D1 EQ PUSH2 0xA12 JUMPI DUP1 PUSH4 0xE877D3F8 EQ PUSH2 0xA53 JUMPI PUSH1 0x0 DUP1 REVERT JUMPDEST DUP1 PUSH4 0xB88D4FDE GT PUSH2 0xD1 JUMPI DUP1 PUSH4 0xB88D4FDE EQ PUSH2 0x930 JUMPI DUP1 PUSH4 0xC750CB79 EQ PUSH2 0x950 JUMPI DUP1 PUSH4 0xC87B56DD EQ PUSH2 0x986 JUMPI DUP1 PUSH4 0xDE74E57B EQ PUSH2 0x9A6 JUMPI PUSH1 0x0 DUP1 REVERT JUMPDEST DUP1 PUSH4 0xADC2524C EQ PUSH2 0x8A7 JUMPI DUP1 PUSH4 0xB27DCE81 EQ PUSH2 0x8EC JUMPI DUP1 PUSH4 0xB820A6D1 EQ PUSH2 0x90E JUMPI PUSH1 0x0 DUP1 REVERT JUMPDEST DUP1 PUSH4 0x95D89B41 GT PUSH2 0x164 JUMPI DUP1 PUSH4 0xA22CB465 GT PUSH2 0x13E JUMPI DUP1 PUSH4 0xA22CB465 EQ PUSH2 0x844 JUMPI DUP1 PUSH4 0xA4FDB635 EQ PUSH2 0x864 JUMPI DUP1 PUSH4 0xA71FFA76 EQ PUSH2 0x87B JUMPI DUP1 PUSH4 0xA9C63AA0 EQ PUSH2 0x892 JUMPI PUSH1 0x0 DUP1 REVERT JUMPDEST DUP1 PUSH4 0x95D89B41 EQ PUSH2 0x807 JUMPI DUP1 PUSH4 0x9B1225C4 EQ PUSH2 0x81C JUMPI DUP1 PUSH4 0x9D6E5FB3 EQ PUSH2 0x82F JUMPI PUSH1 0x0 DUP1 REVERT JUMPDEST DUP1 PUSH4 0x70A08231 EQ PUSH2 0x73A JUMPI DUP1 PUSH4 0x732E8D73 EQ PUSH2 0x75A JUMPI DUP1 PUSH4 0x740DB280 EQ PUSH2 0x76F JUMPI DUP1 PUSH4 0x7AEA3738 EQ PUSH2 0x784 JUMPI DUP1 PUSH4 0x8055CCAA EQ PUSH2 0x7B1 JUMPI DUP1 PUSH4 0x92A374B7 EQ PUSH2 0x7E7 JUMPI PUSH1 0x0 DUP1 REVERT JUMPDEST DUP1 PUSH4 0x33024100 GT PUSH2 0x26A JUMPI DUP1 PUSH4 0x4945DCDD GT PUSH2 0x223 JUMPI DUP1 PUSH4 0x6352211E GT PUSH2 0x1FD JUMPI DUP1 PUSH4 0x6352211E EQ PUSH2 0x670 JUMPI DUP1 PUSH4 0x6B8C91CB EQ PUSH2 0x690 JUMPI DUP1 PUSH4 0x6C2C9C7D EQ PUSH2 0x70D JUMPI DUP1 PUSH4 0x708D4D35 EQ PUSH2 0x724 JUMPI PUSH1 0x0 DUP1 REVERT JUMPDEST DUP1 PUSH4 0x4945DCDD EQ PUSH2 0x624 JUMPI DUP1 PUSH4 0x59BE5E45 EQ PUSH2 0x646 JUMPI DUP1 PUSH4 0x629CB2E4 EQ PUSH2 0x65B JUMPI PUSH1 0x0 DUP1 REVERT JUMPDEST DUP1 PUSH4 0x33024100 EQ PUSH2 0x4F2 JUMPI DUP1 PUSH4 0x356E9392 EQ PUSH2 0x583 JUMPI DUP1 PUSH4 0x36AD658F EQ PUSH2 0x5A4 JUMPI DUP1 PUSH4 0x42842E0E EQ PUSH2 0x5BB JUMPI DUP1 PUSH4 0x451DF52E EQ PUSH2 0x5DB JUMPI DUP1 PUSH4 0x454A2AB3 EQ PUSH2 0x611 JUMPI PUSH1 0x0 DUP1 REVERT JUMPDEST DUP1 PUSH4 0xCB5F653 GT PUSH2 0x2D7 JUMPI DUP1 PUSH4 0x21B62886 GT PUSH2 0x2B1 JUMPI DUP1 PUSH4 0x21B62886 EQ PUSH2 0x476 JUMPI DUP1 PUSH4 0x23B872DD EQ PUSH2 0x489 JUMPI DUP1 PUSH4 0x24F8515B EQ PUSH2 0x4A9 JUMPI DUP1 PUSH4 0x287906B5 EQ PUSH2 0x4D0 JUMPI PUSH1 0x0 DUP1 REVERT JUMPDEST DUP1 PUSH4 0xCB5F653 EQ PUSH2 0x410 JUMPI DUP1 PUSH4 0xEAAF4C8 EQ PUSH2 0x430 JUMPI DUP1 PUSH4 0x1389B117 EQ PUSH2 0x443 JUMPI PUSH1 0x0 DUP1 REVERT JUMPDEST DUP1 PUSH4 0x1FFC9A7 EQ PUSH2 0x31F JUMPI DUP1 PUSH4 0x6FDDE03 EQ PUSH2 0x354 JUMPI DUP1 PUSH4 0x81812FC EQ PUSH2 0x376 JUMPI DUP1 PUSH4 0x95EA7B3 EQ PUSH2 0x3AE JUMPI DUP1 PUSH4 0xAD48628 EQ PUSH2 0x3D0 JUMPI DUP1 PUSH4 0xAD52CC6 EQ PUSH2 0x3F0 JUMPI JUMPDEST PUSH1 0x0 DUP1 REVERT JUMPDEST CALLVALUE DUP1 ISZERO PUSH2 0x32B JUMPI PUSH1 0x0 DUP1 REVERT JUMPDEST POP PUSH2 0x33F PUSH2 0x33A CALLDATASIZE PUSH1 0x4 PUSH2 0x3CF9 JUMP JUMPDEST PUSH2 0xB0C JUMP JUMPDEST PUSH1 0x40 MLOAD SWAP1 ISZERO ISZERO DUP2 MSTORE PUSH1 0x20 ADD JUMPDEST PUSH1 0x40 MLOAD DUP1 SWAP2 SUB SWAP1 RETURN JUMPDEST CALLVALUE DUP1 ISZERO PUSH2 0x360 JUMPI PUSH1 0x0 DUP1 REVERT JUMPDEST POP PUSH2 0x369 PUSH2 0xB37 JUMP JUMPDEST PUSH1 0x40 MLOAD PUSH2 0x34B SWAP2 SWAP1 PUSH2 0x415F JUMP JUMPDEST CALLVALUE DUP1 ISZERO PUSH2 0x382 JUMPI PUSH1 0x0 DUP1 REVERT JUMPDEST POP PUSH2 0x396 PUSH2 0x391 CALLDATASIZE PUSH1 0x4 PUSH2 0x3D9B JUMP JUMPDEST PUSH2 0xBC9 JUMP JUMPDEST PUSH1 0x40 MLOAD PUSH1 0x1 PUSH1 0x1 PUSH1 0xA0 SHL SUB SWAP1 SWAP2 AND DUP2 MSTORE PUSH1 0x20 ADD PUSH2 0x34B JUMP JUMPDEST CALLVALUE DUP1 ISZERO PUSH2 0x3BA JUMPI PUSH1 0x0 DUP1 REVERT JUMPDEST POP PUSH2 0x3CE PUSH2 0x3C9 CALLDATASIZE PUSH1 0x4 PUSH2 0x3CD0 JUMP JUMPDEST PUSH2 0xBF0 JUMP JUMPDEST STOP JUMPDEST CALLVALUE DUP1 ISZERO PUSH2 0x3DC JUMPI PUSH1 0x0 DUP1 REVERT JUMPDEST POP PUSH2 0x33F PUSH2 0x3EB CALLDATASIZE PUSH1 0x4 PUSH2 0x3D9B JUMP JUMPDEST PUSH2 0xD0B JUMP JUMPDEST CALLVALUE DUP1 ISZERO PUSH2 0x3FC JUMPI PUSH1 0x0 DUP1 REVERT JUMPDEST POP PUSH2 0x369 PUSH2 0x40B CALLDATASIZE PUSH1 0x4 PUSH2 0x3D9B JUMP JUMPDEST PUSH2 0xD3F JUMP JUMPDEST CALLVALUE DUP1 ISZERO PUSH2 0x41C JUMPI PUSH1 0x0 DUP1 REVERT JUMPDEST POP PUSH2 0x3CE PUSH2 0x42B CALLDATASIZE PUSH1 0x4 PUSH2 0x3B96 JUMP JUMPDEST PUSH2 0xDD9 JUMP JUMPDEST PUSH2 0x3CE PUSH2 0x43E CALLDATASIZE PUSH1 0x4 PUSH2 0x3D9B JUMP JUMPDEST PUSH2 0xE99 JUMP JUMPDEST CALLVALUE DUP1 ISZERO PUSH2 0x44F JUMPI PUSH1 0x0 DUP1 REVERT JUMPDEST POP PUSH2 0x33F PUSH2 0x45E CALLDATASIZE PUSH1 0x4 PUSH2 0x3D9B JUMP JUMPDEST PUSH1 0x0 SWAP1 DUP2 MSTORE PUSH1 0x13 PUSH1 0x20 MSTORE PUSH1 0x40 SWAP1 KECCAK256 PUSH1 0x6 ADD SLOAD TIMESTAMP LT ISZERO SWAP1 JUMP JUMPDEST PUSH2 0x3CE PUSH2 0x484 CALLDATASIZE PUSH1 0x4 PUSH2 0x3D9B JUMP JUMPDEST PUSH2 0x1086 JUMP JUMPDEST CALLVALUE DUP1 ISZERO PUSH2 0x495 JUMPI PUSH1 0x0 DUP1 REVERT JUMPDEST POP PUSH2 0x3CE PUSH2 0x4A4 CALLDATASIZE PUSH1 0x4 PUSH2 0x3BE2 JUMP JUMPDEST PUSH2 0x131A JUMP JUMPDEST CALLVALUE DUP1 ISZERO PUSH2 0x4B5 JUMPI PUSH1 0x0 DUP1 REVERT JUMPDEST POP PUSH2 0x4BE PUSH1 0x1 DUP2 JUMP JUMPDEST PUSH1 0x40 MLOAD PUSH1 0xFF SWAP1 SWAP2 AND DUP2 MSTORE PUSH1 0x20 ADD PUSH2 0x34B JUMP JUMPDEST CALLVALUE DUP1 ISZERO PUSH2 0x4DC JUMPI PUSH1 0x0 DUP1 REVERT JUMPDEST POP PUSH2 0x4E5 PUSH2 0x134B JUMP JUMPDEST PUSH1 0x40 MLOAD PUSH2 0x34B SWAP2 SWAP1 PUSH2 0x3FB2 JUMP JUMPDEST CALLVALUE DUP1 ISZERO PUSH2 0x4FE JUMPI PUSH1 0x0 DUP1 REVERT JUMPDEST POP PUSH2 0x54D PUSH2 0x50D CALLDATASIZE PUSH1 0x4 PUSH2 0x3D9B JUMP JUMPDEST PUSH1 0xF PUSH1 0x20 MSTORE PUSH1 0x0 SWAP1 DUP2 MSTORE PUSH1 0x40 SWAP1 KECCAK256 DUP1 SLOAD PUSH1 0x1 DUP3 ADD SLOAD PUSH1 0x2 DUP4 ADD SLOAD PUSH1 0x3 SWAP1 SWAP4 ADD SLOAD SWAP2 SWAP3 SWAP1 SWAP2 PUSH1 0x1 PUSH1 0x1 PUSH1 0xA0 SHL SUB SWAP2 DUP3 AND SWAP2 DUP2 AND SWAP1 PUSH1 0x1 PUSH1 0xA0 SHL SWAP1 DIV PUSH1 0xFF AND DUP6 JUMP JUMPDEST PUSH1 0x40 DUP1 MLOAD SWAP6 DUP7 MSTORE PUSH1 0x20 DUP7 ADD SWAP5 SWAP1 SWAP5 MSTORE PUSH1 0x1 PUSH1 0x1 PUSH1 0xA0 SHL SUB SWAP3 DUP4 AND SWAP4 DUP6 ADD SWAP4 SWAP1 SWAP4 MSTORE AND PUSH1 0x60 DUP4 ADD MSTORE ISZERO ISZERO PUSH1 0x80 DUP3 ADD MSTORE PUSH1 0xA0 ADD PUSH2 0x34B JUMP JUMPDEST PUSH2 0x596 PUSH2 0x591 CALLDATASIZE PUSH1 0x4 PUSH2 0x3D31 JUMP JUMPDEST PUSH2 0x15EE JUMP JUMPDEST PUSH1 0x40 MLOAD SWAP1 DUP2 MSTORE PUSH1 0x20 ADD PUSH2 0x34B JUMP JUMPDEST CALLVALUE DUP1 ISZERO PUSH2 0x5B0 JUMPI PUSH1 0x0 DUP1 REVERT JUMPDEST POP PUSH1 0x8 SLOAD PUSH2 0x596 SWAP1 DUP2 JUMP JUMPDEST CALLVALUE DUP1 ISZERO PUSH2 0x5C7 JUMPI PUSH1 0x0 DUP1 REVERT JUMPDEST POP PUSH2 0x3CE PUSH2 0x5D6 CALLDATASIZE PUSH1 0x4 PUSH2 0x3BE2 JUMP JUMPDEST PUSH2 0x17C3 JUMP JUMPDEST CALLVALUE DUP1 ISZERO PUSH2 0x5E7 JUMPI PUSH1 0x0 DUP1 REVERT JUMPDEST POP PUSH2 0x396 PUSH2 0x5F6 CALLDATASIZE PUSH1 0x4 PUSH2 0x3D9B JUMP JUMPDEST PUSH1 0x14 PUSH1 0x20 MSTORE PUSH1 0x0 SWAP1 DUP2 MSTORE PUSH1 0x40 SWAP1 KECCAK256 SLOAD PUSH1 0x1 PUSH1 0x1 PUSH1 0xA0 SHL SUB AND DUP2 JUMP JUMPDEST PUSH2 0x3CE PUSH2 0x61F CALLDATASIZE PUSH1 0x4 PUSH2 0x3D9B JUMP JUMPDEST PUSH2 0x17DE JUMP JUMPDEST CALLVALUE DUP1 ISZERO PUSH2 0x630 JUMPI PUSH1 0x0 DUP1 REVERT JUMPDEST POP PUSH2 0x639 PUSH2 0x1B2C JUMP JUMPDEST PUSH1 0x40 MLOAD PUSH2 0x34B SWAP2 SWAP1 PUSH2 0x40A1 JUMP JUMPDEST CALLVALUE DUP1 ISZERO PUSH2 0x652 JUMPI PUSH1 0x0 DUP1 REVERT JUMPDEST POP PUSH2 0x596 PUSH2 0x1DE0 JUMP JUMPDEST CALLVALUE DUP1 ISZERO PUSH2 0x667 JUMPI PUSH1 0x0 DUP1 REVERT JUMPDEST POP PUSH2 0x4E5 PUSH2 0x1DF0 JUMP JUMPDEST CALLVALUE DUP1 ISZERO PUSH2 0x67C JUMPI PUSH1 0x0 DUP1 REVERT JUMPDEST POP PUSH2 0x396 PUSH2 0x68B CALLDATASIZE PUSH1 0x4 PUSH2 0x3D9B JUMP JUMPDEST PUSH2 0x209C JUMP JUMPDEST CALLVALUE DUP1 ISZERO PUSH2 0x69C JUMPI PUSH1 0x0 DUP1 REVERT JUMPDEST POP PUSH2 0x6DE PUSH2 0x6AB CALLDATASIZE PUSH1 0x4 PUSH2 0x3D9B JUMP JUMPDEST PUSH1 0x16 PUSH1 0x20 MSTORE PUSH1 0x0 SWAP1 DUP2 MSTORE PUSH1 0x40 SWAP1 KECCAK256 DUP1 SLOAD PUSH1 0x1 DUP3 ADD SLOAD PUSH1 0x2 DUP4 ADD SLOAD PUSH1 0x3 SWAP1 SWAP4 ADD SLOAD SWAP2 SWAP3 SWAP1 SWAP2 PUSH1 0x1 PUSH1 0x1 PUSH1 0xA0 SHL SUB SWAP1 SWAP2 AND SWAP1 DUP5 JUMP JUMPDEST PUSH1 0x40 MLOAD PUSH2 0x34B SWAP5 SWAP4 SWAP3 SWAP2 SWAP1 SWAP4 DUP5 MSTORE PUSH1 0x20 DUP5 ADD SWAP3 SWAP1 SWAP3 MSTORE PUSH1 0x1 PUSH1 0x1 PUSH1 0xA0 SHL SUB AND PUSH1 0x40 DUP4 ADD MSTORE PUSH1 0x60 DUP3 ADD MSTORE PUSH1 0x80 ADD SWAP1 JUMP JUMPDEST CALLVALUE DUP1 ISZERO PUSH2 0x719 JUMPI PUSH1 0x0 DUP1 REVERT JUMPDEST POP PUSH1 0xB SLOAD PUSH2 0x596 SWAP1 DUP2 JUMP JUMPDEST CALLVALUE DUP1 ISZERO PUSH2 0x730 JUMPI PUSH1 0x0 DUP1 REVERT JUMPDEST POP PUSH2 0x596 PUSH1 0x12 SLOAD DUP2 JUMP JUMPDEST CALLVALUE DUP1 ISZERO PUSH2 0x746 JUMPI PUSH1 0x0 DUP1 REVERT JUMPDEST POP PUSH2 0x596 PUSH2 0x755 CALLDATASIZE PUSH1 0x4 PUSH2 0x3B96 JUMP JUMPDEST PUSH2 0x20FC JUMP JUMPDEST CALLVALUE DUP1 ISZERO PUSH2 0x766 JUMPI PUSH1 0x0 DUP1 REVERT JUMPDEST POP PUSH2 0x4E5 PUSH2 0x2182 JUMP JUMPDEST CALLVALUE DUP1 ISZERO PUSH2 0x77B JUMPI PUSH1 0x0 DUP1 REVERT JUMPDEST POP PUSH2 0x4BE PUSH1 0x0 DUP2 JUMP JUMPDEST CALLVALUE DUP1 ISZERO PUSH2 0x790 JUMPI PUSH1 0x0 DUP1 REVERT JUMPDEST POP PUSH2 0x596 PUSH2 0x79F CALLDATASIZE PUSH1 0x4 PUSH2 0x3D9B JUMP JUMPDEST PUSH1 0x0 SWAP1 DUP2 MSTORE PUSH1 0x15 PUSH1 0x20 MSTORE PUSH1 0x40 SWAP1 KECCAK256 SLOAD SWAP1 JUMP JUMPDEST CALLVALUE DUP1 ISZERO PUSH2 0x7BD JUMPI PUSH1 0x0 DUP1 REVERT JUMPDEST POP PUSH2 0x396 PUSH2 0x7CC CALLDATASIZE PUSH1 0x4 PUSH2 0x3D9B JUMP JUMPDEST PUSH1 0x11 PUSH1 0x20 MSTORE PUSH1 0x0 SWAP1 DUP2 MSTORE PUSH1 0x40 SWAP1 KECCAK256 SLOAD PUSH1 0x1 PUSH1 0x1 PUSH1 0xA0 SHL SUB AND DUP2 JUMP JUMPDEST CALLVALUE DUP1 ISZERO PUSH2 0x7F3 JUMPI PUSH1 0x0 DUP1 REVERT JUMPDEST POP PUSH2 0x596 PUSH2 0x802 CALLDATASIZE PUSH1 0x4 PUSH2 0x3DD4 JUMP JUMPDEST PUSH2 0x241A JUMP JUMPDEST CALLVALUE DUP1 ISZERO PUSH2 0x813 JUMPI PUSH1 0x0 DUP1 REVERT JUMPDEST POP PUSH2 0x369 PUSH2 0x2584 JUMP JUMPDEST PUSH2 0x3CE PUSH2 0x82A CALLDATASIZE PUSH1 0x4 PUSH2 0x3D9B JUMP JUMPDEST PUSH2 0x2593 JUMP JUMPDEST CALLVALUE DUP1 ISZERO PUSH2 0x83B JUMPI PUSH1 0x0 DUP1 REVERT JUMPDEST POP PUSH2 0x596 PUSH2 0x278C JUMP JUMPDEST CALLVALUE DUP1 ISZERO PUSH2 0x850 JUMPI PUSH1 0x0 DUP1 REVERT JUMPDEST POP PUSH2 0x3CE PUSH2 0x85F CALLDATASIZE PUSH1 0x4 PUSH2 0x3C96 JUMP JUMPDEST PUSH2 0x2797 JUMP JUMPDEST CALLVALUE DUP1 ISZERO PUSH2 0x870 JUMPI PUSH1 0x0 DUP1 REVERT JUMPDEST POP PUSH1 0xC SLOAD PUSH2 0x596 SWAP1 DUP2 JUMP JUMPDEST CALLVALUE DUP1 ISZERO PUSH2 0x887 JUMPI PUSH1 0x0 DUP1 REVERT JUMPDEST POP PUSH1 0xD SLOAD PUSH2 0x596 SWAP1 DUP2 JUMP JUMPDEST CALLVALUE DUP1 ISZERO PUSH2 0x89E JUMPI PUSH1 0x0 DUP1 REVERT JUMPDEST POP PUSH2 0x596 PUSH2 0x27A6 JUMP JUMPDEST CALLVALUE DUP1 ISZERO PUSH2 0x8B3 JUMPI PUSH1 0x0 DUP1 REVERT JUMPDEST POP PUSH2 0x3CE PUSH2 0x8C2 CALLDATASIZE PUSH1 0x4 PUSH2 0x3DB3 JUMP JUMPDEST PUSH1 0x0 SWAP1 DUP2 MSTORE PUSH1 0xE PUSH1 0x20 MSTORE PUSH1 0x40 SWAP1 KECCAK256 PUSH1 0x1 DUP2 ADD SWAP2 SWAP1 SWAP2 SSTORE PUSH1 0x6 ADD DUP1 SLOAD PUSH3 0xFF0000 NOT AND PUSH3 0x10000 OR SWAP1 SSTORE JUMP JUMPDEST CALLVALUE DUP1 ISZERO PUSH2 0x8F8 JUMPI PUSH1 0x0 DUP1 REVERT JUMPDEST POP PUSH2 0x901 PUSH2 0x27B1 JUMP JUMPDEST PUSH1 0x40 MLOAD PUSH2 0x34B SWAP2 SWAP1 PUSH2 0x3F41 JUMP JUMPDEST CALLVALUE DUP1 ISZERO PUSH2 0x91A JUMPI PUSH1 0x0 DUP1 REVERT JUMPDEST POP PUSH2 0x923 PUSH2 0x29A7 JUMP JUMPDEST PUSH1 0x40 MLOAD PUSH2 0x34B SWAP2 SWAP1 PUSH2 0x3ED4 JUMP JUMPDEST CALLVALUE DUP1 ISZERO PUSH2 0x93C JUMPI PUSH1 0x0 DUP1 REVERT JUMPDEST POP PUSH2 0x3CE PUSH2 0x94B CALLDATASIZE PUSH1 0x4 PUSH2 0x3C1D JUMP JUMPDEST PUSH2 0x2B7C JUMP JUMPDEST CALLVALUE DUP1 ISZERO PUSH2 0x95C JUMPI PUSH1 0x0 DUP1 REVERT JUMPDEST POP PUSH2 0x396 PUSH2 0x96B CALLDATASIZE PUSH1 0x4 PUSH2 0x3D9B JUMP JUMPDEST PUSH1 0x0 SWAP1 DUP2 MSTORE PUSH1 0x14 PUSH1 0x20 MSTORE PUSH1 0x40 SWAP1 KECCAK256 SLOAD PUSH1 0x1 PUSH1 0x1 PUSH1 0xA0 SHL SUB AND SWAP1 JUMP JUMPDEST CALLVALUE DUP1 ISZERO PUSH2 0x992 JUMPI PUSH1 0x0 DUP1 REVERT JUMPDEST POP PUSH2 0x369 PUSH2 0x9A1 CALLDATASIZE PUSH1 0x4 PUSH2 0x3D9B JUMP JUMPDEST PUSH2 0x2BB4 JUMP JUMPDEST CALLVALUE DUP1 ISZERO PUSH2 0x9B2 JUMPI PUSH1 0x0 DUP1 REVERT JUMPDEST POP PUSH2 0x9C6 PUSH2 0x9C1 CALLDATASIZE PUSH1 0x4 PUSH2 0x3D9B JUMP JUMPDEST PUSH2 0x2CBD JUMP JUMPDEST PUSH1 0x40 MLOAD PUSH2 0x34B SWAP10 SWAP9 SWAP8 SWAP7 SWAP6 SWAP5 SWAP4 SWAP3 SWAP2 SWAP1 PUSH2 0x4256 JUMP JUMPDEST CALLVALUE DUP1 ISZERO PUSH2 0x9E7 JUMPI PUSH1 0x0 DUP1 REVERT JUMPDEST POP PUSH2 0x9FB PUSH2 0x9F6 CALLDATASIZE PUSH1 0x4 PUSH2 0x3D9B JUMP JUMPDEST PUSH2 0x2D9C JUMP JUMPDEST PUSH1 0x40 MLOAD PUSH2 0x34B SWAP12 SWAP11 SWAP10 SWAP9 SWAP8 SWAP7 SWAP6 SWAP5 SWAP4 SWAP3 SWAP2 SWAP1 PUSH2 0x42B4 JUMP JUMPDEST CALLVALUE DUP1 ISZERO PUSH2 0xA1E JUMPI PUSH1 0x0 DUP1 REVERT JUMPDEST POP PUSH2 0x3CE PUSH2 0xA2D CALLDATASIZE PUSH1 0x4 PUSH2 0x3D9B JUMP JUMPDEST PUSH1 0x0 SWAP1 DUP2 MSTORE PUSH1 0xE PUSH1 0x20 MSTORE PUSH1 0x40 SWAP1 KECCAK256 PUSH1 0x6 ADD DUP1 SLOAD PUSH5 0xFF00000000 NOT AND PUSH5 0x100000000 OR SWAP1 SSTORE JUMP JUMPDEST CALLVALUE DUP1 ISZERO PUSH2 0xA5F JUMPI PUSH1 0x0 DUP1 REVERT JUMPDEST POP PUSH2 0x596 PUSH2 0xA6E CALLDATASIZE PUSH1 0x4 PUSH2 0x3D9B JUMP JUMPDEST PUSH1 0x15 PUSH1 0x20 MSTORE PUSH1 0x0 SWAP1 DUP2 MSTORE PUSH1 0x40 SWAP1 KECCAK256 SLOAD DUP2 JUMP JUMPDEST CALLVALUE DUP1 ISZERO PUSH2 0xA8C JUMPI PUSH1 0x0 DUP1 REVERT JUMPDEST POP PUSH2 0x33F PUSH2 0xA9B CALLDATASIZE PUSH1 0x4 PUSH2 0x3BB0 JUMP JUMPDEST PUSH1 0x1 PUSH1 0x1 PUSH1 0xA0 SHL SUB SWAP2 DUP3 AND PUSH1 0x0 SWAP1 DUP2 MSTORE PUSH1 0x5 PUSH1 0x20 SWAP1 DUP2 MSTORE PUSH1 0x40 DUP1 DUP4 KECCAK256 SWAP4 SWAP1 SWAP5 AND DUP3 MSTORE SWAP2 SWAP1 SWAP2 MSTORE KECCAK256 SLOAD PUSH1 0xFF AND SWAP1 JUMP JUMPDEST CALLVALUE DUP1 ISZERO PUSH2 0xAD5 JUMPI PUSH1 0x0 DUP1 REVERT JUMPDEST POP PUSH1 0x9 SLOAD PUSH2 0x596 SWAP1 DUP2 JUMP JUMPDEST CALLVALUE DUP1 ISZERO PUSH2 0xAEC JUMPI PUSH1 0x0 DUP1 REVERT JUMPDEST POP PUSH2 0x596 PUSH2 0x2E97 JUMP JUMPDEST CALLVALUE DUP1 ISZERO PUSH2 0xB01 JUMPI PUSH1 0x0 DUP1 REVERT JUMPDEST POP PUSH1 0xA SLOAD PUSH2 0x596 SWAP1 DUP2 JUMP JUMPDEST PUSH1 0x0 PUSH1 0x1 PUSH1 0x1 PUSH1 0xE0 SHL SUB NOT DUP3 AND PUSH4 0x24832483 PUSH1 0xE1 SHL EQ DUP1 PUSH2 0xB31 JUMPI POP PUSH2 0xB31 DUP3 PUSH2 0x2EA2 JUMP JUMPDEST SWAP3 SWAP2 POP POP JUMP JUMPDEST PUSH1 0x60 PUSH1 0x0 DUP1 SLOAD PUSH2 0xB46 SWAP1 PUSH2 0x436A JUMP JUMPDEST DUP1 PUSH1 0x1F ADD PUSH1 0x20 DUP1 SWAP2 DIV MUL PUSH1 0x20 ADD PUSH1 0x40 MLOAD SWAP1 DUP2 ADD PUSH1 0x40 MSTORE DUP1 SWAP3 SWAP2 SWAP1 DUP2 DUP2 MSTORE PUSH1 0x20 ADD DUP3 DUP1 SLOAD PUSH2 0xB72 SWAP1 PUSH2 0x436A JUMP JUMPDEST DUP1 ISZERO PUSH2 0xBBF JUMPI DUP1 PUSH1 0x1F LT PUSH2 0xB94 JUMPI PUSH2 0x100 DUP1 DUP4 SLOAD DIV MUL DUP4 MSTORE SWAP2 PUSH1 0x20 ADD SWAP2 PUSH2 0xBBF JUMP JUMPDEST DUP3 ADD SWAP2 SWAP1 PUSH1 0x0 MSTORE PUSH1 0x20 PUSH1 0x0 KECCAK256 SWAP1 JUMPDEST DUP2 SLOAD DUP2 MSTORE SWAP1 PUSH1 0x1 ADD SWAP1 PUSH1 0x20 ADD DUP1 DUP4 GT PUSH2 0xBA2 JUMPI DUP3 SWAP1 SUB PUSH1 0x1F AND DUP3 ADD SWAP2 JUMPDEST POP POP POP POP POP SWAP1 POP SWAP1 JUMP JUMPDEST PUSH1 0x0 PUSH2 0xBD4 DUP3 PUSH2 0x2EF2 JUMP JUMPDEST POP PUSH1 0x0 SWAP1 DUP2 MSTORE PUSH1 0x4 PUSH1 0x20 MSTORE PUSH1 0x40 SWAP1 KECCAK256 SLOAD PUSH1 0x1 PUSH1 0x1 PUSH1 0xA0 SHL SUB AND SWAP1 JUMP JUMPDEST PUSH1 0x0 PUSH2 0xBFB DUP3 PUSH2 0x209C JUMP JUMPDEST SWAP1 POP DUP1 PUSH1 0x1 PUSH1 0x1 PUSH1 0xA0 SHL SUB AND DUP4 PUSH1 0x1 PUSH1 0x1 PUSH1 0xA0 SHL SUB AND EQ ISZERO PUSH2 0xC6E JUMPI PUSH1 0x40 MLOAD PUSH3 0x461BCD PUSH1 0xE5 SHL DUP2 MSTORE PUSH1 0x20 PUSH1 0x4 DUP3 ADD MSTORE PUSH1 0x21 PUSH1 0x24 DUP3 ADD MSTORE PUSH32 0x4552433732313A20617070726F76616C20746F2063757272656E74206F776E65 PUSH1 0x44 DUP3 ADD MSTORE PUSH1 0x39 PUSH1 0xF9 SHL PUSH1 0x64 DUP3 ADD MSTORE PUSH1 0x84 ADD JUMPDEST PUSH1 0x40 MLOAD DUP1 SWAP2 SUB SWAP1 REVERT JUMPDEST CALLER PUSH1 0x1 PUSH1 0x1 PUSH1 0xA0 SHL SUB DUP3 AND EQ DUP1 PUSH2 0xC8A JUMPI POP PUSH2 0xC8A DUP2 CALLER PUSH2 0xA9B JUMP JUMPDEST PUSH2 0xCFC JUMPI PUSH1 0x40 MLOAD PUSH3 0x461BCD PUSH1 0xE5 SHL DUP2 MSTORE PUSH1 0x20 PUSH1 0x4 DUP3 ADD MSTORE PUSH1 0x3D PUSH1 0x24 DUP3 ADD MSTORE PUSH32 0x4552433732313A20617070726F76652063616C6C6572206973206E6F7420746F PUSH1 0x44 DUP3 ADD MSTORE PUSH32 0x6B656E206F776E6572206F7220617070726F76656420666F7220616C6C000000 PUSH1 0x64 DUP3 ADD MSTORE PUSH1 0x84 ADD PUSH2 0xC65 JUMP JUMPDEST PUSH2 0xD06 DUP4 DUP4 PUSH2 0x2F51 JUMP JUMPDEST POP POP POP JUMP JUMPDEST PUSH1 0x0 DUP2 DUP2 MSTORE PUSH1 0x13 PUSH1 0x20 MSTORE PUSH1 0x40 DUP2 KECCAK256 PUSH1 0x8 ADD SLOAD PUSH1 0x1 EQ DUP1 ISZERO PUSH2 0xB31 JUMPI POP POP PUSH1 0x0 SWAP1 DUP2 MSTORE PUSH1 0x13 PUSH1 0x20 MSTORE PUSH1 0x40 SWAP1 KECCAK256 PUSH1 0x6 ADD SLOAD TIMESTAMP LT SWAP1 JUMP JUMPDEST PUSH1 0x10 PUSH1 0x20 MSTORE PUSH1 0x0 SWAP1 DUP2 MSTORE PUSH1 0x40 SWAP1 KECCAK256 DUP1 SLOAD PUSH2 0xD58 SWAP1 PUSH2 0x436A JUMP JUMPDEST DUP1 PUSH1 0x1F ADD PUSH1 0x20 DUP1 SWAP2 DIV MUL PUSH1 0x20 ADD PUSH1 0x40 MLOAD SWAP1 DUP2 ADD PUSH1 0x40 MSTORE DUP1 SWAP3 SWAP2 SWAP1 DUP2 DUP2 MSTORE PUSH1 0x20 ADD DUP3 DUP1 SLOAD PUSH2 0xD84 SWAP1 PUSH2 0x436A JUMP JUMPDEST DUP1 ISZERO PUSH2 0xDD1 JUMPI DUP1 PUSH1 0x1F LT PUSH2 0xDA6 JUMPI PUSH2 0x100 DUP1 DUP4 SLOAD DIV MUL DUP4 MSTORE SWAP2 PUSH1 0x20 ADD SWAP2 PUSH2 0xDD1 JUMP JUMPDEST DUP3 ADD SWAP2 SWAP1 PUSH1 0x0 MSTORE PUSH1 0x20 PUSH1 0x0 KECCAK256 SWAP1 JUMPDEST DUP2 SLOAD DUP2 MSTORE SWAP1 PUSH1 0x1 ADD SWAP1 PUSH1 0x20 ADD DUP1 DUP4 GT PUSH2 0xDB4 JUMPI DUP3 SWAP1 SUB PUSH1 0x1F AND DUP3 ADD SWAP2 JUMPDEST POP POP POP POP POP DUP2 JUMP JUMPDEST PUSH1 0x0 PUSH2 0xDE4 PUSH1 0xD SLOAD SWAP1 JUMP JUMPDEST SWAP1 POP PUSH1 0x0 DUP1 JUMPDEST DUP3 DUP2 LT ISZERO PUSH2 0xE4B JUMPI PUSH1 0x1 PUSH1 0x1 PUSH1 0xA0 SHL SUB DUP5 AND PUSH1 0x11 PUSH1 0x0 PUSH2 0xE0B DUP5 PUSH1 0x1 PUSH2 0x4326 JUMP JUMPDEST DUP2 MSTORE PUSH1 0x20 DUP2 ADD SWAP2 SWAP1 SWAP2 MSTORE PUSH1 0x40 ADD PUSH1 0x0 KECCAK256 SLOAD PUSH1 0x1 PUSH1 0x1 PUSH1 0xA0 SHL SUB AND EQ ISZERO PUSH2 0xE39 JUMPI PUSH2 0xE36 PUSH1 0x1 DUP4 PUSH2 0x4326 JUMP JUMPDEST SWAP2 POP JUMPDEST DUP1 PUSH2 0xE43 DUP2 PUSH2 0x43A5 JUMP JUMPDEST SWAP2 POP POP PUSH2 0xDEA JUMP JUMPDEST POP DUP1 PUSH2 0xD06 JUMPI PUSH2 0xE5F PUSH1 0xD DUP1 SLOAD PUSH1 0x1 ADD SWAP1 SSTORE JUMP JUMPDEST PUSH1 0x0 PUSH2 0xE6A PUSH1 0xD SLOAD SWAP1 JUMP JUMPDEST PUSH1 0x0 SWAP1 DUP2 MSTORE PUSH1 0x11 PUSH1 0x20 MSTORE PUSH1 0x40 SWAP1 KECCAK256 DUP1 SLOAD PUSH1 0x1 PUSH1 0x1 PUSH1 0xA0 SHL SUB DUP7 AND PUSH1 0x1 PUSH1 0x1 PUSH1 0xA0 SHL SUB NOT SWAP1 SWAP2 AND OR SWAP1 SSTORE POP POP POP POP JUMP JUMPDEST PUSH2 0xEA1 PUSH2 0x2FBF JUMP JUMPDEST PUSH1 0x0 DUP2 DUP2 MSTORE PUSH1 0x13 PUSH1 0x20 MSTORE PUSH1 0x40 SWAP1 KECCAK256 PUSH1 0x6 ADD SLOAD TIMESTAMP LT ISZERO PUSH2 0xEFA JUMPI PUSH1 0x40 MLOAD PUSH3 0x461BCD PUSH1 0xE5 SHL DUP2 MSTORE PUSH1 0x20 PUSH1 0x4 DUP3 ADD MSTORE PUSH1 0x15 PUSH1 0x24 DUP3 ADD MSTORE PUSH21 0x185D58DD1A5BDB881B5D5CDD08189948195B991959 PUSH1 0x5A SHL PUSH1 0x44 DUP3 ADD MSTORE PUSH1 0x64 ADD PUSH2 0xC65 JUMP JUMPDEST PUSH1 0x0 DUP2 DUP2 MSTORE PUSH1 0x14 PUSH1 0x20 MSTORE PUSH1 0x40 SWAP1 KECCAK256 SLOAD PUSH1 0x1 PUSH1 0x1 PUSH1 0xA0 SHL SUB AND CALLER EQ ISZERO PUSH2 0xF6C JUMPI PUSH1 0x40 MLOAD PUSH3 0x461BCD PUSH1 0xE5 SHL DUP2 MSTORE PUSH1 0x20 PUSH1 0x4 DUP3 ADD MSTORE PUSH1 0x22 PUSH1 0x24 DUP3 ADD MSTORE PUSH32 0x68696768657374206269646465722063616E6E6F742077697468647261772062 PUSH1 0x44 DUP3 ADD MSTORE PUSH2 0x1A59 PUSH1 0xF2 SHL PUSH1 0x64 DUP3 ADD MSTORE PUSH1 0x84 ADD PUSH2 0xC65 JUMP JUMPDEST PUSH1 0x0 PUSH2 0xF77 PUSH1 0xC SLOAD SWAP1 JUMP JUMPDEST SWAP1 POP PUSH1 0x0 DUP1 JUMPDEST DUP3 DUP2 LT ISZERO PUSH2 0x1048 JUMPI CALLER PUSH1 0x16 PUSH1 0x0 PUSH2 0xF95 DUP5 PUSH1 0x1 PUSH2 0x4326 JUMP JUMPDEST DUP2 MSTORE PUSH1 0x20 DUP2 ADD SWAP2 SWAP1 SWAP2 MSTORE PUSH1 0x40 ADD PUSH1 0x0 KECCAK256 PUSH1 0x2 ADD SLOAD PUSH1 0x1 PUSH1 0x1 PUSH1 0xA0 SHL SUB AND EQ DUP1 ISZERO PUSH2 0xFDE JUMPI POP PUSH1 0x16 PUSH1 0x0 PUSH2 0xFC9 DUP4 PUSH1 0x1 PUSH2 0x4326 JUMP JUMPDEST DUP2 MSTORE PUSH1 0x20 ADD SWAP1 DUP2 MSTORE PUSH1 0x20 ADD PUSH1 0x0 KECCAK256 PUSH1 0x1 ADD SLOAD DUP5 EQ JUMPDEST ISZERO PUSH2 0x1036 JUMPI PUSH1 0x16 PUSH1 0x0 PUSH2 0xFF2 DUP4 PUSH1 0x1 PUSH2 0x4326 JUMP JUMPDEST DUP2 MSTORE PUSH1 0x20 ADD SWAP1 DUP2 MSTORE PUSH1 0x20 ADD PUSH1 0x0 KECCAK256 PUSH1 0x3 ADD SLOAD DUP3 PUSH2 0x100F SWAP2 SWAP1 PUSH2 0x4326 JUMP JUMPDEST SWAP2 POP PUSH1 0x0 PUSH1 0x16 DUP2 PUSH2 0x1021 DUP5 PUSH1 0x1 PUSH2 0x4326 JUMP JUMPDEST DUP2 MSTORE PUSH1 0x20 DUP2 ADD SWAP2 SWAP1 SWAP2 MSTORE PUSH1 0x40 ADD PUSH1 0x0 KECCAK256 PUSH1 0x3 ADD SSTORE JUMPDEST DUP1 PUSH2 0x1040 DUP2 PUSH2 0x43A5 JUMP JUMPDEST SWAP2 POP POP PUSH2 0xF7D JUMP JUMPDEST POP PUSH1 0x40 MLOAD CALLER SWAP1 DUP3 ISZERO PUSH2 0x8FC MUL SWAP1 DUP4 SWAP1 PUSH1 0x0 DUP2 DUP2 DUP2 DUP6 DUP9 DUP9 CALL SWAP4 POP POP POP POP ISZERO DUP1 ISZERO PUSH2 0x1076 JUMPI RETURNDATASIZE PUSH1 0x0 DUP1 RETURNDATACOPY RETURNDATASIZE PUSH1 0x0 REVERT JUMPDEST POP POP POP PUSH2 0x1083 PUSH1 0x1 PUSH1 0x7 SSTORE JUMP JUMPDEST POP JUMP JUMPDEST PUSH2 0x108E PUSH2 0x2FBF JUMP JUMPDEST PUSH2 0x1097 DUP2 PUSH2 0xD0B JUMP JUMPDEST ISZERO PUSH2 0x10DC JUMPI PUSH1 0x40 MLOAD PUSH3 0x461BCD PUSH1 0xE5 SHL DUP2 MSTORE PUSH1 0x20 PUSH1 0x4 DUP3 ADD MSTORE PUSH1 0x15 PUSH1 0x24 DUP3 ADD MSTORE PUSH21 0x30BAB1BA34B7B71034B99039BA34B6361037B832B7 PUSH1 0x59 SHL PUSH1 0x44 DUP3 ADD MSTORE PUSH1 0x64 ADD PUSH2 0xC65 JUMP JUMPDEST PUSH1 0x0 DUP2 DUP2 MSTORE PUSH1 0x13 PUSH1 0x20 SWAP1 DUP2 MSTORE PUSH1 0x40 DUP1 DUP4 KECCAK256 PUSH1 0x14 SWAP1 SWAP3 MSTORE SWAP1 SWAP2 KECCAK256 SLOAD PUSH1 0x1 DUP3 ADD SLOAD PUSH1 0x1 PUSH1 0x1 PUSH1 0xA0 SHL SUB SWAP2 DUP3 AND SWAP2 AND CALLER EQ DUP1 PUSH2 0x111D JUMPI POP CALLER PUSH1 0x1 PUSH1 0x1 PUSH1 0xA0 SHL SUB DUP3 AND EQ JUMPDEST PUSH2 0x117C JUMPI PUSH1 0x40 MLOAD PUSH3 0x461BCD PUSH1 0xE5 SHL DUP2 MSTORE PUSH1 0x20 PUSH1 0x4 DUP3 ADD MSTORE PUSH1 0x2A PUSH1 0x24 DUP3 ADD MSTORE PUSH32 0x6F6E6C792073656C6C6572206F722077696E6E65722063616E20636F6D706C65 PUSH1 0x44 DUP3 ADD MSTORE PUSH10 0x3A329030BAB1BA34B7B7 PUSH1 0xB1 SHL PUSH1 0x64 DUP3 ADD MSTORE PUSH1 0x84 ADD PUSH2 0xC65 JUMP JUMPDEST PUSH1 0x0 DUP4 DUP2 MSTORE PUSH1 0x15 PUSH1 0x20 MSTORE PUSH1 0x40 SWAP1 KECCAK256 SLOAD PUSH1 0x2 DUP4 ADD SLOAD DUP2 PUSH2 0x11C2 JUMPI PUSH1 0x0 PUSH1 0x8 DUP6 ADD DUP2 SWAP1 SSTORE DUP2 DUP2 MSTORE PUSH1 0xE PUSH1 0x20 MSTORE PUSH1 0x40 DUP2 KECCAK256 PUSH1 0x6 DUP2 ADD DUP1 SLOAD PUSH4 0xFF000000 NOT AND SWAP1 SSTORE PUSH1 0x2 ADD SSTORE PUSH2 0x130C JUMP JUMPDEST PUSH1 0x1 DUP5 ADD SLOAD PUSH1 0x2 DUP6 ADD SLOAD PUSH1 0x1 PUSH1 0x1 PUSH1 0xA0 SHL SUB SWAP1 SWAP2 AND SWAP1 PUSH2 0x11E5 SWAP1 DUP3 SWAP1 DUP7 SWAP1 PUSH2 0x3019 JUMP JUMPDEST PUSH1 0x40 MLOAD PUSH1 0x1 PUSH1 0x1 PUSH1 0xA0 SHL SUB DUP3 AND SWAP1 DUP5 ISZERO PUSH2 0x8FC MUL SWAP1 DUP6 SWAP1 PUSH1 0x0 DUP2 DUP2 DUP2 DUP6 DUP9 DUP9 CALL SWAP4 POP POP POP POP ISZERO DUP1 ISZERO PUSH2 0x121B JUMPI RETURNDATASIZE PUSH1 0x0 DUP1 RETURNDATACOPY RETURNDATASIZE PUSH1 0x0 REVERT JUMPDEST POP PUSH2 0x122A PUSH1 0x9 DUP1 SLOAD PUSH1 0x1 ADD SWAP1 SSTORE JUMP JUMPDEST PUSH1 0x0 PUSH2 0x1235 PUSH1 0x9 SLOAD SWAP1 JUMP JUMPDEST PUSH1 0x40 DUP1 MLOAD PUSH1 0xA0 DUP2 ADD DUP3 MSTORE DUP6 DUP2 MSTORE PUSH1 0x20 DUP1 DUP3 ADD DUP9 DUP2 MSTORE PUSH1 0x1 PUSH1 0x1 PUSH1 0xA0 SHL SUB SWAP7 DUP8 AND DUP4 DUP6 ADD SWAP1 DUP2 MSTORE CALLER PUSH1 0x60 DUP6 ADD SWAP1 DUP2 MSTORE PUSH1 0x1 PUSH1 0x80 DUP7 ADD DUP2 DUP2 MSTORE PUSH1 0x0 SWAP9 DUP10 MSTORE PUSH1 0xF DUP7 MSTORE DUP8 DUP10 KECCAK256 SWAP7 MLOAD DUP8 SSTORE SWAP4 MLOAD DUP7 DUP3 ADD SSTORE SWAP2 MLOAD PUSH1 0x2 DUP1 DUP8 ADD DUP1 SLOAD SWAP3 DUP13 AND PUSH1 0x1 PUSH1 0x1 PUSH1 0xA0 SHL SUB NOT SWAP4 DUP5 AND OR SWAP1 SSTORE SWAP2 MLOAD PUSH1 0x3 SWAP1 SWAP7 ADD DUP1 SLOAD SWAP5 MLOAD ISZERO ISZERO PUSH1 0x1 PUSH1 0xA0 SHL MUL PUSH1 0x1 PUSH1 0x1 PUSH1 0xA8 SHL SUB NOT SWAP1 SWAP6 AND SWAP7 DUP12 AND SWAP7 SWAP1 SWAP7 OR SWAP4 SWAP1 SWAP4 OR SWAP1 SWAP5 SSTORE DUP12 ADD DUP1 SLOAD SWAP8 DUP12 AND SWAP8 DUP3 AND DUP9 OR SWAP1 SSTORE DUP8 DUP6 MSTORE PUSH1 0xE SWAP1 SWAP2 MSTORE SWAP2 DUP4 KECCAK256 PUSH1 0x4 DUP2 ADD DUP1 SLOAD SWAP1 SWAP4 AND SWAP1 SWAP6 OR SWAP1 SWAP2 SSTORE PUSH1 0x8 DUP9 ADD DUP3 SWAP1 SSTORE DUP4 ADD SSTORE POP PUSH1 0x6 ADD DUP1 SLOAD PUSH4 0xFF000000 NOT AND SWAP1 SSTORE JUMPDEST POP POP POP POP PUSH2 0x1083 PUSH1 0x1 PUSH1 0x7 SSTORE JUMP JUMPDEST PUSH2 0x1324 CALLER DUP3 PUSH2 0x317D JUMP JUMPDEST PUSH2 0x1340 JUMPI PUSH1 0x40 MLOAD PUSH3 0x461BCD PUSH1 0xE5 SHL DUP2 MSTORE PUSH1 0x4 ADD PUSH2 0xC65 SWAP1 PUSH2 0x4172 JUMP JUMPDEST PUSH2 0xD06 DUP4 DUP4 DUP4 PUSH2 0x3019 JUMP JUMPDEST PUSH1 0x60 PUSH1 0x0 PUSH2 0x1358 PUSH1 0x8 SLOAD SWAP1 JUMP JUMPDEST SWAP1 POP PUSH1 0x0 DUP1 PUSH1 0x0 JUMPDEST DUP4 DUP2 LT ISZERO PUSH2 0x13B1 JUMPI PUSH1 0xE PUSH1 0x0 PUSH2 0x1377 DUP4 PUSH1 0x1 PUSH2 0x4326 JUMP JUMPDEST DUP2 MSTORE PUSH1 0x20 ADD SWAP1 DUP2 MSTORE PUSH1 0x20 ADD PUSH1 0x0 KECCAK256 PUSH1 0x5 ADD SLOAD PUSH1 0x1 EQ ISZERO PUSH2 0x139F JUMPI PUSH2 0x139C PUSH1 0x1 DUP5 PUSH2 0x4326 JUMP JUMPDEST SWAP3 POP JUMPDEST PUSH2 0x13AA PUSH1 0x1 DUP3 PUSH2 0x4326 JUMP JUMPDEST SWAP1 POP PUSH2 0x1360 JUMP JUMPDEST POP PUSH1 0x0 DUP3 PUSH8 0xFFFFFFFFFFFFFFFF DUP2 GT ISZERO PUSH2 0x13DB JUMPI PUSH4 0x4E487B71 PUSH1 0xE0 SHL PUSH1 0x0 MSTORE PUSH1 0x41 PUSH1 0x4 MSTORE PUSH1 0x24 PUSH1 0x0 REVERT JUMPDEST PUSH1 0x40 MLOAD SWAP1 DUP1 DUP3 MSTORE DUP1 PUSH1 0x20 MUL PUSH1 0x20 ADD DUP3 ADD PUSH1 0x40 MSTORE DUP1 ISZERO PUSH2 0x1414 JUMPI DUP2 PUSH1 0x20 ADD JUMPDEST PUSH2 0x1401 PUSH2 0x39F1 JUMP JUMPDEST DUP2 MSTORE PUSH1 0x20 ADD SWAP1 PUSH1 0x1 SWAP1 SUB SWAP1 DUP2 PUSH2 0x13F9 JUMPI SWAP1 POP JUMPDEST POP SWAP1 POP PUSH1 0x0 JUMPDEST DUP5 DUP2 LT ISZERO PUSH2 0x15E5 JUMPI PUSH1 0x0 PUSH1 0xE DUP2 PUSH2 0x1432 DUP5 PUSH1 0x1 PUSH2 0x4326 JUMP JUMPDEST DUP2 MSTORE PUSH1 0x20 ADD SWAP1 DUP2 MSTORE PUSH1 0x20 ADD PUSH1 0x0 KECCAK256 SWAP1 POP PUSH1 0xE PUSH1 0x0 DUP4 PUSH1 0x1 PUSH2 0x1453 SWAP2 SWAP1 PUSH2 0x4326 JUMP JUMPDEST DUP2 MSTORE PUSH1 0x20 ADD SWAP1 DUP2 MSTORE PUSH1 0x20 ADD PUSH1 0x0 KECCAK256 PUSH1 0x5 ADD SLOAD PUSH1 0x1 EQ ISZERO PUSH2 0x15D2 JUMPI DUP1 PUSH1 0x40 MLOAD DUP1 PUSH2 0x160 ADD PUSH1 0x40 MSTORE SWAP1 DUP2 PUSH1 0x0 DUP3 ADD SLOAD DUP2 MSTORE PUSH1 0x20 ADD PUSH1 0x1 DUP3 ADD SLOAD DUP2 MSTORE PUSH1 0x20 ADD PUSH1 0x2 DUP3 ADD SLOAD DUP2 MSTORE PUSH1 0x20 ADD PUSH1 0x3 DUP3 ADD DUP1 SLOAD PUSH2 0x14A8 SWAP1 PUSH2 0x436A JUMP JUMPDEST DUP1 PUSH1 0x1F ADD PUSH1 0x20 DUP1 SWAP2 DIV MUL PUSH1 0x20 ADD PUSH1 0x40 MLOAD SWAP1 DUP2 ADD PUSH1 0x40 MSTORE DUP1 SWAP3 SWAP2 SWAP1 DUP2 DUP2 MSTORE PUSH1 0x20 ADD DUP3 DUP1 SLOAD PUSH2 0x14D4 SWAP1 PUSH2 0x436A JUMP JUMPDEST DUP1 ISZERO PUSH2 0x1521 JUMPI DUP1 PUSH1 0x1F LT PUSH2 0x14F6 JUMPI PUSH2 0x100 DUP1 DUP4 SLOAD DIV MUL DUP4 MSTORE SWAP2 PUSH1 0x20 ADD SWAP2 PUSH2 0x1521 JUMP JUMPDEST DUP3 ADD SWAP2 SWAP1 PUSH1 0x0 MSTORE PUSH1 0x20 PUSH1 0x0 KECCAK256 SWAP1 JUMPDEST DUP2 SLOAD DUP2 MSTORE SWAP1 PUSH1 0x1 ADD SWAP1 PUSH1 0x20 ADD DUP1 DUP4 GT PUSH2 0x1504 JUMPI DUP3 SWAP1 SUB PUSH1 0x1F AND DUP3 ADD SWAP2 JUMPDEST POP POP POP SWAP2 DUP4 MSTORE POP POP PUSH1 0x4 DUP3 ADD SLOAD PUSH1 0x1 PUSH1 0x1 PUSH1 0xA0 SHL SUB AND PUSH1 0x20 DUP3 ADD MSTORE PUSH1 0x5 DUP3 ADD SLOAD PUSH1 0x40 DUP3 ADD MSTORE PUSH1 0x6 SWAP1 SWAP2 ADD SLOAD PUSH1 0xFF DUP1 DUP3 AND ISZERO ISZERO PUSH1 0x60 DUP5 ADD MSTORE PUSH2 0x100 DUP3 DIV DUP2 AND ISZERO ISZERO PUSH1 0x80 DUP5 ADD MSTORE PUSH3 0x10000 DUP3 DIV DUP2 AND ISZERO ISZERO PUSH1 0xA0 DUP5 ADD MSTORE PUSH4 0x1000000 DUP3 DIV DUP2 AND ISZERO ISZERO PUSH1 0xC0 DUP5 ADD MSTORE PUSH5 0x100000000 SWAP1 SWAP2 DIV AND ISZERO ISZERO PUSH1 0xE0 SWAP1 SWAP2 ADD MSTORE DUP4 MLOAD DUP5 SWAP1 DUP7 SWAP1 DUP2 LT PUSH2 0x15B9 JUMPI PUSH4 0x4E487B71 PUSH1 0xE0 SHL PUSH1 0x0 MSTORE PUSH1 0x32 PUSH1 0x4 MSTORE PUSH1 0x24 PUSH1 0x0 REVERT JUMPDEST PUSH1 0x20 SWAP1 DUP2 MUL SWAP2 SWAP1 SWAP2 ADD ADD MSTORE PUSH2 0x15CF PUSH1 0x1 DUP6 PUSH2 0x4326 JUMP JUMPDEST SWAP4 POP JUMPDEST POP PUSH2 0x15DE PUSH1 0x1 DUP3 PUSH2 0x4326 JUMP JUMPDEST SWAP1 POP PUSH2 0x141A JUMP JUMPDEST POP SWAP5 SWAP4 POP POP POP POP JUMP JUMPDEST PUSH1 0x0 DUP1 PUSH2 0x15FA PUSH1 0x8 SLOAD SWAP1 JUMP JUMPDEST SWAP1 POP DUP1 PUSH2 0x1606 JUMPI PUSH2 0x1760 JUMP JUMPDEST PUSH1 0x60 PUSH1 0x0 JUMPDEST DUP3 DUP2 LT ISZERO PUSH2 0x175D JUMPI PUSH1 0x10 PUSH1 0x0 PUSH2 0x1622 DUP4 PUSH1 0x1 PUSH2 0x4326 JUMP JUMPDEST DUP2 MSTORE PUSH1 0x20 ADD SWAP1 DUP2 MSTORE PUSH1 0x20 ADD PUSH1 0x0 KECCAK256 DUP1 SLOAD PUSH2 0x163B SWAP1 PUSH2 0x436A JUMP JUMPDEST DUP1 PUSH1 0x1F ADD PUSH1 0x20 DUP1 SWAP2 DIV MUL PUSH1 0x20 ADD PUSH1 0x40 MLOAD SWAP1 DUP2 ADD PUSH1 0x40 MSTORE DUP1 SWAP3 SWAP2 SWAP1 DUP2 DUP2 MSTORE PUSH1 0x20 ADD DUP3 DUP1 SLOAD PUSH2 0x1667 SWAP1 PUSH2 0x436A JUMP JUMPDEST DUP1 ISZERO PUSH2 0x16B4 JUMPI DUP1 PUSH1 0x1F LT PUSH2 0x1689 JUMPI PUSH2 0x100 DUP1 DUP4 SLOAD DIV MUL DUP4 MSTORE SWAP2 PUSH1 0x20 ADD SWAP2 PUSH2 0x16B4 JUMP JUMPDEST DUP3 ADD SWAP2 SWAP1 PUSH1 0x0 MSTORE PUSH1 0x20 PUSH1 0x0 KECCAK256 SWAP1 JUMPDEST DUP2 SLOAD DUP2 MSTORE SWAP1 PUSH1 0x1 ADD SWAP1 PUSH1 0x20 ADD DUP1 DUP4 GT PUSH2 0x1697 JUMPI DUP3 SWAP1 SUB PUSH1 0x1F AND DUP3 ADD SWAP2 JUMPDEST POP POP POP POP POP SWAP2 POP DUP6 PUSH1 0x40 MLOAD PUSH1 0x20 ADD PUSH2 0x16CC SWAP2 SWAP1 PUSH2 0x3E4C JUMP JUMPDEST PUSH1 0x40 MLOAD PUSH1 0x20 DUP2 DUP4 SUB SUB DUP2 MSTORE SWAP1 PUSH1 0x40 MSTORE DUP1 MLOAD SWAP1 PUSH1 0x20 ADD KECCAK256 DUP3 PUSH1 0x40 MLOAD PUSH1 0x20 ADD PUSH2 0x16F3 SWAP2 SWAP1 PUSH2 0x3E4C JUMP JUMPDEST PUSH1 0x40 MLOAD PUSH1 0x20 DUP2 DUP4 SUB SUB DUP2 MSTORE SWAP1 PUSH1 0x40 MSTORE DUP1 MLOAD SWAP1 PUSH1 0x20 ADD KECCAK256 EQ ISZERO PUSH2 0x174B JUMPI PUSH1 0x40 MLOAD PUSH3 0x461BCD PUSH1 0xE5 SHL DUP2 MSTORE PUSH1 0x20 PUSH1 0x4 DUP3 ADD MSTORE PUSH1 0x11 PUSH1 0x24 DUP3 ADD MSTORE PUSH17 0x13919508185B1C9958591E48195E1A5CDD PUSH1 0x7A SHL PUSH1 0x44 DUP3 ADD MSTORE PUSH1 0x64 ADD PUSH2 0xC65 JUMP JUMPDEST DUP1 PUSH2 0x1755 DUP2 PUSH2 0x43A5 JUMP JUMPDEST SWAP2 POP POP PUSH2 0x160B JUMP JUMPDEST POP POP JUMPDEST PUSH2 0x176E PUSH1 0x8 DUP1 SLOAD PUSH1 0x1 ADD SWAP1 SSTORE JUMP JUMPDEST PUSH1 0x0 PUSH2 0x1779 PUSH1 0x8 SLOAD SWAP1 JUMP JUMPDEST SWAP1 POP PUSH2 0x1785 CALLER DUP3 PUSH2 0x31FB JUMP JUMPDEST PUSH2 0x178F DUP2 DUP8 PUSH2 0x3215 JUMP JUMPDEST PUSH1 0x0 DUP2 DUP2 MSTORE PUSH1 0x10 PUSH1 0x20 SWAP1 DUP2 MSTORE PUSH1 0x40 SWAP1 SWAP2 KECCAK256 DUP7 MLOAD PUSH2 0x17AE SWAP3 DUP9 ADD SWAP1 PUSH2 0x3A4C JUMP JUMPDEST POP PUSH2 0x17BA DUP2 DUP6 DUP8 PUSH2 0x32E7 JUMP JUMPDEST SWAP6 SWAP5 POP POP POP POP POP JUMP JUMPDEST PUSH2 0xD06 DUP4 DUP4 DUP4 PUSH1 0x40 MLOAD DUP1 PUSH1 0x20 ADD PUSH1 0x40 MSTORE DUP1 PUSH1 0x0 DUP2 MSTORE POP PUSH2 0x2B7C JUMP JUMPDEST PUSH2 0x17E6 PUSH2 0x2FBF JUMP JUMPDEST PUSH2 0x17EF DUP2 PUSH2 0xD0B JUMP JUMPDEST PUSH2 0x182F JUMPI PUSH1 0x40 MLOAD PUSH3 0x461BCD PUSH1 0xE5 SHL DUP2 MSTORE PUSH1 0x20 PUSH1 0x4 DUP3 ADD MSTORE PUSH1 0x11 PUSH1 0x24 DUP3 ADD MSTORE PUSH17 0x185D58DD1A5BDB881A185CC8195B991959 PUSH1 0x7A SHL PUSH1 0x44 DUP3 ADD MSTORE PUSH1 0x64 ADD PUSH2 0xC65 JUMP JUMPDEST PUSH1 0x0 DUP2 DUP2 MSTORE PUSH1 0x13 PUSH1 0x20 MSTORE PUSH1 0x40 SWAP1 KECCAK256 PUSH1 0x3 ADD SLOAD CALLVALUE GT PUSH2 0x188F JUMPI PUSH1 0x40 MLOAD PUSH3 0x461BCD PUSH1 0xE5 SHL DUP2 MSTORE PUSH1 0x20 PUSH1 0x4 DUP3 ADD MSTORE PUSH1 0x1F PUSH1 0x24 DUP3 ADD MSTORE PUSH32 0x56616C756520697320736D616C6C6572207468616E206269642076616C756500 PUSH1 0x44 DUP3 ADD MSTORE PUSH1 0x64 ADD PUSH2 0xC65 JUMP JUMPDEST PUSH1 0x0 DUP2 DUP2 MSTORE PUSH1 0x13 PUSH1 0x20 MSTORE PUSH1 0x40 SWAP1 KECCAK256 PUSH1 0x1 ADD SLOAD PUSH1 0x1 PUSH1 0x1 PUSH1 0xA0 SHL SUB AND CALLER EQ ISZERO PUSH2 0x18F9 JUMPI PUSH1 0x40 MLOAD PUSH3 0x461BCD PUSH1 0xE5 SHL DUP2 MSTORE PUSH1 0x20 PUSH1 0x4 DUP3 ADD MSTORE PUSH1 0x1A PUSH1 0x24 DUP3 ADD MSTORE PUSH32 0x796F752063616E27742062696420796F7572206F776E206E6674000000000000 PUSH1 0x44 DUP3 ADD MSTORE PUSH1 0x64 ADD PUSH2 0xC65 JUMP JUMPDEST PUSH1 0x0 DUP1 PUSH1 0x0 JUMPDEST PUSH1 0xC SLOAD DUP2 LT ISZERO PUSH2 0x1A3A JUMPI PUSH1 0x16 PUSH1 0x0 PUSH2 0x1918 DUP4 PUSH1 0x1 PUSH2 0x4326 JUMP JUMPDEST DUP2 MSTORE PUSH1 0x20 DUP2 ADD SWAP2 SWAP1 SWAP2 MSTORE PUSH1 0x40 ADD PUSH1 0x0 KECCAK256 PUSH1 0x2 ADD SLOAD PUSH1 0x1 PUSH1 0x1 PUSH1 0xA0 SHL SUB AND CALLER EQ DUP1 ISZERO PUSH2 0x1962 JUMPI POP PUSH1 0x16 PUSH1 0x0 PUSH2 0x194D DUP4 PUSH1 0x1 PUSH2 0x4326 JUMP JUMPDEST DUP2 MSTORE PUSH1 0x20 ADD SWAP1 DUP2 MSTORE PUSH1 0x20 ADD PUSH1 0x0 KECCAK256 PUSH1 0x1 ADD SLOAD DUP5 EQ JUMPDEST ISZERO PUSH2 0x1A28 JUMPI CALLVALUE PUSH1 0x16 PUSH1 0x0 PUSH2 0x1977 DUP5 PUSH1 0x1 PUSH2 0x4326 JUMP JUMPDEST DUP2 MSTORE PUSH1 0x20 ADD SWAP1 DUP2 MSTORE PUSH1 0x20 ADD PUSH1 0x0 KECCAK256 PUSH1 0x3 ADD PUSH1 0x0 DUP3 DUP3 SLOAD PUSH2 0x1997 SWAP2 SWAP1 PUSH2 0x4326 JUMP JUMPDEST SWAP1 SWAP2 SSTORE POP POP PUSH1 0x0 DUP5 DUP2 MSTORE PUSH1 0x15 PUSH1 0x20 MSTORE PUSH1 0x40 DUP2 KECCAK256 SLOAD PUSH1 0x1 SWAP5 POP SWAP3 POP DUP3 SWAP1 PUSH1 0x16 SWAP1 PUSH2 0x19C0 DUP5 DUP8 PUSH2 0x4326 JUMP JUMPDEST DUP2 MSTORE PUSH1 0x20 ADD SWAP1 DUP2 MSTORE PUSH1 0x20 ADD PUSH1 0x0 KECCAK256 PUSH1 0x3 ADD SLOAD GT ISZERO PUSH2 0x1A28 JUMPI PUSH1 0x0 DUP5 DUP2 MSTORE PUSH1 0x14 PUSH1 0x20 MSTORE PUSH1 0x40 DUP2 KECCAK256 DUP1 SLOAD PUSH1 0x1 PUSH1 0x1 PUSH1 0xA0 SHL SUB NOT AND CALLER OR SWAP1 SSTORE PUSH1 0x16 SWAP1 PUSH2 0x1A04 DUP4 PUSH1 0x1 PUSH2 0x4326 JUMP JUMPDEST DUP2 MSTORE PUSH1 0x20 DUP1 DUP3 ADD SWAP3 SWAP1 SWAP3 MSTORE PUSH1 0x40 SWAP1 DUP2 ADD PUSH1 0x0 SWAP1 DUP2 KECCAK256 PUSH1 0x3 ADD SLOAD DUP8 DUP3 MSTORE PUSH1 0x15 SWAP1 SWAP4 MSTORE KECCAK256 SSTORE JUMPDEST DUP1 PUSH2 0x1A32 DUP2 PUSH2 0x43A5 JUMP JUMPDEST SWAP2 POP POP PUSH2 0x18FF JUMP JUMPDEST POP DUP2 PUSH2 0x1B17 JUMPI PUSH2 0x1A4E PUSH1 0xC DUP1 SLOAD PUSH1 0x1 ADD SWAP1 SSTORE JUMP JUMPDEST PUSH1 0x0 PUSH2 0x1A59 PUSH1 0xC SLOAD SWAP1 JUMP JUMPDEST PUSH1 0x40 DUP1 MLOAD PUSH1 0x80 DUP2 ADD DUP3 MSTORE PUSH1 0x0 DUP8 DUP2 MSTORE PUSH1 0x13 PUSH1 0x20 SWAP1 DUP2 MSTORE DUP4 DUP3 KECCAK256 PUSH1 0x2 SWAP1 DUP2 ADD SLOAD DUP5 MSTORE DUP2 DUP5 ADD DUP11 DUP2 MSTORE CALLER DUP6 DUP8 ADD SWAP1 DUP2 MSTORE CALLVALUE PUSH1 0x60 DUP8 ADD DUP2 DUP2 MSTORE DUP10 DUP8 MSTORE PUSH1 0x16 DUP7 MSTORE DUP9 DUP8 KECCAK256 SWAP8 MLOAD DUP9 SSTORE SWAP3 MLOAD PUSH1 0x1 DUP9 ADD SSTORE SWAP1 MLOAD SWAP3 DUP7 ADD DUP1 SLOAD PUSH1 0x1 PUSH1 0x1 PUSH1 0xA0 SHL SUB NOT AND PUSH1 0x1 PUSH1 0x1 PUSH1 0xA0 SHL SUB SWAP1 SWAP5 AND SWAP4 SWAP1 SWAP4 OR SWAP1 SWAP3 SSTORE MLOAD PUSH1 0x3 SWAP1 SWAP5 ADD SWAP4 SWAP1 SWAP4 SSTORE DUP9 DUP3 MSTORE PUSH1 0x15 SWAP1 MSTORE SWAP2 SWAP1 SWAP2 KECCAK256 SLOAD SWAP4 POP SWAP1 SWAP2 POP DUP3 LT ISZERO PUSH2 0x1B15 JUMPI PUSH1 0x0 DUP5 DUP2 MSTORE PUSH1 0x14 PUSH1 0x20 SWAP1 DUP2 MSTORE PUSH1 0x40 DUP1 DUP4 KECCAK256 DUP1 SLOAD PUSH1 0x1 PUSH1 0x1 PUSH1 0xA0 SHL SUB NOT AND CALLER OR SWAP1 SSTORE PUSH1 0x15 SWAP1 SWAP2 MSTORE SWAP1 KECCAK256 CALLVALUE SWAP1 SSTORE JUMPDEST POP JUMPDEST PUSH2 0x1B20 CALLER PUSH2 0xDD9 JUMP JUMPDEST POP POP PUSH2 0x1083 PUSH1 0x1 PUSH1 0x7 SSTORE JUMP JUMPDEST PUSH1 0x60 PUSH1 0x0 PUSH2 0x1B39 PUSH1 0xB SLOAD SWAP1 JUMP JUMPDEST SWAP1 POP PUSH1 0x0 DUP1 PUSH1 0x0 JUMPDEST DUP4 DUP2 LT ISZERO PUSH2 0x1B91 JUMPI PUSH1 0x13 PUSH1 0x0 PUSH2 0x1B58 DUP4 PUSH1 0x1 PUSH2 0x4326 JUMP JUMPDEST DUP2 MSTORE PUSH1 0x20 ADD SWAP1 DUP2 MSTORE PUSH1 0x20 ADD PUSH1 0x0 KECCAK256 PUSH1 0x3 ADD SLOAD PUSH1 0x0 EQ PUSH2 0x1B7F JUMPI PUSH2 0x1B7C PUSH1 0x1 DUP5 PUSH2 0x4326 JUMP JUMPDEST SWAP3 POP JUMPDEST PUSH2 0x1B8A PUSH1 0x1 DUP3 PUSH2 0x4326 JUMP JUMPDEST SWAP1 POP PUSH2 0x1B41 JUMP JUMPDEST POP PUSH1 0x0 DUP3 PUSH8 0xFFFFFFFFFFFFFFFF DUP2 GT ISZERO PUSH2 0x1BBB JUMPI PUSH4 0x4E487B71 PUSH1 0xE0 SHL PUSH1 0x0 MSTORE PUSH1 0x41 PUSH1 0x4 MSTORE PUSH1 0x24 PUSH1 0x0 REVERT JUMPDEST PUSH1 0x40 MLOAD SWAP1 DUP1 DUP3 MSTORE DUP1 PUSH1 0x20 MUL PUSH1 0x20 ADD DUP3 ADD PUSH1 0x40 MSTORE DUP1 ISZERO PUSH2 0x1C44 JUMPI DUP2 PUSH1 0x20 ADD JUMPDEST PUSH2 0x1C31 PUSH1 0x40 MLOAD DUP1 PUSH2 0x120 ADD PUSH1 0x40 MSTORE DUP1 PUSH1 0x0 DUP2 MSTORE PUSH1 0x20 ADD PUSH1 0x0 PUSH1 0x1 PUSH1 0x1 PUSH1 0xA0 SHL SUB AND DUP2 MSTORE PUSH1 0x20 ADD PUSH1 0x0 DUP2 MSTORE PUSH1 0x20 ADD PUSH1 0x0 DUP2 MSTORE PUSH1 0x20 ADD PUSH1 0x0 DUP2 MSTORE PUSH1 0x20 ADD PUSH1 0x0 DUP2 MSTORE PUSH1 0x20 ADD PUSH1 0x0 DUP2 MSTORE PUSH1 0x20 ADD PUSH1 0x60 DUP2 MSTORE PUSH1 0x20 ADD PUSH1 0x0 DUP2 MSTORE POP SWAP1 JUMP JUMPDEST DUP2 MSTORE PUSH1 0x20 ADD SWAP1 PUSH1 0x1 SWAP1 SUB SWAP1 DUP2 PUSH2 0x1BD9 JUMPI SWAP1 POP JUMPDEST POP SWAP1 POP PUSH1 0x0 JUMPDEST DUP5 DUP2 LT ISZERO PUSH2 0x15E5 JUMPI PUSH1 0x0 PUSH1 0x13 DUP2 PUSH2 0x1C62 DUP5 PUSH1 0x1 PUSH2 0x4326 JUMP JUMPDEST DUP2 MSTORE PUSH1 0x20 ADD SWAP1 DUP2 MSTORE PUSH1 0x20 ADD PUSH1 0x0 KECCAK256 SWAP1 POP PUSH1 0x13 PUSH1 0x0 DUP4 PUSH1 0x1 PUSH2 0x1C83 SWAP2 SWAP1 PUSH2 0x4326 JUMP JUMPDEST DUP2 MSTORE PUSH1 0x20 ADD SWAP1 DUP2 MSTORE PUSH1 0x20 ADD PUSH1 0x0 KECCAK256 PUSH1 0x3 ADD SLOAD PUSH1 0x0 EQ PUSH2 0x1DCD JUMPI PUSH1 0x40 DUP1 MLOAD PUSH2 0x120 DUP2 ADD DUP3 MSTORE DUP3 SLOAD DUP2 MSTORE PUSH1 0x1 DUP4 ADD SLOAD PUSH1 0x1 PUSH1 0x1 PUSH1 0xA0 SHL SUB AND PUSH1 0x20 DUP3 ADD MSTORE PUSH1 0x2 DUP4 ADD SLOAD SWAP2 DUP2 ADD SWAP2 SWAP1 SWAP2 MSTORE PUSH1 0x3 DUP3 ADD SLOAD PUSH1 0x60 DUP3 ADD MSTORE PUSH1 0x4 DUP3 ADD SLOAD PUSH1 0x80 DUP3 ADD MSTORE PUSH1 0x5 DUP3 ADD SLOAD PUSH1 0xA0 DUP3 ADD MSTORE PUSH1 0x6 DUP3 ADD SLOAD PUSH1 0xC0 DUP3 ADD MSTORE PUSH1 0x7 DUP3 ADD DUP1 SLOAD DUP4 SWAP2 PUSH1 0xE0 DUP5 ADD SWAP2 PUSH2 0x1D08 SWAP1 PUSH2 0x436A JUMP JUMPDEST DUP1 PUSH1 0x1F ADD PUSH1 0x20 DUP1 SWAP2 DIV MUL PUSH1 0x20 ADD PUSH1 0x40 MLOAD SWAP1 DUP2 ADD PUSH1 0x40 MSTORE DUP1 SWAP3 SWAP2 SWAP1 DUP2 DUP2 MSTORE PUSH1 0x20 ADD DUP3 DUP1 SLOAD PUSH2 0x1D34 SWAP1 PUSH2 0x436A JUMP JUMPDEST DUP1 ISZERO PUSH2 0x1D81 JUMPI DUP1 PUSH1 0x1F LT PUSH2 0x1D56 JUMPI PUSH2 0x100 DUP1 DUP4 SLOAD DIV MUL DUP4 MSTORE SWAP2 PUSH1 0x20 ADD SWAP2 PUSH2 0x1D81 JUMP JUMPDEST DUP3 ADD SWAP2 SWAP1 PUSH1 0x0 MSTORE PUSH1 0x20 PUSH1 0x0 KECCAK256 SWAP1 JUMPDEST DUP2 SLOAD DUP2 MSTORE SWAP1 PUSH1 0x1 ADD SWAP1 PUSH1 0x20 ADD DUP1 DUP4 GT PUSH2 0x1D64 JUMPI DUP3 SWAP1 SUB PUSH1 0x1F AND DUP3 ADD SWAP2 JUMPDEST POP POP POP POP POP DUP2 MSTORE PUSH1 0x20 ADD PUSH1 0x8 DUP3 ADD SLOAD DUP2 MSTORE POP POP DUP4 DUP6 DUP2 MLOAD DUP2 LT PUSH2 0x1DB4 JUMPI PUSH4 0x4E487B71 PUSH1 0xE0 SHL PUSH1 0x0 MSTORE PUSH1 0x32 PUSH1 0x4 MSTORE PUSH1 0x24 PUSH1 0x0 REVERT JUMPDEST PUSH1 0x20 SWAP1 DUP2 MUL SWAP2 SWAP1 SWAP2 ADD ADD MSTORE PUSH2 0x1DCA PUSH1 0x1 DUP6 PUSH2 0x4326 JUMP JUMPDEST SWAP4 POP JUMPDEST POP PUSH2 0x1DD9 PUSH1 0x1 DUP3 PUSH2 0x4326 JUMP JUMPDEST SWAP1 POP PUSH2 0x1C4A JUMP JUMPDEST PUSH1 0x0 PUSH2 0x1DEB PUSH1 0x9 SLOAD SWAP1 JUMP JUMPDEST SWAP1 POP SWAP1 JUMP JUMPDEST PUSH1 0x60 PUSH1 0x0 PUSH2 0x1DFD PUSH1 0x8 SLOAD SWAP1 JUMP JUMPDEST SWAP1 POP PUSH1 0x0 DUP1 DUP1 JUMPDEST DUP4 DUP2 LT ISZERO PUSH2 0x1E5F JUMPI CALLER PUSH1 0xE PUSH1 0x0 PUSH2 0x1E1C DUP5 PUSH1 0x1 PUSH2 0x4326 JUMP JUMPDEST DUP2 MSTORE PUSH1 0x20 DUP2 ADD SWAP2 SWAP1 SWAP2 MSTORE PUSH1 0x40 ADD PUSH1 0x0 KECCAK256 PUSH1 0x4 ADD SLOAD PUSH1 0x1 PUSH1 0x1 PUSH1 0xA0 SHL SUB AND EQ ISZERO PUSH2 0x1E4D JUMPI DUP2 PUSH2 0x1E49 DUP2 PUSH2 0x43A5 JUMP JUMPDEST SWAP3 POP POP JUMPDEST DUP1 PUSH2 0x1E57 DUP2 PUSH2 0x43A5 JUMP JUMPDEST SWAP2 POP POP PUSH2 0x1E04 JUMP JUMPDEST POP PUSH1 0x0 DUP2 PUSH8 0xFFFFFFFFFFFFFFFF DUP2 GT ISZERO PUSH2 0x1E89 JUMPI PUSH4 0x4E487B71 PUSH1 0xE0 SHL PUSH1 0x0 MSTORE PUSH1 0x41 PUSH1 0x4 MSTORE PUSH1 0x24 PUSH1 0x0 REVERT JUMPDEST PUSH1 0x40 MLOAD SWAP1 DUP1 DUP3 MSTORE DUP1 PUSH1 0x20 MUL PUSH1 0x20 ADD DUP3 ADD PUSH1 0x40 MSTORE DUP1 ISZERO PUSH2 0x1EC2 JUMPI DUP2 PUSH1 0x20 ADD JUMPDEST PUSH2 0x1EAF PUSH2 0x39F1 JUMP JUMPDEST DUP2 MSTORE PUSH1 0x20 ADD SWAP1 PUSH1 0x1 SWAP1 SUB SWAP1 DUP2 PUSH2 0x1EA7 JUMPI SWAP1 POP JUMPDEST POP SWAP1 POP PUSH1 0x0 JUMPDEST DUP5 DUP2 LT ISZERO PUSH2 0x15E5 JUMPI CALLER PUSH1 0xE PUSH1 0x0 PUSH2 0x1EE0 DUP5 PUSH1 0x1 PUSH2 0x4326 JUMP JUMPDEST DUP2 MSTORE PUSH1 0x20 DUP2 ADD SWAP2 SWAP1 SWAP2 MSTORE PUSH1 0x40 ADD PUSH1 0x0 KECCAK256 PUSH1 0x4 ADD SLOAD PUSH1 0x1 PUSH1 0x1 PUSH1 0xA0 SHL SUB AND EQ ISZERO PUSH2 0x208A JUMPI PUSH1 0x0 PUSH1 0xE DUP2 PUSH2 0x1F13 DUP5 PUSH1 0x1 PUSH2 0x4326 JUMP JUMPDEST DUP2 MSTORE PUSH1 0x20 ADD SWAP1 DUP2 MSTORE PUSH1 0x20 ADD PUSH1 0x0 KECCAK256 SWAP1 POP DUP1 PUSH1 0x40 MLOAD DUP1 PUSH2 0x160 ADD PUSH1 0x40 MSTORE SWAP1 DUP2 PUSH1 0x0 DUP3 ADD SLOAD DUP2 MSTORE PUSH1 0x20 ADD PUSH1 0x1 DUP3 ADD SLOAD DUP2 MSTORE PUSH1 0x20 ADD PUSH1 0x2 DUP3 ADD SLOAD DUP2 MSTORE PUSH1 0x20 ADD PUSH1 0x3 DUP3 ADD DUP1 SLOAD PUSH2 0x1F5E SWAP1 PUSH2 0x436A JUMP JUMPDEST DUP1 PUSH1 0x1F ADD PUSH1 0x20 DUP1 SWAP2 DIV MUL PUSH1 0x20 ADD PUSH1 0x40 MLOAD SWAP1 DUP2 ADD PUSH1 0x40 MSTORE DUP1 SWAP3 SWAP2 SWAP1 DUP2 DUP2 MSTORE PUSH1 0x20 ADD DUP3 DUP1 SLOAD PUSH2 0x1F8A SWAP1 PUSH2 0x436A JUMP JUMPDEST DUP1 ISZERO PUSH2 0x1FD7 JUMPI DUP1 PUSH1 0x1F LT PUSH2 0x1FAC JUMPI PUSH2 0x100 DUP1 DUP4 SLOAD DIV MUL DUP4 MSTORE SWAP2 PUSH1 0x20 ADD SWAP2 PUSH2 0x1FD7 JUMP JUMPDEST DUP3 ADD SWAP2 SWAP1 PUSH1 0x0 MSTORE PUSH1 0x20 PUSH1 0x0 KECCAK256 SWAP1 JUMPDEST DUP2 SLOAD DUP2 MSTORE SWAP1 PUSH1 0x1 ADD SWAP1 PUSH1 0x20 ADD DUP1 DUP4 GT PUSH2 0x1FBA JUMPI DUP3 SWAP1 SUB PUSH1 0x1F AND DUP3 ADD SWAP2 JUMPDEST POP POP POP SWAP2 DUP4 MSTORE POP POP PUSH1 0x4 DUP3 ADD SLOAD PUSH1 0x1 PUSH1 0x1 PUSH1 0xA0 SHL SUB AND PUSH1 0x20 DUP3 ADD MSTORE PUSH1 0x5 DUP3 ADD SLOAD PUSH1 0x40 DUP3 ADD MSTORE PUSH1 0x6 SWAP1 SWAP2 ADD SLOAD PUSH1 0xFF DUP1 DUP3 AND ISZERO ISZERO PUSH1 0x60 DUP5 ADD MSTORE PUSH2 0x100 DUP3 DIV DUP2 AND ISZERO ISZERO PUSH1 0x80 DUP5 ADD MSTORE PUSH3 0x10000 DUP3 DIV DUP2 AND ISZERO ISZERO PUSH1 0xA0 DUP5 ADD MSTORE PUSH4 0x1000000 DUP3 DIV DUP2 AND ISZERO ISZERO PUSH1 0xC0 DUP5 ADD MSTORE PUSH5 0x100000000 SWAP1 SWAP2 DIV AND ISZERO ISZERO PUSH1 0xE0 SWAP1 SWAP2 ADD MSTORE DUP4 MLOAD DUP5 SWAP1 DUP8 SWAP1 DUP2 LT PUSH2 0x206F JUMPI PUSH4 0x4E487B71 PUSH1 0xE0 SHL PUSH1 0x0 MSTORE PUSH1 0x32 PUSH1 0x4 MSTORE PUSH1 0x24 PUSH1 0x0 REVERT JUMPDEST PUSH1 0x20 MUL PUSH1 0x20 ADD ADD DUP2 SWAP1 MSTORE POP DUP5 DUP1 PUSH2 0x2085 SWAP1 PUSH2 0x43A5 JUMP JUMPDEST SWAP6 POP POP POP JUMPDEST DUP1 PUSH2 0x2094 DUP2 PUSH2 0x43A5 JUMP JUMPDEST SWAP2 POP POP PUSH2 0x1EC8 JUMP JUMPDEST PUSH1 0x0 DUP2 DUP2 MSTORE PUSH1 0x2 PUSH1 0x20 MSTORE PUSH1 0x40 DUP2 KECCAK256 SLOAD PUSH1 0x1 PUSH1 0x1 PUSH1 0xA0 SHL SUB AND DUP1 PUSH2 0xB31 JUMPI PUSH1 0x40 MLOAD PUSH3 0x461BCD PUSH1 0xE5 SHL DUP2 MSTORE PUSH1 0x20 PUSH1 0x4 DUP3 ADD MSTORE PUSH1 0x18 PUSH1 0x24 DUP3 ADD MSTORE PUSH24 0x115490CDCC8C4E881A5B9D985B1A59081D1BDAD95B881251 PUSH1 0x42 SHL PUSH1 0x44 DUP3 ADD MSTORE PUSH1 0x64 ADD PUSH2 0xC65 JUMP JUMPDEST PUSH1 0x0 PUSH1 0x1 PUSH1 0x1 PUSH1 0xA0 SHL SUB DUP3 AND PUSH2 0x2166 JUMPI PUSH1 0x40 MLOAD PUSH3 0x461BCD PUSH1 0xE5 SHL DUP2 MSTORE PUSH1 0x20 PUSH1 0x4 DUP3 ADD MSTORE PUSH1 0x29 PUSH1 0x24 DUP3 ADD MSTORE PUSH32 0x4552433732313A2061646472657373207A65726F206973206E6F742061207661 PUSH1 0x44 DUP3 ADD MSTORE PUSH9 0x3634B21037BBB732B9 PUSH1 0xB9 SHL PUSH1 0x64 DUP3 ADD MSTORE PUSH1 0x84 ADD PUSH2 0xC65 JUMP JUMPDEST POP PUSH1 0x1 PUSH1 0x1 PUSH1 0xA0 SHL SUB AND PUSH1 0x0 SWAP1 DUP2 MSTORE PUSH1 0x3 PUSH1 0x20 MSTORE PUSH1 0x40 SWAP1 KECCAK256 SLOAD SWAP1 JUMP JUMPDEST PUSH1 0x60 PUSH1 0x0 PUSH2 0x218F PUSH1 0x8 SLOAD SWAP1 JUMP JUMPDEST SWAP1 POP PUSH1 0x0 DUP1 PUSH1 0x0 JUMPDEST DUP4 DUP2 LT ISZERO PUSH2 0x21E7 JUMPI PUSH1 0xE PUSH1 0x0 PUSH2 0x21AE DUP4 PUSH1 0x1 PUSH2 0x4326 JUMP JUMPDEST DUP2 MSTORE PUSH1 0x20 ADD SWAP1 DUP2 MSTORE PUSH1 0x20 ADD PUSH1 0x0 KECCAK256 PUSH1 0x1 ADD SLOAD PUSH1 0x0 EQ PUSH2 0x21D5 JUMPI PUSH2 0x21D2 PUSH1 0x1 DUP5 PUSH2 0x4326 JUMP JUMPDEST SWAP3 POP JUMPDEST PUSH2 0x21E0 PUSH1 0x1 DUP3 PUSH2 0x4326 JUMP JUMPDEST SWAP1 POP PUSH2 0x2197 JUMP JUMPDEST POP PUSH1 0x0 DUP3 PUSH8 0xFFFFFFFFFFFFFFFF DUP2 GT ISZERO PUSH2 0x2211 JUMPI PUSH4 0x4E487B71 PUSH1 0xE0 SHL PUSH1 0x0 MSTORE PUSH1 0x41 PUSH1 0x4 MSTORE PUSH1 0x24 PUSH1 0x0 REVERT JUMPDEST PUSH1 0x40 MLOAD SWAP1 DUP1 DUP3 MSTORE DUP1 PUSH1 0x20 MUL PUSH1 0x20 ADD DUP3 ADD PUSH1 0x40 MSTORE DUP1 ISZERO PUSH2 0x224A JUMPI DUP2 PUSH1 0x20 ADD JUMPDEST PUSH2 0x2237 PUSH2 0x39F1 JUMP JUMPDEST DUP2 MSTORE PUSH1 0x20 ADD SWAP1 PUSH1 0x1 SWAP1 SUB SWAP1 DUP2 PUSH2 0x222F JUMPI SWAP1 POP JUMPDEST POP SWAP1 POP PUSH1 0x0 JUMPDEST DUP5 DUP2 LT ISZERO PUSH2 0x15E5 JUMPI PUSH1 0x0 PUSH1 0xE DUP2 PUSH2 0x2268 DUP5 PUSH1 0x1 PUSH2 0x4326 JUMP JUMPDEST DUP2 MSTORE PUSH1 0x20 ADD SWAP1 DUP2 MSTORE PUSH1 0x20 ADD PUSH1 0x0 KECCAK256 SWAP1 POP PUSH1 0xE PUSH1 0x0 DUP4 PUSH1 0x1 PUSH2 0x2289 SWAP2 SWAP1 PUSH2 0x4326 JUMP JUMPDEST DUP2 MSTORE PUSH1 0x20 ADD SWAP1 DUP2 MSTORE PUSH1 0x20 ADD PUSH1 0x0 KECCAK256 PUSH1 0x1 ADD SLOAD PUSH1 0x0 EQ PUSH2 0x2407 JUMPI DUP1 PUSH1 0x40 MLOAD DUP1 PUSH2 0x160 ADD PUSH1 0x40 MSTORE SWAP1 DUP2 PUSH1 0x0 DUP3 ADD SLOAD DUP2 MSTORE PUSH1 0x20 ADD PUSH1 0x1 DUP3 ADD SLOAD DUP2 MSTORE PUSH1 0x20 ADD PUSH1 0x2 DUP3 ADD SLOAD DUP2 MSTORE PUSH1 0x20 ADD PUSH1 0x3 DUP3 ADD DUP1 SLOAD PUSH2 0x22DD SWAP1 PUSH2 0x436A JUMP JUMPDEST DUP1 PUSH1 0x1F ADD PUSH1 0x20 DUP1 SWAP2 DIV MUL PUSH1 0x20 ADD PUSH1 0x40 MLOAD SWAP1 DUP2 ADD PUSH1 0x40 MSTORE DUP1 SWAP3 SWAP2 SWAP1 DUP2 DUP2 MSTORE PUSH1 0x20 ADD DUP3 DUP1 SLOAD PUSH2 0x2309 SWAP1 PUSH2 0x436A JUMP JUMPDEST DUP1 ISZERO PUSH2 0x2356 JUMPI DUP1 PUSH1 0x1F LT PUSH2 0x232B JUMPI PUSH2 0x100 DUP1 DUP4 SLOAD DIV MUL DUP4 MSTORE SWAP2 PUSH1 0x20 ADD SWAP2 PUSH2 0x2356 JUMP JUMPDEST DUP3 ADD SWAP2 SWAP1 PUSH1 0x0 MSTORE PUSH1 0x20 PUSH1 0x0 KECCAK256 SWAP1 JUMPDEST DUP2 SLOAD DUP2 MSTORE SWAP1 PUSH1 0x1 ADD SWAP1 PUSH1 0x20 ADD DUP1 DUP4 GT PUSH2 0x2339 JUMPI DUP3 SWAP1 SUB PUSH1 0x1F AND DUP3 ADD SWAP2 JUMPDEST POP POP POP SWAP2 DUP4 MSTORE POP POP PUSH1 0x4 DUP3 ADD SLOAD PUSH1 0x1 PUSH1 0x1 PUSH1 0xA0 SHL SUB AND PUSH1 0x20 DUP3 ADD MSTORE PUSH1 0x5 DUP3 ADD SLOAD PUSH1 0x40 DUP3 ADD MSTORE PUSH1 0x6 SWAP1 SWAP2 ADD SLOAD PUSH1 0xFF DUP1 DUP3 AND ISZERO ISZERO PUSH1 0x60 DUP5 ADD MSTORE PUSH2 0x100 DUP3 DIV DUP2 AND ISZERO ISZERO PUSH1 0x80 DUP5 ADD MSTORE PUSH3 0x10000 DUP3 DIV DUP2 AND ISZERO ISZERO PUSH1 0xA0 DUP5 ADD MSTORE PUSH4 0x1000000 DUP3 DIV DUP2 AND ISZERO ISZERO PUSH1 0xC0 DUP5 ADD MSTORE PUSH5 0x100000000 SWAP1 SWAP2 DIV AND ISZERO ISZERO PUSH1 0xE0 SWAP1 SWAP2 ADD MSTORE DUP4 MLOAD DUP5 SWAP1 DUP7 SWAP1 DUP2 LT PUSH2 0x23EE JUMPI PUSH4 0x4E487B71 PUSH1 0xE0 SHL PUSH1 0x0 MSTORE PUSH1 0x32 PUSH1 0x4 MSTORE PUSH1 0x24 PUSH1 0x0 REVERT JUMPDEST PUSH1 0x20 SWAP1 DUP2 MUL SWAP2 SWAP1 SWAP2 ADD ADD MSTORE PUSH2 0x2404 PUSH1 0x1 DUP6 PUSH2 0x4326 JUMP JUMPDEST SWAP4 POP JUMPDEST POP PUSH2 0x2413 PUSH1 0x1 DUP3 PUSH2 0x4326 JUMP JUMPDEST SWAP1 POP PUSH2 0x2250 JUMP JUMPDEST PUSH1 0x0 PUSH2 0x242A PUSH1 0xB DUP1 SLOAD PUSH1 0x1 ADD SWAP1 SSTORE JUMP JUMPDEST PUSH1 0x0 PUSH2 0x2435 PUSH1 0xB SLOAD SWAP1 JUMP JUMPDEST SWAP1 POP TIMESTAMP PUSH1 0x0 PUSH2 0x2444 DUP7 DUP4 PUSH2 0x4326 JUMP JUMPDEST SWAP1 POP DUP8 PUSH1 0xE PUSH1 0x0 DUP10 DUP2 MSTORE PUSH1 0x20 ADD SWAP1 DUP2 MSTORE PUSH1 0x20 ADD PUSH1 0x0 KECCAK256 PUSH1 0x2 ADD DUP2 SWAP1 SSTORE POP PUSH1 0x40 MLOAD DUP1 PUSH2 0x120 ADD PUSH1 0x40 MSTORE DUP1 DUP5 DUP2 MSTORE PUSH1 0x20 ADD CALLER PUSH1 0x1 PUSH1 0x1 PUSH1 0xA0 SHL SUB AND DUP2 MSTORE PUSH1 0x20 ADD DUP9 DUP2 MSTORE PUSH1 0x20 ADD DUP10 DUP2 MSTORE PUSH1 0x20 ADD DUP10 DUP2 MSTORE PUSH1 0x20 ADD DUP4 DUP2 MSTORE PUSH1 0x20 ADD DUP3 DUP2 MSTORE PUSH1 0x20 ADD DUP7 DUP2 MSTORE PUSH1 0x20 ADD PUSH1 0x1 PUSH1 0xFF AND DUP2 MSTORE POP PUSH1 0x13 PUSH1 0x0 DUP6 DUP2 MSTORE PUSH1 0x20 ADD SWAP1 DUP2 MSTORE PUSH1 0x20 ADD PUSH1 0x0 KECCAK256 PUSH1 0x0 DUP3 ADD MLOAD DUP2 PUSH1 0x0 ADD SSTORE PUSH1 0x20 DUP3 ADD MLOAD DUP2 PUSH1 0x1 ADD PUSH1 0x0 PUSH2 0x100 EXP DUP2 SLOAD DUP2 PUSH1 0x1 PUSH1 0x1 PUSH1 0xA0 SHL SUB MUL NOT AND SWAP1 DUP4 PUSH1 0x1 PUSH1 0x1 PUSH1 0xA0 SHL SUB AND MUL OR SWAP1 SSTORE POP PUSH1 0x40 DUP3 ADD MLOAD DUP2 PUSH1 0x2 ADD SSTORE PUSH1 0x60 DUP3 ADD MLOAD DUP2 PUSH1 0x3 ADD SSTORE PUSH1 0x80 DUP3 ADD MLOAD DUP2 PUSH1 0x4 ADD SSTORE PUSH1 0xA0 DUP3 ADD MLOAD DUP2 PUSH1 0x5 ADD SSTORE PUSH1 0xC0 DUP3 ADD MLOAD DUP2 PUSH1 0x6 ADD SSTORE PUSH1 0xE0 DUP3 ADD MLOAD DUP2 PUSH1 0x7 ADD SWAP1 DUP1 MLOAD SWAP1 PUSH1 0x20 ADD SWAP1 PUSH2 0x2546 SWAP3 SWAP2 SWAP1 PUSH2 0x3A4C JUMP JUMPDEST POP PUSH2 0x100 SWAP2 SWAP1 SWAP2 ADD MLOAD PUSH1 0x8 SWAP1 SWAP2 ADD SSTORE POP POP PUSH1 0x0 DUP6 DUP2 MSTORE PUSH1 0xE PUSH1 0x20 MSTORE PUSH1 0x40 SWAP1 KECCAK256 PUSH1 0x6 ADD DUP1 SLOAD PUSH4 0xFF000000 NOT AND PUSH4 0x1000000 OR SWAP1 SSTORE SWAP1 POP JUMPDEST SWAP5 SWAP4 POP POP POP POP JUMP JUMPDEST PUSH1 0x60 PUSH1 0x1 DUP1 SLOAD PUSH2 0xB46 SWAP1 PUSH2 0x436A JUMP JUMPDEST PUSH1 0x0 DUP2 DUP2 MSTORE PUSH1 0xE PUSH1 0x20 MSTORE PUSH1 0x40 SWAP1 KECCAK256 PUSH1 0x1 DUP2 ADD SLOAD PUSH1 0x4 SWAP1 SWAP2 ADD SLOAD PUSH1 0x1 PUSH1 0x1 PUSH1 0xA0 SHL SUB AND CALLER EQ ISZERO PUSH2 0x2604 JUMPI PUSH1 0x40 MLOAD PUSH3 0x461BCD PUSH1 0xE5 SHL DUP2 MSTORE PUSH1 0x20 PUSH1 0x4 DUP3 ADD MSTORE PUSH1 0x1A PUSH1 0x24 DUP3 ADD MSTORE PUSH32 0x796F752063616E27742062757920796F7572206F776E206E6674000000000000 PUSH1 0x44 DUP3 ADD MSTORE PUSH1 0x64 ADD PUSH2 0xC65 JUMP JUMPDEST PUSH1 0x0 DUP3 DUP2 MSTORE PUSH1 0xE PUSH1 0x20 MSTORE PUSH1 0x40 SWAP1 KECCAK256 PUSH1 0x4 ADD SLOAD PUSH1 0x1 PUSH1 0x1 PUSH1 0xA0 SHL SUB AND PUSH2 0x262A DUP2 CALLER DUP6 PUSH2 0x3019 JUMP JUMPDEST PUSH2 0x2634 DUP2 DUP5 PUSH2 0xBF0 JUMP JUMPDEST PUSH1 0x0 DUP4 DUP2 MSTORE PUSH1 0xE PUSH1 0x20 MSTORE PUSH1 0x40 DUP1 DUP3 KECCAK256 PUSH1 0x4 DUP2 ADD DUP1 SLOAD PUSH1 0x1 PUSH1 0x1 PUSH1 0xA0 SHL SUB NOT AND CALLER OR SWAP1 SSTORE PUSH1 0x6 ADD DUP1 SLOAD PUSH2 0x101 PUSH2 0xFFFF NOT SWAP1 SWAP2 AND OR SWAP1 SSTORE MLOAD PUSH1 0x1 PUSH1 0x1 PUSH1 0xA0 SHL SUB DUP4 AND SWAP2 CALLVALUE DUP1 ISZERO PUSH2 0x8FC MUL SWAP3 SWAP1 SWAP2 DUP2 DUP2 DUP2 DUP6 DUP9 DUP9 CALL SWAP4 POP POP POP POP ISZERO DUP1 ISZERO PUSH2 0x269C JUMPI RETURNDATASIZE PUSH1 0x0 DUP1 RETURNDATACOPY RETURNDATASIZE PUSH1 0x0 REVERT JUMPDEST POP PUSH2 0x26AB PUSH1 0x9 DUP1 SLOAD PUSH1 0x1 ADD SWAP1 SSTORE JUMP JUMPDEST PUSH1 0x0 PUSH2 0x26B6 PUSH1 0x9 SLOAD SWAP1 JUMP JUMPDEST PUSH1 0x40 DUP1 MLOAD PUSH1 0xA0 DUP2 ADD DUP3 MSTORE DUP7 DUP2 MSTORE PUSH1 0x20 DUP1 DUP3 ADD DUP8 DUP2 MSTORE PUSH1 0x1 PUSH1 0x1 PUSH1 0xA0 SHL SUB DUP1 DUP9 AND DUP5 DUP7 ADD SWAP1 DUP2 MSTORE CALLER PUSH1 0x60 DUP7 ADD DUP2 DUP2 MSTORE PUSH1 0x1 PUSH1 0x80 DUP9 ADD DUP2 DUP2 MSTORE PUSH1 0x0 DUP12 DUP2 MSTORE PUSH1 0xF DUP10 MSTORE DUP11 DUP2 KECCAK256 SWAP10 MLOAD DUP11 SSTORE SWAP7 MLOAD DUP10 DUP4 ADD SSTORE SWAP4 MLOAD PUSH1 0x2 DUP10 ADD DUP1 SLOAD SWAP2 DUP8 AND PUSH1 0x1 PUSH1 0x1 PUSH1 0xA0 SHL SUB NOT SWAP1 SWAP3 AND SWAP2 SWAP1 SWAP2 OR SWAP1 SSTORE SWAP1 MLOAD PUSH1 0x3 SWAP1 SWAP8 ADD DUP1 SLOAD SWAP4 MLOAD ISZERO ISZERO PUSH1 0x1 PUSH1 0xA0 SHL MUL PUSH1 0x1 PUSH1 0x1 PUSH1 0xA8 SHL SUB NOT SWAP1 SWAP5 AND SWAP8 SWAP1 SWAP5 AND SWAP7 SWAP1 SWAP7 OR SWAP2 SWAP1 SWAP2 OR SWAP1 SWAP2 SSTORE DUP10 DUP3 MSTORE PUSH1 0xE SWAP1 SWAP3 MSTORE SWAP3 DUP4 KECCAK256 SWAP1 SWAP2 ADD SWAP2 SWAP1 SWAP2 SSTORE SWAP1 SWAP2 POP PUSH2 0x276C SWAP1 PUSH2 0xDD9 JUMP JUMPDEST POP POP POP PUSH1 0x0 SWAP1 DUP2 MSTORE PUSH1 0xE PUSH1 0x20 MSTORE PUSH1 0x40 SWAP1 KECCAK256 PUSH1 0x6 ADD DUP1 SLOAD PUSH3 0xFF0000 NOT AND SWAP1 SSTORE JUMP JUMPDEST PUSH1 0x0 PUSH2 0x1DEB PUSH1 0xC SLOAD SWAP1 JUMP JUMPDEST PUSH2 0x27A2 CALLER DUP4 DUP4 PUSH2 0x3430 JUMP JUMPDEST POP POP JUMP JUMPDEST PUSH1 0x0 PUSH2 0x1DEB PUSH1 0xD SLOAD SWAP1 JUMP JUMPDEST PUSH1 0x60 PUSH1 0x0 PUSH2 0x27BE PUSH1 0x9 SLOAD SWAP1 JUMP JUMPDEST SWAP1 POP PUSH1 0x0 DUP1 DUP1 JUMPDEST DUP4 DUP2 LT ISZERO PUSH2 0x2820 JUMPI CALLER PUSH1 0xF PUSH1 0x0 PUSH2 0x27DD DUP5 PUSH1 0x1 PUSH2 0x4326 JUMP JUMPDEST DUP2 MSTORE PUSH1 0x20 DUP2 ADD SWAP2 SWAP1 SWAP2 MSTORE PUSH1 0x40 ADD PUSH1 0x0 KECCAK256 PUSH1 0x2 ADD SLOAD PUSH1 0x1 PUSH1 0x1 PUSH1 0xA0 SHL SUB AND EQ ISZERO PUSH2 0x280E JUMPI DUP2 PUSH2 0x280A DUP2 PUSH2 0x43A5 JUMP JUMPDEST SWAP3 POP POP JUMPDEST DUP1 PUSH2 0x2818 DUP2 PUSH2 0x43A5 JUMP JUMPDEST SWAP2 POP POP PUSH2 0x27C5 JUMP JUMPDEST POP PUSH1 0x0 DUP2 PUSH8 0xFFFFFFFFFFFFFFFF DUP2 GT ISZERO PUSH2 0x284A JUMPI PUSH4 0x4E487B71 PUSH1 0xE0 SHL PUSH1 0x0 MSTORE PUSH1 0x41 PUSH1 0x4 MSTORE PUSH1 0x24 PUSH1 0x0 REVERT JUMPDEST PUSH1 0x40 MLOAD SWAP1 DUP1 DUP3 MSTORE DUP1 PUSH1 0x20 MUL PUSH1 0x20 ADD DUP3 ADD PUSH1 0x40 MSTORE DUP1 ISZERO PUSH2 0x28A3 JUMPI DUP2 PUSH1 0x20 ADD JUMPDEST PUSH1 0x40 DUP1 MLOAD PUSH1 0xA0 DUP2 ADD DUP3 MSTORE PUSH1 0x0 DUP1 DUP3 MSTORE PUSH1 0x20 DUP1 DUP4 ADD DUP3 SWAP1 MSTORE SWAP3 DUP3 ADD DUP2 SWAP1 MSTORE PUSH1 0x60 DUP3 ADD DUP2 SWAP1 MSTORE PUSH1 0x80 DUP3 ADD MSTORE DUP3 MSTORE PUSH1 0x0 NOT SWAP1 SWAP3 ADD SWAP2 ADD DUP2 PUSH2 0x2868 JUMPI SWAP1 POP JUMPDEST POP SWAP1 POP PUSH1 0x0 JUMPDEST DUP5 DUP2 LT ISZERO PUSH2 0x15E5 JUMPI CALLER PUSH1 0xF PUSH1 0x0 PUSH2 0x28C1 DUP5 PUSH1 0x1 PUSH2 0x4326 JUMP JUMPDEST DUP2 MSTORE PUSH1 0x20 DUP2 ADD SWAP2 SWAP1 SWAP2 MSTORE PUSH1 0x40 ADD PUSH1 0x0 KECCAK256 PUSH1 0x2 ADD SLOAD PUSH1 0x1 PUSH1 0x1 PUSH1 0xA0 SHL SUB AND EQ ISZERO PUSH2 0x2995 JUMPI PUSH1 0x0 PUSH1 0xF DUP2 PUSH2 0x28F4 DUP5 PUSH1 0x1 PUSH2 0x4326 JUMP JUMPDEST DUP2 MSTORE PUSH1 0x20 DUP1 DUP3 ADD SWAP3 SWAP1 SWAP3 MSTORE PUSH1 0x40 SWAP1 DUP2 ADD PUSH1 0x0 KECCAK256 DUP2 MLOAD PUSH1 0xA0 DUP2 ADD DUP4 MSTORE DUP2 SLOAD DUP2 MSTORE PUSH1 0x1 DUP3 ADD SLOAD SWAP4 DUP2 ADD SWAP4 SWAP1 SWAP4 MSTORE PUSH1 0x2 DUP2 ADD SLOAD PUSH1 0x1 PUSH1 0x1 PUSH1 0xA0 SHL SUB SWAP1 DUP2 AND SWAP3 DUP5 ADD SWAP3 SWAP1 SWAP3 MSTORE PUSH1 0x3 DUP2 ADD SLOAD SWAP2 DUP3 AND PUSH1 0x60 DUP5 ADD MSTORE PUSH1 0x1 PUSH1 0xA0 SHL SWAP1 SWAP2 DIV PUSH1 0xFF AND ISZERO ISZERO PUSH1 0x80 DUP4 ADD MSTORE DUP5 MLOAD SWAP1 SWAP3 POP DUP5 SWAP1 DUP8 SWAP1 DUP2 LT PUSH2 0x297A JUMPI PUSH4 0x4E487B71 PUSH1 0xE0 SHL PUSH1 0x0 MSTORE PUSH1 0x32 PUSH1 0x4 MSTORE PUSH1 0x24 PUSH1 0x0 REVERT JUMPDEST PUSH1 0x20 MUL PUSH1 0x20 ADD ADD DUP2 SWAP1 MSTORE POP DUP5 DUP1 PUSH2 0x2990 SWAP1 PUSH2 0x43A5 JUMP JUMPDEST SWAP6 POP POP POP JUMPDEST DUP1 PUSH2 0x299F DUP2 PUSH2 0x43A5 JUMP JUMPDEST SWAP2 POP POP PUSH2 0x28A9 JUMP JUMPDEST PUSH1 0x60 PUSH1 0x0 PUSH2 0x29B4 PUSH1 0xC SLOAD SWAP1 JUMP JUMPDEST SWAP1 POP PUSH1 0x0 DUP1 DUP1 JUMPDEST DUP4 DUP2 LT ISZERO PUSH2 0x2A0B JUMPI PUSH1 0x16 PUSH1 0x0 PUSH2 0x29D2 DUP4 PUSH1 0x1 PUSH2 0x4326 JUMP JUMPDEST DUP2 MSTORE PUSH1 0x20 ADD SWAP1 DUP2 MSTORE PUSH1 0x20 ADD PUSH1 0x0 KECCAK256 PUSH1 0x3 ADD SLOAD PUSH1 0x0 EQ PUSH2 0x29F9 JUMPI DUP2 PUSH2 0x29F5 DUP2 PUSH2 0x43A5 JUMP JUMPDEST SWAP3 POP POP JUMPDEST DUP1 PUSH2 0x2A03 DUP2 PUSH2 0x43A5 JUMP JUMPDEST SWAP2 POP POP PUSH2 0x29BB JUMP JUMPDEST POP PUSH1 0x0 DUP2 PUSH8 0xFFFFFFFFFFFFFFFF DUP2 GT ISZERO PUSH2 0x2A35 JUMPI PUSH4 0x4E487B71 PUSH1 0xE0 SHL PUSH1 0x0 MSTORE PUSH1 0x41 PUSH1 0x4 MSTORE PUSH1 0x24 PUSH1 0x0 REVERT JUMPDEST PUSH1 0x40 MLOAD SWAP1 DUP1 DUP3 MSTORE DUP1 PUSH1 0x20 MUL PUSH1 0x20 ADD DUP3 ADD PUSH1 0x40 MSTORE DUP1 ISZERO PUSH2 0x2A9A JUMPI DUP2 PUSH1 0x20 ADD JUMPDEST PUSH2 0x2A87 PUSH1 0x40 MLOAD DUP1 PUSH1 0x80 ADD PUSH1 0x40 MSTORE DUP1 PUSH1 0x0 DUP2 MSTORE PUSH1 0x20 ADD PUSH1 0x0 DUP2 MSTORE PUSH1 0x20 ADD PUSH1 0x0 PUSH1 0x1 PUSH1 0x1 PUSH1 0xA0 SHL SUB AND DUP2 MSTORE PUSH1 0x20 ADD PUSH1 0x0 DUP2 MSTORE POP SWAP1 JUMP JUMPDEST DUP2 MSTORE PUSH1 0x20 ADD SWAP1 PUSH1 0x1 SWAP1 SUB SWAP1 DUP2 PUSH2 0x2A53 JUMPI SWAP1 POP JUMPDEST POP SWAP1 POP PUSH1 0x0 JUMPDEST DUP5 DUP2 LT ISZERO PUSH2 0x15E5 JUMPI PUSH1 0x16 PUSH1 0x0 PUSH2 0x2AB7 DUP4 PUSH1 0x1 PUSH2 0x4326 JUMP JUMPDEST DUP2 MSTORE PUSH1 0x20 ADD SWAP1 DUP2 MSTORE PUSH1 0x20 ADD PUSH1 0x0 KECCAK256 PUSH1 0x3 ADD SLOAD PUSH1 0x0 EQ PUSH2 0x2B6A JUMPI PUSH1 0x0 PUSH1 0x16 DUP2 PUSH2 0x2AE0 DUP5 PUSH1 0x1 PUSH2 0x4326 JUMP JUMPDEST DUP2 MSTORE PUSH1 0x20 DUP1 DUP3 ADD SWAP3 SWAP1 SWAP3 MSTORE PUSH1 0x40 SWAP1 DUP2 ADD PUSH1 0x0 KECCAK256 DUP2 MLOAD PUSH1 0x80 DUP2 ADD DUP4 MSTORE DUP2 SLOAD DUP2 MSTORE PUSH1 0x1 DUP3 ADD SLOAD SWAP4 DUP2 ADD SWAP4 SWAP1 SWAP4 MSTORE PUSH1 0x2 DUP2 ADD SLOAD PUSH1 0x1 PUSH1 0x1 PUSH1 0xA0 SHL SUB AND SWAP2 DUP4 ADD SWAP2 SWAP1 SWAP2 MSTORE PUSH1 0x3 DUP2 ADD SLOAD PUSH1 0x60 DUP4 ADD MSTORE DUP5 MLOAD SWAP1 SWAP3 POP DUP5 SWAP1 DUP8 SWAP1 DUP2 LT PUSH2 0x2B4F JUMPI PUSH4 0x4E487B71 PUSH1 0xE0 SHL PUSH1 0x0 MSTORE PUSH1 0x32 PUSH1 0x4 MSTORE PUSH1 0x24 PUSH1 0x0 REVERT JUMPDEST PUSH1 0x20 MUL PUSH1 0x20 ADD ADD DUP2 SWAP1 MSTORE POP DUP5 DUP1 PUSH2 0x2B65 SWAP1 PUSH2 0x43A5 JUMP JUMPDEST SWAP6 POP POP POP JUMPDEST DUP1 PUSH2 0x2B74 DUP2 PUSH2 0x43A5 JUMP JUMPDEST SWAP2 POP POP PUSH2 0x2AA0 JUMP JUMPDEST PUSH2 0x2B86 CALLER DUP4 PUSH2 0x317D JUMP JUMPDEST PUSH2 0x2BA2 JUMPI PUSH1 0x40 MLOAD PUSH3 0x461BCD PUSH1 0xE5 SHL DUP2 MSTORE PUSH1 0x4 ADD PUSH2 0xC65 SWAP1 PUSH2 0x4172 JUMP JUMPDEST PUSH2 0x2BAE DUP5 DUP5 DUP5 DUP5 PUSH2 0x34FF JUMP JUMPDEST POP POP POP POP JUMP JUMPDEST PUSH1 0x60 PUSH2 0x2BBF DUP3 PUSH2 0x2EF2 JUMP JUMPDEST PUSH1 0x0 DUP3 DUP2 MSTORE PUSH1 0x6 PUSH1 0x20 MSTORE PUSH1 0x40 DUP2 KECCAK256 DUP1 SLOAD PUSH2 0x2BD8 SWAP1 PUSH2 0x436A JUMP JUMPDEST DUP1 PUSH1 0x1F ADD PUSH1 0x20 DUP1 SWAP2 DIV MUL PUSH1 0x20 ADD PUSH1 0x40 MLOAD SWAP1 DUP2 ADD PUSH1 0x40 MSTORE DUP1 SWAP3 SWAP2 SWAP1 DUP2 DUP2 MSTORE PUSH1 0x20 ADD DUP3 DUP1 SLOAD PUSH2 0x2C04 SWAP1 PUSH2 0x436A JUMP JUMPDEST DUP1 ISZERO PUSH2 0x2C51 JUMPI DUP1 PUSH1 0x1F LT PUSH2 0x2C26 JUMPI PUSH2 0x100 DUP1 DUP4 SLOAD DIV MUL DUP4 MSTORE SWAP2 PUSH1 0x20 ADD SWAP2 PUSH2 0x2C51 JUMP JUMPDEST DUP3 ADD SWAP2 SWAP1 PUSH1 0x0 MSTORE PUSH1 0x20 PUSH1 0x0 KECCAK256 SWAP1 JUMPDEST DUP2 SLOAD DUP2 MSTORE SWAP1 PUSH1 0x1 ADD SWAP1 PUSH1 0x20 ADD DUP1 DUP4 GT PUSH2 0x2C34 JUMPI DUP3 SWAP1 SUB PUSH1 0x1F AND DUP3 ADD SWAP2 JUMPDEST POP POP POP POP POP SWAP1 POP PUSH1 0x0 PUSH2 0x2C6F PUSH1 0x40 DUP1 MLOAD PUSH1 0x20 DUP2 ADD SWAP1 SWAP2 MSTORE PUSH1 0x0 DUP2 MSTORE SWAP1 JUMP JUMPDEST SWAP1 POP DUP1 MLOAD PUSH1 0x0 EQ ISZERO PUSH2 0x2C82 JUMPI POP SWAP3 SWAP2 POP POP JUMP JUMPDEST DUP2 MLOAD ISZERO PUSH2 0x2CB4 JUMPI DUP1 DUP3 PUSH1 0x40 MLOAD PUSH1 0x20 ADD PUSH2 0x2C9C SWAP3 SWAP2 SWAP1 PUSH2 0x3E68 JUMP JUMPDEST PUSH1 0x40 MLOAD PUSH1 0x20 DUP2 DUP4 SUB SUB DUP2 MSTORE SWAP1 PUSH1 0x40 MSTORE SWAP3 POP POP POP SWAP2 SWAP1 POP JUMP JUMPDEST PUSH2 0x257C DUP5 PUSH2 0x3532 JUMP JUMPDEST PUSH1 0x13 PUSH1 0x20 MSTORE PUSH1 0x0 SWAP1 DUP2 MSTORE PUSH1 0x40 SWAP1 KECCAK256 DUP1 SLOAD PUSH1 0x1 DUP3 ADD SLOAD PUSH1 0x2 DUP4 ADD SLOAD PUSH1 0x3 DUP5 ADD SLOAD PUSH1 0x4 DUP6 ADD SLOAD PUSH1 0x5 DUP7 ADD SLOAD PUSH1 0x6 DUP8 ADD SLOAD PUSH1 0x7 DUP9 ADD DUP1 SLOAD SWAP8 SWAP9 PUSH1 0x1 PUSH1 0x1 PUSH1 0xA0 SHL SUB SWAP1 SWAP8 AND SWAP8 SWAP6 SWAP7 SWAP5 SWAP6 SWAP4 SWAP5 SWAP3 SWAP4 SWAP2 SWAP3 SWAP2 PUSH2 0x2D13 SWAP1 PUSH2 0x436A JUMP JUMPDEST DUP1 PUSH1 0x1F ADD PUSH1 0x20 DUP1 SWAP2 DIV MUL PUSH1 0x20 ADD PUSH1 0x40 MLOAD SWAP1 DUP2 ADD PUSH1 0x40 MSTORE DUP1 SWAP3 SWAP2 SWAP1 DUP2 DUP2 MSTORE PUSH1 0x20 ADD DUP3 DUP1 SLOAD PUSH2 0x2D3F SWAP1 PUSH2 0x436A JUMP JUMPDEST DUP1 ISZERO PUSH2 0x2D8C JUMPI DUP1 PUSH1 0x1F LT PUSH2 0x2D61 JUMPI PUSH2 0x100 DUP1 DUP4 SLOAD DIV MUL DUP4 MSTORE SWAP2 PUSH1 0x20 ADD SWAP2 PUSH2 0x2D8C JUMP JUMPDEST DUP3 ADD SWAP2 SWAP1 PUSH1 0x0 MSTORE PUSH1 0x20 PUSH1 0x0 KECCAK256 SWAP1 JUMPDEST DUP2 SLOAD DUP2 MSTORE SWAP1 PUSH1 0x1 ADD SWAP1 PUSH1 0x20 ADD DUP1 DUP4 GT PUSH2 0x2D6F JUMPI DUP3 SWAP1 SUB PUSH1 0x1F AND DUP3 ADD SWAP2 JUMPDEST POP POP POP POP POP SWAP1 DUP1 PUSH1 0x8 ADD SLOAD SWAP1 POP DUP10 JUMP JUMPDEST PUSH1 0xE PUSH1 0x20 MSTORE PUSH1 0x0 SWAP1 DUP2 MSTORE PUSH1 0x40 SWAP1 KECCAK256 DUP1 SLOAD PUSH1 0x1 DUP3 ADD SLOAD PUSH1 0x2 DUP4 ADD SLOAD PUSH1 0x3 DUP5 ADD DUP1 SLOAD SWAP4 SWAP5 SWAP3 SWAP4 SWAP2 SWAP3 SWAP2 PUSH2 0x2DCC SWAP1 PUSH2 0x436A JUMP JUMPDEST DUP1 PUSH1 0x1F ADD PUSH1 0x20 DUP1 SWAP2 DIV MUL PUSH1 0x20 ADD PUSH1 0x40 MLOAD SWAP1 DUP2 ADD PUSH1 0x40 MSTORE DUP1 SWAP3 SWAP2 SWAP1 DUP2 DUP2 MSTORE PUSH1 0x20 ADD DUP3 DUP1 SLOAD PUSH2 0x2DF8 SWAP1 PUSH2 0x436A JUMP JUMPDEST DUP1 ISZERO PUSH2 0x2E45 JUMPI DUP1 PUSH1 0x1F LT PUSH2 0x2E1A JUMPI PUSH2 0x100 DUP1 DUP4 SLOAD DIV MUL DUP4 MSTORE SWAP2 PUSH1 0x20 ADD SWAP2 PUSH2 0x2E45 JUMP JUMPDEST DUP3 ADD SWAP2 SWAP1 PUSH1 0x0 MSTORE PUSH1 0x20 PUSH1 0x0 KECCAK256 SWAP1 JUMPDEST DUP2 SLOAD DUP2 MSTORE SWAP1 PUSH1 0x1 ADD SWAP1 PUSH1 0x20 ADD DUP1 DUP4 GT PUSH2 0x2E28 JUMPI DUP3 SWAP1 SUB PUSH1 0x1F AND DUP3 ADD SWAP2 JUMPDEST POP POP POP PUSH1 0x4 DUP5 ADD SLOAD PUSH1 0x5 DUP6 ADD SLOAD PUSH1 0x6 SWAP1 SWAP6 ADD SLOAD SWAP4 SWAP5 PUSH1 0x1 PUSH1 0x1 PUSH1 0xA0 SHL SUB SWAP1 SWAP2 AND SWAP4 SWAP1 SWAP3 POP PUSH1 0xFF DUP1 DUP3 AND SWAP3 POP PUSH2 0x100 DUP3 DIV DUP2 AND SWAP2 PUSH3 0x10000 DUP2 DIV DUP3 AND SWAP2 PUSH4 0x1000000 DUP3 DIV DUP2 AND SWAP2 PUSH5 0x100000000 SWAP1 DIV AND DUP12 JUMP JUMPDEST PUSH1 0x0 PUSH2 0x1DEB PUSH1 0x8 SLOAD SWAP1 JUMP JUMPDEST PUSH1 0x0 PUSH1 0x1 PUSH1 0x1 PUSH1 0xE0 SHL SUB NOT DUP3 AND PUSH4 0x80AC58CD PUSH1 0xE0 SHL EQ DUP1 PUSH2 0x2ED3 JUMPI POP PUSH1 0x1 PUSH1 0x1 PUSH1 0xE0 SHL SUB NOT DUP3 AND PUSH4 0x5B5E139F PUSH1 0xE0 SHL EQ JUMPDEST DUP1 PUSH2 0xB31 JUMPI POP PUSH4 0x1FFC9A7 PUSH1 0xE0 SHL PUSH1 0x1 PUSH1 0x1 PUSH1 0xE0 SHL SUB NOT DUP4 AND EQ PUSH2 0xB31 JUMP JUMPDEST PUSH1 0x0 DUP2 DUP2 MSTORE PUSH1 0x2 PUSH1 0x20 MSTORE PUSH1 0x40 SWAP1 KECCAK256 SLOAD PUSH1 0x1 PUSH1 0x1 PUSH1 0xA0 SHL SUB AND PUSH2 0x1083 JUMPI PUSH1 0x40 MLOAD PUSH3 0x461BCD PUSH1 0xE5 SHL DUP2 MSTORE PUSH1 0x20 PUSH1 0x4 DUP3 ADD MSTORE PUSH1 0x18 PUSH1 0x24 DUP3 ADD MSTORE PUSH24 0x115490CDCC8C4E881A5B9D985B1A59081D1BDAD95B881251 PUSH1 0x42 SHL PUSH1 0x44 DUP3 ADD MSTORE PUSH1 0x64 ADD PUSH2 0xC65 JUMP JUMPDEST PUSH1 0x0 DUP2 DUP2 MSTORE PUSH1 0x4 PUSH1 0x20 MSTORE PUSH1 0x40 SWAP1 KECCAK256 DUP1 SLOAD PUSH1 0x1 PUSH1 0x1 PUSH1 0xA0 SHL SUB NOT AND PUSH1 0x1 PUSH1 0x1 PUSH1 0xA0 SHL SUB DUP5 AND SWAP1 DUP2 OR SWAP1 SWAP2 SSTORE DUP2 SWAP1 PUSH2 0x2F86 DUP3 PUSH2 0x209C JUMP JUMPDEST PUSH1 0x1 PUSH1 0x1 PUSH1 0xA0 SHL SUB AND PUSH32 0x8C5BE1E5EBEC7D5BD14F71427D1E84F3DD0314C0F7B2291E5B200AC8C7C3B925 PUSH1 0x40 MLOAD PUSH1 0x40 MLOAD DUP1 SWAP2 SUB SWAP1 LOG4 POP POP JUMP JUMPDEST PUSH1 0x2 PUSH1 0x7 SLOAD EQ ISZERO PUSH2 0x3012 JUMPI PUSH1 0x40 MLOAD PUSH3 0x461BCD PUSH1 0xE5 SHL DUP2 MSTORE PUSH1 0x20 PUSH1 0x4 DUP3 ADD MSTORE PUSH1 0x1F PUSH1 0x24 DUP3 ADD MSTORE PUSH32 0x5265656E7472616E637947756172643A207265656E7472616E742063616C6C00 PUSH1 0x44 DUP3 ADD MSTORE PUSH1 0x64 ADD PUSH2 0xC65 JUMP JUMPDEST PUSH1 0x2 PUSH1 0x7 SSTORE JUMP JUMPDEST DUP3 PUSH1 0x1 PUSH1 0x1 PUSH1 0xA0 SHL SUB AND PUSH2 0x302C DUP3 PUSH2 0x209C JUMP JUMPDEST PUSH1 0x1 PUSH1 0x1 PUSH1 0xA0 SHL SUB AND EQ PUSH2 0x3052 JUMPI PUSH1 0x40 MLOAD PUSH3 0x461BCD PUSH1 0xE5 SHL DUP2 MSTORE PUSH1 0x4 ADD PUSH2 0xC65 SWAP1 PUSH2 0x4211 JUMP JUMPDEST PUSH1 0x1 PUSH1 0x1 PUSH1 0xA0 SHL SUB DUP3 AND PUSH2 0x30B4 JUMPI PUSH1 0x40 MLOAD PUSH3 0x461BCD PUSH1 0xE5 SHL DUP2 MSTORE PUSH1 0x20 PUSH1 0x4 DUP3 ADD MSTORE PUSH1 0x24 DUP1 DUP3 ADD MSTORE PUSH32 0x4552433732313A207472616E7366657220746F20746865207A65726F20616464 PUSH1 0x44 DUP3 ADD MSTORE PUSH4 0x72657373 PUSH1 0xE0 SHL PUSH1 0x64 DUP3 ADD MSTORE PUSH1 0x84 ADD PUSH2 0xC65 JUMP JUMPDEST DUP3 PUSH1 0x1 PUSH1 0x1 PUSH1 0xA0 SHL SUB AND PUSH2 0x30C7 DUP3 PUSH2 0x209C JUMP JUMPDEST PUSH1 0x1 PUSH1 0x1 PUSH1 0xA0 SHL SUB AND EQ PUSH2 0x30ED JUMPI PUSH1 0x40 MLOAD PUSH3 0x461BCD PUSH1 0xE5 SHL DUP2 MSTORE PUSH1 0x4 ADD PUSH2 0xC65 SWAP1 PUSH2 0x4211 JUMP JUMPDEST PUSH1 0x0 DUP2 DUP2 MSTORE PUSH1 0x4 PUSH1 0x20 SWAP1 DUP2 MSTORE PUSH1 0x40 DUP1 DUP4 KECCAK256 DUP1 SLOAD PUSH1 0x1 PUSH1 0x1 PUSH1 0xA0 SHL SUB NOT SWAP1 DUP2 AND SWAP1 SWAP2 SSTORE PUSH1 0x1 PUSH1 0x1 PUSH1 0xA0 SHL SUB DUP8 DUP2 AND DUP1 DUP7 MSTORE PUSH1 0x3 DUP6 MSTORE DUP4 DUP7 KECCAK256 DUP1 SLOAD PUSH1 0x0 NOT ADD SWAP1 SSTORE SWAP1 DUP8 AND DUP1 DUP7 MSTORE DUP4 DUP7 KECCAK256 DUP1 SLOAD PUSH1 0x1 ADD SWAP1 SSTORE DUP7 DUP7 MSTORE PUSH1 0x2 SWAP1 SWAP5 MSTORE DUP3 DUP6 KECCAK256 DUP1 SLOAD SWAP1 SWAP3 AND DUP5 OR SWAP1 SWAP2 SSTORE SWAP1 MLOAD DUP5 SWAP4 PUSH32 0xDDF252AD1BE2C89B69C2B068FC378DAA952BA7F163C4A11628F55A4DF523B3EF SWAP2 LOG4 POP POP POP JUMP JUMPDEST PUSH1 0x0 DUP1 PUSH2 0x3189 DUP4 PUSH2 0x209C JUMP JUMPDEST SWAP1 POP DUP1 PUSH1 0x1 PUSH1 0x1 PUSH1 0xA0 SHL SUB AND DUP5 PUSH1 0x1 PUSH1 0x1 PUSH1 0xA0 SHL SUB AND EQ DUP1 PUSH2 0x31D0 JUMPI POP PUSH1 0x1 PUSH1 0x1 PUSH1 0xA0 SHL SUB DUP1 DUP3 AND PUSH1 0x0 SWAP1 DUP2 MSTORE PUSH1 0x5 PUSH1 0x20 SWAP1 DUP2 MSTORE PUSH1 0x40 DUP1 DUP4 KECCAK256 SWAP4 DUP9 AND DUP4 MSTORE SWAP3 SWAP1 MSTORE KECCAK256 SLOAD PUSH1 0xFF AND JUMPDEST DUP1 PUSH2 0x257C JUMPI POP DUP4 PUSH1 0x1 PUSH1 0x1 PUSH1 0xA0 SHL SUB AND PUSH2 0x31E9 DUP5 PUSH2 0xBC9 JUMP JUMPDEST PUSH1 0x1 PUSH1 0x1 PUSH1 0xA0 SHL SUB AND EQ SWAP5 SWAP4 POP POP POP POP JUMP JUMPDEST PUSH2 0x27A2 DUP3 DUP3 PUSH1 0x40 MLOAD DUP1 PUSH1 0x20 ADD PUSH1 0x40 MSTORE DUP1 PUSH1 0x0 DUP2 MSTORE POP PUSH2 0x35A6 JUMP JUMPDEST PUSH1 0x0 DUP3 DUP2 MSTORE PUSH1 0x2 PUSH1 0x20 MSTORE PUSH1 0x40 SWAP1 KECCAK256 SLOAD PUSH1 0x1 PUSH1 0x1 PUSH1 0xA0 SHL SUB AND PUSH2 0x3290 JUMPI PUSH1 0x40 MLOAD PUSH3 0x461BCD PUSH1 0xE5 SHL DUP2 MSTORE PUSH1 0x20 PUSH1 0x4 DUP3 ADD MSTORE PUSH1 0x2E PUSH1 0x24 DUP3 ADD MSTORE PUSH32 0x45524337323155524953746F726167653A2055524920736574206F66206E6F6E PUSH1 0x44 DUP3 ADD MSTORE PUSH14 0x32BC34B9BA32B73A103A37B5B2B7 PUSH1 0x91 SHL PUSH1 0x64 DUP3 ADD MSTORE PUSH1 0x84 ADD PUSH2 0xC65 JUMP JUMPDEST PUSH1 0x0 DUP3 DUP2 MSTORE PUSH1 0x6 PUSH1 0x20 SWAP1 DUP2 MSTORE PUSH1 0x40 SWAP1 SWAP2 KECCAK256 DUP3 MLOAD PUSH2 0x32AF SWAP3 DUP5 ADD SWAP1 PUSH2 0x3A4C JUMP JUMPDEST POP PUSH1 0x40 MLOAD DUP3 DUP2 MSTORE PUSH32 0xF8E1A15ABA9398E019F0B49DF1A4FDE98EE17AE345CB5F6B5E2C27F5033E8CE7 SWAP1 PUSH1 0x20 ADD PUSH1 0x40 MLOAD DUP1 SWAP2 SUB SWAP1 LOG1 POP POP JUMP JUMPDEST PUSH1 0x40 DUP1 MLOAD PUSH2 0x160 DUP2 ADD DUP3 MSTORE DUP5 DUP2 MSTORE PUSH1 0x0 PUSH1 0x20 DUP1 DUP4 ADD DUP3 DUP2 MSTORE DUP4 DUP6 ADD DUP4 DUP2 MSTORE PUSH1 0x60 DUP6 ADD DUP8 DUP2 MSTORE CALLER PUSH1 0x80 DUP8 ADD MSTORE PUSH1 0xA0 DUP7 ADD DUP10 SWAP1 MSTORE PUSH1 0xC0 DUP7 ADD DUP6 SWAP1 MSTORE PUSH1 0xE0 DUP7 ADD DUP6 SWAP1 MSTORE PUSH2 0x100 DUP7 ADD DUP6 SWAP1 MSTORE PUSH2 0x120 DUP7 ADD DUP6 SWAP1 MSTORE PUSH2 0x140 DUP7 ADD DUP6 SWAP1 MSTORE DUP10 DUP6 MSTORE PUSH1 0xE DUP5 MSTORE SWAP6 SWAP1 SWAP4 KECCAK256 DUP5 MLOAD DUP2 SSTORE SWAP1 MLOAD PUSH1 0x1 DUP3 ADD SSTORE SWAP2 MLOAD PUSH1 0x2 DUP4 ADD SSTORE SWAP3 MLOAD DUP1 MLOAD SWAP3 SWAP4 SWAP2 SWAP3 PUSH2 0x3374 SWAP3 PUSH1 0x3 DUP6 ADD SWAP3 ADD SWAP1 PUSH2 0x3A4C JUMP JUMPDEST POP PUSH1 0x80 DUP3 ADD MLOAD PUSH1 0x4 DUP3 ADD DUP1 SLOAD PUSH1 0x1 PUSH1 0x1 PUSH1 0xA0 SHL SUB NOT AND PUSH1 0x1 PUSH1 0x1 PUSH1 0xA0 SHL SUB SWAP1 SWAP3 AND SWAP2 SWAP1 SWAP2 OR SWAP1 SSTORE PUSH1 0xA0 DUP3 ADD MLOAD PUSH1 0x5 DUP3 ADD SSTORE PUSH1 0xC0 DUP3 ADD MLOAD PUSH1 0x6 SWAP1 SWAP2 ADD DUP1 SLOAD PUSH1 0xE0 DUP5 ADD MLOAD PUSH2 0x100 DUP1 DUP7 ADD MLOAD PUSH2 0x120 DUP8 ADD MLOAD PUSH2 0x140 SWAP1 SWAP8 ADD MLOAD PUSH2 0xFFFF NOT SWAP1 SWAP5 AND SWAP6 ISZERO ISZERO PUSH2 0xFF00 NOT AND SWAP6 SWAP1 SWAP6 OR SWAP2 ISZERO ISZERO MUL OR PUSH4 0xFFFF0000 NOT AND PUSH3 0x10000 SWAP4 ISZERO ISZERO SWAP4 SWAP1 SWAP4 MUL PUSH4 0xFF000000 NOT AND SWAP3 SWAP1 SWAP3 OR PUSH4 0x1000000 SWAP4 ISZERO ISZERO SWAP4 SWAP1 SWAP4 MUL SWAP3 SWAP1 SWAP3 OR PUSH5 0xFF00000000 NOT AND PUSH5 0x100000000 SWAP2 ISZERO ISZERO SWAP2 SWAP1 SWAP2 MUL OR SWAP1 SSTORE PUSH2 0xD06 CALLER PUSH2 0xDD9 JUMP JUMPDEST DUP2 PUSH1 0x1 PUSH1 0x1 PUSH1 0xA0 SHL SUB AND DUP4 PUSH1 0x1 PUSH1 0x1 PUSH1 0xA0 SHL SUB AND EQ ISZERO PUSH2 0x3492 JUMPI PUSH1 0x40 MLOAD PUSH3 0x461BCD PUSH1 0xE5 SHL DUP2 MSTORE PUSH1 0x20 PUSH1 0x4 DUP3 ADD MSTORE PUSH1 0x19 PUSH1 0x24 DUP3 ADD MSTORE PUSH32 0x4552433732313A20617070726F766520746F2063616C6C657200000000000000 PUSH1 0x44 DUP3 ADD MSTORE PUSH1 0x64 ADD PUSH2 0xC65 JUMP JUMPDEST PUSH1 0x1 PUSH1 0x1 PUSH1 0xA0 SHL SUB DUP4 DUP2 AND PUSH1 0x0 DUP2 DUP2 MSTORE PUSH1 0x5 PUSH1 0x20 SWAP1 DUP2 MSTORE PUSH1 0x40 DUP1 DUP4 KECCAK256 SWAP5 DUP8 AND DUP1 DUP5 MSTORE SWAP5 DUP3 MSTORE SWAP2 DUP3 SWAP1 KECCAK256 DUP1 SLOAD PUSH1 0xFF NOT AND DUP7 ISZERO ISZERO SWAP1 DUP2 OR SWAP1 SWAP2 SSTORE SWAP2 MLOAD SWAP2 DUP3 MSTORE PUSH32 0x17307EAB39AB6107E8899845AD3D59BD9653F200F220920489CA2B5937696C31 SWAP2 ADD PUSH1 0x40 MLOAD DUP1 SWAP2 SUB SWAP1 LOG3 POP POP POP JUMP JUMPDEST PUSH2 0x350A DUP5 DUP5 DUP5 PUSH2 0x3019 JUMP JUMPDEST PUSH2 0x3516 DUP5 DUP5 DUP5 DUP5 PUSH2 0x35D9 JUMP JUMPDEST PUSH2 0x2BAE JUMPI PUSH1 0x40 MLOAD PUSH3 0x461BCD PUSH1 0xE5 SHL DUP2 MSTORE PUSH1 0x4 ADD PUSH2 0xC65 SWAP1 PUSH2 0x41BF JUMP JUMPDEST PUSH1 0x60 PUSH2 0x353D DUP3 PUSH2 0x2EF2 JUMP JUMPDEST PUSH1 0x0 PUSH2 0x3554 PUSH1 0x40 DUP1 MLOAD PUSH1 0x20 DUP2 ADD SWAP1 SWAP2 MSTORE PUSH1 0x0 DUP2 MSTORE SWAP1 JUMP JUMPDEST SWAP1 POP PUSH1 0x0 DUP2 MLOAD GT PUSH2 0x3574 JUMPI PUSH1 0x40 MLOAD DUP1 PUSH1 0x20 ADD PUSH1 0x40 MSTORE DUP1 PUSH1 0x0 DUP2 MSTORE POP PUSH2 0x359F JUMP JUMPDEST DUP1 PUSH2 0x357E DUP5 PUSH2 0x36E3 JUMP JUMPDEST PUSH1 0x40 MLOAD PUSH1 0x20 ADD PUSH2 0x358F SWAP3 SWAP2 SWAP1 PUSH2 0x3E68 JUMP JUMPDEST PUSH1 0x40 MLOAD PUSH1 0x20 DUP2 DUP4 SUB SUB DUP2 MSTORE SWAP1 PUSH1 0x40 MSTORE JUMPDEST SWAP4 SWAP3 POP POP POP JUMP JUMPDEST PUSH2 0x35B0 DUP4 DUP4 PUSH2 0x378E JUMP JUMPDEST PUSH2 0x35BD PUSH1 0x0 DUP5 DUP5 DUP5 PUSH2 0x35D9 JUMP JUMPDEST PUSH2 0xD06 JUMPI PUSH1 0x40 MLOAD PUSH3 0x461BCD PUSH1 0xE5 SHL DUP2 MSTORE PUSH1 0x4 ADD PUSH2 0xC65 SWAP1 PUSH2 0x41BF JUMP JUMPDEST PUSH1 0x0 PUSH1 0x1 PUSH1 0x1 PUSH1 0xA0 SHL SUB DUP5 AND EXTCODESIZE ISZERO PUSH2 0x36DB JUMPI PUSH1 0x40 MLOAD PUSH4 0xA85BD01 PUSH1 0xE1 SHL DUP2 MSTORE PUSH1 0x1 PUSH1 0x1 PUSH1 0xA0 SHL SUB DUP6 AND SWAP1 PUSH4 0x150B7A02 SWAP1 PUSH2 0x361D SWAP1 CALLER SWAP1 DUP10 SWAP1 DUP9 SWAP1 DUP9 SWAP1 PUSH1 0x4 ADD PUSH2 0x3E97 JUMP JUMPDEST PUSH1 0x20 PUSH1 0x40 MLOAD DUP1 DUP4 SUB DUP2 PUSH1 0x0 DUP8 DUP1 EXTCODESIZE ISZERO DUP1 ISZERO PUSH2 0x3637 JUMPI PUSH1 0x0 DUP1 REVERT JUMPDEST POP GAS CALL SWAP3 POP POP POP DUP1 ISZERO PUSH2 0x3667 JUMPI POP PUSH1 0x40 DUP1 MLOAD PUSH1 0x1F RETURNDATASIZE SWAP1 DUP2 ADD PUSH1 0x1F NOT AND DUP3 ADD SWAP1 SWAP3 MSTORE PUSH2 0x3664 SWAP2 DUP2 ADD SWAP1 PUSH2 0x3D15 JUMP JUMPDEST PUSH1 0x1 JUMPDEST PUSH2 0x36C1 JUMPI RETURNDATASIZE DUP1 DUP1 ISZERO PUSH2 0x3695 JUMPI PUSH1 0x40 MLOAD SWAP2 POP PUSH1 0x1F NOT PUSH1 0x3F RETURNDATASIZE ADD AND DUP3 ADD PUSH1 0x40 MSTORE RETURNDATASIZE DUP3 MSTORE RETURNDATASIZE PUSH1 0x0 PUSH1 0x20 DUP5 ADD RETURNDATACOPY PUSH2 0x369A JUMP JUMPDEST PUSH1 0x60 SWAP2 POP JUMPDEST POP DUP1 MLOAD PUSH2 0x36B9 JUMPI PUSH1 0x40 MLOAD PUSH3 0x461BCD PUSH1 0xE5 SHL DUP2 MSTORE PUSH1 0x4 ADD PUSH2 0xC65 SWAP1 PUSH2 0x41BF JUMP JUMPDEST DUP1 MLOAD DUP2 PUSH1 0x20 ADD REVERT JUMPDEST PUSH1 0x1 PUSH1 0x1 PUSH1 0xE0 SHL SUB NOT AND PUSH4 0xA85BD01 PUSH1 0xE1 SHL EQ SWAP1 POP PUSH2 0x257C JUMP JUMPDEST POP PUSH1 0x1 PUSH2 0x257C JUMP JUMPDEST PUSH1 0x60 PUSH1 0x0 PUSH2 0x36F0 DUP4 PUSH2 0x3919 JUMP JUMPDEST PUSH1 0x1 ADD SWAP1 POP PUSH1 0x0 DUP2 PUSH8 0xFFFFFFFFFFFFFFFF DUP2 GT ISZERO PUSH2 0x371E JUMPI PUSH4 0x4E487B71 PUSH1 0xE0 SHL PUSH1 0x0 MSTORE PUSH1 0x41 PUSH1 0x4 MSTORE PUSH1 0x24 PUSH1 0x0 REVERT JUMPDEST PUSH1 0x40 MLOAD SWAP1 DUP1 DUP3 MSTORE DUP1 PUSH1 0x1F ADD PUSH1 0x1F NOT AND PUSH1 0x20 ADD DUP3 ADD PUSH1 0x40 MSTORE DUP1 ISZERO PUSH2 0x3748 JUMPI PUSH1 0x20 DUP3 ADD DUP2 DUP1 CALLDATASIZE DUP4 CALLDATACOPY ADD SWAP1 POP JUMPDEST POP SWAP1 POP DUP2 DUP2 ADD PUSH1 0x20 ADD JUMPDEST PUSH1 0x0 NOT ADD PUSH16 0x181899199A1A9B1B9C1CB0B131B232B3 PUSH1 0x81 SHL PUSH1 0xA DUP7 MOD BYTE DUP2 MSTORE8 PUSH1 0xA DUP6 DIV SWAP5 POP DUP5 PUSH2 0x3781 JUMPI PUSH2 0x3786 JUMP JUMPDEST PUSH2 0x3752 JUMP JUMPDEST POP SWAP4 SWAP3 POP POP POP JUMP JUMPDEST PUSH1 0x1 PUSH1 0x1 PUSH1 0xA0 SHL SUB DUP3 AND PUSH2 0x37E4 JUMPI PUSH1 0x40 MLOAD PUSH3 0x461BCD PUSH1 0xE5 SHL DUP2 MSTORE PUSH1 0x20 PUSH1 0x4 DUP3 ADD DUP2 SWAP1 MSTORE PUSH1 0x24 DUP3 ADD MSTORE PUSH32 0x4552433732313A206D696E7420746F20746865207A65726F2061646472657373 PUSH1 0x44 DUP3 ADD MSTORE PUSH1 0x64 ADD PUSH2 0xC65 JUMP JUMPDEST PUSH1 0x0 DUP2 DUP2 MSTORE PUSH1 0x2 PUSH1 0x20 MSTORE PUSH1 0x40 SWAP1 KECCAK256 SLOAD PUSH1 0x1 PUSH1 0x1 PUSH1 0xA0 SHL SUB AND ISZERO PUSH2 0x3849 JUMPI PUSH1 0x40 MLOAD PUSH3 0x461BCD PUSH1 0xE5 SHL DUP2 MSTORE PUSH1 0x20 PUSH1 0x4 DUP3 ADD MSTORE PUSH1 0x1C PUSH1 0x24 DUP3 ADD MSTORE PUSH32 0x4552433732313A20746F6B656E20616C7265616479206D696E74656400000000 PUSH1 0x44 DUP3 ADD MSTORE PUSH1 0x64 ADD PUSH2 0xC65 JUMP JUMPDEST PUSH1 0x0 DUP2 DUP2 MSTORE PUSH1 0x2 PUSH1 0x20 MSTORE PUSH1 0x40 SWAP1 KECCAK256 SLOAD PUSH1 0x1 PUSH1 0x1 PUSH1 0xA0 SHL SUB AND ISZERO PUSH2 0x38AE JUMPI PUSH1 0x40 MLOAD PUSH3 0x461BCD PUSH1 0xE5 SHL DUP2 MSTORE PUSH1 0x20 PUSH1 0x4 DUP3 ADD MSTORE PUSH1 0x1C PUSH1 0x24 DUP3 ADD MSTORE PUSH32 0x4552433732313A20746F6B656E20616C7265616479206D696E74656400000000 PUSH1 0x44 DUP3 ADD MSTORE PUSH1 0x64 ADD PUSH2 0xC65 JUMP JUMPDEST PUSH1 0x1 PUSH1 0x1 PUSH1 0xA0 SHL SUB DUP3 AND PUSH1 0x0 DUP2 DUP2 MSTORE PUSH1 0x3 PUSH1 0x20 SWAP1 DUP2 MSTORE PUSH1 0x40 DUP1 DUP4 KECCAK256 DUP1 SLOAD PUSH1 0x1 ADD SWAP1 SSTORE DUP5 DUP4 MSTORE PUSH1 0x2 SWAP1 SWAP2 MSTORE DUP1 DUP3 KECCAK256 DUP1 SLOAD PUSH1 0x1 PUSH1 0x1 PUSH1 0xA0 SHL SUB NOT AND DUP5 OR SWAP1 SSTORE MLOAD DUP4 SWAP3 SWAP2 SWAP1 PUSH32 0xDDF252AD1BE2C89B69C2B068FC378DAA952BA7F163C4A11628F55A4DF523B3EF SWAP1 DUP3 SWAP1 LOG4 POP POP JUMP JUMPDEST PUSH1 0x0 DUP1 PUSH19 0x184F03E93FF9F4DAA797ED6E38ED64BF6A1F01 PUSH1 0x40 SHL DUP4 LT PUSH2 0x3958 JUMPI PUSH19 0x184F03E93FF9F4DAA797ED6E38ED64BF6A1F01 PUSH1 0x40 SHL DUP4 DIV SWAP3 POP PUSH1 0x40 ADD JUMPDEST PUSH14 0x4EE2D6D415B85ACEF8100000000 DUP4 LT PUSH2 0x3984 JUMPI PUSH14 0x4EE2D6D415B85ACEF8100000000 DUP4 DIV SWAP3 POP PUSH1 0x20 ADD JUMPDEST PUSH7 0x2386F26FC10000 DUP4 LT PUSH2 0x39A2 JUMPI PUSH7 0x2386F26FC10000 DUP4 DIV SWAP3 POP PUSH1 0x10 ADD JUMPDEST PUSH4 0x5F5E100 DUP4 LT PUSH2 0x39BA JUMPI PUSH4 0x5F5E100 DUP4 DIV SWAP3 POP PUSH1 0x8 ADD JUMPDEST PUSH2 0x2710 DUP4 LT PUSH2 0x39CE JUMPI PUSH2 0x2710 DUP4 DIV SWAP3 POP PUSH1 0x4 ADD JUMPDEST PUSH1 0x64 DUP4 LT PUSH2 0x39E0 JUMPI PUSH1 0x64 DUP4 DIV SWAP3 POP PUSH1 0x2 ADD JUMPDEST PUSH1 0xA DUP4 LT PUSH2 0xB31 JUMPI PUSH1 0x1 ADD SWAP3 SWAP2 POP POP JUMP JUMPDEST PUSH1 0x40 DUP1 MLOAD PUSH2 0x160 DUP2 ADD DUP3 MSTORE PUSH1 0x0 DUP1 DUP3 MSTORE PUSH1 0x20 DUP3 ADD DUP2 SWAP1 MSTORE SWAP2 DUP2 ADD DUP3 SWAP1 MSTORE PUSH1 0x60 DUP1 DUP3 ADD MSTORE PUSH1 0x80 DUP2 ADD DUP3 SWAP1 MSTORE PUSH1 0xA0 DUP2 ADD DUP3 SWAP1 MSTORE PUSH1 0xC0 DUP2 ADD DUP3 SWAP1 MSTORE PUSH1 0xE0 DUP2 ADD DUP3 SWAP1 MSTORE PUSH2 0x100 DUP2 ADD DUP3 SWAP1 MSTORE PUSH2 0x120 DUP2 ADD DUP3 SWAP1 MSTORE PUSH2 0x140 DUP2 ADD SWAP2 SWAP1 SWAP2 MSTORE SWAP1 JUMP JUMPDEST DUP3 DUP1 SLOAD PUSH2 0x3A58 SWAP1 PUSH2 0x436A JUMP JUMPDEST SWAP1 PUSH1 0x0 MSTORE PUSH1 0x20 PUSH1 0x0 KECCAK256 SWAP1 PUSH1 0x1F ADD PUSH1 0x20 SWAP1 DIV DUP2 ADD SWAP3 DUP3 PUSH2 0x3A7A JUMPI PUSH1 0x0 DUP6 SSTORE PUSH2 0x3AC0 JUMP JUMPDEST DUP3 PUSH1 0x1F LT PUSH2 0x3A93 JUMPI DUP1 MLOAD PUSH1 0xFF NOT AND DUP4 DUP1 ADD OR DUP6 SSTORE PUSH2 0x3AC0 JUMP JUMPDEST DUP3 DUP1 ADD PUSH1 0x1 ADD DUP6 SSTORE DUP3 ISZERO PUSH2 0x3AC0 JUMPI SWAP2 DUP3 ADD JUMPDEST DUP3 DUP2 GT ISZERO PUSH2 0x3AC0 JUMPI DUP3 MLOAD DUP3 SSTORE SWAP2 PUSH1 0x20 ADD SWAP2 SWAP1 PUSH1 0x1 ADD SWAP1 PUSH2 0x3AA5 JUMP JUMPDEST POP PUSH2 0x3ACC SWAP3 SWAP2 POP PUSH2 0x3AD0 JUMP JUMPDEST POP SWAP1 JUMP JUMPDEST JUMPDEST DUP1 DUP3 GT ISZERO PUSH2 0x3ACC JUMPI PUSH1 0x0 DUP2 SSTORE PUSH1 0x1 ADD PUSH2 0x3AD1 JUMP JUMPDEST PUSH1 0x0 PUSH8 0xFFFFFFFFFFFFFFFF DUP1 DUP5 GT ISZERO PUSH2 0x3B00 JUMPI PUSH2 0x3B00 PUSH2 0x43D6 JUMP JUMPDEST PUSH1 0x40 MLOAD PUSH1 0x1F DUP6 ADD PUSH1 0x1F NOT SWAP1 DUP2 AND PUSH1 0x3F ADD AND DUP2 ADD SWAP1 DUP3 DUP3 GT DUP2 DUP4 LT OR ISZERO PUSH2 0x3B28 JUMPI PUSH2 0x3B28 PUSH2 0x43D6 JUMP JUMPDEST DUP2 PUSH1 0x40 MSTORE DUP1 SWAP4 POP DUP6 DUP2 MSTORE DUP7 DUP7 DUP7 ADD GT ISZERO PUSH2 0x3B41 JUMPI PUSH1 0x0 DUP1 REVERT JUMPDEST DUP6 DUP6 PUSH1 0x20 DUP4 ADD CALLDATACOPY PUSH1 0x0 PUSH1 0x20 DUP8 DUP4 ADD ADD MSTORE POP POP POP SWAP4 SWAP3 POP POP POP JUMP JUMPDEST DUP1 CALLDATALOAD PUSH1 0x1 PUSH1 0x1 PUSH1 0xA0 SHL SUB DUP2 AND DUP2 EQ PUSH2 0x3B72 JUMPI PUSH1 0x0 DUP1 REVERT JUMPDEST SWAP2 SWAP1 POP JUMP JUMPDEST PUSH1 0x0 DUP3 PUSH1 0x1F DUP4 ADD SLT PUSH2 0x3B87 JUMPI DUP1 DUP2 REVERT JUMPDEST PUSH2 0x359F DUP4 DUP4 CALLDATALOAD PUSH1 0x20 DUP6 ADD PUSH2 0x3AE5 JUMP JUMPDEST PUSH1 0x0 PUSH1 0x20 DUP3 DUP5 SUB SLT ISZERO PUSH2 0x3BA7 JUMPI DUP1 DUP2 REVERT JUMPDEST PUSH2 0x359F DUP3 PUSH2 0x3B5B JUMP JUMPDEST PUSH1 0x0 DUP1 PUSH1 0x40 DUP4 DUP6 SUB SLT ISZERO PUSH2 0x3BC2 JUMPI DUP1 DUP2 REVERT JUMPDEST PUSH2 0x3BCB DUP4 PUSH2 0x3B5B JUMP JUMPDEST SWAP2 POP PUSH2 0x3BD9 PUSH1 0x20 DUP5 ADD PUSH2 0x3B5B JUMP JUMPDEST SWAP1 POP SWAP3 POP SWAP3 SWAP1 POP JUMP JUMPDEST PUSH1 0x0 DUP1 PUSH1 0x0 PUSH1 0x60 DUP5 DUP7 SUB SLT ISZERO PUSH2 0x3BF6 JUMPI DUP1 DUP2 REVERT JUMPDEST PUSH2 0x3BFF DUP5 PUSH2 0x3B5B JUMP JUMPDEST SWAP3 POP PUSH2 0x3C0D PUSH1 0x20 DUP6 ADD PUSH2 0x3B5B JUMP JUMPDEST SWAP2 POP PUSH1 0x40 DUP5 ADD CALLDATALOAD SWAP1 POP SWAP3 POP SWAP3 POP SWAP3 JUMP JUMPDEST PUSH1 0x0 DUP1 PUSH1 0x0 DUP1 PUSH1 0x80 DUP6 DUP8 SUB SLT ISZERO PUSH2 0x3C32 JUMPI DUP1 DUP2 REVERT JUMPDEST PUSH2 0x3C3B DUP6 PUSH2 0x3B5B JUMP JUMPDEST SWAP4 POP PUSH2 0x3C49 PUSH1 0x20 DUP7 ADD PUSH2 0x3B5B JUMP JUMPDEST SWAP3 POP PUSH1 0x40 DUP6 ADD CALLDATALOAD SWAP2 POP PUSH1 0x60 DUP6 ADD CALLDATALOAD PUSH8 0xFFFFFFFFFFFFFFFF DUP2 GT ISZERO PUSH2 0x3C6B JUMPI DUP2 DUP3 REVERT JUMPDEST DUP6 ADD PUSH1 0x1F DUP2 ADD DUP8 SGT PUSH2 0x3C7B JUMPI DUP2 DUP3 REVERT JUMPDEST PUSH2 0x3C8A DUP8 DUP3 CALLDATALOAD PUSH1 0x20 DUP5 ADD PUSH2 0x3AE5 JUMP JUMPDEST SWAP2 POP POP SWAP3 SWAP6 SWAP2 SWAP5 POP SWAP3 POP JUMP JUMPDEST PUSH1 0x0 DUP1 PUSH1 0x40 DUP4 DUP6 SUB SLT ISZERO PUSH2 0x3CA8 JUMPI DUP2 DUP3 REVERT JUMPDEST PUSH2 0x3CB1 DUP4 PUSH2 0x3B5B JUMP JUMPDEST SWAP2 POP PUSH1 0x20 DUP4 ADD CALLDATALOAD DUP1 ISZERO ISZERO DUP2 EQ PUSH2 0x3CC5 JUMPI DUP2 DUP3 REVERT JUMPDEST DUP1 SWAP2 POP POP SWAP3 POP SWAP3 SWAP1 POP JUMP JUMPDEST PUSH1 0x0 DUP1 PUSH1 0x40 DUP4 DUP6 SUB SLT ISZERO PUSH2 0x3CE2 JUMPI DUP2 DUP3 REVERT JUMPDEST PUSH2 0x3CEB DUP4 PUSH2 0x3B5B JUMP JUMPDEST SWAP5 PUSH1 0x20 SWAP4 SWAP1 SWAP4 ADD CALLDATALOAD SWAP4 POP POP POP JUMP JUMPDEST PUSH1 0x0 PUSH1 0x20 DUP3 DUP5 SUB SLT ISZERO PUSH2 0x3D0A JUMPI DUP1 DUP2 REVERT JUMPDEST DUP2 CALLDATALOAD PUSH2 0x359F DUP2 PUSH2 0x43EC JUMP JUMPDEST PUSH1 0x0 PUSH1 0x20 DUP3 DUP5 SUB SLT ISZERO PUSH2 0x3D26 JUMPI DUP1 DUP2 REVERT JUMPDEST DUP2 MLOAD PUSH2 0x359F DUP2 PUSH2 0x43EC JUMP JUMPDEST PUSH1 0x0 DUP1 PUSH1 0x0 PUSH1 0x60 DUP5 DUP7 SUB SLT ISZERO PUSH2 0x3D45 JUMPI DUP3 DUP4 REVERT JUMPDEST DUP4 CALLDATALOAD PUSH8 0xFFFFFFFFFFFFFFFF DUP1 DUP3 GT ISZERO PUSH2 0x3D5C JUMPI DUP5 DUP6 REVERT JUMPDEST PUSH2 0x3D68 DUP8 DUP4 DUP9 ADD PUSH2 0x3B77 JUMP JUMPDEST SWAP5 POP PUSH1 0x20 DUP7 ADD CALLDATALOAD SWAP2 POP DUP1 DUP3 GT ISZERO PUSH2 0x3D7D JUMPI DUP4 DUP5 REVERT JUMPDEST POP PUSH2 0x3D8A DUP7 DUP3 DUP8 ADD PUSH2 0x3B77 JUMP JUMPDEST SWAP3 POP POP PUSH1 0x40 DUP5 ADD CALLDATALOAD SWAP1 POP SWAP3 POP SWAP3 POP SWAP3 JUMP JUMPDEST PUSH1 0x0 PUSH1 0x20 DUP3 DUP5 SUB SLT ISZERO PUSH2 0x3DAC JUMPI DUP1 DUP2 REVERT JUMPDEST POP CALLDATALOAD SWAP2 SWAP1 POP JUMP JUMPDEST PUSH1 0x0 DUP1 PUSH1 0x40 DUP4 DUP6 SUB SLT ISZERO PUSH2 0x3DC5 JUMPI DUP2 DUP3 REVERT JUMPDEST POP POP DUP1 CALLDATALOAD SWAP3 PUSH1 0x20 SWAP1 SWAP2 ADD CALLDATALOAD SWAP2 POP JUMP JUMPDEST PUSH1 0x0 DUP1 PUSH1 0x0 DUP1 PUSH1 0x80 DUP6 DUP8 SUB SLT ISZERO PUSH2 0x3DE9 JUMPI DUP4 DUP5 REVERT JUMPDEST DUP5 CALLDATALOAD SWAP4 POP PUSH1 0x20 DUP6 ADD CALLDATALOAD SWAP3 POP PUSH1 0x40 DUP6 ADD CALLDATALOAD SWAP2 POP PUSH1 0x60 DUP6 ADD CALLDATALOAD PUSH8 0xFFFFFFFFFFFFFFFF DUP2 GT ISZERO PUSH2 0x3E14 JUMPI DUP2 DUP3 REVERT JUMPDEST PUSH2 0x3C8A DUP8 DUP3 DUP9 ADD PUSH2 0x3B77 JUMP JUMPDEST PUSH1 0x0 DUP2 MLOAD DUP1 DUP5 MSTORE PUSH2 0x3E38 DUP2 PUSH1 0x20 DUP7 ADD PUSH1 0x20 DUP7 ADD PUSH2 0x433E JUMP JUMPDEST PUSH1 0x1F ADD PUSH1 0x1F NOT AND SWAP3 SWAP1 SWAP3 ADD PUSH1 0x20 ADD SWAP3 SWAP2 POP POP JUMP JUMPDEST PUSH1 0x0 DUP3 MLOAD PUSH2 0x3E5E DUP2 DUP5 PUSH1 0x20 DUP8 ADD PUSH2 0x433E JUMP JUMPDEST SWAP2 SWAP1 SWAP2 ADD SWAP3 SWAP2 POP POP JUMP JUMPDEST PUSH1 0x0 DUP4 MLOAD PUSH2 0x3E7A DUP2 DUP5 PUSH1 0x20 DUP9 ADD PUSH2 0x433E JUMP JUMPDEST DUP4 MLOAD SWAP1 DUP4 ADD SWAP1 PUSH2 0x3E8E DUP2 DUP4 PUSH1 0x20 DUP9 ADD PUSH2 0x433E JUMP JUMPDEST ADD SWAP5 SWAP4 POP POP POP POP JUMP JUMPDEST PUSH1 0x1 PUSH1 0x1 PUSH1 0xA0 SHL SUB DUP6 DUP2 AND DUP3 MSTORE DUP5 AND PUSH1 0x20 DUP3 ADD MSTORE PUSH1 0x40 DUP2 ADD DUP4 SWAP1 MSTORE PUSH1 0x80 PUSH1 0x60 DUP3 ADD DUP2 SWAP1 MSTORE PUSH1 0x0 SWAP1 PUSH2 0x3ECA SWAP1 DUP4 ADD DUP5 PUSH2 0x3E20 JUMP JUMPDEST SWAP7 SWAP6 POP POP POP POP POP POP JUMP JUMPDEST PUSH1 0x20 DUP1 DUP3 MSTORE DUP3 MLOAD DUP3 DUP3 ADD DUP2 SWAP1 MSTORE PUSH1 0x0 SWAP2 SWAP1 PUSH1 0x40 SWAP1 DUP2 DUP6 ADD SWAP1 DUP7 DUP5 ADD DUP6 JUMPDEST DUP3 DUP2 LT ISZERO PUSH2 0x3F34 JUMPI DUP2 MLOAD DUP1 MLOAD DUP6 MSTORE DUP7 DUP2 ADD MLOAD DUP8 DUP7 ADD MSTORE DUP6 DUP2 ADD MLOAD PUSH1 0x1 PUSH1 0x1 PUSH1 0xA0 SHL SUB AND DUP7 DUP7 ADD MSTORE PUSH1 0x60 SWAP1 DUP2 ADD MLOAD SWAP1 DUP6 ADD MSTORE PUSH1 0x80 SWAP1 SWAP4 ADD SWAP3 SWAP1 DUP6 ADD SWAP1 PUSH1 0x1 ADD PUSH2 0x3EF1 JUMP JUMPDEST POP SWAP2 SWAP8 SWAP7 POP POP POP POP POP POP POP JUMP JUMPDEST PUSH1 0x20 DUP1 DUP3 MSTORE DUP3 MLOAD DUP3 DUP3 ADD DUP2 SWAP1 MSTORE PUSH1 0x0 SWAP2 SWAP1 PUSH1 0x40 SWAP1 DUP2 DUP6 ADD SWAP1 DUP7 DUP5 ADD DUP6 JUMPDEST DUP3 DUP2 LT ISZERO PUSH2 0x3F34 JUMPI DUP2 MLOAD DUP1 MLOAD DUP6 MSTORE DUP7 DUP2 ADD MLOAD DUP8 DUP7 ADD MSTORE DUP6 DUP2 ADD MLOAD PUSH1 0x1 PUSH1 0x1 PUSH1 0xA0 SHL SUB SWAP1 DUP2 AND DUP8 DUP8 ADD MSTORE PUSH1 0x60 DUP1 DUP4 ADD MLOAD SWAP1 SWAP2 AND SWAP1 DUP7 ADD MSTORE PUSH1 0x80 SWAP1 DUP2 ADD MLOAD ISZERO ISZERO SWAP1 DUP6 ADD MSTORE PUSH1 0xA0 SWAP1 SWAP4 ADD SWAP3 SWAP1 DUP6 ADD SWAP1 PUSH1 0x1 ADD PUSH2 0x3F5E JUMP JUMPDEST PUSH1 0x0 PUSH1 0x20 DUP1 DUP4 ADD DUP2 DUP5 MSTORE DUP1 DUP6 MLOAD DUP1 DUP4 MSTORE PUSH1 0x40 SWAP3 POP DUP3 DUP7 ADD SWAP2 POP DUP3 DUP2 PUSH1 0x5 SHL DUP8 ADD ADD DUP5 DUP9 ADD DUP7 JUMPDEST DUP4 DUP2 LT ISZERO PUSH2 0x4093 JUMPI PUSH1 0x3F NOT DUP10 DUP5 SUB ADD DUP6 MSTORE DUP2 MLOAD PUSH2 0x160 DUP2 MLOAD DUP6 MSTORE DUP9 DUP3 ADD MLOAD DUP10 DUP7 ADD MSTORE DUP8 DUP3 ADD MLOAD DUP9 DUP7 ADD MSTORE PUSH1 0x60 DUP1 DUP4 ADD MLOAD DUP3 DUP3 DUP9 ADD MSTORE PUSH2 0x4019 DUP4 DUP9 ADD DUP3 PUSH2 0x3E20 JUMP JUMPDEST SWAP3 POP POP POP PUSH1 0x80 DUP1 DUP4 ADD MLOAD PUSH2 0x4037 DUP3 DUP9 ADD DUP3 PUSH1 0x1 PUSH1 0x1 PUSH1 0xA0 SHL SUB AND SWAP1 MSTORE JUMP JUMPDEST POP POP PUSH1 0xA0 DUP3 DUP2 ADD MLOAD SWAP1 DUP7 ADD MSTORE PUSH1 0xC0 DUP1 DUP4 ADD MLOAD ISZERO ISZERO SWAP1 DUP7 ADD MSTORE PUSH1 0xE0 DUP1 DUP4 ADD MLOAD ISZERO ISZERO SWAP1 DUP7 ADD MSTORE PUSH2 0x100 DUP1 DUP4 ADD MLOAD ISZERO ISZERO SWAP1 DUP7 ADD MSTORE PUSH2 0x120 DUP1 DUP4 ADD MLOAD ISZERO ISZERO SWAP1 DUP7 ADD MSTORE PUSH2 0x140 SWAP2 DUP3 ADD MLOAD ISZERO ISZERO SWAP2 SWAP1 SWAP5 ADD MSTORE SWAP4 DUP7 ADD SWAP4 SWAP1 DUP7 ADD SWAP1 PUSH1 0x1 ADD PUSH2 0x3FD8 JUMP JUMPDEST POP SWAP1 SWAP9 SWAP8 POP POP POP POP POP POP POP POP JUMP JUMPDEST PUSH1 0x0 PUSH1 0x20 DUP1 DUP4 ADD DUP2 DUP5 MSTORE DUP1 DUP6 MLOAD DUP1 DUP4 MSTORE PUSH1 0x40 SWAP3 POP DUP3 DUP7 ADD SWAP2 POP DUP3 DUP2 PUSH1 0x5 SHL DUP8 ADD ADD DUP5 DUP9 ADD DUP7 JUMPDEST DUP4 DUP2 LT ISZERO PUSH2 0x4093 JUMPI PUSH1 0x3F NOT DUP10 DUP5 SUB ADD DUP6 MSTORE DUP2 MLOAD DUP1 MLOAD DUP5 MSTORE DUP8 DUP2 ADD MLOAD PUSH1 0x1 PUSH1 0x1 PUSH1 0xA0 SHL SUB AND DUP9 DUP6 ADD MSTORE DUP7 DUP2 ADD MLOAD DUP8 DUP6 ADD MSTORE PUSH1 0x60 DUP1 DUP3 ADD MLOAD SWAP1 DUP6 ADD MSTORE PUSH1 0x80 DUP1 DUP3 ADD MLOAD SWAP1 DUP6 ADD MSTORE PUSH1 0xA0 DUP1 DUP3 ADD MLOAD SWAP1 DUP6 ADD MSTORE PUSH1 0xC0 DUP1 DUP3 ADD MLOAD SWAP1 DUP6 ADD MSTORE PUSH1 0xE0 DUP1 DUP3 ADD MLOAD PUSH2 0x120 DUP3 DUP8 ADD DUP2 SWAP1 MSTORE SWAP2 SWAP1 PUSH2 0x413C DUP4 DUP9 ADD DUP3 PUSH2 0x3E20 JUMP JUMPDEST PUSH2 0x100 SWAP5 DUP6 ADD MLOAD SWAP8 SWAP1 SWAP5 ADD SWAP7 SWAP1 SWAP7 MSTORE POP POP SWAP5 DUP8 ADD SWAP5 SWAP3 POP SWAP1 DUP7 ADD SWAP1 PUSH1 0x1 ADD PUSH2 0x40C7 JUMP JUMPDEST PUSH1 0x20 DUP2 MSTORE PUSH1 0x0 PUSH2 0x359F PUSH1 0x20 DUP4 ADD DUP5 PUSH2 0x3E20 JUMP JUMPDEST PUSH1 0x20 DUP1 DUP3 MSTORE PUSH1 0x2D SWAP1 DUP3 ADD MSTORE PUSH32 0x4552433732313A2063616C6C6572206973206E6F7420746F6B656E206F776E65 PUSH1 0x40 DUP3 ADD MSTORE PUSH13 0x1C881BDC88185C1C1C9BDD9959 PUSH1 0x9A SHL PUSH1 0x60 DUP3 ADD MSTORE PUSH1 0x80 ADD SWAP1 JUMP JUMPDEST PUSH1 0x20 DUP1 DUP3 MSTORE PUSH1 0x32 SWAP1 DUP3 ADD MSTORE PUSH32 0x4552433732313A207472616E7366657220746F206E6F6E204552433732315265 PUSH1 0x40 DUP3 ADD MSTORE PUSH18 0x31B2B4BB32B91034B6B83632B6B2B73A32B9 PUSH1 0x71 SHL PUSH1 0x60 DUP3 ADD MSTORE PUSH1 0x80 ADD SWAP1 JUMP JUMPDEST PUSH1 0x20 DUP1 DUP3 MSTORE PUSH1 0x25 SWAP1 DUP3 ADD MSTORE PUSH32 0x4552433732313A207472616E736665722066726F6D20696E636F727265637420 PUSH1 0x40 DUP3 ADD MSTORE PUSH5 0x37BBB732B9 PUSH1 0xD9 SHL PUSH1 0x60 DUP3 ADD MSTORE PUSH1 0x80 ADD SWAP1 JUMP JUMPDEST PUSH1 0x0 PUSH2 0x120 DUP12 DUP4 MSTORE PUSH1 0x1 DUP1 PUSH1 0xA0 SHL SUB DUP12 AND PUSH1 0x20 DUP5 ADD MSTORE DUP10 PUSH1 0x40 DUP5 ADD MSTORE DUP9 PUSH1 0x60 DUP5 ADD MSTORE DUP8 PUSH1 0x80 DUP5 ADD MSTORE DUP7 PUSH1 0xA0 DUP5 ADD MSTORE DUP6 PUSH1 0xC0 DUP5 ADD MSTORE DUP1 PUSH1 0xE0 DUP5 ADD MSTORE PUSH2 0x429C DUP2 DUP5 ADD DUP7 PUSH2 0x3E20 JUMP JUMPDEST SWAP2 POP POP DUP3 PUSH2 0x100 DUP4 ADD MSTORE SWAP11 SWAP10 POP POP POP POP POP POP POP POP POP POP JUMP JUMPDEST PUSH1 0x0 PUSH2 0x160 DUP14 DUP4 MSTORE DUP13 PUSH1 0x20 DUP5 ADD MSTORE DUP12 PUSH1 0x40 DUP5 ADD MSTORE DUP1 PUSH1 0x60 DUP5 ADD MSTORE PUSH2 0x42DA DUP2 DUP5 ADD DUP13 PUSH2 0x3E20 JUMP JUMPDEST PUSH1 0x1 PUSH1 0x1 PUSH1 0xA0 SHL SUB SWAP11 SWAP1 SWAP11 AND PUSH1 0x80 DUP5 ADD MSTORE POP POP PUSH1 0xA0 DUP2 ADD SWAP7 SWAP1 SWAP7 MSTORE SWAP4 ISZERO ISZERO PUSH1 0xC0 DUP7 ADD MSTORE SWAP2 ISZERO ISZERO PUSH1 0xE0 DUP6 ADD MSTORE ISZERO ISZERO PUSH2 0x100 DUP5 ADD MSTORE ISZERO ISZERO PUSH2 0x120 DUP4 ADD MSTORE ISZERO ISZERO PUSH2 0x140 SWAP1 SWAP2 ADD MSTORE SWAP5 SWAP4 POP POP POP POP JUMP JUMPDEST PUSH1 0x0 DUP3 NOT DUP3 GT ISZERO PUSH2 0x4339 JUMPI PUSH2 0x4339 PUSH2 0x43C0 JUMP JUMPDEST POP ADD SWAP1 JUMP JUMPDEST PUSH1 0x0 JUMPDEST DUP4 DUP2 LT ISZERO PUSH2 0x4359 JUMPI DUP2 DUP2 ADD MLOAD DUP4 DUP3 ADD MSTORE PUSH1 0x20 ADD PUSH2 0x4341 JUMP JUMPDEST DUP4 DUP2 GT ISZERO PUSH2 0x2BAE JUMPI POP POP PUSH1 0x0 SWAP2 ADD MSTORE JUMP JUMPDEST PUSH1 0x1 DUP2 DUP2 SHR SWAP1 DUP3 AND DUP1 PUSH2 0x437E JUMPI PUSH1 0x7F DUP3 AND SWAP2 POP JUMPDEST PUSH1 0x20 DUP3 LT DUP2 EQ ISZERO PUSH2 0x439F JUMPI PUSH4 0x4E487B71 PUSH1 0xE0 SHL PUSH1 0x0 MSTORE PUSH1 0x22 PUSH1 0x4 MSTORE PUSH1 0x24 PUSH1 0x0 REVERT JUMPDEST POP SWAP2 SWAP1 POP JUMP JUMPDEST PUSH1 0x0 PUSH1 0x0 NOT DUP3 EQ ISZERO PUSH2 0x43B9 JUMPI PUSH2 0x43B9 PUSH2 0x43C0 JUMP JUMPDEST POP PUSH1 0x1 ADD SWAP1 JUMP JUMPDEST PUSH4 0x4E487B71 PUSH1 0xE0 SHL PUSH1 0x0 MSTORE PUSH1 0x11 PUSH1 0x4 MSTORE PUSH1 0x24 PUSH1 0x0 REVERT JUMPDEST PUSH4 0x4E487B71 PUSH1 0xE0 SHL PUSH1 0x0 MSTORE PUSH1 0x41 PUSH1 0x4 MSTORE PUSH1 0x24 PUSH1 0x0 REVERT JUMPDEST PUSH1 0x1 PUSH1 0x1 PUSH1 0xE0 SHL SUB NOT DUP2 AND DUP2 EQ PUSH2 0x1083 JUMPI PUSH1 0x0 DUP1 REVERT INVALID LOG2 PUSH5 0x6970667358 0x22 SLT KECCAK256 CALLCODE 0xCD PUSH25 0x14AC1EF01914A9FFCD6E55BD02E9C90EED159187BAC0B04973 0x5D ISZERO MSTORE8 AND PUSH5 0x736F6C6343 STOP ADDMOD DIV STOP CALLER "},"methodIdentifiers":{"BuyCount()":"fad266fe","CreateToken(string,string,uint256)":"356e9392","Creators(uint256)":"8055ccaa","CreatorsCount()":"a71ffa76","ListNFT(uint256,uint256)":"adc2524c","ReportNFT(uint256)":"e5afe4d1","STATUS_DONE()":"740db280","STATUS_OPEN()":"24f8515b","SoldCount()":"edf2ebcc","TokenCount()":"36ad658f","approve(address,uint256)":"095ea7b3","balanceOf(address)":"70a08231","bid(uint256)":"454a2ab3","biddingCounter()":"a4fdb635","completeAuction(uint256)":"21b62886","createAuctionListing(uint256,uint256,uint256,string)":"92a374b7","executeSale(uint256)":"9b1225c4","getAllBiddedNfts()":"4945dcdd","getAllBiddingWithListingID()":"b820a6d1","getAllImageNfts()":"287906b5","getAllNfts()":"732e8d73","getApproved(uint256)":"081812fc","getHighestBidder(uint256)":"c750cb79","getHighestBiddingAmount(uint256)":"7aea3738","getMyNFTs()":"629cb2e4","getMySoldNFTs()":"b27dce81","getTotalBiddedTokens()":"9d6e5fb3","getTotalMintedTokens()":"f67a769c","getTotalSoldTokens()":"59be5e45","getTotalUser()":"a9c63aa0","highestBidder(uint256)":"451df52e","highestBiddingAmount(uint256)":"e877d3f8","idToBiddedToken(uint256)":"6b8c91cb","idToImageHash(uint256)":"0ad52cc6","idToListedToken(uint256)":"e57a497a","idToSoldItems(uint256)":"33024100","isApprovedForAll(address,address)":"e985e9c5","isAuctionExpired(uint256)":"1389b117","isAuctionOpen(uint256)":"0ad48628","listingCounter()":"6c2c9c7d","listings(uint256)":"de74e57b","minAuctionIncrement()":"708d4d35","name()":"06fdde03","newUser(address)":"0cb5f653","ownerOf(uint256)":"6352211e","safeTransferFrom(address,address,uint256)":"42842e0e","safeTransferFrom(address,address,uint256,bytes)":"b88d4fde","setApprovalForAll(address,bool)":"a22cb465","supportsInterface(bytes4)":"01ffc9a7","symbol()":"95d89b41","tokenURI(uint256)":"c87b56dd","transferFrom(address,address,uint256)":"23b872dd","withdrawBid(uint256)":"0eaaf4c8"}}}}}