{
  "_format": "hh-sol-artifact-1",
  "contractName": "PolygonNFTMarketplace",
  "sourceName": "contracts/PolygonNFTMarketplace.sol",
  "abi": [
    {
      "inputs": [],
      "stateMutability": "nonpayable",
      "type": "constructor"
    },
    {
      "anonymous": false,
      "inputs": [
        {
          "indexed": true,
          "internalType": "address",
          "name": "owner",
          "type": "address"
        },
        {
          "indexed": true,
          "internalType": "address",
          "name": "approved",
          "type": "address"
        },
        {
          "indexed": true,
          "internalType": "uint256",
          "name": "tokenId",
          "type": "uint256"
        }
      ],
      "name": "Approval",
      "type": "event"
    },
    {
      "anonymous": false,
      "inputs": [
        {
          "indexed": true,
          "internalType": "address",
          "name": "owner",
          "type": "address"
        },
        {
          "indexed": true,
          "internalType": "address",
          "name": "operator",
          "type": "address"
        },
        {
          "indexed": false,
          "internalType": "bool",
          "name": "approved",
          "type": "bool"
        }
      ],
      "name": "ApprovalForAll",
      "type": "event"
    },
    {
      "anonymous": false,
      "inputs": [
        {
          "indexed": false,
          "internalType": "uint256",
          "name": "_fromTokenId",
          "type": "uint256"
        },
        {
          "indexed": false,
          "internalType": "uint256",
          "name": "_toTokenId",
          "type": "uint256"
        }
      ],
      "name": "BatchMetadataUpdate",
      "type": "event"
    },
    {
      "anonymous": false,
      "inputs": [
        {
          "indexed": false,
          "internalType": "uint256",
          "name": "_tokenId",
          "type": "uint256"
        }
      ],
      "name": "MetadataUpdate",
      "type": "event"
    },
    {
      "anonymous": false,
      "inputs": [
        {
          "indexed": true,
          "internalType": "address",
          "name": "from",
          "type": "address"
        },
        {
          "indexed": true,
          "internalType": "address",
          "name": "to",
          "type": "address"
        },
        {
          "indexed": true,
          "internalType": "uint256",
          "name": "tokenId",
          "type": "uint256"
        }
      ],
      "name": "Transfer",
      "type": "event"
    },
    {
      "inputs": [],
      "name": "BuyCount",
      "outputs": [
        {
          "internalType": "uint256",
          "name": "_value",
          "type": "uint256"
        }
      ],
      "stateMutability": "view",
      "type": "function"
    },
    {
      "inputs": [
        {
          "internalType": "string",
          "name": "tokenURI",
          "type": "string"
        }
      ],
      "name": "CreateToken",
      "outputs": [
        {
          "internalType": "uint256",
          "name": "",
          "type": "uint256"
        }
      ],
      "stateMutability": "payable",
      "type": "function"
    },
    {
      "inputs": [
        {
          "internalType": "uint256",
          "name": "price",
          "type": "uint256"
        },
        {
          "internalType": "uint256",
          "name": "id",
          "type": "uint256"
        }
      ],
      "name": "ListNFT",
      "outputs": [],
      "stateMutability": "nonpayable",
      "type": "function"
    },
    {
      "inputs": [],
      "name": "STATUS_DONE",
      "outputs": [
        {
          "internalType": "uint8",
          "name": "",
          "type": "uint8"
        }
      ],
      "stateMutability": "view",
      "type": "function"
    },
    {
      "inputs": [],
      "name": "STATUS_OPEN",
      "outputs": [
        {
          "internalType": "uint8",
          "name": "",
          "type": "uint8"
        }
      ],
      "stateMutability": "view",
      "type": "function"
    },
    {
      "inputs": [],
      "name": "SoldCount",
      "outputs": [
        {
          "internalType": "uint256",
          "name": "_value",
          "type": "uint256"
        }
      ],
      "stateMutability": "view",
      "type": "function"
    },
    {
      "inputs": [],
      "name": "TokenCount",
      "outputs": [
        {
          "internalType": "uint256",
          "name": "_value",
          "type": "uint256"
        }
      ],
      "stateMutability": "view",
      "type": "function"
    },
    {
      "inputs": [
        {
          "internalType": "address",
          "name": "to",
          "type": "address"
        },
        {
          "internalType": "uint256",
          "name": "tokenId",
          "type": "uint256"
        }
      ],
      "name": "approve",
      "outputs": [],
      "stateMutability": "nonpayable",
      "type": "function"
    },
    {
      "inputs": [
        {
          "internalType": "address",
          "name": "owner",
          "type": "address"
        }
      ],
      "name": "balanceOf",
      "outputs": [
        {
          "internalType": "uint256",
          "name": "",
          "type": "uint256"
        }
      ],
      "stateMutability": "view",
      "type": "function"
    },
    {
      "inputs": [
        {
          "internalType": "uint256",
          "name": "listingId",
          "type": "uint256"
        }
      ],
      "name": "bid",
      "outputs": [],
      "stateMutability": "payable",
      "type": "function"
    },
    {
      "inputs": [],
      "name": "biddingCounter",
      "outputs": [
        {
          "internalType": "uint256",
          "name": "_value",
          "type": "uint256"
        }
      ],
      "stateMutability": "view",
      "type": "function"
    },
    {
      "inputs": [
        {
          "internalType": "uint256",
          "name": "",
          "type": "uint256"
        },
        {
          "internalType": "address",
          "name": "",
          "type": "address"
        }
      ],
      "name": "bids",
      "outputs": [
        {
          "internalType": "uint256",
          "name": "",
          "type": "uint256"
        }
      ],
      "stateMutability": "view",
      "type": "function"
    },
    {
      "inputs": [
        {
          "internalType": "uint256",
          "name": "listingId",
          "type": "uint256"
        }
      ],
      "name": "completeAuction",
      "outputs": [],
      "stateMutability": "payable",
      "type": "function"
    },
    {
      "inputs": [
        {
          "internalType": "uint256",
          "name": "price",
          "type": "uint256"
        },
        {
          "internalType": "uint256",
          "name": "tokenId",
          "type": "uint256"
        },
        {
          "internalType": "uint256",
          "name": "deadline",
          "type": "uint256"
        }
      ],
      "name": "createAuctionListing",
      "outputs": [
        {
          "internalType": "uint256",
          "name": "",
          "type": "uint256"
        }
      ],
      "stateMutability": "nonpayable",
      "type": "function"
    },
    {
      "inputs": [
        {
          "internalType": "uint256",
          "name": "tokenId",
          "type": "uint256"
        }
      ],
      "name": "executeSale",
      "outputs": [],
      "stateMutability": "payable",
      "type": "function"
    },
    {
      "inputs": [],
      "name": "getAllBiddedNfts",
      "outputs": [
        {
          "components": [
            {
              "internalType": "uint256",
              "name": "biddingId",
              "type": "uint256"
            },
            {
              "internalType": "address payable",
              "name": "seller",
              "type": "address"
            },
            {
              "internalType": "uint256",
              "name": "tokenId",
              "type": "uint256"
            },
            {
              "internalType": "uint256",
              "name": "price",
              "type": "uint256"
            },
            {
              "internalType": "uint256",
              "name": "netPrice",
              "type": "uint256"
            },
            {
              "internalType": "uint256",
              "name": "startAt",
              "type": "uint256"
            },
            {
              "internalType": "uint256",
              "name": "deadline",
              "type": "uint256"
            },
            {
              "internalType": "uint8",
              "name": "status",
              "type": "uint8"
            }
          ],
          "internalType": "struct PolygonNFTMarketplace.Listing[]",
          "name": "",
          "type": "tuple[]"
        }
      ],
      "stateMutability": "view",
      "type": "function"
    },
    {
      "inputs": [],
      "name": "getAllBiddingWithListingID",
      "outputs": [
        {
          "components": [
            {
              "internalType": "uint256",
              "name": "tokenId",
              "type": "uint256"
            },
            {
              "internalType": "uint256",
              "name": "biddingId",
              "type": "uint256"
            },
            {
              "internalType": "address",
              "name": "bidder",
              "type": "address"
            },
            {
              "internalType": "uint256",
              "name": "price",
              "type": "uint256"
            }
          ],
          "internalType": "struct PolygonNFTMarketplace.Bidding[]",
          "name": "",
          "type": "tuple[]"
        }
      ],
      "stateMutability": "view",
      "type": "function"
    },
    {
      "inputs": [],
      "name": "getAllNfts",
      "outputs": [
        {
          "components": [
            {
              "internalType": "uint256",
              "name": "tokenId",
              "type": "uint256"
            },
            {
              "internalType": "uint256",
              "name": "price",
              "type": "uint256"
            },
            {
              "internalType": "address payable",
              "name": "owner",
              "type": "address"
            },
            {
              "internalType": "bool",
              "name": "NFTsold",
              "type": "bool"
            },
            {
              "internalType": "bool",
              "name": "NFTbought",
              "type": "bool"
            }
          ],
          "internalType": "struct PolygonNFTMarketplace.ListedToken[]",
          "name": "",
          "type": "tuple[]"
        }
      ],
      "stateMutability": "view",
      "type": "function"
    },
    {
      "inputs": [
        {
          "internalType": "uint256",
          "name": "tokenId",
          "type": "uint256"
        }
      ],
      "name": "getApproved",
      "outputs": [
        {
          "internalType": "address",
          "name": "",
          "type": "address"
        }
      ],
      "stateMutability": "view",
      "type": "function"
    },
    {
      "inputs": [],
      "name": "getMyNFTs",
      "outputs": [
        {
          "components": [
            {
              "internalType": "uint256",
              "name": "tokenId",
              "type": "uint256"
            },
            {
              "internalType": "uint256",
              "name": "price",
              "type": "uint256"
            },
            {
              "internalType": "address payable",
              "name": "owner",
              "type": "address"
            },
            {
              "internalType": "bool",
              "name": "NFTsold",
              "type": "bool"
            },
            {
              "internalType": "bool",
              "name": "NFTbought",
              "type": "bool"
            }
          ],
          "internalType": "struct PolygonNFTMarketplace.ListedToken[]",
          "name": "",
          "type": "tuple[]"
        }
      ],
      "stateMutability": "view",
      "type": "function"
    },
    {
      "inputs": [],
      "name": "getMySoldNFTs",
      "outputs": [
        {
          "components": [
            {
              "internalType": "uint256",
              "name": "tokenId",
              "type": "uint256"
            },
            {
              "internalType": "uint256",
              "name": "price",
              "type": "uint256"
            },
            {
              "internalType": "address payable",
              "name": "owner",
              "type": "address"
            },
            {
              "internalType": "address",
              "name": "newOwner",
              "type": "address"
            },
            {
              "internalType": "bool",
              "name": "NFTsold",
              "type": "bool"
            }
          ],
          "internalType": "struct PolygonNFTMarketplace.ItemsSold[]",
          "name": "",
          "type": "tuple[]"
        }
      ],
      "stateMutability": "view",
      "type": "function"
    },
    {
      "inputs": [
        {
          "internalType": "uint256",
          "name": "",
          "type": "uint256"
        }
      ],
      "name": "highestBidder",
      "outputs": [
        {
          "internalType": "address",
          "name": "",
          "type": "address"
        }
      ],
      "stateMutability": "view",
      "type": "function"
    },
    {
      "inputs": [],
      "name": "highestBidding",
      "outputs": [
        {
          "internalType": "uint256",
          "name": "",
          "type": "uint256"
        }
      ],
      "stateMutability": "view",
      "type": "function"
    },
    {
      "inputs": [
        {
          "internalType": "uint256",
          "name": "",
          "type": "uint256"
        }
      ],
      "name": "highestBiddingAmount",
      "outputs": [
        {
          "internalType": "uint256",
          "name": "",
          "type": "uint256"
        }
      ],
      "stateMutability": "view",
      "type": "function"
    },
    {
      "inputs": [
        {
          "internalType": "uint256",
          "name": "",
          "type": "uint256"
        }
      ],
      "name": "idToBiddedToken",
      "outputs": [
        {
          "internalType": "uint256",
          "name": "tokenId",
          "type": "uint256"
        },
        {
          "internalType": "uint256",
          "name": "biddingId",
          "type": "uint256"
        },
        {
          "internalType": "address",
          "name": "bidder",
          "type": "address"
        },
        {
          "internalType": "uint256",
          "name": "price",
          "type": "uint256"
        }
      ],
      "stateMutability": "view",
      "type": "function"
    },
    {
      "inputs": [
        {
          "internalType": "uint256",
          "name": "",
          "type": "uint256"
        }
      ],
      "name": "idToListedToken",
      "outputs": [
        {
          "internalType": "uint256",
          "name": "tokenId",
          "type": "uint256"
        },
        {
          "internalType": "uint256",
          "name": "price",
          "type": "uint256"
        },
        {
          "internalType": "address payable",
          "name": "owner",
          "type": "address"
        },
        {
          "internalType": "bool",
          "name": "NFTsold",
          "type": "bool"
        },
        {
          "internalType": "bool",
          "name": "NFTbought",
          "type": "bool"
        }
      ],
      "stateMutability": "view",
      "type": "function"
    },
    {
      "inputs": [
        {
          "internalType": "uint256",
          "name": "",
          "type": "uint256"
        }
      ],
      "name": "idToSoldItems",
      "outputs": [
        {
          "internalType": "uint256",
          "name": "tokenId",
          "type": "uint256"
        },
        {
          "internalType": "uint256",
          "name": "price",
          "type": "uint256"
        },
        {
          "internalType": "address payable",
          "name": "owner",
          "type": "address"
        },
        {
          "internalType": "address",
          "name": "newOwner",
          "type": "address"
        },
        {
          "internalType": "bool",
          "name": "NFTsold",
          "type": "bool"
        }
      ],
      "stateMutability": "view",
      "type": "function"
    },
    {
      "inputs": [
        {
          "internalType": "address",
          "name": "owner",
          "type": "address"
        },
        {
          "internalType": "address",
          "name": "operator",
          "type": "address"
        }
      ],
      "name": "isApprovedForAll",
      "outputs": [
        {
          "internalType": "bool",
          "name": "",
          "type": "bool"
        }
      ],
      "stateMutability": "view",
      "type": "function"
    },
    {
      "inputs": [
        {
          "internalType": "uint256",
          "name": "id",
          "type": "uint256"
        }
      ],
      "name": "isAuctionExpired",
      "outputs": [
        {
          "internalType": "bool",
          "name": "",
          "type": "bool"
        }
      ],
      "stateMutability": "view",
      "type": "function"
    },
    {
      "inputs": [
        {
          "internalType": "uint256",
          "name": "id",
          "type": "uint256"
        }
      ],
      "name": "isAuctionOpen",
      "outputs": [
        {
          "internalType": "bool",
          "name": "",
          "type": "bool"
        }
      ],
      "stateMutability": "view",
      "type": "function"
    },
    {
      "inputs": [],
      "name": "listingCounter",
      "outputs": [
        {
          "internalType": "uint256",
          "name": "_value",
          "type": "uint256"
        }
      ],
      "stateMutability": "view",
      "type": "function"
    },
    {
      "inputs": [
        {
          "internalType": "uint256",
          "name": "",
          "type": "uint256"
        }
      ],
      "name": "listings",
      "outputs": [
        {
          "internalType": "uint256",
          "name": "biddingId",
          "type": "uint256"
        },
        {
          "internalType": "address payable",
          "name": "seller",
          "type": "address"
        },
        {
          "internalType": "uint256",
          "name": "tokenId",
          "type": "uint256"
        },
        {
          "internalType": "uint256",
          "name": "price",
          "type": "uint256"
        },
        {
          "internalType": "uint256",
          "name": "netPrice",
          "type": "uint256"
        },
        {
          "internalType": "uint256",
          "name": "startAt",
          "type": "uint256"
        },
        {
          "internalType": "uint256",
          "name": "deadline",
          "type": "uint256"
        },
        {
          "internalType": "uint8",
          "name": "status",
          "type": "uint8"
        }
      ],
      "stateMutability": "view",
      "type": "function"
    },
    {
      "inputs": [],
      "name": "minAuctionIncrement",
      "outputs": [
        {
          "internalType": "uint256",
          "name": "",
          "type": "uint256"
        }
      ],
      "stateMutability": "view",
      "type": "function"
    },
    {
      "inputs": [],
      "name": "name",
      "outputs": [
        {
          "internalType": "string",
          "name": "",
          "type": "string"
        }
      ],
      "stateMutability": "view",
      "type": "function"
    },
    {
      "inputs": [
        {
          "internalType": "uint256",
          "name": "tokenId",
          "type": "uint256"
        }
      ],
      "name": "ownerOf",
      "outputs": [
        {
          "internalType": "address",
          "name": "",
          "type": "address"
        }
      ],
      "stateMutability": "view",
      "type": "function"
    },
    {
      "inputs": [
        {
          "internalType": "address",
          "name": "from",
          "type": "address"
        },
        {
          "internalType": "address",
          "name": "to",
          "type": "address"
        },
        {
          "internalType": "uint256",
          "name": "tokenId",
          "type": "uint256"
        }
      ],
      "name": "safeTransferFrom",
      "outputs": [],
      "stateMutability": "nonpayable",
      "type": "function"
    },
    {
      "inputs": [
        {
          "internalType": "address",
          "name": "from",
          "type": "address"
        },
        {
          "internalType": "address",
          "name": "to",
          "type": "address"
        },
        {
          "internalType": "uint256",
          "name": "tokenId",
          "type": "uint256"
        },
        {
          "internalType": "bytes",
          "name": "data",
          "type": "bytes"
        }
      ],
      "name": "safeTransferFrom",
      "outputs": [],
      "stateMutability": "nonpayable",
      "type": "function"
    },
    {
      "inputs": [
        {
          "internalType": "address",
          "name": "operator",
          "type": "address"
        },
        {
          "internalType": "bool",
          "name": "approved",
          "type": "bool"
        }
      ],
      "name": "setApprovalForAll",
      "outputs": [],
      "stateMutability": "nonpayable",
      "type": "function"
    },
    {
      "inputs": [
        {
          "internalType": "bytes4",
          "name": "interfaceId",
          "type": "bytes4"
        }
      ],
      "name": "supportsInterface",
      "outputs": [
        {
          "internalType": "bool",
          "name": "",
          "type": "bool"
        }
      ],
      "stateMutability": "view",
      "type": "function"
    },
    {
      "inputs": [],
      "name": "symbol",
      "outputs": [
        {
          "internalType": "string",
          "name": "",
          "type": "string"
        }
      ],
      "stateMutability": "view",
      "type": "function"
    },
    {
      "inputs": [
        {
          "internalType": "uint256",
          "name": "tokenId",
          "type": "uint256"
        }
      ],
      "name": "tokenURI",
      "outputs": [
        {
          "internalType": "string",
          "name": "",
          "type": "string"
        }
      ],
      "stateMutability": "view",
      "type": "function"
    },
    {
      "inputs": [
        {
          "internalType": "address",
          "name": "from",
          "type": "address"
        },
        {
          "internalType": "address",
          "name": "to",
          "type": "address"
        },
        {
          "internalType": "uint256",
          "name": "tokenId",
          "type": "uint256"
        }
      ],
      "name": "transferFrom",
      "outputs": [],
      "stateMutability": "nonpayable",
      "type": "function"
    },
    {
      "inputs": [
        {
          "internalType": "uint256",
          "name": "listingId",
          "type": "uint256"
        }
      ],
      "name": "withdrawBid",
      "outputs": [],
      "stateMutability": "payable",
      "type": "function"
    }
  ],
  "bytecode": "0x6080604052600a600f5560006014553480156200001b57600080fd5b50604080518082018252601581527f506f6c79676f6e4e46544d61726b6574706c61636500000000000000000000006020808301918252835180850190945260048452634441524b60e01b9084015281519192916200007d91600091620000a1565b50805162000093906001906020840190620000a1565b505060016007555062000184565b828054620000af9062000147565b90600052602060002090601f016020900481019282620000d357600085556200011e565b82601f10620000ee57805160ff19168380011785556200011e565b828001600101855582156200011e579182015b828111156200011e57825182559160200191906001019062000101565b506200012c92915062000130565b5090565b5b808211156200012c576000815560010162000131565b600181811c908216806200015c57607f821691505b602082108114156200017e57634e487b7160e01b600052602260045260246000fd5b50919050565b61333080620001946000396000f3fe60806040526004361061025c5760003560e01c80636b8c91cb11610144578063adc2524c116100b6578063de74e57b1161007a578063de74e57b146107dc578063e57a497a1461088d578063e877d3f814610920578063e985e9c51461094d578063edf2ebcc14610996578063fad266fe146109ad57600080fd5b8063adc2524c14610729578063b27dce8114610758578063b820a6d11461077a578063b88d4fde1461079c578063c87b56dd146107bc57600080fd5b8063740db28011610108578063740db2801461069f578063903405bb146106b457806395d89b41146106ca5780639b1225c4146106df578063a22cb465146106f2578063a4fdb6351461071257600080fd5b80636b8c91cb146105c05780636c2c9c7d1461063d578063708d4d351461065457806370a082311461066a578063732e8d731461068a57600080fd5b806333024100116101dd578063454a2ab3116101a1578063454a2ab3146105165780634945dcdd146105295780634c22f3811461054b578063629cb2e41461056b5780636352211e1461058d57806366b126e6146105ad57600080fd5b806333024100146103d257806336ad658f146104635780633f1ffcec1461048857806342842e0e146104c0578063451df52e146104e057600080fd5b80630eaaf4c8116102245780630eaaf4c8146103325780631389b1171461034557806321b628861461037857806323b872dd1461038b57806324f8515b146103ab57600080fd5b806301ffc9a71461026157806306fdde0314610296578063081812fc146102b8578063095ea7b3146102f05780630ad4862814610312575b600080fd5b34801561026d57600080fd5b5061028161027c366004612db3565b6109c4565b60405190151581526020015b60405180910390f35b3480156102a257600080fd5b506102ab6109ef565b60405161028d9190613127565b3480156102c457600080fd5b506102d86102d3366004612e31565b610a81565b6040516001600160a01b03909116815260200161028d565b3480156102fc57600080fd5b5061031061030b366004612d8a565b610aa8565b005b34801561031e57600080fd5b5061028161032d366004612e31565b610bc3565b610310610340366004612e31565b610bfa565b34801561035157600080fd5b50610281610360366004612e31565b60009081526010602052604090206006015442101590565b610310610386366004612e31565b610d98565b34801561039757600080fd5b506103106103a6366004612c9c565b610f4d565b3480156103b757600080fd5b506103c0600181565b60405160ff909116815260200161028d565b3480156103de57600080fd5b5061042d6103ed366004612e31565b600e602052600090815260409020805460018201546002830154600390930154919290916001600160a01b0391821691811690600160a01b900460ff1685565b6040805195865260208601949094526001600160a01b03928316938501939093521660608301521515608082015260a00161028d565b34801561046f57600080fd5b5060085461047a9081565b60405190815260200161028d565b34801561049457600080fd5b5061047a6104a3366004612e49565b601160209081526000928352604080842090915290825290205481565b3480156104cc57600080fd5b506103106104db366004612c9c565b610f7e565b3480156104ec57600080fd5b506102d86104fb366004612e31565b6012602052600090815260409020546001600160a01b031681565b610310610524366004612e31565b610f99565b34801561053557600080fd5b5061053e61118a565b60405161028d919061309b565b34801561055757600080fd5b5061047a610566366004612e8c565b6113b0565b34801561057757600080fd5b50610580611493565b60405161028d919061302d565b34801561059957600080fd5b506102d86105a8366004612e31565b61168d565b61047a6105bb366004612deb565b6116ed565b3480156105cc57600080fd5b5061060e6105db366004612e31565b6015602052600090815260409020805460018201546002830154600390930154919290916001600160a01b039091169084565b60405161028d949392919093845260208401929092526001600160a01b03166040830152606082015260800190565b34801561064957600080fd5b50600b5461047a9081565b34801561066057600080fd5b5061047a600f5481565b34801561067657600080fd5b5061047a610685366004612c50565b6117ac565b34801561069657600080fd5b50610580611832565b3480156106ab57600080fd5b506103c0600081565b3480156106c057600080fd5b5061047a60145481565b3480156106d657600080fd5b506102ab611a12565b6103106106ed366004612e31565b611a21565b3480156106fe57600080fd5b5061031061070d366004612d50565b611bf9565b34801561071e57600080fd5b50600c5461047a9081565b34801561073557600080fd5b50610310610744366004612e6b565b6000908152600d6020526040902060010155565b34801561076457600080fd5b5061076d611c08565b60405161028d9190612fbc565b34801561078657600080fd5b5061078f611dfe565b60405161028d9190612f4f565b3480156107a857600080fd5b506103106107b7366004612cd7565b611fd3565b3480156107c857600080fd5b506102ab6107d7366004612e31565b61200b565b3480156107e857600080fd5b506108476107f7366004612e31565b6010602052600090815260409020805460018201546002830154600384015460048501546005860154600687015460079097015495966001600160a01b0390951695939492939192909160ff1688565b604080519889526001600160a01b039097166020890152958701949094526060860192909252608085015260a084015260c083015260ff1660e08201526101000161028d565b34801561089957600080fd5b506108e86108a8366004612e31565b600d602052600090815260409020805460018201546002909201549091906001600160a01b0381169060ff600160a01b8204811691600160a81b90041685565b6040805195865260208601949094526001600160a01b039092169284019290925290151560608301521515608082015260a00161028d565b34801561092c57600080fd5b5061047a61093b366004612e31565b60136020526000908152604090205481565b34801561095957600080fd5b50610281610968366004612c6a565b6001600160a01b03918216600090815260056020908152604080832093909416825291909152205460ff1690565b3480156109a257600080fd5b5060095461047a9081565b3480156109b957600080fd5b50600a5461047a9081565b60006001600160e01b03198216632483248360e11b14806109e957506109e98261211c565b92915050565b6060600080546109fe90613262565b80601f0160208091040260200160405190810160405280929190818152602001828054610a2a90613262565b8015610a775780601f10610a4c57610100808354040283529160200191610a77565b820191906000526020600020905b815481529060010190602001808311610a5a57829003601f168201915b5050505050905090565b6000610a8c8261216c565b506000908152600460205260409020546001600160a01b031690565b6000610ab38261168d565b9050806001600160a01b0316836001600160a01b03161415610b265760405162461bcd60e51b815260206004820152602160248201527f4552433732313a20617070726f76616c20746f2063757272656e74206f776e656044820152603960f91b60648201526084015b60405180910390fd5b336001600160a01b0382161480610b425750610b428133610968565b610bb45760405162461bcd60e51b815260206004820152603d60248201527f4552433732313a20617070726f76652063616c6c6572206973206e6f7420746f60448201527f6b656e206f776e6572206f7220617070726f76656420666f7220616c6c0000006064820152608401610b1d565b610bbe83836121cb565b505050565b60008181526010602052604081206007015460ff1660011480156109e9575050600090815260106020526040902060060154421090565b610c02612239565b600081815260106020526040902060060154421015610c5b5760405162461bcd60e51b8152602060048201526015602482015274185d58dd1a5bdb881b5d5cdd08189948195b991959605a1b6044820152606401610b1d565b6000818152601260205260409020546001600160a01b0316331415610ccd5760405162461bcd60e51b815260206004820152602260248201527f68696768657374206269646465722063616e6e6f7420776974686472617720626044820152611a5960f21b6064820152608401610b1d565b6000610cd8600c5490565b90506000805b82811015610d5a573360156000610cf684600161321e565b81526020810191909152604001600020600201546001600160a01b03161415610d485760156000610d2883600161321e565b81526020019081526020016000206003015482610d45919061321e565b91505b80610d528161329d565b915050610cde565b50604051339082156108fc029083906000818181858888f19350505050158015610d88573d6000803e3d6000fd5b505050610d956001600755565b50565b610da0612239565b610da981610bc3565b15610dee5760405162461bcd60e51b815260206004820152601560248201527430bab1ba34b7b71034b99039ba34b6361037b832b760591b6044820152606401610b1d565b600081815260106020908152604080832060129092529091205460018201546001600160a01b039182169116331480610e2f5750336001600160a01b038216145b610e8e5760405162461bcd60e51b815260206004820152602a60248201527f6f6e6c792073656c6c6572206f722077696e6e65722063616e20636f6d706c656044820152693a329030bab1ba34b7b760b11b6064820152608401610b1d565b600083815260136020526040902054600283015460018401546001600160a01b0316610ebb818584612293565b6040516001600160a01b0382169084156108fc029085906000818181858888f19350505050158015610ef1573d6000803e3d6000fd5b50506001840180546001600160a01b039094166001600160a01b03199485168117909155600060038601819055918252600d602052604090912060020180549093161790915550600701805460ff19169055610d956001600755565b610f5733826123f7565b610f735760405162461bcd60e51b8152600401610b1d9061313a565b610bbe838383612293565b610bbe83838360405180602001604052806000815250611fd3565b610fa1612239565b610faa81610bc3565b610fea5760405162461bcd60e51b8152602060048201526011602482015270185d58dd1a5bdb881a185cc8195b991959607a1b6044820152606401610b1d565b600081815260106020526040902060030154341161104a5760405162461bcd60e51b815260206004820152601f60248201527f56616c756520697320736d616c6c6572207468616e206269642076616c7565006044820152606401610b1d565b6000818152601060205260409020600101546001600160a01b03163314156110b45760405162461bcd60e51b815260206004820152601a60248201527f796f752063616e27742062696420796f7572206f776e206e66740000000000006044820152606401610b1d565b6110c2600c80546001019055565b60006110cd600c5490565b60408051608081018252600085815260106020908152838220600290810154845281840188815233858701908152346060870181815289875260159095529690942094518555516001850155915191830180546001600160a01b0319166001600160a01b039093169290921790915551600390910155601454919250111561117f57346014819055600083815260126020908152604080832080546001600160a01b0319163317905560139091529020555b50610d956001600755565b60606000611197600b5490565b905060008060005b838110156111ef57601060006111b683600161321e565b8152602001908152602001600020600301546000146111dd576111da60018461321e565b92505b6111e860018261321e565b905061119f565b5060008267ffffffffffffffff81111561121957634e487b7160e01b600052604160045260246000fd5b60405190808252806020026020018201604052801561129e57816020015b61128b6040518061010001604052806000815260200160006001600160a01b031681526020016000815260200160008152602001600081526020016000815260200160008152602001600060ff1681525090565b8152602001906001900390816112375790505b50905060005b848110156113a75760006010816112bc84600161321e565b81526020019081526020016000209050601060008360016112dd919061321e565b8152602001908152602001600020600301546000146113945760408051610100810182528254815260018301546001600160a01b031660208201526002830154918101919091526003820154606082015260048201546080820152600582015460a0820152600682015460c0820152600782015460ff1660e0820152835184908690811061137b57634e487b7160e01b600052603260045260246000fd5b602090810291909101015261139160018561321e565b93505b506113a060018261321e565b90506112a4565b50949350505050565b60006113c0600b80546001019055565b60006113cb600b5490565b90504260006113da858361321e565b60408051610100810182528581523360208083019182528284019a8b52606083018c8152608084019c8d5260a0840197885260c08401958652600160e0850181815260008b815260109094529590922093518455915190830180546001600160a01b0319166001600160a01b03909216919091179055985160028201559751600389015597516004880155915160058701555051600685015593516007909301805460ff191660ff909416939093179092555090919050565b606060006114a060085490565b9050600080805b838110156115025733600d60006114bf84600161321e565b81526020810191909152604001600020600201546001600160a01b031614156114f057816114ec8161329d565b9250505b806114fa8161329d565b9150506114a7565b5060008167ffffffffffffffff81111561152c57634e487b7160e01b600052604160045260246000fd5b60405190808252806020026020018201604052801561158557816020015b6040805160a08101825260008082526020808301829052928201819052606082018190526080820152825260001990920191018161154a5790505b50905060005b848110156113a75733600d60006115a384600161321e565b81526020810191909152604001600020600201546001600160a01b0316141561167b576000600d816115d684600161321e565b81526020808201929092526040908101600020815160a0810183528154815260018201549381019390935260028101546001600160a01b0381169284019290925260ff600160a01b8304811615156060850152600160a81b90920490911615156080830152845190925084908790811061166057634e487b7160e01b600052603260045260246000fd5b602002602001018190525084806116769061329d565b955050505b806116858161329d565b91505061158b565b6000818152600260205260408120546001600160a01b0316806109e95760405162461bcd60e51b8152602060048201526018602482015277115490cdcc8c4e881a5b9d985b1a59081d1bdad95b88125160421b6044820152606401610b1d565b60006116fd600880546001019055565b600061170860085490565b90506117143382612475565b61171e818461248f565b6040805160a08101825282815260006020808301828152338486019081526060850184815260808601858152888652600d9094529590932093518455516001840155905160029092018054935191511515600160a81b0260ff60a81b19921515600160a01b026001600160a81b03199095166001600160a01b039094169390931793909317161790556109e9565b60006001600160a01b0382166118165760405162461bcd60e51b815260206004820152602960248201527f4552433732313a2061646472657373207a65726f206973206e6f7420612076616044820152683634b21037bbb732b960b91b6064820152608401610b1d565b506001600160a01b031660009081526003602052604090205490565b6060600061183f60085490565b905060008060005b8381101561189757600d600061185e83600161321e565b8152602001908152602001600020600101546000146118855761188260018461321e565b92505b61189060018261321e565b9050611847565b5060008267ffffffffffffffff8111156118c157634e487b7160e01b600052604160045260246000fd5b60405190808252806020026020018201604052801561191a57816020015b6040805160a0810182526000808252602080830182905292820181905260608201819052608082015282526000199092019101816118df5790505b50905060005b848110156113a7576000600d8161193884600161321e565b81526020019081526020016000209050600d6000836001611959919061321e565b8152602001908152602001600020600101546000146119ff576040805160a081018252825481526001830154602082015260028301546001600160a01b0381169282019290925260ff600160a01b8304811615156060830152600160a81b9092049091161515608082015283518490869081106119e657634e487b7160e01b600052603260045260246000fd5b60209081029190910101526119fc60018561321e565b93505b50611a0b60018261321e565b9050611920565b6060600180546109fe90613262565b6000818152600d6020526040902060018101546002909101546001600160a01b0316331415611a925760405162461bcd60e51b815260206004820152601a60248201527f796f752063616e27742062757920796f7572206f776e206e66740000000000006044820152606401610b1d565b6000828152600d60205260409020600201546001600160a01b0316611ab8813385612293565b611ac28184610aa8565b6000838152600d6020526040808220600201805460ff60a81b1960ff60a01b1933166001600160a81b031990921691909117600160a01b1716600160a81b179055516001600160a01b038316913480156108fc02929091818181858888f19350505050158015611b36573d6000803e3d6000fd5b50611b45600980546001019055565b6000611b5060095490565b6040805160a08101825286815260208082019687526001600160a01b0395861682840190815233606084019081526001608085018181526000978852600e8552868820955186559951858201559151600285018054918a166001600160a01b0319909216919091179055516003909301805498511515600160a01b026001600160a81b0319909916939097169290921796909617909455948152600d9093525091812090910155565b611c04338383612561565b5050565b60606000611c1560095490565b9050600080805b83811015611c775733600e6000611c3484600161321e565b81526020810191909152604001600020600201546001600160a01b03161415611c655781611c618161329d565b9250505b80611c6f8161329d565b915050611c1c565b5060008167ffffffffffffffff811115611ca157634e487b7160e01b600052604160045260246000fd5b604051908082528060200260200182016040528015611cfa57816020015b6040805160a081018252600080825260208083018290529282018190526060820181905260808201528252600019909201910181611cbf5790505b50905060005b848110156113a75733600e6000611d1884600161321e565b81526020810191909152604001600020600201546001600160a01b03161415611dec576000600e81611d4b84600161321e565b81526020808201929092526040908101600020815160a0810183528154815260018201549381019390935260028101546001600160a01b039081169284019290925260038101549182166060840152600160a01b90910460ff16151560808301528451909250849087908110611dd157634e487b7160e01b600052603260045260246000fd5b60200260200101819052508480611de79061329d565b955050505b80611df68161329d565b915050611d00565b60606000611e0b600c5490565b9050600080805b83811015611e625760156000611e2983600161321e565b815260200190815260200160002060030154600014611e505781611e4c8161329d565b9250505b80611e5a8161329d565b915050611e12565b5060008167ffffffffffffffff811115611e8c57634e487b7160e01b600052604160045260246000fd5b604051908082528060200260200182016040528015611ef157816020015b611ede6040518060800160405280600081526020016000815260200160006001600160a01b03168152602001600081525090565b815260200190600190039081611eaa5790505b50905060005b848110156113a75760156000611f0e83600161321e565b815260200190815260200160002060030154600014611fc1576000601581611f3784600161321e565b8152602080820192909252604090810160002081516080810183528154815260018201549381019390935260028101546001600160a01b031691830191909152600381015460608301528451909250849087908110611fa657634e487b7160e01b600052603260045260246000fd5b60200260200101819052508480611fbc9061329d565b955050505b80611fcb8161329d565b915050611ef7565b611fdd33836123f7565b611ff95760405162461bcd60e51b8152600401610b1d9061313a565b61200584848484612630565b50505050565b60606120168261216c565b6000828152600660205260408120805461202f90613262565b80601f016020809104026020016040519081016040528092919081815260200182805461205b90613262565b80156120a85780601f1061207d576101008083540402835291602001916120a8565b820191906000526020600020905b81548152906001019060200180831161208b57829003601f168201915b5050505050905060006120c660408051602081019091526000815290565b90508051600014156120d9575092915050565b81511561210b5780826040516020016120f3929190612ee3565b60405160208183030381529060405292505050919050565b61211484612663565b949350505050565b60006001600160e01b031982166380ac58cd60e01b148061214d57506001600160e01b03198216635b5e139f60e01b145b806109e957506301ffc9a760e01b6001600160e01b03198316146109e9565b6000818152600260205260409020546001600160a01b0316610d955760405162461bcd60e51b8152602060048201526018602482015277115490cdcc8c4e881a5b9d985b1a59081d1bdad95b88125160421b6044820152606401610b1d565b600081815260046020526040902080546001600160a01b0319166001600160a01b03841690811790915581906122008261168d565b6001600160a01b03167f8c5be1e5ebec7d5bd14f71427d1e84f3dd0314c0f7b2291e5b200ac8c7c3b92560405160405180910390a45050565b6002600754141561228c5760405162461bcd60e51b815260206004820152601f60248201527f5265656e7472616e637947756172643a207265656e7472616e742063616c6c006044820152606401610b1d565b6002600755565b826001600160a01b03166122a68261168d565b6001600160a01b0316146122cc5760405162461bcd60e51b8152600401610b1d906131d9565b6001600160a01b03821661232e5760405162461bcd60e51b8152602060048201526024808201527f4552433732313a207472616e7366657220746f20746865207a65726f206164646044820152637265737360e01b6064820152608401610b1d565b826001600160a01b03166123418261168d565b6001600160a01b0316146123675760405162461bcd60e51b8152600401610b1d906131d9565b600081815260046020908152604080832080546001600160a01b03199081169091556001600160a01b0387811680865260038552838620805460001901905590871680865283862080546001019055868652600290945282852080549092168417909155905184937fddf252ad1be2c89b69c2b068fc378daa952ba7f163c4a11628f55a4df523b3ef91a4505050565b6000806124038361168d565b9050806001600160a01b0316846001600160a01b0316148061244a57506001600160a01b0380821660009081526005602090815260408083209388168352929052205460ff165b806121145750836001600160a01b031661246384610a81565b6001600160a01b031614949350505050565b611c048282604051806020016040528060008152506126d7565b6000828152600260205260409020546001600160a01b031661250a5760405162461bcd60e51b815260206004820152602e60248201527f45524337323155524953746f726167653a2055524920736574206f66206e6f6e60448201526d32bc34b9ba32b73a103a37b5b2b760911b6064820152608401610b1d565b6000828152600660209081526040909120825161252992840190612b25565b506040518281527ff8e1a15aba9398e019f0b49df1a4fde98ee17ae345cb5f6b5e2c27f5033e8ce79060200160405180910390a15050565b816001600160a01b0316836001600160a01b031614156125c35760405162461bcd60e51b815260206004820152601960248201527f4552433732313a20617070726f766520746f2063616c6c6572000000000000006044820152606401610b1d565b6001600160a01b03838116600081815260056020908152604080832094871680845294825291829020805460ff191686151590811790915591519182527f17307eab39ab6107e8899845ad3d59bd9653f200f220920489ca2b5937696c31910160405180910390a3505050565b61263b848484612293565b6126478484848461270a565b6120055760405162461bcd60e51b8152600401610b1d90613187565b606061266e8261216c565b600061268560408051602081019091526000815290565b905060008151116126a557604051806020016040528060008152506126d0565b806126af84612817565b6040516020016126c0929190612ee3565b6040516020818303038152906040525b9392505050565b6126e183836128c2565b6126ee600084848461270a565b610bbe5760405162461bcd60e51b8152600401610b1d90613187565b60006001600160a01b0384163b1561280c57604051630a85bd0160e11b81526001600160a01b0385169063150b7a029061274e903390899088908890600401612f12565b602060405180830381600087803b15801561276857600080fd5b505af1925050508015612798575060408051601f3d908101601f1916820190925261279591810190612dcf565b60015b6127f2573d8080156127c6576040519150601f19603f3d011682016040523d82523d6000602084013e6127cb565b606091505b5080516127ea5760405162461bcd60e51b8152600401610b1d90613187565b805181602001fd5b6001600160e01b031916630a85bd0160e11b149050612114565b506001949350505050565b6060600061282483612a4d565b600101905060008167ffffffffffffffff81111561285257634e487b7160e01b600052604160045260246000fd5b6040519080825280601f01601f19166020018201604052801561287c576020820181803683370190505b5090508181016020015b600019016f181899199a1a9b1b9c1cb0b131b232b360811b600a86061a8153600a85049450846128b5576128ba565b612886565b509392505050565b6001600160a01b0382166129185760405162461bcd60e51b815260206004820181905260248201527f4552433732313a206d696e7420746f20746865207a65726f20616464726573736044820152606401610b1d565b6000818152600260205260409020546001600160a01b03161561297d5760405162461bcd60e51b815260206004820152601c60248201527f4552433732313a20746f6b656e20616c7265616479206d696e746564000000006044820152606401610b1d565b6000818152600260205260409020546001600160a01b0316156129e25760405162461bcd60e51b815260206004820152601c60248201527f4552433732313a20746f6b656e20616c7265616479206d696e746564000000006044820152606401610b1d565b6001600160a01b038216600081815260036020908152604080832080546001019055848352600290915280822080546001600160a01b0319168417905551839291907fddf252ad1be2c89b69c2b068fc378daa952ba7f163c4a11628f55a4df523b3ef908290a45050565b60008072184f03e93ff9f4daa797ed6e38ed64bf6a1f0160401b8310612a8c5772184f03e93ff9f4daa797ed6e38ed64bf6a1f0160401b830492506040015b6d04ee2d6d415b85acef81000000008310612ab8576d04ee2d6d415b85acef8100000000830492506020015b662386f26fc100008310612ad657662386f26fc10000830492506010015b6305f5e1008310612aee576305f5e100830492506008015b6127108310612b0257612710830492506004015b60648310612b14576064830492506002015b600a83106109e95760010192915050565b828054612b3190613262565b90600052602060002090601f016020900481019282612b535760008555612b99565b82601f10612b6c57805160ff1916838001178555612b99565b82800160010185558215612b99579182015b82811115612b99578251825591602001919060010190612b7e565b50612ba5929150612ba9565b5090565b5b80821115612ba55760008155600101612baa565b600067ffffffffffffffff80841115612bd957612bd96132ce565b604051601f8501601f19908116603f01168101908282118183101715612c0157612c016132ce565b81604052809350858152868686011115612c1a57600080fd5b858560208301376000602087830101525050509392505050565b80356001600160a01b0381168114612c4b57600080fd5b919050565b600060208284031215612c61578081fd5b6126d082612c34565b60008060408385031215612c7c578081fd5b612c8583612c34565b9150612c9360208401612c34565b90509250929050565b600080600060608486031215612cb0578081fd5b612cb984612c34565b9250612cc760208501612c34565b9150604084013590509250925092565b60008060008060808587031215612cec578081fd5b612cf585612c34565b9350612d0360208601612c34565b925060408501359150606085013567ffffffffffffffff811115612d25578182fd5b8501601f81018713612d35578182fd5b612d4487823560208401612bbe565b91505092959194509250565b60008060408385031215612d62578182fd5b612d6b83612c34565b915060208301358015158114612d7f578182fd5b809150509250929050565b60008060408385031215612d9c578182fd5b612da583612c34565b946020939093013593505050565b600060208284031215612dc4578081fd5b81356126d0816132e4565b600060208284031215612de0578081fd5b81516126d0816132e4565b600060208284031215612dfc578081fd5b813567ffffffffffffffff811115612e12578182fd5b8201601f81018413612e22578182fd5b61211484823560208401612bbe565b600060208284031215612e42578081fd5b5035919050565b60008060408385031215612e5b578182fd5b82359150612c9360208401612c34565b60008060408385031215612e7d578182fd5b50508035926020909101359150565b600080600060608486031215612ea0578283fd5b505081359360208301359350604090920135919050565b60008151808452612ecf816020860160208601613236565b601f01601f19169290920160200192915050565b60008351612ef5818460208801613236565b835190830190612f09818360208801613236565b01949350505050565b6001600160a01b0385811682528416602082015260408101839052608060608201819052600090612f4590830184612eb7565b9695505050505050565b602080825282518282018190526000919060409081850190868401855b82811015612faf578151805185528681015187860152858101516001600160a01b0316868601526060908101519085015260809093019290850190600101612f6c565b5091979650505050505050565b602080825282518282018190526000919060409081850190868401855b82811015612faf578151805185528681015187860152858101516001600160a01b03908116878701526060808301519091169086015260809081015115159085015260a09093019290850190600101612fd9565b602080825282518282018190526000919060409081850190868401855b82811015612faf578151805185528681015187860152858101516001600160a01b03168686015260608082015115159086015260809081015115159085015260a0909301929085019060010161304a565b602080825282518282018190526000919060409081850190868401855b82811015612faf57815180518552868101516001600160a01b0316878601528581015186860152606080820151908601526080808201519086015260a0808201519086015260c0808201519086015260e09081015160ff169085015261010090930192908501906001016130b8565b6020815260006126d06020830184612eb7565b6020808252602d908201527f4552433732313a2063616c6c6572206973206e6f7420746f6b656e206f776e6560408201526c1c881bdc88185c1c1c9bdd9959609a1b606082015260800190565b60208082526032908201527f4552433732313a207472616e7366657220746f206e6f6e20455243373231526560408201527131b2b4bb32b91034b6b83632b6b2b73a32b960711b606082015260800190565b60208082526025908201527f4552433732313a207472616e736665722066726f6d20696e636f72726563742060408201526437bbb732b960d91b606082015260800190565b60008219821115613231576132316132b8565b500190565b60005b83811015613251578181015183820152602001613239565b838111156120055750506000910152565b600181811c9082168061327657607f821691505b6020821081141561329757634e487b7160e01b600052602260045260246000fd5b50919050565b60006000198214156132b1576132b16132b8565b5060010190565b634e487b7160e01b600052601160045260246000fd5b634e487b7160e01b600052604160045260246000fd5b6001600160e01b031981168114610d9557600080fdfea2646970667358221220da41048ae6637c6e48cf733ded744dc310f1e4c09d0107345d7fa5859f59376a64736f6c63430008040033",
  "linkReferences": {},
  "deployedLinkReferences": {}
}