{
  "_format": "hh-sol-artifact-1",
  "contractName": "PolygonNFTMarketplace",
  "sourceName": "contracts/PolygonNFTMarketplace.sol",
  "abi": [
    {
      "inputs": [],
      "stateMutability": "nonpayable",
      "type": "constructor"
    },
    {
      "anonymous": false,
      "inputs": [
        {
          "indexed": true,
          "internalType": "address",
          "name": "owner",
          "type": "address"
        },
        {
          "indexed": true,
          "internalType": "address",
          "name": "approved",
          "type": "address"
        },
        {
          "indexed": true,
          "internalType": "uint256",
          "name": "tokenId",
          "type": "uint256"
        }
      ],
      "name": "Approval",
      "type": "event"
    },
    {
      "anonymous": false,
      "inputs": [
        {
          "indexed": true,
          "internalType": "address",
          "name": "owner",
          "type": "address"
        },
        {
          "indexed": true,
          "internalType": "address",
          "name": "operator",
          "type": "address"
        },
        {
          "indexed": false,
          "internalType": "bool",
          "name": "approved",
          "type": "bool"
        }
      ],
      "name": "ApprovalForAll",
      "type": "event"
    },
    {
      "anonymous": false,
      "inputs": [
        {
          "indexed": false,
          "internalType": "uint256",
          "name": "_fromTokenId",
          "type": "uint256"
        },
        {
          "indexed": false,
          "internalType": "uint256",
          "name": "_toTokenId",
          "type": "uint256"
        }
      ],
      "name": "BatchMetadataUpdate",
      "type": "event"
    },
    {
      "anonymous": false,
      "inputs": [
        {
          "indexed": false,
          "internalType": "uint256",
          "name": "_tokenId",
          "type": "uint256"
        }
      ],
      "name": "MetadataUpdate",
      "type": "event"
    },
    {
      "anonymous": false,
      "inputs": [
        {
          "indexed": true,
          "internalType": "address",
          "name": "from",
          "type": "address"
        },
        {
          "indexed": true,
          "internalType": "address",
          "name": "to",
          "type": "address"
        },
        {
          "indexed": true,
          "internalType": "uint256",
          "name": "tokenId",
          "type": "uint256"
        }
      ],
      "name": "Transfer",
      "type": "event"
    },
    {
      "inputs": [],
      "name": "BuyCount",
      "outputs": [
        {
          "internalType": "uint256",
          "name": "_value",
          "type": "uint256"
        }
      ],
      "stateMutability": "view",
      "type": "function"
    },
    {
      "inputs": [
        {
          "internalType": "string",
          "name": "tokenURI",
          "type": "string"
        },
        {
          "internalType": "string",
          "name": "imageHash",
          "type": "string"
        },
        {
          "internalType": "uint256",
          "name": "fileType",
          "type": "uint256"
        }
      ],
      "name": "CreateToken",
      "outputs": [
        {
          "internalType": "uint256",
          "name": "",
          "type": "uint256"
        }
      ],
      "stateMutability": "payable",
      "type": "function"
    },
    {
      "inputs": [
        {
          "internalType": "uint256",
          "name": "",
          "type": "uint256"
        }
      ],
      "name": "Creators",
      "outputs": [
        {
          "internalType": "address",
          "name": "",
          "type": "address"
        }
      ],
      "stateMutability": "view",
      "type": "function"
    },
    {
      "inputs": [],
      "name": "CreatorsCount",
      "outputs": [
        {
          "internalType": "uint256",
          "name": "_value",
          "type": "uint256"
        }
      ],
      "stateMutability": "view",
      "type": "function"
    },
    {
      "inputs": [
        {
          "internalType": "uint256",
          "name": "price",
          "type": "uint256"
        },
        {
          "internalType": "uint256",
          "name": "id",
          "type": "uint256"
        }
      ],
      "name": "ListNFT",
      "outputs": [],
      "stateMutability": "nonpayable",
      "type": "function"
    },
    {
      "inputs": [
        {
          "internalType": "uint256",
          "name": "tokenId",
          "type": "uint256"
        }
      ],
      "name": "ReportNFT",
      "outputs": [],
      "stateMutability": "nonpayable",
      "type": "function"
    },
    {
      "inputs": [],
      "name": "STATUS_DONE",
      "outputs": [
        {
          "internalType": "uint8",
          "name": "",
          "type": "uint8"
        }
      ],
      "stateMutability": "view",
      "type": "function"
    },
    {
      "inputs": [],
      "name": "STATUS_OPEN",
      "outputs": [
        {
          "internalType": "uint8",
          "name": "",
          "type": "uint8"
        }
      ],
      "stateMutability": "view",
      "type": "function"
    },
    {
      "inputs": [],
      "name": "SoldCount",
      "outputs": [
        {
          "internalType": "uint256",
          "name": "_value",
          "type": "uint256"
        }
      ],
      "stateMutability": "view",
      "type": "function"
    },
    {
      "inputs": [],
      "name": "TokenCount",
      "outputs": [
        {
          "internalType": "uint256",
          "name": "_value",
          "type": "uint256"
        }
      ],
      "stateMutability": "view",
      "type": "function"
    },
    {
      "inputs": [
        {
          "internalType": "address",
          "name": "to",
          "type": "address"
        },
        {
          "internalType": "uint256",
          "name": "tokenId",
          "type": "uint256"
        }
      ],
      "name": "approve",
      "outputs": [],
      "stateMutability": "nonpayable",
      "type": "function"
    },
    {
      "inputs": [
        {
          "internalType": "address",
          "name": "owner",
          "type": "address"
        }
      ],
      "name": "balanceOf",
      "outputs": [
        {
          "internalType": "uint256",
          "name": "",
          "type": "uint256"
        }
      ],
      "stateMutability": "view",
      "type": "function"
    },
    {
      "inputs": [
        {
          "internalType": "uint256",
          "name": "listingId",
          "type": "uint256"
        }
      ],
      "name": "bid",
      "outputs": [],
      "stateMutability": "payable",
      "type": "function"
    },
    {
      "inputs": [],
      "name": "biddingCounter",
      "outputs": [
        {
          "internalType": "uint256",
          "name": "_value",
          "type": "uint256"
        }
      ],
      "stateMutability": "view",
      "type": "function"
    },
    {
      "inputs": [
        {
          "internalType": "uint256",
          "name": "listingId",
          "type": "uint256"
        }
      ],
      "name": "completeAuction",
      "outputs": [],
      "stateMutability": "payable",
      "type": "function"
    },
    {
      "inputs": [
        {
          "internalType": "uint256",
          "name": "price",
          "type": "uint256"
        },
        {
          "internalType": "uint256",
          "name": "tokenId",
          "type": "uint256"
        },
        {
          "internalType": "uint256",
          "name": "deadline",
          "type": "uint256"
        },
        {
          "internalType": "string",
          "name": "aucDate",
          "type": "string"
        }
      ],
      "name": "createAuctionListing",
      "outputs": [
        {
          "internalType": "uint256",
          "name": "",
          "type": "uint256"
        }
      ],
      "stateMutability": "nonpayable",
      "type": "function"
    },
    {
      "inputs": [
        {
          "internalType": "uint256",
          "name": "tokenId",
          "type": "uint256"
        }
      ],
      "name": "executeSale",
      "outputs": [],
      "stateMutability": "payable",
      "type": "function"
    },
    {
      "inputs": [],
      "name": "getAllBiddedNfts",
      "outputs": [
        {
          "components": [
            {
              "internalType": "uint256",
              "name": "biddingId",
              "type": "uint256"
            },
            {
              "internalType": "address payable",
              "name": "seller",
              "type": "address"
            },
            {
              "internalType": "uint256",
              "name": "tokenId",
              "type": "uint256"
            },
            {
              "internalType": "uint256",
              "name": "price",
              "type": "uint256"
            },
            {
              "internalType": "uint256",
              "name": "netPrice",
              "type": "uint256"
            },
            {
              "internalType": "uint256",
              "name": "startAt",
              "type": "uint256"
            },
            {
              "internalType": "uint256",
              "name": "deadline",
              "type": "uint256"
            },
            {
              "internalType": "string",
              "name": "date",
              "type": "string"
            },
            {
              "internalType": "uint256",
              "name": "status",
              "type": "uint256"
            }
          ],
          "internalType": "struct PolygonNFTMarketplace.Listing[]",
          "name": "",
          "type": "tuple[]"
        }
      ],
      "stateMutability": "view",
      "type": "function"
    },
    {
      "inputs": [],
      "name": "getAllBiddingWithListingID",
      "outputs": [
        {
          "components": [
            {
              "internalType": "uint256",
              "name": "tokenId",
              "type": "uint256"
            },
            {
              "internalType": "uint256",
              "name": "biddingId",
              "type": "uint256"
            },
            {
              "internalType": "address",
              "name": "bidder",
              "type": "address"
            },
            {
              "internalType": "uint256",
              "name": "price",
              "type": "uint256"
            }
          ],
          "internalType": "struct PolygonNFTMarketplace.Bidding[]",
          "name": "",
          "type": "tuple[]"
        }
      ],
      "stateMutability": "view",
      "type": "function"
    },
    {
      "inputs": [],
      "name": "getAllImageNfts",
      "outputs": [
        {
          "components": [
            {
              "internalType": "uint256",
              "name": "tokenId",
              "type": "uint256"
            },
            {
              "internalType": "uint256",
              "name": "price",
              "type": "uint256"
            },
            {
              "internalType": "uint256",
              "name": "bidPrice",
              "type": "uint256"
            },
            {
              "internalType": "string",
              "name": "imgHash",
              "type": "string"
            },
            {
              "internalType": "address payable",
              "name": "owner",
              "type": "address"
            },
            {
              "internalType": "uint256",
              "name": "format",
              "type": "uint256"
            },
            {
              "internalType": "bool",
              "name": "NFTsold",
              "type": "bool"
            },
            {
              "internalType": "bool",
              "name": "NFTbought",
              "type": "bool"
            },
            {
              "internalType": "bool",
              "name": "NFTListed",
              "type": "bool"
            },
            {
              "internalType": "bool",
              "name": "NFTBidded",
              "type": "bool"
            },
            {
              "internalType": "bool",
              "name": "ReportNft",
              "type": "bool"
            }
          ],
          "internalType": "struct PolygonNFTMarketplace.ListedToken[]",
          "name": "",
          "type": "tuple[]"
        }
      ],
      "stateMutability": "view",
      "type": "function"
    },
    {
      "inputs": [],
      "name": "getAllNfts",
      "outputs": [
        {
          "components": [
            {
              "internalType": "uint256",
              "name": "tokenId",
              "type": "uint256"
            },
            {
              "internalType": "uint256",
              "name": "price",
              "type": "uint256"
            },
            {
              "internalType": "uint256",
              "name": "bidPrice",
              "type": "uint256"
            },
            {
              "internalType": "string",
              "name": "imgHash",
              "type": "string"
            },
            {
              "internalType": "address payable",
              "name": "owner",
              "type": "address"
            },
            {
              "internalType": "uint256",
              "name": "format",
              "type": "uint256"
            },
            {
              "internalType": "bool",
              "name": "NFTsold",
              "type": "bool"
            },
            {
              "internalType": "bool",
              "name": "NFTbought",
              "type": "bool"
            },
            {
              "internalType": "bool",
              "name": "NFTListed",
              "type": "bool"
            },
            {
              "internalType": "bool",
              "name": "NFTBidded",
              "type": "bool"
            },
            {
              "internalType": "bool",
              "name": "ReportNft",
              "type": "bool"
            }
          ],
          "internalType": "struct PolygonNFTMarketplace.ListedToken[]",
          "name": "",
          "type": "tuple[]"
        }
      ],
      "stateMutability": "view",
      "type": "function"
    },
    {
      "inputs": [
        {
          "internalType": "uint256",
          "name": "tokenId",
          "type": "uint256"
        }
      ],
      "name": "getApproved",
      "outputs": [
        {
          "internalType": "address",
          "name": "",
          "type": "address"
        }
      ],
      "stateMutability": "view",
      "type": "function"
    },
    {
      "inputs": [
        {
          "internalType": "uint256",
          "name": "listingId",
          "type": "uint256"
        }
      ],
      "name": "getHighestBidder",
      "outputs": [
        {
          "internalType": "address",
          "name": "",
          "type": "address"
        }
      ],
      "stateMutability": "view",
      "type": "function"
    },
    {
      "inputs": [
        {
          "internalType": "uint256",
          "name": "listingId",
          "type": "uint256"
        }
      ],
      "name": "getHighestBiddingAmount",
      "outputs": [
        {
          "internalType": "uint256",
          "name": "",
          "type": "uint256"
        }
      ],
      "stateMutability": "view",
      "type": "function"
    },
    {
      "inputs": [],
      "name": "getMyNFTs",
      "outputs": [
        {
          "components": [
            {
              "internalType": "uint256",
              "name": "tokenId",
              "type": "uint256"
            },
            {
              "internalType": "uint256",
              "name": "price",
              "type": "uint256"
            },
            {
              "internalType": "uint256",
              "name": "bidPrice",
              "type": "uint256"
            },
            {
              "internalType": "string",
              "name": "imgHash",
              "type": "string"
            },
            {
              "internalType": "address payable",
              "name": "owner",
              "type": "address"
            },
            {
              "internalType": "uint256",
              "name": "format",
              "type": "uint256"
            },
            {
              "internalType": "bool",
              "name": "NFTsold",
              "type": "bool"
            },
            {
              "internalType": "bool",
              "name": "NFTbought",
              "type": "bool"
            },
            {
              "internalType": "bool",
              "name": "NFTListed",
              "type": "bool"
            },
            {
              "internalType": "bool",
              "name": "NFTBidded",
              "type": "bool"
            },
            {
              "internalType": "bool",
              "name": "ReportNft",
              "type": "bool"
            }
          ],
          "internalType": "struct PolygonNFTMarketplace.ListedToken[]",
          "name": "",
          "type": "tuple[]"
        }
      ],
      "stateMutability": "view",
      "type": "function"
    },
    {
      "inputs": [],
      "name": "getMySoldNFTs",
      "outputs": [
        {
          "components": [
            {
              "internalType": "uint256",
              "name": "tokenId",
              "type": "uint256"
            },
            {
              "internalType": "uint256",
              "name": "price",
              "type": "uint256"
            },
            {
              "internalType": "address payable",
              "name": "owner",
              "type": "address"
            },
            {
              "internalType": "address",
              "name": "newOwner",
              "type": "address"
            },
            {
              "internalType": "bool",
              "name": "NFTsold",
              "type": "bool"
            }
          ],
          "internalType": "struct PolygonNFTMarketplace.ItemsSold[]",
          "name": "",
          "type": "tuple[]"
        }
      ],
      "stateMutability": "view",
      "type": "function"
    },
    {
      "inputs": [],
      "name": "getTotalBiddedTokens",
      "outputs": [
        {
          "internalType": "uint256",
          "name": "",
          "type": "uint256"
        }
      ],
      "stateMutability": "view",
      "type": "function"
    },
    {
      "inputs": [],
      "name": "getTotalMintedTokens",
      "outputs": [
        {
          "internalType": "uint256",
          "name": "",
          "type": "uint256"
        }
      ],
      "stateMutability": "view",
      "type": "function"
    },
    {
      "inputs": [],
      "name": "getTotalSoldTokens",
      "outputs": [
        {
          "internalType": "uint256",
          "name": "",
          "type": "uint256"
        }
      ],
      "stateMutability": "view",
      "type": "function"
    },
    {
      "inputs": [],
      "name": "getTotalUser",
      "outputs": [
        {
          "internalType": "uint256",
          "name": "",
          "type": "uint256"
        }
      ],
      "stateMutability": "view",
      "type": "function"
    },
    {
      "inputs": [
        {
          "internalType": "uint256",
          "name": "",
          "type": "uint256"
        }
      ],
      "name": "highestBidder",
      "outputs": [
        {
          "internalType": "address",
          "name": "",
          "type": "address"
        }
      ],
      "stateMutability": "view",
      "type": "function"
    },
    {
      "inputs": [
        {
          "internalType": "uint256",
          "name": "",
          "type": "uint256"
        }
      ],
      "name": "highestBiddingAmount",
      "outputs": [
        {
          "internalType": "uint256",
          "name": "",
          "type": "uint256"
        }
      ],
      "stateMutability": "view",
      "type": "function"
    },
    {
      "inputs": [
        {
          "internalType": "uint256",
          "name": "",
          "type": "uint256"
        }
      ],
      "name": "idToBiddedToken",
      "outputs": [
        {
          "internalType": "uint256",
          "name": "tokenId",
          "type": "uint256"
        },
        {
          "internalType": "uint256",
          "name": "biddingId",
          "type": "uint256"
        },
        {
          "internalType": "address",
          "name": "bidder",
          "type": "address"
        },
        {
          "internalType": "uint256",
          "name": "price",
          "type": "uint256"
        }
      ],
      "stateMutability": "view",
      "type": "function"
    },
    {
      "inputs": [
        {
          "internalType": "uint256",
          "name": "",
          "type": "uint256"
        }
      ],
      "name": "idToImageHash",
      "outputs": [
        {
          "internalType": "string",
          "name": "",
          "type": "string"
        }
      ],
      "stateMutability": "view",
      "type": "function"
    },
    {
      "inputs": [
        {
          "internalType": "uint256",
          "name": "",
          "type": "uint256"
        }
      ],
      "name": "idToListedToken",
      "outputs": [
        {
          "internalType": "uint256",
          "name": "tokenId",
          "type": "uint256"
        },
        {
          "internalType": "uint256",
          "name": "price",
          "type": "uint256"
        },
        {
          "internalType": "uint256",
          "name": "bidPrice",
          "type": "uint256"
        },
        {
          "internalType": "string",
          "name": "imgHash",
          "type": "string"
        },
        {
          "internalType": "address payable",
          "name": "owner",
          "type": "address"
        },
        {
          "internalType": "uint256",
          "name": "format",
          "type": "uint256"
        },
        {
          "internalType": "bool",
          "name": "NFTsold",
          "type": "bool"
        },
        {
          "internalType": "bool",
          "name": "NFTbought",
          "type": "bool"
        },
        {
          "internalType": "bool",
          "name": "NFTListed",
          "type": "bool"
        },
        {
          "internalType": "bool",
          "name": "NFTBidded",
          "type": "bool"
        },
        {
          "internalType": "bool",
          "name": "ReportNft",
          "type": "bool"
        }
      ],
      "stateMutability": "view",
      "type": "function"
    },
    {
      "inputs": [
        {
          "internalType": "uint256",
          "name": "",
          "type": "uint256"
        }
      ],
      "name": "idToSoldItems",
      "outputs": [
        {
          "internalType": "uint256",
          "name": "tokenId",
          "type": "uint256"
        },
        {
          "internalType": "uint256",
          "name": "price",
          "type": "uint256"
        },
        {
          "internalType": "address payable",
          "name": "owner",
          "type": "address"
        },
        {
          "internalType": "address",
          "name": "newOwner",
          "type": "address"
        },
        {
          "internalType": "bool",
          "name": "NFTsold",
          "type": "bool"
        }
      ],
      "stateMutability": "view",
      "type": "function"
    },
    {
      "inputs": [
        {
          "internalType": "address",
          "name": "owner",
          "type": "address"
        },
        {
          "internalType": "address",
          "name": "operator",
          "type": "address"
        }
      ],
      "name": "isApprovedForAll",
      "outputs": [
        {
          "internalType": "bool",
          "name": "",
          "type": "bool"
        }
      ],
      "stateMutability": "view",
      "type": "function"
    },
    {
      "inputs": [
        {
          "internalType": "uint256",
          "name": "id",
          "type": "uint256"
        }
      ],
      "name": "isAuctionExpired",
      "outputs": [
        {
          "internalType": "bool",
          "name": "",
          "type": "bool"
        }
      ],
      "stateMutability": "view",
      "type": "function"
    },
    {
      "inputs": [
        {
          "internalType": "uint256",
          "name": "id",
          "type": "uint256"
        }
      ],
      "name": "isAuctionOpen",
      "outputs": [
        {
          "internalType": "bool",
          "name": "",
          "type": "bool"
        }
      ],
      "stateMutability": "view",
      "type": "function"
    },
    {
      "inputs": [],
      "name": "listingCounter",
      "outputs": [
        {
          "internalType": "uint256",
          "name": "_value",
          "type": "uint256"
        }
      ],
      "stateMutability": "view",
      "type": "function"
    },
    {
      "inputs": [
        {
          "internalType": "uint256",
          "name": "",
          "type": "uint256"
        }
      ],
      "name": "listings",
      "outputs": [
        {
          "internalType": "uint256",
          "name": "biddingId",
          "type": "uint256"
        },
        {
          "internalType": "address payable",
          "name": "seller",
          "type": "address"
        },
        {
          "internalType": "uint256",
          "name": "tokenId",
          "type": "uint256"
        },
        {
          "internalType": "uint256",
          "name": "price",
          "type": "uint256"
        },
        {
          "internalType": "uint256",
          "name": "netPrice",
          "type": "uint256"
        },
        {
          "internalType": "uint256",
          "name": "startAt",
          "type": "uint256"
        },
        {
          "internalType": "uint256",
          "name": "deadline",
          "type": "uint256"
        },
        {
          "internalType": "string",
          "name": "date",
          "type": "string"
        },
        {
          "internalType": "uint256",
          "name": "status",
          "type": "uint256"
        }
      ],
      "stateMutability": "view",
      "type": "function"
    },
    {
      "inputs": [],
      "name": "minAuctionIncrement",
      "outputs": [
        {
          "internalType": "uint256",
          "name": "",
          "type": "uint256"
        }
      ],
      "stateMutability": "view",
      "type": "function"
    },
    {
      "inputs": [],
      "name": "name",
      "outputs": [
        {
          "internalType": "string",
          "name": "",
          "type": "string"
        }
      ],
      "stateMutability": "view",
      "type": "function"
    },
    {
      "inputs": [
        {
          "internalType": "address",
          "name": "user",
          "type": "address"
        }
      ],
      "name": "newUser",
      "outputs": [],
      "stateMutability": "nonpayable",
      "type": "function"
    },
    {
      "inputs": [
        {
          "internalType": "uint256",
          "name": "tokenId",
          "type": "uint256"
        }
      ],
      "name": "ownerOf",
      "outputs": [
        {
          "internalType": "address",
          "name": "",
          "type": "address"
        }
      ],
      "stateMutability": "view",
      "type": "function"
    },
    {
      "inputs": [
        {
          "internalType": "address",
          "name": "from",
          "type": "address"
        },
        {
          "internalType": "address",
          "name": "to",
          "type": "address"
        },
        {
          "internalType": "uint256",
          "name": "tokenId",
          "type": "uint256"
        }
      ],
      "name": "safeTransferFrom",
      "outputs": [],
      "stateMutability": "nonpayable",
      "type": "function"
    },
    {
      "inputs": [
        {
          "internalType": "address",
          "name": "from",
          "type": "address"
        },
        {
          "internalType": "address",
          "name": "to",
          "type": "address"
        },
        {
          "internalType": "uint256",
          "name": "tokenId",
          "type": "uint256"
        },
        {
          "internalType": "bytes",
          "name": "data",
          "type": "bytes"
        }
      ],
      "name": "safeTransferFrom",
      "outputs": [],
      "stateMutability": "nonpayable",
      "type": "function"
    },
    {
      "inputs": [
        {
          "internalType": "address",
          "name": "operator",
          "type": "address"
        },
        {
          "internalType": "bool",
          "name": "approved",
          "type": "bool"
        }
      ],
      "name": "setApprovalForAll",
      "outputs": [],
      "stateMutability": "nonpayable",
      "type": "function"
    },
    {
      "inputs": [
        {
          "internalType": "bytes4",
          "name": "interfaceId",
          "type": "bytes4"
        }
      ],
      "name": "supportsInterface",
      "outputs": [
        {
          "internalType": "bool",
          "name": "",
          "type": "bool"
        }
      ],
      "stateMutability": "view",
      "type": "function"
    },
    {
      "inputs": [],
      "name": "symbol",
      "outputs": [
        {
          "internalType": "string",
          "name": "",
          "type": "string"
        }
      ],
      "stateMutability": "view",
      "type": "function"
    },
    {
      "inputs": [
        {
          "internalType": "uint256",
          "name": "tokenId",
          "type": "uint256"
        }
      ],
      "name": "tokenURI",
      "outputs": [
        {
          "internalType": "string",
          "name": "",
          "type": "string"
        }
      ],
      "stateMutability": "view",
      "type": "function"
    },
    {
      "inputs": [
        {
          "internalType": "address",
          "name": "from",
          "type": "address"
        },
        {
          "internalType": "address",
          "name": "to",
          "type": "address"
        },
        {
          "internalType": "uint256",
          "name": "tokenId",
          "type": "uint256"
        }
      ],
      "name": "transferFrom",
      "outputs": [],
      "stateMutability": "nonpayable",
      "type": "function"
    },
    {
      "inputs": [
        {
          "internalType": "uint256",
          "name": "listingId",
          "type": "uint256"
        }
      ],
      "name": "withdrawBid",
      "outputs": [],
      "stateMutability": "payable",
      "type": "function"
    }
  ],
  "bytecode": "0x6080604052600a6012553480156200001657600080fd5b50604080518082018252601581527f506f6c79676f6e4e46544d61726b6574706c61636500000000000000000000006020808301918252835180850190945260048452634441524b60e01b90840152815191929162000078916000916200009c565b5080516200008e9060019060208401906200009c565b50506001600755506200017f565b828054620000aa9062000142565b90600052602060002090601f016020900481019282620000ce576000855562000119565b82601f10620000e957805160ff191683800117855562000119565b8280016001018555821562000119579182015b8281111562000119578251825591602001919060010190620000fc565b50620001279291506200012b565b5090565b5b808211156200012757600081556001016200012c565b600181811c908216806200015757607f821691505b602082108114156200017957634e487b7160e01b600052602260045260246000fd5b50919050565b614438806200018f6000396000f3fe60806040526004361061031a5760003560e01c806370a08231116101ab578063adc2524c116100f7578063e57a497a11610095578063e985e9c51161006f578063e985e9c514610a80578063edf2ebcc14610ac9578063f67a769c14610ae0578063fad266fe14610af557600080fd5b8063e57a497a146109db578063e5afe4d114610a12578063e877d3f814610a5357600080fd5b8063b88d4fde116100d1578063b88d4fde14610930578063c750cb7914610950578063c87b56dd14610986578063de74e57b146109a657600080fd5b8063adc2524c146108a7578063b27dce81146108ec578063b820a6d11461090e57600080fd5b806395d89b4111610164578063a22cb4651161013e578063a22cb46514610844578063a4fdb63514610864578063a71ffa761461087b578063a9c63aa01461089257600080fd5b806395d89b41146108075780639b1225c41461081c5780639d6e5fb31461082f57600080fd5b806370a082311461073a578063732e8d731461075a578063740db2801461076f5780637aea3738146107845780638055ccaa146107b157806392a374b7146107e757600080fd5b8063330241001161026a5780634945dcdd116102235780636352211e116101fd5780636352211e146106705780636b8c91cb146106905780636c2c9c7d1461070d578063708d4d351461072457600080fd5b80634945dcdd1461062457806359be5e4514610646578063629cb2e41461065b57600080fd5b806333024100146104f2578063356e93921461058357806336ad658f146105a457806342842e0e146105bb578063451df52e146105db578063454a2ab31461061157600080fd5b80630cb5f653116102d757806321b62886116102b157806321b628861461047657806323b872dd1461048957806324f8515b146104a9578063287906b5146104d057600080fd5b80630cb5f653146104105780630eaaf4c8146104305780631389b1171461044357600080fd5b806301ffc9a71461031f57806306fdde0314610354578063081812fc14610376578063095ea7b3146103ae5780630ad48628146103d05780630ad52cc6146103f0575b600080fd5b34801561032b57600080fd5b5061033f61033a366004613cf9565b610b0c565b60405190151581526020015b60405180910390f35b34801561036057600080fd5b50610369610b37565b60405161034b919061415f565b34801561038257600080fd5b50610396610391366004613d9b565b610bc9565b6040516001600160a01b03909116815260200161034b565b3480156103ba57600080fd5b506103ce6103c9366004613cd0565b610bf0565b005b3480156103dc57600080fd5b5061033f6103eb366004613d9b565b610d0b565b3480156103fc57600080fd5b5061036961040b366004613d9b565b610d3f565b34801561041c57600080fd5b506103ce61042b366004613b96565b610dd9565b6103ce61043e366004613d9b565b610e99565b34801561044f57600080fd5b5061033f61045e366004613d9b565b60009081526013602052604090206006015442101590565b6103ce610484366004613d9b565b611086565b34801561049557600080fd5b506103ce6104a4366004613be2565b61131a565b3480156104b557600080fd5b506104be600181565b60405160ff909116815260200161034b565b3480156104dc57600080fd5b506104e561134b565b60405161034b9190613fb2565b3480156104fe57600080fd5b5061054d61050d366004613d9b565b600f602052600090815260409020805460018201546002830154600390930154919290916001600160a01b0391821691811690600160a01b900460ff1685565b6040805195865260208601949094526001600160a01b03928316938501939093521660608301521515608082015260a00161034b565b610596610591366004613d31565b6115ee565b60405190815260200161034b565b3480156105b057600080fd5b506008546105969081565b3480156105c757600080fd5b506103ce6105d6366004613be2565b6117c3565b3480156105e757600080fd5b506103966105f6366004613d9b565b6014602052600090815260409020546001600160a01b031681565b6103ce61061f366004613d9b565b6117de565b34801561063057600080fd5b50610639611b2c565b60405161034b91906140a1565b34801561065257600080fd5b50610596611de0565b34801561066757600080fd5b506104e5611df0565b34801561067c57600080fd5b5061039661068b366004613d9b565b61209c565b34801561069c57600080fd5b506106de6106ab366004613d9b565b6016602052600090815260409020805460018201546002830154600390930154919290916001600160a01b039091169084565b60405161034b949392919093845260208401929092526001600160a01b03166040830152606082015260800190565b34801561071957600080fd5b50600b546105969081565b34801561073057600080fd5b5061059660125481565b34801561074657600080fd5b50610596610755366004613b96565b6120fc565b34801561076657600080fd5b506104e5612182565b34801561077b57600080fd5b506104be600081565b34801561079057600080fd5b5061059661079f366004613d9b565b60009081526015602052604090205490565b3480156107bd57600080fd5b506103966107cc366004613d9b565b6011602052600090815260409020546001600160a01b031681565b3480156107f357600080fd5b50610596610802366004613dd4565b61241a565b34801561081357600080fd5b50610369612584565b6103ce61082a366004613d9b565b612593565b34801561083b57600080fd5b5061059661278c565b34801561085057600080fd5b506103ce61085f366004613c96565b612797565b34801561087057600080fd5b50600c546105969081565b34801561088757600080fd5b50600d546105969081565b34801561089e57600080fd5b506105966127a6565b3480156108b357600080fd5b506103ce6108c2366004613db3565b6000908152600e602052604090206001810191909155600601805462ff0000191662010000179055565b3480156108f857600080fd5b506109016127b1565b60405161034b9190613f41565b34801561091a57600080fd5b506109236129a7565b60405161034b9190613ed4565b34801561093c57600080fd5b506103ce61094b366004613c1d565b612b7c565b34801561095c57600080fd5b5061039661096b366004613d9b565b6000908152601460205260409020546001600160a01b031690565b34801561099257600080fd5b506103696109a1366004613d9b565b612bb4565b3480156109b257600080fd5b506109c66109c1366004613d9b565b612cbd565b60405161034b99989796959493929190614256565b3480156109e757600080fd5b506109fb6109f6366004613d9b565b612d9c565b60405161034b9b9a999897969594939291906142b4565b348015610a1e57600080fd5b506103ce610a2d366004613d9b565b6000908152600e60205260409020600601805464ff000000001916640100000000179055565b348015610a5f57600080fd5b50610596610a6e366004613d9b565b60156020526000908152604090205481565b348015610a8c57600080fd5b5061033f610a9b366004613bb0565b6001600160a01b03918216600090815260056020908152604080832093909416825291909152205460ff1690565b348015610ad557600080fd5b506009546105969081565b348015610aec57600080fd5b50610596612e97565b348015610b0157600080fd5b50600a546105969081565b60006001600160e01b03198216632483248360e11b1480610b315750610b3182612ea2565b92915050565b606060008054610b469061436a565b80601f0160208091040260200160405190810160405280929190818152602001828054610b729061436a565b8015610bbf5780601f10610b9457610100808354040283529160200191610bbf565b820191906000526020600020905b815481529060010190602001808311610ba257829003601f168201915b5050505050905090565b6000610bd482612ef2565b506000908152600460205260409020546001600160a01b031690565b6000610bfb8261209c565b9050806001600160a01b0316836001600160a01b03161415610c6e5760405162461bcd60e51b815260206004820152602160248201527f4552433732313a20617070726f76616c20746f2063757272656e74206f776e656044820152603960f91b60648201526084015b60405180910390fd5b336001600160a01b0382161480610c8a5750610c8a8133610a9b565b610cfc5760405162461bcd60e51b815260206004820152603d60248201527f4552433732313a20617070726f76652063616c6c6572206973206e6f7420746f60448201527f6b656e206f776e6572206f7220617070726f76656420666f7220616c6c0000006064820152608401610c65565b610d068383612f51565b505050565b6000818152601360205260408120600801546001148015610b31575050600090815260136020526040902060060154421090565b60106020526000908152604090208054610d589061436a565b80601f0160208091040260200160405190810160405280929190818152602001828054610d849061436a565b8015610dd15780601f10610da657610100808354040283529160200191610dd1565b820191906000526020600020905b815481529060010190602001808311610db457829003601f168201915b505050505081565b6000610de4600d5490565b90506000805b82811015610e4b576001600160a01b03841660116000610e0b846001614326565b81526020810191909152604001600020546001600160a01b03161415610e3957610e36600183614326565b91505b80610e43816143a5565b915050610dea565b5080610d0657610e5f600d80546001019055565b6000610e6a600d5490565b600090815260116020526040902080546001600160a01b0386166001600160a01b031990911617905550505050565b610ea1612fbf565b600081815260136020526040902060060154421015610efa5760405162461bcd60e51b8152602060048201526015602482015274185d58dd1a5bdb881b5d5cdd08189948195b991959605a1b6044820152606401610c65565b6000818152601460205260409020546001600160a01b0316331415610f6c5760405162461bcd60e51b815260206004820152602260248201527f68696768657374206269646465722063616e6e6f7420776974686472617720626044820152611a5960f21b6064820152608401610c65565b6000610f77600c5490565b90506000805b82811015611048573360166000610f95846001614326565b81526020810191909152604001600020600201546001600160a01b0316148015610fde575060166000610fc9836001614326565b81526020019081526020016000206001015484145b156110365760166000610ff2836001614326565b8152602001908152602001600020600301548261100f9190614326565b91506000601681611021846001614326565b81526020810191909152604001600020600301555b80611040816143a5565b915050610f7d565b50604051339082156108fc029083906000818181858888f19350505050158015611076573d6000803e3d6000fd5b5050506110836001600755565b50565b61108e612fbf565b61109781610d0b565b156110dc5760405162461bcd60e51b815260206004820152601560248201527430bab1ba34b7b71034b99039ba34b6361037b832b760591b6044820152606401610c65565b600081815260136020908152604080832060149092529091205460018201546001600160a01b03918216911633148061111d5750336001600160a01b038216145b61117c5760405162461bcd60e51b815260206004820152602a60248201527f6f6e6c792073656c6c6572206f722077696e6e65722063616e20636f6d706c656044820152693a329030bab1ba34b7b760b11b6064820152608401610c65565b6000838152601560205260409020546002830154816111c257600060088501819055818152600e6020526040812060068101805463ff000000191690556002015561130c565b600184015460028501546001600160a01b03909116906111e59082908690613019565b6040516001600160a01b0382169084156108fc029085906000818181858888f1935050505015801561121b573d6000803e3d6000fd5b5061122a600980546001019055565b600061123560095490565b6040805160a08101825285815260208082018881526001600160a01b0396871683850190815233606085019081526001608086018181526000988952600f865287892096518755935186820155915160028087018054928c166001600160a01b031993841617905591516003909601805494511515600160a01b026001600160a81b0319909516968b1696909617939093179094558b018054978b1697821688179055878552600e9091529183206004810180549093169095179091556008880182905583015550600601805463ff000000191690555b505050506110836001600755565b611324338261317d565b6113405760405162461bcd60e51b8152600401610c6590614172565b610d06838383613019565b6060600061135860085490565b905060008060005b838110156113b157600e6000611377836001614326565b8152602001908152602001600020600501546001141561139f5761139c600184614326565b92505b6113aa600182614326565b9050611360565b5060008267ffffffffffffffff8111156113db57634e487b7160e01b600052604160045260246000fd5b60405190808252806020026020018201604052801561141457816020015b6114016139f1565b8152602001906001900390816113f95790505b50905060005b848110156115e5576000600e81611432846001614326565b81526020019081526020016000209050600e60008360016114539190614326565b815260200190815260200160002060050154600114156115d25780604051806101600160405290816000820154815260200160018201548152602001600282015481526020016003820180546114a89061436a565b80601f01602080910402602001604051908101604052809291908181526020018280546114d49061436a565b80156115215780601f106114f657610100808354040283529160200191611521565b820191906000526020600020905b81548152906001019060200180831161150457829003601f168201915b505050918352505060048201546001600160a01b031660208201526005820154604082015260069091015460ff8082161515606084015261010082048116151560808401526201000082048116151560a0840152630100000082048116151560c084015264010000000090910416151560e09091015283518490869081106115b957634e487b7160e01b600052603260045260246000fd5b60209081029190910101526115cf600185614326565b93505b506115de600182614326565b905061141a565b50949350505050565b6000806115fa60085490565b90508061160657611760565b606060005b8281101561175d5760106000611622836001614326565b8152602001908152602001600020805461163b9061436a565b80601f01602080910402602001604051908101604052809291908181526020018280546116679061436a565b80156116b45780601f10611689576101008083540402835291602001916116b4565b820191906000526020600020905b81548152906001019060200180831161169757829003601f168201915b50505050509150856040516020016116cc9190613e4c565b60405160208183030381529060405280519060200120826040516020016116f39190613e4c565b60405160208183030381529060405280519060200120141561174b5760405162461bcd60e51b815260206004820152601160248201527013919508185b1c9958591e48195e1a5cdd607a1b6044820152606401610c65565b80611755816143a5565b91505061160b565b50505b61176e600880546001019055565b600061177960085490565b905061178533826131fb565b61178f8187613215565b600081815260106020908152604090912086516117ae92880190613a4c565b506117ba8185876132e7565b95945050505050565b610d0683838360405180602001604052806000815250612b7c565b6117e6612fbf565b6117ef81610d0b565b61182f5760405162461bcd60e51b8152602060048201526011602482015270185d58dd1a5bdb881a185cc8195b991959607a1b6044820152606401610c65565b600081815260136020526040902060030154341161188f5760405162461bcd60e51b815260206004820152601f60248201527f56616c756520697320736d616c6c6572207468616e206269642076616c7565006044820152606401610c65565b6000818152601360205260409020600101546001600160a01b03163314156118f95760405162461bcd60e51b815260206004820152601a60248201527f796f752063616e27742062696420796f7572206f776e206e66740000000000006044820152606401610c65565b60008060005b600c54811015611a3a5760166000611918836001614326565b81526020810191909152604001600020600201546001600160a01b03163314801561196257506016600061194d836001614326565b81526020019081526020016000206001015484145b15611a28573460166000611977846001614326565b815260200190815260200160002060030160008282546119979190614326565b909155505060008481526015602052604081205460019450925082906016906119c08487614326565b8152602001908152602001600020600301541115611a2857600084815260146020526040812080546001600160a01b03191633179055601690611a04836001614326565b81526020808201929092526040908101600090812060030154878252601590935220555b80611a32816143a5565b9150506118ff565b5081611b1757611a4e600c80546001019055565b6000611a59600c5490565b6040805160808101825260008781526013602090815283822060029081015484528184018a8152338587019081523460608701818152898752601686528887209751885592516001880155905192860180546001600160a01b0319166001600160a01b0390941693909317909255516003909401939093558882526015905291909120549350909150821015611b1557600084815260146020908152604080832080546001600160a01b03191633179055601590915290203490555b505b611b2033610dd9565b50506110836001600755565b60606000611b39600b5490565b905060008060005b83811015611b915760136000611b58836001614326565b815260200190815260200160002060030154600014611b7f57611b7c600184614326565b92505b611b8a600182614326565b9050611b41565b5060008267ffffffffffffffff811115611bbb57634e487b7160e01b600052604160045260246000fd5b604051908082528060200260200182016040528015611c4457816020015b611c316040518061012001604052806000815260200160006001600160a01b03168152602001600081526020016000815260200160008152602001600081526020016000815260200160608152602001600081525090565b815260200190600190039081611bd95790505b50905060005b848110156115e5576000601381611c62846001614326565b8152602001908152602001600020905060136000836001611c839190614326565b815260200190815260200160002060030154600014611dcd5760408051610120810182528254815260018301546001600160a01b031660208201526002830154918101919091526003820154606082015260048201546080820152600582015460a0820152600682015460c0820152600782018054839160e0840191611d089061436a565b80601f0160208091040260200160405190810160405280929190818152602001828054611d349061436a565b8015611d815780601f10611d5657610100808354040283529160200191611d81565b820191906000526020600020905b815481529060010190602001808311611d6457829003601f168201915b50505050508152602001600882015481525050838581518110611db457634e487b7160e01b600052603260045260246000fd5b6020908102919091010152611dca600185614326565b93505b50611dd9600182614326565b9050611c4a565b6000611deb60095490565b905090565b60606000611dfd60085490565b9050600080805b83811015611e5f5733600e6000611e1c846001614326565b81526020810191909152604001600020600401546001600160a01b03161415611e4d5781611e49816143a5565b9250505b80611e57816143a5565b915050611e04565b5060008167ffffffffffffffff811115611e8957634e487b7160e01b600052604160045260246000fd5b604051908082528060200260200182016040528015611ec257816020015b611eaf6139f1565b815260200190600190039081611ea75790505b50905060005b848110156115e55733600e6000611ee0846001614326565b81526020810191909152604001600020600401546001600160a01b0316141561208a576000600e81611f13846001614326565b815260200190815260200160002090508060405180610160016040529081600082015481526020016001820154815260200160028201548152602001600382018054611f5e9061436a565b80601f0160208091040260200160405190810160405280929190818152602001828054611f8a9061436a565b8015611fd75780601f10611fac57610100808354040283529160200191611fd7565b820191906000526020600020905b815481529060010190602001808311611fba57829003601f168201915b505050918352505060048201546001600160a01b031660208201526005820154604082015260069091015460ff8082161515606084015261010082048116151560808401526201000082048116151560a0840152630100000082048116151560c084015264010000000090910416151560e090910152835184908790811061206f57634e487b7160e01b600052603260045260246000fd5b60200260200101819052508480612085906143a5565b955050505b80612094816143a5565b915050611ec8565b6000818152600260205260408120546001600160a01b031680610b315760405162461bcd60e51b8152602060048201526018602482015277115490cdcc8c4e881a5b9d985b1a59081d1bdad95b88125160421b6044820152606401610c65565b60006001600160a01b0382166121665760405162461bcd60e51b815260206004820152602960248201527f4552433732313a2061646472657373207a65726f206973206e6f7420612076616044820152683634b21037bbb732b960b91b6064820152608401610c65565b506001600160a01b031660009081526003602052604090205490565b6060600061218f60085490565b905060008060005b838110156121e757600e60006121ae836001614326565b8152602001908152602001600020600101546000146121d5576121d2600184614326565b92505b6121e0600182614326565b9050612197565b5060008267ffffffffffffffff81111561221157634e487b7160e01b600052604160045260246000fd5b60405190808252806020026020018201604052801561224a57816020015b6122376139f1565b81526020019060019003908161222f5790505b50905060005b848110156115e5576000600e81612268846001614326565b81526020019081526020016000209050600e60008360016122899190614326565b8152602001908152602001600020600101546000146124075780604051806101600160405290816000820154815260200160018201548152602001600282015481526020016003820180546122dd9061436a565b80601f01602080910402602001604051908101604052809291908181526020018280546123099061436a565b80156123565780601f1061232b57610100808354040283529160200191612356565b820191906000526020600020905b81548152906001019060200180831161233957829003601f168201915b505050918352505060048201546001600160a01b031660208201526005820154604082015260069091015460ff8082161515606084015261010082048116151560808401526201000082048116151560a0840152630100000082048116151560c084015264010000000090910416151560e09091015283518490869081106123ee57634e487b7160e01b600052603260045260246000fd5b6020908102919091010152612404600185614326565b93505b50612413600182614326565b9050612250565b600061242a600b80546001019055565b6000612435600b5490565b90504260006124448683614326565b905087600e600089815260200190815260200160002060020181905550604051806101200160405280848152602001336001600160a01b03168152602001888152602001898152602001898152602001838152602001828152602001868152602001600160ff16815250601360008581526020019081526020016000206000820151816000015560208201518160010160006101000a8154816001600160a01b0302191690836001600160a01b0316021790555060408201518160020155606082015181600301556080820151816004015560a0820151816005015560c0820151816006015560e0820151816007019080519060200190612546929190613a4c565b50610100919091015160089091015550506000858152600e60205260409020600601805463ff0000001916630100000017905590505b949350505050565b606060018054610b469061436a565b6000818152600e6020526040902060018101546004909101546001600160a01b03163314156126045760405162461bcd60e51b815260206004820152601a60248201527f796f752063616e27742062757920796f7572206f776e206e66740000000000006044820152606401610c65565b6000828152600e60205260409020600401546001600160a01b031661262a813385613019565b6126348184610bf0565b6000838152600e60205260408082206004810180546001600160a01b03191633179055600601805461010161ffff19909116179055516001600160a01b038316913480156108fc02929091818181858888f1935050505015801561269c573d6000803e3d6000fd5b506126ab600980546001019055565b60006126b660095490565b6040805160a08101825286815260208082018781526001600160a01b03808816848601908152336060860181815260016080880181815260008b8152600f89528a812099518a5596518983015593516002890180549187166001600160a01b031990921691909117905590516003909701805493511515600160a01b026001600160a81b0319909416979094169690961791909117909155898252600e9092529283209091019190915590915061276c90610dd9565b5050506000908152600e60205260409020600601805462ff000019169055565b6000611deb600c5490565b6127a2338383613430565b5050565b6000611deb600d5490565b606060006127be60095490565b9050600080805b838110156128205733600f60006127dd846001614326565b81526020810191909152604001600020600201546001600160a01b0316141561280e578161280a816143a5565b9250505b80612818816143a5565b9150506127c5565b5060008167ffffffffffffffff81111561284a57634e487b7160e01b600052604160045260246000fd5b6040519080825280602002602001820160405280156128a357816020015b6040805160a0810182526000808252602080830182905292820181905260608201819052608082015282526000199092019101816128685790505b50905060005b848110156115e55733600f60006128c1846001614326565b81526020810191909152604001600020600201546001600160a01b03161415612995576000600f816128f4846001614326565b81526020808201929092526040908101600020815160a0810183528154815260018201549381019390935260028101546001600160a01b039081169284019290925260038101549182166060840152600160a01b90910460ff1615156080830152845190925084908790811061297a57634e487b7160e01b600052603260045260246000fd5b60200260200101819052508480612990906143a5565b955050505b8061299f816143a5565b9150506128a9565b606060006129b4600c5490565b9050600080805b83811015612a0b57601660006129d2836001614326565b8152602001908152602001600020600301546000146129f957816129f5816143a5565b9250505b80612a03816143a5565b9150506129bb565b5060008167ffffffffffffffff811115612a3557634e487b7160e01b600052604160045260246000fd5b604051908082528060200260200182016040528015612a9a57816020015b612a876040518060800160405280600081526020016000815260200160006001600160a01b03168152602001600081525090565b815260200190600190039081612a535790505b50905060005b848110156115e55760166000612ab7836001614326565b815260200190815260200160002060030154600014612b6a576000601681612ae0846001614326565b8152602080820192909252604090810160002081516080810183528154815260018201549381019390935260028101546001600160a01b031691830191909152600381015460608301528451909250849087908110612b4f57634e487b7160e01b600052603260045260246000fd5b60200260200101819052508480612b65906143a5565b955050505b80612b74816143a5565b915050612aa0565b612b86338361317d565b612ba25760405162461bcd60e51b8152600401610c6590614172565b612bae848484846134ff565b50505050565b6060612bbf82612ef2565b60008281526006602052604081208054612bd89061436a565b80601f0160208091040260200160405190810160405280929190818152602001828054612c049061436a565b8015612c515780601f10612c2657610100808354040283529160200191612c51565b820191906000526020600020905b815481529060010190602001808311612c3457829003601f168201915b505050505090506000612c6f60408051602081019091526000815290565b9050805160001415612c82575092915050565b815115612cb4578082604051602001612c9c929190613e68565b60405160208183030381529060405292505050919050565b61257c84613532565b6013602052600090815260409020805460018201546002830154600384015460048501546005860154600687015460078801805497986001600160a01b03909716979596949593949293919291612d139061436a565b80601f0160208091040260200160405190810160405280929190818152602001828054612d3f9061436a565b8015612d8c5780601f10612d6157610100808354040283529160200191612d8c565b820191906000526020600020905b815481529060010190602001808311612d6f57829003601f168201915b5050505050908060080154905089565b600e60205260009081526040902080546001820154600283015460038401805493949293919291612dcc9061436a565b80601f0160208091040260200160405190810160405280929190818152602001828054612df89061436a565b8015612e455780601f10612e1a57610100808354040283529160200191612e45565b820191906000526020600020905b815481529060010190602001808311612e2857829003601f168201915b5050506004840154600585015460069095015493946001600160a01b039091169390925060ff80821692506101008204811691620100008104821691630100000082048116916401000000009004168b565b6000611deb60085490565b60006001600160e01b031982166380ac58cd60e01b1480612ed357506001600160e01b03198216635b5e139f60e01b145b80610b3157506301ffc9a760e01b6001600160e01b0319831614610b31565b6000818152600260205260409020546001600160a01b03166110835760405162461bcd60e51b8152602060048201526018602482015277115490cdcc8c4e881a5b9d985b1a59081d1bdad95b88125160421b6044820152606401610c65565b600081815260046020526040902080546001600160a01b0319166001600160a01b0384169081179091558190612f868261209c565b6001600160a01b03167f8c5be1e5ebec7d5bd14f71427d1e84f3dd0314c0f7b2291e5b200ac8c7c3b92560405160405180910390a45050565b600260075414156130125760405162461bcd60e51b815260206004820152601f60248201527f5265656e7472616e637947756172643a207265656e7472616e742063616c6c006044820152606401610c65565b6002600755565b826001600160a01b031661302c8261209c565b6001600160a01b0316146130525760405162461bcd60e51b8152600401610c6590614211565b6001600160a01b0382166130b45760405162461bcd60e51b8152602060048201526024808201527f4552433732313a207472616e7366657220746f20746865207a65726f206164646044820152637265737360e01b6064820152608401610c65565b826001600160a01b03166130c78261209c565b6001600160a01b0316146130ed5760405162461bcd60e51b8152600401610c6590614211565b600081815260046020908152604080832080546001600160a01b03199081169091556001600160a01b0387811680865260038552838620805460001901905590871680865283862080546001019055868652600290945282852080549092168417909155905184937fddf252ad1be2c89b69c2b068fc378daa952ba7f163c4a11628f55a4df523b3ef91a4505050565b6000806131898361209c565b9050806001600160a01b0316846001600160a01b031614806131d057506001600160a01b0380821660009081526005602090815260408083209388168352929052205460ff165b8061257c5750836001600160a01b03166131e984610bc9565b6001600160a01b031614949350505050565b6127a28282604051806020016040528060008152506135a6565b6000828152600260205260409020546001600160a01b03166132905760405162461bcd60e51b815260206004820152602e60248201527f45524337323155524953746f726167653a2055524920736574206f66206e6f6e60448201526d32bc34b9ba32b73a103a37b5b2b760911b6064820152608401610c65565b600082815260066020908152604090912082516132af92840190613a4c565b506040518281527ff8e1a15aba9398e019f0b49df1a4fde98ee17ae345cb5f6b5e2c27f5033e8ce79060200160405180910390a15050565b6040805161016081018252848152600060208083018281528385018381526060850187815233608087015260a0860189905260c0860185905260e08601859052610100860185905261012086018590526101408601859052898552600e84529590932084518155905160018201559151600283015592518051929391926133749260038501920190613a4c565b5060808201516004820180546001600160a01b0319166001600160a01b0390921691909117905560a0820151600582015560c08201516006909101805460e0840151610100808601516101208701516101409097015161ffff1990941695151561ff00191695909517911515021763ffff00001916620100009315159390930263ff0000001916929092176301000000931515939093029290921764ff00000000191664010000000091151591909102179055610d0633610dd9565b816001600160a01b0316836001600160a01b031614156134925760405162461bcd60e51b815260206004820152601960248201527f4552433732313a20617070726f766520746f2063616c6c6572000000000000006044820152606401610c65565b6001600160a01b03838116600081815260056020908152604080832094871680845294825291829020805460ff191686151590811790915591519182527f17307eab39ab6107e8899845ad3d59bd9653f200f220920489ca2b5937696c31910160405180910390a3505050565b61350a848484613019565b613516848484846135d9565b612bae5760405162461bcd60e51b8152600401610c65906141bf565b606061353d82612ef2565b600061355460408051602081019091526000815290565b90506000815111613574576040518060200160405280600081525061359f565b8061357e846136e3565b60405160200161358f929190613e68565b6040516020818303038152906040525b9392505050565b6135b0838361378e565b6135bd60008484846135d9565b610d065760405162461bcd60e51b8152600401610c65906141bf565b60006001600160a01b0384163b156136db57604051630a85bd0160e11b81526001600160a01b0385169063150b7a029061361d903390899088908890600401613e97565b602060405180830381600087803b15801561363757600080fd5b505af1925050508015613667575060408051601f3d908101601f1916820190925261366491810190613d15565b60015b6136c1573d808015613695576040519150601f19603f3d011682016040523d82523d6000602084013e61369a565b606091505b5080516136b95760405162461bcd60e51b8152600401610c65906141bf565b805181602001fd5b6001600160e01b031916630a85bd0160e11b14905061257c565b50600161257c565b606060006136f083613919565b600101905060008167ffffffffffffffff81111561371e57634e487b7160e01b600052604160045260246000fd5b6040519080825280601f01601f191660200182016040528015613748576020820181803683370190505b5090508181016020015b600019016f181899199a1a9b1b9c1cb0b131b232b360811b600a86061a8153600a850494508461378157613786565b613752565b509392505050565b6001600160a01b0382166137e45760405162461bcd60e51b815260206004820181905260248201527f4552433732313a206d696e7420746f20746865207a65726f20616464726573736044820152606401610c65565b6000818152600260205260409020546001600160a01b0316156138495760405162461bcd60e51b815260206004820152601c60248201527f4552433732313a20746f6b656e20616c7265616479206d696e746564000000006044820152606401610c65565b6000818152600260205260409020546001600160a01b0316156138ae5760405162461bcd60e51b815260206004820152601c60248201527f4552433732313a20746f6b656e20616c7265616479206d696e746564000000006044820152606401610c65565b6001600160a01b038216600081815260036020908152604080832080546001019055848352600290915280822080546001600160a01b0319168417905551839291907fddf252ad1be2c89b69c2b068fc378daa952ba7f163c4a11628f55a4df523b3ef908290a45050565b60008072184f03e93ff9f4daa797ed6e38ed64bf6a1f0160401b83106139585772184f03e93ff9f4daa797ed6e38ed64bf6a1f0160401b830492506040015b6d04ee2d6d415b85acef81000000008310613984576d04ee2d6d415b85acef8100000000830492506020015b662386f26fc1000083106139a257662386f26fc10000830492506010015b6305f5e10083106139ba576305f5e100830492506008015b61271083106139ce57612710830492506004015b606483106139e0576064830492506002015b600a8310610b315760010192915050565b60408051610160810182526000808252602082018190529181018290526060808201526080810182905260a0810182905260c0810182905260e081018290526101008101829052610120810182905261014081019190915290565b828054613a589061436a565b90600052602060002090601f016020900481019282613a7a5760008555613ac0565b82601f10613a9357805160ff1916838001178555613ac0565b82800160010185558215613ac0579182015b82811115613ac0578251825591602001919060010190613aa5565b50613acc929150613ad0565b5090565b5b80821115613acc5760008155600101613ad1565b600067ffffffffffffffff80841115613b0057613b006143d6565b604051601f8501601f19908116603f01168101908282118183101715613b2857613b286143d6565b81604052809350858152868686011115613b4157600080fd5b858560208301376000602087830101525050509392505050565b80356001600160a01b0381168114613b7257600080fd5b919050565b600082601f830112613b87578081fd5b61359f83833560208501613ae5565b600060208284031215613ba7578081fd5b61359f82613b5b565b60008060408385031215613bc2578081fd5b613bcb83613b5b565b9150613bd960208401613b5b565b90509250929050565b600080600060608486031215613bf6578081fd5b613bff84613b5b565b9250613c0d60208501613b5b565b9150604084013590509250925092565b60008060008060808587031215613c32578081fd5b613c3b85613b5b565b9350613c4960208601613b5b565b925060408501359150606085013567ffffffffffffffff811115613c6b578182fd5b8501601f81018713613c7b578182fd5b613c8a87823560208401613ae5565b91505092959194509250565b60008060408385031215613ca8578182fd5b613cb183613b5b565b915060208301358015158114613cc5578182fd5b809150509250929050565b60008060408385031215613ce2578182fd5b613ceb83613b5b565b946020939093013593505050565b600060208284031215613d0a578081fd5b813561359f816143ec565b600060208284031215613d26578081fd5b815161359f816143ec565b600080600060608486031215613d45578283fd5b833567ffffffffffffffff80821115613d5c578485fd5b613d6887838801613b77565b94506020860135915080821115613d7d578384fd5b50613d8a86828701613b77565b925050604084013590509250925092565b600060208284031215613dac578081fd5b5035919050565b60008060408385031215613dc5578182fd5b50508035926020909101359150565b60008060008060808587031215613de9578384fd5b843593506020850135925060408501359150606085013567ffffffffffffffff811115613e14578182fd5b613c8a87828801613b77565b60008151808452613e3881602086016020860161433e565b601f01601f19169290920160200192915050565b60008251613e5e81846020870161433e565b9190910192915050565b60008351613e7a81846020880161433e565b835190830190613e8e81836020880161433e565b01949350505050565b6001600160a01b0385811682528416602082015260408101839052608060608201819052600090613eca90830184613e20565b9695505050505050565b602080825282518282018190526000919060409081850190868401855b82811015613f34578151805185528681015187860152858101516001600160a01b0316868601526060908101519085015260809093019290850190600101613ef1565b5091979650505050505050565b602080825282518282018190526000919060409081850190868401855b82811015613f34578151805185528681015187860152858101516001600160a01b03908116878701526060808301519091169086015260809081015115159085015260a09093019290850190600101613f5e565b60006020808301818452808551808352604092508286019150828160051b870101848801865b8381101561409357603f1989840301855281516101608151855288820151898601528782015188860152606080830151828288015261401983880182613e20565b92505050608080830151614037828801826001600160a01b03169052565b505060a0828101519086015260c08083015115159086015260e080830151151590860152610100808301511515908601526101208083015115159086015261014091820151151591909401529386019390860190600101613fd8565b509098975050505050505050565b60006020808301818452808551808352604092508286019150828160051b870101848801865b8381101561409357603f19898403018552815180518452878101516001600160a01b0316888501528681015187850152606080820151908501526080808201519085015260a0808201519085015260c0808201519085015260e080820151610120828701819052919061413c83880182613e20565b6101009485015197909401969096525050948701949250908601906001016140c7565b60208152600061359f6020830184613e20565b6020808252602d908201527f4552433732313a2063616c6c6572206973206e6f7420746f6b656e206f776e6560408201526c1c881bdc88185c1c1c9bdd9959609a1b606082015260800190565b60208082526032908201527f4552433732313a207472616e7366657220746f206e6f6e20455243373231526560408201527131b2b4bb32b91034b6b83632b6b2b73a32b960711b606082015260800190565b60208082526025908201527f4552433732313a207472616e736665722066726f6d20696e636f72726563742060408201526437bbb732b960d91b606082015260800190565b60006101208b835260018060a01b038b1660208401528960408401528860608401528760808401528660a08401528560c08401528060e084015261429c81840186613e20565b915050826101008301529a9950505050505050505050565b60006101608d83528c60208401528b60408401528060608401526142da8184018c613e20565b6001600160a01b039a909a166080840152505060a081019690965293151560c086015291151560e085015215156101008401521515610120830152151561014090910152949350505050565b60008219821115614339576143396143c0565b500190565b60005b83811015614359578181015183820152602001614341565b83811115612bae5750506000910152565b600181811c9082168061437e57607f821691505b6020821081141561439f57634e487b7160e01b600052602260045260246000fd5b50919050565b60006000198214156143b9576143b96143c0565b5060010190565b634e487b7160e01b600052601160045260246000fd5b634e487b7160e01b600052604160045260246000fd5b6001600160e01b03198116811461108357600080fdfea2646970667358221220f2cd7814ac1ef01914a9ffcd6e55bd02e9c90eed159187bac0b049735d15531664736f6c63430008040033",
  "linkReferences": {},
  "deployedLinkReferences": {}
}