{
  "_format": "hh-sol-artifact-1",
  "contractName": "PolygonNFTMarketplace",
  "sourceName": "contracts/PolygonNFTMarketplace.sol",
  "abi": [
    {
      "inputs": [],
      "stateMutability": "nonpayable",
      "type": "constructor"
    },
    {
      "anonymous": false,
      "inputs": [
        {
          "indexed": true,
          "internalType": "address",
          "name": "owner",
          "type": "address"
        },
        {
          "indexed": true,
          "internalType": "address",
          "name": "approved",
          "type": "address"
        },
        {
          "indexed": true,
          "internalType": "uint256",
          "name": "tokenId",
          "type": "uint256"
        }
      ],
      "name": "Approval",
      "type": "event"
    },
    {
      "anonymous": false,
      "inputs": [
        {
          "indexed": true,
          "internalType": "address",
          "name": "owner",
          "type": "address"
        },
        {
          "indexed": true,
          "internalType": "address",
          "name": "operator",
          "type": "address"
        },
        {
          "indexed": false,
          "internalType": "bool",
          "name": "approved",
          "type": "bool"
        }
      ],
      "name": "ApprovalForAll",
      "type": "event"
    },
    {
      "anonymous": false,
      "inputs": [
        {
          "indexed": false,
          "internalType": "uint256",
          "name": "_fromTokenId",
          "type": "uint256"
        },
        {
          "indexed": false,
          "internalType": "uint256",
          "name": "_toTokenId",
          "type": "uint256"
        }
      ],
      "name": "BatchMetadataUpdate",
      "type": "event"
    },
    {
      "anonymous": false,
      "inputs": [
        {
          "indexed": false,
          "internalType": "uint256",
          "name": "_tokenId",
          "type": "uint256"
        }
      ],
      "name": "MetadataUpdate",
      "type": "event"
    },
    {
      "anonymous": false,
      "inputs": [
        {
          "indexed": true,
          "internalType": "address",
          "name": "from",
          "type": "address"
        },
        {
          "indexed": true,
          "internalType": "address",
          "name": "to",
          "type": "address"
        },
        {
          "indexed": true,
          "internalType": "uint256",
          "name": "tokenId",
          "type": "uint256"
        }
      ],
      "name": "Transfer",
      "type": "event"
    },
    {
      "inputs": [],
      "name": "BuyCount",
      "outputs": [
        {
          "internalType": "uint256",
          "name": "_value",
          "type": "uint256"
        }
      ],
      "stateMutability": "view",
      "type": "function"
    },
    {
      "inputs": [
        {
          "internalType": "string",
          "name": "tokenURI",
          "type": "string"
        },
        {
          "internalType": "string",
          "name": "imageHash",
          "type": "string"
        },
        {
          "internalType": "uint256",
          "name": "fileType",
          "type": "uint256"
        }
      ],
      "name": "CreateToken",
      "outputs": [
        {
          "internalType": "uint256",
          "name": "",
          "type": "uint256"
        }
      ],
      "stateMutability": "payable",
      "type": "function"
    },
    {
      "inputs": [
        {
          "internalType": "uint256",
          "name": "",
          "type": "uint256"
        }
      ],
      "name": "Creators",
      "outputs": [
        {
          "internalType": "address",
          "name": "",
          "type": "address"
        }
      ],
      "stateMutability": "view",
      "type": "function"
    },
    {
      "inputs": [],
      "name": "CreatorsCount",
      "outputs": [
        {
          "internalType": "uint256",
          "name": "_value",
          "type": "uint256"
        }
      ],
      "stateMutability": "view",
      "type": "function"
    },
    {
      "inputs": [
        {
          "internalType": "uint256",
          "name": "price",
          "type": "uint256"
        },
        {
          "internalType": "uint256",
          "name": "id",
          "type": "uint256"
        }
      ],
      "name": "ListNFT",
      "outputs": [],
      "stateMutability": "nonpayable",
      "type": "function"
    },
    {
      "inputs": [],
      "name": "STATUS_DONE",
      "outputs": [
        {
          "internalType": "uint8",
          "name": "",
          "type": "uint8"
        }
      ],
      "stateMutability": "view",
      "type": "function"
    },
    {
      "inputs": [],
      "name": "STATUS_OPEN",
      "outputs": [
        {
          "internalType": "uint8",
          "name": "",
          "type": "uint8"
        }
      ],
      "stateMutability": "view",
      "type": "function"
    },
    {
      "inputs": [],
      "name": "SoldCount",
      "outputs": [
        {
          "internalType": "uint256",
          "name": "_value",
          "type": "uint256"
        }
      ],
      "stateMutability": "view",
      "type": "function"
    },
    {
      "inputs": [],
      "name": "TokenCount",
      "outputs": [
        {
          "internalType": "uint256",
          "name": "_value",
          "type": "uint256"
        }
      ],
      "stateMutability": "view",
      "type": "function"
    },
    {
      "inputs": [
        {
          "internalType": "address",
          "name": "to",
          "type": "address"
        },
        {
          "internalType": "uint256",
          "name": "tokenId",
          "type": "uint256"
        }
      ],
      "name": "approve",
      "outputs": [],
      "stateMutability": "nonpayable",
      "type": "function"
    },
    {
      "inputs": [
        {
          "internalType": "address",
          "name": "owner",
          "type": "address"
        }
      ],
      "name": "balanceOf",
      "outputs": [
        {
          "internalType": "uint256",
          "name": "",
          "type": "uint256"
        }
      ],
      "stateMutability": "view",
      "type": "function"
    },
    {
      "inputs": [
        {
          "internalType": "uint256",
          "name": "listingId",
          "type": "uint256"
        }
      ],
      "name": "bid",
      "outputs": [],
      "stateMutability": "payable",
      "type": "function"
    },
    {
      "inputs": [],
      "name": "biddingCounter",
      "outputs": [
        {
          "internalType": "uint256",
          "name": "_value",
          "type": "uint256"
        }
      ],
      "stateMutability": "view",
      "type": "function"
    },
    {
      "inputs": [
        {
          "internalType": "uint256",
          "name": "listingId",
          "type": "uint256"
        }
      ],
      "name": "completeAuction",
      "outputs": [],
      "stateMutability": "payable",
      "type": "function"
    },
    {
      "inputs": [
        {
          "internalType": "uint256",
          "name": "price",
          "type": "uint256"
        },
        {
          "internalType": "uint256",
          "name": "tokenId",
          "type": "uint256"
        },
        {
          "internalType": "uint256",
          "name": "deadline",
          "type": "uint256"
        },
        {
          "internalType": "string",
          "name": "aucDate",
          "type": "string"
        }
      ],
      "name": "createAuctionListing",
      "outputs": [
        {
          "internalType": "uint256",
          "name": "",
          "type": "uint256"
        }
      ],
      "stateMutability": "nonpayable",
      "type": "function"
    },
    {
      "inputs": [
        {
          "internalType": "uint256",
          "name": "tokenId",
          "type": "uint256"
        }
      ],
      "name": "executeSale",
      "outputs": [],
      "stateMutability": "payable",
      "type": "function"
    },
    {
      "inputs": [],
      "name": "getAllBiddedNfts",
      "outputs": [
        {
          "components": [
            {
              "internalType": "uint256",
              "name": "biddingId",
              "type": "uint256"
            },
            {
              "internalType": "address payable",
              "name": "seller",
              "type": "address"
            },
            {
              "internalType": "uint256",
              "name": "tokenId",
              "type": "uint256"
            },
            {
              "internalType": "uint256",
              "name": "price",
              "type": "uint256"
            },
            {
              "internalType": "uint256",
              "name": "netPrice",
              "type": "uint256"
            },
            {
              "internalType": "uint256",
              "name": "startAt",
              "type": "uint256"
            },
            {
              "internalType": "uint256",
              "name": "deadline",
              "type": "uint256"
            },
            {
              "internalType": "string",
              "name": "date",
              "type": "string"
            },
            {
              "internalType": "uint256",
              "name": "status",
              "type": "uint256"
            }
          ],
          "internalType": "struct PolygonNFTMarketplace.Listing[]",
          "name": "",
          "type": "tuple[]"
        }
      ],
      "stateMutability": "view",
      "type": "function"
    },
    {
      "inputs": [],
      "name": "getAllBiddingWithListingID",
      "outputs": [
        {
          "components": [
            {
              "internalType": "uint256",
              "name": "tokenId",
              "type": "uint256"
            },
            {
              "internalType": "uint256",
              "name": "biddingId",
              "type": "uint256"
            },
            {
              "internalType": "address",
              "name": "bidder",
              "type": "address"
            },
            {
              "internalType": "uint256",
              "name": "price",
              "type": "uint256"
            }
          ],
          "internalType": "struct PolygonNFTMarketplace.Bidding[]",
          "name": "",
          "type": "tuple[]"
        }
      ],
      "stateMutability": "view",
      "type": "function"
    },
    {
      "inputs": [],
      "name": "getAllImageNfts",
      "outputs": [
        {
          "components": [
            {
              "internalType": "uint256",
              "name": "tokenId",
              "type": "uint256"
            },
            {
              "internalType": "uint256",
              "name": "price",
              "type": "uint256"
            },
            {
              "internalType": "uint256",
              "name": "bidPrice",
              "type": "uint256"
            },
            {
              "internalType": "string",
              "name": "imgHash",
              "type": "string"
            },
            {
              "internalType": "address payable",
              "name": "owner",
              "type": "address"
            },
            {
              "internalType": "uint256",
              "name": "format",
              "type": "uint256"
            },
            {
              "internalType": "bool",
              "name": "NFTsold",
              "type": "bool"
            },
            {
              "internalType": "bool",
              "name": "NFTbought",
              "type": "bool"
            },
            {
              "internalType": "bool",
              "name": "NFTListed",
              "type": "bool"
            },
            {
              "internalType": "bool",
              "name": "NFTBidded",
              "type": "bool"
            }
          ],
          "internalType": "struct PolygonNFTMarketplace.ListedToken[]",
          "name": "",
          "type": "tuple[]"
        }
      ],
      "stateMutability": "view",
      "type": "function"
    },
    {
      "inputs": [],
      "name": "getAllNfts",
      "outputs": [
        {
          "components": [
            {
              "internalType": "uint256",
              "name": "tokenId",
              "type": "uint256"
            },
            {
              "internalType": "uint256",
              "name": "price",
              "type": "uint256"
            },
            {
              "internalType": "uint256",
              "name": "bidPrice",
              "type": "uint256"
            },
            {
              "internalType": "string",
              "name": "imgHash",
              "type": "string"
            },
            {
              "internalType": "address payable",
              "name": "owner",
              "type": "address"
            },
            {
              "internalType": "uint256",
              "name": "format",
              "type": "uint256"
            },
            {
              "internalType": "bool",
              "name": "NFTsold",
              "type": "bool"
            },
            {
              "internalType": "bool",
              "name": "NFTbought",
              "type": "bool"
            },
            {
              "internalType": "bool",
              "name": "NFTListed",
              "type": "bool"
            },
            {
              "internalType": "bool",
              "name": "NFTBidded",
              "type": "bool"
            }
          ],
          "internalType": "struct PolygonNFTMarketplace.ListedToken[]",
          "name": "",
          "type": "tuple[]"
        }
      ],
      "stateMutability": "view",
      "type": "function"
    },
    {
      "inputs": [
        {
          "internalType": "uint256",
          "name": "tokenId",
          "type": "uint256"
        }
      ],
      "name": "getApproved",
      "outputs": [
        {
          "internalType": "address",
          "name": "",
          "type": "address"
        }
      ],
      "stateMutability": "view",
      "type": "function"
    },
    {
      "inputs": [
        {
          "internalType": "uint256",
          "name": "listingId",
          "type": "uint256"
        }
      ],
      "name": "getHighestBidder",
      "outputs": [
        {
          "internalType": "address",
          "name": "",
          "type": "address"
        }
      ],
      "stateMutability": "view",
      "type": "function"
    },
    {
      "inputs": [
        {
          "internalType": "uint256",
          "name": "listingId",
          "type": "uint256"
        }
      ],
      "name": "getHighestBiddingAmount",
      "outputs": [
        {
          "internalType": "uint256",
          "name": "",
          "type": "uint256"
        }
      ],
      "stateMutability": "view",
      "type": "function"
    },
    {
      "inputs": [],
      "name": "getMyNFTs",
      "outputs": [
        {
          "components": [
            {
              "internalType": "uint256",
              "name": "tokenId",
              "type": "uint256"
            },
            {
              "internalType": "uint256",
              "name": "price",
              "type": "uint256"
            },
            {
              "internalType": "uint256",
              "name": "bidPrice",
              "type": "uint256"
            },
            {
              "internalType": "string",
              "name": "imgHash",
              "type": "string"
            },
            {
              "internalType": "address payable",
              "name": "owner",
              "type": "address"
            },
            {
              "internalType": "uint256",
              "name": "format",
              "type": "uint256"
            },
            {
              "internalType": "bool",
              "name": "NFTsold",
              "type": "bool"
            },
            {
              "internalType": "bool",
              "name": "NFTbought",
              "type": "bool"
            },
            {
              "internalType": "bool",
              "name": "NFTListed",
              "type": "bool"
            },
            {
              "internalType": "bool",
              "name": "NFTBidded",
              "type": "bool"
            }
          ],
          "internalType": "struct PolygonNFTMarketplace.ListedToken[]",
          "name": "",
          "type": "tuple[]"
        }
      ],
      "stateMutability": "view",
      "type": "function"
    },
    {
      "inputs": [],
      "name": "getMySoldNFTs",
      "outputs": [
        {
          "components": [
            {
              "internalType": "uint256",
              "name": "tokenId",
              "type": "uint256"
            },
            {
              "internalType": "uint256",
              "name": "price",
              "type": "uint256"
            },
            {
              "internalType": "address payable",
              "name": "owner",
              "type": "address"
            },
            {
              "internalType": "address",
              "name": "newOwner",
              "type": "address"
            },
            {
              "internalType": "bool",
              "name": "NFTsold",
              "type": "bool"
            }
          ],
          "internalType": "struct PolygonNFTMarketplace.ItemsSold[]",
          "name": "",
          "type": "tuple[]"
        }
      ],
      "stateMutability": "view",
      "type": "function"
    },
    {
      "inputs": [],
      "name": "getTotalBiddedTokens",
      "outputs": [
        {
          "internalType": "uint256",
          "name": "",
          "type": "uint256"
        }
      ],
      "stateMutability": "view",
      "type": "function"
    },
    {
      "inputs": [],
      "name": "getTotalMintedTokens",
      "outputs": [
        {
          "internalType": "uint256",
          "name": "",
          "type": "uint256"
        }
      ],
      "stateMutability": "view",
      "type": "function"
    },
    {
      "inputs": [],
      "name": "getTotalSoldTokens",
      "outputs": [
        {
          "internalType": "uint256",
          "name": "",
          "type": "uint256"
        }
      ],
      "stateMutability": "view",
      "type": "function"
    },
    {
      "inputs": [],
      "name": "getTotalUser",
      "outputs": [
        {
          "internalType": "uint256",
          "name": "",
          "type": "uint256"
        }
      ],
      "stateMutability": "view",
      "type": "function"
    },
    {
      "inputs": [
        {
          "internalType": "uint256",
          "name": "",
          "type": "uint256"
        }
      ],
      "name": "highestBidder",
      "outputs": [
        {
          "internalType": "address",
          "name": "",
          "type": "address"
        }
      ],
      "stateMutability": "view",
      "type": "function"
    },
    {
      "inputs": [
        {
          "internalType": "uint256",
          "name": "",
          "type": "uint256"
        }
      ],
      "name": "highestBiddingAmount",
      "outputs": [
        {
          "internalType": "uint256",
          "name": "",
          "type": "uint256"
        }
      ],
      "stateMutability": "view",
      "type": "function"
    },
    {
      "inputs": [
        {
          "internalType": "uint256",
          "name": "",
          "type": "uint256"
        }
      ],
      "name": "idToBiddedToken",
      "outputs": [
        {
          "internalType": "uint256",
          "name": "tokenId",
          "type": "uint256"
        },
        {
          "internalType": "uint256",
          "name": "biddingId",
          "type": "uint256"
        },
        {
          "internalType": "address",
          "name": "bidder",
          "type": "address"
        },
        {
          "internalType": "uint256",
          "name": "price",
          "type": "uint256"
        }
      ],
      "stateMutability": "view",
      "type": "function"
    },
    {
      "inputs": [
        {
          "internalType": "uint256",
          "name": "",
          "type": "uint256"
        }
      ],
      "name": "idToImageHash",
      "outputs": [
        {
          "internalType": "string",
          "name": "",
          "type": "string"
        }
      ],
      "stateMutability": "view",
      "type": "function"
    },
    {
      "inputs": [
        {
          "internalType": "uint256",
          "name": "",
          "type": "uint256"
        }
      ],
      "name": "idToListedToken",
      "outputs": [
        {
          "internalType": "uint256",
          "name": "tokenId",
          "type": "uint256"
        },
        {
          "internalType": "uint256",
          "name": "price",
          "type": "uint256"
        },
        {
          "internalType": "uint256",
          "name": "bidPrice",
          "type": "uint256"
        },
        {
          "internalType": "string",
          "name": "imgHash",
          "type": "string"
        },
        {
          "internalType": "address payable",
          "name": "owner",
          "type": "address"
        },
        {
          "internalType": "uint256",
          "name": "format",
          "type": "uint256"
        },
        {
          "internalType": "bool",
          "name": "NFTsold",
          "type": "bool"
        },
        {
          "internalType": "bool",
          "name": "NFTbought",
          "type": "bool"
        },
        {
          "internalType": "bool",
          "name": "NFTListed",
          "type": "bool"
        },
        {
          "internalType": "bool",
          "name": "NFTBidded",
          "type": "bool"
        }
      ],
      "stateMutability": "view",
      "type": "function"
    },
    {
      "inputs": [
        {
          "internalType": "uint256",
          "name": "",
          "type": "uint256"
        }
      ],
      "name": "idToSoldItems",
      "outputs": [
        {
          "internalType": "uint256",
          "name": "tokenId",
          "type": "uint256"
        },
        {
          "internalType": "uint256",
          "name": "price",
          "type": "uint256"
        },
        {
          "internalType": "address payable",
          "name": "owner",
          "type": "address"
        },
        {
          "internalType": "address",
          "name": "newOwner",
          "type": "address"
        },
        {
          "internalType": "bool",
          "name": "NFTsold",
          "type": "bool"
        }
      ],
      "stateMutability": "view",
      "type": "function"
    },
    {
      "inputs": [
        {
          "internalType": "address",
          "name": "owner",
          "type": "address"
        },
        {
          "internalType": "address",
          "name": "operator",
          "type": "address"
        }
      ],
      "name": "isApprovedForAll",
      "outputs": [
        {
          "internalType": "bool",
          "name": "",
          "type": "bool"
        }
      ],
      "stateMutability": "view",
      "type": "function"
    },
    {
      "inputs": [
        {
          "internalType": "uint256",
          "name": "id",
          "type": "uint256"
        }
      ],
      "name": "isAuctionExpired",
      "outputs": [
        {
          "internalType": "bool",
          "name": "",
          "type": "bool"
        }
      ],
      "stateMutability": "view",
      "type": "function"
    },
    {
      "inputs": [
        {
          "internalType": "uint256",
          "name": "id",
          "type": "uint256"
        }
      ],
      "name": "isAuctionOpen",
      "outputs": [
        {
          "internalType": "bool",
          "name": "",
          "type": "bool"
        }
      ],
      "stateMutability": "view",
      "type": "function"
    },
    {
      "inputs": [],
      "name": "listingCounter",
      "outputs": [
        {
          "internalType": "uint256",
          "name": "_value",
          "type": "uint256"
        }
      ],
      "stateMutability": "view",
      "type": "function"
    },
    {
      "inputs": [
        {
          "internalType": "uint256",
          "name": "",
          "type": "uint256"
        }
      ],
      "name": "listings",
      "outputs": [
        {
          "internalType": "uint256",
          "name": "biddingId",
          "type": "uint256"
        },
        {
          "internalType": "address payable",
          "name": "seller",
          "type": "address"
        },
        {
          "internalType": "uint256",
          "name": "tokenId",
          "type": "uint256"
        },
        {
          "internalType": "uint256",
          "name": "price",
          "type": "uint256"
        },
        {
          "internalType": "uint256",
          "name": "netPrice",
          "type": "uint256"
        },
        {
          "internalType": "uint256",
          "name": "startAt",
          "type": "uint256"
        },
        {
          "internalType": "uint256",
          "name": "deadline",
          "type": "uint256"
        },
        {
          "internalType": "string",
          "name": "date",
          "type": "string"
        },
        {
          "internalType": "uint256",
          "name": "status",
          "type": "uint256"
        }
      ],
      "stateMutability": "view",
      "type": "function"
    },
    {
      "inputs": [],
      "name": "minAuctionIncrement",
      "outputs": [
        {
          "internalType": "uint256",
          "name": "",
          "type": "uint256"
        }
      ],
      "stateMutability": "view",
      "type": "function"
    },
    {
      "inputs": [],
      "name": "name",
      "outputs": [
        {
          "internalType": "string",
          "name": "",
          "type": "string"
        }
      ],
      "stateMutability": "view",
      "type": "function"
    },
    {
      "inputs": [
        {
          "internalType": "address",
          "name": "user",
          "type": "address"
        }
      ],
      "name": "newUser",
      "outputs": [],
      "stateMutability": "nonpayable",
      "type": "function"
    },
    {
      "inputs": [
        {
          "internalType": "uint256",
          "name": "tokenId",
          "type": "uint256"
        }
      ],
      "name": "ownerOf",
      "outputs": [
        {
          "internalType": "address",
          "name": "",
          "type": "address"
        }
      ],
      "stateMutability": "view",
      "type": "function"
    },
    {
      "inputs": [
        {
          "internalType": "address",
          "name": "from",
          "type": "address"
        },
        {
          "internalType": "address",
          "name": "to",
          "type": "address"
        },
        {
          "internalType": "uint256",
          "name": "tokenId",
          "type": "uint256"
        }
      ],
      "name": "safeTransferFrom",
      "outputs": [],
      "stateMutability": "nonpayable",
      "type": "function"
    },
    {
      "inputs": [
        {
          "internalType": "address",
          "name": "from",
          "type": "address"
        },
        {
          "internalType": "address",
          "name": "to",
          "type": "address"
        },
        {
          "internalType": "uint256",
          "name": "tokenId",
          "type": "uint256"
        },
        {
          "internalType": "bytes",
          "name": "data",
          "type": "bytes"
        }
      ],
      "name": "safeTransferFrom",
      "outputs": [],
      "stateMutability": "nonpayable",
      "type": "function"
    },
    {
      "inputs": [
        {
          "internalType": "address",
          "name": "operator",
          "type": "address"
        },
        {
          "internalType": "bool",
          "name": "approved",
          "type": "bool"
        }
      ],
      "name": "setApprovalForAll",
      "outputs": [],
      "stateMutability": "nonpayable",
      "type": "function"
    },
    {
      "inputs": [
        {
          "internalType": "bytes4",
          "name": "interfaceId",
          "type": "bytes4"
        }
      ],
      "name": "supportsInterface",
      "outputs": [
        {
          "internalType": "bool",
          "name": "",
          "type": "bool"
        }
      ],
      "stateMutability": "view",
      "type": "function"
    },
    {
      "inputs": [],
      "name": "symbol",
      "outputs": [
        {
          "internalType": "string",
          "name": "",
          "type": "string"
        }
      ],
      "stateMutability": "view",
      "type": "function"
    },
    {
      "inputs": [
        {
          "internalType": "uint256",
          "name": "tokenId",
          "type": "uint256"
        }
      ],
      "name": "tokenURI",
      "outputs": [
        {
          "internalType": "string",
          "name": "",
          "type": "string"
        }
      ],
      "stateMutability": "view",
      "type": "function"
    },
    {
      "inputs": [
        {
          "internalType": "address",
          "name": "from",
          "type": "address"
        },
        {
          "internalType": "address",
          "name": "to",
          "type": "address"
        },
        {
          "internalType": "uint256",
          "name": "tokenId",
          "type": "uint256"
        }
      ],
      "name": "transferFrom",
      "outputs": [],
      "stateMutability": "nonpayable",
      "type": "function"
    },
    {
      "inputs": [
        {
          "internalType": "uint256",
          "name": "listingId",
          "type": "uint256"
        }
      ],
      "name": "withdrawBid",
      "outputs": [],
      "stateMutability": "payable",
      "type": "function"
    }
  ],
  "bytecode": "0x6080604052600a6012553480156200001657600080fd5b50604080518082018252601581527f506f6c79676f6e4e46544d61726b6574706c61636500000000000000000000006020808301918252835180850190945260048452634441524b60e01b90840152815191929162000078916000916200009c565b5080516200008e9060019060208401906200009c565b50506001600755506200017f565b828054620000aa9062000142565b90600052602060002090601f016020900481019282620000ce576000855562000119565b82601f10620000e957805160ff191683800117855562000119565b8280016001018555821562000119579182015b8281111562000119578251825591602001919060010190620000fc565b50620001279291506200012b565b5090565b5b808211156200012757600081556001016200012c565b600181811c908216806200015757607f821691505b602082108114156200017957634e487b7160e01b600052602260045260246000fd5b50919050565b61435e806200018f6000396000f3fe6080604052600436106102ff5760003560e01c806370a0823111610190578063adc2524c116100dc578063de74e57b11610095578063e985e9c51161006f578063e985e9c514610a23578063edf2ebcc14610a6c578063f67a769c14610a83578063fad266fe14610a9857600080fd5b8063de74e57b1461098b578063e57a497a146109c0578063e877d3f8146109f657600080fd5b8063adc2524c1461088c578063b27dce81146108d1578063b820a6d1146108f3578063b88d4fde14610915578063c750cb7914610935578063c87b56dd1461096b57600080fd5b806395d89b4111610149578063a22cb46511610123578063a22cb46514610829578063a4fdb63514610849578063a71ffa7614610860578063a9c63aa01461087757600080fd5b806395d89b41146107ec5780639b1225c4146108015780639d6e5fb31461081457600080fd5b806370a082311461071f578063732e8d731461073f578063740db280146107545780637aea3738146107695780638055ccaa1461079657806392a374b7146107cc57600080fd5b8063330241001161024f5780634945dcdd116102085780636352211e116101e25780636352211e146106555780636b8c91cb146106755780636c2c9c7d146106f2578063708d4d351461070957600080fd5b80634945dcdd1461060957806359be5e451461062b578063629cb2e41461064057600080fd5b806333024100146104d7578063356e93921461056857806336ad658f1461058957806342842e0e146105a0578063451df52e146105c0578063454a2ab3146105f657600080fd5b80630cb5f653116102bc57806321b628861161029657806321b628861461045b57806323b872dd1461046e57806324f8515b1461048e578063287906b5146104b557600080fd5b80630cb5f653146103f55780630eaaf4c8146104155780631389b1171461042857600080fd5b806301ffc9a71461030457806306fdde0314610339578063081812fc1461035b578063095ea7b3146103935780630ad48628146103b55780630ad52cc6146103d5575b600080fd5b34801561031057600080fd5b5061032461031f366004613c34565b610aaf565b60405190151581526020015b60405180910390f35b34801561034557600080fd5b5061034e610ada565b604051610330919061408d565b34801561036757600080fd5b5061037b610376366004613cd6565b610b6c565b6040516001600160a01b039091168152602001610330565b34801561039f57600080fd5b506103b36103ae366004613c0b565b610b93565b005b3480156103c157600080fd5b506103246103d0366004613cd6565b610cae565b3480156103e157600080fd5b5061034e6103f0366004613cd6565b610ce2565b34801561040157600080fd5b506103b3610410366004613ad1565b610d7c565b6103b3610423366004613cd6565b610e3c565b34801561043457600080fd5b50610324610443366004613cd6565b60009081526013602052604090206006015442101590565b6103b3610469366004613cd6565b611029565b34801561047a57600080fd5b506103b3610489366004613b1d565b6112bd565b34801561049a57600080fd5b506104a3600181565b60405160ff9091168152602001610330565b3480156104c157600080fd5b506104ca6112ee565b6040516103309190613eed565b3480156104e357600080fd5b506105326104f2366004613cd6565b600f602052600090815260409020805460018201546002830154600390930154919290916001600160a01b0391821691811690600160a01b900460ff1685565b6040805195865260208601949094526001600160a01b03928316938501939093521660608301521515608082015260a001610330565b61057b610576366004613c6c565b611580565b604051908152602001610330565b34801561059557600080fd5b5060085461057b9081565b3480156105ac57600080fd5b506103b36105bb366004613b1d565b611755565b3480156105cc57600080fd5b5061037b6105db366004613cd6565b6014602052600090815260409020546001600160a01b031681565b6103b3610604366004613cd6565b611770565b34801561061557600080fd5b5061061e611abe565b6040516103309190613fcf565b34801561063757600080fd5b5061057b611d72565b34801561064c57600080fd5b506104ca611d82565b34801561066157600080fd5b5061037b610670366004613cd6565b61201d565b34801561068157600080fd5b506106c3610690366004613cd6565b6016602052600090815260409020805460018201546002830154600390930154919290916001600160a01b039091169084565b604051610330949392919093845260208401929092526001600160a01b03166040830152606082015260800190565b3480156106fe57600080fd5b50600b5461057b9081565b34801561071557600080fd5b5061057b60125481565b34801561072b57600080fd5b5061057b61073a366004613ad1565b61207d565b34801561074b57600080fd5b506104ca612103565b34801561076057600080fd5b506104a3600081565b34801561077557600080fd5b5061057b610784366004613cd6565b60009081526015602052604090205490565b3480156107a257600080fd5b5061037b6107b1366004613cd6565b6011602052600090815260409020546001600160a01b031681565b3480156107d857600080fd5b5061057b6107e7366004613d0f565b61238a565b3480156107f857600080fd5b5061034e6124f4565b6103b361080f366004613cd6565b612503565b34801561082057600080fd5b5061057b6126fc565b34801561083557600080fd5b506103b3610844366004613bd1565b612707565b34801561085557600080fd5b50600c5461057b9081565b34801561086c57600080fd5b50600d5461057b9081565b34801561088357600080fd5b5061057b612716565b34801561089857600080fd5b506103b36108a7366004613cee565b6000908152600e602052604090206001810191909155600601805462ff0000191662010000179055565b3480156108dd57600080fd5b506108e6612721565b6040516103309190613e7c565b3480156108ff57600080fd5b50610908612917565b6040516103309190613e0f565b34801561092157600080fd5b506103b3610930366004613b58565b612aec565b34801561094157600080fd5b5061037b610950366004613cd6565b6000908152601460205260409020546001600160a01b031690565b34801561097757600080fd5b5061034e610986366004613cd6565b612b24565b34801561099757600080fd5b506109ab6109a6366004613cd6565b612c2d565b60405161033099989796959493929190614184565b3480156109cc57600080fd5b506109e06109db366004613cd6565b612d0c565b6040516103309a999897969594939291906141e2565b348015610a0257600080fd5b5061057b610a11366004613cd6565b60156020526000908152604090205481565b348015610a2f57600080fd5b50610324610a3e366004613aeb565b6001600160a01b03918216600090815260056020908152604080832093909416825291909152205460ff1690565b348015610a7857600080fd5b5060095461057b9081565b348015610a8f57600080fd5b5061057b612dfc565b348015610aa457600080fd5b50600a5461057b9081565b60006001600160e01b03198216632483248360e11b1480610ad45750610ad482612e07565b92915050565b606060008054610ae990614290565b80601f0160208091040260200160405190810160405280929190818152602001828054610b1590614290565b8015610b625780601f10610b3757610100808354040283529160200191610b62565b820191906000526020600020905b815481529060010190602001808311610b4557829003601f168201915b5050505050905090565b6000610b7782612e57565b506000908152600460205260409020546001600160a01b031690565b6000610b9e8261201d565b9050806001600160a01b0316836001600160a01b03161415610c115760405162461bcd60e51b815260206004820152602160248201527f4552433732313a20617070726f76616c20746f2063757272656e74206f776e656044820152603960f91b60648201526084015b60405180910390fd5b336001600160a01b0382161480610c2d5750610c2d8133610a3e565b610c9f5760405162461bcd60e51b815260206004820152603d60248201527f4552433732313a20617070726f76652063616c6c6572206973206e6f7420746f60448201527f6b656e206f776e6572206f7220617070726f76656420666f7220616c6c0000006064820152608401610c08565b610ca98383612eb6565b505050565b6000818152601360205260408120600801546001148015610ad4575050600090815260136020526040902060060154421090565b60106020526000908152604090208054610cfb90614290565b80601f0160208091040260200160405190810160405280929190818152602001828054610d2790614290565b8015610d745780601f10610d4957610100808354040283529160200191610d74565b820191906000526020600020905b815481529060010190602001808311610d5757829003601f168201915b505050505081565b6000610d87600d5490565b90506000805b82811015610dee576001600160a01b03841660116000610dae84600161424c565b81526020810191909152604001600020546001600160a01b03161415610ddc57610dd960018361424c565b91505b80610de6816142cb565b915050610d8d565b5080610ca957610e02600d80546001019055565b6000610e0d600d5490565b600090815260116020526040902080546001600160a01b0386166001600160a01b031990911617905550505050565b610e44612f24565b600081815260136020526040902060060154421015610e9d5760405162461bcd60e51b8152602060048201526015602482015274185d58dd1a5bdb881b5d5cdd08189948195b991959605a1b6044820152606401610c08565b6000818152601460205260409020546001600160a01b0316331415610f0f5760405162461bcd60e51b815260206004820152602260248201527f68696768657374206269646465722063616e6e6f7420776974686472617720626044820152611a5960f21b6064820152608401610c08565b6000610f1a600c5490565b90506000805b82811015610feb573360166000610f3884600161424c565b81526020810191909152604001600020600201546001600160a01b0316148015610f81575060166000610f6c83600161424c565b81526020019081526020016000206001015484145b15610fd95760166000610f9583600161424c565b81526020019081526020016000206003015482610fb2919061424c565b91506000601681610fc484600161424c565b81526020810191909152604001600020600301555b80610fe3816142cb565b915050610f20565b50604051339082156108fc029083906000818181858888f19350505050158015611019573d6000803e3d6000fd5b5050506110266001600755565b50565b611031612f24565b61103a81610cae565b1561107f5760405162461bcd60e51b815260206004820152601560248201527430bab1ba34b7b71034b99039ba34b6361037b832b760591b6044820152606401610c08565b600081815260136020908152604080832060149092529091205460018201546001600160a01b0391821691163314806110c05750336001600160a01b038216145b61111f5760405162461bcd60e51b815260206004820152602a60248201527f6f6e6c792073656c6c6572206f722077696e6e65722063616e20636f6d706c656044820152693a329030bab1ba34b7b760b11b6064820152608401610c08565b60008381526015602052604090205460028301548161116557600060088501819055818152600e6020526040812060068101805463ff00000019169055600201556112af565b600184015460028501546001600160a01b03909116906111889082908690612f7e565b6040516001600160a01b0382169084156108fc029085906000818181858888f193505050501580156111be573d6000803e3d6000fd5b506111cd600980546001019055565b60006111d860095490565b6040805160a08101825285815260208082018881526001600160a01b0396871683850190815233606085019081526001608086018181526000988952600f865287892096518755935186820155915160028087018054928c166001600160a01b031993841617905591516003909601805494511515600160a01b026001600160a81b0319909516968b1696909617939093179094558b018054978b1697821688179055878552600e9091529183206004810180549093169095179091556008880182905583015550600601805463ff000000191690555b505050506110266001600755565b6112c733826130e2565b6112e35760405162461bcd60e51b8152600401610c08906140a0565b610ca9838383612f7e565b606060006112fb60085490565b905060008060005b8381101561135457600e600061131a83600161424c565b815260200190815260200160002060050154600114156113425761133f60018461424c565b92505b61134d60018261424c565b9050611303565b5060008267ffffffffffffffff81111561137e57634e487b7160e01b600052604160045260246000fd5b6040519080825280602002602001820160405280156113b757816020015b6113a4613934565b81526020019060019003908161139c5790505b50905060005b84811015611577576000600e816113d584600161424c565b81526020019081526020016000209050600e60008360016113f6919061424c565b8152602001908152602001600020600501546001141561156457806040518061014001604052908160008201548152602001600182015481526020016002820154815260200160038201805461144b90614290565b80601f016020809104026020016040519081016040528092919081815260200182805461147790614290565b80156114c45780601f10611499576101008083540402835291602001916114c4565b820191906000526020600020905b8154815290600101906020018083116114a757829003601f168201915b505050918352505060048201546001600160a01b031660208201526005820154604082015260069091015460ff8082161515606084015261010082048116151560808401526201000082048116151560a0840152630100000090910416151560c090910152835184908690811061154b57634e487b7160e01b600052603260045260246000fd5b602090810291909101015261156160018561424c565b93505b5061157060018261424c565b90506113bd565b50949350505050565b60008061158c60085490565b905080611598576116f2565b606060005b828110156116ef57601060006115b483600161424c565b815260200190815260200160002080546115cd90614290565b80601f01602080910402602001604051908101604052809291908181526020018280546115f990614290565b80156116465780601f1061161b57610100808354040283529160200191611646565b820191906000526020600020905b81548152906001019060200180831161162957829003601f168201915b505050505091508560405160200161165e9190613d87565b60405160208183030381529060405280519060200120826040516020016116859190613d87565b6040516020818303038152906040528051906020012014156116dd5760405162461bcd60e51b815260206004820152601160248201527013919508185b1c9958591e48195e1a5cdd607a1b6044820152606401610c08565b806116e7816142cb565b91505061159d565b50505b611700600880546001019055565b600061170b60085490565b90506117173382613160565b611721818761317a565b6000818152601060209081526040909120865161174092880190613987565b5061174c81858761324c565b95945050505050565b610ca983838360405180602001604052806000815250612aec565b611778612f24565b61178181610cae565b6117c15760405162461bcd60e51b8152602060048201526011602482015270185d58dd1a5bdb881a185cc8195b991959607a1b6044820152606401610c08565b60008181526013602052604090206003015434116118215760405162461bcd60e51b815260206004820152601f60248201527f56616c756520697320736d616c6c6572207468616e206269642076616c7565006044820152606401610c08565b6000818152601360205260409020600101546001600160a01b031633141561188b5760405162461bcd60e51b815260206004820152601a60248201527f796f752063616e27742062696420796f7572206f776e206e66740000000000006044820152606401610c08565b60008060005b600c548110156119cc57601660006118aa83600161424c565b81526020810191909152604001600020600201546001600160a01b0316331480156118f45750601660006118df83600161424c565b81526020019081526020016000206001015484145b156119ba57346016600061190984600161424c565b81526020019081526020016000206003016000828254611929919061424c565b90915550506000848152601560205260408120546001945092508290601690611952848761424c565b81526020019081526020016000206003015411156119ba57600084815260146020526040812080546001600160a01b0319163317905560169061199683600161424c565b81526020808201929092526040908101600090812060030154878252601590935220555b806119c4816142cb565b915050611891565b5081611aa9576119e0600c80546001019055565b60006119eb600c5490565b6040805160808101825260008781526013602090815283822060029081015484528184018a8152338587019081523460608701818152898752601686528887209751885592516001880155905192860180546001600160a01b0319166001600160a01b0390941693909317909255516003909401939093558882526015905291909120549350909150821015611aa757600084815260146020908152604080832080546001600160a01b03191633179055601590915290203490555b505b611ab233610d7c565b50506110266001600755565b60606000611acb600b5490565b905060008060005b83811015611b235760136000611aea83600161424c565b815260200190815260200160002060030154600014611b1157611b0e60018461424c565b92505b611b1c60018261424c565b9050611ad3565b5060008267ffffffffffffffff811115611b4d57634e487b7160e01b600052604160045260246000fd5b604051908082528060200260200182016040528015611bd657816020015b611bc36040518061012001604052806000815260200160006001600160a01b03168152602001600081526020016000815260200160008152602001600081526020016000815260200160608152602001600081525090565b815260200190600190039081611b6b5790505b50905060005b84811015611577576000601381611bf484600161424c565b8152602001908152602001600020905060136000836001611c15919061424c565b815260200190815260200160002060030154600014611d5f5760408051610120810182528254815260018301546001600160a01b031660208201526002830154918101919091526003820154606082015260048201546080820152600582015460a0820152600682015460c0820152600782018054839160e0840191611c9a90614290565b80601f0160208091040260200160405190810160405280929190818152602001828054611cc690614290565b8015611d135780601f10611ce857610100808354040283529160200191611d13565b820191906000526020600020905b815481529060010190602001808311611cf657829003601f168201915b50505050508152602001600882015481525050838581518110611d4657634e487b7160e01b600052603260045260246000fd5b6020908102919091010152611d5c60018561424c565b93505b50611d6b60018261424c565b9050611bdc565b6000611d7d60095490565b905090565b60606000611d8f60085490565b9050600080805b83811015611df15733600e6000611dae84600161424c565b81526020810191909152604001600020600401546001600160a01b03161415611ddf5781611ddb816142cb565b9250505b80611de9816142cb565b915050611d96565b5060008167ffffffffffffffff811115611e1b57634e487b7160e01b600052604160045260246000fd5b604051908082528060200260200182016040528015611e5457816020015b611e41613934565b815260200190600190039081611e395790505b50905060005b848110156115775733600e6000611e7284600161424c565b81526020810191909152604001600020600401546001600160a01b0316141561200b576000600e81611ea584600161424c565b815260200190815260200160002090508060405180610140016040529081600082015481526020016001820154815260200160028201548152602001600382018054611ef090614290565b80601f0160208091040260200160405190810160405280929190818152602001828054611f1c90614290565b8015611f695780601f10611f3e57610100808354040283529160200191611f69565b820191906000526020600020905b815481529060010190602001808311611f4c57829003601f168201915b505050918352505060048201546001600160a01b031660208201526005820154604082015260069091015460ff8082161515606084015261010082048116151560808401526201000082048116151560a0840152630100000090910416151560c0909101528351849087908110611ff057634e487b7160e01b600052603260045260246000fd5b60200260200101819052508480612006906142cb565b955050505b80612015816142cb565b915050611e5a565b6000818152600260205260408120546001600160a01b031680610ad45760405162461bcd60e51b8152602060048201526018602482015277115490cdcc8c4e881a5b9d985b1a59081d1bdad95b88125160421b6044820152606401610c08565b60006001600160a01b0382166120e75760405162461bcd60e51b815260206004820152602960248201527f4552433732313a2061646472657373207a65726f206973206e6f7420612076616044820152683634b21037bbb732b960b91b6064820152608401610c08565b506001600160a01b031660009081526003602052604090205490565b6060600061211060085490565b905060008060005b8381101561216857600e600061212f83600161424c565b8152602001908152602001600020600101546000146121565761215360018461424c565b92505b61216160018261424c565b9050612118565b5060008267ffffffffffffffff81111561219257634e487b7160e01b600052604160045260246000fd5b6040519080825280602002602001820160405280156121cb57816020015b6121b8613934565b8152602001906001900390816121b05790505b50905060005b84811015611577576000600e816121e984600161424c565b81526020019081526020016000209050600e600083600161220a919061424c565b81526020019081526020016000206001015460001461237757806040518061014001604052908160008201548152602001600182015481526020016002820154815260200160038201805461225e90614290565b80601f016020809104026020016040519081016040528092919081815260200182805461228a90614290565b80156122d75780601f106122ac576101008083540402835291602001916122d7565b820191906000526020600020905b8154815290600101906020018083116122ba57829003601f168201915b505050918352505060048201546001600160a01b031660208201526005820154604082015260069091015460ff8082161515606084015261010082048116151560808401526201000082048116151560a0840152630100000090910416151560c090910152835184908690811061235e57634e487b7160e01b600052603260045260246000fd5b602090810291909101015261237460018561424c565b93505b5061238360018261424c565b90506121d1565b600061239a600b80546001019055565b60006123a5600b5490565b90504260006123b4868361424c565b905087600e600089815260200190815260200160002060020181905550604051806101200160405280848152602001336001600160a01b03168152602001888152602001898152602001898152602001838152602001828152602001868152602001600160ff16815250601360008581526020019081526020016000206000820151816000015560208201518160010160006101000a8154816001600160a01b0302191690836001600160a01b0316021790555060408201518160020155606082015181600301556080820151816004015560a0820151816005015560c0820151816006015560e08201518160070190805190602001906124b6929190613987565b50610100919091015160089091015550506000858152600e60205260409020600601805463ff0000001916630100000017905590505b949350505050565b606060018054610ae990614290565b6000818152600e6020526040902060018101546004909101546001600160a01b03163314156125745760405162461bcd60e51b815260206004820152601a60248201527f796f752063616e27742062757920796f7572206f776e206e66740000000000006044820152606401610c08565b6000828152600e60205260409020600401546001600160a01b031661259a813385612f7e565b6125a48184610b93565b6000838152600e60205260408082206004810180546001600160a01b03191633179055600601805461010161ffff19909116179055516001600160a01b038316913480156108fc02929091818181858888f1935050505015801561260c573d6000803e3d6000fd5b5061261b600980546001019055565b600061262660095490565b6040805160a08101825286815260208082018781526001600160a01b03808816848601908152336060860181815260016080880181815260008b8152600f89528a812099518a5596518983015593516002890180549187166001600160a01b031990921691909117905590516003909701805493511515600160a01b026001600160a81b0319909416979094169690961791909117909155898252600e909252928320909101919091559091506126dc90610d7c565b5050506000908152600e60205260409020600601805462ff000019169055565b6000611d7d600c5490565b612712338383613373565b5050565b6000611d7d600d5490565b6060600061272e60095490565b9050600080805b838110156127905733600f600061274d84600161424c565b81526020810191909152604001600020600201546001600160a01b0316141561277e578161277a816142cb565b9250505b80612788816142cb565b915050612735565b5060008167ffffffffffffffff8111156127ba57634e487b7160e01b600052604160045260246000fd5b60405190808252806020026020018201604052801561281357816020015b6040805160a0810182526000808252602080830182905292820181905260608201819052608082015282526000199092019101816127d85790505b50905060005b848110156115775733600f600061283184600161424c565b81526020810191909152604001600020600201546001600160a01b03161415612905576000600f8161286484600161424c565b81526020808201929092526040908101600020815160a0810183528154815260018201549381019390935260028101546001600160a01b039081169284019290925260038101549182166060840152600160a01b90910460ff161515608083015284519092508490879081106128ea57634e487b7160e01b600052603260045260246000fd5b60200260200101819052508480612900906142cb565b955050505b8061290f816142cb565b915050612819565b60606000612924600c5490565b9050600080805b8381101561297b576016600061294283600161424c565b8152602001908152602001600020600301546000146129695781612965816142cb565b9250505b80612973816142cb565b91505061292b565b5060008167ffffffffffffffff8111156129a557634e487b7160e01b600052604160045260246000fd5b604051908082528060200260200182016040528015612a0a57816020015b6129f76040518060800160405280600081526020016000815260200160006001600160a01b03168152602001600081525090565b8152602001906001900390816129c35790505b50905060005b848110156115775760166000612a2783600161424c565b815260200190815260200160002060030154600014612ada576000601681612a5084600161424c565b8152602080820192909252604090810160002081516080810183528154815260018201549381019390935260028101546001600160a01b031691830191909152600381015460608301528451909250849087908110612abf57634e487b7160e01b600052603260045260246000fd5b60200260200101819052508480612ad5906142cb565b955050505b80612ae4816142cb565b915050612a10565b612af633836130e2565b612b125760405162461bcd60e51b8152600401610c08906140a0565b612b1e84848484613442565b50505050565b6060612b2f82612e57565b60008281526006602052604081208054612b4890614290565b80601f0160208091040260200160405190810160405280929190818152602001828054612b7490614290565b8015612bc15780601f10612b9657610100808354040283529160200191612bc1565b820191906000526020600020905b815481529060010190602001808311612ba457829003601f168201915b505050505090506000612bdf60408051602081019091526000815290565b9050805160001415612bf2575092915050565b815115612c24578082604051602001612c0c929190613da3565b60405160208183030381529060405292505050919050565b6124ec84613475565b6013602052600090815260409020805460018201546002830154600384015460048501546005860154600687015460078801805497986001600160a01b03909716979596949593949293919291612c8390614290565b80601f0160208091040260200160405190810160405280929190818152602001828054612caf90614290565b8015612cfc5780601f10612cd157610100808354040283529160200191612cfc565b820191906000526020600020905b815481529060010190602001808311612cdf57829003601f168201915b5050505050908060080154905089565b600e60205260009081526040902080546001820154600283015460038401805493949293919291612d3c90614290565b80601f0160208091040260200160405190810160405280929190818152602001828054612d6890614290565b8015612db55780601f10612d8a57610100808354040283529160200191612db5565b820191906000526020600020905b815481529060010190602001808311612d9857829003601f168201915b505050506004830154600584015460069094015492936001600160a01b039091169290915060ff80821691610100810482169162010000820481169163010000009004168a565b6000611d7d60085490565b60006001600160e01b031982166380ac58cd60e01b1480612e3857506001600160e01b03198216635b5e139f60e01b145b80610ad457506301ffc9a760e01b6001600160e01b0319831614610ad4565b6000818152600260205260409020546001600160a01b03166110265760405162461bcd60e51b8152602060048201526018602482015277115490cdcc8c4e881a5b9d985b1a59081d1bdad95b88125160421b6044820152606401610c08565b600081815260046020526040902080546001600160a01b0319166001600160a01b0384169081179091558190612eeb8261201d565b6001600160a01b03167f8c5be1e5ebec7d5bd14f71427d1e84f3dd0314c0f7b2291e5b200ac8c7c3b92560405160405180910390a45050565b60026007541415612f775760405162461bcd60e51b815260206004820152601f60248201527f5265656e7472616e637947756172643a207265656e7472616e742063616c6c006044820152606401610c08565b6002600755565b826001600160a01b0316612f918261201d565b6001600160a01b031614612fb75760405162461bcd60e51b8152600401610c089061413f565b6001600160a01b0382166130195760405162461bcd60e51b8152602060048201526024808201527f4552433732313a207472616e7366657220746f20746865207a65726f206164646044820152637265737360e01b6064820152608401610c08565b826001600160a01b031661302c8261201d565b6001600160a01b0316146130525760405162461bcd60e51b8152600401610c089061413f565b600081815260046020908152604080832080546001600160a01b03199081169091556001600160a01b0387811680865260038552838620805460001901905590871680865283862080546001019055868652600290945282852080549092168417909155905184937fddf252ad1be2c89b69c2b068fc378daa952ba7f163c4a11628f55a4df523b3ef91a4505050565b6000806130ee8361201d565b9050806001600160a01b0316846001600160a01b0316148061313557506001600160a01b0380821660009081526005602090815260408083209388168352929052205460ff165b806124ec5750836001600160a01b031661314e84610b6c565b6001600160a01b031614949350505050565b6127128282604051806020016040528060008152506134e9565b6000828152600260205260409020546001600160a01b03166131f55760405162461bcd60e51b815260206004820152602e60248201527f45524337323155524953746f726167653a2055524920736574206f66206e6f6e60448201526d32bc34b9ba32b73a103a37b5b2b760911b6064820152608401610c08565b6000828152600660209081526040909120825161321492840190613987565b506040518281527ff8e1a15aba9398e019f0b49df1a4fde98ee17ae345cb5f6b5e2c27f5033e8ce79060200160405180910390a15050565b6040805161014081018252848152600060208083018281528385018381526060850187815233608087015260a0860189905260c0860185905260e0860185905261010086018590526101208601859052898552600e84529590932084518155905160018201559151600283015592518051929391926132d19260038501920190613987565b5060808201516004820180546001600160a01b0319166001600160a01b0390921691909117905560a0820151600582015560c08201516006909101805460e0840151610100808601516101209096015161ffff1990931694151561ff001916949094179015159093029290921763ffff00001916620100009315159390930263ff000000191692909217630100000091151591909102179055610ca933610d7c565b816001600160a01b0316836001600160a01b031614156133d55760405162461bcd60e51b815260206004820152601960248201527f4552433732313a20617070726f766520746f2063616c6c6572000000000000006044820152606401610c08565b6001600160a01b03838116600081815260056020908152604080832094871680845294825291829020805460ff191686151590811790915591519182527f17307eab39ab6107e8899845ad3d59bd9653f200f220920489ca2b5937696c31910160405180910390a3505050565b61344d848484612f7e565b6134598484848461351c565b612b1e5760405162461bcd60e51b8152600401610c08906140ed565b606061348082612e57565b600061349760408051602081019091526000815290565b905060008151116134b757604051806020016040528060008152506134e2565b806134c184613626565b6040516020016134d2929190613da3565b6040516020818303038152906040525b9392505050565b6134f383836136d1565b613500600084848461351c565b610ca95760405162461bcd60e51b8152600401610c08906140ed565b60006001600160a01b0384163b1561361e57604051630a85bd0160e11b81526001600160a01b0385169063150b7a0290613560903390899088908890600401613dd2565b602060405180830381600087803b15801561357a57600080fd5b505af19250505080156135aa575060408051601f3d908101601f191682019092526135a791810190613c50565b60015b613604573d8080156135d8576040519150601f19603f3d011682016040523d82523d6000602084013e6135dd565b606091505b5080516135fc5760405162461bcd60e51b8152600401610c08906140ed565b805181602001fd5b6001600160e01b031916630a85bd0160e11b1490506124ec565b5060016124ec565b606060006136338361385c565b600101905060008167ffffffffffffffff81111561366157634e487b7160e01b600052604160045260246000fd5b6040519080825280601f01601f19166020018201604052801561368b576020820181803683370190505b5090508181016020015b600019016f181899199a1a9b1b9c1cb0b131b232b360811b600a86061a8153600a85049450846136c4576136c9565b613695565b509392505050565b6001600160a01b0382166137275760405162461bcd60e51b815260206004820181905260248201527f4552433732313a206d696e7420746f20746865207a65726f20616464726573736044820152606401610c08565b6000818152600260205260409020546001600160a01b03161561378c5760405162461bcd60e51b815260206004820152601c60248201527f4552433732313a20746f6b656e20616c7265616479206d696e746564000000006044820152606401610c08565b6000818152600260205260409020546001600160a01b0316156137f15760405162461bcd60e51b815260206004820152601c60248201527f4552433732313a20746f6b656e20616c7265616479206d696e746564000000006044820152606401610c08565b6001600160a01b038216600081815260036020908152604080832080546001019055848352600290915280822080546001600160a01b0319168417905551839291907fddf252ad1be2c89b69c2b068fc378daa952ba7f163c4a11628f55a4df523b3ef908290a45050565b60008072184f03e93ff9f4daa797ed6e38ed64bf6a1f0160401b831061389b5772184f03e93ff9f4daa797ed6e38ed64bf6a1f0160401b830492506040015b6d04ee2d6d415b85acef810000000083106138c7576d04ee2d6d415b85acef8100000000830492506020015b662386f26fc1000083106138e557662386f26fc10000830492506010015b6305f5e10083106138fd576305f5e100830492506008015b612710831061391157612710830492506004015b60648310613923576064830492506002015b600a8310610ad45760010192915050565b60408051610140810182526000808252602082018190529181018290526060808201526080810182905260a0810182905260c0810182905260e08101829052610100810182905261012081019190915290565b82805461399390614290565b90600052602060002090601f0160209004810192826139b557600085556139fb565b82601f106139ce57805160ff19168380011785556139fb565b828001600101855582156139fb579182015b828111156139fb5782518255916020019190600101906139e0565b50613a07929150613a0b565b5090565b5b80821115613a075760008155600101613a0c565b600067ffffffffffffffff80841115613a3b57613a3b6142fc565b604051601f8501601f19908116603f01168101908282118183101715613a6357613a636142fc565b81604052809350858152868686011115613a7c57600080fd5b858560208301376000602087830101525050509392505050565b80356001600160a01b0381168114613aad57600080fd5b919050565b600082601f830112613ac2578081fd5b6134e283833560208501613a20565b600060208284031215613ae2578081fd5b6134e282613a96565b60008060408385031215613afd578081fd5b613b0683613a96565b9150613b1460208401613a96565b90509250929050565b600080600060608486031215613b31578081fd5b613b3a84613a96565b9250613b4860208501613a96565b9150604084013590509250925092565b60008060008060808587031215613b6d578081fd5b613b7685613a96565b9350613b8460208601613a96565b925060408501359150606085013567ffffffffffffffff811115613ba6578182fd5b8501601f81018713613bb6578182fd5b613bc587823560208401613a20565b91505092959194509250565b60008060408385031215613be3578182fd5b613bec83613a96565b915060208301358015158114613c00578182fd5b809150509250929050565b60008060408385031215613c1d578182fd5b613c2683613a96565b946020939093013593505050565b600060208284031215613c45578081fd5b81356134e281614312565b600060208284031215613c61578081fd5b81516134e281614312565b600080600060608486031215613c80578283fd5b833567ffffffffffffffff80821115613c97578485fd5b613ca387838801613ab2565b94506020860135915080821115613cb8578384fd5b50613cc586828701613ab2565b925050604084013590509250925092565b600060208284031215613ce7578081fd5b5035919050565b60008060408385031215613d00578182fd5b50508035926020909101359150565b60008060008060808587031215613d24578384fd5b843593506020850135925060408501359150606085013567ffffffffffffffff811115613d4f578182fd5b613bc587828801613ab2565b60008151808452613d73816020860160208601614264565b601f01601f19169290920160200192915050565b60008251613d99818460208701614264565b9190910192915050565b60008351613db5818460208801614264565b835190830190613dc9818360208801614264565b01949350505050565b6001600160a01b0385811682528416602082015260408101839052608060608201819052600090613e0590830184613d5b565b9695505050505050565b602080825282518282018190526000919060409081850190868401855b82811015613e6f578151805185528681015187860152858101516001600160a01b0316868601526060908101519085015260809093019290850190600101613e2c565b5091979650505050505050565b602080825282518282018190526000919060409081850190868401855b82811015613e6f578151805185528681015187860152858101516001600160a01b03908116878701526060808301519091169086015260809081015115159085015260a09093019290850190600101613e99565b60006020808301818452808551808352604092508286019150828160051b870101848801865b83811015613fc157603f19898403018552815161014081518552888201518986015287820151888601526060808301518282880152613f5483880182613d5b565b92505050608080830151613f72828801826001600160a01b03169052565b505060a0828101519086015260c08083015115159086015260e0808301511515908601526101008083015115159086015261012091820151151591909401529386019390860190600101613f13565b509098975050505050505050565b60006020808301818452808551808352604092508286019150828160051b870101848801865b83811015613fc157603f19898403018552815180518452878101516001600160a01b0316888501528681015187850152606080820151908501526080808201519085015260a0808201519085015260c0808201519085015260e080820151610120828701819052919061406a83880182613d5b565b610100948501519790940196909652505094870194925090860190600101613ff5565b6020815260006134e26020830184613d5b565b6020808252602d908201527f4552433732313a2063616c6c6572206973206e6f7420746f6b656e206f776e6560408201526c1c881bdc88185c1c1c9bdd9959609a1b606082015260800190565b60208082526032908201527f4552433732313a207472616e7366657220746f206e6f6e20455243373231526560408201527131b2b4bb32b91034b6b83632b6b2b73a32b960711b606082015260800190565b60208082526025908201527f4552433732313a207472616e736665722066726f6d20696e636f72726563742060408201526437bbb732b960d91b606082015260800190565b60006101208b835260018060a01b038b1660208401528960408401528860608401528760808401528660a08401528560c08401528060e08401526141ca81840186613d5b565b915050826101008301529a9950505050505050505050565b60006101408c83528b60208401528a60408401528060608401526142088184018b613d5b565b6001600160a01b03999099166080840152505060a081019590955292151560c085015290151560e08401521515610100830152151561012090910152949350505050565b6000821982111561425f5761425f6142e6565b500190565b60005b8381101561427f578181015183820152602001614267565b83811115612b1e5750506000910152565b600181811c908216806142a457607f821691505b602082108114156142c557634e487b7160e01b600052602260045260246000fd5b50919050565b60006000198214156142df576142df6142e6565b5060010190565b634e487b7160e01b600052601160045260246000fd5b634e487b7160e01b600052604160045260246000fd5b6001600160e01b03198116811461102657600080fdfea2646970667358221220c8a7ac9cd0304458306b317a86b5ef41868c66abeeb34132ce2cf1cc3178b2e164736f6c63430008040033",
  "linkReferences": {},
  "deployedLinkReferences": {}
}