{
  "_format": "hh-sol-artifact-1",
  "contractName": "PolygonNFTMarketplace",
  "sourceName": "contracts/PolygonNFTMarketplace.sol",
  "abi": [
    {
      "inputs": [],
      "stateMutability": "nonpayable",
      "type": "constructor"
    },
    {
      "anonymous": false,
      "inputs": [
        {
          "indexed": true,
          "internalType": "address",
          "name": "owner",
          "type": "address"
        },
        {
          "indexed": true,
          "internalType": "address",
          "name": "approved",
          "type": "address"
        },
        {
          "indexed": true,
          "internalType": "uint256",
          "name": "tokenId",
          "type": "uint256"
        }
      ],
      "name": "Approval",
      "type": "event"
    },
    {
      "anonymous": false,
      "inputs": [
        {
          "indexed": true,
          "internalType": "address",
          "name": "owner",
          "type": "address"
        },
        {
          "indexed": true,
          "internalType": "address",
          "name": "operator",
          "type": "address"
        },
        {
          "indexed": false,
          "internalType": "bool",
          "name": "approved",
          "type": "bool"
        }
      ],
      "name": "ApprovalForAll",
      "type": "event"
    },
    {
      "anonymous": false,
      "inputs": [
        {
          "indexed": false,
          "internalType": "uint256",
          "name": "_fromTokenId",
          "type": "uint256"
        },
        {
          "indexed": false,
          "internalType": "uint256",
          "name": "_toTokenId",
          "type": "uint256"
        }
      ],
      "name": "BatchMetadataUpdate",
      "type": "event"
    },
    {
      "anonymous": false,
      "inputs": [
        {
          "indexed": false,
          "internalType": "uint256",
          "name": "_tokenId",
          "type": "uint256"
        }
      ],
      "name": "MetadataUpdate",
      "type": "event"
    },
    {
      "anonymous": false,
      "inputs": [
        {
          "indexed": true,
          "internalType": "address",
          "name": "from",
          "type": "address"
        },
        {
          "indexed": true,
          "internalType": "address",
          "name": "to",
          "type": "address"
        },
        {
          "indexed": true,
          "internalType": "uint256",
          "name": "tokenId",
          "type": "uint256"
        }
      ],
      "name": "Transfer",
      "type": "event"
    },
    {
      "inputs": [
        {
          "internalType": "uint256",
          "name": "tokenId",
          "type": "uint256"
        }
      ],
      "name": "AdminReportNFT",
      "outputs": [],
      "stateMutability": "nonpayable",
      "type": "function"
    },
    {
      "inputs": [],
      "name": "BuyCount",
      "outputs": [
        {
          "internalType": "uint256",
          "name": "_value",
          "type": "uint256"
        }
      ],
      "stateMutability": "view",
      "type": "function"
    },
    {
      "inputs": [
        {
          "internalType": "string",
          "name": "tokenURI",
          "type": "string"
        },
        {
          "internalType": "string",
          "name": "imageHash",
          "type": "string"
        },
        {
          "internalType": "uint256",
          "name": "fileType",
          "type": "uint256"
        }
      ],
      "name": "CreateToken",
      "outputs": [
        {
          "internalType": "uint256",
          "name": "",
          "type": "uint256"
        }
      ],
      "stateMutability": "payable",
      "type": "function"
    },
    {
      "inputs": [
        {
          "internalType": "uint256",
          "name": "",
          "type": "uint256"
        }
      ],
      "name": "Creators",
      "outputs": [
        {
          "internalType": "address",
          "name": "",
          "type": "address"
        }
      ],
      "stateMutability": "view",
      "type": "function"
    },
    {
      "inputs": [],
      "name": "CreatorsCount",
      "outputs": [
        {
          "internalType": "uint256",
          "name": "_value",
          "type": "uint256"
        }
      ],
      "stateMutability": "view",
      "type": "function"
    },
    {
      "inputs": [
        {
          "internalType": "uint256",
          "name": "price",
          "type": "uint256"
        },
        {
          "internalType": "uint256",
          "name": "id",
          "type": "uint256"
        }
      ],
      "name": "ListNFT",
      "outputs": [],
      "stateMutability": "nonpayable",
      "type": "function"
    },
    {
      "inputs": [
        {
          "internalType": "uint256",
          "name": "tokenId",
          "type": "uint256"
        }
      ],
      "name": "RevokeUserReport",
      "outputs": [],
      "stateMutability": "nonpayable",
      "type": "function"
    },
    {
      "inputs": [],
      "name": "STATUS_DONE",
      "outputs": [
        {
          "internalType": "uint8",
          "name": "",
          "type": "uint8"
        }
      ],
      "stateMutability": "view",
      "type": "function"
    },
    {
      "inputs": [],
      "name": "STATUS_OPEN",
      "outputs": [
        {
          "internalType": "uint8",
          "name": "",
          "type": "uint8"
        }
      ],
      "stateMutability": "view",
      "type": "function"
    },
    {
      "inputs": [],
      "name": "SoldCount",
      "outputs": [
        {
          "internalType": "uint256",
          "name": "_value",
          "type": "uint256"
        }
      ],
      "stateMutability": "view",
      "type": "function"
    },
    {
      "inputs": [],
      "name": "TokenCount",
      "outputs": [
        {
          "internalType": "uint256",
          "name": "_value",
          "type": "uint256"
        }
      ],
      "stateMutability": "view",
      "type": "function"
    },
    {
      "inputs": [
        {
          "internalType": "uint256",
          "name": "tokenId",
          "type": "uint256"
        },
        {
          "internalType": "string",
          "name": "reason",
          "type": "string"
        }
      ],
      "name": "UserReportNFT",
      "outputs": [],
      "stateMutability": "nonpayable",
      "type": "function"
    },
    {
      "inputs": [
        {
          "internalType": "address",
          "name": "to",
          "type": "address"
        },
        {
          "internalType": "uint256",
          "name": "tokenId",
          "type": "uint256"
        }
      ],
      "name": "approve",
      "outputs": [],
      "stateMutability": "nonpayable",
      "type": "function"
    },
    {
      "inputs": [
        {
          "internalType": "address",
          "name": "owner",
          "type": "address"
        }
      ],
      "name": "balanceOf",
      "outputs": [
        {
          "internalType": "uint256",
          "name": "",
          "type": "uint256"
        }
      ],
      "stateMutability": "view",
      "type": "function"
    },
    {
      "inputs": [
        {
          "internalType": "uint256",
          "name": "listingId",
          "type": "uint256"
        }
      ],
      "name": "bid",
      "outputs": [],
      "stateMutability": "payable",
      "type": "function"
    },
    {
      "inputs": [],
      "name": "biddingCounter",
      "outputs": [
        {
          "internalType": "uint256",
          "name": "_value",
          "type": "uint256"
        }
      ],
      "stateMutability": "view",
      "type": "function"
    },
    {
      "inputs": [
        {
          "internalType": "uint256",
          "name": "listingId",
          "type": "uint256"
        }
      ],
      "name": "completeAuction",
      "outputs": [],
      "stateMutability": "payable",
      "type": "function"
    },
    {
      "inputs": [
        {
          "internalType": "uint256",
          "name": "price",
          "type": "uint256"
        },
        {
          "internalType": "uint256",
          "name": "tokenId",
          "type": "uint256"
        },
        {
          "internalType": "uint256",
          "name": "deadline",
          "type": "uint256"
        },
        {
          "internalType": "string",
          "name": "aucDate",
          "type": "string"
        }
      ],
      "name": "createAuctionListing",
      "outputs": [
        {
          "internalType": "uint256",
          "name": "",
          "type": "uint256"
        }
      ],
      "stateMutability": "nonpayable",
      "type": "function"
    },
    {
      "inputs": [
        {
          "internalType": "uint256",
          "name": "tokenId",
          "type": "uint256"
        }
      ],
      "name": "executeSale",
      "outputs": [],
      "stateMutability": "payable",
      "type": "function"
    },
    {
      "inputs": [],
      "name": "getAllBiddedNfts",
      "outputs": [
        {
          "components": [
            {
              "internalType": "uint256",
              "name": "biddingId",
              "type": "uint256"
            },
            {
              "internalType": "address payable",
              "name": "seller",
              "type": "address"
            },
            {
              "internalType": "uint256",
              "name": "tokenId",
              "type": "uint256"
            },
            {
              "internalType": "uint256",
              "name": "price",
              "type": "uint256"
            },
            {
              "internalType": "uint256",
              "name": "netPrice",
              "type": "uint256"
            },
            {
              "internalType": "uint256",
              "name": "startAt",
              "type": "uint256"
            },
            {
              "internalType": "uint256",
              "name": "deadline",
              "type": "uint256"
            },
            {
              "internalType": "string",
              "name": "date",
              "type": "string"
            },
            {
              "internalType": "uint256",
              "name": "status",
              "type": "uint256"
            }
          ],
          "internalType": "struct PolygonNFTMarketplace.Listing[]",
          "name": "",
          "type": "tuple[]"
        }
      ],
      "stateMutability": "view",
      "type": "function"
    },
    {
      "inputs": [],
      "name": "getAllBiddingWithListingID",
      "outputs": [
        {
          "components": [
            {
              "internalType": "uint256",
              "name": "tokenId",
              "type": "uint256"
            },
            {
              "internalType": "uint256",
              "name": "biddingId",
              "type": "uint256"
            },
            {
              "internalType": "address",
              "name": "bidder",
              "type": "address"
            },
            {
              "internalType": "uint256",
              "name": "price",
              "type": "uint256"
            }
          ],
          "internalType": "struct PolygonNFTMarketplace.Bidding[]",
          "name": "",
          "type": "tuple[]"
        }
      ],
      "stateMutability": "view",
      "type": "function"
    },
    {
      "inputs": [],
      "name": "getAllImageNfts",
      "outputs": [
        {
          "components": [
            {
              "internalType": "uint256",
              "name": "tokenId",
              "type": "uint256"
            },
            {
              "internalType": "uint256",
              "name": "price",
              "type": "uint256"
            },
            {
              "internalType": "uint256",
              "name": "bidPrice",
              "type": "uint256"
            },
            {
              "internalType": "string",
              "name": "imgHash",
              "type": "string"
            },
            {
              "internalType": "address payable",
              "name": "owner",
              "type": "address"
            },
            {
              "internalType": "uint256",
              "name": "format",
              "type": "uint256"
            },
            {
              "internalType": "bool",
              "name": "NFTsold",
              "type": "bool"
            },
            {
              "internalType": "bool",
              "name": "NFTbought",
              "type": "bool"
            },
            {
              "internalType": "bool",
              "name": "NFTListed",
              "type": "bool"
            },
            {
              "internalType": "bool",
              "name": "NFTBidded",
              "type": "bool"
            },
            {
              "internalType": "bool",
              "name": "UserReportNft",
              "type": "bool"
            },
            {
              "internalType": "bool",
              "name": "AdminReportNft",
              "type": "bool"
            },
            {
              "internalType": "string",
              "name": "ReportMsg",
              "type": "string"
            }
          ],
          "internalType": "struct PolygonNFTMarketplace.ListedToken[]",
          "name": "",
          "type": "tuple[]"
        }
      ],
      "stateMutability": "view",
      "type": "function"
    },
    {
      "inputs": [],
      "name": "getAllNfts",
      "outputs": [
        {
          "components": [
            {
              "internalType": "uint256",
              "name": "tokenId",
              "type": "uint256"
            },
            {
              "internalType": "uint256",
              "name": "price",
              "type": "uint256"
            },
            {
              "internalType": "uint256",
              "name": "bidPrice",
              "type": "uint256"
            },
            {
              "internalType": "string",
              "name": "imgHash",
              "type": "string"
            },
            {
              "internalType": "address payable",
              "name": "owner",
              "type": "address"
            },
            {
              "internalType": "uint256",
              "name": "format",
              "type": "uint256"
            },
            {
              "internalType": "bool",
              "name": "NFTsold",
              "type": "bool"
            },
            {
              "internalType": "bool",
              "name": "NFTbought",
              "type": "bool"
            },
            {
              "internalType": "bool",
              "name": "NFTListed",
              "type": "bool"
            },
            {
              "internalType": "bool",
              "name": "NFTBidded",
              "type": "bool"
            },
            {
              "internalType": "bool",
              "name": "UserReportNft",
              "type": "bool"
            },
            {
              "internalType": "bool",
              "name": "AdminReportNft",
              "type": "bool"
            },
            {
              "internalType": "string",
              "name": "ReportMsg",
              "type": "string"
            }
          ],
          "internalType": "struct PolygonNFTMarketplace.ListedToken[]",
          "name": "",
          "type": "tuple[]"
        }
      ],
      "stateMutability": "view",
      "type": "function"
    },
    {
      "inputs": [
        {
          "internalType": "uint256",
          "name": "tokenId",
          "type": "uint256"
        }
      ],
      "name": "getApproved",
      "outputs": [
        {
          "internalType": "address",
          "name": "",
          "type": "address"
        }
      ],
      "stateMutability": "view",
      "type": "function"
    },
    {
      "inputs": [
        {
          "internalType": "uint256",
          "name": "listingId",
          "type": "uint256"
        }
      ],
      "name": "getHighestBidder",
      "outputs": [
        {
          "internalType": "address",
          "name": "",
          "type": "address"
        }
      ],
      "stateMutability": "view",
      "type": "function"
    },
    {
      "inputs": [
        {
          "internalType": "uint256",
          "name": "listingId",
          "type": "uint256"
        }
      ],
      "name": "getHighestBiddingAmount",
      "outputs": [
        {
          "internalType": "uint256",
          "name": "",
          "type": "uint256"
        }
      ],
      "stateMutability": "view",
      "type": "function"
    },
    {
      "inputs": [],
      "name": "getMyBids",
      "outputs": [
        {
          "components": [
            {
              "internalType": "uint256",
              "name": "tokenId",
              "type": "uint256"
            },
            {
              "internalType": "uint256",
              "name": "price",
              "type": "uint256"
            },
            {
              "internalType": "uint256",
              "name": "bidPrice",
              "type": "uint256"
            },
            {
              "internalType": "string",
              "name": "imgHash",
              "type": "string"
            },
            {
              "internalType": "address payable",
              "name": "owner",
              "type": "address"
            },
            {
              "internalType": "uint256",
              "name": "format",
              "type": "uint256"
            },
            {
              "internalType": "bool",
              "name": "NFTsold",
              "type": "bool"
            },
            {
              "internalType": "bool",
              "name": "NFTbought",
              "type": "bool"
            },
            {
              "internalType": "bool",
              "name": "NFTListed",
              "type": "bool"
            },
            {
              "internalType": "bool",
              "name": "NFTBidded",
              "type": "bool"
            },
            {
              "internalType": "bool",
              "name": "UserReportNft",
              "type": "bool"
            },
            {
              "internalType": "bool",
              "name": "AdminReportNft",
              "type": "bool"
            },
            {
              "internalType": "string",
              "name": "ReportMsg",
              "type": "string"
            }
          ],
          "internalType": "struct PolygonNFTMarketplace.ListedToken[]",
          "name": "",
          "type": "tuple[]"
        }
      ],
      "stateMutability": "view",
      "type": "function"
    },
    {
      "inputs": [],
      "name": "getMyNFTs",
      "outputs": [
        {
          "components": [
            {
              "internalType": "uint256",
              "name": "tokenId",
              "type": "uint256"
            },
            {
              "internalType": "uint256",
              "name": "price",
              "type": "uint256"
            },
            {
              "internalType": "uint256",
              "name": "bidPrice",
              "type": "uint256"
            },
            {
              "internalType": "string",
              "name": "imgHash",
              "type": "string"
            },
            {
              "internalType": "address payable",
              "name": "owner",
              "type": "address"
            },
            {
              "internalType": "uint256",
              "name": "format",
              "type": "uint256"
            },
            {
              "internalType": "bool",
              "name": "NFTsold",
              "type": "bool"
            },
            {
              "internalType": "bool",
              "name": "NFTbought",
              "type": "bool"
            },
            {
              "internalType": "bool",
              "name": "NFTListed",
              "type": "bool"
            },
            {
              "internalType": "bool",
              "name": "NFTBidded",
              "type": "bool"
            },
            {
              "internalType": "bool",
              "name": "UserReportNft",
              "type": "bool"
            },
            {
              "internalType": "bool",
              "name": "AdminReportNft",
              "type": "bool"
            },
            {
              "internalType": "string",
              "name": "ReportMsg",
              "type": "string"
            }
          ],
          "internalType": "struct PolygonNFTMarketplace.ListedToken[]",
          "name": "",
          "type": "tuple[]"
        }
      ],
      "stateMutability": "view",
      "type": "function"
    },
    {
      "inputs": [],
      "name": "getMySoldNFTs",
      "outputs": [
        {
          "components": [
            {
              "internalType": "uint256",
              "name": "tokenId",
              "type": "uint256"
            },
            {
              "internalType": "uint256",
              "name": "price",
              "type": "uint256"
            },
            {
              "internalType": "address payable",
              "name": "owner",
              "type": "address"
            },
            {
              "internalType": "address",
              "name": "newOwner",
              "type": "address"
            },
            {
              "internalType": "bool",
              "name": "NFTsold",
              "type": "bool"
            }
          ],
          "internalType": "struct PolygonNFTMarketplace.ItemsSold[]",
          "name": "",
          "type": "tuple[]"
        }
      ],
      "stateMutability": "view",
      "type": "function"
    },
    {
      "inputs": [],
      "name": "getTotalBiddedTokens",
      "outputs": [
        {
          "internalType": "uint256",
          "name": "",
          "type": "uint256"
        }
      ],
      "stateMutability": "view",
      "type": "function"
    },
    {
      "inputs": [],
      "name": "getTotalMintedTokens",
      "outputs": [
        {
          "internalType": "uint256",
          "name": "",
          "type": "uint256"
        }
      ],
      "stateMutability": "view",
      "type": "function"
    },
    {
      "inputs": [],
      "name": "getTotalSoldTokens",
      "outputs": [
        {
          "internalType": "uint256",
          "name": "",
          "type": "uint256"
        }
      ],
      "stateMutability": "view",
      "type": "function"
    },
    {
      "inputs": [],
      "name": "getTotalUser",
      "outputs": [
        {
          "internalType": "uint256",
          "name": "",
          "type": "uint256"
        }
      ],
      "stateMutability": "view",
      "type": "function"
    },
    {
      "inputs": [
        {
          "internalType": "uint256",
          "name": "",
          "type": "uint256"
        }
      ],
      "name": "highestBidder",
      "outputs": [
        {
          "internalType": "address",
          "name": "",
          "type": "address"
        }
      ],
      "stateMutability": "view",
      "type": "function"
    },
    {
      "inputs": [
        {
          "internalType": "uint256",
          "name": "",
          "type": "uint256"
        }
      ],
      "name": "highestBiddingAmount",
      "outputs": [
        {
          "internalType": "uint256",
          "name": "",
          "type": "uint256"
        }
      ],
      "stateMutability": "view",
      "type": "function"
    },
    {
      "inputs": [
        {
          "internalType": "uint256",
          "name": "",
          "type": "uint256"
        }
      ],
      "name": "idToBiddedToken",
      "outputs": [
        {
          "internalType": "uint256",
          "name": "tokenId",
          "type": "uint256"
        },
        {
          "internalType": "uint256",
          "name": "biddingId",
          "type": "uint256"
        },
        {
          "internalType": "address",
          "name": "bidder",
          "type": "address"
        },
        {
          "internalType": "uint256",
          "name": "price",
          "type": "uint256"
        }
      ],
      "stateMutability": "view",
      "type": "function"
    },
    {
      "inputs": [
        {
          "internalType": "uint256",
          "name": "",
          "type": "uint256"
        }
      ],
      "name": "idToImageHash",
      "outputs": [
        {
          "internalType": "string",
          "name": "",
          "type": "string"
        }
      ],
      "stateMutability": "view",
      "type": "function"
    },
    {
      "inputs": [
        {
          "internalType": "uint256",
          "name": "",
          "type": "uint256"
        }
      ],
      "name": "idToListedToken",
      "outputs": [
        {
          "internalType": "uint256",
          "name": "tokenId",
          "type": "uint256"
        },
        {
          "internalType": "uint256",
          "name": "price",
          "type": "uint256"
        },
        {
          "internalType": "uint256",
          "name": "bidPrice",
          "type": "uint256"
        },
        {
          "internalType": "string",
          "name": "imgHash",
          "type": "string"
        },
        {
          "internalType": "address payable",
          "name": "owner",
          "type": "address"
        },
        {
          "internalType": "uint256",
          "name": "format",
          "type": "uint256"
        },
        {
          "internalType": "bool",
          "name": "NFTsold",
          "type": "bool"
        },
        {
          "internalType": "bool",
          "name": "NFTbought",
          "type": "bool"
        },
        {
          "internalType": "bool",
          "name": "NFTListed",
          "type": "bool"
        },
        {
          "internalType": "bool",
          "name": "NFTBidded",
          "type": "bool"
        },
        {
          "internalType": "bool",
          "name": "UserReportNft",
          "type": "bool"
        },
        {
          "internalType": "bool",
          "name": "AdminReportNft",
          "type": "bool"
        },
        {
          "internalType": "string",
          "name": "ReportMsg",
          "type": "string"
        }
      ],
      "stateMutability": "view",
      "type": "function"
    },
    {
      "inputs": [
        {
          "internalType": "uint256",
          "name": "",
          "type": "uint256"
        }
      ],
      "name": "idToSoldItems",
      "outputs": [
        {
          "internalType": "uint256",
          "name": "tokenId",
          "type": "uint256"
        },
        {
          "internalType": "uint256",
          "name": "price",
          "type": "uint256"
        },
        {
          "internalType": "address payable",
          "name": "owner",
          "type": "address"
        },
        {
          "internalType": "address",
          "name": "newOwner",
          "type": "address"
        },
        {
          "internalType": "bool",
          "name": "NFTsold",
          "type": "bool"
        }
      ],
      "stateMutability": "view",
      "type": "function"
    },
    {
      "inputs": [
        {
          "internalType": "address",
          "name": "owner",
          "type": "address"
        },
        {
          "internalType": "address",
          "name": "operator",
          "type": "address"
        }
      ],
      "name": "isApprovedForAll",
      "outputs": [
        {
          "internalType": "bool",
          "name": "",
          "type": "bool"
        }
      ],
      "stateMutability": "view",
      "type": "function"
    },
    {
      "inputs": [
        {
          "internalType": "uint256",
          "name": "id",
          "type": "uint256"
        }
      ],
      "name": "isAuctionExpired",
      "outputs": [
        {
          "internalType": "bool",
          "name": "",
          "type": "bool"
        }
      ],
      "stateMutability": "view",
      "type": "function"
    },
    {
      "inputs": [
        {
          "internalType": "uint256",
          "name": "id",
          "type": "uint256"
        }
      ],
      "name": "isAuctionOpen",
      "outputs": [
        {
          "internalType": "bool",
          "name": "",
          "type": "bool"
        }
      ],
      "stateMutability": "view",
      "type": "function"
    },
    {
      "inputs": [],
      "name": "listingCounter",
      "outputs": [
        {
          "internalType": "uint256",
          "name": "_value",
          "type": "uint256"
        }
      ],
      "stateMutability": "view",
      "type": "function"
    },
    {
      "inputs": [
        {
          "internalType": "uint256",
          "name": "",
          "type": "uint256"
        }
      ],
      "name": "listings",
      "outputs": [
        {
          "internalType": "uint256",
          "name": "biddingId",
          "type": "uint256"
        },
        {
          "internalType": "address payable",
          "name": "seller",
          "type": "address"
        },
        {
          "internalType": "uint256",
          "name": "tokenId",
          "type": "uint256"
        },
        {
          "internalType": "uint256",
          "name": "price",
          "type": "uint256"
        },
        {
          "internalType": "uint256",
          "name": "netPrice",
          "type": "uint256"
        },
        {
          "internalType": "uint256",
          "name": "startAt",
          "type": "uint256"
        },
        {
          "internalType": "uint256",
          "name": "deadline",
          "type": "uint256"
        },
        {
          "internalType": "string",
          "name": "date",
          "type": "string"
        },
        {
          "internalType": "uint256",
          "name": "status",
          "type": "uint256"
        }
      ],
      "stateMutability": "view",
      "type": "function"
    },
    {
      "inputs": [],
      "name": "minAuctionIncrement",
      "outputs": [
        {
          "internalType": "uint256",
          "name": "",
          "type": "uint256"
        }
      ],
      "stateMutability": "view",
      "type": "function"
    },
    {
      "inputs": [],
      "name": "name",
      "outputs": [
        {
          "internalType": "string",
          "name": "",
          "type": "string"
        }
      ],
      "stateMutability": "view",
      "type": "function"
    },
    {
      "inputs": [
        {
          "internalType": "address",
          "name": "user",
          "type": "address"
        }
      ],
      "name": "newUser",
      "outputs": [],
      "stateMutability": "nonpayable",
      "type": "function"
    },
    {
      "inputs": [
        {
          "internalType": "uint256",
          "name": "tokenId",
          "type": "uint256"
        }
      ],
      "name": "ownerOf",
      "outputs": [
        {
          "internalType": "address",
          "name": "",
          "type": "address"
        }
      ],
      "stateMutability": "view",
      "type": "function"
    },
    {
      "inputs": [
        {
          "internalType": "address",
          "name": "from",
          "type": "address"
        },
        {
          "internalType": "address",
          "name": "to",
          "type": "address"
        },
        {
          "internalType": "uint256",
          "name": "tokenId",
          "type": "uint256"
        }
      ],
      "name": "safeTransferFrom",
      "outputs": [],
      "stateMutability": "nonpayable",
      "type": "function"
    },
    {
      "inputs": [
        {
          "internalType": "address",
          "name": "from",
          "type": "address"
        },
        {
          "internalType": "address",
          "name": "to",
          "type": "address"
        },
        {
          "internalType": "uint256",
          "name": "tokenId",
          "type": "uint256"
        },
        {
          "internalType": "bytes",
          "name": "data",
          "type": "bytes"
        }
      ],
      "name": "safeTransferFrom",
      "outputs": [],
      "stateMutability": "nonpayable",
      "type": "function"
    },
    {
      "inputs": [
        {
          "internalType": "address",
          "name": "operator",
          "type": "address"
        },
        {
          "internalType": "bool",
          "name": "approved",
          "type": "bool"
        }
      ],
      "name": "setApprovalForAll",
      "outputs": [],
      "stateMutability": "nonpayable",
      "type": "function"
    },
    {
      "inputs": [
        {
          "internalType": "bytes4",
          "name": "interfaceId",
          "type": "bytes4"
        }
      ],
      "name": "supportsInterface",
      "outputs": [
        {
          "internalType": "bool",
          "name": "",
          "type": "bool"
        }
      ],
      "stateMutability": "view",
      "type": "function"
    },
    {
      "inputs": [],
      "name": "symbol",
      "outputs": [
        {
          "internalType": "string",
          "name": "",
          "type": "string"
        }
      ],
      "stateMutability": "view",
      "type": "function"
    },
    {
      "inputs": [
        {
          "internalType": "uint256",
          "name": "tokenId",
          "type": "uint256"
        }
      ],
      "name": "tokenURI",
      "outputs": [
        {
          "internalType": "string",
          "name": "",
          "type": "string"
        }
      ],
      "stateMutability": "view",
      "type": "function"
    },
    {
      "inputs": [
        {
          "internalType": "address",
          "name": "from",
          "type": "address"
        },
        {
          "internalType": "address",
          "name": "to",
          "type": "address"
        },
        {
          "internalType": "uint256",
          "name": "tokenId",
          "type": "uint256"
        }
      ],
      "name": "transferFrom",
      "outputs": [],
      "stateMutability": "nonpayable",
      "type": "function"
    },
    {
      "inputs": [],
      "name": "withdrawALL",
      "outputs": [],
      "stateMutability": "nonpayable",
      "type": "function"
    },
    {
      "inputs": [],
      "name": "withdrawALL2",
      "outputs": [],
      "stateMutability": "nonpayable",
      "type": "function"
    },
    {
      "inputs": [
        {
          "internalType": "uint256",
          "name": "listingId",
          "type": "uint256"
        }
      ],
      "name": "withdrawBid",
      "outputs": [],
      "stateMutability": "payable",
      "type": "function"
    }
  ],
  "bytecode": "0x6080604052600a6012553480156200001657600080fd5b50604080518082018252601581527f506f6c79676f6e4e46544d61726b6574706c61636500000000000000000000006020808301918252835180850190945260048452634441524b60e01b90840152815191929162000078916000916200009c565b5080516200008e9060019060208401906200009c565b50506001600755506200017f565b828054620000aa9062000142565b90600052602060002090601f016020900481019282620000ce576000855562000119565b82601f10620000e957805160ff191683800117855562000119565b8280016001018555821562000119579182015b8281111562000119578251825591602001919060010190620000fc565b50620001279291506200012b565b5090565b5b808211156200012757600081556001016200012c565b600181811c908216806200015757607f821691505b602082108114156200017957634e487b7160e01b600052602260045260246000fd5b50919050565b6150a0806200018f6000396000f3fe6080604052600436106103815760003560e01c806370a08231116101d1578063a71ffa7611610102578063c87b56dd116100a0578063e985e9c51161006f578063e985e9c514610b68578063edf2ebcc14610bb1578063f67a769c14610bc8578063fad266fe14610bdd57600080fd5b8063c87b56dd14610aad578063de74e57b14610acd578063e57a497a14610b02578063e877d3f814610b3b57600080fd5b8063b27dce81116100dc578063b27dce8114610a13578063b820a6d114610a35578063b88d4fde14610a57578063c750cb7914610a7757600080fd5b8063a71ffa76146109a2578063a9c63aa0146109b9578063adc2524c146109ce57600080fd5b806392a374b71161016f5780639d6e5fb3116101495780639d6e5fb3146109415780639debb7c414610956578063a22cb4651461096b578063a4fdb6351461098b57600080fd5b806392a374b7146108f957806395d89b41146109195780639b1225c41461092e57600080fd5b8063788077a7116101ab578063788077a7146108615780637aea3738146108765780637eb2de12146108a35780638055ccaa146108c357600080fd5b806370a0823114610817578063732e8d7314610837578063740db2801461084c57600080fd5b8063287906b5116102b65780634945dcdd116102545780636352211e116102235780636352211e1461074d5780636b8c91cb1461076d5780636c2c9c7d146107ea578063708d4d351461080157600080fd5b80634945dcdd146106c057806359be5e45146106e2578063629cb2e4146106f757806362b3db101461070c57600080fd5b806336ad658f1161029057806336ad658f1461064057806342842e0e14610657578063451df52e14610677578063454a2ab3146106ad57600080fd5b8063287906b51461056c578063330241001461058e578063356e93921461061f57600080fd5b80630cb5f653116103235780631a11ea06116102fd5780631a11ea06146104fd57806321b628861461051257806323b872dd1461052557806324f8515b1461054557600080fd5b80630cb5f653146104975780630eaaf4c8146104b75780631389b117146104ca57600080fd5b8063094efe741161035f578063094efe7414610415578063095ea7b3146104375780630ad48628146104575780630ad52cc61461047757600080fd5b806301ffc9a71461038657806306fdde03146103bb578063081812fc146103dd575b600080fd5b34801561039257600080fd5b506103a66103a13660046148cc565b610bf4565b60405190151581526020015b60405180910390f35b3480156103c757600080fd5b506103d0610c1f565b6040516103b29190614d9f565b3480156103e957600080fd5b506103fd6103f836600461496d565b610cb1565b6040516001600160a01b0390911681526020016103b2565b34801561042157600080fd5b50610435610430366004614985565b610cd8565b005b34801561044357600080fd5b506104356104523660046148a3565b610d18565b34801561046357600080fd5b506103a661047236600461496d565b610e2e565b34801561048357600080fd5b506103d061049236600461496d565b610e62565b3480156104a357600080fd5b506104356104b236600461476a565b610efc565b6104356104c536600461496d565b610fbc565b3480156104d657600080fd5b506103a66104e536600461496d565b60009081526013602052604090206006015442101590565b34801561050957600080fd5b5061043561121a565b61043561052036600461496d565b6113f3565b34801561053157600080fd5b506104356105403660046147b6565b611687565b34801561055157600080fd5b5061055a600181565b60405160ff90911681526020016103b2565b34801561057857600080fd5b506105816116b8565b6040516103b29190614bc7565b34801561059a57600080fd5b506105e96105a936600461496d565b600f602052600090815260409020805460018201546002830154600390930154919290916001600160a01b0391821691811690600160a01b900460ff1685565b6040805195865260208601949094526001600160a01b03928316938501939093521660608301521515608082015260a0016103b2565b61063261062d366004614904565b6119fd565b6040519081526020016103b2565b34801561064c57600080fd5b506008546106329081565b34801561066357600080fd5b506104356106723660046147b6565b611bd2565b34801561068357600080fd5b506103fd61069236600461496d565b6014602052600090815260409020546001600160a01b031681565b6104356106bb36600461496d565b611bed565b3480156106cc57600080fd5b506106d5611f3b565b6040516103b29190614ce1565b3480156106ee57600080fd5b506106326121ee565b34801561070357600080fd5b506105816121fe565b34801561071857600080fd5b5061043561072736600461496d565b6000908152600e60205260409020600601805465ff00000000001916600160281b179055565b34801561075957600080fd5b506103fd61076836600461496d565b61254c565b34801561077957600080fd5b506107bb61078836600461496d565b6016602052600090815260409020805460018201546002830154600390930154919290916001600160a01b039091169084565b6040516103b2949392919093845260208401929092526001600160a01b03166040830152606082015260800190565b3480156107f657600080fd5b50600b546106329081565b34801561080d57600080fd5b5061063260125481565b34801561082357600080fd5b5061063261083236600461476a565b6125ac565b34801561084357600080fd5b50610581612632565b34801561085857600080fd5b5061055a600081565b34801561086d57600080fd5b5061058161296c565b34801561088257600080fd5b5061063261089136600461496d565b60009081526015602052604090205490565b3480156108af57600080fd5b506104356108be36600461496d565b612ccf565b3480156108cf57600080fd5b506103fd6108de36600461496d565b6011602052600090815260409020546001600160a01b031681565b34801561090557600080fd5b506106326109143660046149ea565b612d16565b34801561092557600080fd5b506103d0612e80565b61043561093c36600461496d565b612e8f565b34801561094d57600080fd5b50610632613088565b34801561096257600080fd5b50610435613093565b34801561097757600080fd5b50610435610986366004614869565b61325d565b34801561099757600080fd5b50600c546106329081565b3480156109ae57600080fd5b50600d546106329081565b3480156109c557600080fd5b50610632613268565b3480156109da57600080fd5b506104356109e93660046149c9565b6000908152600e602052604090206001810191909155600601805462ff0000191662010000179055565b348015610a1f57600080fd5b50610a28613273565b6040516103b29190614b56565b348015610a4157600080fd5b50610a4a613468565b6040516103b29190614ae9565b348015610a6357600080fd5b50610435610a723660046147f1565b61363c565b348015610a8357600080fd5b506103fd610a9236600461496d565b6000908152601460205260409020546001600160a01b031690565b348015610ab957600080fd5b506103d0610ac836600461496d565b613674565b348015610ad957600080fd5b50610aed610ae836600461496d565b61377d565b6040516103b299989796959493929190614e96565b348015610b0e57600080fd5b50610b22610b1d36600461496d565b61385c565b6040516103b29d9c9b9a99989796959493929190614ef4565b348015610b4757600080fd5b50610632610b5636600461496d565b60156020526000908152604090205481565b348015610b7457600080fd5b506103a6610b83366004614784565b6001600160a01b03918216600090815260056020908152604080832093909416825291909152205460ff1690565b348015610bbd57600080fd5b506009546106329081565b348015610bd457600080fd5b506106326139f3565b348015610be957600080fd5b50600a546106329081565b60006001600160e01b03198216632483248360e11b1480610c195750610c19826139fe565b92915050565b606060008054610c2e90614fd2565b80601f0160208091040260200160405190810160405280929190818152602001828054610c5a90614fd2565b8015610ca75780601f10610c7c57610100808354040283529160200191610ca7565b820191906000526020600020905b815481529060010190602001808311610c8a57829003601f168201915b5050505050905090565b6000610cbc82613a4e565b506000908152600460205260409020546001600160a01b031690565b6000828152600e6020908152604090912060068101805464ff000000001916600160201b1790558251610d13926007909201918401906145a4565b505050565b6000610d238261254c565b9050806001600160a01b0316836001600160a01b03161415610d965760405162461bcd60e51b815260206004820152602160248201527f4552433732313a20617070726f76616c20746f2063757272656e74206f776e656044820152603960f91b60648201526084015b60405180910390fd5b336001600160a01b0382161480610db25750610db28133610b83565b610e245760405162461bcd60e51b815260206004820152603d60248201527f4552433732313a20617070726f76652063616c6c6572206973206e6f7420746f60448201527f6b656e206f776e6572206f7220617070726f76656420666f7220616c6c0000006064820152608401610d8d565b610d138383613aad565b6000818152601360205260408120600801546001148015610c19575050600090815260136020526040902060060154421090565b60106020526000908152604090208054610e7b90614fd2565b80601f0160208091040260200160405190810160405280929190818152602001828054610ea790614fd2565b8015610ef45780601f10610ec957610100808354040283529160200191610ef4565b820191906000526020600020905b815481529060010190602001808311610ed757829003601f168201915b505050505081565b6000610f07600d5490565b90506000805b82811015610f6e576001600160a01b03841660116000610f2e846001614f8e565b81526020810191909152604001600020546001600160a01b03161415610f5c57610f59600183614f8e565b91505b80610f668161500d565b915050610f0d565b5080610d1357610f82600d80546001019055565b6000610f8d600d5490565b600090815260116020526040902080546001600160a01b0386166001600160a01b031990911617905550505050565b610fc4613b1b565b60008181526013602052604090206006015442101561101d5760405162461bcd60e51b8152602060048201526015602482015274185d58dd1a5bdb881b5d5cdd08189948195b991959605a1b6044820152606401610d8d565b6000818152601460205260409020546001600160a01b031633141561108f5760405162461bcd60e51b815260206004820152602260248201527f68696768657374206269646465722063616e6e6f7420776974686472617720626044820152611a5960f21b6064820152608401610d8d565b600061109a600c5490565b90506000805b828110156111dc5733601660006110b8846001614f8e565b81526020810191909152604001600020600201546001600160a01b03161480156111015750601660006110ec836001614f8e565b81526020019081526020016000206001015484145b156111ca5760166000611115836001614f8e565b815260200190815260200160002060030154600014156111775760405162461bcd60e51b815260206004820152601b60248201527f596f75206861766520616c7265616479207769746864726177656400000000006044820152606401610d8d565b60166000611186836001614f8e565b815260200190815260200160002060030154826111a39190614f8e565b915060006016816111b5846001614f8e565b81526020810191909152604001600020600301555b806111d48161500d565b9150506110a0565b50604051339082156108fc029083906000818181858888f1935050505015801561120a573d6000803e3d6000fd5b5050506112176001600755565b50565b6000805b600c548110156113c15760166000611237836001614f8e565b81526020810191909152604001600020600201546001600160a01b03163314801561129757506013600060168161126f856001614f8e565b8152602001908152602001600020600101548152602001908152602001600020600801546000145b80156112f1575033601460006016816112b1866001614f8e565b815260200190815260200160002060010154815260200190815260200160002060009054906101000a90046001600160a01b03166001600160a01b031614155b156113af5760166000611305836001614f8e565b8152602001908152602001600020600301546000141561135c5760405162461bcd60e51b81526020600482015260126024820152715769746864726177656420616c726561647960701b6044820152606401610d8d565b6016600061136b836001614f8e565b815260200190815260200160002060030154826113889190614f8e565b9150600060168161139a846001614f8e565b81526020810191909152604001600020600301555b6113ba600182614f8e565b905061121e565b50604051339082156108fc029083906000818181858888f193505050501580156113ef573d6000803e3d6000fd5b5050565b6113fb613b1b565b61140481610e2e565b156114495760405162461bcd60e51b815260206004820152601560248201527430bab1ba34b7b71034b99039ba34b6361037b832b760591b6044820152606401610d8d565b600081815260136020908152604080832060149092529091205460018201546001600160a01b03918216911633148061148a5750336001600160a01b038216145b6114e95760405162461bcd60e51b815260206004820152602a60248201527f6f6e6c792073656c6c6572206f722077696e6e65722063616e20636f6d706c656044820152693a329030bab1ba34b7b760b11b6064820152608401610d8d565b60008381526015602052604090205460028301548161152f57600060088501819055818152600e6020526040812060068101805463ff0000001916905560020155611679565b600184015460028501546001600160a01b03909116906115529082908690613b75565b6040516001600160a01b0382169084156108fc029085906000818181858888f19350505050158015611588573d6000803e3d6000fd5b50611597600980546001019055565b60006115a260095490565b6040805160a08101825285815260208082018881526001600160a01b0396871683850190815233606085019081526001608086018181526000988952600f865287892096518755935186820155915160028087018054928c166001600160a01b031993841617905591516003909601805494511515600160a01b026001600160a81b0319909516968b1696909617939093179094558b018054978b1697821688179055878552600e9091529183206004810180549093169095179091556008880182905583015550600601805463ff000000191690555b505050506112176001600755565b6116913382613cd9565b6116ad5760405162461bcd60e51b8152600401610d8d90614db2565b610d13838383613b75565b606060006116c560085490565b905060008060005b8381101561171e57600e60006116e4836001614f8e565b8152602001908152602001600020600501546001141561170c57611709600184614f8e565b92505b611717600182614f8e565b90506116cd565b506000826001600160401b0381111561174757634e487b7160e01b600052604160045260246000fd5b60405190808252806020026020018201604052801561178057816020015b61176d614628565b8152602001906001900390816117655790505b50905060005b848110156119f4576000600e8161179e846001614f8e565b81526020019081526020016000209050600e60008360016117bf9190614f8e565b815260200190815260200160002060050154600114156119e15780604051806101a001604052908160008201548152602001600182015481526020016002820154815260200160038201805461181490614fd2565b80601f016020809104026020016040519081016040528092919081815260200182805461184090614fd2565b801561188d5780601f106118625761010080835404028352916020019161188d565b820191906000526020600020905b81548152906001019060200180831161187057829003601f168201915b505050918352505060048201546001600160a01b0316602082015260058201546040820152600682015460ff808216151560608401526101008083048216151560808501526201000083048216151560a0850152630100000083048216151560c0850152600160201b83048216151560e0850152600160281b909204161515908201526007820180546101209092019161192690614fd2565b80601f016020809104026020016040519081016040528092919081815260200182805461195290614fd2565b801561199f5780601f106119745761010080835404028352916020019161199f565b820191906000526020600020905b81548152906001019060200180831161198257829003601f168201915b5050505050815250508385815181106119c857634e487b7160e01b600052603260045260246000fd5b60209081029190910101526119de600185614f8e565b93505b506119ed600182614f8e565b9050611786565b50949350505050565b600080611a0960085490565b905080611a1557611b6f565b606060005b82811015611b6c5760106000611a31836001614f8e565b81526020019081526020016000208054611a4a90614fd2565b80601f0160208091040260200160405190810160405280929190818152602001828054611a7690614fd2565b8015611ac35780601f10611a9857610100808354040283529160200191611ac3565b820191906000526020600020905b815481529060010190602001808311611aa657829003601f168201915b5050505050915085604051602001611adb9190614a61565b6040516020818303038152906040528051906020012082604051602001611b029190614a61565b604051602081830303815290604052805190602001201415611b5a5760405162461bcd60e51b815260206004820152601160248201527013919508185b1c9958591e48195e1a5cdd607a1b6044820152606401610d8d565b80611b648161500d565b915050611a1a565b50505b611b7d600880546001019055565b6000611b8860085490565b9050611b943382613d57565b611b9e8187613d71565b60008181526010602090815260409091208651611bbd928801906145a4565b50611bc9818587613e43565b95945050505050565b610d138383836040518060200160405280600081525061363c565b611bf5613b1b565b611bfe81610e2e565b611c3e5760405162461bcd60e51b8152602060048201526011602482015270185d58dd1a5bdb881a185cc8195b991959607a1b6044820152606401610d8d565b6000818152601360205260409020600301543411611c9e5760405162461bcd60e51b815260206004820152601f60248201527f56616c756520697320736d616c6c6572207468616e206269642076616c7565006044820152606401610d8d565b6000818152601360205260409020600101546001600160a01b0316331415611d085760405162461bcd60e51b815260206004820152601a60248201527f796f752063616e27742062696420796f7572206f776e206e66740000000000006044820152606401610d8d565b60008060005b600c54811015611e495760166000611d27836001614f8e565b81526020810191909152604001600020600201546001600160a01b031633148015611d71575060166000611d5c836001614f8e565b81526020019081526020016000206001015484145b15611e37573460166000611d86846001614f8e565b81526020019081526020016000206003016000828254611da69190614f8e565b90915550506000848152601560205260408120546001945092508290601690611dcf8487614f8e565b8152602001908152602001600020600301541115611e3757600084815260146020526040812080546001600160a01b03191633179055601690611e13836001614f8e565b81526020808201929092526040908101600090812060030154878252601590935220555b80611e418161500d565b915050611d0e565b5081611f2657611e5d600c80546001019055565b6000611e68600c5490565b6040805160808101825260008781526013602090815283822060029081015484528184018a8152338587019081523460608701818152898752601686528887209751885592516001880155905192860180546001600160a01b0319166001600160a01b0390941693909317909255516003909401939093558882526015905291909120549350909150821015611f2457600084815260146020908152604080832080546001600160a01b03191633179055601590915290203490555b505b611f2f33610efc565b50506112176001600755565b60606000611f48600b5490565b905060008060005b83811015611fa05760136000611f67836001614f8e565b815260200190815260200160002060030154600014611f8e57611f8b600184614f8e565b92505b611f99600182614f8e565b9050611f50565b506000826001600160401b03811115611fc957634e487b7160e01b600052604160045260246000fd5b60405190808252806020026020018201604052801561205257816020015b61203f6040518061012001604052806000815260200160006001600160a01b03168152602001600081526020016000815260200160008152602001600081526020016000815260200160608152602001600081525090565b815260200190600190039081611fe75790505b50905060005b848110156119f4576000601381612070846001614f8e565b81526020019081526020016000209050601360008360016120919190614f8e565b8152602001908152602001600020600301546000146121db5760408051610120810182528254815260018301546001600160a01b031660208201526002830154918101919091526003820154606082015260048201546080820152600582015460a0820152600682015460c0820152600782018054839160e084019161211690614fd2565b80601f016020809104026020016040519081016040528092919081815260200182805461214290614fd2565b801561218f5780601f106121645761010080835404028352916020019161218f565b820191906000526020600020905b81548152906001019060200180831161217257829003601f168201915b505050505081526020016008820154815250508385815181106121c257634e487b7160e01b600052603260045260246000fd5b60209081029190910101526121d8600185614f8e565b93505b506121e7600182614f8e565b9050612058565b60006121f960095490565b905090565b6060600061220b60085490565b9050600080805b8381101561226d5733600e600061222a846001614f8e565b81526020810191909152604001600020600401546001600160a01b0316141561225b57816122578161500d565b9250505b806122658161500d565b915050612212565b506000816001600160401b0381111561229657634e487b7160e01b600052604160045260246000fd5b6040519080825280602002602001820160405280156122cf57816020015b6122bc614628565b8152602001906001900390816122b45790505b50905060005b848110156119f45733600e60006122ed846001614f8e565b81526020810191909152604001600020600401546001600160a01b0316141561253a576000600e81612320846001614f8e565b8152602001908152602001600020905080604051806101a001604052908160008201548152602001600182015481526020016002820154815260200160038201805461236b90614fd2565b80601f016020809104026020016040519081016040528092919081815260200182805461239790614fd2565b80156123e45780601f106123b9576101008083540402835291602001916123e4565b820191906000526020600020905b8154815290600101906020018083116123c757829003601f168201915b505050918352505060048201546001600160a01b0316602082015260058201546040820152600682015460ff808216151560608401526101008083048216151560808501526201000083048216151560a0850152630100000083048216151560c0850152600160201b83048216151560e0850152600160281b909204161515908201526007820180546101209092019161247d90614fd2565b80601f01602080910402602001604051908101604052809291908181526020018280546124a990614fd2565b80156124f65780601f106124cb576101008083540402835291602001916124f6565b820191906000526020600020905b8154815290600101906020018083116124d957829003601f168201915b50505050508152505083868151811061251f57634e487b7160e01b600052603260045260246000fd5b602002602001018190525084806125359061500d565b955050505b806125448161500d565b9150506122d5565b6000818152600260205260408120546001600160a01b031680610c195760405162461bcd60e51b8152602060048201526018602482015277115490cdcc8c4e881a5b9d985b1a59081d1bdad95b88125160421b6044820152606401610d8d565b60006001600160a01b0382166126165760405162461bcd60e51b815260206004820152602960248201527f4552433732313a2061646472657373207a65726f206973206e6f7420612076616044820152683634b21037bbb732b960b91b6064820152608401610d8d565b506001600160a01b031660009081526003602052604090205490565b6060600061263f60085490565b905060008060005b8381101561269757600e600061265e836001614f8e565b81526020019081526020016000206001015460001461268557612682600184614f8e565b92505b612690600182614f8e565b9050612647565b506000826001600160401b038111156126c057634e487b7160e01b600052604160045260246000fd5b6040519080825280602002602001820160405280156126f957816020015b6126e6614628565b8152602001906001900390816126de5790505b50905060005b848110156119f4576000600e81612717846001614f8e565b81526020019081526020016000209050600e60008360016127389190614f8e565b8152602001908152602001600020600101546000146129595780604051806101a001604052908160008201548152602001600182015481526020016002820154815260200160038201805461278c90614fd2565b80601f01602080910402602001604051908101604052809291908181526020018280546127b890614fd2565b80156128055780601f106127da57610100808354040283529160200191612805565b820191906000526020600020905b8154815290600101906020018083116127e857829003601f168201915b505050918352505060048201546001600160a01b0316602082015260058201546040820152600682015460ff808216151560608401526101008083048216151560808501526201000083048216151560a0850152630100000083048216151560c0850152600160201b83048216151560e0850152600160281b909204161515908201526007820180546101209092019161289e90614fd2565b80601f01602080910402602001604051908101604052809291908181526020018280546128ca90614fd2565b80156129175780601f106128ec57610100808354040283529160200191612917565b820191906000526020600020905b8154815290600101906020018083116128fa57829003601f168201915b50505050508152505083858151811061294057634e487b7160e01b600052603260045260246000fd5b6020908102919091010152612956600185614f8e565b93505b50612965600182614f8e565b90506126ff565b60606000612979600c5490565b905060008060005b838110156129dc573360166000612999846001614f8e565b81526020810191909152604001600020600201546001600160a01b031614156129ca576129c7600184614f8e565b92505b6129d5600182614f8e565b9050612981565b506000826001600160401b03811115612a0557634e487b7160e01b600052604160045260246000fd5b604051908082528060200260200182016040528015612a3e57816020015b612a2b614628565b815260200190600190039081612a235790505b50905060005b848110156119f4573360166000612a5c846001614f8e565b81526020810191909152604001600020600201546001600160a01b03161415612cbd576000600e81601681612a92866001614f8e565b8152602001908152602001600020600001548152602001908152602001600020905080604051806101a0016040529081600082015481526020016001820154815260200160028201548152602001600382018054612aef90614fd2565b80601f0160208091040260200160405190810160405280929190818152602001828054612b1b90614fd2565b8015612b685780601f10612b3d57610100808354040283529160200191612b68565b820191906000526020600020905b815481529060010190602001808311612b4b57829003601f168201915b505050918352505060048201546001600160a01b0316602082015260058201546040820152600682015460ff808216151560608401526101008083048216151560808501526201000083048216151560a0850152630100000083048216151560c0850152600160201b83048216151560e0850152600160281b9092041615159082015260078201805461012090920191612c0190614fd2565b80601f0160208091040260200160405190810160405280929190818152602001828054612c2d90614fd2565b8015612c7a5780601f10612c4f57610100808354040283529160200191612c7a565b820191906000526020600020905b815481529060010190602001808311612c5d57829003601f168201915b505050505081525050838581518110612ca357634e487b7160e01b600052603260045260246000fd5b6020908102919091010152612cb9600185614f8e565b9350505b612cc8600182614f8e565b9050612a44565b6000818152600e6020818152604080842060068101805464ff0000000019169055815180840192839052858152948690529290915291516113ef92600790920191906145a4565b6000612d26600b80546001019055565b6000612d31600b5490565b9050426000612d408683614f8e565b905087600e600089815260200190815260200160002060020181905550604051806101200160405280848152602001336001600160a01b03168152602001888152602001898152602001898152602001838152602001828152602001868152602001600160ff16815250601360008581526020019081526020016000206000820151816000015560208201518160010160006101000a8154816001600160a01b0302191690836001600160a01b0316021790555060408201518160020155606082015181600301556080820151816004015560a0820151816005015560c0820151816006015560e0820151816007019080519060200190612e429291906145a4565b50610100919091015160089091015550506000858152600e60205260409020600601805463ff0000001916630100000017905590505b949350505050565b606060018054610c2e90614fd2565b6000818152600e6020526040902060018101546004909101546001600160a01b0316331415612f005760405162461bcd60e51b815260206004820152601a60248201527f796f752063616e27742062757920796f7572206f776e206e66740000000000006044820152606401610d8d565b6000828152600e60205260409020600401546001600160a01b0316612f26813385613b75565b612f308184610d18565b6000838152600e60205260408082206004810180546001600160a01b03191633179055600601805461010161ffff19909116179055516001600160a01b038316913480156108fc02929091818181858888f19350505050158015612f98573d6000803e3d6000fd5b50612fa7600980546001019055565b6000612fb260095490565b6040805160a08101825286815260208082018781526001600160a01b03808816848601908152336060860181815260016080880181815260008b8152600f89528a812099518a5596518983015593516002890180549187166001600160a01b031990921691909117905590516003909701805493511515600160a01b026001600160a81b0319909416979094169690961791909117909155898252600e9092529283209091019190915590915061306890610efc565b5050506000908152600e60205260409020600601805462ff000019169055565b60006121f9600c5490565b6000805b600c548110156113ef57601660006130b0836001614f8e565b81526020810191909152604001600020600201546001600160a01b0316331480156131105750601360006016816130e8856001614f8e565b8152602001908152602001600020600101548152602001908152602001600020600801546000145b801561316a5750336014600060168161312a866001614f8e565b815260200190815260200160002060010154815260200190815260200160002060009054906101000a90046001600160a01b03166001600160a01b031614155b1561324b576016600061317e836001614f8e565b815260200190815260200160002060030154600014156131d55760405162461bcd60e51b81526020600482015260126024820152715769746864726177656420616c726561647960701b6044820152606401610d8d565b336108fc601660006131e8856001614f8e565b8152602001908152602001600020600301549081150290604051600060405180830381858888f19350505050158015613225573d6000803e3d6000fd5b506000601681613236846001614f8e565b81526020810191909152604001600020600301555b613256600182614f8e565b9050613097565b6113ef338383613fe4565b60006121f9600d5490565b6060600061328060095490565b9050600080805b838110156132e25733600f600061329f846001614f8e565b81526020810191909152604001600020600201546001600160a01b031614156132d057816132cc8161500d565b9250505b806132da8161500d565b915050613287565b506000816001600160401b0381111561330b57634e487b7160e01b600052604160045260246000fd5b60405190808252806020026020018201604052801561336457816020015b6040805160a0810182526000808252602080830182905292820181905260608201819052608082015282526000199092019101816133295790505b50905060005b848110156119f45733600f6000613382846001614f8e565b81526020810191909152604001600020600201546001600160a01b03161415613456576000600f816133b5846001614f8e565b81526020808201929092526040908101600020815160a0810183528154815260018201549381019390935260028101546001600160a01b039081169284019290925260038101549182166060840152600160a01b90910460ff1615156080830152845190925084908790811061343b57634e487b7160e01b600052603260045260246000fd5b602002602001018190525084806134519061500d565b955050505b806134608161500d565b91505061336a565b60606000613475600c5490565b9050600080805b838110156134cc5760166000613493836001614f8e565b8152602001908152602001600020600301546000146134ba57816134b68161500d565b9250505b806134c48161500d565b91505061347c565b506000816001600160401b038111156134f557634e487b7160e01b600052604160045260246000fd5b60405190808252806020026020018201604052801561355a57816020015b6135476040518060800160405280600081526020016000815260200160006001600160a01b03168152602001600081525090565b8152602001906001900390816135135790505b50905060005b848110156119f45760166000613577836001614f8e565b81526020019081526020016000206003015460001461362a5760006016816135a0846001614f8e565b8152602080820192909252604090810160002081516080810183528154815260018201549381019390935260028101546001600160a01b03169183019190915260038101546060830152845190925084908790811061360f57634e487b7160e01b600052603260045260246000fd5b602002602001018190525084806136259061500d565b955050505b806136348161500d565b915050613560565b6136463383613cd9565b6136625760405162461bcd60e51b8152600401610d8d90614db2565b61366e848484846140b3565b50505050565b606061367f82613a4e565b6000828152600660205260408120805461369890614fd2565b80601f01602080910402602001604051908101604052809291908181526020018280546136c490614fd2565b80156137115780601f106136e657610100808354040283529160200191613711565b820191906000526020600020905b8154815290600101906020018083116136f457829003601f168201915b50505050509050600061372f60408051602081019091526000815290565b9050805160001415613742575092915050565b81511561377457808260405160200161375c929190614a7d565b60405160208183030381529060405292505050919050565b612e78846140e6565b6013602052600090815260409020805460018201546002830154600384015460048501546005860154600687015460078801805497986001600160a01b039097169795969495939492939192916137d390614fd2565b80601f01602080910402602001604051908101604052809291908181526020018280546137ff90614fd2565b801561384c5780601f106138215761010080835404028352916020019161384c565b820191906000526020600020905b81548152906001019060200180831161382f57829003601f168201915b5050505050908060080154905089565b600e6020526000908152604090208054600182015460028301546003840180549394929391929161388c90614fd2565b80601f01602080910402602001604051908101604052809291908181526020018280546138b890614fd2565b80156139055780601f106138da57610100808354040283529160200191613905565b820191906000526020600020905b8154815290600101906020018083116138e857829003601f168201915b50505060048401546005850154600686015460078701805496976001600160a01b039094169692955060ff8083169550610100830481169462010000840482169463010000008504831694600160201b8104841694600160281b909104909316929061397090614fd2565b80601f016020809104026020016040519081016040528092919081815260200182805461399c90614fd2565b80156139e95780601f106139be576101008083540402835291602001916139e9565b820191906000526020600020905b8154815290600101906020018083116139cc57829003601f168201915b505050505090508d565b60006121f960085490565b60006001600160e01b031982166380ac58cd60e01b1480613a2f57506001600160e01b03198216635b5e139f60e01b145b80610c1957506301ffc9a760e01b6001600160e01b0319831614610c19565b6000818152600260205260409020546001600160a01b03166112175760405162461bcd60e51b8152602060048201526018602482015277115490cdcc8c4e881a5b9d985b1a59081d1bdad95b88125160421b6044820152606401610d8d565b600081815260046020526040902080546001600160a01b0319166001600160a01b0384169081179091558190613ae28261254c565b6001600160a01b03167f8c5be1e5ebec7d5bd14f71427d1e84f3dd0314c0f7b2291e5b200ac8c7c3b92560405160405180910390a45050565b60026007541415613b6e5760405162461bcd60e51b815260206004820152601f60248201527f5265656e7472616e637947756172643a207265656e7472616e742063616c6c006044820152606401610d8d565b6002600755565b826001600160a01b0316613b888261254c565b6001600160a01b031614613bae5760405162461bcd60e51b8152600401610d8d90614e51565b6001600160a01b038216613c105760405162461bcd60e51b8152602060048201526024808201527f4552433732313a207472616e7366657220746f20746865207a65726f206164646044820152637265737360e01b6064820152608401610d8d565b826001600160a01b0316613c238261254c565b6001600160a01b031614613c495760405162461bcd60e51b8152600401610d8d90614e51565b600081815260046020908152604080832080546001600160a01b03199081169091556001600160a01b0387811680865260038552838620805460001901905590871680865283862080546001019055868652600290945282852080549092168417909155905184937fddf252ad1be2c89b69c2b068fc378daa952ba7f163c4a11628f55a4df523b3ef91a4505050565b600080613ce58361254c565b9050806001600160a01b0316846001600160a01b03161480613d2c57506001600160a01b0380821660009081526005602090815260408083209388168352929052205460ff165b80612e785750836001600160a01b0316613d4584610cb1565b6001600160a01b031614949350505050565b6113ef82826040518060200160405280600081525061415a565b6000828152600260205260409020546001600160a01b0316613dec5760405162461bcd60e51b815260206004820152602e60248201527f45524337323155524953746f726167653a2055524920736574206f66206e6f6e60448201526d32bc34b9ba32b73a103a37b5b2b760911b6064820152608401610d8d565b60008281526006602090815260409091208251613e0b928401906145a4565b506040518281527ff8e1a15aba9398e019f0b49df1a4fde98ee17ae345cb5f6b5e2c27f5033e8ce79060200160405180910390a15050565b604080516101a081018252848152600060208083018281528385018381526060850187815233608087015260a0860189905260c0860185905260e08601859052610100860185905261012086018590526101408601859052610160860185905286518085018852858152610180870152898552600e8452959093208451815590516001820155915160028301559251805192939192613ee892600385019201906145a4565b5060808201516004820180546001600160a01b039092166001600160a01b031990921691909117905560a0820151600582015560c082015160068201805460e0850151610100808701516101208801516101408901516101608a01511515600160281b0265ff000000000019911515600160201b029190911665ffff000000001992151563010000000263ff0000001994151562010000029490941663ffff00001996151590950261ff00199915159990991661ffff19909716969096179790971793909316919091171716179190911790556101808201518051613fd79160078401916020909101906145a4565b50905050610d1333610efc565b816001600160a01b0316836001600160a01b031614156140465760405162461bcd60e51b815260206004820152601960248201527f4552433732313a20617070726f766520746f2063616c6c6572000000000000006044820152606401610d8d565b6001600160a01b03838116600081815260056020908152604080832094871680845294825291829020805460ff191686151590811790915591519182527f17307eab39ab6107e8899845ad3d59bd9653f200f220920489ca2b5937696c31910160405180910390a3505050565b6140be848484613b75565b6140ca8484848461418d565b61366e5760405162461bcd60e51b8152600401610d8d90614dff565b60606140f182613a4e565b600061410860408051602081019091526000815290565b905060008151116141285760405180602001604052806000815250614153565b8061413284614297565b604051602001614143929190614a7d565b6040516020818303038152906040525b9392505050565b6141648383614341565b614171600084848461418d565b610d135760405162461bcd60e51b8152600401610d8d90614dff565b60006001600160a01b0384163b1561428f57604051630a85bd0160e11b81526001600160a01b0385169063150b7a02906141d1903390899088908890600401614aac565b602060405180830381600087803b1580156141eb57600080fd5b505af192505050801561421b575060408051601f3d908101601f19168201909252614218918101906148e8565b60015b614275573d808015614249576040519150601f19603f3d011682016040523d82523d6000602084013e61424e565b606091505b50805161426d5760405162461bcd60e51b8152600401610d8d90614dff565b805181602001fd5b6001600160e01b031916630a85bd0160e11b149050612e78565b506001612e78565b606060006142a4836144cc565b60010190506000816001600160401b038111156142d157634e487b7160e01b600052604160045260246000fd5b6040519080825280601f01601f1916602001820160405280156142fb576020820181803683370190505b5090508181016020015b600019016f181899199a1a9b1b9c1cb0b131b232b360811b600a86061a8153600a850494508461433457614339565b614305565b509392505050565b6001600160a01b0382166143975760405162461bcd60e51b815260206004820181905260248201527f4552433732313a206d696e7420746f20746865207a65726f20616464726573736044820152606401610d8d565b6000818152600260205260409020546001600160a01b0316156143fc5760405162461bcd60e51b815260206004820152601c60248201527f4552433732313a20746f6b656e20616c7265616479206d696e746564000000006044820152606401610d8d565b6000818152600260205260409020546001600160a01b0316156144615760405162461bcd60e51b815260206004820152601c60248201527f4552433732313a20746f6b656e20616c7265616479206d696e746564000000006044820152606401610d8d565b6001600160a01b038216600081815260036020908152604080832080546001019055848352600290915280822080546001600160a01b0319168417905551839291907fddf252ad1be2c89b69c2b068fc378daa952ba7f163c4a11628f55a4df523b3ef908290a45050565b60008072184f03e93ff9f4daa797ed6e38ed64bf6a1f0160401b831061450b5772184f03e93ff9f4daa797ed6e38ed64bf6a1f0160401b830492506040015b6d04ee2d6d415b85acef81000000008310614537576d04ee2d6d415b85acef8100000000830492506020015b662386f26fc10000831061455557662386f26fc10000830492506010015b6305f5e100831061456d576305f5e100830492506008015b612710831061458157612710830492506004015b60648310614593576064830492506002015b600a8310610c195760010192915050565b8280546145b090614fd2565b90600052602060002090601f0160209004810192826145d25760008555614618565b82601f106145eb57805160ff1916838001178555614618565b82800160010185558215614618579182015b828111156146185782518255916020019190600101906145fd565b506146249291506146a5565b5090565b604051806101a001604052806000815260200160008152602001600081526020016060815260200160006001600160a01b0316815260200160008152602001600015158152602001600015158152602001600015158152602001600015158152602001600015158152602001600015158152602001606081525090565b5b8082111561462457600081556001016146a6565b60006001600160401b03808411156146d4576146d461503e565b604051601f8501601f19908116603f011681019082821181831017156146fc576146fc61503e565b8160405280935085815286868601111561471557600080fd5b858560208301376000602087830101525050509392505050565b80356001600160a01b038116811461474657600080fd5b919050565b600082601f83011261475b578081fd5b614153838335602085016146ba565b60006020828403121561477b578081fd5b6141538261472f565b60008060408385031215614796578081fd5b61479f8361472f565b91506147ad6020840161472f565b90509250929050565b6000806000606084860312156147ca578081fd5b6147d38461472f565b92506147e16020850161472f565b9150604084013590509250925092565b60008060008060808587031215614806578081fd5b61480f8561472f565b935061481d6020860161472f565b92506040850135915060608501356001600160401b0381111561483e578182fd5b8501601f8101871361484e578182fd5b61485d878235602084016146ba565b91505092959194509250565b6000806040838503121561487b578182fd5b6148848361472f565b915060208301358015158114614898578182fd5b809150509250929050565b600080604083850312156148b5578182fd5b6148be8361472f565b946020939093013593505050565b6000602082840312156148dd578081fd5b813561415381615054565b6000602082840312156148f9578081fd5b815161415381615054565b600080600060608486031215614918578283fd5b83356001600160401b038082111561492e578485fd5b61493a8783880161474b565b9450602086013591508082111561494f578384fd5b5061495c8682870161474b565b925050604084013590509250925092565b60006020828403121561497e578081fd5b5035919050565b60008060408385031215614997578182fd5b8235915060208301356001600160401b038111156149b3578182fd5b6149bf8582860161474b565b9150509250929050565b600080604083850312156149db578182fd5b50508035926020909101359150565b600080600080608085870312156149ff578384fd5b84359350602085013592506040850135915060608501356001600160401b03811115614a29578182fd5b61485d8782880161474b565b60008151808452614a4d816020860160208601614fa6565b601f01601f19169290920160200192915050565b60008251614a73818460208701614fa6565b9190910192915050565b60008351614a8f818460208801614fa6565b835190830190614aa3818360208801614fa6565b01949350505050565b6001600160a01b0385811682528416602082015260408101839052608060608201819052600090614adf90830184614a35565b9695505050505050565b602080825282518282018190526000919060409081850190868401855b82811015614b49578151805185528681015187860152858101516001600160a01b0316868601526060908101519085015260809093019290850190600101614b06565b5091979650505050505050565b602080825282518282018190526000919060409081850190868401855b82811015614b49578151805185528681015187860152858101516001600160a01b03908116878701526060808301519091169086015260809081015115159085015260a09093019290850190600101614b73565b60006020808301818452808551808352604092508286019150828160051b870101848801865b83811015614cd357603f1989840301855281516101a081518552888201518986015287820151888601526060808301518282880152614c2e83880182614a35565b92505050608080830151614c4c828801826001600160a01b03169052565b505060a0828101519086015260c08083015115159086015260e080830151151590860152610100808301511515908601526101208083015115159086015261014080830151151590860152610160808301511515908601526101809182015185820392860192909252614cbf8183614a35565b968901969450505090860190600101614bed565b509098975050505050505050565b60006020808301818452808551808352604092508286019150828160051b870101848801865b83811015614cd357603f19898403018552815180518452878101516001600160a01b0316888501528681015187850152606080820151908501526080808201519085015260a0808201519085015260c0808201519085015260e0808201516101208287018190529190614d7c83880182614a35565b610100948501519790940196909652505094870194925090860190600101614d07565b6020815260006141536020830184614a35565b6020808252602d908201527f4552433732313a2063616c6c6572206973206e6f7420746f6b656e206f776e6560408201526c1c881bdc88185c1c1c9bdd9959609a1b606082015260800190565b60208082526032908201527f4552433732313a207472616e7366657220746f206e6f6e20455243373231526560408201527131b2b4bb32b91034b6b83632b6b2b73a32b960711b606082015260800190565b60208082526025908201527f4552433732313a207472616e736665722066726f6d20696e636f72726563742060408201526437bbb732b960d91b606082015260800190565b60006101208b835260018060a01b038b1660208401528960408401528860608401528760808401528660a08401528560c08401528060e0840152614edc81840186614a35565b915050826101008301529a9950505050505050505050565b60006101a08f83528e60208401528d6040840152806060840152614f1a8184018e614a35565b6001600160a01b038d16608085015260a084018c90528a151560c085015289151560e08501529050871515610100840152861515610120840152851515610140840152841515610160840152828103610180840152614f798185614a35565b9150509e9d5050505050505050505050505050565b60008219821115614fa157614fa1615028565b500190565b60005b83811015614fc1578181015183820152602001614fa9565b8381111561366e5750506000910152565b600181811c90821680614fe657607f821691505b6020821081141561500757634e487b7160e01b600052602260045260246000fd5b50919050565b600060001982141561502157615021615028565b5060010190565b634e487b7160e01b600052601160045260246000fd5b634e487b7160e01b600052604160045260246000fd5b6001600160e01b03198116811461121757600080fdfea2646970667358221220e138bdbff56313eaa5e89f64d76b48491c625d820bfe48d34b83bb1c0bb394d864736f6c63430008040033",
  "linkReferences": {},
  "deployedLinkReferences": {}
}