{
  "_format": "hh-sol-artifact-1",
  "contractName": "PolygonNFTMarketplace",
  "sourceName": "contracts/PolygonNFTMarketplace.sol",
  "abi": [
    {
      "inputs": [],
      "stateMutability": "nonpayable",
      "type": "constructor"
    },
    {
      "anonymous": false,
      "inputs": [
        {
          "indexed": true,
          "internalType": "address",
          "name": "owner",
          "type": "address"
        },
        {
          "indexed": true,
          "internalType": "address",
          "name": "approved",
          "type": "address"
        },
        {
          "indexed": true,
          "internalType": "uint256",
          "name": "tokenId",
          "type": "uint256"
        }
      ],
      "name": "Approval",
      "type": "event"
    },
    {
      "anonymous": false,
      "inputs": [
        {
          "indexed": true,
          "internalType": "address",
          "name": "owner",
          "type": "address"
        },
        {
          "indexed": true,
          "internalType": "address",
          "name": "operator",
          "type": "address"
        },
        {
          "indexed": false,
          "internalType": "bool",
          "name": "approved",
          "type": "bool"
        }
      ],
      "name": "ApprovalForAll",
      "type": "event"
    },
    {
      "anonymous": false,
      "inputs": [
        {
          "indexed": false,
          "internalType": "uint256",
          "name": "_fromTokenId",
          "type": "uint256"
        },
        {
          "indexed": false,
          "internalType": "uint256",
          "name": "_toTokenId",
          "type": "uint256"
        }
      ],
      "name": "BatchMetadataUpdate",
      "type": "event"
    },
    {
      "anonymous": false,
      "inputs": [
        {
          "indexed": false,
          "internalType": "uint256",
          "name": "_tokenId",
          "type": "uint256"
        }
      ],
      "name": "MetadataUpdate",
      "type": "event"
    },
    {
      "anonymous": false,
      "inputs": [
        {
          "indexed": true,
          "internalType": "address",
          "name": "from",
          "type": "address"
        },
        {
          "indexed": true,
          "internalType": "address",
          "name": "to",
          "type": "address"
        },
        {
          "indexed": true,
          "internalType": "uint256",
          "name": "tokenId",
          "type": "uint256"
        }
      ],
      "name": "Transfer",
      "type": "event"
    },
    {
      "inputs": [],
      "name": "BuyCount",
      "outputs": [
        {
          "internalType": "uint256",
          "name": "_value",
          "type": "uint256"
        }
      ],
      "stateMutability": "view",
      "type": "function"
    },
    {
      "inputs": [
        {
          "internalType": "string",
          "name": "tokenURI",
          "type": "string"
        },
        {
          "internalType": "string",
          "name": "imageHash",
          "type": "string"
        }
      ],
      "name": "CreateToken",
      "outputs": [
        {
          "internalType": "uint256",
          "name": "",
          "type": "uint256"
        }
      ],
      "stateMutability": "payable",
      "type": "function"
    },
    {
      "inputs": [
        {
          "internalType": "uint256",
          "name": "",
          "type": "uint256"
        }
      ],
      "name": "Creators",
      "outputs": [
        {
          "internalType": "address",
          "name": "",
          "type": "address"
        }
      ],
      "stateMutability": "view",
      "type": "function"
    },
    {
      "inputs": [],
      "name": "CreatorsCount",
      "outputs": [
        {
          "internalType": "uint256",
          "name": "_value",
          "type": "uint256"
        }
      ],
      "stateMutability": "view",
      "type": "function"
    },
    {
      "inputs": [
        {
          "internalType": "uint256",
          "name": "price",
          "type": "uint256"
        },
        {
          "internalType": "uint256",
          "name": "id",
          "type": "uint256"
        }
      ],
      "name": "ListNFT",
      "outputs": [],
      "stateMutability": "nonpayable",
      "type": "function"
    },
    {
      "inputs": [],
      "name": "STATUS_DONE",
      "outputs": [
        {
          "internalType": "uint8",
          "name": "",
          "type": "uint8"
        }
      ],
      "stateMutability": "view",
      "type": "function"
    },
    {
      "inputs": [],
      "name": "STATUS_OPEN",
      "outputs": [
        {
          "internalType": "uint8",
          "name": "",
          "type": "uint8"
        }
      ],
      "stateMutability": "view",
      "type": "function"
    },
    {
      "inputs": [],
      "name": "SoldCount",
      "outputs": [
        {
          "internalType": "uint256",
          "name": "_value",
          "type": "uint256"
        }
      ],
      "stateMutability": "view",
      "type": "function"
    },
    {
      "inputs": [],
      "name": "TokenCount",
      "outputs": [
        {
          "internalType": "uint256",
          "name": "_value",
          "type": "uint256"
        }
      ],
      "stateMutability": "view",
      "type": "function"
    },
    {
      "inputs": [
        {
          "internalType": "address",
          "name": "to",
          "type": "address"
        },
        {
          "internalType": "uint256",
          "name": "tokenId",
          "type": "uint256"
        }
      ],
      "name": "approve",
      "outputs": [],
      "stateMutability": "nonpayable",
      "type": "function"
    },
    {
      "inputs": [
        {
          "internalType": "address",
          "name": "owner",
          "type": "address"
        }
      ],
      "name": "balanceOf",
      "outputs": [
        {
          "internalType": "uint256",
          "name": "",
          "type": "uint256"
        }
      ],
      "stateMutability": "view",
      "type": "function"
    },
    {
      "inputs": [
        {
          "internalType": "uint256",
          "name": "listingId",
          "type": "uint256"
        }
      ],
      "name": "bid",
      "outputs": [],
      "stateMutability": "payable",
      "type": "function"
    },
    {
      "inputs": [],
      "name": "biddingCounter",
      "outputs": [
        {
          "internalType": "uint256",
          "name": "_value",
          "type": "uint256"
        }
      ],
      "stateMutability": "view",
      "type": "function"
    },
    {
      "inputs": [
        {
          "internalType": "string",
          "name": "imageHash",
          "type": "string"
        }
      ],
      "name": "checkImageExist",
      "outputs": [
        {
          "internalType": "bool",
          "name": "",
          "type": "bool"
        }
      ],
      "stateMutability": "view",
      "type": "function"
    },
    {
      "inputs": [
        {
          "internalType": "uint256",
          "name": "listingId",
          "type": "uint256"
        }
      ],
      "name": "completeAuction",
      "outputs": [],
      "stateMutability": "payable",
      "type": "function"
    },
    {
      "inputs": [
        {
          "internalType": "uint256",
          "name": "price",
          "type": "uint256"
        },
        {
          "internalType": "uint256",
          "name": "tokenId",
          "type": "uint256"
        },
        {
          "internalType": "uint256",
          "name": "deadline",
          "type": "uint256"
        },
        {
          "internalType": "string",
          "name": "aucDate",
          "type": "string"
        }
      ],
      "name": "createAuctionListing",
      "outputs": [
        {
          "internalType": "uint256",
          "name": "",
          "type": "uint256"
        }
      ],
      "stateMutability": "nonpayable",
      "type": "function"
    },
    {
      "inputs": [
        {
          "internalType": "uint256",
          "name": "tokenId",
          "type": "uint256"
        }
      ],
      "name": "executeSale",
      "outputs": [],
      "stateMutability": "payable",
      "type": "function"
    },
    {
      "inputs": [],
      "name": "getAllBiddedNfts",
      "outputs": [
        {
          "components": [
            {
              "internalType": "uint256",
              "name": "biddingId",
              "type": "uint256"
            },
            {
              "internalType": "address payable",
              "name": "seller",
              "type": "address"
            },
            {
              "internalType": "uint256",
              "name": "tokenId",
              "type": "uint256"
            },
            {
              "internalType": "uint256",
              "name": "price",
              "type": "uint256"
            },
            {
              "internalType": "uint256",
              "name": "netPrice",
              "type": "uint256"
            },
            {
              "internalType": "uint256",
              "name": "startAt",
              "type": "uint256"
            },
            {
              "internalType": "uint256",
              "name": "deadline",
              "type": "uint256"
            },
            {
              "internalType": "string",
              "name": "date",
              "type": "string"
            },
            {
              "internalType": "uint256",
              "name": "status",
              "type": "uint256"
            }
          ],
          "internalType": "struct PolygonNFTMarketplace.Listing[]",
          "name": "",
          "type": "tuple[]"
        }
      ],
      "stateMutability": "view",
      "type": "function"
    },
    {
      "inputs": [],
      "name": "getAllBiddingWithListingID",
      "outputs": [
        {
          "components": [
            {
              "internalType": "uint256",
              "name": "tokenId",
              "type": "uint256"
            },
            {
              "internalType": "uint256",
              "name": "biddingId",
              "type": "uint256"
            },
            {
              "internalType": "address",
              "name": "bidder",
              "type": "address"
            },
            {
              "internalType": "uint256",
              "name": "price",
              "type": "uint256"
            }
          ],
          "internalType": "struct PolygonNFTMarketplace.Bidding[]",
          "name": "",
          "type": "tuple[]"
        }
      ],
      "stateMutability": "view",
      "type": "function"
    },
    {
      "inputs": [],
      "name": "getAllNfts",
      "outputs": [
        {
          "components": [
            {
              "internalType": "uint256",
              "name": "tokenId",
              "type": "uint256"
            },
            {
              "internalType": "uint256",
              "name": "price",
              "type": "uint256"
            },
            {
              "internalType": "address payable",
              "name": "owner",
              "type": "address"
            },
            {
              "internalType": "bool",
              "name": "NFTsold",
              "type": "bool"
            },
            {
              "internalType": "bool",
              "name": "NFTbought",
              "type": "bool"
            },
            {
              "internalType": "bool",
              "name": "NFTListed",
              "type": "bool"
            },
            {
              "internalType": "bool",
              "name": "NFTBidded",
              "type": "bool"
            }
          ],
          "internalType": "struct PolygonNFTMarketplace.ListedToken[]",
          "name": "",
          "type": "tuple[]"
        }
      ],
      "stateMutability": "view",
      "type": "function"
    },
    {
      "inputs": [
        {
          "internalType": "uint256",
          "name": "tokenId",
          "type": "uint256"
        }
      ],
      "name": "getApproved",
      "outputs": [
        {
          "internalType": "address",
          "name": "",
          "type": "address"
        }
      ],
      "stateMutability": "view",
      "type": "function"
    },
    {
      "inputs": [],
      "name": "getMyNFTs",
      "outputs": [
        {
          "components": [
            {
              "internalType": "uint256",
              "name": "tokenId",
              "type": "uint256"
            },
            {
              "internalType": "uint256",
              "name": "price",
              "type": "uint256"
            },
            {
              "internalType": "address payable",
              "name": "owner",
              "type": "address"
            },
            {
              "internalType": "bool",
              "name": "NFTsold",
              "type": "bool"
            },
            {
              "internalType": "bool",
              "name": "NFTbought",
              "type": "bool"
            },
            {
              "internalType": "bool",
              "name": "NFTListed",
              "type": "bool"
            },
            {
              "internalType": "bool",
              "name": "NFTBidded",
              "type": "bool"
            }
          ],
          "internalType": "struct PolygonNFTMarketplace.ListedToken[]",
          "name": "",
          "type": "tuple[]"
        }
      ],
      "stateMutability": "view",
      "type": "function"
    },
    {
      "inputs": [],
      "name": "getMySoldNFTs",
      "outputs": [
        {
          "components": [
            {
              "internalType": "uint256",
              "name": "tokenId",
              "type": "uint256"
            },
            {
              "internalType": "uint256",
              "name": "price",
              "type": "uint256"
            },
            {
              "internalType": "address payable",
              "name": "owner",
              "type": "address"
            },
            {
              "internalType": "address",
              "name": "newOwner",
              "type": "address"
            },
            {
              "internalType": "bool",
              "name": "NFTsold",
              "type": "bool"
            }
          ],
          "internalType": "struct PolygonNFTMarketplace.ItemsSold[]",
          "name": "",
          "type": "tuple[]"
        }
      ],
      "stateMutability": "view",
      "type": "function"
    },
    {
      "inputs": [],
      "name": "getTotalBiddedTokens",
      "outputs": [
        {
          "internalType": "uint256",
          "name": "",
          "type": "uint256"
        }
      ],
      "stateMutability": "view",
      "type": "function"
    },
    {
      "inputs": [],
      "name": "getTotalMintedTokens",
      "outputs": [
        {
          "internalType": "uint256",
          "name": "",
          "type": "uint256"
        }
      ],
      "stateMutability": "view",
      "type": "function"
    },
    {
      "inputs": [],
      "name": "getTotalSoldTokens",
      "outputs": [
        {
          "internalType": "uint256",
          "name": "",
          "type": "uint256"
        }
      ],
      "stateMutability": "view",
      "type": "function"
    },
    {
      "inputs": [],
      "name": "getTotalUser",
      "outputs": [
        {
          "internalType": "uint256",
          "name": "",
          "type": "uint256"
        }
      ],
      "stateMutability": "view",
      "type": "function"
    },
    {
      "inputs": [
        {
          "internalType": "uint256",
          "name": "",
          "type": "uint256"
        }
      ],
      "name": "highestBidder",
      "outputs": [
        {
          "internalType": "address",
          "name": "",
          "type": "address"
        }
      ],
      "stateMutability": "view",
      "type": "function"
    },
    {
      "inputs": [],
      "name": "highestBidding",
      "outputs": [
        {
          "internalType": "uint256",
          "name": "",
          "type": "uint256"
        }
      ],
      "stateMutability": "view",
      "type": "function"
    },
    {
      "inputs": [
        {
          "internalType": "uint256",
          "name": "",
          "type": "uint256"
        }
      ],
      "name": "highestBiddingAmount",
      "outputs": [
        {
          "internalType": "uint256",
          "name": "",
          "type": "uint256"
        }
      ],
      "stateMutability": "view",
      "type": "function"
    },
    {
      "inputs": [
        {
          "internalType": "uint256",
          "name": "",
          "type": "uint256"
        }
      ],
      "name": "idToBiddedToken",
      "outputs": [
        {
          "internalType": "uint256",
          "name": "tokenId",
          "type": "uint256"
        },
        {
          "internalType": "uint256",
          "name": "biddingId",
          "type": "uint256"
        },
        {
          "internalType": "address",
          "name": "bidder",
          "type": "address"
        },
        {
          "internalType": "uint256",
          "name": "price",
          "type": "uint256"
        }
      ],
      "stateMutability": "view",
      "type": "function"
    },
    {
      "inputs": [
        {
          "internalType": "uint256",
          "name": "",
          "type": "uint256"
        }
      ],
      "name": "idToImageHash",
      "outputs": [
        {
          "internalType": "string",
          "name": "",
          "type": "string"
        }
      ],
      "stateMutability": "view",
      "type": "function"
    },
    {
      "inputs": [
        {
          "internalType": "uint256",
          "name": "",
          "type": "uint256"
        }
      ],
      "name": "idToListedToken",
      "outputs": [
        {
          "internalType": "uint256",
          "name": "tokenId",
          "type": "uint256"
        },
        {
          "internalType": "uint256",
          "name": "price",
          "type": "uint256"
        },
        {
          "internalType": "address payable",
          "name": "owner",
          "type": "address"
        },
        {
          "internalType": "bool",
          "name": "NFTsold",
          "type": "bool"
        },
        {
          "internalType": "bool",
          "name": "NFTbought",
          "type": "bool"
        },
        {
          "internalType": "bool",
          "name": "NFTListed",
          "type": "bool"
        },
        {
          "internalType": "bool",
          "name": "NFTBidded",
          "type": "bool"
        }
      ],
      "stateMutability": "view",
      "type": "function"
    },
    {
      "inputs": [
        {
          "internalType": "uint256",
          "name": "",
          "type": "uint256"
        }
      ],
      "name": "idToSoldItems",
      "outputs": [
        {
          "internalType": "uint256",
          "name": "tokenId",
          "type": "uint256"
        },
        {
          "internalType": "uint256",
          "name": "price",
          "type": "uint256"
        },
        {
          "internalType": "address payable",
          "name": "owner",
          "type": "address"
        },
        {
          "internalType": "address",
          "name": "newOwner",
          "type": "address"
        },
        {
          "internalType": "bool",
          "name": "NFTsold",
          "type": "bool"
        }
      ],
      "stateMutability": "view",
      "type": "function"
    },
    {
      "inputs": [
        {
          "internalType": "address",
          "name": "owner",
          "type": "address"
        },
        {
          "internalType": "address",
          "name": "operator",
          "type": "address"
        }
      ],
      "name": "isApprovedForAll",
      "outputs": [
        {
          "internalType": "bool",
          "name": "",
          "type": "bool"
        }
      ],
      "stateMutability": "view",
      "type": "function"
    },
    {
      "inputs": [
        {
          "internalType": "uint256",
          "name": "id",
          "type": "uint256"
        }
      ],
      "name": "isAuctionExpired",
      "outputs": [
        {
          "internalType": "bool",
          "name": "",
          "type": "bool"
        }
      ],
      "stateMutability": "view",
      "type": "function"
    },
    {
      "inputs": [
        {
          "internalType": "uint256",
          "name": "id",
          "type": "uint256"
        }
      ],
      "name": "isAuctionOpen",
      "outputs": [
        {
          "internalType": "bool",
          "name": "",
          "type": "bool"
        }
      ],
      "stateMutability": "view",
      "type": "function"
    },
    {
      "inputs": [],
      "name": "listingCounter",
      "outputs": [
        {
          "internalType": "uint256",
          "name": "_value",
          "type": "uint256"
        }
      ],
      "stateMutability": "view",
      "type": "function"
    },
    {
      "inputs": [
        {
          "internalType": "uint256",
          "name": "",
          "type": "uint256"
        }
      ],
      "name": "listings",
      "outputs": [
        {
          "internalType": "uint256",
          "name": "biddingId",
          "type": "uint256"
        },
        {
          "internalType": "address payable",
          "name": "seller",
          "type": "address"
        },
        {
          "internalType": "uint256",
          "name": "tokenId",
          "type": "uint256"
        },
        {
          "internalType": "uint256",
          "name": "price",
          "type": "uint256"
        },
        {
          "internalType": "uint256",
          "name": "netPrice",
          "type": "uint256"
        },
        {
          "internalType": "uint256",
          "name": "startAt",
          "type": "uint256"
        },
        {
          "internalType": "uint256",
          "name": "deadline",
          "type": "uint256"
        },
        {
          "internalType": "string",
          "name": "date",
          "type": "string"
        },
        {
          "internalType": "uint256",
          "name": "status",
          "type": "uint256"
        }
      ],
      "stateMutability": "view",
      "type": "function"
    },
    {
      "inputs": [],
      "name": "minAuctionIncrement",
      "outputs": [
        {
          "internalType": "uint256",
          "name": "",
          "type": "uint256"
        }
      ],
      "stateMutability": "view",
      "type": "function"
    },
    {
      "inputs": [],
      "name": "name",
      "outputs": [
        {
          "internalType": "string",
          "name": "",
          "type": "string"
        }
      ],
      "stateMutability": "view",
      "type": "function"
    },
    {
      "inputs": [
        {
          "internalType": "address",
          "name": "user",
          "type": "address"
        }
      ],
      "name": "newUser",
      "outputs": [],
      "stateMutability": "nonpayable",
      "type": "function"
    },
    {
      "inputs": [
        {
          "internalType": "uint256",
          "name": "tokenId",
          "type": "uint256"
        }
      ],
      "name": "ownerOf",
      "outputs": [
        {
          "internalType": "address",
          "name": "",
          "type": "address"
        }
      ],
      "stateMutability": "view",
      "type": "function"
    },
    {
      "inputs": [
        {
          "internalType": "address",
          "name": "from",
          "type": "address"
        },
        {
          "internalType": "address",
          "name": "to",
          "type": "address"
        },
        {
          "internalType": "uint256",
          "name": "tokenId",
          "type": "uint256"
        }
      ],
      "name": "safeTransferFrom",
      "outputs": [],
      "stateMutability": "nonpayable",
      "type": "function"
    },
    {
      "inputs": [
        {
          "internalType": "address",
          "name": "from",
          "type": "address"
        },
        {
          "internalType": "address",
          "name": "to",
          "type": "address"
        },
        {
          "internalType": "uint256",
          "name": "tokenId",
          "type": "uint256"
        },
        {
          "internalType": "bytes",
          "name": "data",
          "type": "bytes"
        }
      ],
      "name": "safeTransferFrom",
      "outputs": [],
      "stateMutability": "nonpayable",
      "type": "function"
    },
    {
      "inputs": [
        {
          "internalType": "address",
          "name": "operator",
          "type": "address"
        },
        {
          "internalType": "bool",
          "name": "approved",
          "type": "bool"
        }
      ],
      "name": "setApprovalForAll",
      "outputs": [],
      "stateMutability": "nonpayable",
      "type": "function"
    },
    {
      "inputs": [
        {
          "internalType": "bytes4",
          "name": "interfaceId",
          "type": "bytes4"
        }
      ],
      "name": "supportsInterface",
      "outputs": [
        {
          "internalType": "bool",
          "name": "",
          "type": "bool"
        }
      ],
      "stateMutability": "view",
      "type": "function"
    },
    {
      "inputs": [],
      "name": "symbol",
      "outputs": [
        {
          "internalType": "string",
          "name": "",
          "type": "string"
        }
      ],
      "stateMutability": "view",
      "type": "function"
    },
    {
      "inputs": [
        {
          "internalType": "uint256",
          "name": "tokenId",
          "type": "uint256"
        }
      ],
      "name": "tokenURI",
      "outputs": [
        {
          "internalType": "string",
          "name": "",
          "type": "string"
        }
      ],
      "stateMutability": "view",
      "type": "function"
    },
    {
      "inputs": [
        {
          "internalType": "address",
          "name": "from",
          "type": "address"
        },
        {
          "internalType": "address",
          "name": "to",
          "type": "address"
        },
        {
          "internalType": "uint256",
          "name": "tokenId",
          "type": "uint256"
        }
      ],
      "name": "transferFrom",
      "outputs": [],
      "stateMutability": "nonpayable",
      "type": "function"
    },
    {
      "inputs": [
        {
          "internalType": "uint256",
          "name": "listingId",
          "type": "uint256"
        }
      ],
      "name": "withdrawBid",
      "outputs": [],
      "stateMutability": "payable",
      "type": "function"
    }
  ],
  "bytecode": "0x6080604052600a60125560006016553480156200001b57600080fd5b50604080518082018252601581527f506f6c79676f6e4e46544d61726b6574706c61636500000000000000000000006020808301918252835180850190945260048452634441524b60e01b9084015281519192916200007d91600091620000a1565b50805162000093906001906020840190620000a1565b505060016007555062000184565b828054620000af9062000147565b90600052602060002090601f016020900481019282620000d357600085556200011e565b82601f10620000ee57805160ff19168380011785556200011e565b828001600101855582156200011e579182015b828111156200011e57825182559160200191906001019062000101565b506200012c92915062000130565b5090565b5b808211156200012c576000815560010162000131565b600181811c908216806200015c57607f821691505b602082108114156200017e57634e487b7160e01b600052602260045260246000fd5b50919050565b613b0680620001946000396000f3fe6080604052600436106102e45760003560e01c8063708d4d3511610190578063a9c63aa0116100dc578063de74e57b11610095578063e985e9c51161006f578063e985e9c514610a48578063edf2ebcc14610a91578063f67a769c14610aa8578063fad266fe14610abd57600080fd5b8063de74e57b14610930578063e57a497a14610965578063e877d3f814610a1b57600080fd5b8063a9c63aa014610850578063adc2524c14610865578063b27dce81146108ac578063b820a6d1146108ce578063b88d4fde146108f0578063c87b56dd1461091057600080fd5b806392a374b7116101495780639d6e5fb3116101235780639d6e5fb3146107ed578063a22cb46514610802578063a4fdb63514610822578063a71ffa761461083957600080fd5b806392a374b7146107a557806395d89b41146107c55780639b1225c4146107da57600080fd5b8063708d4d35146106f957806370a082311461070f578063732e8d731461072f578063740db280146107445780638055ccaa14610759578063903405bb1461078f57600080fd5b806324f8515b1161024f5780634945dcdd11610208578063629cb2e4116101e2578063629cb2e4146106235780636352211e146106455780636b8c91cb146106655780636c2c9c7d146106e257600080fd5b80634945dcdd146105cc57806359be5e45146105ee5780635ac8b5b01461060357600080fd5b806324f8515b1461049457806333024100146104bb57806336ad658f1461054c57806342842e0e14610563578063451df52e14610583578063454a2ab3146105b957600080fd5b80630cb5f653116102a15780630cb5f653146103da5780630eaaf4c8146103fa5780631053aff21461040d5780631389b1171461042e57806321b628861461046157806323b872dd1461047457600080fd5b806301ffc9a7146102e957806306fdde031461031e578063081812fc14610340578063095ea7b3146103785780630ad486281461039a5780630ad52cc6146103ba575b600080fd5b3480156102f557600080fd5b5061030961030436600461346a565b610ad4565b60405190151581526020015b60405180910390f35b34801561032a57600080fd5b50610333610aff565b604051610315919061389f565b34801561034c57600080fd5b5061036061035b366004613536565b610b91565b6040516001600160a01b039091168152602001610315565b34801561038457600080fd5b50610398610393366004613441565b610bb8565b005b3480156103a657600080fd5b506103096103b5366004613536565b610cd3565b3480156103c657600080fd5b506103336103d5366004613536565b610d07565b3480156103e657600080fd5b506103986103f5366004613307565b610da1565b610398610408366004613536565b610e61565b61042061041b3660046134d5565b611023565b604051908152602001610315565b34801561043a57600080fd5b50610309610449366004613536565b60009081526013602052604090206006015442101590565b61039861046f366004613536565b611084565b34801561048057600080fd5b5061039861048f366004613353565b61123e565b3480156104a057600080fd5b506104a9600181565b60405160ff9091168152602001610315565b3480156104c757600080fd5b506105166104d6366004613536565b600f602052600090815260409020805460018201546002830154600390930154919290916001600160a01b0391821691811690600160a01b900460ff1685565b6040805195865260208601949094526001600160a01b03928316938501939093521660608301521515608082015260a001610315565b34801561055857600080fd5b506008546104209081565b34801561056f57600080fd5b5061039861057e366004613353565b61126f565b34801561058f57600080fd5b5061036061059e366004613536565b6014602052600090815260409020546001600160a01b031681565b6103986105c7366004613536565b61128a565b3480156105d857600080fd5b506105e1611484565b60405161031591906137d3565b3480156105fa57600080fd5b50610420611741565b34801561060f57600080fd5b5061030961061e3660046134a2565b611751565b34801561062f57600080fd5b50610638611893565b604051610315919061374d565b34801561065157600080fd5b50610360610660366004613536565b611abb565b34801561067157600080fd5b506106b3610680366004613536565b6017602052600090815260409020805460018201546002830154600390930154919290916001600160a01b039091169084565b604051610315949392919093845260208401929092526001600160a01b03166040830152606082015260800190565b3480156106ee57600080fd5b50600b546104209081565b34801561070557600080fd5b5061042060125481565b34801561071b57600080fd5b5061042061072a366004613307565b611b1b565b34801561073b57600080fd5b50610638611ba1565b34801561075057600080fd5b506104a9600081565b34801561076557600080fd5b50610360610774366004613536565b6011602052600090815260409020546001600160a01b031681565b34801561079b57600080fd5b5061042060165481565b3480156107b157600080fd5b506104206107c036600461356f565b611daf565b3480156107d157600080fd5b50610333611ed1565b6103986107e8366004613536565b611ee0565b3480156107f957600080fd5b506104206120cb565b34801561080e57600080fd5b5061039861081d366004613407565b6120d6565b34801561082e57600080fd5b50600c546104209081565b34801561084557600080fd5b50600d546104209081565b34801561085c57600080fd5b506104206120e5565b34801561087157600080fd5b5061039861088036600461354e565b6000908152600e602052604090206001810191909155600201805460ff60b01b1916600160b01b179055565b3480156108b857600080fd5b506108c16120f0565b60405161031591906136dc565b3480156108da57600080fd5b506108e36122e6565b604051610315919061366f565b3480156108fc57600080fd5b5061039861090b36600461338e565b6124bb565b34801561091c57600080fd5b5061033361092b366004613536565b6124ed565b34801561093c57600080fd5b5061095061094b366004613536565b6125f6565b60405161031599989796959493929190613996565b34801561097157600080fd5b506109d4610980366004613536565b600e602052600090815260409020805460018201546002909201549091906001600160a01b0381169060ff600160a01b8204811691600160a81b8104821691600160b01b8204811691600160b81b90041687565b6040805197885260208801969096526001600160a01b039094169486019490945290151560608501521515608084015290151560a0830152151560c082015260e001610315565b348015610a2757600080fd5b50610420610a36366004613536565b60156020526000908152604090205481565b348015610a5457600080fd5b50610309610a63366004613321565b6001600160a01b03918216600090815260056020908152604080832093909416825291909152205460ff1690565b348015610a9d57600080fd5b506009546104209081565b348015610ab457600080fd5b506104206126d5565b348015610ac957600080fd5b50600a546104209081565b60006001600160e01b03198216632483248360e11b1480610af95750610af9826126e0565b92915050565b606060008054610b0e90613a38565b80601f0160208091040260200160405190810160405280929190818152602001828054610b3a90613a38565b8015610b875780601f10610b5c57610100808354040283529160200191610b87565b820191906000526020600020905b815481529060010190602001808311610b6a57829003601f168201915b5050505050905090565b6000610b9c82612730565b506000908152600460205260409020546001600160a01b031690565b6000610bc382611abb565b9050806001600160a01b0316836001600160a01b03161415610c365760405162461bcd60e51b815260206004820152602160248201527f4552433732313a20617070726f76616c20746f2063757272656e74206f776e656044820152603960f91b60648201526084015b60405180910390fd5b336001600160a01b0382161480610c525750610c528133610a63565b610cc45760405162461bcd60e51b815260206004820152603d60248201527f4552433732313a20617070726f76652063616c6c6572206973206e6f7420746f60448201527f6b656e206f776e6572206f7220617070726f76656420666f7220616c6c0000006064820152608401610c2d565b610cce838361278f565b505050565b6000818152601360205260408120600801546001148015610af9575050600090815260136020526040902060060154421090565b60106020526000908152604090208054610d2090613a38565b80601f0160208091040260200160405190810160405280929190818152602001828054610d4c90613a38565b8015610d995780601f10610d6e57610100808354040283529160200191610d99565b820191906000526020600020905b815481529060010190602001808311610d7c57829003601f168201915b505050505081565b6000610dac600d5490565b90506000805b82811015610e13576001600160a01b03841660116000610dd38460016139f4565b81526020810191909152604001600020546001600160a01b03161415610e0157610dfe6001836139f4565b91505b80610e0b81613a73565b915050610db2565b5080610cce57610e27600d80546001019055565b6000610e32600d5490565b600090815260116020526040902080546001600160a01b0386166001600160a01b031990911617905550505050565b610e696127fd565b600081815260136020526040902060060154421015610ec25760405162461bcd60e51b8152602060048201526015602482015274185d58dd1a5bdb881b5d5cdd08189948195b991959605a1b6044820152606401610c2d565b6000818152601460205260409020546001600160a01b0316331415610f345760405162461bcd60e51b815260206004820152602260248201527f68696768657374206269646465722063616e6e6f7420776974686472617720626044820152611a5960f21b6064820152608401610c2d565b6000610f3f600c5490565b90506000805b82811015610fe5573360176000610f5d8460016139f4565b81526020810191909152604001600020600201546001600160a01b03161415610fd35760176000610f8f8360016139f4565b81526020019081526020016000206003015482610fac91906139f4565b91506000601781610fbe8460016139f4565b81526020810191909152604001600020600301555b80610fdd81613a73565b915050610f45565b50604051339082156108fc029083906000818181858888f19350505050158015611013573d6000803e3d6000fd5b5050506110206001600755565b50565b6000611033600880546001019055565b600061103e60085490565b905061104a3382612857565b6110548185612871565b60008181526010602090815260409091208451611073928601906131bd565b5061107d81612943565b9392505050565b61108c6127fd565b61109581610cd3565b156110da5760405162461bcd60e51b815260206004820152601560248201527430bab1ba34b7b71034b99039ba34b6361037b832b760591b6044820152606401610c2d565b600081815260136020908152604080832060149092529091205460018201546001600160a01b03918216911633148061111b5750336001600160a01b038216145b61117a5760405162461bcd60e51b815260206004820152602a60248201527f6f6e6c792073656c6c6572206f722077696e6e65722063616e20636f6d706c656044820152693a329030bab1ba34b7b760b11b6064820152608401610c2d565b6000838152601560205260409020548061119a5760006008840155611013565b600283015460018401546001600160a01b03166111b8818584612a1b565b6040516001600160a01b0382169084156108fc029085906000818181858888f193505050501580156111ee573d6000803e3d6000fd5b50506001840180546001600160a01b0385166001600160a01b031991821681179092556000928352600e602052604083206002018054909116909117905560088401555050506110206001600755565b6112483382612b7f565b6112645760405162461bcd60e51b8152600401610c2d906138b2565b610cce838383612a1b565b610cce838383604051806020016040528060008152506124bb565b6112926127fd565b61129b81610cd3565b6112db5760405162461bcd60e51b8152602060048201526011602482015270185d58dd1a5bdb881a185cc8195b991959607a1b6044820152606401610c2d565b600081815260136020526040902060030154341161133b5760405162461bcd60e51b815260206004820152601f60248201527f56616c756520697320736d616c6c6572207468616e206269642076616c7565006044820152606401610c2d565b6000818152601360205260409020600101546001600160a01b03163314156113a55760405162461bcd60e51b815260206004820152601a60248201527f796f752063616e27742062696420796f7572206f776e206e66740000000000006044820152606401610c2d565b6113b3600c80546001019055565b60006113be600c5490565b60408051608081018252600085815260136020908152838220600290810154845281840188815233858701908152346060870181815289875260179095529690942094518555516001850155915191830180546001600160a01b0319166001600160a01b039093169290921790915551600390910155601654919250111561147057346016819055600083815260146020908152604080832080546001600160a01b0319163317905560159091529020555b61147933610da1565b506110206001600755565b60606000611491600b5490565b905060008060005b838110156114e957601360006114b08360016139f4565b8152602001908152602001600020600301546000146114d7576114d46001846139f4565b92505b6114e26001826139f4565b9050611499565b5060008267ffffffffffffffff81111561151357634e487b7160e01b600052604160045260246000fd5b60405190808252806020026020018201604052801561159c57816020015b6115896040518061012001604052806000815260200160006001600160a01b03168152602001600081526020016000815260200160008152602001600081526020016000815260200160608152602001600081525090565b8152602001906001900390816115315790505b50905060005b848110156117385760006013816115ba8460016139f4565b81526020019081526020016000209050601360008360016115db91906139f4565b8152602001908152602001600020600301546000146117255760408051610120810182528254815260018301546001600160a01b031660208201526002830154918101919091526003820154606082015260048201546080820152600582015460a0820152600682015460c0820152600782018054839160e084019161166090613a38565b80601f016020809104026020016040519081016040528092919081815260200182805461168c90613a38565b80156116d95780601f106116ae576101008083540402835291602001916116d9565b820191906000526020600020905b8154815290600101906020018083116116bc57829003601f168201915b5050505050815260200160088201548152505083858151811061170c57634e487b7160e01b600052603260045260246000fd5b60209081029190910101526117226001856139f4565b93505b506117316001826139f4565b90506115a2565b50949350505050565b600061174c60095490565b905090565b60008061175d60085490565b905082606060005b83811015611887576010600061177c8360016139f4565b8152602001908152602001600020805461179590613a38565b80601f01602080910402602001604051908101604052809291908181526020018280546117c190613a38565b801561180e5780601f106117e35761010080835404028352916020019161180e565b820191906000526020600020905b8154815290600101906020018083116117f157829003601f168201915b505050505091508260405160200161182691906135e7565b604051602081830303815290604052805190602001208260405160200161184d91906135e7565b6040516020818303038152906040528051906020012014156118755750600095945050505050565b8061187f81613a73565b915050611765565b50600195945050505050565b606060006118a060085490565b9050600080805b838110156119025733600e60006118bf8460016139f4565b81526020810191909152604001600020600201546001600160a01b031614156118f057816118ec81613a73565b9250505b806118fa81613a73565b9150506118a7565b5060008167ffffffffffffffff81111561192c57634e487b7160e01b600052604160045260246000fd5b60405190808252806020026020018201604052801561199357816020015b6040805160e08101825260008082526020808301829052928201819052606082018190526080820181905260a0820181905260c0820152825260001990920191018161194a5790505b50905060005b848110156117385733600e60006119b18460016139f4565b81526020810191909152604001600020600201546001600160a01b03161415611aa9576000600e816119e48460016139f4565b81526020808201929092526040908101600020815160e0810183528154815260018201549381019390935260028101546001600160a01b0381169284019290925260ff600160a01b8304811615156060850152600160a81b8304811615156080850152600160b01b83048116151560a0850152600160b81b909204909116151560c08301528451909250849087908110611a8e57634e487b7160e01b600052603260045260246000fd5b60200260200101819052508480611aa490613a73565b955050505b80611ab381613a73565b915050611999565b6000818152600260205260408120546001600160a01b031680610af95760405162461bcd60e51b8152602060048201526018602482015277115490cdcc8c4e881a5b9d985b1a59081d1bdad95b88125160421b6044820152606401610c2d565b60006001600160a01b038216611b855760405162461bcd60e51b815260206004820152602960248201527f4552433732313a2061646472657373207a65726f206973206e6f7420612076616044820152683634b21037bbb732b960b91b6064820152608401610c2d565b506001600160a01b031660009081526003602052604090205490565b60606000611bae60085490565b905060008060005b83811015611c0657600e6000611bcd8360016139f4565b815260200190815260200160002060010154600014611bf457611bf16001846139f4565b92505b611bff6001826139f4565b9050611bb6565b5060008267ffffffffffffffff811115611c3057634e487b7160e01b600052604160045260246000fd5b604051908082528060200260200182016040528015611c9757816020015b6040805160e08101825260008082526020808301829052928201819052606082018190526080820181905260a0820181905260c08201528252600019909201910181611c4e5790505b50905060005b84811015611738576000600e81611cb58460016139f4565b81526020019081526020016000209050600e6000836001611cd691906139f4565b815260200190815260200160002060010154600014611d9c576040805160e081018252825481526001830154602082015260028301546001600160a01b0381169282019290925260ff600160a01b8304811615156060830152600160a81b8304811615156080830152600160b01b83048116151560a0830152600160b81b909204909116151560c08201528351849086908110611d8357634e487b7160e01b600052603260045260246000fd5b6020908102919091010152611d996001856139f4565b93505b50611da86001826139f4565b9050611c9d565b6000611dbf600b80546001019055565b6000611dca600b5490565b9050426000611dd986836139f4565b60408051610120810182528581523360208083019182528284018c8152606084018e8152608085018f815260a086018a815260c0870189815260e088018f815260016101008a0181905260008f8152601389529a909a2089518155975199880180546001600160a01b0319166001600160a01b03909b169a909a1790995593516002870155915160038601555160048501555160058401555160068301559251805194955091939092611e939260078501929101906131bd565b50610100919091015160089091015550506000858152600e60205260409020600201805460ff60b81b1916600160b81b17905590505b949350505050565b606060018054610b0e90613a38565b6000818152600e6020526040902060018101546002909101546001600160a01b0316331415611f515760405162461bcd60e51b815260206004820152601a60248201527f796f752063616e27742062757920796f7572206f776e206e66740000000000006044820152606401610c2d565b6000828152600e60205260409020600201546001600160a01b0316611f77813385612a1b565b611f818184610bb8565b6000838152600e6020526040808220600201805460ff60a81b1960ff60a01b1933166001600160a81b031990921691909117600160a01b1716600160a81b179055516001600160a01b038316913480156108fc02929091818181858888f19350505050158015611ff5573d6000803e3d6000fd5b50612004600980546001019055565b600061200f60095490565b6040805160a08101825286815260208082018781526001600160a01b03808816848601908152336060860181815260016080880181815260008b8152600f89528a812099518a5596518983015593516002890180549187166001600160a01b031990921691909117905590516003909701805493511515600160a01b026001600160a81b0319909416979094169690961791909117909155898252600e909252928320909101919091559091506120c590610da1565b50505050565b600061174c600c5490565b6120e1338383612bfd565b5050565b600061174c600d5490565b606060006120fd60095490565b9050600080805b8381101561215f5733600f600061211c8460016139f4565b81526020810191909152604001600020600201546001600160a01b0316141561214d578161214981613a73565b9250505b8061215781613a73565b915050612104565b5060008167ffffffffffffffff81111561218957634e487b7160e01b600052604160045260246000fd5b6040519080825280602002602001820160405280156121e257816020015b6040805160a0810182526000808252602080830182905292820181905260608201819052608082015282526000199092019101816121a75790505b50905060005b848110156117385733600f60006122008460016139f4565b81526020810191909152604001600020600201546001600160a01b031614156122d4576000600f816122338460016139f4565b81526020808201929092526040908101600020815160a0810183528154815260018201549381019390935260028101546001600160a01b039081169284019290925260038101549182166060840152600160a01b90910460ff161515608083015284519092508490879081106122b957634e487b7160e01b600052603260045260246000fd5b602002602001018190525084806122cf90613a73565b955050505b806122de81613a73565b9150506121e8565b606060006122f3600c5490565b9050600080805b8381101561234a57601760006123118360016139f4565b815260200190815260200160002060030154600014612338578161233481613a73565b9250505b8061234281613a73565b9150506122fa565b5060008167ffffffffffffffff81111561237457634e487b7160e01b600052604160045260246000fd5b6040519080825280602002602001820160405280156123d957816020015b6123c66040518060800160405280600081526020016000815260200160006001600160a01b03168152602001600081525090565b8152602001906001900390816123925790505b50905060005b8481101561173857601760006123f68360016139f4565b8152602001908152602001600020600301546000146124a957600060178161241f8460016139f4565b8152602080820192909252604090810160002081516080810183528154815260018201549381019390935260028101546001600160a01b03169183019190915260038101546060830152845190925084908790811061248e57634e487b7160e01b600052603260045260246000fd5b602002602001018190525084806124a490613a73565b955050505b806124b381613a73565b9150506123df565b6124c53383612b7f565b6124e15760405162461bcd60e51b8152600401610c2d906138b2565b6120c584848484612ccc565b60606124f882612730565b6000828152600660205260408120805461251190613a38565b80601f016020809104026020016040519081016040528092919081815260200182805461253d90613a38565b801561258a5780601f1061255f5761010080835404028352916020019161258a565b820191906000526020600020905b81548152906001019060200180831161256d57829003601f168201915b5050505050905060006125a860408051602081019091526000815290565b90508051600014156125bb575092915050565b8151156125ed5780826040516020016125d5929190613603565b60405160208183030381529060405292505050919050565b611ec984612cff565b6013602052600090815260409020805460018201546002830154600384015460048501546005860154600687015460078801805497986001600160a01b0390971697959694959394929391929161264c90613a38565b80601f016020809104026020016040519081016040528092919081815260200182805461267890613a38565b80156126c55780601f1061269a576101008083540402835291602001916126c5565b820191906000526020600020905b8154815290600101906020018083116126a857829003601f168201915b5050505050908060080154905089565b600061174c60085490565b60006001600160e01b031982166380ac58cd60e01b148061271157506001600160e01b03198216635b5e139f60e01b145b80610af957506301ffc9a760e01b6001600160e01b0319831614610af9565b6000818152600260205260409020546001600160a01b03166110205760405162461bcd60e51b8152602060048201526018602482015277115490cdcc8c4e881a5b9d985b1a59081d1bdad95b88125160421b6044820152606401610c2d565b600081815260046020526040902080546001600160a01b0319166001600160a01b03841690811790915581906127c482611abb565b6001600160a01b03167f8c5be1e5ebec7d5bd14f71427d1e84f3dd0314c0f7b2291e5b200ac8c7c3b92560405160405180910390a45050565b600260075414156128505760405162461bcd60e51b815260206004820152601f60248201527f5265656e7472616e637947756172643a207265656e7472616e742063616c6c006044820152606401610c2d565b6002600755565b6120e1828260405180602001604052806000815250612d72565b6000828152600260205260409020546001600160a01b03166128ec5760405162461bcd60e51b815260206004820152602e60248201527f45524337323155524953746f726167653a2055524920736574206f66206e6f6e60448201526d32bc34b9ba32b73a103a37b5b2b760911b6064820152608401610c2d565b6000828152600660209081526040909120825161290b928401906131bd565b506040518281527ff8e1a15aba9398e019f0b49df1a4fde98ee17ae345cb5f6b5e2c27f5033e8ce79060200160405180910390a15050565b6040805160e0810182528281526000602080830182815233848601818152606086018581526080870186815260a0880187815260c089018881528b8952600e909752989096209651875592516001870155516002909501805492519451965193511515600160b81b0260ff60b81b19941515600160b01b0260ff60b01b19981515600160a81b029890981661ffff60a81b19961515600160a01b026001600160a81b03199095166001600160a01b03989098169790971793909317949094169490941794909417169290921790915561102090610da1565b826001600160a01b0316612a2e82611abb565b6001600160a01b031614612a545760405162461bcd60e51b8152600401610c2d90613951565b6001600160a01b038216612ab65760405162461bcd60e51b8152602060048201526024808201527f4552433732313a207472616e7366657220746f20746865207a65726f206164646044820152637265737360e01b6064820152608401610c2d565b826001600160a01b0316612ac982611abb565b6001600160a01b031614612aef5760405162461bcd60e51b8152600401610c2d90613951565b600081815260046020908152604080832080546001600160a01b03199081169091556001600160a01b0387811680865260038552838620805460001901905590871680865283862080546001019055868652600290945282852080549092168417909155905184937fddf252ad1be2c89b69c2b068fc378daa952ba7f163c4a11628f55a4df523b3ef91a4505050565b600080612b8b83611abb565b9050806001600160a01b0316846001600160a01b03161480612bd257506001600160a01b0380821660009081526005602090815260408083209388168352929052205460ff165b80611ec95750836001600160a01b0316612beb84610b91565b6001600160a01b031614949350505050565b816001600160a01b0316836001600160a01b03161415612c5f5760405162461bcd60e51b815260206004820152601960248201527f4552433732313a20617070726f766520746f2063616c6c6572000000000000006044820152606401610c2d565b6001600160a01b03838116600081815260056020908152604080832094871680845294825291829020805460ff191686151590811790915591519182527f17307eab39ab6107e8899845ad3d59bd9653f200f220920489ca2b5937696c31910160405180910390a3505050565b612cd7848484612a1b565b612ce384848484612da5565b6120c55760405162461bcd60e51b8152600401610c2d906138ff565b6060612d0a82612730565b6000612d2160408051602081019091526000815290565b90506000815111612d41576040518060200160405280600081525061107d565b80612d4b84612eaf565b604051602001612d5c929190613603565b6040516020818303038152906040529392505050565b612d7c8383612f5a565b612d896000848484612da5565b610cce5760405162461bcd60e51b8152600401610c2d906138ff565b60006001600160a01b0384163b15612ea757604051630a85bd0160e11b81526001600160a01b0385169063150b7a0290612de9903390899088908890600401613632565b602060405180830381600087803b158015612e0357600080fd5b505af1925050508015612e33575060408051601f3d908101601f19168201909252612e3091810190613486565b60015b612e8d573d808015612e61576040519150601f19603f3d011682016040523d82523d6000602084013e612e66565b606091505b508051612e855760405162461bcd60e51b8152600401610c2d906138ff565b805181602001fd5b6001600160e01b031916630a85bd0160e11b149050611ec9565b506001611ec9565b60606000612ebc836130e5565b600101905060008167ffffffffffffffff811115612eea57634e487b7160e01b600052604160045260246000fd5b6040519080825280601f01601f191660200182016040528015612f14576020820181803683370190505b5090508181016020015b600019016f181899199a1a9b1b9c1cb0b131b232b360811b600a86061a8153600a8504945084612f4d57612f52565b612f1e565b509392505050565b6001600160a01b038216612fb05760405162461bcd60e51b815260206004820181905260248201527f4552433732313a206d696e7420746f20746865207a65726f20616464726573736044820152606401610c2d565b6000818152600260205260409020546001600160a01b0316156130155760405162461bcd60e51b815260206004820152601c60248201527f4552433732313a20746f6b656e20616c7265616479206d696e746564000000006044820152606401610c2d565b6000818152600260205260409020546001600160a01b03161561307a5760405162461bcd60e51b815260206004820152601c60248201527f4552433732313a20746f6b656e20616c7265616479206d696e746564000000006044820152606401610c2d565b6001600160a01b038216600081815260036020908152604080832080546001019055848352600290915280822080546001600160a01b0319168417905551839291907fddf252ad1be2c89b69c2b068fc378daa952ba7f163c4a11628f55a4df523b3ef908290a45050565b60008072184f03e93ff9f4daa797ed6e38ed64bf6a1f0160401b83106131245772184f03e93ff9f4daa797ed6e38ed64bf6a1f0160401b830492506040015b6d04ee2d6d415b85acef81000000008310613150576d04ee2d6d415b85acef8100000000830492506020015b662386f26fc10000831061316e57662386f26fc10000830492506010015b6305f5e1008310613186576305f5e100830492506008015b612710831061319a57612710830492506004015b606483106131ac576064830492506002015b600a8310610af95760010192915050565b8280546131c990613a38565b90600052602060002090601f0160209004810192826131eb5760008555613231565b82601f1061320457805160ff1916838001178555613231565b82800160010185558215613231579182015b82811115613231578251825591602001919060010190613216565b5061323d929150613241565b5090565b5b8082111561323d5760008155600101613242565b600067ffffffffffffffff8084111561327157613271613aa4565b604051601f8501601f19908116603f0116810190828211818310171561329957613299613aa4565b816040528093508581528686860111156132b257600080fd5b858560208301376000602087830101525050509392505050565b80356001600160a01b03811681146132e357600080fd5b919050565b600082601f8301126132f8578081fd5b61107d83833560208501613256565b600060208284031215613318578081fd5b61107d826132cc565b60008060408385031215613333578081fd5b61333c836132cc565b915061334a602084016132cc565b90509250929050565b600080600060608486031215613367578081fd5b613370846132cc565b925061337e602085016132cc565b9150604084013590509250925092565b600080600080608085870312156133a3578081fd5b6133ac856132cc565b93506133ba602086016132cc565b925060408501359150606085013567ffffffffffffffff8111156133dc578182fd5b8501601f810187136133ec578182fd5b6133fb87823560208401613256565b91505092959194509250565b60008060408385031215613419578182fd5b613422836132cc565b915060208301358015158114613436578182fd5b809150509250929050565b60008060408385031215613453578182fd5b61345c836132cc565b946020939093013593505050565b60006020828403121561347b578081fd5b813561107d81613aba565b600060208284031215613497578081fd5b815161107d81613aba565b6000602082840312156134b3578081fd5b813567ffffffffffffffff8111156134c9578182fd5b611ec9848285016132e8565b600080604083850312156134e7578182fd5b823567ffffffffffffffff808211156134fe578384fd5b61350a868387016132e8565b9350602085013591508082111561351f578283fd5b5061352c858286016132e8565b9150509250929050565b600060208284031215613547578081fd5b5035919050565b60008060408385031215613560578182fd5b50508035926020909101359150565b60008060008060808587031215613584578384fd5b843593506020850135925060408501359150606085013567ffffffffffffffff8111156135af578182fd5b6133fb878288016132e8565b600081518084526135d3816020860160208601613a0c565b601f01601f19169290920160200192915050565b600082516135f9818460208701613a0c565b9190910192915050565b60008351613615818460208801613a0c565b835190830190613629818360208801613a0c565b01949350505050565b6001600160a01b0385811682528416602082015260408101839052608060608201819052600090613665908301846135bb565b9695505050505050565b602080825282518282018190526000919060409081850190868401855b828110156136cf578151805185528681015187860152858101516001600160a01b031686860152606090810151908501526080909301929085019060010161368c565b5091979650505050505050565b602080825282518282018190526000919060409081850190868401855b828110156136cf578151805185528681015187860152858101516001600160a01b03908116878701526060808301519091169086015260809081015115159085015260a090930192908501906001016136f9565b602080825282518282018190526000919060409081850190868401855b828110156136cf578151805185528681015187860152858101516001600160a01b03168686015260608082015115159086015260808082015115159086015260a08082015115159086015260c09081015115159085015260e0909301929085019060010161376a565b60006020808301818452808551808352604092508286019150828160051b870101848801865b8381101561389157603f19898403018552815180518452878101516001600160a01b0316888501528681015187850152606080820151908501526080808201519085015260a0808201519085015260c0808201519085015260e080820151610120828701819052919061386e838801826135bb565b6101009485015197909401969096525050948701949250908601906001016137f9565b509098975050505050505050565b60208152600061107d60208301846135bb565b6020808252602d908201527f4552433732313a2063616c6c6572206973206e6f7420746f6b656e206f776e6560408201526c1c881bdc88185c1c1c9bdd9959609a1b606082015260800190565b60208082526032908201527f4552433732313a207472616e7366657220746f206e6f6e20455243373231526560408201527131b2b4bb32b91034b6b83632b6b2b73a32b960711b606082015260800190565b60208082526025908201527f4552433732313a207472616e736665722066726f6d20696e636f72726563742060408201526437bbb732b960d91b606082015260800190565b60006101208b835260018060a01b038b1660208401528960408401528860608401528760808401528660a08401528560c08401528060e08401526139dc818401866135bb565b915050826101008301529a9950505050505050505050565b60008219821115613a0757613a07613a8e565b500190565b60005b83811015613a27578181015183820152602001613a0f565b838111156120c55750506000910152565b600181811c90821680613a4c57607f821691505b60208210811415613a6d57634e487b7160e01b600052602260045260246000fd5b50919050565b6000600019821415613a8757613a87613a8e565b5060010190565b634e487b7160e01b600052601160045260246000fd5b634e487b7160e01b600052604160045260246000fd5b6001600160e01b03198116811461102057600080fdfea26469706673582212207e8dd57fc9439175046a2fa6dc88a77ae0500d1052ca4fc10596e0c6a54be41364736f6c63430008040033",
  "linkReferences": {},
  "deployedLinkReferences": {}
}