{
  "_format": "hh-sol-artifact-1",
  "contractName": "PolygonNFTMarketplace",
  "sourceName": "contracts/PolygonNFTMarketplace.sol",
  "abi": [
    {
      "inputs": [],
      "stateMutability": "nonpayable",
      "type": "constructor"
    },
    {
      "anonymous": false,
      "inputs": [
        {
          "indexed": true,
          "internalType": "address",
          "name": "owner",
          "type": "address"
        },
        {
          "indexed": true,
          "internalType": "address",
          "name": "approved",
          "type": "address"
        },
        {
          "indexed": true,
          "internalType": "uint256",
          "name": "tokenId",
          "type": "uint256"
        }
      ],
      "name": "Approval",
      "type": "event"
    },
    {
      "anonymous": false,
      "inputs": [
        {
          "indexed": true,
          "internalType": "address",
          "name": "owner",
          "type": "address"
        },
        {
          "indexed": true,
          "internalType": "address",
          "name": "operator",
          "type": "address"
        },
        {
          "indexed": false,
          "internalType": "bool",
          "name": "approved",
          "type": "bool"
        }
      ],
      "name": "ApprovalForAll",
      "type": "event"
    },
    {
      "anonymous": false,
      "inputs": [
        {
          "indexed": false,
          "internalType": "uint256",
          "name": "listingId",
          "type": "uint256"
        },
        {
          "indexed": true,
          "internalType": "address",
          "name": "seller",
          "type": "address"
        },
        {
          "indexed": true,
          "internalType": "address",
          "name": "bidder",
          "type": "address"
        },
        {
          "indexed": false,
          "internalType": "uint256",
          "name": "bid",
          "type": "uint256"
        }
      ],
      "name": "AuctionCompleted",
      "type": "event"
    },
    {
      "anonymous": false,
      "inputs": [
        {
          "indexed": false,
          "internalType": "uint256",
          "name": "listingId",
          "type": "uint256"
        },
        {
          "indexed": true,
          "internalType": "address",
          "name": "seller",
          "type": "address"
        },
        {
          "indexed": false,
          "internalType": "uint256",
          "name": "price",
          "type": "uint256"
        },
        {
          "indexed": false,
          "internalType": "uint256",
          "name": "tokenId",
          "type": "uint256"
        },
        {
          "indexed": false,
          "internalType": "uint256",
          "name": "startAt",
          "type": "uint256"
        },
        {
          "indexed": false,
          "internalType": "uint256",
          "name": "endAt",
          "type": "uint256"
        }
      ],
      "name": "AuctionCreated",
      "type": "event"
    },
    {
      "anonymous": false,
      "inputs": [
        {
          "indexed": false,
          "internalType": "uint256",
          "name": "_fromTokenId",
          "type": "uint256"
        },
        {
          "indexed": false,
          "internalType": "uint256",
          "name": "_toTokenId",
          "type": "uint256"
        }
      ],
      "name": "BatchMetadataUpdate",
      "type": "event"
    },
    {
      "anonymous": false,
      "inputs": [
        {
          "indexed": false,
          "internalType": "uint256",
          "name": "listingId",
          "type": "uint256"
        },
        {
          "indexed": true,
          "internalType": "address",
          "name": "bidder",
          "type": "address"
        },
        {
          "indexed": false,
          "internalType": "uint256",
          "name": "bid",
          "type": "uint256"
        }
      ],
      "name": "BidCreated",
      "type": "event"
    },
    {
      "anonymous": false,
      "inputs": [
        {
          "indexed": false,
          "internalType": "uint256",
          "name": "_tokenId",
          "type": "uint256"
        }
      ],
      "name": "MetadataUpdate",
      "type": "event"
    },
    {
      "anonymous": false,
      "inputs": [
        {
          "indexed": true,
          "internalType": "address",
          "name": "minter",
          "type": "address"
        },
        {
          "indexed": false,
          "internalType": "uint256",
          "name": "nftID",
          "type": "uint256"
        },
        {
          "indexed": false,
          "internalType": "string",
          "name": "uri",
          "type": "string"
        }
      ],
      "name": "Minted",
      "type": "event"
    },
    {
      "anonymous": false,
      "inputs": [
        {
          "indexed": true,
          "internalType": "address",
          "name": "from",
          "type": "address"
        },
        {
          "indexed": true,
          "internalType": "address",
          "name": "to",
          "type": "address"
        },
        {
          "indexed": true,
          "internalType": "uint256",
          "name": "tokenId",
          "type": "uint256"
        }
      ],
      "name": "Transfer",
      "type": "event"
    },
    {
      "anonymous": false,
      "inputs": [
        {
          "indexed": false,
          "internalType": "uint256",
          "name": "listingId",
          "type": "uint256"
        },
        {
          "indexed": true,
          "internalType": "address",
          "name": "bidder",
          "type": "address"
        },
        {
          "indexed": false,
          "internalType": "uint256",
          "name": "bid",
          "type": "uint256"
        }
      ],
      "name": "WithdrawBid",
      "type": "event"
    },
    {
      "inputs": [],
      "name": "BuyCount",
      "outputs": [
        {
          "internalType": "uint256",
          "name": "_value",
          "type": "uint256"
        }
      ],
      "stateMutability": "view",
      "type": "function"
    },
    {
      "inputs": [
        {
          "internalType": "string",
          "name": "tokenURI",
          "type": "string"
        }
      ],
      "name": "CreateToken",
      "outputs": [
        {
          "internalType": "uint256",
          "name": "",
          "type": "uint256"
        }
      ],
      "stateMutability": "payable",
      "type": "function"
    },
    {
      "inputs": [
        {
          "internalType": "uint256",
          "name": "price",
          "type": "uint256"
        },
        {
          "internalType": "uint256",
          "name": "id",
          "type": "uint256"
        }
      ],
      "name": "ListNFT",
      "outputs": [],
      "stateMutability": "nonpayable",
      "type": "function"
    },
    {
      "inputs": [],
      "name": "STATUS_DONE",
      "outputs": [
        {
          "internalType": "uint8",
          "name": "",
          "type": "uint8"
        }
      ],
      "stateMutability": "view",
      "type": "function"
    },
    {
      "inputs": [],
      "name": "STATUS_OPEN",
      "outputs": [
        {
          "internalType": "uint8",
          "name": "",
          "type": "uint8"
        }
      ],
      "stateMutability": "view",
      "type": "function"
    },
    {
      "inputs": [],
      "name": "SoldCount",
      "outputs": [
        {
          "internalType": "uint256",
          "name": "_value",
          "type": "uint256"
        }
      ],
      "stateMutability": "view",
      "type": "function"
    },
    {
      "inputs": [],
      "name": "TokenCount",
      "outputs": [
        {
          "internalType": "uint256",
          "name": "_value",
          "type": "uint256"
        }
      ],
      "stateMutability": "view",
      "type": "function"
    },
    {
      "inputs": [
        {
          "internalType": "address",
          "name": "to",
          "type": "address"
        },
        {
          "internalType": "uint256",
          "name": "tokenId",
          "type": "uint256"
        }
      ],
      "name": "approve",
      "outputs": [],
      "stateMutability": "nonpayable",
      "type": "function"
    },
    {
      "inputs": [
        {
          "internalType": "address",
          "name": "owner",
          "type": "address"
        }
      ],
      "name": "balanceOf",
      "outputs": [
        {
          "internalType": "uint256",
          "name": "",
          "type": "uint256"
        }
      ],
      "stateMutability": "view",
      "type": "function"
    },
    {
      "inputs": [
        {
          "internalType": "uint256",
          "name": "listingId",
          "type": "uint256"
        }
      ],
      "name": "bid",
      "outputs": [],
      "stateMutability": "payable",
      "type": "function"
    },
    {
      "inputs": [
        {
          "internalType": "uint256",
          "name": "",
          "type": "uint256"
        },
        {
          "internalType": "address",
          "name": "",
          "type": "address"
        }
      ],
      "name": "bids",
      "outputs": [
        {
          "internalType": "uint256",
          "name": "",
          "type": "uint256"
        }
      ],
      "stateMutability": "view",
      "type": "function"
    },
    {
      "inputs": [
        {
          "internalType": "uint256",
          "name": "listingId",
          "type": "uint256"
        }
      ],
      "name": "completeAuction",
      "outputs": [],
      "stateMutability": "payable",
      "type": "function"
    },
    {
      "inputs": [
        {
          "internalType": "uint256",
          "name": "price",
          "type": "uint256"
        },
        {
          "internalType": "uint256",
          "name": "tokenId",
          "type": "uint256"
        },
        {
          "internalType": "uint256",
          "name": "durationInSeconds",
          "type": "uint256"
        }
      ],
      "name": "createAuctionListing",
      "outputs": [
        {
          "internalType": "uint256",
          "name": "",
          "type": "uint256"
        }
      ],
      "stateMutability": "nonpayable",
      "type": "function"
    },
    {
      "inputs": [
        {
          "internalType": "uint256",
          "name": "tokenId",
          "type": "uint256"
        }
      ],
      "name": "executeSale",
      "outputs": [],
      "stateMutability": "payable",
      "type": "function"
    },
    {
      "inputs": [],
      "name": "getAllBiddedNfts",
      "outputs": [
        {
          "components": [
            {
              "internalType": "uint256",
              "name": "biddingId",
              "type": "uint256"
            },
            {
              "internalType": "address",
              "name": "seller",
              "type": "address"
            },
            {
              "internalType": "uint256",
              "name": "tokenId",
              "type": "uint256"
            },
            {
              "internalType": "uint256",
              "name": "price",
              "type": "uint256"
            },
            {
              "internalType": "uint256",
              "name": "netPrice",
              "type": "uint256"
            },
            {
              "internalType": "uint256",
              "name": "startAt",
              "type": "uint256"
            },
            {
              "internalType": "uint256",
              "name": "endAt",
              "type": "uint256"
            },
            {
              "internalType": "uint8",
              "name": "status",
              "type": "uint8"
            }
          ],
          "internalType": "struct PolygonNFTMarketplace.Listing[]",
          "name": "",
          "type": "tuple[]"
        }
      ],
      "stateMutability": "view",
      "type": "function"
    },
    {
      "inputs": [],
      "name": "getAllNfts",
      "outputs": [
        {
          "components": [
            {
              "internalType": "uint256",
              "name": "tokenId",
              "type": "uint256"
            },
            {
              "internalType": "uint256",
              "name": "price",
              "type": "uint256"
            },
            {
              "internalType": "address payable",
              "name": "owner",
              "type": "address"
            },
            {
              "internalType": "bool",
              "name": "NFTsold",
              "type": "bool"
            },
            {
              "internalType": "bool",
              "name": "NFTbought",
              "type": "bool"
            }
          ],
          "internalType": "struct PolygonNFTMarketplace.ListedToken[]",
          "name": "",
          "type": "tuple[]"
        }
      ],
      "stateMutability": "view",
      "type": "function"
    },
    {
      "inputs": [
        {
          "internalType": "uint256",
          "name": "tokenId",
          "type": "uint256"
        }
      ],
      "name": "getApproved",
      "outputs": [
        {
          "internalType": "address",
          "name": "",
          "type": "address"
        }
      ],
      "stateMutability": "view",
      "type": "function"
    },
    {
      "inputs": [],
      "name": "getMyNFTs",
      "outputs": [
        {
          "components": [
            {
              "internalType": "uint256",
              "name": "tokenId",
              "type": "uint256"
            },
            {
              "internalType": "uint256",
              "name": "price",
              "type": "uint256"
            },
            {
              "internalType": "address payable",
              "name": "owner",
              "type": "address"
            },
            {
              "internalType": "bool",
              "name": "NFTsold",
              "type": "bool"
            },
            {
              "internalType": "bool",
              "name": "NFTbought",
              "type": "bool"
            }
          ],
          "internalType": "struct PolygonNFTMarketplace.ListedToken[]",
          "name": "",
          "type": "tuple[]"
        }
      ],
      "stateMutability": "view",
      "type": "function"
    },
    {
      "inputs": [],
      "name": "getMySoldNFTs",
      "outputs": [
        {
          "components": [
            {
              "internalType": "uint256",
              "name": "tokenId",
              "type": "uint256"
            },
            {
              "internalType": "uint256",
              "name": "price",
              "type": "uint256"
            },
            {
              "internalType": "address payable",
              "name": "owner",
              "type": "address"
            },
            {
              "internalType": "address",
              "name": "newOwner",
              "type": "address"
            },
            {
              "internalType": "bool",
              "name": "NFTsold",
              "type": "bool"
            }
          ],
          "internalType": "struct PolygonNFTMarketplace.ItemsSold[]",
          "name": "",
          "type": "tuple[]"
        }
      ],
      "stateMutability": "view",
      "type": "function"
    },
    {
      "inputs": [
        {
          "internalType": "uint256",
          "name": "",
          "type": "uint256"
        }
      ],
      "name": "highestBidder",
      "outputs": [
        {
          "internalType": "address",
          "name": "",
          "type": "address"
        }
      ],
      "stateMutability": "view",
      "type": "function"
    },
    {
      "inputs": [
        {
          "internalType": "uint256",
          "name": "",
          "type": "uint256"
        }
      ],
      "name": "idToListedToken",
      "outputs": [
        {
          "internalType": "uint256",
          "name": "tokenId",
          "type": "uint256"
        },
        {
          "internalType": "uint256",
          "name": "price",
          "type": "uint256"
        },
        {
          "internalType": "address payable",
          "name": "owner",
          "type": "address"
        },
        {
          "internalType": "bool",
          "name": "NFTsold",
          "type": "bool"
        },
        {
          "internalType": "bool",
          "name": "NFTbought",
          "type": "bool"
        }
      ],
      "stateMutability": "view",
      "type": "function"
    },
    {
      "inputs": [
        {
          "internalType": "uint256",
          "name": "",
          "type": "uint256"
        }
      ],
      "name": "idToSoldItems",
      "outputs": [
        {
          "internalType": "uint256",
          "name": "tokenId",
          "type": "uint256"
        },
        {
          "internalType": "uint256",
          "name": "price",
          "type": "uint256"
        },
        {
          "internalType": "address payable",
          "name": "owner",
          "type": "address"
        },
        {
          "internalType": "address",
          "name": "newOwner",
          "type": "address"
        },
        {
          "internalType": "bool",
          "name": "NFTsold",
          "type": "bool"
        }
      ],
      "stateMutability": "view",
      "type": "function"
    },
    {
      "inputs": [
        {
          "internalType": "address",
          "name": "owner",
          "type": "address"
        },
        {
          "internalType": "address",
          "name": "operator",
          "type": "address"
        }
      ],
      "name": "isApprovedForAll",
      "outputs": [
        {
          "internalType": "bool",
          "name": "",
          "type": "bool"
        }
      ],
      "stateMutability": "view",
      "type": "function"
    },
    {
      "inputs": [
        {
          "internalType": "uint256",
          "name": "id",
          "type": "uint256"
        }
      ],
      "name": "isAuctionExpired",
      "outputs": [
        {
          "internalType": "bool",
          "name": "",
          "type": "bool"
        }
      ],
      "stateMutability": "view",
      "type": "function"
    },
    {
      "inputs": [
        {
          "internalType": "uint256",
          "name": "id",
          "type": "uint256"
        }
      ],
      "name": "isAuctionOpen",
      "outputs": [
        {
          "internalType": "bool",
          "name": "",
          "type": "bool"
        }
      ],
      "stateMutability": "view",
      "type": "function"
    },
    {
      "inputs": [],
      "name": "listingCounter",
      "outputs": [
        {
          "internalType": "uint256",
          "name": "_value",
          "type": "uint256"
        }
      ],
      "stateMutability": "view",
      "type": "function"
    },
    {
      "inputs": [
        {
          "internalType": "uint256",
          "name": "",
          "type": "uint256"
        }
      ],
      "name": "listings",
      "outputs": [
        {
          "internalType": "uint256",
          "name": "biddingId",
          "type": "uint256"
        },
        {
          "internalType": "address",
          "name": "seller",
          "type": "address"
        },
        {
          "internalType": "uint256",
          "name": "tokenId",
          "type": "uint256"
        },
        {
          "internalType": "uint256",
          "name": "price",
          "type": "uint256"
        },
        {
          "internalType": "uint256",
          "name": "netPrice",
          "type": "uint256"
        },
        {
          "internalType": "uint256",
          "name": "startAt",
          "type": "uint256"
        },
        {
          "internalType": "uint256",
          "name": "endAt",
          "type": "uint256"
        },
        {
          "internalType": "uint8",
          "name": "status",
          "type": "uint8"
        }
      ],
      "stateMutability": "view",
      "type": "function"
    },
    {
      "inputs": [],
      "name": "minAuctionIncrement",
      "outputs": [
        {
          "internalType": "uint256",
          "name": "",
          "type": "uint256"
        }
      ],
      "stateMutability": "view",
      "type": "function"
    },
    {
      "inputs": [],
      "name": "name",
      "outputs": [
        {
          "internalType": "string",
          "name": "",
          "type": "string"
        }
      ],
      "stateMutability": "view",
      "type": "function"
    },
    {
      "inputs": [
        {
          "internalType": "uint256",
          "name": "tokenId",
          "type": "uint256"
        }
      ],
      "name": "ownerOf",
      "outputs": [
        {
          "internalType": "address",
          "name": "",
          "type": "address"
        }
      ],
      "stateMutability": "view",
      "type": "function"
    },
    {
      "inputs": [
        {
          "internalType": "address",
          "name": "from",
          "type": "address"
        },
        {
          "internalType": "address",
          "name": "to",
          "type": "address"
        },
        {
          "internalType": "uint256",
          "name": "tokenId",
          "type": "uint256"
        }
      ],
      "name": "safeTransferFrom",
      "outputs": [],
      "stateMutability": "nonpayable",
      "type": "function"
    },
    {
      "inputs": [
        {
          "internalType": "address",
          "name": "from",
          "type": "address"
        },
        {
          "internalType": "address",
          "name": "to",
          "type": "address"
        },
        {
          "internalType": "uint256",
          "name": "tokenId",
          "type": "uint256"
        },
        {
          "internalType": "bytes",
          "name": "data",
          "type": "bytes"
        }
      ],
      "name": "safeTransferFrom",
      "outputs": [],
      "stateMutability": "nonpayable",
      "type": "function"
    },
    {
      "inputs": [
        {
          "internalType": "address",
          "name": "operator",
          "type": "address"
        },
        {
          "internalType": "bool",
          "name": "approved",
          "type": "bool"
        }
      ],
      "name": "setApprovalForAll",
      "outputs": [],
      "stateMutability": "nonpayable",
      "type": "function"
    },
    {
      "inputs": [
        {
          "internalType": "bytes4",
          "name": "interfaceId",
          "type": "bytes4"
        }
      ],
      "name": "supportsInterface",
      "outputs": [
        {
          "internalType": "bool",
          "name": "",
          "type": "bool"
        }
      ],
      "stateMutability": "view",
      "type": "function"
    },
    {
      "inputs": [],
      "name": "symbol",
      "outputs": [
        {
          "internalType": "string",
          "name": "",
          "type": "string"
        }
      ],
      "stateMutability": "view",
      "type": "function"
    },
    {
      "inputs": [
        {
          "internalType": "uint256",
          "name": "tokenId",
          "type": "uint256"
        }
      ],
      "name": "tokenURI",
      "outputs": [
        {
          "internalType": "string",
          "name": "",
          "type": "string"
        }
      ],
      "stateMutability": "view",
      "type": "function"
    },
    {
      "inputs": [
        {
          "internalType": "address",
          "name": "from",
          "type": "address"
        },
        {
          "internalType": "address",
          "name": "to",
          "type": "address"
        },
        {
          "internalType": "uint256",
          "name": "tokenId",
          "type": "uint256"
        }
      ],
      "name": "transferFrom",
      "outputs": [],
      "stateMutability": "nonpayable",
      "type": "function"
    },
    {
      "inputs": [
        {
          "internalType": "uint256",
          "name": "listingId",
          "type": "uint256"
        }
      ],
      "name": "withdrawBid",
      "outputs": [],
      "stateMutability": "payable",
      "type": "function"
    }
  ],
  "bytecode": "0x6080604052600a600e553480156200001657600080fd5b50604080518082018252601581527f506f6c79676f6e4e46544d61726b6574706c61636500000000000000000000006020808301918252835180850190945260048452634441524b60e01b90840152815191929162000078916000916200009c565b5080516200008e9060019060208401906200009c565b50506001600755506200017f565b828054620000aa9062000142565b90600052602060002090601f016020900481019282620000ce576000855562000119565b82601f10620000e957805160ff191683800117855562000119565b8280016001018555821562000119579182015b8281111562000119578251825591602001919060010190620000fc565b50620001279291506200012b565b5090565b5b808211156200012757600081556001016200012c565b600181811c908216806200015757607f821691505b602082108114156200017957634e487b7160e01b600052602260045260246000fd5b50919050565b613188806200018f6000396000f3fe6080604052600436106102255760003560e01c80636352211e11610123578063a22cb465116100ab578063de74e57b1161006f578063de74e57b146106d9578063e57a497a1461078a578063e985e9c51461081d578063edf2ebcc14610866578063fad266fe1461087d57600080fd5b8063a22cb46514610628578063adc2524c14610648578063b27dce8114610677578063b88d4fde14610699578063c87b56dd146106b957600080fd5b806370a08231116100f257806370a08231146105b6578063732e8d73146105d6578063740db280146105eb57806395d89b41146106005780639b1225c41461061557600080fd5b80636352211e1461055657806366b126e6146105765780636c2c9c7d14610589578063708d4d35146105a057600080fd5b806324f8515b116101b1578063451df52e11610175578063451df52e146104a9578063454a2ab3146104df5780634945dcdd146104f25780634c22f38114610514578063629cb2e41461053457600080fd5b806324f8515b14610374578063330241001461039b57806336ad658f1461042c5780633f1ffcec1461045157806342842e0e1461048957600080fd5b80630ad48628116101f85780630ad48628146102db5780630eaaf4c8146102fb5780631389b1171461030e57806321b628861461034157806323b872dd1461035457600080fd5b806301ffc9a71461022a57806306fdde031461025f578063081812fc14610281578063095ea7b3146102b9575b600080fd5b34801561023657600080fd5b5061024a610245366004612c4b565b610894565b60405190151581526020015b60405180910390f35b34801561026b57600080fd5b506102746108bf565b6040516102569190612f5f565b34801561028d57600080fd5b506102a161029c366004612cc9565b610951565b6040516001600160a01b039091168152602001610256565b3480156102c557600080fd5b506102d96102d4366004612c22565b610978565b005b3480156102e757600080fd5b5061024a6102f6366004612cc9565b610a93565b6102d9610309366004612cc9565b610aca565b34801561031a57600080fd5b5061024a610329366004612cc9565b6000908152600f602052604090206006015442101590565b6102d961034f366004612cc9565b610c0e565b34801561036057600080fd5b506102d961036f366004612b34565b610e01565b34801561038057600080fd5b50610389600181565b60405160ff9091168152602001610256565b3480156103a757600080fd5b506103f66103b6366004612cc9565b600d602052600090815260409020805460018201546002830154600390930154919290916001600160a01b0391821691811690600160a01b900460ff1685565b6040805195865260208601949094526001600160a01b03928316938501939093521660608301521515608082015260a001610256565b34801561043857600080fd5b506008546104439081565b604051908152602001610256565b34801561045d57600080fd5b5061044361046c366004612ce1565b601060209081526000928352604080842090915290825290205481565b34801561049557600080fd5b506102d96104a4366004612b34565b610e32565b3480156104b557600080fd5b506102a16104c4366004612cc9565b6011602052600090815260409020546001600160a01b031681565b6102d96104ed366004612cc9565b610e4d565b3480156104fe57600080fd5b50610507611053565b6040516102569190612ed3565b34801561052057600080fd5b5061044361052f366004612d24565b611279565b34801561054057600080fd5b506105496113f2565b6040516102569190612e65565b34801561056257600080fd5b506102a1610571366004612cc9565b6115ec565b610443610584366004612c83565b61164c565b34801561059557600080fd5b50600b546104439081565b3480156105ac57600080fd5b50610443600e5481565b3480156105c257600080fd5b506104436105d1366004612ae8565b61170b565b3480156105e257600080fd5b50610549611791565b3480156105f757600080fd5b50610389600281565b34801561060c57600080fd5b50610274611971565b6102d9610623366004612cc9565b611980565b34801561063457600080fd5b506102d9610643366004612be8565b611b58565b34801561065457600080fd5b506102d9610663366004612d03565b6000908152600c6020526040902060010155565b34801561068357600080fd5b5061068c611b67565b6040516102569190612de7565b3480156106a557600080fd5b506102d96106b4366004612b6f565b611d5d565b3480156106c557600080fd5b506102746106d4366004612cc9565b611d95565b3480156106e557600080fd5b506107446106f4366004612cc9565b600f602052600090815260409020805460018201546002830154600384015460048501546005860154600687015460079097015495966001600160a01b0390951695939492939192909160ff1688565b604080519889526001600160a01b039097166020890152958701949094526060860192909252608085015260a084015260c083015260ff1660e082015261010001610256565b34801561079657600080fd5b506107e56107a5366004612cc9565b600c602052600090815260409020805460018201546002909201549091906001600160a01b0381169060ff600160a01b8204811691600160a81b90041685565b6040805195865260208601949094526001600160a01b039092169284019290925290151560608301521515608082015260a001610256565b34801561082957600080fd5b5061024a610838366004612b02565b6001600160a01b03918216600090815260056020908152604080832093909416825291909152205460ff1690565b34801561087257600080fd5b506009546104439081565b34801561088957600080fd5b50600a546104439081565b60006001600160e01b03198216632483248360e11b14806108b957506108b982611ea6565b92915050565b6060600080546108ce906130ba565b80601f01602080910402602001604051908101604052809291908181526020018280546108fa906130ba565b80156109475780601f1061091c57610100808354040283529160200191610947565b820191906000526020600020905b81548152906001019060200180831161092a57829003601f168201915b5050505050905090565b600061095c82611ef6565b506000908152600460205260409020546001600160a01b031690565b6000610983826115ec565b9050806001600160a01b0316836001600160a01b031614156109f65760405162461bcd60e51b815260206004820152602160248201527f4552433732313a20617070726f76616c20746f2063757272656e74206f776e656044820152603960f91b60648201526084015b60405180910390fd5b336001600160a01b0382161480610a125750610a128133610838565b610a845760405162461bcd60e51b815260206004820152603d60248201527f4552433732313a20617070726f76652063616c6c6572206973206e6f7420746f60448201527f6b656e206f776e6572206f7220617070726f76656420666f7220616c6c00000060648201526084016109ed565b610a8e8383611f55565b505050565b6000818152600f602052604081206007015460ff1660011480156108b95750506000908152600f6020526040902060060154421090565b610ad2611fc3565b6000818152600f6020526040902060060154421015610b2b5760405162461bcd60e51b8152602060048201526015602482015274185d58dd1a5bdb881b5d5cdd08189948195b991959605a1b60448201526064016109ed565b6000818152601160205260409020546001600160a01b0316331415610b9d5760405162461bcd60e51b815260206004820152602260248201527f68696768657374206269646465722063616e6e6f7420776974686472617720626044820152611a5960f21b60648201526084016109ed565b600081815260106020908152604080832033808552925282208054929055610bc5908261201d565b604080518381526020810183905233917f5eec25485ddf1aad4b5c89eda65e6053949901bfb1fe6f4c553e9c208b5bd5f8910160405180910390a250610c0b6001600755565b50565b610c16611fc3565b610c1f81610a93565b15610c645760405162461bcd60e51b815260206004820152601560248201527430bab1ba34b7b71034b99039ba34b6361037b832b760591b60448201526064016109ed565b6000818152600f6020908152604080832060119092529091205460018201546001600160a01b039182169116331480610ca55750336001600160a01b038216145b610d045760405162461bcd60e51b815260206004820152602a60248201527f6f6e6c792073656c6c6572206f722077696e6e65722063616e20636f6d706c656044820152693a329030bab1ba34b7b760b11b60648201526084016109ed565b6001600160a01b03811615610d5f57610d223082846002015461212b565b60008381526010602090815260408083206001600160a01b0385811685529252822080549290556001840154610d5991168261201d565b50610d80565b60018201546002830154610d809130916001600160a01b039091169061212b565b60078201805460ff19166002179055600182015460008481526010602090815260408083206001600160a01b0386811680865291845293829020548251898152938401529392909216917f7a59a6c36c8b7dc5080444722a7a194bf83837c893f984bcea8692e91551fc47910160405180910390a35050610c0b6001600755565b610e0b338261228f565b610e275760405162461bcd60e51b81526004016109ed90612f72565b610a8e83838361212b565b610a8e83838360405180602001604052806000815250611d5d565b610e55611fc3565b610e5e81610a93565b610e9e5760405162461bcd60e51b8152602060048201526011602482015270185d58dd1a5bdb881a185cc8195b991959607a1b60448201526064016109ed565b6000818152600f6020526040902060018101546001600160a01b0316331415610f095760405162461bcd60e51b815260206004820152601a60248201527f63616e6e6f7420626964206f6e207768617420796f75206f776e00000000000060448201526064016109ed565b6000828152601060209081526040808320338452909152812054610f2e903490613056565b90508160030154811015610f965760405162461bcd60e51b815260206004820152602960248201527f63616e6e6f74206269642062656c6f7720746865206c61746573742062696464604482015268696e6720707269636560b81b60648201526084016109ed565b600083815260106020908152604080832033845290915281208054349290610fbf908490613056565b9091555050600083815260116020526040812080546001600160a01b03191633179055600e546003840154610ff4919061306e565b90508083600301546110069190613056565b6003840155604080518581526020810184905233917f0bda7f7cf42011b27b057b83f3bf21f963b84eb591478e6b413b18d7872cd37a910160405180910390a2505050610c0b6001600755565b60606000611060600b5490565b905060008060005b838110156110b857600f600061107f836001613056565b8152602001908152602001600020600301546000146110a6576110a3600184613056565b92505b6110b1600182613056565b9050611068565b5060008267ffffffffffffffff8111156110e257634e487b7160e01b600052604160045260246000fd5b60405190808252806020026020018201604052801561116757816020015b6111546040518061010001604052806000815260200160006001600160a01b031681526020016000815260200160008152602001600081526020016000815260200160008152602001600060ff1681525090565b8152602001906001900390816111005790505b50905060005b84811015611270576000600f81611185846001613056565b81526020019081526020016000209050600f60008360016111a69190613056565b81526020019081526020016000206003015460001461125d5760408051610100810182528254815260018301546001600160a01b031660208201526002830154918101919091526003820154606082015260048201546080820152600582015460a0820152600682015460c0820152600782015460ff1660e0820152835184908690811061124457634e487b7160e01b600052603260045260246000fd5b602090810291909101015261125a600185613056565b93505b50611269600182613056565b905061116d565b50949350505050565b6000611289600b80546001019055565b6000611294600b5490565b90504260006112a38583613056565b9050604051806101000160405280848152602001336001600160a01b03168152602001878152602001888152602001888152602001838152602001828152602001600160ff16815250600f60008581526020019081526020016000206000820151816000015560208201518160010160006101000a8154816001600160a01b0302191690836001600160a01b0316021790555060408201518160020155606082015181600301556080820151816004015560a0820151816005015560c0820151816006015560e08201518160070160006101000a81548160ff021916908360ff16021790555090505061139733308861212b565b6040805184815260208101899052908101879052606081018390526080810182905233907e09646912aaa7019ad837e57cc5c0613299c8432f5268d4450ab8673fe0fa039060a00160405180910390a2509095945050505050565b606060006113ff60085490565b9050600080805b838110156114615733600c600061141e846001613056565b81526020810191909152604001600020600201546001600160a01b0316141561144f578161144b816130f5565b9250505b80611459816130f5565b915050611406565b5060008167ffffffffffffffff81111561148b57634e487b7160e01b600052604160045260246000fd5b6040519080825280602002602001820160405280156114e457816020015b6040805160a0810182526000808252602080830182905292820181905260608201819052608082015282526000199092019101816114a95790505b50905060005b848110156112705733600c6000611502846001613056565b81526020810191909152604001600020600201546001600160a01b031614156115da576000600c81611535846001613056565b81526020808201929092526040908101600020815160a0810183528154815260018201549381019390935260028101546001600160a01b0381169284019290925260ff600160a01b8304811615156060850152600160a81b9092049091161515608083015284519092508490879081106115bf57634e487b7160e01b600052603260045260246000fd5b602002602001018190525084806115d5906130f5565b955050505b806115e4816130f5565b9150506114ea565b6000818152600260205260408120546001600160a01b0316806108b95760405162461bcd60e51b8152602060048201526018602482015277115490cdcc8c4e881a5b9d985b1a59081d1bdad95b88125160421b60448201526064016109ed565b600061165c600880546001019055565b600061166760085490565b9050611673338261230d565b61167d8184612327565b6040805160a08101825282815260006020808301828152338486019081526060850184815260808601858152888652600c9094529590932093518455516001840155905160029092018054935191511515600160a81b0260ff60a81b19921515600160a01b026001600160a81b03199095166001600160a01b039094169390931793909317161790556108b9565b60006001600160a01b0382166117755760405162461bcd60e51b815260206004820152602960248201527f4552433732313a2061646472657373207a65726f206973206e6f7420612076616044820152683634b21037bbb732b960b91b60648201526084016109ed565b506001600160a01b031660009081526003602052604090205490565b6060600061179e60085490565b905060008060005b838110156117f657600c60006117bd836001613056565b8152602001908152602001600020600101546000146117e4576117e1600184613056565b92505b6117ef600182613056565b90506117a6565b5060008267ffffffffffffffff81111561182057634e487b7160e01b600052604160045260246000fd5b60405190808252806020026020018201604052801561187957816020015b6040805160a08101825260008082526020808301829052928201819052606082018190526080820152825260001990920191018161183e5790505b50905060005b84811015611270576000600c81611897846001613056565b81526020019081526020016000209050600c60008360016118b89190613056565b81526020019081526020016000206001015460001461195e576040805160a081018252825481526001830154602082015260028301546001600160a01b0381169282019290925260ff600160a01b8304811615156060830152600160a81b90920490911615156080820152835184908690811061194557634e487b7160e01b600052603260045260246000fd5b602090810291909101015261195b600185613056565b93505b5061196a600182613056565b905061187f565b6060600180546108ce906130ba565b6000818152600c6020526040902060018101546002909101546001600160a01b03163314156119f15760405162461bcd60e51b815260206004820152601a60248201527f796f752063616e27742062757920796f7572206f776e206e667400000000000060448201526064016109ed565b6000828152600c60205260409020600201546001600160a01b0316611a1781338561212b565b611a218184610978565b6000838152600c6020526040808220600201805460ff60a81b1960ff60a01b1933166001600160a81b031990921691909117600160a01b1716600160a81b179055516001600160a01b038316913480156108fc02929091818181858888f19350505050158015611a95573d6000803e3d6000fd5b50611aa4600980546001019055565b6000611aaf60095490565b6040805160a08101825286815260208082019687526001600160a01b0395861682840190815233606084019081526001608085018181526000978852600d8552868820955186559951858201559151600285018054918a166001600160a01b0319909216919091179055516003909301805498511515600160a01b026001600160a81b0319909916939097169290921796909617909455948152600c9093525091812090910155565b611b633383836123f9565b5050565b60606000611b7460095490565b9050600080805b83811015611bd65733600d6000611b93846001613056565b81526020810191909152604001600020600201546001600160a01b03161415611bc45781611bc0816130f5565b9250505b80611bce816130f5565b915050611b7b565b5060008167ffffffffffffffff811115611c0057634e487b7160e01b600052604160045260246000fd5b604051908082528060200260200182016040528015611c5957816020015b6040805160a081018252600080825260208083018290529282018190526060820181905260808201528252600019909201910181611c1e5790505b50905060005b848110156112705733600d6000611c77846001613056565b81526020810191909152604001600020600201546001600160a01b03161415611d4b576000600d81611caa846001613056565b81526020808201929092526040908101600020815160a0810183528154815260018201549381019390935260028101546001600160a01b039081169284019290925260038101549182166060840152600160a01b90910460ff16151560808301528451909250849087908110611d3057634e487b7160e01b600052603260045260246000fd5b60200260200101819052508480611d46906130f5565b955050505b80611d55816130f5565b915050611c5f565b611d67338361228f565b611d835760405162461bcd60e51b81526004016109ed90612f72565b611d8f848484846124c8565b50505050565b6060611da082611ef6565b60008281526006602052604081208054611db9906130ba565b80601f0160208091040260200160405190810160405280929190818152602001828054611de5906130ba565b8015611e325780601f10611e0757610100808354040283529160200191611e32565b820191906000526020600020905b815481529060010190602001808311611e1557829003601f168201915b505050505090506000611e5060408051602081019091526000815290565b9050805160001415611e63575092915050565b815115611e95578082604051602001611e7d929190612d7b565b60405160208183030381529060405292505050919050565b611e9e846124fb565b949350505050565b60006001600160e01b031982166380ac58cd60e01b1480611ed757506001600160e01b03198216635b5e139f60e01b145b806108b957506301ffc9a760e01b6001600160e01b03198316146108b9565b6000818152600260205260409020546001600160a01b0316610c0b5760405162461bcd60e51b8152602060048201526018602482015277115490cdcc8c4e881a5b9d985b1a59081d1bdad95b88125160421b60448201526064016109ed565b600081815260046020526040902080546001600160a01b0319166001600160a01b0384169081179091558190611f8a826115ec565b6001600160a01b03167f8c5be1e5ebec7d5bd14f71427d1e84f3dd0314c0f7b2291e5b200ac8c7c3b92560405160405180910390a45050565b600260075414156120165760405162461bcd60e51b815260206004820152601f60248201527f5265656e7472616e637947756172643a207265656e7472616e742063616c6c0060448201526064016109ed565b6002600755565b80612026575050565b6001600160a01b0382166120885760405162461bcd60e51b8152602060048201526024808201527f4572726f722c2063616e6e6f74207472616e7366657220746f206164647265736044820152637328302960e01b60648201526084016109ed565b6000826001600160a01b03168260405160006040518083038185875af1925050503d80600081146120d5576040519150601f19603f3d011682016040523d82523d6000602084013e6120da565b606091505b5050905080610a8e5760405162461bcd60e51b815260206004820152601b60248201527f4572726f722c206661696c656420746f2073656e64204574686572000000000060448201526064016109ed565b826001600160a01b031661213e826115ec565b6001600160a01b0316146121645760405162461bcd60e51b81526004016109ed90613011565b6001600160a01b0382166121c65760405162461bcd60e51b8152602060048201526024808201527f4552433732313a207472616e7366657220746f20746865207a65726f206164646044820152637265737360e01b60648201526084016109ed565b826001600160a01b03166121d9826115ec565b6001600160a01b0316146121ff5760405162461bcd60e51b81526004016109ed90613011565b600081815260046020908152604080832080546001600160a01b03199081169091556001600160a01b0387811680865260038552838620805460001901905590871680865283862080546001019055868652600290945282852080549092168417909155905184937fddf252ad1be2c89b69c2b068fc378daa952ba7f163c4a11628f55a4df523b3ef91a4505050565b60008061229b836115ec565b9050806001600160a01b0316846001600160a01b031614806122e257506001600160a01b0380821660009081526005602090815260408083209388168352929052205460ff165b80611e9e5750836001600160a01b03166122fb84610951565b6001600160a01b031614949350505050565b611b6382826040518060200160405280600081525061256f565b6000828152600260205260409020546001600160a01b03166123a25760405162461bcd60e51b815260206004820152602e60248201527f45524337323155524953746f726167653a2055524920736574206f66206e6f6e60448201526d32bc34b9ba32b73a103a37b5b2b760911b60648201526084016109ed565b600082815260066020908152604090912082516123c1928401906129bd565b506040518281527ff8e1a15aba9398e019f0b49df1a4fde98ee17ae345cb5f6b5e2c27f5033e8ce79060200160405180910390a15050565b816001600160a01b0316836001600160a01b0316141561245b5760405162461bcd60e51b815260206004820152601960248201527f4552433732313a20617070726f766520746f2063616c6c65720000000000000060448201526064016109ed565b6001600160a01b03838116600081815260056020908152604080832094871680845294825291829020805460ff191686151590811790915591519182527f17307eab39ab6107e8899845ad3d59bd9653f200f220920489ca2b5937696c31910160405180910390a3505050565b6124d384848461212b565b6124df848484846125a2565b611d8f5760405162461bcd60e51b81526004016109ed90612fbf565b606061250682611ef6565b600061251d60408051602081019091526000815290565b9050600081511161253d5760405180602001604052806000815250612568565b80612547846126af565b604051602001612558929190612d7b565b6040516020818303038152906040525b9392505050565b612579838361275a565b61258660008484846125a2565b610a8e5760405162461bcd60e51b81526004016109ed90612fbf565b60006001600160a01b0384163b156126a457604051630a85bd0160e11b81526001600160a01b0385169063150b7a02906125e6903390899088908890600401612daa565b602060405180830381600087803b15801561260057600080fd5b505af1925050508015612630575060408051601f3d908101601f1916820190925261262d91810190612c67565b60015b61268a573d80801561265e576040519150601f19603f3d011682016040523d82523d6000602084013e612663565b606091505b5080516126825760405162461bcd60e51b81526004016109ed90612fbf565b805181602001fd5b6001600160e01b031916630a85bd0160e11b149050611e9e565b506001949350505050565b606060006126bc836128e5565b600101905060008167ffffffffffffffff8111156126ea57634e487b7160e01b600052604160045260246000fd5b6040519080825280601f01601f191660200182016040528015612714576020820181803683370190505b5090508181016020015b600019016f181899199a1a9b1b9c1cb0b131b232b360811b600a86061a8153600a850494508461274d57612752565b61271e565b509392505050565b6001600160a01b0382166127b05760405162461bcd60e51b815260206004820181905260248201527f4552433732313a206d696e7420746f20746865207a65726f206164647265737360448201526064016109ed565b6000818152600260205260409020546001600160a01b0316156128155760405162461bcd60e51b815260206004820152601c60248201527f4552433732313a20746f6b656e20616c7265616479206d696e7465640000000060448201526064016109ed565b6000818152600260205260409020546001600160a01b03161561287a5760405162461bcd60e51b815260206004820152601c60248201527f4552433732313a20746f6b656e20616c7265616479206d696e7465640000000060448201526064016109ed565b6001600160a01b038216600081815260036020908152604080832080546001019055848352600290915280822080546001600160a01b0319168417905551839291907fddf252ad1be2c89b69c2b068fc378daa952ba7f163c4a11628f55a4df523b3ef908290a45050565b60008072184f03e93ff9f4daa797ed6e38ed64bf6a1f0160401b83106129245772184f03e93ff9f4daa797ed6e38ed64bf6a1f0160401b830492506040015b6d04ee2d6d415b85acef81000000008310612950576d04ee2d6d415b85acef8100000000830492506020015b662386f26fc10000831061296e57662386f26fc10000830492506010015b6305f5e1008310612986576305f5e100830492506008015b612710831061299a57612710830492506004015b606483106129ac576064830492506002015b600a83106108b95760010192915050565b8280546129c9906130ba565b90600052602060002090601f0160209004810192826129eb5760008555612a31565b82601f10612a0457805160ff1916838001178555612a31565b82800160010185558215612a31579182015b82811115612a31578251825591602001919060010190612a16565b50612a3d929150612a41565b5090565b5b80821115612a3d5760008155600101612a42565b600067ffffffffffffffff80841115612a7157612a71613126565b604051601f8501601f19908116603f01168101908282118183101715612a9957612a99613126565b81604052809350858152868686011115612ab257600080fd5b858560208301376000602087830101525050509392505050565b80356001600160a01b0381168114612ae357600080fd5b919050565b600060208284031215612af9578081fd5b61256882612acc565b60008060408385031215612b14578081fd5b612b1d83612acc565b9150612b2b60208401612acc565b90509250929050565b600080600060608486031215612b48578081fd5b612b5184612acc565b9250612b5f60208501612acc565b9150604084013590509250925092565b60008060008060808587031215612b84578081fd5b612b8d85612acc565b9350612b9b60208601612acc565b925060408501359150606085013567ffffffffffffffff811115612bbd578182fd5b8501601f81018713612bcd578182fd5b612bdc87823560208401612a56565b91505092959194509250565b60008060408385031215612bfa578182fd5b612c0383612acc565b915060208301358015158114612c17578182fd5b809150509250929050565b60008060408385031215612c34578182fd5b612c3d83612acc565b946020939093013593505050565b600060208284031215612c5c578081fd5b81356125688161313c565b600060208284031215612c78578081fd5b81516125688161313c565b600060208284031215612c94578081fd5b813567ffffffffffffffff811115612caa578182fd5b8201601f81018413612cba578182fd5b611e9e84823560208401612a56565b600060208284031215612cda578081fd5b5035919050565b60008060408385031215612cf3578182fd5b82359150612b2b60208401612acc565b60008060408385031215612d15578182fd5b50508035926020909101359150565b600080600060608486031215612d38578283fd5b505081359360208301359350604090920135919050565b60008151808452612d6781602086016020860161308e565b601f01601f19169290920160200192915050565b60008351612d8d81846020880161308e565b835190830190612da181836020880161308e565b01949350505050565b6001600160a01b0385811682528416602082015260408101839052608060608201819052600090612ddd90830184612d4f565b9695505050505050565b602080825282518282018190526000919060409081850190868401855b82811015612e58578151805185528681015187860152858101516001600160a01b03908116878701526060808301519091169086015260809081015115159085015260a09093019290850190600101612e04565b5091979650505050505050565b602080825282518282018190526000919060409081850190868401855b82811015612e58578151805185528681015187860152858101516001600160a01b03168686015260608082015115159086015260809081015115159085015260a09093019290850190600101612e82565b602080825282518282018190526000919060409081850190868401855b82811015612e5857815180518552868101516001600160a01b0316878601528581015186860152606080820151908601526080808201519086015260a0808201519086015260c0808201519086015260e09081015160ff16908501526101009093019290850190600101612ef0565b6020815260006125686020830184612d4f565b6020808252602d908201527f4552433732313a2063616c6c6572206973206e6f7420746f6b656e206f776e6560408201526c1c881bdc88185c1c1c9bdd9959609a1b606082015260800190565b60208082526032908201527f4552433732313a207472616e7366657220746f206e6f6e20455243373231526560408201527131b2b4bb32b91034b6b83632b6b2b73a32b960711b606082015260800190565b60208082526025908201527f4552433732313a207472616e736665722066726f6d20696e636f72726563742060408201526437bbb732b960d91b606082015260800190565b6000821982111561306957613069613110565b500190565b60008261308957634e487b7160e01b81526012600452602481fd5b500490565b60005b838110156130a9578181015183820152602001613091565b83811115611d8f5750506000910152565b600181811c908216806130ce57607f821691505b602082108114156130ef57634e487b7160e01b600052602260045260246000fd5b50919050565b600060001982141561310957613109613110565b5060010190565b634e487b7160e01b600052601160045260246000fd5b634e487b7160e01b600052604160045260246000fd5b6001600160e01b031981168114610c0b57600080fdfea2646970667358221220091f71c42af68052ee0b43703e2ecabca1b1923fee621f8ee1501acd355181ef64736f6c63430008040033",
  "linkReferences": {},
  "deployedLinkReferences": {}
}