{
  "_format": "hh-sol-artifact-1",
  "contractName": "PolygonNFTMarketplace",
  "sourceName": "contracts/PolygonNFTMarketplace.sol",
  "abi": [
    {
      "inputs": [],
      "stateMutability": "nonpayable",
      "type": "constructor"
    },
    {
      "anonymous": false,
      "inputs": [
        {
          "indexed": true,
          "internalType": "address",
          "name": "owner",
          "type": "address"
        },
        {
          "indexed": true,
          "internalType": "address",
          "name": "approved",
          "type": "address"
        },
        {
          "indexed": true,
          "internalType": "uint256",
          "name": "tokenId",
          "type": "uint256"
        }
      ],
      "name": "Approval",
      "type": "event"
    },
    {
      "anonymous": false,
      "inputs": [
        {
          "indexed": true,
          "internalType": "address",
          "name": "owner",
          "type": "address"
        },
        {
          "indexed": true,
          "internalType": "address",
          "name": "operator",
          "type": "address"
        },
        {
          "indexed": false,
          "internalType": "bool",
          "name": "approved",
          "type": "bool"
        }
      ],
      "name": "ApprovalForAll",
      "type": "event"
    },
    {
      "anonymous": false,
      "inputs": [
        {
          "indexed": false,
          "internalType": "uint256",
          "name": "_fromTokenId",
          "type": "uint256"
        },
        {
          "indexed": false,
          "internalType": "uint256",
          "name": "_toTokenId",
          "type": "uint256"
        }
      ],
      "name": "BatchMetadataUpdate",
      "type": "event"
    },
    {
      "anonymous": false,
      "inputs": [
        {
          "indexed": false,
          "internalType": "uint256",
          "name": "_tokenId",
          "type": "uint256"
        }
      ],
      "name": "MetadataUpdate",
      "type": "event"
    },
    {
      "anonymous": false,
      "inputs": [
        {
          "indexed": true,
          "internalType": "address",
          "name": "from",
          "type": "address"
        },
        {
          "indexed": true,
          "internalType": "address",
          "name": "to",
          "type": "address"
        },
        {
          "indexed": true,
          "internalType": "uint256",
          "name": "tokenId",
          "type": "uint256"
        }
      ],
      "name": "Transfer",
      "type": "event"
    },
    {
      "inputs": [
        {
          "internalType": "string",
          "name": "tokenURI",
          "type": "string"
        }
      ],
      "name": "CreateToken",
      "outputs": [
        {
          "internalType": "uint256",
          "name": "",
          "type": "uint256"
        }
      ],
      "stateMutability": "payable",
      "type": "function"
    },
    {
      "inputs": [
        {
          "internalType": "uint256",
          "name": "price",
          "type": "uint256"
        },
        {
          "internalType": "uint256",
          "name": "id",
          "type": "uint256"
        }
      ],
      "name": "ListNFT",
      "outputs": [],
      "stateMutability": "nonpayable",
      "type": "function"
    },
    {
      "inputs": [],
      "name": "SoldCount",
      "outputs": [
        {
          "internalType": "uint256",
          "name": "_value",
          "type": "uint256"
        }
      ],
      "stateMutability": "view",
      "type": "function"
    },
    {
      "inputs": [],
      "name": "TokenCount",
      "outputs": [
        {
          "internalType": "uint256",
          "name": "_value",
          "type": "uint256"
        }
      ],
      "stateMutability": "view",
      "type": "function"
    },
    {
      "inputs": [
        {
          "internalType": "address",
          "name": "to",
          "type": "address"
        },
        {
          "internalType": "uint256",
          "name": "tokenId",
          "type": "uint256"
        }
      ],
      "name": "approve",
      "outputs": [],
      "stateMutability": "nonpayable",
      "type": "function"
    },
    {
      "inputs": [
        {
          "internalType": "address",
          "name": "owner",
          "type": "address"
        }
      ],
      "name": "balanceOf",
      "outputs": [
        {
          "internalType": "uint256",
          "name": "",
          "type": "uint256"
        }
      ],
      "stateMutability": "view",
      "type": "function"
    },
    {
      "inputs": [
        {
          "internalType": "uint256",
          "name": "tokenId",
          "type": "uint256"
        }
      ],
      "name": "executeSale",
      "outputs": [],
      "stateMutability": "payable",
      "type": "function"
    },
    {
      "inputs": [],
      "name": "getAllNfts",
      "outputs": [
        {
          "components": [
            {
              "internalType": "uint256",
              "name": "tokenId",
              "type": "uint256"
            },
            {
              "internalType": "uint256",
              "name": "price",
              "type": "uint256"
            },
            {
              "internalType": "address payable",
              "name": "owner",
              "type": "address"
            },
            {
              "internalType": "bool",
              "name": "NFTsold",
              "type": "bool"
            }
          ],
          "internalType": "struct PolygonNFTMarketplace.ListedToken[]",
          "name": "",
          "type": "tuple[]"
        }
      ],
      "stateMutability": "view",
      "type": "function"
    },
    {
      "inputs": [
        {
          "internalType": "uint256",
          "name": "tokenId",
          "type": "uint256"
        }
      ],
      "name": "getApproved",
      "outputs": [
        {
          "internalType": "address",
          "name": "",
          "type": "address"
        }
      ],
      "stateMutability": "view",
      "type": "function"
    },
    {
      "inputs": [],
      "name": "getMyNFTs",
      "outputs": [
        {
          "components": [
            {
              "internalType": "uint256",
              "name": "tokenId",
              "type": "uint256"
            },
            {
              "internalType": "uint256",
              "name": "price",
              "type": "uint256"
            },
            {
              "internalType": "address payable",
              "name": "owner",
              "type": "address"
            },
            {
              "internalType": "bool",
              "name": "NFTsold",
              "type": "bool"
            }
          ],
          "internalType": "struct PolygonNFTMarketplace.ListedToken[]",
          "name": "",
          "type": "tuple[]"
        }
      ],
      "stateMutability": "view",
      "type": "function"
    },
    {
      "inputs": [],
      "name": "getMySoldNFTs",
      "outputs": [
        {
          "components": [
            {
              "internalType": "uint256",
              "name": "tokenId",
              "type": "uint256"
            },
            {
              "internalType": "uint256",
              "name": "price",
              "type": "uint256"
            },
            {
              "internalType": "address payable",
              "name": "owner",
              "type": "address"
            },
            {
              "internalType": "address",
              "name": "newOwner",
              "type": "address"
            },
            {
              "internalType": "bool",
              "name": "NFTsold",
              "type": "bool"
            }
          ],
          "internalType": "struct PolygonNFTMarketplace.ItemsSold[]",
          "name": "",
          "type": "tuple[]"
        }
      ],
      "stateMutability": "view",
      "type": "function"
    },
    {
      "inputs": [
        {
          "internalType": "uint256",
          "name": "",
          "type": "uint256"
        }
      ],
      "name": "idToListedToken",
      "outputs": [
        {
          "internalType": "uint256",
          "name": "tokenId",
          "type": "uint256"
        },
        {
          "internalType": "uint256",
          "name": "price",
          "type": "uint256"
        },
        {
          "internalType": "address payable",
          "name": "owner",
          "type": "address"
        },
        {
          "internalType": "bool",
          "name": "NFTsold",
          "type": "bool"
        }
      ],
      "stateMutability": "view",
      "type": "function"
    },
    {
      "inputs": [
        {
          "internalType": "uint256",
          "name": "",
          "type": "uint256"
        }
      ],
      "name": "idToSoldItems",
      "outputs": [
        {
          "internalType": "uint256",
          "name": "tokenId",
          "type": "uint256"
        },
        {
          "internalType": "uint256",
          "name": "price",
          "type": "uint256"
        },
        {
          "internalType": "address payable",
          "name": "owner",
          "type": "address"
        },
        {
          "internalType": "address",
          "name": "newOwner",
          "type": "address"
        },
        {
          "internalType": "bool",
          "name": "NFTsold",
          "type": "bool"
        }
      ],
      "stateMutability": "view",
      "type": "function"
    },
    {
      "inputs": [
        {
          "internalType": "address",
          "name": "owner",
          "type": "address"
        },
        {
          "internalType": "address",
          "name": "operator",
          "type": "address"
        }
      ],
      "name": "isApprovedForAll",
      "outputs": [
        {
          "internalType": "bool",
          "name": "",
          "type": "bool"
        }
      ],
      "stateMutability": "view",
      "type": "function"
    },
    {
      "inputs": [],
      "name": "name",
      "outputs": [
        {
          "internalType": "string",
          "name": "",
          "type": "string"
        }
      ],
      "stateMutability": "view",
      "type": "function"
    },
    {
      "inputs": [
        {
          "internalType": "uint256",
          "name": "tokenId",
          "type": "uint256"
        }
      ],
      "name": "ownerOf",
      "outputs": [
        {
          "internalType": "address",
          "name": "",
          "type": "address"
        }
      ],
      "stateMutability": "view",
      "type": "function"
    },
    {
      "inputs": [
        {
          "internalType": "address",
          "name": "from",
          "type": "address"
        },
        {
          "internalType": "address",
          "name": "to",
          "type": "address"
        },
        {
          "internalType": "uint256",
          "name": "tokenId",
          "type": "uint256"
        }
      ],
      "name": "safeTransferFrom",
      "outputs": [],
      "stateMutability": "nonpayable",
      "type": "function"
    },
    {
      "inputs": [
        {
          "internalType": "address",
          "name": "from",
          "type": "address"
        },
        {
          "internalType": "address",
          "name": "to",
          "type": "address"
        },
        {
          "internalType": "uint256",
          "name": "tokenId",
          "type": "uint256"
        },
        {
          "internalType": "bytes",
          "name": "data",
          "type": "bytes"
        }
      ],
      "name": "safeTransferFrom",
      "outputs": [],
      "stateMutability": "nonpayable",
      "type": "function"
    },
    {
      "inputs": [
        {
          "internalType": "address",
          "name": "operator",
          "type": "address"
        },
        {
          "internalType": "bool",
          "name": "approved",
          "type": "bool"
        }
      ],
      "name": "setApprovalForAll",
      "outputs": [],
      "stateMutability": "nonpayable",
      "type": "function"
    },
    {
      "inputs": [
        {
          "internalType": "bytes4",
          "name": "interfaceId",
          "type": "bytes4"
        }
      ],
      "name": "supportsInterface",
      "outputs": [
        {
          "internalType": "bool",
          "name": "",
          "type": "bool"
        }
      ],
      "stateMutability": "view",
      "type": "function"
    },
    {
      "inputs": [],
      "name": "symbol",
      "outputs": [
        {
          "internalType": "string",
          "name": "",
          "type": "string"
        }
      ],
      "stateMutability": "view",
      "type": "function"
    },
    {
      "inputs": [
        {
          "internalType": "uint256",
          "name": "tokenId",
          "type": "uint256"
        }
      ],
      "name": "tokenURI",
      "outputs": [
        {
          "internalType": "string",
          "name": "",
          "type": "string"
        }
      ],
      "stateMutability": "view",
      "type": "function"
    },
    {
      "inputs": [
        {
          "internalType": "address",
          "name": "from",
          "type": "address"
        },
        {
          "internalType": "address",
          "name": "to",
          "type": "address"
        },
        {
          "internalType": "uint256",
          "name": "tokenId",
          "type": "uint256"
        }
      ],
      "name": "transferFrom",
      "outputs": [],
      "stateMutability": "nonpayable",
      "type": "function"
    }
  ],
  "bytecode": "0x60806040523480156200001157600080fd5b50604080518082018252601581527f506f6c79676f6e4e46544d61726b6574706c61636500000000000000000000006020808301918252835180850190945260048452634441524b60e01b908401528151919291620000739160009162000092565b5080516200008990600190602084019062000092565b50505062000175565b828054620000a09062000138565b90600052602060002090601f016020900481019282620000c457600085556200010f565b82601f10620000df57805160ff19168380011785556200010f565b828001600101855582156200010f579182015b828111156200010f578251825591602001919060010190620000f2565b506200011d92915062000121565b5090565b5b808211156200011d576000815560010162000122565b600181811c908216806200014d57607f821691505b602082108114156200016f57634e487b7160e01b600052602260045260246000fd5b50919050565b61230a80620001856000396000f3fe6080604052600436106101405760003560e01c806370a08231116100b6578063b27dce811161006f578063b27dce81146103ed578063b88d4fde1461040f578063c87b56dd1461042f578063e57a497a1461044f578063e985e9c5146104d1578063edf2ebcc1461051a57600080fd5b806370a0823114610341578063732e8d731461036157806395d89b41146103765780639b1225c41461038b578063a22cb4651461039e578063adc2524c146103be57600080fd5b80633302410011610108578063330241001461021657806336ad658f146102a757806342842e0e146102cc578063629cb2e4146102ec5780636352211e1461030e57806366b126e61461032e57600080fd5b806301ffc9a71461014557806306fdde031461017a578063081812fc1461019c578063095ea7b3146101d457806323b872dd146101f6575b600080fd5b34801561015157600080fd5b50610165610160366004611ed2565b610531565b60405190151581526020015b60405180910390f35b34801561018657600080fd5b5061018f61055c565b6040516101719190612101565b3480156101a857600080fd5b506101bc6101b7366004611f50565b6105ee565b6040516001600160a01b039091168152602001610171565b3480156101e057600080fd5b506101f46101ef366004611ea9565b610615565b005b34801561020257600080fd5b506101f4610211366004611dbb565b610730565b34801561022257600080fd5b50610271610231366004611f50565b600a602052600090815260409020805460018201546002830154600390930154919290916001600160a01b0391821691811690600160a01b900460ff1685565b6040805195865260208601949094526001600160a01b03928316938501939093521660608301521515608082015260a001610171565b3480156102b357600080fd5b506007546102be9081565b604051908152602001610171565b3480156102d857600080fd5b506101f46102e7366004611dbb565b610761565b3480156102f857600080fd5b5061030161077c565b604051610171919061209f565b34801561031a57600080fd5b506101bc610329366004611f50565b610966565b6102be61033c366004611f0a565b6109c6565b34801561034d57600080fd5b506102be61035c366004611d6f565b610a6c565b34801561036d57600080fd5b50610301610af2565b34801561038257600080fd5b5061018f610cb9565b6101f4610399366004611f50565b610cc8565b3480156103aa57600080fd5b506101f46103b9366004611e6f565b610f32565b3480156103ca57600080fd5b506101f46103d9366004611f68565b600090815260096020526040902060010155565b3480156103f957600080fd5b50610402610f41565b6040516101719190612021565b34801561041b57600080fd5b506101f461042a366004611df6565b611137565b34801561043b57600080fd5b5061018f61044a366004611f50565b61116f565b34801561045b57600080fd5b506104a061046a366004611f50565b6009602052600090815260409020805460018201546002909201549091906001600160a01b03811690600160a01b900460ff1684565b604051610171949392919093845260208401929092526001600160a01b031660408301521515606082015260800190565b3480156104dd57600080fd5b506101656104ec366004611d89565b6001600160a01b03918216600090815260056020908152604080832093909416825291909152205460ff1690565b34801561052657600080fd5b506008546102be9081565b60006001600160e01b03198216632483248360e11b1480610556575061055682611280565b92915050565b60606000805461056b9061223c565b80601f01602080910402602001604051908101604052809291908181526020018280546105979061223c565b80156105e45780601f106105b9576101008083540402835291602001916105e4565b820191906000526020600020905b8154815290600101906020018083116105c757829003601f168201915b5050505050905090565b60006105f9826112d0565b506000908152600460205260409020546001600160a01b031690565b600061062082610966565b9050806001600160a01b0316836001600160a01b031614156106935760405162461bcd60e51b815260206004820152602160248201527f4552433732313a20617070726f76616c20746f2063757272656e74206f776e656044820152603960f91b60648201526084015b60405180910390fd5b336001600160a01b03821614806106af57506106af81336104ec565b6107215760405162461bcd60e51b815260206004820152603d60248201527f4552433732313a20617070726f76652063616c6c6572206973206e6f7420746f60448201527f6b656e206f776e6572206f7220617070726f76656420666f7220616c6c000000606482015260840161068a565b61072b8383611332565b505050565b61073a33826113a0565b6107565760405162461bcd60e51b815260040161068a90612114565b61072b83838361141e565b61072b83838360405180602001604052806000815250611137565b6060600061078960075490565b9050600080805b838110156107eb5733600960006107a88460016121f8565b81526020810191909152604001600020600201546001600160a01b031614156107d957816107d581612277565b9250505b806107e381612277565b915050610790565b5060008167ffffffffffffffff81111561081557634e487b7160e01b600052604160045260246000fd5b60405190808252806020026020018201604052801561086757816020015b6040805160808101825260008082526020808301829052928201819052606082015282526000199092019101816108335790505b50905060005b8481101561095d5733600960006108858460016121f8565b81526020810191909152604001600020600201546001600160a01b0316141561094b5760006009816108b88460016121f8565b8152602080820192909252604090810160002081516080810183528154815260018201549381019390935260028101546001600160a01b03811692840192909252600160a01b90910460ff1615156060830152845190925084908790811061093057634e487b7160e01b600052603260045260246000fd5b6020026020010181905250848061094690612277565b955050505b8061095581612277565b91505061086d565b50949350505050565b6000818152600260205260408120546001600160a01b0316806105565760405162461bcd60e51b8152602060048201526018602482015277115490cdcc8c4e881a5b9d985b1a59081d1bdad95b88125160421b604482015260640161068a565b60006109d6600780546001019055565b60006109e160075490565b90506109ed3382611582565b6109f7818461159c565b60408051608081018252828152600060208083018281523384860190815260608501848152878552600990935294909220925183559051600183015591516002909101805492511515600160a01b026001600160a81b03199093166001600160a01b0390921691909117919091179055610556565b60006001600160a01b038216610ad65760405162461bcd60e51b815260206004820152602960248201527f4552433732313a2061646472657373207a65726f206973206e6f7420612076616044820152683634b21037bbb732b960b91b606482015260840161068a565b506001600160a01b031660009081526003602052604090205490565b60606000610aff60075490565b905060008060005b83811015610b575760096000610b1e8360016121f8565b815260200190815260200160002060010154600014610b4557610b426001846121f8565b92505b610b506001826121f8565b9050610b07565b5060008267ffffffffffffffff811115610b8157634e487b7160e01b600052604160045260246000fd5b604051908082528060200260200182016040528015610bd357816020015b604080516080810182526000808252602080830182905292820181905260608201528252600019909201910181610b9f5790505b50905060005b8481101561095d576000600981610bf18460016121f8565b8152602001908152602001600020905060096000836001610c1291906121f8565b815260200190815260200160002060010154600014610ca65760408051608081018252825481526001830154602082015260028301546001600160a01b03811692820192909252600160a01b90910460ff16151560608201528351849086908110610c8d57634e487b7160e01b600052603260045260246000fd5b6020908102919091010152610ca36001856121f8565b93505b50610cb26001826121f8565b9050610bd9565b60606001805461056b9061223c565b600081815260096020526040902060018101546002909101546001600160a01b0316331415610d395760405162461bcd60e51b815260206004820152601a60248201527f796f752063616e27742062757920796f7572206f776e206e6674000000000000604482015260640161068a565b803414610d7e5760405162461bcd60e51b8152602060048201526013602482015272707269636520646f6573206e6f742073616d6560681b604482015260640161068a565b600082815260096020526040902060010154610d993361166e565b11610de65760405162461bcd60e51b815260206004820152601b60248201527f4e6f7420656e6f75676820657468657220746f20627579206e66740000000000604482015260640161068a565b6000828152600960205260409020600201546001600160a01b0316610e0c81338561141e565b610e168184610615565b600083815260096020526040808220600201805460ff60a01b1933166001600160a81b031990911617600160a01b179055516001600160a01b038316913480156108fc02929091818181858888f19350505050158015610e7a573d6000803e3d6000fd5b50610e89600880546001019055565b6000610e9460085490565b6040805160a08101825295865260208087019586526001600160a01b039485168783019081523360608901908152600160808a018181526000968752600a909452939094209751885595519187019190915593516002860180549185166001600160a01b0319909216919091179055516003909401805493511515600160a01b026001600160a81b0319909416949092169390931791909117905550565b610f3d338383611681565b5050565b60606000610f4e60085490565b9050600080805b83811015610fb05733600a6000610f6d8460016121f8565b81526020810191909152604001600020600201546001600160a01b03161415610f9e5781610f9a81612277565b9250505b80610fa881612277565b915050610f55565b5060008167ffffffffffffffff811115610fda57634e487b7160e01b600052604160045260246000fd5b60405190808252806020026020018201604052801561103357816020015b6040805160a081018252600080825260208083018290529282018190526060820181905260808201528252600019909201910181610ff85790505b50905060005b8481101561095d5733600a60006110518460016121f8565b81526020810191909152604001600020600201546001600160a01b03161415611125576000600a816110848460016121f8565b81526020808201929092526040908101600020815160a0810183528154815260018201549381019390935260028101546001600160a01b039081169284019290925260038101549182166060840152600160a01b90910460ff1615156080830152845190925084908790811061110a57634e487b7160e01b600052603260045260246000fd5b6020026020010181905250848061112090612277565b955050505b8061112f81612277565b915050611039565b61114133836113a0565b61115d5760405162461bcd60e51b815260040161068a90612114565b61116984848484611750565b50505050565b606061117a826112d0565b600082815260066020526040812080546111939061223c565b80601f01602080910402602001604051908101604052809291908181526020018280546111bf9061223c565b801561120c5780601f106111e15761010080835404028352916020019161120c565b820191906000526020600020905b8154815290600101906020018083116111ef57829003601f168201915b50505050509050600061122a60408051602081019091526000815290565b905080516000141561123d575092915050565b81511561126f578082604051602001611257929190611fb5565b60405160208183030381529060405292505050919050565b61127884611783565b949350505050565b60006001600160e01b031982166380ac58cd60e01b14806112b157506001600160e01b03198216635b5e139f60e01b145b8061055657506301ffc9a760e01b6001600160e01b0319831614610556565b6000818152600260205260409020546001600160a01b031661132f5760405162461bcd60e51b8152602060048201526018602482015277115490cdcc8c4e881a5b9d985b1a59081d1bdad95b88125160421b604482015260640161068a565b50565b600081815260046020526040902080546001600160a01b0319166001600160a01b038416908117909155819061136782610966565b6001600160a01b03167f8c5be1e5ebec7d5bd14f71427d1e84f3dd0314c0f7b2291e5b200ac8c7c3b92560405160405180910390a45050565b6000806113ac83610966565b9050806001600160a01b0316846001600160a01b031614806113f357506001600160a01b0380821660009081526005602090815260408083209388168352929052205460ff165b806112785750836001600160a01b031661140c846105ee565b6001600160a01b031614949350505050565b826001600160a01b031661143182610966565b6001600160a01b0316146114575760405162461bcd60e51b815260040161068a906121b3565b6001600160a01b0382166114b95760405162461bcd60e51b8152602060048201526024808201527f4552433732313a207472616e7366657220746f20746865207a65726f206164646044820152637265737360e01b606482015260840161068a565b826001600160a01b03166114cc82610966565b6001600160a01b0316146114f25760405162461bcd60e51b815260040161068a906121b3565b600081815260046020908152604080832080546001600160a01b03199081169091556001600160a01b0387811680865260038552838620805460001901905590871680865283862080546001019055868652600290945282852080549092168417909155905184937fddf252ad1be2c89b69c2b068fc378daa952ba7f163c4a11628f55a4df523b3ef91a4505050565b610f3d8282604051806020016040528060008152506117f6565b6000828152600260205260409020546001600160a01b03166116175760405162461bcd60e51b815260206004820152602e60248201527f45524337323155524953746f726167653a2055524920736574206f66206e6f6e60448201526d32bc34b9ba32b73a103a37b5b2b760911b606482015260840161068a565b6000828152600660209081526040909120825161163692840190611c44565b506040518281527ff8e1a15aba9398e019f0b49df1a4fde98ee17ae345cb5f6b5e2c27f5033e8ce79060200160405180910390a15050565b60008061167a83610a6c565b9392505050565b816001600160a01b0316836001600160a01b031614156116e35760405162461bcd60e51b815260206004820152601960248201527f4552433732313a20617070726f766520746f2063616c6c657200000000000000604482015260640161068a565b6001600160a01b03838116600081815260056020908152604080832094871680845294825291829020805460ff191686151590811790915591519182527f17307eab39ab6107e8899845ad3d59bd9653f200f220920489ca2b5937696c31910160405180910390a3505050565b61175b84848461141e565b61176784848484611829565b6111695760405162461bcd60e51b815260040161068a90612161565b606061178e826112d0565b60006117a560408051602081019091526000815290565b905060008151116117c5576040518060200160405280600081525061167a565b806117cf84611936565b6040516020016117e0929190611fb5565b6040516020818303038152906040529392505050565b61180083836119e1565b61180d6000848484611829565b61072b5760405162461bcd60e51b815260040161068a90612161565b60006001600160a01b0384163b1561192b57604051630a85bd0160e11b81526001600160a01b0385169063150b7a029061186d903390899088908890600401611fe4565b602060405180830381600087803b15801561188757600080fd5b505af19250505080156118b7575060408051601f3d908101601f191682019092526118b491810190611eee565b60015b611911573d8080156118e5576040519150601f19603f3d011682016040523d82523d6000602084013e6118ea565b606091505b5080516119095760405162461bcd60e51b815260040161068a90612161565b805181602001fd5b6001600160e01b031916630a85bd0160e11b149050611278565b506001949350505050565b6060600061194383611b6c565b600101905060008167ffffffffffffffff81111561197157634e487b7160e01b600052604160045260246000fd5b6040519080825280601f01601f19166020018201604052801561199b576020820181803683370190505b5090508181016020015b600019016f181899199a1a9b1b9c1cb0b131b232b360811b600a86061a8153600a85049450846119d4576119d9565b6119a5565b509392505050565b6001600160a01b038216611a375760405162461bcd60e51b815260206004820181905260248201527f4552433732313a206d696e7420746f20746865207a65726f2061646472657373604482015260640161068a565b6000818152600260205260409020546001600160a01b031615611a9c5760405162461bcd60e51b815260206004820152601c60248201527f4552433732313a20746f6b656e20616c7265616479206d696e74656400000000604482015260640161068a565b6000818152600260205260409020546001600160a01b031615611b015760405162461bcd60e51b815260206004820152601c60248201527f4552433732313a20746f6b656e20616c7265616479206d696e74656400000000604482015260640161068a565b6001600160a01b038216600081815260036020908152604080832080546001019055848352600290915280822080546001600160a01b0319168417905551839291907fddf252ad1be2c89b69c2b068fc378daa952ba7f163c4a11628f55a4df523b3ef908290a45050565b60008072184f03e93ff9f4daa797ed6e38ed64bf6a1f0160401b8310611bab5772184f03e93ff9f4daa797ed6e38ed64bf6a1f0160401b830492506040015b6d04ee2d6d415b85acef81000000008310611bd7576d04ee2d6d415b85acef8100000000830492506020015b662386f26fc100008310611bf557662386f26fc10000830492506010015b6305f5e1008310611c0d576305f5e100830492506008015b6127108310611c2157612710830492506004015b60648310611c33576064830492506002015b600a83106105565760010192915050565b828054611c509061223c565b90600052602060002090601f016020900481019282611c725760008555611cb8565b82601f10611c8b57805160ff1916838001178555611cb8565b82800160010185558215611cb8579182015b82811115611cb8578251825591602001919060010190611c9d565b50611cc4929150611cc8565b5090565b5b80821115611cc45760008155600101611cc9565b600067ffffffffffffffff80841115611cf857611cf86122a8565b604051601f8501601f19908116603f01168101908282118183101715611d2057611d206122a8565b81604052809350858152868686011115611d3957600080fd5b858560208301376000602087830101525050509392505050565b80356001600160a01b0381168114611d6a57600080fd5b919050565b600060208284031215611d80578081fd5b61167a82611d53565b60008060408385031215611d9b578081fd5b611da483611d53565b9150611db260208401611d53565b90509250929050565b600080600060608486031215611dcf578081fd5b611dd884611d53565b9250611de660208501611d53565b9150604084013590509250925092565b60008060008060808587031215611e0b578081fd5b611e1485611d53565b9350611e2260208601611d53565b925060408501359150606085013567ffffffffffffffff811115611e44578182fd5b8501601f81018713611e54578182fd5b611e6387823560208401611cdd565b91505092959194509250565b60008060408385031215611e81578182fd5b611e8a83611d53565b915060208301358015158114611e9e578182fd5b809150509250929050565b60008060408385031215611ebb578182fd5b611ec483611d53565b946020939093013593505050565b600060208284031215611ee3578081fd5b813561167a816122be565b600060208284031215611eff578081fd5b815161167a816122be565b600060208284031215611f1b578081fd5b813567ffffffffffffffff811115611f31578182fd5b8201601f81018413611f41578182fd5b61127884823560208401611cdd565b600060208284031215611f61578081fd5b5035919050565b60008060408385031215611f7a578182fd5b50508035926020909101359150565b60008151808452611fa1816020860160208601612210565b601f01601f19169290920160200192915050565b60008351611fc7818460208801612210565b835190830190611fdb818360208801612210565b01949350505050565b6001600160a01b038581168252841660208201526040810183905260806060820181905260009061201790830184611f89565b9695505050505050565b602080825282518282018190526000919060409081850190868401855b82811015612092578151805185528681015187860152858101516001600160a01b03908116878701526060808301519091169086015260809081015115159085015260a0909301929085019060010161203e565b5091979650505050505050565b602080825282518282018190526000919060409081850190868401855b82811015612092578151805185528681015187860152858101516001600160a01b031686860152606090810151151590850152608090930192908501906001016120bc565b60208152600061167a6020830184611f89565b6020808252602d908201527f4552433732313a2063616c6c6572206973206e6f7420746f6b656e206f776e6560408201526c1c881bdc88185c1c1c9bdd9959609a1b606082015260800190565b60208082526032908201527f4552433732313a207472616e7366657220746f206e6f6e20455243373231526560408201527131b2b4bb32b91034b6b83632b6b2b73a32b960711b606082015260800190565b60208082526025908201527f4552433732313a207472616e736665722066726f6d20696e636f72726563742060408201526437bbb732b960d91b606082015260800190565b6000821982111561220b5761220b612292565b500190565b60005b8381101561222b578181015183820152602001612213565b838111156111695750506000910152565b600181811c9082168061225057607f821691505b6020821081141561227157634e487b7160e01b600052602260045260246000fd5b50919050565b600060001982141561228b5761228b612292565b5060010190565b634e487b7160e01b600052601160045260246000fd5b634e487b7160e01b600052604160045260246000fd5b6001600160e01b03198116811461132f57600080fdfea26469706673582212208e3bf49d0628c216e598a50b4ef57824432ee6c4bc16b47f8d290cee0e85486e64736f6c63430008040033",
  "linkReferences": {},
  "deployedLinkReferences": {}
}