{
  "_format": "hh-sol-artifact-1",
  "contractName": "PolygonNFTMarketplace",
  "sourceName": "contracts/PolygonNFTMarketplace.sol",
  "abi": [
    {
      "inputs": [],
      "stateMutability": "nonpayable",
      "type": "constructor"
    },
    {
      "anonymous": false,
      "inputs": [
        {
          "indexed": true,
          "internalType": "address",
          "name": "owner",
          "type": "address"
        },
        {
          "indexed": true,
          "internalType": "address",
          "name": "approved",
          "type": "address"
        },
        {
          "indexed": true,
          "internalType": "uint256",
          "name": "tokenId",
          "type": "uint256"
        }
      ],
      "name": "Approval",
      "type": "event"
    },
    {
      "anonymous": false,
      "inputs": [
        {
          "indexed": true,
          "internalType": "address",
          "name": "owner",
          "type": "address"
        },
        {
          "indexed": true,
          "internalType": "address",
          "name": "operator",
          "type": "address"
        },
        {
          "indexed": false,
          "internalType": "bool",
          "name": "approved",
          "type": "bool"
        }
      ],
      "name": "ApprovalForAll",
      "type": "event"
    },
    {
      "anonymous": false,
      "inputs": [
        {
          "indexed": false,
          "internalType": "uint256",
          "name": "_fromTokenId",
          "type": "uint256"
        },
        {
          "indexed": false,
          "internalType": "uint256",
          "name": "_toTokenId",
          "type": "uint256"
        }
      ],
      "name": "BatchMetadataUpdate",
      "type": "event"
    },
    {
      "anonymous": false,
      "inputs": [
        {
          "indexed": false,
          "internalType": "uint256",
          "name": "_tokenId",
          "type": "uint256"
        }
      ],
      "name": "MetadataUpdate",
      "type": "event"
    },
    {
      "anonymous": false,
      "inputs": [
        {
          "indexed": true,
          "internalType": "address",
          "name": "from",
          "type": "address"
        },
        {
          "indexed": true,
          "internalType": "address",
          "name": "to",
          "type": "address"
        },
        {
          "indexed": true,
          "internalType": "uint256",
          "name": "tokenId",
          "type": "uint256"
        }
      ],
      "name": "Transfer",
      "type": "event"
    },
    {
      "inputs": [
        {
          "internalType": "string",
          "name": "tokenURI",
          "type": "string"
        }
      ],
      "name": "CreateToken",
      "outputs": [
        {
          "internalType": "uint256",
          "name": "",
          "type": "uint256"
        }
      ],
      "stateMutability": "payable",
      "type": "function"
    },
    {
      "inputs": [
        {
          "internalType": "uint256",
          "name": "price",
          "type": "uint256"
        },
        {
          "internalType": "uint256",
          "name": "id",
          "type": "uint256"
        }
      ],
      "name": "ListNFT",
      "outputs": [],
      "stateMutability": "nonpayable",
      "type": "function"
    },
    {
      "inputs": [],
      "name": "SoldCount",
      "outputs": [
        {
          "internalType": "uint256",
          "name": "_value",
          "type": "uint256"
        }
      ],
      "stateMutability": "view",
      "type": "function"
    },
    {
      "inputs": [],
      "name": "TokenCount",
      "outputs": [
        {
          "internalType": "uint256",
          "name": "_value",
          "type": "uint256"
        }
      ],
      "stateMutability": "view",
      "type": "function"
    },
    {
      "inputs": [
        {
          "internalType": "address",
          "name": "to",
          "type": "address"
        },
        {
          "internalType": "uint256",
          "name": "tokenId",
          "type": "uint256"
        }
      ],
      "name": "approve",
      "outputs": [],
      "stateMutability": "nonpayable",
      "type": "function"
    },
    {
      "inputs": [
        {
          "internalType": "address",
          "name": "owner",
          "type": "address"
        }
      ],
      "name": "balanceOf",
      "outputs": [
        {
          "internalType": "uint256",
          "name": "",
          "type": "uint256"
        }
      ],
      "stateMutability": "view",
      "type": "function"
    },
    {
      "inputs": [
        {
          "internalType": "uint256",
          "name": "tokenId",
          "type": "uint256"
        }
      ],
      "name": "executeSale",
      "outputs": [],
      "stateMutability": "payable",
      "type": "function"
    },
    {
      "inputs": [],
      "name": "getAllNfts",
      "outputs": [
        {
          "components": [
            {
              "internalType": "uint256",
              "name": "tokenId",
              "type": "uint256"
            },
            {
              "internalType": "uint256",
              "name": "price",
              "type": "uint256"
            },
            {
              "internalType": "address payable",
              "name": "owner",
              "type": "address"
            },
            {
              "internalType": "bool",
              "name": "NFTsold",
              "type": "bool"
            },
            {
              "internalType": "bool",
              "name": "NFTbought",
              "type": "bool"
            }
          ],
          "internalType": "struct PolygonNFTMarketplace.ListedToken[]",
          "name": "",
          "type": "tuple[]"
        }
      ],
      "stateMutability": "view",
      "type": "function"
    },
    {
      "inputs": [
        {
          "internalType": "uint256",
          "name": "tokenId",
          "type": "uint256"
        }
      ],
      "name": "getApproved",
      "outputs": [
        {
          "internalType": "address",
          "name": "",
          "type": "address"
        }
      ],
      "stateMutability": "view",
      "type": "function"
    },
    {
      "inputs": [],
      "name": "getMyNFTs",
      "outputs": [
        {
          "components": [
            {
              "internalType": "uint256",
              "name": "tokenId",
              "type": "uint256"
            },
            {
              "internalType": "uint256",
              "name": "price",
              "type": "uint256"
            },
            {
              "internalType": "address payable",
              "name": "owner",
              "type": "address"
            },
            {
              "internalType": "bool",
              "name": "NFTsold",
              "type": "bool"
            },
            {
              "internalType": "bool",
              "name": "NFTbought",
              "type": "bool"
            }
          ],
          "internalType": "struct PolygonNFTMarketplace.ListedToken[]",
          "name": "",
          "type": "tuple[]"
        }
      ],
      "stateMutability": "view",
      "type": "function"
    },
    {
      "inputs": [],
      "name": "getMySoldNFTs",
      "outputs": [
        {
          "components": [
            {
              "internalType": "uint256",
              "name": "tokenId",
              "type": "uint256"
            },
            {
              "internalType": "uint256",
              "name": "price",
              "type": "uint256"
            },
            {
              "internalType": "address payable",
              "name": "owner",
              "type": "address"
            },
            {
              "internalType": "address",
              "name": "newOwner",
              "type": "address"
            },
            {
              "internalType": "bool",
              "name": "NFTsold",
              "type": "bool"
            }
          ],
          "internalType": "struct PolygonNFTMarketplace.ItemsSold[]",
          "name": "",
          "type": "tuple[]"
        }
      ],
      "stateMutability": "view",
      "type": "function"
    },
    {
      "inputs": [
        {
          "internalType": "uint256",
          "name": "",
          "type": "uint256"
        }
      ],
      "name": "idToListedToken",
      "outputs": [
        {
          "internalType": "uint256",
          "name": "tokenId",
          "type": "uint256"
        },
        {
          "internalType": "uint256",
          "name": "price",
          "type": "uint256"
        },
        {
          "internalType": "address payable",
          "name": "owner",
          "type": "address"
        },
        {
          "internalType": "bool",
          "name": "NFTsold",
          "type": "bool"
        },
        {
          "internalType": "bool",
          "name": "NFTbought",
          "type": "bool"
        }
      ],
      "stateMutability": "view",
      "type": "function"
    },
    {
      "inputs": [
        {
          "internalType": "uint256",
          "name": "",
          "type": "uint256"
        }
      ],
      "name": "idToSoldItems",
      "outputs": [
        {
          "internalType": "uint256",
          "name": "tokenId",
          "type": "uint256"
        },
        {
          "internalType": "uint256",
          "name": "price",
          "type": "uint256"
        },
        {
          "internalType": "address payable",
          "name": "owner",
          "type": "address"
        },
        {
          "internalType": "address",
          "name": "newOwner",
          "type": "address"
        },
        {
          "internalType": "bool",
          "name": "NFTsold",
          "type": "bool"
        }
      ],
      "stateMutability": "view",
      "type": "function"
    },
    {
      "inputs": [
        {
          "internalType": "address",
          "name": "owner",
          "type": "address"
        },
        {
          "internalType": "address",
          "name": "operator",
          "type": "address"
        }
      ],
      "name": "isApprovedForAll",
      "outputs": [
        {
          "internalType": "bool",
          "name": "",
          "type": "bool"
        }
      ],
      "stateMutability": "view",
      "type": "function"
    },
    {
      "inputs": [],
      "name": "name",
      "outputs": [
        {
          "internalType": "string",
          "name": "",
          "type": "string"
        }
      ],
      "stateMutability": "view",
      "type": "function"
    },
    {
      "inputs": [
        {
          "internalType": "uint256",
          "name": "tokenId",
          "type": "uint256"
        }
      ],
      "name": "ownerOf",
      "outputs": [
        {
          "internalType": "address",
          "name": "",
          "type": "address"
        }
      ],
      "stateMutability": "view",
      "type": "function"
    },
    {
      "inputs": [
        {
          "internalType": "address",
          "name": "from",
          "type": "address"
        },
        {
          "internalType": "address",
          "name": "to",
          "type": "address"
        },
        {
          "internalType": "uint256",
          "name": "tokenId",
          "type": "uint256"
        }
      ],
      "name": "safeTransferFrom",
      "outputs": [],
      "stateMutability": "nonpayable",
      "type": "function"
    },
    {
      "inputs": [
        {
          "internalType": "address",
          "name": "from",
          "type": "address"
        },
        {
          "internalType": "address",
          "name": "to",
          "type": "address"
        },
        {
          "internalType": "uint256",
          "name": "tokenId",
          "type": "uint256"
        },
        {
          "internalType": "bytes",
          "name": "data",
          "type": "bytes"
        }
      ],
      "name": "safeTransferFrom",
      "outputs": [],
      "stateMutability": "nonpayable",
      "type": "function"
    },
    {
      "inputs": [
        {
          "internalType": "address",
          "name": "operator",
          "type": "address"
        },
        {
          "internalType": "bool",
          "name": "approved",
          "type": "bool"
        }
      ],
      "name": "setApprovalForAll",
      "outputs": [],
      "stateMutability": "nonpayable",
      "type": "function"
    },
    {
      "inputs": [
        {
          "internalType": "bytes4",
          "name": "interfaceId",
          "type": "bytes4"
        }
      ],
      "name": "supportsInterface",
      "outputs": [
        {
          "internalType": "bool",
          "name": "",
          "type": "bool"
        }
      ],
      "stateMutability": "view",
      "type": "function"
    },
    {
      "inputs": [],
      "name": "symbol",
      "outputs": [
        {
          "internalType": "string",
          "name": "",
          "type": "string"
        }
      ],
      "stateMutability": "view",
      "type": "function"
    },
    {
      "inputs": [
        {
          "internalType": "uint256",
          "name": "tokenId",
          "type": "uint256"
        }
      ],
      "name": "tokenURI",
      "outputs": [
        {
          "internalType": "string",
          "name": "",
          "type": "string"
        }
      ],
      "stateMutability": "view",
      "type": "function"
    },
    {
      "inputs": [
        {
          "internalType": "address",
          "name": "from",
          "type": "address"
        },
        {
          "internalType": "address",
          "name": "to",
          "type": "address"
        },
        {
          "internalType": "uint256",
          "name": "tokenId",
          "type": "uint256"
        }
      ],
      "name": "transferFrom",
      "outputs": [],
      "stateMutability": "nonpayable",
      "type": "function"
    }
  ],
  "bytecode": "0x60806040523480156200001157600080fd5b50604080518082018252601581527f506f6c79676f6e4e46544d61726b6574706c61636500000000000000000000006020808301918252835180850190945260048452634441524b60e01b908401528151919291620000739160009162000092565b5080516200008990600190602084019062000092565b50505062000175565b828054620000a09062000138565b90600052602060002090601f016020900481019282620000c457600085556200010f565b82601f10620000df57805160ff19168380011785556200010f565b828001600101855582156200010f579182015b828111156200010f578251825591602001919060010190620000f2565b506200011d92915062000121565b5090565b5b808211156200011d576000815560010162000122565b600181811c908216806200014d57607f821691505b602082108114156200016f57634e487b7160e01b600052602260045260246000fd5b50919050565b6122e080620001856000396000f3fe6080604052600436106101405760003560e01c806370a08231116100b6578063b27dce811161006f578063b27dce81146103ff578063b88d4fde14610421578063c87b56dd14610441578063e57a497a14610461578063e985e9c5146104f4578063edf2ebcc1461053d57600080fd5b806370a0823114610341578063732e8d731461036157806395d89b41146103765780639b1225c41461038b578063a22cb4651461039e578063adc2524c146103be57600080fd5b80633302410011610108578063330241001461021657806336ad658f146102a757806342842e0e146102cc578063629cb2e4146102ec5780636352211e1461030e57806366b126e61461032e57600080fd5b806301ffc9a71461014557806306fdde031461017a578063081812fc1461019c578063095ea7b3146101d457806323b872dd146101f6575b600080fd5b34801561015157600080fd5b50610165610160366004611e9c565b610554565b60405190151581526020015b60405180910390f35b34801561018657600080fd5b5061018f61057f565b60405161017191906120d7565b3480156101a857600080fd5b506101bc6101b7366004611f1a565b610611565b6040516001600160a01b039091168152602001610171565b3480156101e057600080fd5b506101f46101ef366004611e73565b610638565b005b34801561020257600080fd5b506101f4610211366004611d85565b610753565b34801561022257600080fd5b50610271610231366004611f1a565b600a602052600090815260409020805460018201546002830154600390930154919290916001600160a01b0391821691811690600160a01b900460ff1685565b6040805195865260208601949094526001600160a01b03928316938501939093521660608301521515608082015260a001610171565b3480156102b357600080fd5b506007546102be9081565b604051908152602001610171565b3480156102d857600080fd5b506101f46102e7366004611d85565b610784565b3480156102f857600080fd5b5061030161079f565b6040516101719190612069565b34801561031a57600080fd5b506101bc610329366004611f1a565b6109a2565b6102be61033c366004611ed4565b610a02565b34801561034d57600080fd5b506102be61035c366004611d39565b610ac1565b34801561036d57600080fd5b50610301610b47565b34801561038257600080fd5b5061018f610d27565b6101f4610399366004611f1a565b610d36565b3480156103aa57600080fd5b506101f46103b9366004611e39565b610f0e565b3480156103ca57600080fd5b506101f46103d9366004611f32565b60009081526009602052604090206001810191909155600201805460ff60a81b19169055565b34801561040b57600080fd5b50610414610f1d565b6040516101719190611feb565b34801561042d57600080fd5b506101f461043c366004611dc0565b611113565b34801561044d57600080fd5b5061018f61045c366004611f1a565b61114b565b34801561046d57600080fd5b506104bc61047c366004611f1a565b6009602052600090815260409020805460018201546002909201549091906001600160a01b0381169060ff600160a01b8204811691600160a81b90041685565b6040805195865260208601949094526001600160a01b039092169284019290925290151560608301521515608082015260a001610171565b34801561050057600080fd5b5061016561050f366004611d53565b6001600160a01b03918216600090815260056020908152604080832093909416825291909152205460ff1690565b34801561054957600080fd5b506008546102be9081565b60006001600160e01b03198216632483248360e11b148061057957506105798261125c565b92915050565b60606000805461058e90612212565b80601f01602080910402602001604051908101604052809291908181526020018280546105ba90612212565b80156106075780601f106105dc57610100808354040283529160200191610607565b820191906000526020600020905b8154815290600101906020018083116105ea57829003601f168201915b5050505050905090565b600061061c826112ac565b506000908152600460205260409020546001600160a01b031690565b6000610643826109a2565b9050806001600160a01b0316836001600160a01b031614156106b65760405162461bcd60e51b815260206004820152602160248201527f4552433732313a20617070726f76616c20746f2063757272656e74206f776e656044820152603960f91b60648201526084015b60405180910390fd5b336001600160a01b03821614806106d257506106d2813361050f565b6107445760405162461bcd60e51b815260206004820152603d60248201527f4552433732313a20617070726f76652063616c6c6572206973206e6f7420746f60448201527f6b656e206f776e6572206f7220617070726f76656420666f7220616c6c00000060648201526084016106ad565b61074e838361130e565b505050565b61075d338261137c565b6107795760405162461bcd60e51b81526004016106ad906120ea565b61074e8383836113fa565b61074e83838360405180602001604052806000815250611113565b606060006107ac60075490565b9050600080805b8381101561080e5733600960006107cb8460016121ce565b81526020810191909152604001600020600201546001600160a01b031614156107fc57816107f88161224d565b9250505b806108068161224d565b9150506107b3565b5060008167ffffffffffffffff81111561083857634e487b7160e01b600052604160045260246000fd5b60405190808252806020026020018201604052801561089157816020015b6040805160a0810182526000808252602080830182905292820181905260608201819052608082015282526000199092019101816108565790505b50905060005b848110156109995733600960006108af8460016121ce565b81526020810191909152604001600020600201546001600160a01b031614156109875760006009816108e28460016121ce565b81526020808201929092526040908101600020815160a0810183528154815260018201549381019390935260028101546001600160a01b0381169284019290925260ff600160a01b8304811615156060850152600160a81b90920490911615156080830152845190925084908790811061096c57634e487b7160e01b600052603260045260246000fd5b602002602001018190525084806109829061224d565b955050505b806109918161224d565b915050610897565b50949350505050565b6000818152600260205260408120546001600160a01b0316806105795760405162461bcd60e51b8152602060048201526018602482015277115490cdcc8c4e881a5b9d985b1a59081d1bdad95b88125160421b60448201526064016106ad565b6000610a12600780546001019055565b6000610a1d60075490565b9050610a29338261155e565b610a338184611578565b6040805160a0810182528281526000602080830182815233848601908152606085018481526080860185815288865260099094529590932093518455516001840155905160029092018054935191511515600160a81b0260ff60a81b19921515600160a01b026001600160a81b03199095166001600160a01b03909416939093179390931716179055610579565b60006001600160a01b038216610b2b5760405162461bcd60e51b815260206004820152602960248201527f4552433732313a2061646472657373207a65726f206973206e6f7420612076616044820152683634b21037bbb732b960b91b60648201526084016106ad565b506001600160a01b031660009081526003602052604090205490565b60606000610b5460075490565b905060008060005b83811015610bac5760096000610b738360016121ce565b815260200190815260200160002060010154600014610b9a57610b976001846121ce565b92505b610ba56001826121ce565b9050610b5c565b5060008267ffffffffffffffff811115610bd657634e487b7160e01b600052604160045260246000fd5b604051908082528060200260200182016040528015610c2f57816020015b6040805160a081018252600080825260208083018290529282018190526060820181905260808201528252600019909201910181610bf45790505b50905060005b84811015610999576000600981610c4d8460016121ce565b8152602001908152602001600020905060096000836001610c6e91906121ce565b815260200190815260200160002060010154600014610d14576040805160a081018252825481526001830154602082015260028301546001600160a01b0381169282019290925260ff600160a01b8304811615156060830152600160a81b909204909116151560808201528351849086908110610cfb57634e487b7160e01b600052603260045260246000fd5b6020908102919091010152610d116001856121ce565b93505b50610d206001826121ce565b9050610c35565b60606001805461058e90612212565b600081815260096020526040902060018101546002909101546001600160a01b0316331415610da75760405162461bcd60e51b815260206004820152601a60248201527f796f752063616e27742062757920796f7572206f776e206e667400000000000060448201526064016106ad565b6000828152600960205260409020600201546001600160a01b0316610dcd8133856113fa565b610dd78184610638565b600083815260096020526040808220600201805460ff60a81b1960ff60a01b1933166001600160a81b031990921691909117600160a01b1716600160a81b179055516001600160a01b038316913480156108fc02929091818181858888f19350505050158015610e4b573d6000803e3d6000fd5b50610e5a600880546001019055565b6000610e6560085490565b6040805160a08101825286815260208082019687526001600160a01b0395861682840190815233606084019081526001608085018181526000978852600a8552868820955186559951858201559151600285018054918a166001600160a01b0319909216919091179055516003909301805498511515600160a01b026001600160a81b031990991693909716929092179690961790945594815260099093525091812090910155565b610f1933838361164a565b5050565b60606000610f2a60085490565b9050600080805b83811015610f8c5733600a6000610f498460016121ce565b81526020810191909152604001600020600201546001600160a01b03161415610f7a5781610f768161224d565b9250505b80610f848161224d565b915050610f31565b5060008167ffffffffffffffff811115610fb657634e487b7160e01b600052604160045260246000fd5b60405190808252806020026020018201604052801561100f57816020015b6040805160a081018252600080825260208083018290529282018190526060820181905260808201528252600019909201910181610fd45790505b50905060005b848110156109995733600a600061102d8460016121ce565b81526020810191909152604001600020600201546001600160a01b03161415611101576000600a816110608460016121ce565b81526020808201929092526040908101600020815160a0810183528154815260018201549381019390935260028101546001600160a01b039081169284019290925260038101549182166060840152600160a01b90910460ff161515608083015284519092508490879081106110e657634e487b7160e01b600052603260045260246000fd5b602002602001018190525084806110fc9061224d565b955050505b8061110b8161224d565b915050611015565b61111d338361137c565b6111395760405162461bcd60e51b81526004016106ad906120ea565b61114584848484611719565b50505050565b6060611156826112ac565b6000828152600660205260408120805461116f90612212565b80601f016020809104026020016040519081016040528092919081815260200182805461119b90612212565b80156111e85780601f106111bd576101008083540402835291602001916111e8565b820191906000526020600020905b8154815290600101906020018083116111cb57829003601f168201915b50505050509050600061120660408051602081019091526000815290565b9050805160001415611219575092915050565b81511561124b578082604051602001611233929190611f7f565b60405160208183030381529060405292505050919050565b6112548461174c565b949350505050565b60006001600160e01b031982166380ac58cd60e01b148061128d57506001600160e01b03198216635b5e139f60e01b145b8061057957506301ffc9a760e01b6001600160e01b0319831614610579565b6000818152600260205260409020546001600160a01b031661130b5760405162461bcd60e51b8152602060048201526018602482015277115490cdcc8c4e881a5b9d985b1a59081d1bdad95b88125160421b60448201526064016106ad565b50565b600081815260046020526040902080546001600160a01b0319166001600160a01b0384169081179091558190611343826109a2565b6001600160a01b03167f8c5be1e5ebec7d5bd14f71427d1e84f3dd0314c0f7b2291e5b200ac8c7c3b92560405160405180910390a45050565b600080611388836109a2565b9050806001600160a01b0316846001600160a01b031614806113cf57506001600160a01b0380821660009081526005602090815260408083209388168352929052205460ff165b806112545750836001600160a01b03166113e884610611565b6001600160a01b031614949350505050565b826001600160a01b031661140d826109a2565b6001600160a01b0316146114335760405162461bcd60e51b81526004016106ad90612189565b6001600160a01b0382166114955760405162461bcd60e51b8152602060048201526024808201527f4552433732313a207472616e7366657220746f20746865207a65726f206164646044820152637265737360e01b60648201526084016106ad565b826001600160a01b03166114a8826109a2565b6001600160a01b0316146114ce5760405162461bcd60e51b81526004016106ad90612189565b600081815260046020908152604080832080546001600160a01b03199081169091556001600160a01b0387811680865260038552838620805460001901905590871680865283862080546001019055868652600290945282852080549092168417909155905184937fddf252ad1be2c89b69c2b068fc378daa952ba7f163c4a11628f55a4df523b3ef91a4505050565b610f198282604051806020016040528060008152506117c0565b6000828152600260205260409020546001600160a01b03166115f35760405162461bcd60e51b815260206004820152602e60248201527f45524337323155524953746f726167653a2055524920736574206f66206e6f6e60448201526d32bc34b9ba32b73a103a37b5b2b760911b60648201526084016106ad565b6000828152600660209081526040909120825161161292840190611c0e565b506040518281527ff8e1a15aba9398e019f0b49df1a4fde98ee17ae345cb5f6b5e2c27f5033e8ce79060200160405180910390a15050565b816001600160a01b0316836001600160a01b031614156116ac5760405162461bcd60e51b815260206004820152601960248201527f4552433732313a20617070726f766520746f2063616c6c65720000000000000060448201526064016106ad565b6001600160a01b03838116600081815260056020908152604080832094871680845294825291829020805460ff191686151590811790915591519182527f17307eab39ab6107e8899845ad3d59bd9653f200f220920489ca2b5937696c31910160405180910390a3505050565b6117248484846113fa565b611730848484846117f3565b6111455760405162461bcd60e51b81526004016106ad90612137565b6060611757826112ac565b600061176e60408051602081019091526000815290565b9050600081511161178e57604051806020016040528060008152506117b9565b8061179884611900565b6040516020016117a9929190611f7f565b6040516020818303038152906040525b9392505050565b6117ca83836119ab565b6117d760008484846117f3565b61074e5760405162461bcd60e51b81526004016106ad90612137565b60006001600160a01b0384163b156118f557604051630a85bd0160e11b81526001600160a01b0385169063150b7a0290611837903390899088908890600401611fae565b602060405180830381600087803b15801561185157600080fd5b505af1925050508015611881575060408051601f3d908101601f1916820190925261187e91810190611eb8565b60015b6118db573d8080156118af576040519150601f19603f3d011682016040523d82523d6000602084013e6118b4565b606091505b5080516118d35760405162461bcd60e51b81526004016106ad90612137565b805181602001fd5b6001600160e01b031916630a85bd0160e11b149050611254565b506001949350505050565b6060600061190d83611b36565b600101905060008167ffffffffffffffff81111561193b57634e487b7160e01b600052604160045260246000fd5b6040519080825280601f01601f191660200182016040528015611965576020820181803683370190505b5090508181016020015b600019016f181899199a1a9b1b9c1cb0b131b232b360811b600a86061a8153600a850494508461199e576119a3565b61196f565b509392505050565b6001600160a01b038216611a015760405162461bcd60e51b815260206004820181905260248201527f4552433732313a206d696e7420746f20746865207a65726f206164647265737360448201526064016106ad565b6000818152600260205260409020546001600160a01b031615611a665760405162461bcd60e51b815260206004820152601c60248201527f4552433732313a20746f6b656e20616c7265616479206d696e7465640000000060448201526064016106ad565b6000818152600260205260409020546001600160a01b031615611acb5760405162461bcd60e51b815260206004820152601c60248201527f4552433732313a20746f6b656e20616c7265616479206d696e7465640000000060448201526064016106ad565b6001600160a01b038216600081815260036020908152604080832080546001019055848352600290915280822080546001600160a01b0319168417905551839291907fddf252ad1be2c89b69c2b068fc378daa952ba7f163c4a11628f55a4df523b3ef908290a45050565b60008072184f03e93ff9f4daa797ed6e38ed64bf6a1f0160401b8310611b755772184f03e93ff9f4daa797ed6e38ed64bf6a1f0160401b830492506040015b6d04ee2d6d415b85acef81000000008310611ba1576d04ee2d6d415b85acef8100000000830492506020015b662386f26fc100008310611bbf57662386f26fc10000830492506010015b6305f5e1008310611bd7576305f5e100830492506008015b6127108310611beb57612710830492506004015b60648310611bfd576064830492506002015b600a83106105795760010192915050565b828054611c1a90612212565b90600052602060002090601f016020900481019282611c3c5760008555611c82565b82601f10611c5557805160ff1916838001178555611c82565b82800160010185558215611c82579182015b82811115611c82578251825591602001919060010190611c67565b50611c8e929150611c92565b5090565b5b80821115611c8e5760008155600101611c93565b600067ffffffffffffffff80841115611cc257611cc261227e565b604051601f8501601f19908116603f01168101908282118183101715611cea57611cea61227e565b81604052809350858152868686011115611d0357600080fd5b858560208301376000602087830101525050509392505050565b80356001600160a01b0381168114611d3457600080fd5b919050565b600060208284031215611d4a578081fd5b6117b982611d1d565b60008060408385031215611d65578081fd5b611d6e83611d1d565b9150611d7c60208401611d1d565b90509250929050565b600080600060608486031215611d99578081fd5b611da284611d1d565b9250611db060208501611d1d565b9150604084013590509250925092565b60008060008060808587031215611dd5578081fd5b611dde85611d1d565b9350611dec60208601611d1d565b925060408501359150606085013567ffffffffffffffff811115611e0e578182fd5b8501601f81018713611e1e578182fd5b611e2d87823560208401611ca7565b91505092959194509250565b60008060408385031215611e4b578182fd5b611e5483611d1d565b915060208301358015158114611e68578182fd5b809150509250929050565b60008060408385031215611e85578182fd5b611e8e83611d1d565b946020939093013593505050565b600060208284031215611ead578081fd5b81356117b981612294565b600060208284031215611ec9578081fd5b81516117b981612294565b600060208284031215611ee5578081fd5b813567ffffffffffffffff811115611efb578182fd5b8201601f81018413611f0b578182fd5b61125484823560208401611ca7565b600060208284031215611f2b578081fd5b5035919050565b60008060408385031215611f44578182fd5b50508035926020909101359150565b60008151808452611f6b8160208601602086016121e6565b601f01601f19169290920160200192915050565b60008351611f918184602088016121e6565b835190830190611fa58183602088016121e6565b01949350505050565b6001600160a01b0385811682528416602082015260408101839052608060608201819052600090611fe190830184611f53565b9695505050505050565b602080825282518282018190526000919060409081850190868401855b8281101561205c578151805185528681015187860152858101516001600160a01b03908116878701526060808301519091169086015260809081015115159085015260a09093019290850190600101612008565b5091979650505050505050565b602080825282518282018190526000919060409081850190868401855b8281101561205c578151805185528681015187860152858101516001600160a01b03168686015260608082015115159086015260809081015115159085015260a09093019290850190600101612086565b6020815260006117b96020830184611f53565b6020808252602d908201527f4552433732313a2063616c6c6572206973206e6f7420746f6b656e206f776e6560408201526c1c881bdc88185c1c1c9bdd9959609a1b606082015260800190565b60208082526032908201527f4552433732313a207472616e7366657220746f206e6f6e20455243373231526560408201527131b2b4bb32b91034b6b83632b6b2b73a32b960711b606082015260800190565b60208082526025908201527f4552433732313a207472616e736665722066726f6d20696e636f72726563742060408201526437bbb732b960d91b606082015260800190565b600082198211156121e1576121e1612268565b500190565b60005b838110156122015781810151838201526020016121e9565b838111156111455750506000910152565b600181811c9082168061222657607f821691505b6020821081141561224757634e487b7160e01b600052602260045260246000fd5b50919050565b600060001982141561226157612261612268565b5060010190565b634e487b7160e01b600052601160045260246000fd5b634e487b7160e01b600052604160045260246000fd5b6001600160e01b03198116811461130b57600080fdfea2646970667358221220032e174f4ebbe94a06403fb97741c5849d222cf104d5625a0f807b40ad8e3ad264736f6c63430008040033",
  "linkReferences": {},
  "deployedLinkReferences": {}
}