{
  "_format": "hh-sol-artifact-1",
  "contractName": "PolygonNFTMarketplace",
  "sourceName": "contracts/PolygonNFTMarketplace.sol",
  "abi": [
    {
      "inputs": [],
      "stateMutability": "nonpayable",
      "type": "constructor"
    },
    {
      "anonymous": false,
      "inputs": [
        {
          "indexed": true,
          "internalType": "address",
          "name": "owner",
          "type": "address"
        },
        {
          "indexed": true,
          "internalType": "address",
          "name": "approved",
          "type": "address"
        },
        {
          "indexed": true,
          "internalType": "uint256",
          "name": "tokenId",
          "type": "uint256"
        }
      ],
      "name": "Approval",
      "type": "event"
    },
    {
      "anonymous": false,
      "inputs": [
        {
          "indexed": true,
          "internalType": "address",
          "name": "owner",
          "type": "address"
        },
        {
          "indexed": true,
          "internalType": "address",
          "name": "operator",
          "type": "address"
        },
        {
          "indexed": false,
          "internalType": "bool",
          "name": "approved",
          "type": "bool"
        }
      ],
      "name": "ApprovalForAll",
      "type": "event"
    },
    {
      "anonymous": false,
      "inputs": [
        {
          "indexed": false,
          "internalType": "uint256",
          "name": "_fromTokenId",
          "type": "uint256"
        },
        {
          "indexed": false,
          "internalType": "uint256",
          "name": "_toTokenId",
          "type": "uint256"
        }
      ],
      "name": "BatchMetadataUpdate",
      "type": "event"
    },
    {
      "anonymous": false,
      "inputs": [
        {
          "indexed": false,
          "internalType": "uint256",
          "name": "_tokenId",
          "type": "uint256"
        }
      ],
      "name": "MetadataUpdate",
      "type": "event"
    },
    {
      "anonymous": false,
      "inputs": [
        {
          "indexed": true,
          "internalType": "address",
          "name": "from",
          "type": "address"
        },
        {
          "indexed": true,
          "internalType": "address",
          "name": "to",
          "type": "address"
        },
        {
          "indexed": true,
          "internalType": "uint256",
          "name": "tokenId",
          "type": "uint256"
        }
      ],
      "name": "Transfer",
      "type": "event"
    },
    {
      "inputs": [],
      "name": "BuyCount",
      "outputs": [
        {
          "internalType": "uint256",
          "name": "_value",
          "type": "uint256"
        }
      ],
      "stateMutability": "view",
      "type": "function"
    },
    {
      "inputs": [
        {
          "internalType": "string",
          "name": "tokenURI",
          "type": "string"
        },
        {
          "internalType": "string",
          "name": "imageHash",
          "type": "string"
        },
        {
          "internalType": "uint256",
          "name": "fileType",
          "type": "uint256"
        }
      ],
      "name": "CreateToken",
      "outputs": [
        {
          "internalType": "uint256",
          "name": "",
          "type": "uint256"
        }
      ],
      "stateMutability": "payable",
      "type": "function"
    },
    {
      "inputs": [
        {
          "internalType": "uint256",
          "name": "",
          "type": "uint256"
        }
      ],
      "name": "Creators",
      "outputs": [
        {
          "internalType": "address",
          "name": "",
          "type": "address"
        }
      ],
      "stateMutability": "view",
      "type": "function"
    },
    {
      "inputs": [],
      "name": "CreatorsCount",
      "outputs": [
        {
          "internalType": "uint256",
          "name": "_value",
          "type": "uint256"
        }
      ],
      "stateMutability": "view",
      "type": "function"
    },
    {
      "inputs": [
        {
          "internalType": "uint256",
          "name": "price",
          "type": "uint256"
        },
        {
          "internalType": "uint256",
          "name": "id",
          "type": "uint256"
        }
      ],
      "name": "ListNFT",
      "outputs": [],
      "stateMutability": "nonpayable",
      "type": "function"
    },
    {
      "inputs": [],
      "name": "STATUS_DONE",
      "outputs": [
        {
          "internalType": "uint8",
          "name": "",
          "type": "uint8"
        }
      ],
      "stateMutability": "view",
      "type": "function"
    },
    {
      "inputs": [],
      "name": "STATUS_OPEN",
      "outputs": [
        {
          "internalType": "uint8",
          "name": "",
          "type": "uint8"
        }
      ],
      "stateMutability": "view",
      "type": "function"
    },
    {
      "inputs": [],
      "name": "SoldCount",
      "outputs": [
        {
          "internalType": "uint256",
          "name": "_value",
          "type": "uint256"
        }
      ],
      "stateMutability": "view",
      "type": "function"
    },
    {
      "inputs": [],
      "name": "TokenCount",
      "outputs": [
        {
          "internalType": "uint256",
          "name": "_value",
          "type": "uint256"
        }
      ],
      "stateMutability": "view",
      "type": "function"
    },
    {
      "inputs": [
        {
          "internalType": "address",
          "name": "to",
          "type": "address"
        },
        {
          "internalType": "uint256",
          "name": "tokenId",
          "type": "uint256"
        }
      ],
      "name": "approve",
      "outputs": [],
      "stateMutability": "nonpayable",
      "type": "function"
    },
    {
      "inputs": [
        {
          "internalType": "address",
          "name": "owner",
          "type": "address"
        }
      ],
      "name": "balanceOf",
      "outputs": [
        {
          "internalType": "uint256",
          "name": "",
          "type": "uint256"
        }
      ],
      "stateMutability": "view",
      "type": "function"
    },
    {
      "inputs": [
        {
          "internalType": "uint256",
          "name": "listingId",
          "type": "uint256"
        }
      ],
      "name": "bid",
      "outputs": [],
      "stateMutability": "payable",
      "type": "function"
    },
    {
      "inputs": [],
      "name": "biddingCounter",
      "outputs": [
        {
          "internalType": "uint256",
          "name": "_value",
          "type": "uint256"
        }
      ],
      "stateMutability": "view",
      "type": "function"
    },
    {
      "inputs": [
        {
          "internalType": "uint256",
          "name": "listingId",
          "type": "uint256"
        }
      ],
      "name": "completeAuction",
      "outputs": [],
      "stateMutability": "payable",
      "type": "function"
    },
    {
      "inputs": [
        {
          "internalType": "uint256",
          "name": "price",
          "type": "uint256"
        },
        {
          "internalType": "uint256",
          "name": "tokenId",
          "type": "uint256"
        },
        {
          "internalType": "uint256",
          "name": "deadline",
          "type": "uint256"
        },
        {
          "internalType": "string",
          "name": "aucDate",
          "type": "string"
        }
      ],
      "name": "createAuctionListing",
      "outputs": [
        {
          "internalType": "uint256",
          "name": "",
          "type": "uint256"
        }
      ],
      "stateMutability": "nonpayable",
      "type": "function"
    },
    {
      "inputs": [
        {
          "internalType": "uint256",
          "name": "tokenId",
          "type": "uint256"
        }
      ],
      "name": "executeSale",
      "outputs": [],
      "stateMutability": "payable",
      "type": "function"
    },
    {
      "inputs": [],
      "name": "getAllBiddedNfts",
      "outputs": [
        {
          "components": [
            {
              "internalType": "uint256",
              "name": "biddingId",
              "type": "uint256"
            },
            {
              "internalType": "address payable",
              "name": "seller",
              "type": "address"
            },
            {
              "internalType": "uint256",
              "name": "tokenId",
              "type": "uint256"
            },
            {
              "internalType": "uint256",
              "name": "price",
              "type": "uint256"
            },
            {
              "internalType": "uint256",
              "name": "netPrice",
              "type": "uint256"
            },
            {
              "internalType": "uint256",
              "name": "startAt",
              "type": "uint256"
            },
            {
              "internalType": "uint256",
              "name": "deadline",
              "type": "uint256"
            },
            {
              "internalType": "string",
              "name": "date",
              "type": "string"
            },
            {
              "internalType": "uint256",
              "name": "status",
              "type": "uint256"
            }
          ],
          "internalType": "struct PolygonNFTMarketplace.Listing[]",
          "name": "",
          "type": "tuple[]"
        }
      ],
      "stateMutability": "view",
      "type": "function"
    },
    {
      "inputs": [],
      "name": "getAllBiddingWithListingID",
      "outputs": [
        {
          "components": [
            {
              "internalType": "uint256",
              "name": "tokenId",
              "type": "uint256"
            },
            {
              "internalType": "uint256",
              "name": "biddingId",
              "type": "uint256"
            },
            {
              "internalType": "address",
              "name": "bidder",
              "type": "address"
            },
            {
              "internalType": "uint256",
              "name": "price",
              "type": "uint256"
            }
          ],
          "internalType": "struct PolygonNFTMarketplace.Bidding[]",
          "name": "",
          "type": "tuple[]"
        }
      ],
      "stateMutability": "view",
      "type": "function"
    },
    {
      "inputs": [],
      "name": "getAllImageNfts",
      "outputs": [
        {
          "components": [
            {
              "internalType": "uint256",
              "name": "tokenId",
              "type": "uint256"
            },
            {
              "internalType": "uint256",
              "name": "price",
              "type": "uint256"
            },
            {
              "internalType": "uint256",
              "name": "bidPrice",
              "type": "uint256"
            },
            {
              "internalType": "string",
              "name": "imgHash",
              "type": "string"
            },
            {
              "internalType": "address payable",
              "name": "owner",
              "type": "address"
            },
            {
              "internalType": "uint256",
              "name": "format",
              "type": "uint256"
            },
            {
              "internalType": "bool",
              "name": "NFTsold",
              "type": "bool"
            },
            {
              "internalType": "bool",
              "name": "NFTbought",
              "type": "bool"
            },
            {
              "internalType": "bool",
              "name": "NFTListed",
              "type": "bool"
            },
            {
              "internalType": "bool",
              "name": "NFTBidded",
              "type": "bool"
            }
          ],
          "internalType": "struct PolygonNFTMarketplace.ListedToken[]",
          "name": "",
          "type": "tuple[]"
        }
      ],
      "stateMutability": "view",
      "type": "function"
    },
    {
      "inputs": [],
      "name": "getAllNfts",
      "outputs": [
        {
          "components": [
            {
              "internalType": "uint256",
              "name": "tokenId",
              "type": "uint256"
            },
            {
              "internalType": "uint256",
              "name": "price",
              "type": "uint256"
            },
            {
              "internalType": "uint256",
              "name": "bidPrice",
              "type": "uint256"
            },
            {
              "internalType": "string",
              "name": "imgHash",
              "type": "string"
            },
            {
              "internalType": "address payable",
              "name": "owner",
              "type": "address"
            },
            {
              "internalType": "uint256",
              "name": "format",
              "type": "uint256"
            },
            {
              "internalType": "bool",
              "name": "NFTsold",
              "type": "bool"
            },
            {
              "internalType": "bool",
              "name": "NFTbought",
              "type": "bool"
            },
            {
              "internalType": "bool",
              "name": "NFTListed",
              "type": "bool"
            },
            {
              "internalType": "bool",
              "name": "NFTBidded",
              "type": "bool"
            }
          ],
          "internalType": "struct PolygonNFTMarketplace.ListedToken[]",
          "name": "",
          "type": "tuple[]"
        }
      ],
      "stateMutability": "view",
      "type": "function"
    },
    {
      "inputs": [
        {
          "internalType": "uint256",
          "name": "tokenId",
          "type": "uint256"
        }
      ],
      "name": "getApproved",
      "outputs": [
        {
          "internalType": "address",
          "name": "",
          "type": "address"
        }
      ],
      "stateMutability": "view",
      "type": "function"
    },
    {
      "inputs": [
        {
          "internalType": "uint256",
          "name": "listingId",
          "type": "uint256"
        }
      ],
      "name": "getHighestBidder",
      "outputs": [
        {
          "internalType": "address",
          "name": "",
          "type": "address"
        }
      ],
      "stateMutability": "view",
      "type": "function"
    },
    {
      "inputs": [
        {
          "internalType": "uint256",
          "name": "listingId",
          "type": "uint256"
        }
      ],
      "name": "getHighestBiddingAmount",
      "outputs": [
        {
          "internalType": "uint256",
          "name": "",
          "type": "uint256"
        }
      ],
      "stateMutability": "view",
      "type": "function"
    },
    {
      "inputs": [],
      "name": "getMyNFTs",
      "outputs": [
        {
          "components": [
            {
              "internalType": "uint256",
              "name": "tokenId",
              "type": "uint256"
            },
            {
              "internalType": "uint256",
              "name": "price",
              "type": "uint256"
            },
            {
              "internalType": "uint256",
              "name": "bidPrice",
              "type": "uint256"
            },
            {
              "internalType": "string",
              "name": "imgHash",
              "type": "string"
            },
            {
              "internalType": "address payable",
              "name": "owner",
              "type": "address"
            },
            {
              "internalType": "uint256",
              "name": "format",
              "type": "uint256"
            },
            {
              "internalType": "bool",
              "name": "NFTsold",
              "type": "bool"
            },
            {
              "internalType": "bool",
              "name": "NFTbought",
              "type": "bool"
            },
            {
              "internalType": "bool",
              "name": "NFTListed",
              "type": "bool"
            },
            {
              "internalType": "bool",
              "name": "NFTBidded",
              "type": "bool"
            }
          ],
          "internalType": "struct PolygonNFTMarketplace.ListedToken[]",
          "name": "",
          "type": "tuple[]"
        }
      ],
      "stateMutability": "view",
      "type": "function"
    },
    {
      "inputs": [],
      "name": "getMySoldNFTs",
      "outputs": [
        {
          "components": [
            {
              "internalType": "uint256",
              "name": "tokenId",
              "type": "uint256"
            },
            {
              "internalType": "uint256",
              "name": "price",
              "type": "uint256"
            },
            {
              "internalType": "address payable",
              "name": "owner",
              "type": "address"
            },
            {
              "internalType": "address",
              "name": "newOwner",
              "type": "address"
            },
            {
              "internalType": "bool",
              "name": "NFTsold",
              "type": "bool"
            }
          ],
          "internalType": "struct PolygonNFTMarketplace.ItemsSold[]",
          "name": "",
          "type": "tuple[]"
        }
      ],
      "stateMutability": "view",
      "type": "function"
    },
    {
      "inputs": [],
      "name": "getTotalBiddedTokens",
      "outputs": [
        {
          "internalType": "uint256",
          "name": "",
          "type": "uint256"
        }
      ],
      "stateMutability": "view",
      "type": "function"
    },
    {
      "inputs": [],
      "name": "getTotalMintedTokens",
      "outputs": [
        {
          "internalType": "uint256",
          "name": "",
          "type": "uint256"
        }
      ],
      "stateMutability": "view",
      "type": "function"
    },
    {
      "inputs": [],
      "name": "getTotalSoldTokens",
      "outputs": [
        {
          "internalType": "uint256",
          "name": "",
          "type": "uint256"
        }
      ],
      "stateMutability": "view",
      "type": "function"
    },
    {
      "inputs": [],
      "name": "getTotalUser",
      "outputs": [
        {
          "internalType": "uint256",
          "name": "",
          "type": "uint256"
        }
      ],
      "stateMutability": "view",
      "type": "function"
    },
    {
      "inputs": [
        {
          "internalType": "uint256",
          "name": "",
          "type": "uint256"
        }
      ],
      "name": "highestBidder",
      "outputs": [
        {
          "internalType": "address",
          "name": "",
          "type": "address"
        }
      ],
      "stateMutability": "view",
      "type": "function"
    },
    {
      "inputs": [
        {
          "internalType": "uint256",
          "name": "",
          "type": "uint256"
        }
      ],
      "name": "highestBiddingAmount",
      "outputs": [
        {
          "internalType": "uint256",
          "name": "",
          "type": "uint256"
        }
      ],
      "stateMutability": "view",
      "type": "function"
    },
    {
      "inputs": [
        {
          "internalType": "uint256",
          "name": "",
          "type": "uint256"
        }
      ],
      "name": "idToBiddedToken",
      "outputs": [
        {
          "internalType": "uint256",
          "name": "tokenId",
          "type": "uint256"
        },
        {
          "internalType": "uint256",
          "name": "biddingId",
          "type": "uint256"
        },
        {
          "internalType": "address",
          "name": "bidder",
          "type": "address"
        },
        {
          "internalType": "uint256",
          "name": "price",
          "type": "uint256"
        }
      ],
      "stateMutability": "view",
      "type": "function"
    },
    {
      "inputs": [
        {
          "internalType": "uint256",
          "name": "",
          "type": "uint256"
        }
      ],
      "name": "idToImageHash",
      "outputs": [
        {
          "internalType": "string",
          "name": "",
          "type": "string"
        }
      ],
      "stateMutability": "view",
      "type": "function"
    },
    {
      "inputs": [
        {
          "internalType": "uint256",
          "name": "",
          "type": "uint256"
        }
      ],
      "name": "idToListedToken",
      "outputs": [
        {
          "internalType": "uint256",
          "name": "tokenId",
          "type": "uint256"
        },
        {
          "internalType": "uint256",
          "name": "price",
          "type": "uint256"
        },
        {
          "internalType": "uint256",
          "name": "bidPrice",
          "type": "uint256"
        },
        {
          "internalType": "string",
          "name": "imgHash",
          "type": "string"
        },
        {
          "internalType": "address payable",
          "name": "owner",
          "type": "address"
        },
        {
          "internalType": "uint256",
          "name": "format",
          "type": "uint256"
        },
        {
          "internalType": "bool",
          "name": "NFTsold",
          "type": "bool"
        },
        {
          "internalType": "bool",
          "name": "NFTbought",
          "type": "bool"
        },
        {
          "internalType": "bool",
          "name": "NFTListed",
          "type": "bool"
        },
        {
          "internalType": "bool",
          "name": "NFTBidded",
          "type": "bool"
        }
      ],
      "stateMutability": "view",
      "type": "function"
    },
    {
      "inputs": [
        {
          "internalType": "uint256",
          "name": "",
          "type": "uint256"
        }
      ],
      "name": "idToSoldItems",
      "outputs": [
        {
          "internalType": "uint256",
          "name": "tokenId",
          "type": "uint256"
        },
        {
          "internalType": "uint256",
          "name": "price",
          "type": "uint256"
        },
        {
          "internalType": "address payable",
          "name": "owner",
          "type": "address"
        },
        {
          "internalType": "address",
          "name": "newOwner",
          "type": "address"
        },
        {
          "internalType": "bool",
          "name": "NFTsold",
          "type": "bool"
        }
      ],
      "stateMutability": "view",
      "type": "function"
    },
    {
      "inputs": [
        {
          "internalType": "address",
          "name": "owner",
          "type": "address"
        },
        {
          "internalType": "address",
          "name": "operator",
          "type": "address"
        }
      ],
      "name": "isApprovedForAll",
      "outputs": [
        {
          "internalType": "bool",
          "name": "",
          "type": "bool"
        }
      ],
      "stateMutability": "view",
      "type": "function"
    },
    {
      "inputs": [
        {
          "internalType": "uint256",
          "name": "id",
          "type": "uint256"
        }
      ],
      "name": "isAuctionExpired",
      "outputs": [
        {
          "internalType": "bool",
          "name": "",
          "type": "bool"
        }
      ],
      "stateMutability": "view",
      "type": "function"
    },
    {
      "inputs": [
        {
          "internalType": "uint256",
          "name": "id",
          "type": "uint256"
        }
      ],
      "name": "isAuctionOpen",
      "outputs": [
        {
          "internalType": "bool",
          "name": "",
          "type": "bool"
        }
      ],
      "stateMutability": "view",
      "type": "function"
    },
    {
      "inputs": [],
      "name": "listingCounter",
      "outputs": [
        {
          "internalType": "uint256",
          "name": "_value",
          "type": "uint256"
        }
      ],
      "stateMutability": "view",
      "type": "function"
    },
    {
      "inputs": [
        {
          "internalType": "uint256",
          "name": "",
          "type": "uint256"
        }
      ],
      "name": "listings",
      "outputs": [
        {
          "internalType": "uint256",
          "name": "biddingId",
          "type": "uint256"
        },
        {
          "internalType": "address payable",
          "name": "seller",
          "type": "address"
        },
        {
          "internalType": "uint256",
          "name": "tokenId",
          "type": "uint256"
        },
        {
          "internalType": "uint256",
          "name": "price",
          "type": "uint256"
        },
        {
          "internalType": "uint256",
          "name": "netPrice",
          "type": "uint256"
        },
        {
          "internalType": "uint256",
          "name": "startAt",
          "type": "uint256"
        },
        {
          "internalType": "uint256",
          "name": "deadline",
          "type": "uint256"
        },
        {
          "internalType": "string",
          "name": "date",
          "type": "string"
        },
        {
          "internalType": "uint256",
          "name": "status",
          "type": "uint256"
        }
      ],
      "stateMutability": "view",
      "type": "function"
    },
    {
      "inputs": [],
      "name": "minAuctionIncrement",
      "outputs": [
        {
          "internalType": "uint256",
          "name": "",
          "type": "uint256"
        }
      ],
      "stateMutability": "view",
      "type": "function"
    },
    {
      "inputs": [],
      "name": "name",
      "outputs": [
        {
          "internalType": "string",
          "name": "",
          "type": "string"
        }
      ],
      "stateMutability": "view",
      "type": "function"
    },
    {
      "inputs": [
        {
          "internalType": "address",
          "name": "user",
          "type": "address"
        }
      ],
      "name": "newUser",
      "outputs": [],
      "stateMutability": "nonpayable",
      "type": "function"
    },
    {
      "inputs": [
        {
          "internalType": "uint256",
          "name": "tokenId",
          "type": "uint256"
        }
      ],
      "name": "ownerOf",
      "outputs": [
        {
          "internalType": "address",
          "name": "",
          "type": "address"
        }
      ],
      "stateMutability": "view",
      "type": "function"
    },
    {
      "inputs": [
        {
          "internalType": "address",
          "name": "from",
          "type": "address"
        },
        {
          "internalType": "address",
          "name": "to",
          "type": "address"
        },
        {
          "internalType": "uint256",
          "name": "tokenId",
          "type": "uint256"
        }
      ],
      "name": "safeTransferFrom",
      "outputs": [],
      "stateMutability": "nonpayable",
      "type": "function"
    },
    {
      "inputs": [
        {
          "internalType": "address",
          "name": "from",
          "type": "address"
        },
        {
          "internalType": "address",
          "name": "to",
          "type": "address"
        },
        {
          "internalType": "uint256",
          "name": "tokenId",
          "type": "uint256"
        },
        {
          "internalType": "bytes",
          "name": "data",
          "type": "bytes"
        }
      ],
      "name": "safeTransferFrom",
      "outputs": [],
      "stateMutability": "nonpayable",
      "type": "function"
    },
    {
      "inputs": [
        {
          "internalType": "address",
          "name": "operator",
          "type": "address"
        },
        {
          "internalType": "bool",
          "name": "approved",
          "type": "bool"
        }
      ],
      "name": "setApprovalForAll",
      "outputs": [],
      "stateMutability": "nonpayable",
      "type": "function"
    },
    {
      "inputs": [
        {
          "internalType": "bytes4",
          "name": "interfaceId",
          "type": "bytes4"
        }
      ],
      "name": "supportsInterface",
      "outputs": [
        {
          "internalType": "bool",
          "name": "",
          "type": "bool"
        }
      ],
      "stateMutability": "view",
      "type": "function"
    },
    {
      "inputs": [],
      "name": "symbol",
      "outputs": [
        {
          "internalType": "string",
          "name": "",
          "type": "string"
        }
      ],
      "stateMutability": "view",
      "type": "function"
    },
    {
      "inputs": [
        {
          "internalType": "uint256",
          "name": "tokenId",
          "type": "uint256"
        }
      ],
      "name": "tokenURI",
      "outputs": [
        {
          "internalType": "string",
          "name": "",
          "type": "string"
        }
      ],
      "stateMutability": "view",
      "type": "function"
    },
    {
      "inputs": [
        {
          "internalType": "address",
          "name": "from",
          "type": "address"
        },
        {
          "internalType": "address",
          "name": "to",
          "type": "address"
        },
        {
          "internalType": "uint256",
          "name": "tokenId",
          "type": "uint256"
        }
      ],
      "name": "transferFrom",
      "outputs": [],
      "stateMutability": "nonpayable",
      "type": "function"
    },
    {
      "inputs": [
        {
          "internalType": "uint256",
          "name": "listingId",
          "type": "uint256"
        }
      ],
      "name": "withdrawBid",
      "outputs": [],
      "stateMutability": "payable",
      "type": "function"
    }
  ],
  "bytecode": "0x6080604052600a6012553480156200001657600080fd5b50604080518082018252601581527f506f6c79676f6e4e46544d61726b6574706c61636500000000000000000000006020808301918252835180850190945260048452634441524b60e01b90840152815191929162000078916000916200009c565b5080516200008e9060019060208401906200009c565b50506001600755506200017f565b828054620000aa9062000142565b90600052602060002090601f016020900481019282620000ce576000855562000119565b82601f10620000e957805160ff191683800117855562000119565b8280016001018555821562000119579182015b8281111562000119578251825591602001919060010190620000fc565b50620001279291506200012b565b5090565b5b808211156200012757600081556001016200012c565b600181811c908216806200015757607f821691505b602082108114156200017957634e487b7160e01b600052602260045260246000fd5b50919050565b614349806200018f6000396000f3fe6080604052600436106102ff5760003560e01c806370a0823111610190578063adc2524c116100dc578063de74e57b11610095578063e985e9c51161006f578063e985e9c514610a23578063edf2ebcc14610a6c578063f67a769c14610a83578063fad266fe14610a9857600080fd5b8063de74e57b1461098b578063e57a497a146109c0578063e877d3f8146109f657600080fd5b8063adc2524c1461088c578063b27dce81146108d1578063b820a6d1146108f3578063b88d4fde14610915578063c750cb7914610935578063c87b56dd1461096b57600080fd5b806395d89b4111610149578063a22cb46511610123578063a22cb46514610829578063a4fdb63514610849578063a71ffa7614610860578063a9c63aa01461087757600080fd5b806395d89b41146107ec5780639b1225c4146108015780639d6e5fb31461081457600080fd5b806370a082311461071f578063732e8d731461073f578063740db280146107545780637aea3738146107695780638055ccaa1461079657806392a374b7146107cc57600080fd5b8063330241001161024f5780634945dcdd116102085780636352211e116101e25780636352211e146106555780636b8c91cb146106755780636c2c9c7d146106f2578063708d4d351461070957600080fd5b80634945dcdd1461060957806359be5e451461062b578063629cb2e41461064057600080fd5b806333024100146104d7578063356e93921461056857806336ad658f1461058957806342842e0e146105a0578063451df52e146105c0578063454a2ab3146105f657600080fd5b80630cb5f653116102bc57806321b628861161029657806321b628861461045b57806323b872dd1461046e57806324f8515b1461048e578063287906b5146104b557600080fd5b80630cb5f653146103f55780630eaaf4c8146104155780631389b1171461042857600080fd5b806301ffc9a71461030457806306fdde0314610339578063081812fc1461035b578063095ea7b3146103935780630ad48628146103b55780630ad52cc6146103d5575b600080fd5b34801561031057600080fd5b5061032461031f366004613c29565b610aaf565b60405190151581526020015b60405180910390f35b34801561034557600080fd5b5061034e610ada565b6040516103309190614078565b34801561036757600080fd5b5061037b610376366004613ccb565b610b6c565b6040516001600160a01b039091168152602001610330565b34801561039f57600080fd5b506103b36103ae366004613c00565b610b93565b005b3480156103c157600080fd5b506103246103d0366004613ccb565b610cae565b3480156103e157600080fd5b5061034e6103f0366004613ccb565b610ce2565b34801561040157600080fd5b506103b3610410366004613ac6565b610d7c565b6103b3610423366004613ccb565b610e3c565b34801561043457600080fd5b50610324610443366004613ccb565b60009081526013602052604090206006015442101590565b6103b3610469366004613ccb565b611029565b34801561047a57600080fd5b506103b3610489366004613b12565b6112bd565b34801561049a57600080fd5b506104a3600181565b60405160ff9091168152602001610330565b3480156104c157600080fd5b506104ca6112ee565b6040516103309190613ed8565b3480156104e357600080fd5b506105326104f2366004613ccb565b600f602052600090815260409020805460018201546002830154600390930154919290916001600160a01b0391821691811690600160a01b900460ff1685565b6040805195865260208601949094526001600160a01b03928316938501939093521660608301521515608082015260a001610330565b61057b610576366004613c61565b611580565b604051908152602001610330565b34801561059557600080fd5b5060085461057b9081565b3480156105ac57600080fd5b506103b36105bb366004613b12565b61174a565b3480156105cc57600080fd5b5061037b6105db366004613ccb565b6014602052600090815260409020546001600160a01b031681565b6103b3610604366004613ccb565b611765565b34801561061557600080fd5b5061061e611ab3565b6040516103309190613fba565b34801561063757600080fd5b5061057b611d67565b34801561064c57600080fd5b506104ca611d77565b34801561066157600080fd5b5061037b610670366004613ccb565b612012565b34801561068157600080fd5b506106c3610690366004613ccb565b6016602052600090815260409020805460018201546002830154600390930154919290916001600160a01b039091169084565b604051610330949392919093845260208401929092526001600160a01b03166040830152606082015260800190565b3480156106fe57600080fd5b50600b5461057b9081565b34801561071557600080fd5b5061057b60125481565b34801561072b57600080fd5b5061057b61073a366004613ac6565b612072565b34801561074b57600080fd5b506104ca6120f8565b34801561076057600080fd5b506104a3600081565b34801561077557600080fd5b5061057b610784366004613ccb565b60009081526015602052604090205490565b3480156107a257600080fd5b5061037b6107b1366004613ccb565b6011602052600090815260409020546001600160a01b031681565b3480156107d857600080fd5b5061057b6107e7366004613d04565b61237f565b3480156107f857600080fd5b5061034e6124e9565b6103b361080f366004613ccb565b6124f8565b34801561082057600080fd5b5061057b6126f1565b34801561083557600080fd5b506103b3610844366004613bc6565b6126fc565b34801561085557600080fd5b50600c5461057b9081565b34801561086c57600080fd5b50600d5461057b9081565b34801561088357600080fd5b5061057b61270b565b34801561089857600080fd5b506103b36108a7366004613ce3565b6000908152600e602052604090206001810191909155600601805462ff0000191662010000179055565b3480156108dd57600080fd5b506108e6612716565b6040516103309190613e67565b3480156108ff57600080fd5b5061090861290c565b6040516103309190613dfa565b34801561092157600080fd5b506103b3610930366004613b4d565b612ae1565b34801561094157600080fd5b5061037b610950366004613ccb565b6000908152601460205260409020546001600160a01b031690565b34801561097757600080fd5b5061034e610986366004613ccb565b612b19565b34801561099757600080fd5b506109ab6109a6366004613ccb565b612c22565b6040516103309998979695949392919061416f565b3480156109cc57600080fd5b506109e06109db366004613ccb565b612d01565b6040516103309a999897969594939291906141cd565b348015610a0257600080fd5b5061057b610a11366004613ccb565b60156020526000908152604090205481565b348015610a2f57600080fd5b50610324610a3e366004613ae0565b6001600160a01b03918216600090815260056020908152604080832093909416825291909152205460ff1690565b348015610a7857600080fd5b5060095461057b9081565b348015610a8f57600080fd5b5061057b612df1565b348015610aa457600080fd5b50600a5461057b9081565b60006001600160e01b03198216632483248360e11b1480610ad45750610ad482612dfc565b92915050565b606060008054610ae99061427b565b80601f0160208091040260200160405190810160405280929190818152602001828054610b159061427b565b8015610b625780601f10610b3757610100808354040283529160200191610b62565b820191906000526020600020905b815481529060010190602001808311610b4557829003601f168201915b5050505050905090565b6000610b7782612e4c565b506000908152600460205260409020546001600160a01b031690565b6000610b9e82612012565b9050806001600160a01b0316836001600160a01b03161415610c115760405162461bcd60e51b815260206004820152602160248201527f4552433732313a20617070726f76616c20746f2063757272656e74206f776e656044820152603960f91b60648201526084015b60405180910390fd5b336001600160a01b0382161480610c2d5750610c2d8133610a3e565b610c9f5760405162461bcd60e51b815260206004820152603d60248201527f4552433732313a20617070726f76652063616c6c6572206973206e6f7420746f60448201527f6b656e206f776e6572206f7220617070726f76656420666f7220616c6c0000006064820152608401610c08565b610ca98383612eab565b505050565b6000818152601360205260408120600801546001148015610ad4575050600090815260136020526040902060060154421090565b60106020526000908152604090208054610cfb9061427b565b80601f0160208091040260200160405190810160405280929190818152602001828054610d279061427b565b8015610d745780601f10610d4957610100808354040283529160200191610d74565b820191906000526020600020905b815481529060010190602001808311610d5757829003601f168201915b505050505081565b6000610d87600d5490565b90506000805b82811015610dee576001600160a01b03841660116000610dae846001614237565b81526020810191909152604001600020546001600160a01b03161415610ddc57610dd9600183614237565b91505b80610de6816142b6565b915050610d8d565b5080610ca957610e02600d80546001019055565b6000610e0d600d5490565b600090815260116020526040902080546001600160a01b0386166001600160a01b031990911617905550505050565b610e44612f19565b600081815260136020526040902060060154421015610e9d5760405162461bcd60e51b8152602060048201526015602482015274185d58dd1a5bdb881b5d5cdd08189948195b991959605a1b6044820152606401610c08565b6000818152601460205260409020546001600160a01b0316331415610f0f5760405162461bcd60e51b815260206004820152602260248201527f68696768657374206269646465722063616e6e6f7420776974686472617720626044820152611a5960f21b6064820152608401610c08565b6000610f1a600c5490565b90506000805b82811015610feb573360166000610f38846001614237565b81526020810191909152604001600020600201546001600160a01b0316148015610f81575060166000610f6c836001614237565b81526020019081526020016000206001015484145b15610fd95760166000610f95836001614237565b81526020019081526020016000206003015482610fb29190614237565b91506000601681610fc4846001614237565b81526020810191909152604001600020600301555b80610fe3816142b6565b915050610f20565b50604051339082156108fc029083906000818181858888f19350505050158015611019573d6000803e3d6000fd5b5050506110266001600755565b50565b611031612f19565b61103a81610cae565b1561107f5760405162461bcd60e51b815260206004820152601560248201527430bab1ba34b7b71034b99039ba34b6361037b832b760591b6044820152606401610c08565b600081815260136020908152604080832060149092529091205460018201546001600160a01b0391821691163314806110c05750336001600160a01b038216145b61111f5760405162461bcd60e51b815260206004820152602a60248201527f6f6e6c792073656c6c6572206f722077696e6e65722063616e20636f6d706c656044820152693a329030bab1ba34b7b760b11b6064820152608401610c08565b60008381526015602052604090205460028301548161116557600060088501819055818152600e6020526040812060068101805463ff00000019169055600201556112af565b600184015460028501546001600160a01b03909116906111889082908690612f73565b6040516001600160a01b0382169084156108fc029085906000818181858888f193505050501580156111be573d6000803e3d6000fd5b506111cd600980546001019055565b60006111d860095490565b6040805160a08101825285815260208082018881526001600160a01b0396871683850190815233606085019081526001608086018181526000988952600f865287892096518755935186820155915160028087018054928c166001600160a01b031993841617905591516003909601805494511515600160a01b026001600160a81b0319909516968b1696909617939093179094558b018054978b1697821688179055878552600e9091529183206004810180549093169095179091556008880182905583015550600601805463ff000000191690555b505050506110266001600755565b6112c733826130d7565b6112e35760405162461bcd60e51b8152600401610c089061408b565b610ca9838383612f73565b606060006112fb60085490565b905060008060005b8381101561135457600e600061131a836001614237565b815260200190815260200160002060050154600114156113425761133f600184614237565b92505b61134d600182614237565b9050611303565b5060008267ffffffffffffffff81111561137e57634e487b7160e01b600052604160045260246000fd5b6040519080825280602002602001820160405280156113b757816020015b6113a4613929565b81526020019060019003908161139c5790505b50905060005b84811015611577576000600e816113d5846001614237565b81526020019081526020016000209050600e60008360016113f69190614237565b8152602001908152602001600020600501546001141561156457806040518061014001604052908160008201548152602001600182015481526020016002820154815260200160038201805461144b9061427b565b80601f01602080910402602001604051908101604052809291908181526020018280546114779061427b565b80156114c45780601f10611499576101008083540402835291602001916114c4565b820191906000526020600020905b8154815290600101906020018083116114a757829003601f168201915b505050918352505060048201546001600160a01b031660208201526005820154604082015260069091015460ff8082161515606084015261010082048116151560808401526201000082048116151560a0840152630100000090910416151560c090910152835184908690811061154b57634e487b7160e01b600052603260045260246000fd5b6020908102919091010152611561600185614237565b93505b50611570600182614237565b90506113bd565b50949350505050565b60008061158c60085490565b9050606060005b828110156116e557601060006115aa836001614237565b815260200190815260200160002080546115c39061427b565b80601f01602080910402602001604051908101604052809291908181526020018280546115ef9061427b565b801561163c5780601f106116115761010080835404028352916020019161163c565b820191906000526020600020905b81548152906001019060200180831161161f57829003601f168201915b50505050509150856040516020016116549190613d7c565b604051602081830303815290604052805190602001208260405160200161167b9190613d7c565b6040516020818303038152906040528051906020012014156116d35760405162461bcd60e51b815260206004820152601160248201527013919508185b1c9958591e48195e1a5cdd607a1b6044820152606401610c08565b806116dd816142b6565b915050611593565b506116f4600880546001019055565b60006116ff60085490565b905061170b3382613155565b611715818861316f565b600081815260106020908152604090912087516117349289019061397c565b50611740818688613241565b9695505050505050565b610ca983838360405180602001604052806000815250612ae1565b61176d612f19565b61177681610cae565b6117b65760405162461bcd60e51b8152602060048201526011602482015270185d58dd1a5bdb881a185cc8195b991959607a1b6044820152606401610c08565b60008181526013602052604090206003015434116118165760405162461bcd60e51b815260206004820152601f60248201527f56616c756520697320736d616c6c6572207468616e206269642076616c7565006044820152606401610c08565b6000818152601360205260409020600101546001600160a01b03163314156118805760405162461bcd60e51b815260206004820152601a60248201527f796f752063616e27742062696420796f7572206f776e206e66740000000000006044820152606401610c08565b60008060005b600c548110156119c1576016600061189f836001614237565b81526020810191909152604001600020600201546001600160a01b0316331480156118e95750601660006118d4836001614237565b81526020019081526020016000206001015484145b156119af5734601660006118fe846001614237565b8152602001908152602001600020600301600082825461191e9190614237565b909155505060008481526015602052604081205460019450925082906016906119478487614237565b81526020019081526020016000206003015411156119af57600084815260146020526040812080546001600160a01b0319163317905560169061198b836001614237565b81526020808201929092526040908101600090812060030154878252601590935220555b806119b9816142b6565b915050611886565b5081611a9e576119d5600c80546001019055565b60006119e0600c5490565b6040805160808101825260008781526013602090815283822060029081015484528184018a8152338587019081523460608701818152898752601686528887209751885592516001880155905192860180546001600160a01b0319166001600160a01b0390941693909317909255516003909401939093558882526015905291909120549350909150821015611a9c57600084815260146020908152604080832080546001600160a01b03191633179055601590915290203490555b505b611aa733610d7c565b50506110266001600755565b60606000611ac0600b5490565b905060008060005b83811015611b185760136000611adf836001614237565b815260200190815260200160002060030154600014611b0657611b03600184614237565b92505b611b11600182614237565b9050611ac8565b5060008267ffffffffffffffff811115611b4257634e487b7160e01b600052604160045260246000fd5b604051908082528060200260200182016040528015611bcb57816020015b611bb86040518061012001604052806000815260200160006001600160a01b03168152602001600081526020016000815260200160008152602001600081526020016000815260200160608152602001600081525090565b815260200190600190039081611b605790505b50905060005b84811015611577576000601381611be9846001614237565b8152602001908152602001600020905060136000836001611c0a9190614237565b815260200190815260200160002060030154600014611d545760408051610120810182528254815260018301546001600160a01b031660208201526002830154918101919091526003820154606082015260048201546080820152600582015460a0820152600682015460c0820152600782018054839160e0840191611c8f9061427b565b80601f0160208091040260200160405190810160405280929190818152602001828054611cbb9061427b565b8015611d085780601f10611cdd57610100808354040283529160200191611d08565b820191906000526020600020905b815481529060010190602001808311611ceb57829003601f168201915b50505050508152602001600882015481525050838581518110611d3b57634e487b7160e01b600052603260045260246000fd5b6020908102919091010152611d51600185614237565b93505b50611d60600182614237565b9050611bd1565b6000611d7260095490565b905090565b60606000611d8460085490565b9050600080805b83811015611de65733600e6000611da3846001614237565b81526020810191909152604001600020600401546001600160a01b03161415611dd45781611dd0816142b6565b9250505b80611dde816142b6565b915050611d8b565b5060008167ffffffffffffffff811115611e1057634e487b7160e01b600052604160045260246000fd5b604051908082528060200260200182016040528015611e4957816020015b611e36613929565b815260200190600190039081611e2e5790505b50905060005b848110156115775733600e6000611e67846001614237565b81526020810191909152604001600020600401546001600160a01b03161415612000576000600e81611e9a846001614237565b815260200190815260200160002090508060405180610140016040529081600082015481526020016001820154815260200160028201548152602001600382018054611ee59061427b565b80601f0160208091040260200160405190810160405280929190818152602001828054611f119061427b565b8015611f5e5780601f10611f3357610100808354040283529160200191611f5e565b820191906000526020600020905b815481529060010190602001808311611f4157829003601f168201915b505050918352505060048201546001600160a01b031660208201526005820154604082015260069091015460ff8082161515606084015261010082048116151560808401526201000082048116151560a0840152630100000090910416151560c0909101528351849087908110611fe557634e487b7160e01b600052603260045260246000fd5b60200260200101819052508480611ffb906142b6565b955050505b8061200a816142b6565b915050611e4f565b6000818152600260205260408120546001600160a01b031680610ad45760405162461bcd60e51b8152602060048201526018602482015277115490cdcc8c4e881a5b9d985b1a59081d1bdad95b88125160421b6044820152606401610c08565b60006001600160a01b0382166120dc5760405162461bcd60e51b815260206004820152602960248201527f4552433732313a2061646472657373207a65726f206973206e6f7420612076616044820152683634b21037bbb732b960b91b6064820152608401610c08565b506001600160a01b031660009081526003602052604090205490565b6060600061210560085490565b905060008060005b8381101561215d57600e6000612124836001614237565b81526020019081526020016000206001015460001461214b57612148600184614237565b92505b612156600182614237565b905061210d565b5060008267ffffffffffffffff81111561218757634e487b7160e01b600052604160045260246000fd5b6040519080825280602002602001820160405280156121c057816020015b6121ad613929565b8152602001906001900390816121a55790505b50905060005b84811015611577576000600e816121de846001614237565b81526020019081526020016000209050600e60008360016121ff9190614237565b81526020019081526020016000206001015460001461236c5780604051806101400160405290816000820154815260200160018201548152602001600282015481526020016003820180546122539061427b565b80601f016020809104026020016040519081016040528092919081815260200182805461227f9061427b565b80156122cc5780601f106122a1576101008083540402835291602001916122cc565b820191906000526020600020905b8154815290600101906020018083116122af57829003601f168201915b505050918352505060048201546001600160a01b031660208201526005820154604082015260069091015460ff8082161515606084015261010082048116151560808401526201000082048116151560a0840152630100000090910416151560c090910152835184908690811061235357634e487b7160e01b600052603260045260246000fd5b6020908102919091010152612369600185614237565b93505b50612378600182614237565b90506121c6565b600061238f600b80546001019055565b600061239a600b5490565b90504260006123a98683614237565b905087600e600089815260200190815260200160002060020181905550604051806101200160405280848152602001336001600160a01b03168152602001888152602001898152602001898152602001838152602001828152602001868152602001600160ff16815250601360008581526020019081526020016000206000820151816000015560208201518160010160006101000a8154816001600160a01b0302191690836001600160a01b0316021790555060408201518160020155606082015181600301556080820151816004015560a0820151816005015560c0820151816006015560e08201518160070190805190602001906124ab92919061397c565b50610100919091015160089091015550506000858152600e60205260409020600601805463ff0000001916630100000017905590505b949350505050565b606060018054610ae99061427b565b6000818152600e6020526040902060018101546004909101546001600160a01b03163314156125695760405162461bcd60e51b815260206004820152601a60248201527f796f752063616e27742062757920796f7572206f776e206e66740000000000006044820152606401610c08565b6000828152600e60205260409020600401546001600160a01b031661258f813385612f73565b6125998184610b93565b6000838152600e60205260408082206004810180546001600160a01b03191633179055600601805461010161ffff19909116179055516001600160a01b038316913480156108fc02929091818181858888f19350505050158015612601573d6000803e3d6000fd5b50612610600980546001019055565b600061261b60095490565b6040805160a08101825286815260208082018781526001600160a01b03808816848601908152336060860181815260016080880181815260008b8152600f89528a812099518a5596518983015593516002890180549187166001600160a01b031990921691909117905590516003909701805493511515600160a01b026001600160a81b0319909416979094169690961791909117909155898252600e909252928320909101919091559091506126d190610d7c565b5050506000908152600e60205260409020600601805462ff000019169055565b6000611d72600c5490565b612707338383613368565b5050565b6000611d72600d5490565b6060600061272360095490565b9050600080805b838110156127855733600f6000612742846001614237565b81526020810191909152604001600020600201546001600160a01b03161415612773578161276f816142b6565b9250505b8061277d816142b6565b91505061272a565b5060008167ffffffffffffffff8111156127af57634e487b7160e01b600052604160045260246000fd5b60405190808252806020026020018201604052801561280857816020015b6040805160a0810182526000808252602080830182905292820181905260608201819052608082015282526000199092019101816127cd5790505b50905060005b848110156115775733600f6000612826846001614237565b81526020810191909152604001600020600201546001600160a01b031614156128fa576000600f81612859846001614237565b81526020808201929092526040908101600020815160a0810183528154815260018201549381019390935260028101546001600160a01b039081169284019290925260038101549182166060840152600160a01b90910460ff161515608083015284519092508490879081106128df57634e487b7160e01b600052603260045260246000fd5b602002602001018190525084806128f5906142b6565b955050505b80612904816142b6565b91505061280e565b60606000612919600c5490565b9050600080805b838110156129705760166000612937836001614237565b81526020019081526020016000206003015460001461295e578161295a816142b6565b9250505b80612968816142b6565b915050612920565b5060008167ffffffffffffffff81111561299a57634e487b7160e01b600052604160045260246000fd5b6040519080825280602002602001820160405280156129ff57816020015b6129ec6040518060800160405280600081526020016000815260200160006001600160a01b03168152602001600081525090565b8152602001906001900390816129b85790505b50905060005b848110156115775760166000612a1c836001614237565b815260200190815260200160002060030154600014612acf576000601681612a45846001614237565b8152602080820192909252604090810160002081516080810183528154815260018201549381019390935260028101546001600160a01b031691830191909152600381015460608301528451909250849087908110612ab457634e487b7160e01b600052603260045260246000fd5b60200260200101819052508480612aca906142b6565b955050505b80612ad9816142b6565b915050612a05565b612aeb33836130d7565b612b075760405162461bcd60e51b8152600401610c089061408b565b612b1384848484613437565b50505050565b6060612b2482612e4c565b60008281526006602052604081208054612b3d9061427b565b80601f0160208091040260200160405190810160405280929190818152602001828054612b699061427b565b8015612bb65780601f10612b8b57610100808354040283529160200191612bb6565b820191906000526020600020905b815481529060010190602001808311612b9957829003601f168201915b505050505090506000612bd460408051602081019091526000815290565b9050805160001415612be7575092915050565b815115612c19578082604051602001612c01929190613d98565b60405160208183030381529060405292505050919050565b6124e18461346a565b6013602052600090815260409020805460018201546002830154600384015460048501546005860154600687015460078801805497986001600160a01b03909716979596949593949293919291612c789061427b565b80601f0160208091040260200160405190810160405280929190818152602001828054612ca49061427b565b8015612cf15780601f10612cc657610100808354040283529160200191612cf1565b820191906000526020600020905b815481529060010190602001808311612cd457829003601f168201915b5050505050908060080154905089565b600e60205260009081526040902080546001820154600283015460038401805493949293919291612d319061427b565b80601f0160208091040260200160405190810160405280929190818152602001828054612d5d9061427b565b8015612daa5780601f10612d7f57610100808354040283529160200191612daa565b820191906000526020600020905b815481529060010190602001808311612d8d57829003601f168201915b505050506004830154600584015460069094015492936001600160a01b039091169290915060ff80821691610100810482169162010000820481169163010000009004168a565b6000611d7260085490565b60006001600160e01b031982166380ac58cd60e01b1480612e2d57506001600160e01b03198216635b5e139f60e01b145b80610ad457506301ffc9a760e01b6001600160e01b0319831614610ad4565b6000818152600260205260409020546001600160a01b03166110265760405162461bcd60e51b8152602060048201526018602482015277115490cdcc8c4e881a5b9d985b1a59081d1bdad95b88125160421b6044820152606401610c08565b600081815260046020526040902080546001600160a01b0319166001600160a01b0384169081179091558190612ee082612012565b6001600160a01b03167f8c5be1e5ebec7d5bd14f71427d1e84f3dd0314c0f7b2291e5b200ac8c7c3b92560405160405180910390a45050565b60026007541415612f6c5760405162461bcd60e51b815260206004820152601f60248201527f5265656e7472616e637947756172643a207265656e7472616e742063616c6c006044820152606401610c08565b6002600755565b826001600160a01b0316612f8682612012565b6001600160a01b031614612fac5760405162461bcd60e51b8152600401610c089061412a565b6001600160a01b03821661300e5760405162461bcd60e51b8152602060048201526024808201527f4552433732313a207472616e7366657220746f20746865207a65726f206164646044820152637265737360e01b6064820152608401610c08565b826001600160a01b031661302182612012565b6001600160a01b0316146130475760405162461bcd60e51b8152600401610c089061412a565b600081815260046020908152604080832080546001600160a01b03199081169091556001600160a01b0387811680865260038552838620805460001901905590871680865283862080546001019055868652600290945282852080549092168417909155905184937fddf252ad1be2c89b69c2b068fc378daa952ba7f163c4a11628f55a4df523b3ef91a4505050565b6000806130e383612012565b9050806001600160a01b0316846001600160a01b0316148061312a57506001600160a01b0380821660009081526005602090815260408083209388168352929052205460ff165b806124e15750836001600160a01b031661314384610b6c565b6001600160a01b031614949350505050565b6127078282604051806020016040528060008152506134de565b6000828152600260205260409020546001600160a01b03166131ea5760405162461bcd60e51b815260206004820152602e60248201527f45524337323155524953746f726167653a2055524920736574206f66206e6f6e60448201526d32bc34b9ba32b73a103a37b5b2b760911b6064820152608401610c08565b600082815260066020908152604090912082516132099284019061397c565b506040518281527ff8e1a15aba9398e019f0b49df1a4fde98ee17ae345cb5f6b5e2c27f5033e8ce79060200160405180910390a15050565b6040805161014081018252848152600060208083018281528385018381526060850187815233608087015260a0860189905260c0860185905260e0860185905261010086018590526101208601859052898552600e84529590932084518155905160018201559151600283015592518051929391926132c6926003850192019061397c565b5060808201516004820180546001600160a01b0319166001600160a01b0390921691909117905560a0820151600582015560c08201516006909101805460e0840151610100808601516101209096015161ffff1990931694151561ff001916949094179015159093029290921763ffff00001916620100009315159390930263ff000000191692909217630100000091151591909102179055610ca933610d7c565b816001600160a01b0316836001600160a01b031614156133ca5760405162461bcd60e51b815260206004820152601960248201527f4552433732313a20617070726f766520746f2063616c6c6572000000000000006044820152606401610c08565b6001600160a01b03838116600081815260056020908152604080832094871680845294825291829020805460ff191686151590811790915591519182527f17307eab39ab6107e8899845ad3d59bd9653f200f220920489ca2b5937696c31910160405180910390a3505050565b613442848484612f73565b61344e84848484613511565b612b135760405162461bcd60e51b8152600401610c08906140d8565b606061347582612e4c565b600061348c60408051602081019091526000815290565b905060008151116134ac57604051806020016040528060008152506134d7565b806134b68461361b565b6040516020016134c7929190613d98565b6040516020818303038152906040525b9392505050565b6134e883836136c6565b6134f56000848484613511565b610ca95760405162461bcd60e51b8152600401610c08906140d8565b60006001600160a01b0384163b1561361357604051630a85bd0160e11b81526001600160a01b0385169063150b7a0290613555903390899088908890600401613dc7565b602060405180830381600087803b15801561356f57600080fd5b505af192505050801561359f575060408051601f3d908101601f1916820190925261359c91810190613c45565b60015b6135f9573d8080156135cd576040519150601f19603f3d011682016040523d82523d6000602084013e6135d2565b606091505b5080516135f15760405162461bcd60e51b8152600401610c08906140d8565b805181602001fd5b6001600160e01b031916630a85bd0160e11b1490506124e1565b5060016124e1565b6060600061362883613851565b600101905060008167ffffffffffffffff81111561365657634e487b7160e01b600052604160045260246000fd5b6040519080825280601f01601f191660200182016040528015613680576020820181803683370190505b5090508181016020015b600019016f181899199a1a9b1b9c1cb0b131b232b360811b600a86061a8153600a85049450846136b9576136be565b61368a565b509392505050565b6001600160a01b03821661371c5760405162461bcd60e51b815260206004820181905260248201527f4552433732313a206d696e7420746f20746865207a65726f20616464726573736044820152606401610c08565b6000818152600260205260409020546001600160a01b0316156137815760405162461bcd60e51b815260206004820152601c60248201527f4552433732313a20746f6b656e20616c7265616479206d696e746564000000006044820152606401610c08565b6000818152600260205260409020546001600160a01b0316156137e65760405162461bcd60e51b815260206004820152601c60248201527f4552433732313a20746f6b656e20616c7265616479206d696e746564000000006044820152606401610c08565b6001600160a01b038216600081815260036020908152604080832080546001019055848352600290915280822080546001600160a01b0319168417905551839291907fddf252ad1be2c89b69c2b068fc378daa952ba7f163c4a11628f55a4df523b3ef908290a45050565b60008072184f03e93ff9f4daa797ed6e38ed64bf6a1f0160401b83106138905772184f03e93ff9f4daa797ed6e38ed64bf6a1f0160401b830492506040015b6d04ee2d6d415b85acef810000000083106138bc576d04ee2d6d415b85acef8100000000830492506020015b662386f26fc1000083106138da57662386f26fc10000830492506010015b6305f5e10083106138f2576305f5e100830492506008015b612710831061390657612710830492506004015b60648310613918576064830492506002015b600a8310610ad45760010192915050565b60408051610140810182526000808252602082018190529181018290526060808201526080810182905260a0810182905260c0810182905260e08101829052610100810182905261012081019190915290565b8280546139889061427b565b90600052602060002090601f0160209004810192826139aa57600085556139f0565b82601f106139c357805160ff19168380011785556139f0565b828001600101855582156139f0579182015b828111156139f05782518255916020019190600101906139d5565b506139fc929150613a00565b5090565b5b808211156139fc5760008155600101613a01565b600067ffffffffffffffff80841115613a3057613a306142e7565b604051601f8501601f19908116603f01168101908282118183101715613a5857613a586142e7565b81604052809350858152868686011115613a7157600080fd5b858560208301376000602087830101525050509392505050565b80356001600160a01b0381168114613aa257600080fd5b919050565b600082601f830112613ab7578081fd5b6134d783833560208501613a15565b600060208284031215613ad7578081fd5b6134d782613a8b565b60008060408385031215613af2578081fd5b613afb83613a8b565b9150613b0960208401613a8b565b90509250929050565b600080600060608486031215613b26578081fd5b613b2f84613a8b565b9250613b3d60208501613a8b565b9150604084013590509250925092565b60008060008060808587031215613b62578081fd5b613b6b85613a8b565b9350613b7960208601613a8b565b925060408501359150606085013567ffffffffffffffff811115613b9b578182fd5b8501601f81018713613bab578182fd5b613bba87823560208401613a15565b91505092959194509250565b60008060408385031215613bd8578182fd5b613be183613a8b565b915060208301358015158114613bf5578182fd5b809150509250929050565b60008060408385031215613c12578182fd5b613c1b83613a8b565b946020939093013593505050565b600060208284031215613c3a578081fd5b81356134d7816142fd565b600060208284031215613c56578081fd5b81516134d7816142fd565b600080600060608486031215613c75578283fd5b833567ffffffffffffffff80821115613c8c578485fd5b613c9887838801613aa7565b94506020860135915080821115613cad578384fd5b50613cba86828701613aa7565b925050604084013590509250925092565b600060208284031215613cdc578081fd5b5035919050565b60008060408385031215613cf5578182fd5b50508035926020909101359150565b60008060008060808587031215613d19578384fd5b843593506020850135925060408501359150606085013567ffffffffffffffff811115613d44578182fd5b613bba87828801613aa7565b60008151808452613d6881602086016020860161424f565b601f01601f19169290920160200192915050565b60008251613d8e81846020870161424f565b9190910192915050565b60008351613daa81846020880161424f565b835190830190613dbe81836020880161424f565b01949350505050565b6001600160a01b038581168252841660208201526040810183905260806060820181905260009061174090830184613d50565b602080825282518282018190526000919060409081850190868401855b82811015613e5a578151805185528681015187860152858101516001600160a01b0316868601526060908101519085015260809093019290850190600101613e17565b5091979650505050505050565b602080825282518282018190526000919060409081850190868401855b82811015613e5a578151805185528681015187860152858101516001600160a01b03908116878701526060808301519091169086015260809081015115159085015260a09093019290850190600101613e84565b60006020808301818452808551808352604092508286019150828160051b870101848801865b83811015613fac57603f19898403018552815161014081518552888201518986015287820151888601526060808301518282880152613f3f83880182613d50565b92505050608080830151613f5d828801826001600160a01b03169052565b505060a0828101519086015260c08083015115159086015260e0808301511515908601526101008083015115159086015261012091820151151591909401529386019390860190600101613efe565b509098975050505050505050565b60006020808301818452808551808352604092508286019150828160051b870101848801865b83811015613fac57603f19898403018552815180518452878101516001600160a01b0316888501528681015187850152606080820151908501526080808201519085015260a0808201519085015260c0808201519085015260e080820151610120828701819052919061405583880182613d50565b610100948501519790940196909652505094870194925090860190600101613fe0565b6020815260006134d76020830184613d50565b6020808252602d908201527f4552433732313a2063616c6c6572206973206e6f7420746f6b656e206f776e6560408201526c1c881bdc88185c1c1c9bdd9959609a1b606082015260800190565b60208082526032908201527f4552433732313a207472616e7366657220746f206e6f6e20455243373231526560408201527131b2b4bb32b91034b6b83632b6b2b73a32b960711b606082015260800190565b60208082526025908201527f4552433732313a207472616e736665722066726f6d20696e636f72726563742060408201526437bbb732b960d91b606082015260800190565b60006101208b835260018060a01b038b1660208401528960408401528860608401528760808401528660a08401528560c08401528060e08401526141b581840186613d50565b915050826101008301529a9950505050505050505050565b60006101408c83528b60208401528a60408401528060608401526141f38184018b613d50565b6001600160a01b03999099166080840152505060a081019590955292151560c085015290151560e08401521515610100830152151561012090910152949350505050565b6000821982111561424a5761424a6142d1565b500190565b60005b8381101561426a578181015183820152602001614252565b83811115612b135750506000910152565b600181811c9082168061428f57607f821691505b602082108114156142b057634e487b7160e01b600052602260045260246000fd5b50919050565b60006000198214156142ca576142ca6142d1565b5060010190565b634e487b7160e01b600052601160045260246000fd5b634e487b7160e01b600052604160045260246000fd5b6001600160e01b03198116811461102657600080fdfea2646970667358221220d32a4e07d6ec2a43814b18006dae70b68502385e0b9fde02b1d5f6c92aca651d64736f6c63430008040033",
  "linkReferences": {},
  "deployedLinkReferences": {}
}