{
  "_format": "hh-sol-artifact-1",
  "contractName": "PolygonNFTMarketplace",
  "sourceName": "contracts/PolygonNFTMarketplace.sol",
  "abi": [
    {
      "inputs": [],
      "stateMutability": "nonpayable",
      "type": "constructor"
    },
    {
      "anonymous": false,
      "inputs": [
        {
          "indexed": true,
          "internalType": "address",
          "name": "owner",
          "type": "address"
        },
        {
          "indexed": true,
          "internalType": "address",
          "name": "approved",
          "type": "address"
        },
        {
          "indexed": true,
          "internalType": "uint256",
          "name": "tokenId",
          "type": "uint256"
        }
      ],
      "name": "Approval",
      "type": "event"
    },
    {
      "anonymous": false,
      "inputs": [
        {
          "indexed": true,
          "internalType": "address",
          "name": "owner",
          "type": "address"
        },
        {
          "indexed": true,
          "internalType": "address",
          "name": "operator",
          "type": "address"
        },
        {
          "indexed": false,
          "internalType": "bool",
          "name": "approved",
          "type": "bool"
        }
      ],
      "name": "ApprovalForAll",
      "type": "event"
    },
    {
      "anonymous": false,
      "inputs": [
        {
          "indexed": false,
          "internalType": "uint256",
          "name": "_fromTokenId",
          "type": "uint256"
        },
        {
          "indexed": false,
          "internalType": "uint256",
          "name": "_toTokenId",
          "type": "uint256"
        }
      ],
      "name": "BatchMetadataUpdate",
      "type": "event"
    },
    {
      "anonymous": false,
      "inputs": [
        {
          "indexed": false,
          "internalType": "uint256",
          "name": "_tokenId",
          "type": "uint256"
        }
      ],
      "name": "MetadataUpdate",
      "type": "event"
    },
    {
      "anonymous": false,
      "inputs": [
        {
          "indexed": true,
          "internalType": "address",
          "name": "from",
          "type": "address"
        },
        {
          "indexed": true,
          "internalType": "address",
          "name": "to",
          "type": "address"
        },
        {
          "indexed": true,
          "internalType": "uint256",
          "name": "tokenId",
          "type": "uint256"
        }
      ],
      "name": "Transfer",
      "type": "event"
    },
    {
      "inputs": [
        {
          "internalType": "uint256",
          "name": "tokenId",
          "type": "uint256"
        }
      ],
      "name": "AdminReportNFT",
      "outputs": [],
      "stateMutability": "nonpayable",
      "type": "function"
    },
    {
      "inputs": [],
      "name": "BuyCount",
      "outputs": [
        {
          "internalType": "uint256",
          "name": "_value",
          "type": "uint256"
        }
      ],
      "stateMutability": "view",
      "type": "function"
    },
    {
      "inputs": [
        {
          "internalType": "string",
          "name": "tokenURI",
          "type": "string"
        },
        {
          "internalType": "string",
          "name": "imageHash",
          "type": "string"
        },
        {
          "internalType": "uint256",
          "name": "fileType",
          "type": "uint256"
        }
      ],
      "name": "CreateToken",
      "outputs": [
        {
          "internalType": "uint256",
          "name": "",
          "type": "uint256"
        }
      ],
      "stateMutability": "payable",
      "type": "function"
    },
    {
      "inputs": [
        {
          "internalType": "uint256",
          "name": "",
          "type": "uint256"
        }
      ],
      "name": "Creators",
      "outputs": [
        {
          "internalType": "address",
          "name": "",
          "type": "address"
        }
      ],
      "stateMutability": "view",
      "type": "function"
    },
    {
      "inputs": [],
      "name": "CreatorsCount",
      "outputs": [
        {
          "internalType": "uint256",
          "name": "_value",
          "type": "uint256"
        }
      ],
      "stateMutability": "view",
      "type": "function"
    },
    {
      "inputs": [
        {
          "internalType": "uint256",
          "name": "price",
          "type": "uint256"
        },
        {
          "internalType": "uint256",
          "name": "id",
          "type": "uint256"
        }
      ],
      "name": "ListNFT",
      "outputs": [],
      "stateMutability": "nonpayable",
      "type": "function"
    },
    {
      "inputs": [
        {
          "internalType": "uint256",
          "name": "tokenId",
          "type": "uint256"
        }
      ],
      "name": "RevokeUserReport",
      "outputs": [],
      "stateMutability": "nonpayable",
      "type": "function"
    },
    {
      "inputs": [],
      "name": "STATUS_DONE",
      "outputs": [
        {
          "internalType": "uint8",
          "name": "",
          "type": "uint8"
        }
      ],
      "stateMutability": "view",
      "type": "function"
    },
    {
      "inputs": [],
      "name": "STATUS_OPEN",
      "outputs": [
        {
          "internalType": "uint8",
          "name": "",
          "type": "uint8"
        }
      ],
      "stateMutability": "view",
      "type": "function"
    },
    {
      "inputs": [],
      "name": "SoldCount",
      "outputs": [
        {
          "internalType": "uint256",
          "name": "_value",
          "type": "uint256"
        }
      ],
      "stateMutability": "view",
      "type": "function"
    },
    {
      "inputs": [],
      "name": "TokenCount",
      "outputs": [
        {
          "internalType": "uint256",
          "name": "_value",
          "type": "uint256"
        }
      ],
      "stateMutability": "view",
      "type": "function"
    },
    {
      "inputs": [
        {
          "internalType": "uint256",
          "name": "tokenId",
          "type": "uint256"
        },
        {
          "internalType": "string",
          "name": "reason",
          "type": "string"
        }
      ],
      "name": "UserReportNFT",
      "outputs": [],
      "stateMutability": "nonpayable",
      "type": "function"
    },
    {
      "inputs": [
        {
          "internalType": "address",
          "name": "to",
          "type": "address"
        },
        {
          "internalType": "uint256",
          "name": "tokenId",
          "type": "uint256"
        }
      ],
      "name": "approve",
      "outputs": [],
      "stateMutability": "nonpayable",
      "type": "function"
    },
    {
      "inputs": [
        {
          "internalType": "address",
          "name": "owner",
          "type": "address"
        }
      ],
      "name": "balanceOf",
      "outputs": [
        {
          "internalType": "uint256",
          "name": "",
          "type": "uint256"
        }
      ],
      "stateMutability": "view",
      "type": "function"
    },
    {
      "inputs": [
        {
          "internalType": "uint256",
          "name": "listingId",
          "type": "uint256"
        }
      ],
      "name": "bid",
      "outputs": [],
      "stateMutability": "payable",
      "type": "function"
    },
    {
      "inputs": [],
      "name": "biddingCounter",
      "outputs": [
        {
          "internalType": "uint256",
          "name": "_value",
          "type": "uint256"
        }
      ],
      "stateMutability": "view",
      "type": "function"
    },
    {
      "inputs": [
        {
          "internalType": "uint256",
          "name": "listingId",
          "type": "uint256"
        }
      ],
      "name": "completeAuction",
      "outputs": [],
      "stateMutability": "payable",
      "type": "function"
    },
    {
      "inputs": [
        {
          "internalType": "uint256",
          "name": "price",
          "type": "uint256"
        },
        {
          "internalType": "uint256",
          "name": "tokenId",
          "type": "uint256"
        },
        {
          "internalType": "uint256",
          "name": "deadline",
          "type": "uint256"
        },
        {
          "internalType": "string",
          "name": "aucDate",
          "type": "string"
        }
      ],
      "name": "createAuctionListing",
      "outputs": [
        {
          "internalType": "uint256",
          "name": "",
          "type": "uint256"
        }
      ],
      "stateMutability": "nonpayable",
      "type": "function"
    },
    {
      "inputs": [
        {
          "internalType": "uint256",
          "name": "tokenId",
          "type": "uint256"
        }
      ],
      "name": "executeSale",
      "outputs": [],
      "stateMutability": "payable",
      "type": "function"
    },
    {
      "inputs": [],
      "name": "getAllBiddedNfts",
      "outputs": [
        {
          "components": [
            {
              "internalType": "uint256",
              "name": "biddingId",
              "type": "uint256"
            },
            {
              "internalType": "address payable",
              "name": "seller",
              "type": "address"
            },
            {
              "internalType": "uint256",
              "name": "tokenId",
              "type": "uint256"
            },
            {
              "internalType": "uint256",
              "name": "price",
              "type": "uint256"
            },
            {
              "internalType": "uint256",
              "name": "netPrice",
              "type": "uint256"
            },
            {
              "internalType": "uint256",
              "name": "startAt",
              "type": "uint256"
            },
            {
              "internalType": "uint256",
              "name": "deadline",
              "type": "uint256"
            },
            {
              "internalType": "string",
              "name": "date",
              "type": "string"
            },
            {
              "internalType": "uint256",
              "name": "status",
              "type": "uint256"
            }
          ],
          "internalType": "struct PolygonNFTMarketplace.Listing[]",
          "name": "",
          "type": "tuple[]"
        }
      ],
      "stateMutability": "view",
      "type": "function"
    },
    {
      "inputs": [],
      "name": "getAllBiddingWithListingID",
      "outputs": [
        {
          "components": [
            {
              "internalType": "uint256",
              "name": "tokenId",
              "type": "uint256"
            },
            {
              "internalType": "uint256",
              "name": "biddingId",
              "type": "uint256"
            },
            {
              "internalType": "address",
              "name": "bidder",
              "type": "address"
            },
            {
              "internalType": "uint256",
              "name": "price",
              "type": "uint256"
            }
          ],
          "internalType": "struct PolygonNFTMarketplace.Bidding[]",
          "name": "",
          "type": "tuple[]"
        }
      ],
      "stateMutability": "view",
      "type": "function"
    },
    {
      "inputs": [],
      "name": "getAllImageNfts",
      "outputs": [
        {
          "components": [
            {
              "internalType": "uint256",
              "name": "tokenId",
              "type": "uint256"
            },
            {
              "internalType": "uint256",
              "name": "price",
              "type": "uint256"
            },
            {
              "internalType": "uint256",
              "name": "bidPrice",
              "type": "uint256"
            },
            {
              "internalType": "string",
              "name": "imgHash",
              "type": "string"
            },
            {
              "internalType": "address payable",
              "name": "owner",
              "type": "address"
            },
            {
              "internalType": "uint256",
              "name": "format",
              "type": "uint256"
            },
            {
              "internalType": "bool",
              "name": "NFTsold",
              "type": "bool"
            },
            {
              "internalType": "bool",
              "name": "NFTbought",
              "type": "bool"
            },
            {
              "internalType": "bool",
              "name": "NFTListed",
              "type": "bool"
            },
            {
              "internalType": "bool",
              "name": "NFTBidded",
              "type": "bool"
            },
            {
              "internalType": "bool",
              "name": "UserReportNft",
              "type": "bool"
            },
            {
              "internalType": "bool",
              "name": "AdminReportNft",
              "type": "bool"
            },
            {
              "internalType": "string",
              "name": "ReportMsg",
              "type": "string"
            }
          ],
          "internalType": "struct PolygonNFTMarketplace.ListedToken[]",
          "name": "",
          "type": "tuple[]"
        }
      ],
      "stateMutability": "view",
      "type": "function"
    },
    {
      "inputs": [],
      "name": "getAllNfts",
      "outputs": [
        {
          "components": [
            {
              "internalType": "uint256",
              "name": "tokenId",
              "type": "uint256"
            },
            {
              "internalType": "uint256",
              "name": "price",
              "type": "uint256"
            },
            {
              "internalType": "uint256",
              "name": "bidPrice",
              "type": "uint256"
            },
            {
              "internalType": "string",
              "name": "imgHash",
              "type": "string"
            },
            {
              "internalType": "address payable",
              "name": "owner",
              "type": "address"
            },
            {
              "internalType": "uint256",
              "name": "format",
              "type": "uint256"
            },
            {
              "internalType": "bool",
              "name": "NFTsold",
              "type": "bool"
            },
            {
              "internalType": "bool",
              "name": "NFTbought",
              "type": "bool"
            },
            {
              "internalType": "bool",
              "name": "NFTListed",
              "type": "bool"
            },
            {
              "internalType": "bool",
              "name": "NFTBidded",
              "type": "bool"
            },
            {
              "internalType": "bool",
              "name": "UserReportNft",
              "type": "bool"
            },
            {
              "internalType": "bool",
              "name": "AdminReportNft",
              "type": "bool"
            },
            {
              "internalType": "string",
              "name": "ReportMsg",
              "type": "string"
            }
          ],
          "internalType": "struct PolygonNFTMarketplace.ListedToken[]",
          "name": "",
          "type": "tuple[]"
        }
      ],
      "stateMutability": "view",
      "type": "function"
    },
    {
      "inputs": [
        {
          "internalType": "uint256",
          "name": "tokenId",
          "type": "uint256"
        }
      ],
      "name": "getApproved",
      "outputs": [
        {
          "internalType": "address",
          "name": "",
          "type": "address"
        }
      ],
      "stateMutability": "view",
      "type": "function"
    },
    {
      "inputs": [
        {
          "internalType": "uint256",
          "name": "listingId",
          "type": "uint256"
        }
      ],
      "name": "getHighestBidder",
      "outputs": [
        {
          "internalType": "address",
          "name": "",
          "type": "address"
        }
      ],
      "stateMutability": "view",
      "type": "function"
    },
    {
      "inputs": [
        {
          "internalType": "uint256",
          "name": "listingId",
          "type": "uint256"
        }
      ],
      "name": "getHighestBiddingAmount",
      "outputs": [
        {
          "internalType": "uint256",
          "name": "",
          "type": "uint256"
        }
      ],
      "stateMutability": "view",
      "type": "function"
    },
    {
      "inputs": [],
      "name": "getMyNFTs",
      "outputs": [
        {
          "components": [
            {
              "internalType": "uint256",
              "name": "tokenId",
              "type": "uint256"
            },
            {
              "internalType": "uint256",
              "name": "price",
              "type": "uint256"
            },
            {
              "internalType": "uint256",
              "name": "bidPrice",
              "type": "uint256"
            },
            {
              "internalType": "string",
              "name": "imgHash",
              "type": "string"
            },
            {
              "internalType": "address payable",
              "name": "owner",
              "type": "address"
            },
            {
              "internalType": "uint256",
              "name": "format",
              "type": "uint256"
            },
            {
              "internalType": "bool",
              "name": "NFTsold",
              "type": "bool"
            },
            {
              "internalType": "bool",
              "name": "NFTbought",
              "type": "bool"
            },
            {
              "internalType": "bool",
              "name": "NFTListed",
              "type": "bool"
            },
            {
              "internalType": "bool",
              "name": "NFTBidded",
              "type": "bool"
            },
            {
              "internalType": "bool",
              "name": "UserReportNft",
              "type": "bool"
            },
            {
              "internalType": "bool",
              "name": "AdminReportNft",
              "type": "bool"
            },
            {
              "internalType": "string",
              "name": "ReportMsg",
              "type": "string"
            }
          ],
          "internalType": "struct PolygonNFTMarketplace.ListedToken[]",
          "name": "",
          "type": "tuple[]"
        }
      ],
      "stateMutability": "view",
      "type": "function"
    },
    {
      "inputs": [],
      "name": "getMySoldNFTs",
      "outputs": [
        {
          "components": [
            {
              "internalType": "uint256",
              "name": "tokenId",
              "type": "uint256"
            },
            {
              "internalType": "uint256",
              "name": "price",
              "type": "uint256"
            },
            {
              "internalType": "address payable",
              "name": "owner",
              "type": "address"
            },
            {
              "internalType": "address",
              "name": "newOwner",
              "type": "address"
            },
            {
              "internalType": "bool",
              "name": "NFTsold",
              "type": "bool"
            }
          ],
          "internalType": "struct PolygonNFTMarketplace.ItemsSold[]",
          "name": "",
          "type": "tuple[]"
        }
      ],
      "stateMutability": "view",
      "type": "function"
    },
    {
      "inputs": [],
      "name": "getTotalBiddedTokens",
      "outputs": [
        {
          "internalType": "uint256",
          "name": "",
          "type": "uint256"
        }
      ],
      "stateMutability": "view",
      "type": "function"
    },
    {
      "inputs": [],
      "name": "getTotalMintedTokens",
      "outputs": [
        {
          "internalType": "uint256",
          "name": "",
          "type": "uint256"
        }
      ],
      "stateMutability": "view",
      "type": "function"
    },
    {
      "inputs": [],
      "name": "getTotalSoldTokens",
      "outputs": [
        {
          "internalType": "uint256",
          "name": "",
          "type": "uint256"
        }
      ],
      "stateMutability": "view",
      "type": "function"
    },
    {
      "inputs": [],
      "name": "getTotalUser",
      "outputs": [
        {
          "internalType": "uint256",
          "name": "",
          "type": "uint256"
        }
      ],
      "stateMutability": "view",
      "type": "function"
    },
    {
      "inputs": [
        {
          "internalType": "uint256",
          "name": "",
          "type": "uint256"
        }
      ],
      "name": "highestBidder",
      "outputs": [
        {
          "internalType": "address",
          "name": "",
          "type": "address"
        }
      ],
      "stateMutability": "view",
      "type": "function"
    },
    {
      "inputs": [
        {
          "internalType": "uint256",
          "name": "",
          "type": "uint256"
        }
      ],
      "name": "highestBiddingAmount",
      "outputs": [
        {
          "internalType": "uint256",
          "name": "",
          "type": "uint256"
        }
      ],
      "stateMutability": "view",
      "type": "function"
    },
    {
      "inputs": [
        {
          "internalType": "uint256",
          "name": "",
          "type": "uint256"
        }
      ],
      "name": "idToBiddedToken",
      "outputs": [
        {
          "internalType": "uint256",
          "name": "tokenId",
          "type": "uint256"
        },
        {
          "internalType": "uint256",
          "name": "biddingId",
          "type": "uint256"
        },
        {
          "internalType": "address",
          "name": "bidder",
          "type": "address"
        },
        {
          "internalType": "uint256",
          "name": "price",
          "type": "uint256"
        }
      ],
      "stateMutability": "view",
      "type": "function"
    },
    {
      "inputs": [
        {
          "internalType": "uint256",
          "name": "",
          "type": "uint256"
        }
      ],
      "name": "idToImageHash",
      "outputs": [
        {
          "internalType": "string",
          "name": "",
          "type": "string"
        }
      ],
      "stateMutability": "view",
      "type": "function"
    },
    {
      "inputs": [
        {
          "internalType": "uint256",
          "name": "",
          "type": "uint256"
        }
      ],
      "name": "idToListedToken",
      "outputs": [
        {
          "internalType": "uint256",
          "name": "tokenId",
          "type": "uint256"
        },
        {
          "internalType": "uint256",
          "name": "price",
          "type": "uint256"
        },
        {
          "internalType": "uint256",
          "name": "bidPrice",
          "type": "uint256"
        },
        {
          "internalType": "string",
          "name": "imgHash",
          "type": "string"
        },
        {
          "internalType": "address payable",
          "name": "owner",
          "type": "address"
        },
        {
          "internalType": "uint256",
          "name": "format",
          "type": "uint256"
        },
        {
          "internalType": "bool",
          "name": "NFTsold",
          "type": "bool"
        },
        {
          "internalType": "bool",
          "name": "NFTbought",
          "type": "bool"
        },
        {
          "internalType": "bool",
          "name": "NFTListed",
          "type": "bool"
        },
        {
          "internalType": "bool",
          "name": "NFTBidded",
          "type": "bool"
        },
        {
          "internalType": "bool",
          "name": "UserReportNft",
          "type": "bool"
        },
        {
          "internalType": "bool",
          "name": "AdminReportNft",
          "type": "bool"
        },
        {
          "internalType": "string",
          "name": "ReportMsg",
          "type": "string"
        }
      ],
      "stateMutability": "view",
      "type": "function"
    },
    {
      "inputs": [
        {
          "internalType": "uint256",
          "name": "",
          "type": "uint256"
        }
      ],
      "name": "idToSoldItems",
      "outputs": [
        {
          "internalType": "uint256",
          "name": "tokenId",
          "type": "uint256"
        },
        {
          "internalType": "uint256",
          "name": "price",
          "type": "uint256"
        },
        {
          "internalType": "address payable",
          "name": "owner",
          "type": "address"
        },
        {
          "internalType": "address",
          "name": "newOwner",
          "type": "address"
        },
        {
          "internalType": "bool",
          "name": "NFTsold",
          "type": "bool"
        }
      ],
      "stateMutability": "view",
      "type": "function"
    },
    {
      "inputs": [
        {
          "internalType": "address",
          "name": "owner",
          "type": "address"
        },
        {
          "internalType": "address",
          "name": "operator",
          "type": "address"
        }
      ],
      "name": "isApprovedForAll",
      "outputs": [
        {
          "internalType": "bool",
          "name": "",
          "type": "bool"
        }
      ],
      "stateMutability": "view",
      "type": "function"
    },
    {
      "inputs": [
        {
          "internalType": "uint256",
          "name": "id",
          "type": "uint256"
        }
      ],
      "name": "isAuctionExpired",
      "outputs": [
        {
          "internalType": "bool",
          "name": "",
          "type": "bool"
        }
      ],
      "stateMutability": "view",
      "type": "function"
    },
    {
      "inputs": [
        {
          "internalType": "uint256",
          "name": "id",
          "type": "uint256"
        }
      ],
      "name": "isAuctionOpen",
      "outputs": [
        {
          "internalType": "bool",
          "name": "",
          "type": "bool"
        }
      ],
      "stateMutability": "view",
      "type": "function"
    },
    {
      "inputs": [],
      "name": "listingCounter",
      "outputs": [
        {
          "internalType": "uint256",
          "name": "_value",
          "type": "uint256"
        }
      ],
      "stateMutability": "view",
      "type": "function"
    },
    {
      "inputs": [
        {
          "internalType": "uint256",
          "name": "",
          "type": "uint256"
        }
      ],
      "name": "listings",
      "outputs": [
        {
          "internalType": "uint256",
          "name": "biddingId",
          "type": "uint256"
        },
        {
          "internalType": "address payable",
          "name": "seller",
          "type": "address"
        },
        {
          "internalType": "uint256",
          "name": "tokenId",
          "type": "uint256"
        },
        {
          "internalType": "uint256",
          "name": "price",
          "type": "uint256"
        },
        {
          "internalType": "uint256",
          "name": "netPrice",
          "type": "uint256"
        },
        {
          "internalType": "uint256",
          "name": "startAt",
          "type": "uint256"
        },
        {
          "internalType": "uint256",
          "name": "deadline",
          "type": "uint256"
        },
        {
          "internalType": "string",
          "name": "date",
          "type": "string"
        },
        {
          "internalType": "uint256",
          "name": "status",
          "type": "uint256"
        }
      ],
      "stateMutability": "view",
      "type": "function"
    },
    {
      "inputs": [],
      "name": "minAuctionIncrement",
      "outputs": [
        {
          "internalType": "uint256",
          "name": "",
          "type": "uint256"
        }
      ],
      "stateMutability": "view",
      "type": "function"
    },
    {
      "inputs": [],
      "name": "name",
      "outputs": [
        {
          "internalType": "string",
          "name": "",
          "type": "string"
        }
      ],
      "stateMutability": "view",
      "type": "function"
    },
    {
      "inputs": [
        {
          "internalType": "address",
          "name": "user",
          "type": "address"
        }
      ],
      "name": "newUser",
      "outputs": [],
      "stateMutability": "nonpayable",
      "type": "function"
    },
    {
      "inputs": [
        {
          "internalType": "uint256",
          "name": "tokenId",
          "type": "uint256"
        }
      ],
      "name": "ownerOf",
      "outputs": [
        {
          "internalType": "address",
          "name": "",
          "type": "address"
        }
      ],
      "stateMutability": "view",
      "type": "function"
    },
    {
      "inputs": [
        {
          "internalType": "address",
          "name": "from",
          "type": "address"
        },
        {
          "internalType": "address",
          "name": "to",
          "type": "address"
        },
        {
          "internalType": "uint256",
          "name": "tokenId",
          "type": "uint256"
        }
      ],
      "name": "safeTransferFrom",
      "outputs": [],
      "stateMutability": "nonpayable",
      "type": "function"
    },
    {
      "inputs": [
        {
          "internalType": "address",
          "name": "from",
          "type": "address"
        },
        {
          "internalType": "address",
          "name": "to",
          "type": "address"
        },
        {
          "internalType": "uint256",
          "name": "tokenId",
          "type": "uint256"
        },
        {
          "internalType": "bytes",
          "name": "data",
          "type": "bytes"
        }
      ],
      "name": "safeTransferFrom",
      "outputs": [],
      "stateMutability": "nonpayable",
      "type": "function"
    },
    {
      "inputs": [
        {
          "internalType": "address",
          "name": "operator",
          "type": "address"
        },
        {
          "internalType": "bool",
          "name": "approved",
          "type": "bool"
        }
      ],
      "name": "setApprovalForAll",
      "outputs": [],
      "stateMutability": "nonpayable",
      "type": "function"
    },
    {
      "inputs": [
        {
          "internalType": "bytes4",
          "name": "interfaceId",
          "type": "bytes4"
        }
      ],
      "name": "supportsInterface",
      "outputs": [
        {
          "internalType": "bool",
          "name": "",
          "type": "bool"
        }
      ],
      "stateMutability": "view",
      "type": "function"
    },
    {
      "inputs": [],
      "name": "symbol",
      "outputs": [
        {
          "internalType": "string",
          "name": "",
          "type": "string"
        }
      ],
      "stateMutability": "view",
      "type": "function"
    },
    {
      "inputs": [
        {
          "internalType": "uint256",
          "name": "tokenId",
          "type": "uint256"
        }
      ],
      "name": "tokenURI",
      "outputs": [
        {
          "internalType": "string",
          "name": "",
          "type": "string"
        }
      ],
      "stateMutability": "view",
      "type": "function"
    },
    {
      "inputs": [
        {
          "internalType": "address",
          "name": "from",
          "type": "address"
        },
        {
          "internalType": "address",
          "name": "to",
          "type": "address"
        },
        {
          "internalType": "uint256",
          "name": "tokenId",
          "type": "uint256"
        }
      ],
      "name": "transferFrom",
      "outputs": [],
      "stateMutability": "nonpayable",
      "type": "function"
    },
    {
      "inputs": [
        {
          "internalType": "uint256",
          "name": "listingId",
          "type": "uint256"
        }
      ],
      "name": "withdrawBid",
      "outputs": [],
      "stateMutability": "payable",
      "type": "function"
    }
  ],
  "bytecode": "0x6080604052600a6012553480156200001657600080fd5b50604080518082018252601581527f506f6c79676f6e4e46544d61726b6574706c61636500000000000000000000006020808301918252835180850190945260048452634441524b60e01b90840152815191929162000078916000916200009c565b5080516200008e9060019060208401906200009c565b50506001600755506200017f565b828054620000aa9062000142565b90600052602060002090601f016020900481019282620000ce576000855562000119565b82601f10620000e957805160ff191683800117855562000119565b8280016001018555821562000119579182015b8281111562000119578251825591602001919060010190620000fc565b50620001279291506200012b565b5090565b5b808211156200012757600081556001016200012c565b600181811c908216806200015757607f821691505b602082108114156200017957634e487b7160e01b600052602260045260246000fd5b50919050565b6148cf806200018f6000396000f3fe6080604052600436106103505760003560e01c8063708d4d35116101c6578063a9c63aa0116100f7578063de74e57b11610095578063e985e9c51161006f578063e985e9c514610af8578063edf2ebcc14610b41578063f67a769c14610b58578063fad266fe14610b6d57600080fd5b8063de74e57b14610a5d578063e57a497a14610a92578063e877d3f814610acb57600080fd5b8063b820a6d1116100d1578063b820a6d1146109c5578063b88d4fde146109e7578063c750cb7914610a07578063c87b56dd14610a3d57600080fd5b8063a9c63aa014610949578063adc2524c1461095e578063b27dce81146109a357600080fd5b806392a374b7116101645780639d6e5fb31161013e5780639d6e5fb3146108e6578063a22cb465146108fb578063a4fdb6351461091b578063a71ffa761461093257600080fd5b806392a374b71461089e57806395d89b41146108be5780639b1225c4146108d357600080fd5b8063740db280116101a0578063740db280146108065780637aea37381461081b5780637eb2de12146108485780638055ccaa1461086857600080fd5b8063708d4d35146107bb57806370a08231146107d1578063732e8d73146107f157600080fd5b8063287906b5116102a05780634945dcdd1161023e57806362b3db101161021857806362b3db10146106c65780636352211e146107075780636b8c91cb146107275780636c2c9c7d146107a457600080fd5b80634945dcdd1461067a57806359be5e451461069c578063629cb2e4146106b157600080fd5b806336ad658f1161027a57806336ad658f146105fa57806342842e0e14610611578063451df52e14610631578063454a2ab31461066757600080fd5b8063287906b5146105265780633302410014610548578063356e9392146105d957600080fd5b80630ad52cc61161030d5780631389b117116102e75780631389b1171461049957806321b62886146104cc57806323b872dd146104df57806324f8515b146104ff57600080fd5b80630ad52cc6146104465780630cb5f653146104665780630eaaf4c81461048657600080fd5b806301ffc9a71461035557806306fdde031461038a578063081812fc146103ac578063094efe74146103e4578063095ea7b3146104065780630ad4862814610426575b600080fd5b34801561036157600080fd5b506103756103703660046140f8565b610b84565b60405190151581526020015b60405180910390f35b34801561039657600080fd5b5061039f610baf565b60405161038191906145ce565b3480156103b857600080fd5b506103cc6103c736600461419a565b610c41565b6040516001600160a01b039091168152602001610381565b3480156103f057600080fd5b506104046103ff3660046141b2565b610c68565b005b34801561041257600080fd5b506104046104213660046140cf565b610ca9565b34801561043257600080fd5b5061037561044136600461419a565b610dbf565b34801561045257600080fd5b5061039f61046136600461419a565b610df3565b34801561047257600080fd5b50610404610481366004613f95565b610e8d565b61040461049436600461419a565b610f4d565b3480156104a557600080fd5b506103756104b436600461419a565b60009081526013602052604090206006015442101590565b6104046104da36600461419a565b61113a565b3480156104eb57600080fd5b506104046104fa366004613fe1565b6113ce565b34801561050b57600080fd5b50610514600181565b60405160ff9091168152602001610381565b34801561053257600080fd5b5061053b6113ff565b60405161038191906143f6565b34801561055457600080fd5b506105a361056336600461419a565b600f602052600090815260409020805460018201546002830154600390930154919290916001600160a01b0391821691811690600160a01b900460ff1685565b6040805195865260208601949094526001600160a01b03928316938501939093521660608301521515608082015260a001610381565b6105ec6105e7366004614130565b611746565b604051908152602001610381565b34801561060657600080fd5b506008546105ec9081565b34801561061d57600080fd5b5061040461062c366004613fe1565b61191b565b34801561063d57600080fd5b506103cc61064c36600461419a565b6014602052600090815260409020546001600160a01b031681565b61040461067536600461419a565b611936565b34801561068657600080fd5b5061068f611c84565b6040516103819190614510565b3480156106a857600080fd5b506105ec611f38565b3480156106bd57600080fd5b5061053b611f48565b3480156106d257600080fd5b506104046106e136600461419a565b6000908152600e60205260409020600601805465ff00000000001916600160281b179055565b34801561071357600080fd5b506103cc61072236600461419a565b612298565b34801561073357600080fd5b5061077561074236600461419a565b6016602052600090815260409020805460018201546002830154600390930154919290916001600160a01b039091169084565b604051610381949392919093845260208401929092526001600160a01b03166040830152606082015260800190565b3480156107b057600080fd5b50600b546105ec9081565b3480156107c757600080fd5b506105ec60125481565b3480156107dd57600080fd5b506105ec6107ec366004613f95565b6122f8565b3480156107fd57600080fd5b5061053b61237e565b34801561081257600080fd5b50610514600081565b34801561082757600080fd5b506105ec61083636600461419a565b60009081526015602052604090205490565b34801561085457600080fd5b5061040461086336600461419a565b6126ba565b34801561087457600080fd5b506103cc61088336600461419a565b6011602052600090815260409020546001600160a01b031681565b3480156108aa57600080fd5b506105ec6108b9366004614218565b612705565b3480156108ca57600080fd5b5061039f61286f565b6104046108e136600461419a565b61287e565b3480156108f257600080fd5b506105ec612a77565b34801561090757600080fd5b50610404610916366004614095565b612a82565b34801561092757600080fd5b50600c546105ec9081565b34801561093e57600080fd5b50600d546105ec9081565b34801561095557600080fd5b506105ec612a8d565b34801561096a57600080fd5b506104046109793660046141f7565b6000908152600e602052604090206001810191909155600601805462ff0000191662010000179055565b3480156109af57600080fd5b506109b8612a98565b6040516103819190614385565b3480156109d157600080fd5b506109da612c8e565b6040516103819190614318565b3480156109f357600080fd5b50610404610a0236600461401c565b612e63565b348015610a1357600080fd5b506103cc610a2236600461419a565b6000908152601460205260409020546001600160a01b031690565b348015610a4957600080fd5b5061039f610a5836600461419a565b612e9b565b348015610a6957600080fd5b50610a7d610a7836600461419a565b612fa4565b604051610381999897969594939291906146c5565b348015610a9e57600080fd5b50610ab2610aad36600461419a565b613083565b6040516103819d9c9b9a99989796959493929190614723565b348015610ad757600080fd5b506105ec610ae636600461419a565b60156020526000908152604090205481565b348015610b0457600080fd5b50610375610b13366004613faf565b6001600160a01b03918216600090815260056020908152604080832093909416825291909152205460ff1690565b348015610b4d57600080fd5b506009546105ec9081565b348015610b6457600080fd5b506105ec61321b565b348015610b7957600080fd5b50600a546105ec9081565b60006001600160e01b03198216632483248360e11b1480610ba95750610ba982613226565b92915050565b606060008054610bbe90614801565b80601f0160208091040260200160405190810160405280929190818152602001828054610bea90614801565b8015610c375780601f10610c0c57610100808354040283529160200191610c37565b820191906000526020600020905b815481529060010190602001808311610c1a57829003601f168201915b5050505050905090565b6000610c4c82613276565b506000908152600460205260409020546001600160a01b031690565b6000828152600e6020908152604090912060068101805464ff0000000019166401000000001790558251610ca492600790920191840190613dce565b505050565b6000610cb482612298565b9050806001600160a01b0316836001600160a01b03161415610d275760405162461bcd60e51b815260206004820152602160248201527f4552433732313a20617070726f76616c20746f2063757272656e74206f776e656044820152603960f91b60648201526084015b60405180910390fd5b336001600160a01b0382161480610d435750610d438133610b13565b610db55760405162461bcd60e51b815260206004820152603d60248201527f4552433732313a20617070726f76652063616c6c6572206973206e6f7420746f60448201527f6b656e206f776e6572206f7220617070726f76656420666f7220616c6c0000006064820152608401610d1e565b610ca483836132d5565b6000818152601360205260408120600801546001148015610ba9575050600090815260136020526040902060060154421090565b60106020526000908152604090208054610e0c90614801565b80601f0160208091040260200160405190810160405280929190818152602001828054610e3890614801565b8015610e855780601f10610e5a57610100808354040283529160200191610e85565b820191906000526020600020905b815481529060010190602001808311610e6857829003601f168201915b505050505081565b6000610e98600d5490565b90506000805b82811015610eff576001600160a01b03841660116000610ebf8460016147bd565b81526020810191909152604001600020546001600160a01b03161415610eed57610eea6001836147bd565b91505b80610ef78161483c565b915050610e9e565b5080610ca457610f13600d80546001019055565b6000610f1e600d5490565b600090815260116020526040902080546001600160a01b0386166001600160a01b031990911617905550505050565b610f55613343565b600081815260136020526040902060060154421015610fae5760405162461bcd60e51b8152602060048201526015602482015274185d58dd1a5bdb881b5d5cdd08189948195b991959605a1b6044820152606401610d1e565b6000818152601460205260409020546001600160a01b03163314156110205760405162461bcd60e51b815260206004820152602260248201527f68696768657374206269646465722063616e6e6f7420776974686472617720626044820152611a5960f21b6064820152608401610d1e565b600061102b600c5490565b90506000805b828110156110fc5733601660006110498460016147bd565b81526020810191909152604001600020600201546001600160a01b031614801561109257506016600061107d8360016147bd565b81526020019081526020016000206001015484145b156110ea57601660006110a68360016147bd565b815260200190815260200160002060030154826110c391906147bd565b915060006016816110d58460016147bd565b81526020810191909152604001600020600301555b806110f48161483c565b915050611031565b50604051339082156108fc029083906000818181858888f1935050505015801561112a573d6000803e3d6000fd5b5050506111376001600755565b50565b611142613343565b61114b81610dbf565b156111905760405162461bcd60e51b815260206004820152601560248201527430bab1ba34b7b71034b99039ba34b6361037b832b760591b6044820152606401610d1e565b600081815260136020908152604080832060149092529091205460018201546001600160a01b0391821691163314806111d15750336001600160a01b038216145b6112305760405162461bcd60e51b815260206004820152602a60248201527f6f6e6c792073656c6c6572206f722077696e6e65722063616e20636f6d706c656044820152693a329030bab1ba34b7b760b11b6064820152608401610d1e565b60008381526015602052604090205460028301548161127657600060088501819055818152600e6020526040812060068101805463ff00000019169055600201556113c0565b600184015460028501546001600160a01b0390911690611299908290869061339d565b6040516001600160a01b0382169084156108fc029085906000818181858888f193505050501580156112cf573d6000803e3d6000fd5b506112de600980546001019055565b60006112e960095490565b6040805160a08101825285815260208082018881526001600160a01b0396871683850190815233606085019081526001608086018181526000988952600f865287892096518755935186820155915160028087018054928c166001600160a01b031993841617905591516003909601805494511515600160a01b026001600160a81b0319909516968b1696909617939093179094558b018054978b1697821688179055878552600e9091529183206004810180549093169095179091556008880182905583015550600601805463ff000000191690555b505050506111376001600755565b6113d83382613501565b6113f45760405162461bcd60e51b8152600401610d1e906145e1565b610ca483838361339d565b6060600061140c60085490565b905060008060005b8381101561146557600e600061142b8360016147bd565b81526020019081526020016000206005015460011415611453576114506001846147bd565b92505b61145e6001826147bd565b9050611414565b5060008267ffffffffffffffff81111561148f57634e487b7160e01b600052604160045260246000fd5b6040519080825280602002602001820160405280156114c857816020015b6114b5613e52565b8152602001906001900390816114ad5790505b50905060005b8481101561173d576000600e816114e68460016147bd565b81526020019081526020016000209050600e600083600161150791906147bd565b8152602001908152602001600020600501546001141561172a5780604051806101a001604052908160008201548152602001600182015481526020016002820154815260200160038201805461155c90614801565b80601f016020809104026020016040519081016040528092919081815260200182805461158890614801565b80156115d55780601f106115aa576101008083540402835291602001916115d5565b820191906000526020600020905b8154815290600101906020018083116115b857829003601f168201915b505050918352505060048201546001600160a01b0316602082015260058201546040820152600682015460ff808216151560608401526101008083048216151560808501526201000083048216151560a0850152630100000083048216151560c085015264010000000083048216151560e0850152600160281b909204161515908201526007820180546101209092019161166f90614801565b80601f016020809104026020016040519081016040528092919081815260200182805461169b90614801565b80156116e85780601f106116bd576101008083540402835291602001916116e8565b820191906000526020600020905b8154815290600101906020018083116116cb57829003601f168201915b50505050508152505083858151811061171157634e487b7160e01b600052603260045260246000fd5b60209081029190910101526117276001856147bd565b93505b506117366001826147bd565b90506114ce565b50949350505050565b60008061175260085490565b90508061175e576118b8565b606060005b828110156118b5576010600061177a8360016147bd565b8152602001908152602001600020805461179390614801565b80601f01602080910402602001604051908101604052809291908181526020018280546117bf90614801565b801561180c5780601f106117e15761010080835404028352916020019161180c565b820191906000526020600020905b8154815290600101906020018083116117ef57829003601f168201915b50505050509150856040516020016118249190614290565b604051602081830303815290604052805190602001208260405160200161184b9190614290565b6040516020818303038152906040528051906020012014156118a35760405162461bcd60e51b815260206004820152601160248201527013919508185b1c9958591e48195e1a5cdd607a1b6044820152606401610d1e565b806118ad8161483c565b915050611763565b50505b6118c6600880546001019055565b60006118d160085490565b90506118dd338261357f565b6118e78187613599565b6000818152601060209081526040909120865161190692880190613dce565b5061191281858761366b565b95945050505050565b610ca483838360405180602001604052806000815250612e63565b61193e613343565b61194781610dbf565b6119875760405162461bcd60e51b8152602060048201526011602482015270185d58dd1a5bdb881a185cc8195b991959607a1b6044820152606401610d1e565b60008181526013602052604090206003015434116119e75760405162461bcd60e51b815260206004820152601f60248201527f56616c756520697320736d616c6c6572207468616e206269642076616c7565006044820152606401610d1e565b6000818152601360205260409020600101546001600160a01b0316331415611a515760405162461bcd60e51b815260206004820152601a60248201527f796f752063616e27742062696420796f7572206f776e206e66740000000000006044820152606401610d1e565b60008060005b600c54811015611b925760166000611a708360016147bd565b81526020810191909152604001600020600201546001600160a01b031633148015611aba575060166000611aa58360016147bd565b81526020019081526020016000206001015484145b15611b80573460166000611acf8460016147bd565b81526020019081526020016000206003016000828254611aef91906147bd565b90915550506000848152601560205260408120546001945092508290601690611b1884876147bd565b8152602001908152602001600020600301541115611b8057600084815260146020526040812080546001600160a01b03191633179055601690611b5c8360016147bd565b81526020808201929092526040908101600090812060030154878252601590935220555b80611b8a8161483c565b915050611a57565b5081611c6f57611ba6600c80546001019055565b6000611bb1600c5490565b6040805160808101825260008781526013602090815283822060029081015484528184018a8152338587019081523460608701818152898752601686528887209751885592516001880155905192860180546001600160a01b0319166001600160a01b0390941693909317909255516003909401939093558882526015905291909120549350909150821015611c6d57600084815260146020908152604080832080546001600160a01b03191633179055601590915290203490555b505b611c7833610e8d565b50506111376001600755565b60606000611c91600b5490565b905060008060005b83811015611ce95760136000611cb08360016147bd565b815260200190815260200160002060030154600014611cd757611cd46001846147bd565b92505b611ce26001826147bd565b9050611c99565b5060008267ffffffffffffffff811115611d1357634e487b7160e01b600052604160045260246000fd5b604051908082528060200260200182016040528015611d9c57816020015b611d896040518061012001604052806000815260200160006001600160a01b03168152602001600081526020016000815260200160008152602001600081526020016000815260200160608152602001600081525090565b815260200190600190039081611d315790505b50905060005b8481101561173d576000601381611dba8460016147bd565b8152602001908152602001600020905060136000836001611ddb91906147bd565b815260200190815260200160002060030154600014611f255760408051610120810182528254815260018301546001600160a01b031660208201526002830154918101919091526003820154606082015260048201546080820152600582015460a0820152600682015460c0820152600782018054839160e0840191611e6090614801565b80601f0160208091040260200160405190810160405280929190818152602001828054611e8c90614801565b8015611ed95780601f10611eae57610100808354040283529160200191611ed9565b820191906000526020600020905b815481529060010190602001808311611ebc57829003601f168201915b50505050508152602001600882015481525050838581518110611f0c57634e487b7160e01b600052603260045260246000fd5b6020908102919091010152611f226001856147bd565b93505b50611f316001826147bd565b9050611da2565b6000611f4360095490565b905090565b60606000611f5560085490565b9050600080805b83811015611fb75733600e6000611f748460016147bd565b81526020810191909152604001600020600401546001600160a01b03161415611fa55781611fa18161483c565b9250505b80611faf8161483c565b915050611f5c565b5060008167ffffffffffffffff811115611fe157634e487b7160e01b600052604160045260246000fd5b60405190808252806020026020018201604052801561201a57816020015b612007613e52565b815260200190600190039081611fff5790505b50905060005b8481101561173d5733600e60006120388460016147bd565b81526020810191909152604001600020600401546001600160a01b03161415612286576000600e8161206b8460016147bd565b8152602001908152602001600020905080604051806101a00160405290816000820154815260200160018201548152602001600282015481526020016003820180546120b690614801565b80601f01602080910402602001604051908101604052809291908181526020018280546120e290614801565b801561212f5780601f106121045761010080835404028352916020019161212f565b820191906000526020600020905b81548152906001019060200180831161211257829003601f168201915b505050918352505060048201546001600160a01b0316602082015260058201546040820152600682015460ff808216151560608401526101008083048216151560808501526201000083048216151560a0850152630100000083048216151560c085015264010000000083048216151560e0850152600160281b90920416151590820152600782018054610120909201916121c990614801565b80601f01602080910402602001604051908101604052809291908181526020018280546121f590614801565b80156122425780601f1061221757610100808354040283529160200191612242565b820191906000526020600020905b81548152906001019060200180831161222557829003601f168201915b50505050508152505083868151811061226b57634e487b7160e01b600052603260045260246000fd5b602002602001018190525084806122819061483c565b955050505b806122908161483c565b915050612020565b6000818152600260205260408120546001600160a01b031680610ba95760405162461bcd60e51b8152602060048201526018602482015277115490cdcc8c4e881a5b9d985b1a59081d1bdad95b88125160421b6044820152606401610d1e565b60006001600160a01b0382166123625760405162461bcd60e51b815260206004820152602960248201527f4552433732313a2061646472657373207a65726f206973206e6f7420612076616044820152683634b21037bbb732b960b91b6064820152608401610d1e565b506001600160a01b031660009081526003602052604090205490565b6060600061238b60085490565b905060008060005b838110156123e357600e60006123aa8360016147bd565b8152602001908152602001600020600101546000146123d1576123ce6001846147bd565b92505b6123dc6001826147bd565b9050612393565b5060008267ffffffffffffffff81111561240d57634e487b7160e01b600052604160045260246000fd5b60405190808252806020026020018201604052801561244657816020015b612433613e52565b81526020019060019003908161242b5790505b50905060005b8481101561173d576000600e816124648460016147bd565b81526020019081526020016000209050600e600083600161248591906147bd565b8152602001908152602001600020600101546000146126a75780604051806101a00160405290816000820154815260200160018201548152602001600282015481526020016003820180546124d990614801565b80601f016020809104026020016040519081016040528092919081815260200182805461250590614801565b80156125525780601f1061252757610100808354040283529160200191612552565b820191906000526020600020905b81548152906001019060200180831161253557829003601f168201915b505050918352505060048201546001600160a01b0316602082015260058201546040820152600682015460ff808216151560608401526101008083048216151560808501526201000083048216151560a0850152630100000083048216151560c085015264010000000083048216151560e0850152600160281b90920416151590820152600782018054610120909201916125ec90614801565b80601f016020809104026020016040519081016040528092919081815260200182805461261890614801565b80156126655780601f1061263a57610100808354040283529160200191612665565b820191906000526020600020905b81548152906001019060200180831161264857829003601f168201915b50505050508152505083858151811061268e57634e487b7160e01b600052603260045260246000fd5b60209081029190910101526126a46001856147bd565b93505b506126b36001826147bd565b905061244c565b6000818152600e6020818152604080842060068101805464ff0000000019169055815180840192839052858152948690529290915291516127019260079092019190613dce565b5050565b6000612715600b80546001019055565b6000612720600b5490565b905042600061272f86836147bd565b905087600e600089815260200190815260200160002060020181905550604051806101200160405280848152602001336001600160a01b03168152602001888152602001898152602001898152602001838152602001828152602001868152602001600160ff16815250601360008581526020019081526020016000206000820151816000015560208201518160010160006101000a8154816001600160a01b0302191690836001600160a01b0316021790555060408201518160020155606082015181600301556080820151816004015560a0820151816005015560c0820151816006015560e0820151816007019080519060200190612831929190613dce565b50610100919091015160089091015550506000858152600e60205260409020600601805463ff0000001916630100000017905590505b949350505050565b606060018054610bbe90614801565b6000818152600e6020526040902060018101546004909101546001600160a01b03163314156128ef5760405162461bcd60e51b815260206004820152601a60248201527f796f752063616e27742062757920796f7572206f776e206e66740000000000006044820152606401610d1e565b6000828152600e60205260409020600401546001600160a01b031661291581338561339d565b61291f8184610ca9565b6000838152600e60205260408082206004810180546001600160a01b03191633179055600601805461010161ffff19909116179055516001600160a01b038316913480156108fc02929091818181858888f19350505050158015612987573d6000803e3d6000fd5b50612996600980546001019055565b60006129a160095490565b6040805160a08101825286815260208082018781526001600160a01b03808816848601908152336060860181815260016080880181815260008b8152600f89528a812099518a5596518983015593516002890180549187166001600160a01b031990921691909117905590516003909701805493511515600160a01b026001600160a81b0319909416979094169690961791909117909155898252600e90925292832090910191909155909150612a5790610e8d565b5050506000908152600e60205260409020600601805462ff000019169055565b6000611f43600c5490565b61270133838361380d565b6000611f43600d5490565b60606000612aa560095490565b9050600080805b83811015612b075733600f6000612ac48460016147bd565b81526020810191909152604001600020600201546001600160a01b03161415612af55781612af18161483c565b9250505b80612aff8161483c565b915050612aac565b5060008167ffffffffffffffff811115612b3157634e487b7160e01b600052604160045260246000fd5b604051908082528060200260200182016040528015612b8a57816020015b6040805160a081018252600080825260208083018290529282018190526060820181905260808201528252600019909201910181612b4f5790505b50905060005b8481101561173d5733600f6000612ba88460016147bd565b81526020810191909152604001600020600201546001600160a01b03161415612c7c576000600f81612bdb8460016147bd565b81526020808201929092526040908101600020815160a0810183528154815260018201549381019390935260028101546001600160a01b039081169284019290925260038101549182166060840152600160a01b90910460ff16151560808301528451909250849087908110612c6157634e487b7160e01b600052603260045260246000fd5b60200260200101819052508480612c779061483c565b955050505b80612c868161483c565b915050612b90565b60606000612c9b600c5490565b9050600080805b83811015612cf25760166000612cb98360016147bd565b815260200190815260200160002060030154600014612ce05781612cdc8161483c565b9250505b80612cea8161483c565b915050612ca2565b5060008167ffffffffffffffff811115612d1c57634e487b7160e01b600052604160045260246000fd5b604051908082528060200260200182016040528015612d8157816020015b612d6e6040518060800160405280600081526020016000815260200160006001600160a01b03168152602001600081525090565b815260200190600190039081612d3a5790505b50905060005b8481101561173d5760166000612d9e8360016147bd565b815260200190815260200160002060030154600014612e51576000601681612dc78460016147bd565b8152602080820192909252604090810160002081516080810183528154815260018201549381019390935260028101546001600160a01b031691830191909152600381015460608301528451909250849087908110612e3657634e487b7160e01b600052603260045260246000fd5b60200260200101819052508480612e4c9061483c565b955050505b80612e5b8161483c565b915050612d87565b612e6d3383613501565b612e895760405162461bcd60e51b8152600401610d1e906145e1565b612e95848484846138dc565b50505050565b6060612ea682613276565b60008281526006602052604081208054612ebf90614801565b80601f0160208091040260200160405190810160405280929190818152602001828054612eeb90614801565b8015612f385780601f10612f0d57610100808354040283529160200191612f38565b820191906000526020600020905b815481529060010190602001808311612f1b57829003601f168201915b505050505090506000612f5660408051602081019091526000815290565b9050805160001415612f69575092915050565b815115612f9b578082604051602001612f839291906142ac565b60405160208183030381529060405292505050919050565b6128678461390f565b6013602052600090815260409020805460018201546002830154600384015460048501546005860154600687015460078801805497986001600160a01b03909716979596949593949293919291612ffa90614801565b80601f016020809104026020016040519081016040528092919081815260200182805461302690614801565b80156130735780601f1061304857610100808354040283529160200191613073565b820191906000526020600020905b81548152906001019060200180831161305657829003601f168201915b5050505050908060080154905089565b600e602052600090815260409020805460018201546002830154600384018054939492939192916130b390614801565b80601f01602080910402602001604051908101604052809291908181526020018280546130df90614801565b801561312c5780601f106131015761010080835404028352916020019161312c565b820191906000526020600020905b81548152906001019060200180831161310f57829003601f168201915b50505060048401546005850154600686015460078701805496976001600160a01b039094169692955060ff80831695506101008304811694620100008404821694630100000085048316946401000000008104841694600160281b909104909316929061319890614801565b80601f01602080910402602001604051908101604052809291908181526020018280546131c490614801565b80156132115780601f106131e657610100808354040283529160200191613211565b820191906000526020600020905b8154815290600101906020018083116131f457829003601f168201915b505050505090508d565b6000611f4360085490565b60006001600160e01b031982166380ac58cd60e01b148061325757506001600160e01b03198216635b5e139f60e01b145b80610ba957506301ffc9a760e01b6001600160e01b0319831614610ba9565b6000818152600260205260409020546001600160a01b03166111375760405162461bcd60e51b8152602060048201526018602482015277115490cdcc8c4e881a5b9d985b1a59081d1bdad95b88125160421b6044820152606401610d1e565b600081815260046020526040902080546001600160a01b0319166001600160a01b038416908117909155819061330a82612298565b6001600160a01b03167f8c5be1e5ebec7d5bd14f71427d1e84f3dd0314c0f7b2291e5b200ac8c7c3b92560405160405180910390a45050565b600260075414156133965760405162461bcd60e51b815260206004820152601f60248201527f5265656e7472616e637947756172643a207265656e7472616e742063616c6c006044820152606401610d1e565b6002600755565b826001600160a01b03166133b082612298565b6001600160a01b0316146133d65760405162461bcd60e51b8152600401610d1e90614680565b6001600160a01b0382166134385760405162461bcd60e51b8152602060048201526024808201527f4552433732313a207472616e7366657220746f20746865207a65726f206164646044820152637265737360e01b6064820152608401610d1e565b826001600160a01b031661344b82612298565b6001600160a01b0316146134715760405162461bcd60e51b8152600401610d1e90614680565b600081815260046020908152604080832080546001600160a01b03199081169091556001600160a01b0387811680865260038552838620805460001901905590871680865283862080546001019055868652600290945282852080549092168417909155905184937fddf252ad1be2c89b69c2b068fc378daa952ba7f163c4a11628f55a4df523b3ef91a4505050565b60008061350d83612298565b9050806001600160a01b0316846001600160a01b0316148061355457506001600160a01b0380821660009081526005602090815260408083209388168352929052205460ff165b806128675750836001600160a01b031661356d84610c41565b6001600160a01b031614949350505050565b612701828260405180602001604052806000815250613983565b6000828152600260205260409020546001600160a01b03166136145760405162461bcd60e51b815260206004820152602e60248201527f45524337323155524953746f726167653a2055524920736574206f66206e6f6e60448201526d32bc34b9ba32b73a103a37b5b2b760911b6064820152608401610d1e565b6000828152600660209081526040909120825161363392840190613dce565b506040518281527ff8e1a15aba9398e019f0b49df1a4fde98ee17ae345cb5f6b5e2c27f5033e8ce79060200160405180910390a15050565b604080516101a081018252848152600060208083018281528385018381526060850187815233608087015260a0860189905260c0860185905260e08601859052610100860185905261012086018590526101408601859052610160860185905286518085018852858152610180870152898552600e84529590932084518155905160018201559151600283015592518051929391926137109260038501920190613dce565b5060808201516004820180546001600160a01b039092166001600160a01b031990921691909117905560a0820151600582015560c082015160068201805460e0850151610100808701516101208801516101408901516101608a01511515600160281b0265ff000000000019911515640100000000029190911665ffff000000001992151563010000000263ff0000001994151562010000029490941663ffff00001996151590950261ff00199915159990991661ffff19909716969096179790971793909316919091171716179190911790556101808201518051613800916007840191602090910190613dce565b50905050610ca433610e8d565b816001600160a01b0316836001600160a01b0316141561386f5760405162461bcd60e51b815260206004820152601960248201527f4552433732313a20617070726f766520746f2063616c6c6572000000000000006044820152606401610d1e565b6001600160a01b03838116600081815260056020908152604080832094871680845294825291829020805460ff191686151590811790915591519182527f17307eab39ab6107e8899845ad3d59bd9653f200f220920489ca2b5937696c31910160405180910390a3505050565b6138e784848461339d565b6138f3848484846139b6565b612e955760405162461bcd60e51b8152600401610d1e9061462e565b606061391a82613276565b600061393160408051602081019091526000815290565b90506000815111613951576040518060200160405280600081525061397c565b8061395b84613ac0565b60405160200161396c9291906142ac565b6040516020818303038152906040525b9392505050565b61398d8383613b6b565b61399a60008484846139b6565b610ca45760405162461bcd60e51b8152600401610d1e9061462e565b60006001600160a01b0384163b15613ab857604051630a85bd0160e11b81526001600160a01b0385169063150b7a02906139fa9033908990889088906004016142db565b602060405180830381600087803b158015613a1457600080fd5b505af1925050508015613a44575060408051601f3d908101601f19168201909252613a4191810190614114565b60015b613a9e573d808015613a72576040519150601f19603f3d011682016040523d82523d6000602084013e613a77565b606091505b508051613a965760405162461bcd60e51b8152600401610d1e9061462e565b805181602001fd5b6001600160e01b031916630a85bd0160e11b149050612867565b506001612867565b60606000613acd83613cf6565b600101905060008167ffffffffffffffff811115613afb57634e487b7160e01b600052604160045260246000fd5b6040519080825280601f01601f191660200182016040528015613b25576020820181803683370190505b5090508181016020015b600019016f181899199a1a9b1b9c1cb0b131b232b360811b600a86061a8153600a8504945084613b5e57613b63565b613b2f565b509392505050565b6001600160a01b038216613bc15760405162461bcd60e51b815260206004820181905260248201527f4552433732313a206d696e7420746f20746865207a65726f20616464726573736044820152606401610d1e565b6000818152600260205260409020546001600160a01b031615613c265760405162461bcd60e51b815260206004820152601c60248201527f4552433732313a20746f6b656e20616c7265616479206d696e746564000000006044820152606401610d1e565b6000818152600260205260409020546001600160a01b031615613c8b5760405162461bcd60e51b815260206004820152601c60248201527f4552433732313a20746f6b656e20616c7265616479206d696e746564000000006044820152606401610d1e565b6001600160a01b038216600081815260036020908152604080832080546001019055848352600290915280822080546001600160a01b0319168417905551839291907fddf252ad1be2c89b69c2b068fc378daa952ba7f163c4a11628f55a4df523b3ef908290a45050565b60008072184f03e93ff9f4daa797ed6e38ed64bf6a1f0160401b8310613d355772184f03e93ff9f4daa797ed6e38ed64bf6a1f0160401b830492506040015b6d04ee2d6d415b85acef81000000008310613d61576d04ee2d6d415b85acef8100000000830492506020015b662386f26fc100008310613d7f57662386f26fc10000830492506010015b6305f5e1008310613d97576305f5e100830492506008015b6127108310613dab57612710830492506004015b60648310613dbd576064830492506002015b600a8310610ba95760010192915050565b828054613dda90614801565b90600052602060002090601f016020900481019282613dfc5760008555613e42565b82601f10613e1557805160ff1916838001178555613e42565b82800160010185558215613e42579182015b82811115613e42578251825591602001919060010190613e27565b50613e4e929150613ecf565b5090565b604051806101a001604052806000815260200160008152602001600081526020016060815260200160006001600160a01b0316815260200160008152602001600015158152602001600015158152602001600015158152602001600015158152602001600015158152602001600015158152602001606081525090565b5b80821115613e4e5760008155600101613ed0565b600067ffffffffffffffff80841115613eff57613eff61486d565b604051601f8501601f19908116603f01168101908282118183101715613f2757613f2761486d565b81604052809350858152868686011115613f4057600080fd5b858560208301376000602087830101525050509392505050565b80356001600160a01b0381168114613f7157600080fd5b919050565b600082601f830112613f86578081fd5b61397c83833560208501613ee4565b600060208284031215613fa6578081fd5b61397c82613f5a565b60008060408385031215613fc1578081fd5b613fca83613f5a565b9150613fd860208401613f5a565b90509250929050565b600080600060608486031215613ff5578081fd5b613ffe84613f5a565b925061400c60208501613f5a565b9150604084013590509250925092565b60008060008060808587031215614031578081fd5b61403a85613f5a565b935061404860208601613f5a565b925060408501359150606085013567ffffffffffffffff81111561406a578182fd5b8501601f8101871361407a578182fd5b61408987823560208401613ee4565b91505092959194509250565b600080604083850312156140a7578182fd5b6140b083613f5a565b9150602083013580151581146140c4578182fd5b809150509250929050565b600080604083850312156140e1578182fd5b6140ea83613f5a565b946020939093013593505050565b600060208284031215614109578081fd5b813561397c81614883565b600060208284031215614125578081fd5b815161397c81614883565b600080600060608486031215614144578283fd5b833567ffffffffffffffff8082111561415b578485fd5b61416787838801613f76565b9450602086013591508082111561417c578384fd5b5061418986828701613f76565b925050604084013590509250925092565b6000602082840312156141ab578081fd5b5035919050565b600080604083850312156141c4578182fd5b82359150602083013567ffffffffffffffff8111156141e1578182fd5b6141ed85828601613f76565b9150509250929050565b60008060408385031215614209578182fd5b50508035926020909101359150565b6000806000806080858703121561422d578384fd5b843593506020850135925060408501359150606085013567ffffffffffffffff811115614258578182fd5b61408987828801613f76565b6000815180845261427c8160208601602086016147d5565b601f01601f19169290920160200192915050565b600082516142a28184602087016147d5565b9190910192915050565b600083516142be8184602088016147d5565b8351908301906142d28183602088016147d5565b01949350505050565b6001600160a01b038581168252841660208201526040810183905260806060820181905260009061430e90830184614264565b9695505050505050565b602080825282518282018190526000919060409081850190868401855b82811015614378578151805185528681015187860152858101516001600160a01b0316868601526060908101519085015260809093019290850190600101614335565b5091979650505050505050565b602080825282518282018190526000919060409081850190868401855b82811015614378578151805185528681015187860152858101516001600160a01b03908116878701526060808301519091169086015260809081015115159085015260a090930192908501906001016143a2565b60006020808301818452808551808352604092508286019150828160051b870101848801865b8381101561450257603f1989840301855281516101a08151855288820151898601528782015188860152606080830151828288015261445d83880182614264565b9250505060808083015161447b828801826001600160a01b03169052565b505060a0828101519086015260c08083015115159086015260e0808301511515908601526101008083015115159086015261012080830151151590860152610140808301511515908601526101608083015115159086015261018091820151858203928601929092526144ee8183614264565b96890196945050509086019060010161441c565b509098975050505050505050565b60006020808301818452808551808352604092508286019150828160051b870101848801865b8381101561450257603f19898403018552815180518452878101516001600160a01b0316888501528681015187850152606080820151908501526080808201519085015260a0808201519085015260c0808201519085015260e08082015161012082870181905291906145ab83880182614264565b610100948501519790940196909652505094870194925090860190600101614536565b60208152600061397c6020830184614264565b6020808252602d908201527f4552433732313a2063616c6c6572206973206e6f7420746f6b656e206f776e6560408201526c1c881bdc88185c1c1c9bdd9959609a1b606082015260800190565b60208082526032908201527f4552433732313a207472616e7366657220746f206e6f6e20455243373231526560408201527131b2b4bb32b91034b6b83632b6b2b73a32b960711b606082015260800190565b60208082526025908201527f4552433732313a207472616e736665722066726f6d20696e636f72726563742060408201526437bbb732b960d91b606082015260800190565b60006101208b835260018060a01b038b1660208401528960408401528860608401528760808401528660a08401528560c08401528060e084015261470b81840186614264565b915050826101008301529a9950505050505050505050565b60006101a08f83528e60208401528d60408401528060608401526147498184018e614264565b6001600160a01b038d16608085015260a084018c90528a151560c085015289151560e085015290508715156101008401528615156101208401528515156101408401528415156101608401528281036101808401526147a88185614264565b9150509e9d5050505050505050505050505050565b600082198211156147d0576147d0614857565b500190565b60005b838110156147f05781810151838201526020016147d8565b83811115612e955750506000910152565b600181811c9082168061481557607f821691505b6020821081141561483657634e487b7160e01b600052602260045260246000fd5b50919050565b600060001982141561485057614850614857565b5060010190565b634e487b7160e01b600052601160045260246000fd5b634e487b7160e01b600052604160045260246000fd5b6001600160e01b03198116811461113757600080fdfea2646970667358221220e60e3ac3d7fe6bcedb4452f02559a96edcd5a27b1cd4aa5f10b8f9db97960adc64736f6c63430008040033",
  "linkReferences": {},
  "deployedLinkReferences": {}
}