{
  "_format": "hh-sol-artifact-1",
  "contractName": "PolygonNFTMarketplace",
  "sourceName": "contracts/PolygonNFTMarketplace.sol",
  "abi": [
    {
      "inputs": [],
      "stateMutability": "nonpayable",
      "type": "constructor"
    },
    {
      "anonymous": false,
      "inputs": [
        {
          "indexed": true,
          "internalType": "address",
          "name": "owner",
          "type": "address"
        },
        {
          "indexed": true,
          "internalType": "address",
          "name": "approved",
          "type": "address"
        },
        {
          "indexed": true,
          "internalType": "uint256",
          "name": "tokenId",
          "type": "uint256"
        }
      ],
      "name": "Approval",
      "type": "event"
    },
    {
      "anonymous": false,
      "inputs": [
        {
          "indexed": true,
          "internalType": "address",
          "name": "owner",
          "type": "address"
        },
        {
          "indexed": true,
          "internalType": "address",
          "name": "operator",
          "type": "address"
        },
        {
          "indexed": false,
          "internalType": "bool",
          "name": "approved",
          "type": "bool"
        }
      ],
      "name": "ApprovalForAll",
      "type": "event"
    },
    {
      "anonymous": false,
      "inputs": [
        {
          "indexed": false,
          "internalType": "uint256",
          "name": "_fromTokenId",
          "type": "uint256"
        },
        {
          "indexed": false,
          "internalType": "uint256",
          "name": "_toTokenId",
          "type": "uint256"
        }
      ],
      "name": "BatchMetadataUpdate",
      "type": "event"
    },
    {
      "anonymous": false,
      "inputs": [
        {
          "indexed": false,
          "internalType": "uint256",
          "name": "_tokenId",
          "type": "uint256"
        }
      ],
      "name": "MetadataUpdate",
      "type": "event"
    },
    {
      "anonymous": false,
      "inputs": [
        {
          "indexed": true,
          "internalType": "address",
          "name": "from",
          "type": "address"
        },
        {
          "indexed": true,
          "internalType": "address",
          "name": "to",
          "type": "address"
        },
        {
          "indexed": true,
          "internalType": "uint256",
          "name": "tokenId",
          "type": "uint256"
        }
      ],
      "name": "Transfer",
      "type": "event"
    },
    {
      "inputs": [],
      "name": "BuyCount",
      "outputs": [
        {
          "internalType": "uint256",
          "name": "_value",
          "type": "uint256"
        }
      ],
      "stateMutability": "view",
      "type": "function"
    },
    {
      "inputs": [
        {
          "internalType": "string",
          "name": "tokenURI",
          "type": "string"
        }
      ],
      "name": "CreateToken",
      "outputs": [
        {
          "internalType": "uint256",
          "name": "",
          "type": "uint256"
        }
      ],
      "stateMutability": "payable",
      "type": "function"
    },
    {
      "inputs": [
        {
          "internalType": "uint256",
          "name": "price",
          "type": "uint256"
        },
        {
          "internalType": "uint256",
          "name": "id",
          "type": "uint256"
        }
      ],
      "name": "ListNFT",
      "outputs": [],
      "stateMutability": "nonpayable",
      "type": "function"
    },
    {
      "inputs": [],
      "name": "STATUS_DONE",
      "outputs": [
        {
          "internalType": "uint8",
          "name": "",
          "type": "uint8"
        }
      ],
      "stateMutability": "view",
      "type": "function"
    },
    {
      "inputs": [],
      "name": "STATUS_OPEN",
      "outputs": [
        {
          "internalType": "uint8",
          "name": "",
          "type": "uint8"
        }
      ],
      "stateMutability": "view",
      "type": "function"
    },
    {
      "inputs": [],
      "name": "SoldCount",
      "outputs": [
        {
          "internalType": "uint256",
          "name": "_value",
          "type": "uint256"
        }
      ],
      "stateMutability": "view",
      "type": "function"
    },
    {
      "inputs": [],
      "name": "TokenCount",
      "outputs": [
        {
          "internalType": "uint256",
          "name": "_value",
          "type": "uint256"
        }
      ],
      "stateMutability": "view",
      "type": "function"
    },
    {
      "inputs": [
        {
          "internalType": "address",
          "name": "to",
          "type": "address"
        },
        {
          "internalType": "uint256",
          "name": "tokenId",
          "type": "uint256"
        }
      ],
      "name": "approve",
      "outputs": [],
      "stateMutability": "nonpayable",
      "type": "function"
    },
    {
      "inputs": [
        {
          "internalType": "address",
          "name": "owner",
          "type": "address"
        }
      ],
      "name": "balanceOf",
      "outputs": [
        {
          "internalType": "uint256",
          "name": "",
          "type": "uint256"
        }
      ],
      "stateMutability": "view",
      "type": "function"
    },
    {
      "inputs": [
        {
          "internalType": "uint256",
          "name": "listingId",
          "type": "uint256"
        },
        {
          "internalType": "uint256",
          "name": "bidPrice",
          "type": "uint256"
        }
      ],
      "name": "bid",
      "outputs": [],
      "stateMutability": "payable",
      "type": "function"
    },
    {
      "inputs": [],
      "name": "biddingCounter",
      "outputs": [
        {
          "internalType": "uint256",
          "name": "_value",
          "type": "uint256"
        }
      ],
      "stateMutability": "view",
      "type": "function"
    },
    {
      "inputs": [
        {
          "internalType": "uint256",
          "name": "",
          "type": "uint256"
        },
        {
          "internalType": "address",
          "name": "",
          "type": "address"
        }
      ],
      "name": "bids",
      "outputs": [
        {
          "internalType": "uint256",
          "name": "",
          "type": "uint256"
        }
      ],
      "stateMutability": "view",
      "type": "function"
    },
    {
      "inputs": [
        {
          "internalType": "uint256",
          "name": "listingId",
          "type": "uint256"
        }
      ],
      "name": "completeAuction",
      "outputs": [],
      "stateMutability": "payable",
      "type": "function"
    },
    {
      "inputs": [
        {
          "internalType": "uint256",
          "name": "price",
          "type": "uint256"
        },
        {
          "internalType": "uint256",
          "name": "tokenId",
          "type": "uint256"
        },
        {
          "internalType": "uint256",
          "name": "deadline",
          "type": "uint256"
        }
      ],
      "name": "createAuctionListing",
      "outputs": [
        {
          "internalType": "uint256",
          "name": "",
          "type": "uint256"
        }
      ],
      "stateMutability": "nonpayable",
      "type": "function"
    },
    {
      "inputs": [
        {
          "internalType": "uint256",
          "name": "tokenId",
          "type": "uint256"
        }
      ],
      "name": "executeSale",
      "outputs": [],
      "stateMutability": "payable",
      "type": "function"
    },
    {
      "inputs": [],
      "name": "getAllBiddedNfts",
      "outputs": [
        {
          "components": [
            {
              "internalType": "uint256",
              "name": "biddingId",
              "type": "uint256"
            },
            {
              "internalType": "address payable",
              "name": "seller",
              "type": "address"
            },
            {
              "internalType": "uint256",
              "name": "tokenId",
              "type": "uint256"
            },
            {
              "internalType": "uint256",
              "name": "price",
              "type": "uint256"
            },
            {
              "internalType": "uint256",
              "name": "netPrice",
              "type": "uint256"
            },
            {
              "internalType": "uint256",
              "name": "startAt",
              "type": "uint256"
            },
            {
              "internalType": "uint256",
              "name": "deadline",
              "type": "uint256"
            },
            {
              "internalType": "uint8",
              "name": "status",
              "type": "uint8"
            }
          ],
          "internalType": "struct PolygonNFTMarketplace.Listing[]",
          "name": "",
          "type": "tuple[]"
        }
      ],
      "stateMutability": "view",
      "type": "function"
    },
    {
      "inputs": [],
      "name": "getAllBiddingWithListingID",
      "outputs": [
        {
          "components": [
            {
              "internalType": "uint256",
              "name": "tokenId",
              "type": "uint256"
            },
            {
              "internalType": "uint256",
              "name": "biddingId",
              "type": "uint256"
            },
            {
              "internalType": "address",
              "name": "bidder",
              "type": "address"
            },
            {
              "internalType": "uint256",
              "name": "price",
              "type": "uint256"
            }
          ],
          "internalType": "struct PolygonNFTMarketplace.Bidding[]",
          "name": "",
          "type": "tuple[]"
        }
      ],
      "stateMutability": "view",
      "type": "function"
    },
    {
      "inputs": [],
      "name": "getAllNfts",
      "outputs": [
        {
          "components": [
            {
              "internalType": "uint256",
              "name": "tokenId",
              "type": "uint256"
            },
            {
              "internalType": "uint256",
              "name": "price",
              "type": "uint256"
            },
            {
              "internalType": "address payable",
              "name": "owner",
              "type": "address"
            },
            {
              "internalType": "bool",
              "name": "NFTsold",
              "type": "bool"
            },
            {
              "internalType": "bool",
              "name": "NFTbought",
              "type": "bool"
            }
          ],
          "internalType": "struct PolygonNFTMarketplace.ListedToken[]",
          "name": "",
          "type": "tuple[]"
        }
      ],
      "stateMutability": "view",
      "type": "function"
    },
    {
      "inputs": [
        {
          "internalType": "uint256",
          "name": "tokenId",
          "type": "uint256"
        }
      ],
      "name": "getApproved",
      "outputs": [
        {
          "internalType": "address",
          "name": "",
          "type": "address"
        }
      ],
      "stateMutability": "view",
      "type": "function"
    },
    {
      "inputs": [],
      "name": "getMyNFTs",
      "outputs": [
        {
          "components": [
            {
              "internalType": "uint256",
              "name": "tokenId",
              "type": "uint256"
            },
            {
              "internalType": "uint256",
              "name": "price",
              "type": "uint256"
            },
            {
              "internalType": "address payable",
              "name": "owner",
              "type": "address"
            },
            {
              "internalType": "bool",
              "name": "NFTsold",
              "type": "bool"
            },
            {
              "internalType": "bool",
              "name": "NFTbought",
              "type": "bool"
            }
          ],
          "internalType": "struct PolygonNFTMarketplace.ListedToken[]",
          "name": "",
          "type": "tuple[]"
        }
      ],
      "stateMutability": "view",
      "type": "function"
    },
    {
      "inputs": [],
      "name": "getMySoldNFTs",
      "outputs": [
        {
          "components": [
            {
              "internalType": "uint256",
              "name": "tokenId",
              "type": "uint256"
            },
            {
              "internalType": "uint256",
              "name": "price",
              "type": "uint256"
            },
            {
              "internalType": "address payable",
              "name": "owner",
              "type": "address"
            },
            {
              "internalType": "address",
              "name": "newOwner",
              "type": "address"
            },
            {
              "internalType": "bool",
              "name": "NFTsold",
              "type": "bool"
            }
          ],
          "internalType": "struct PolygonNFTMarketplace.ItemsSold[]",
          "name": "",
          "type": "tuple[]"
        }
      ],
      "stateMutability": "view",
      "type": "function"
    },
    {
      "inputs": [
        {
          "internalType": "uint256",
          "name": "",
          "type": "uint256"
        }
      ],
      "name": "highestBidder",
      "outputs": [
        {
          "internalType": "address",
          "name": "",
          "type": "address"
        }
      ],
      "stateMutability": "view",
      "type": "function"
    },
    {
      "inputs": [],
      "name": "highestBidding",
      "outputs": [
        {
          "internalType": "uint256",
          "name": "",
          "type": "uint256"
        }
      ],
      "stateMutability": "view",
      "type": "function"
    },
    {
      "inputs": [
        {
          "internalType": "uint256",
          "name": "",
          "type": "uint256"
        }
      ],
      "name": "highestBiddingAmount",
      "outputs": [
        {
          "internalType": "uint256",
          "name": "",
          "type": "uint256"
        }
      ],
      "stateMutability": "view",
      "type": "function"
    },
    {
      "inputs": [
        {
          "internalType": "uint256",
          "name": "",
          "type": "uint256"
        }
      ],
      "name": "idToBiddedToken",
      "outputs": [
        {
          "internalType": "uint256",
          "name": "tokenId",
          "type": "uint256"
        },
        {
          "internalType": "uint256",
          "name": "biddingId",
          "type": "uint256"
        },
        {
          "internalType": "address",
          "name": "bidder",
          "type": "address"
        },
        {
          "internalType": "uint256",
          "name": "price",
          "type": "uint256"
        }
      ],
      "stateMutability": "view",
      "type": "function"
    },
    {
      "inputs": [
        {
          "internalType": "uint256",
          "name": "",
          "type": "uint256"
        }
      ],
      "name": "idToListedToken",
      "outputs": [
        {
          "internalType": "uint256",
          "name": "tokenId",
          "type": "uint256"
        },
        {
          "internalType": "uint256",
          "name": "price",
          "type": "uint256"
        },
        {
          "internalType": "address payable",
          "name": "owner",
          "type": "address"
        },
        {
          "internalType": "bool",
          "name": "NFTsold",
          "type": "bool"
        },
        {
          "internalType": "bool",
          "name": "NFTbought",
          "type": "bool"
        }
      ],
      "stateMutability": "view",
      "type": "function"
    },
    {
      "inputs": [
        {
          "internalType": "uint256",
          "name": "",
          "type": "uint256"
        }
      ],
      "name": "idToSoldItems",
      "outputs": [
        {
          "internalType": "uint256",
          "name": "tokenId",
          "type": "uint256"
        },
        {
          "internalType": "uint256",
          "name": "price",
          "type": "uint256"
        },
        {
          "internalType": "address payable",
          "name": "owner",
          "type": "address"
        },
        {
          "internalType": "address",
          "name": "newOwner",
          "type": "address"
        },
        {
          "internalType": "bool",
          "name": "NFTsold",
          "type": "bool"
        }
      ],
      "stateMutability": "view",
      "type": "function"
    },
    {
      "inputs": [
        {
          "internalType": "address",
          "name": "owner",
          "type": "address"
        },
        {
          "internalType": "address",
          "name": "operator",
          "type": "address"
        }
      ],
      "name": "isApprovedForAll",
      "outputs": [
        {
          "internalType": "bool",
          "name": "",
          "type": "bool"
        }
      ],
      "stateMutability": "view",
      "type": "function"
    },
    {
      "inputs": [
        {
          "internalType": "uint256",
          "name": "id",
          "type": "uint256"
        }
      ],
      "name": "isAuctionExpired",
      "outputs": [
        {
          "internalType": "bool",
          "name": "",
          "type": "bool"
        }
      ],
      "stateMutability": "view",
      "type": "function"
    },
    {
      "inputs": [
        {
          "internalType": "uint256",
          "name": "id",
          "type": "uint256"
        }
      ],
      "name": "isAuctionOpen",
      "outputs": [
        {
          "internalType": "bool",
          "name": "",
          "type": "bool"
        }
      ],
      "stateMutability": "view",
      "type": "function"
    },
    {
      "inputs": [],
      "name": "listingCounter",
      "outputs": [
        {
          "internalType": "uint256",
          "name": "_value",
          "type": "uint256"
        }
      ],
      "stateMutability": "view",
      "type": "function"
    },
    {
      "inputs": [
        {
          "internalType": "uint256",
          "name": "",
          "type": "uint256"
        }
      ],
      "name": "listings",
      "outputs": [
        {
          "internalType": "uint256",
          "name": "biddingId",
          "type": "uint256"
        },
        {
          "internalType": "address payable",
          "name": "seller",
          "type": "address"
        },
        {
          "internalType": "uint256",
          "name": "tokenId",
          "type": "uint256"
        },
        {
          "internalType": "uint256",
          "name": "price",
          "type": "uint256"
        },
        {
          "internalType": "uint256",
          "name": "netPrice",
          "type": "uint256"
        },
        {
          "internalType": "uint256",
          "name": "startAt",
          "type": "uint256"
        },
        {
          "internalType": "uint256",
          "name": "deadline",
          "type": "uint256"
        },
        {
          "internalType": "uint8",
          "name": "status",
          "type": "uint8"
        }
      ],
      "stateMutability": "view",
      "type": "function"
    },
    {
      "inputs": [],
      "name": "minAuctionIncrement",
      "outputs": [
        {
          "internalType": "uint256",
          "name": "",
          "type": "uint256"
        }
      ],
      "stateMutability": "view",
      "type": "function"
    },
    {
      "inputs": [],
      "name": "name",
      "outputs": [
        {
          "internalType": "string",
          "name": "",
          "type": "string"
        }
      ],
      "stateMutability": "view",
      "type": "function"
    },
    {
      "inputs": [
        {
          "internalType": "uint256",
          "name": "tokenId",
          "type": "uint256"
        }
      ],
      "name": "ownerOf",
      "outputs": [
        {
          "internalType": "address",
          "name": "",
          "type": "address"
        }
      ],
      "stateMutability": "view",
      "type": "function"
    },
    {
      "inputs": [
        {
          "internalType": "address",
          "name": "from",
          "type": "address"
        },
        {
          "internalType": "address",
          "name": "to",
          "type": "address"
        },
        {
          "internalType": "uint256",
          "name": "tokenId",
          "type": "uint256"
        }
      ],
      "name": "safeTransferFrom",
      "outputs": [],
      "stateMutability": "nonpayable",
      "type": "function"
    },
    {
      "inputs": [
        {
          "internalType": "address",
          "name": "from",
          "type": "address"
        },
        {
          "internalType": "address",
          "name": "to",
          "type": "address"
        },
        {
          "internalType": "uint256",
          "name": "tokenId",
          "type": "uint256"
        },
        {
          "internalType": "bytes",
          "name": "data",
          "type": "bytes"
        }
      ],
      "name": "safeTransferFrom",
      "outputs": [],
      "stateMutability": "nonpayable",
      "type": "function"
    },
    {
      "inputs": [
        {
          "internalType": "address",
          "name": "operator",
          "type": "address"
        },
        {
          "internalType": "bool",
          "name": "approved",
          "type": "bool"
        }
      ],
      "name": "setApprovalForAll",
      "outputs": [],
      "stateMutability": "nonpayable",
      "type": "function"
    },
    {
      "inputs": [
        {
          "internalType": "bytes4",
          "name": "interfaceId",
          "type": "bytes4"
        }
      ],
      "name": "supportsInterface",
      "outputs": [
        {
          "internalType": "bool",
          "name": "",
          "type": "bool"
        }
      ],
      "stateMutability": "view",
      "type": "function"
    },
    {
      "inputs": [],
      "name": "symbol",
      "outputs": [
        {
          "internalType": "string",
          "name": "",
          "type": "string"
        }
      ],
      "stateMutability": "view",
      "type": "function"
    },
    {
      "inputs": [
        {
          "internalType": "uint256",
          "name": "tokenId",
          "type": "uint256"
        }
      ],
      "name": "tokenURI",
      "outputs": [
        {
          "internalType": "string",
          "name": "",
          "type": "string"
        }
      ],
      "stateMutability": "view",
      "type": "function"
    },
    {
      "inputs": [
        {
          "internalType": "address",
          "name": "from",
          "type": "address"
        },
        {
          "internalType": "address",
          "name": "to",
          "type": "address"
        },
        {
          "internalType": "uint256",
          "name": "tokenId",
          "type": "uint256"
        }
      ],
      "name": "transferFrom",
      "outputs": [],
      "stateMutability": "nonpayable",
      "type": "function"
    }
  ],
  "bytecode": "0x6080604052600a600f5560006014553480156200001b57600080fd5b50604080518082018252601581527f506f6c79676f6e4e46544d61726b6574706c61636500000000000000000000006020808301918252835180850190945260048452634441524b60e01b9084015281519192916200007d91600091620000a1565b50805162000093906001906020840190620000a1565b505060016007555062000184565b828054620000af9062000147565b90600052602060002090601f016020900481019282620000d357600085556200011e565b82601f10620000ee57805160ff19168380011785556200011e565b828001600101855582156200011e579182015b828111156200011e57825182559160200191906001019062000101565b506200012c92915062000130565b5090565b5b808211156200012c576000815560010162000131565b600181811c908216806200015c57607f821691505b602082108114156200017e57634e487b7160e01b600052602260045260246000fd5b50919050565b61318780620001946000396000f3fe6080604052600436106102515760003560e01c80636c2c9c7d11610139578063adc2524c116100b6578063de74e57b1161007a578063de74e57b146107be578063e57a497a1461086f578063e877d3f814610902578063e985e9c51461092f578063edf2ebcc14610978578063fad266fe1461098f57600080fd5b8063adc2524c1461070b578063b27dce811461073a578063b820a6d11461075c578063b88d4fde1461077e578063c87b56dd1461079e57600080fd5b8063903405bb116100fd578063903405bb1461069657806395d89b41146106ac5780639b1225c4146106c1578063a22cb465146106d4578063a4fdb635146106f457600080fd5b80636c2c9c7d1461061f578063708d4d351461063657806370a082311461064c578063732e8d731461066c578063740db2801461068157600080fd5b806336ad658f116101d25780634c22f381116101965780634c22f3811461051a578063598647f81461053a578063629cb2e41461054d5780636352211e1461056f57806366b126e61461058f5780636b8c91cb146105a257600080fd5b806336ad658f146104455780633f1ffcec1461046a57806342842e0e146104a2578063451df52e146104c25780634945dcdd146104f857600080fd5b80631389b117116102195780631389b1171461032757806321b628861461035a57806323b872dd1461036d57806324f8515b1461038d57806333024100146103b457600080fd5b806301ffc9a71461025657806306fdde031461028b578063081812fc146102ad578063095ea7b3146102e55780630ad4862814610307575b600080fd5b34801561026257600080fd5b50610276610271366004612c0a565b6109a6565b60405190151581526020015b60405180910390f35b34801561029757600080fd5b506102a06109d1565b6040516102829190612f7e565b3480156102b957600080fd5b506102cd6102c8366004612c88565b610a63565b6040516001600160a01b039091168152602001610282565b3480156102f157600080fd5b50610305610300366004612be1565b610a8a565b005b34801561031357600080fd5b50610276610322366004612c88565b610ba5565b34801561033357600080fd5b50610276610342366004612c88565b60009081526010602052604090206006015442101590565b610305610368366004612c88565b610bdc565b34801561037957600080fd5b50610305610388366004612af3565b610da2565b34801561039957600080fd5b506103a2600181565b60405160ff9091168152602001610282565b3480156103c057600080fd5b5061040f6103cf366004612c88565b600e602052600090815260409020805460018201546002830154600390930154919290916001600160a01b0391821691811690600160a01b900460ff1685565b6040805195865260208601949094526001600160a01b03928316938501939093521660608301521515608082015260a001610282565b34801561045157600080fd5b5060085461045c9081565b604051908152602001610282565b34801561047657600080fd5b5061045c610485366004612ca0565b601160209081526000928352604080842090915290825290205481565b3480156104ae57600080fd5b506103056104bd366004612af3565b610dd3565b3480156104ce57600080fd5b506102cd6104dd366004612c88565b6012602052600090815260409020546001600160a01b031681565b34801561050457600080fd5b5061050d610dee565b6040516102829190612ef2565b34801561052657600080fd5b5061045c610535366004612ce3565b611014565b610305610548366004612cc2565b6110f7565b34801561055957600080fd5b506105626112ee565b6040516102829190612e84565b34801561057b57600080fd5b506102cd61058a366004612c88565b6114e8565b61045c61059d366004612c42565b611548565b3480156105ae57600080fd5b506105f06105bd366004612c88565b6015602052600090815260409020805460018201546002830154600390930154919290916001600160a01b039091169084565b604051610282949392919093845260208401929092526001600160a01b03166040830152606082015260800190565b34801561062b57600080fd5b50600b5461045c9081565b34801561064257600080fd5b5061045c600f5481565b34801561065857600080fd5b5061045c610667366004612aa7565b611607565b34801561067857600080fd5b5061056261168d565b34801561068d57600080fd5b506103a2600081565b3480156106a257600080fd5b5061045c60145481565b3480156106b857600080fd5b506102a061186d565b6103056106cf366004612c88565b61187c565b3480156106e057600080fd5b506103056106ef366004612ba7565b611a54565b34801561070057600080fd5b50600c5461045c9081565b34801561071757600080fd5b50610305610726366004612cc2565b6000908152600d6020526040902060010155565b34801561074657600080fd5b5061074f611a5f565b6040516102829190612e13565b34801561076857600080fd5b50610771611c55565b6040516102829190612da6565b34801561078a57600080fd5b50610305610799366004612b2e565b611e2a565b3480156107aa57600080fd5b506102a06107b9366004612c88565b611e62565b3480156107ca57600080fd5b506108296107d9366004612c88565b6010602052600090815260409020805460018201546002830154600384015460048501546005860154600687015460079097015495966001600160a01b0390951695939492939192909160ff1688565b604080519889526001600160a01b039097166020890152958701949094526060860192909252608085015260a084015260c083015260ff1660e082015261010001610282565b34801561087b57600080fd5b506108ca61088a366004612c88565b600d602052600090815260409020805460018201546002909201549091906001600160a01b0381169060ff600160a01b8204811691600160a81b90041685565b6040805195865260208601949094526001600160a01b039092169284019290925290151560608301521515608082015260a001610282565b34801561090e57600080fd5b5061045c61091d366004612c88565b60136020526000908152604090205481565b34801561093b57600080fd5b5061027661094a366004612ac1565b6001600160a01b03918216600090815260056020908152604080832093909416825291909152205460ff1690565b34801561098457600080fd5b5060095461045c9081565b34801561099b57600080fd5b50600a5461045c9081565b60006001600160e01b03198216632483248360e11b14806109cb57506109cb82611f73565b92915050565b6060600080546109e0906130b9565b80601f0160208091040260200160405190810160405280929190818152602001828054610a0c906130b9565b8015610a595780601f10610a2e57610100808354040283529160200191610a59565b820191906000526020600020905b815481529060010190602001808311610a3c57829003601f168201915b5050505050905090565b6000610a6e82611fc3565b506000908152600460205260409020546001600160a01b031690565b6000610a95826114e8565b9050806001600160a01b0316836001600160a01b03161415610b085760405162461bcd60e51b815260206004820152602160248201527f4552433732313a20617070726f76616c20746f2063757272656e74206f776e656044820152603960f91b60648201526084015b60405180910390fd5b336001600160a01b0382161480610b245750610b24813361094a565b610b965760405162461bcd60e51b815260206004820152603d60248201527f4552433732313a20617070726f76652063616c6c6572206973206e6f7420746f60448201527f6b656e206f776e6572206f7220617070726f76656420666f7220616c6c0000006064820152608401610aff565b610ba08383612022565b505050565b60008181526010602052604081206007015460ff1660011480156109cb575050600090815260106020526040902060060154421090565b610be4612090565b610bed81610ba5565b15610c325760405162461bcd60e51b815260206004820152601560248201527430bab1ba34b7b71034b99039ba34b6361037b832b760591b6044820152606401610aff565b600081815260106020908152604080832060129092529091205460018201546001600160a01b039182169116331480610c735750336001600160a01b038216145b610cd25760405162461bcd60e51b815260206004820152602a60248201527f6f6e6c792073656c6c6572206f722077696e6e65722063616e20636f6d706c656044820152693a329030bab1ba34b7b760b11b6064820152608401610aff565b600083815260136020526040902054600283015460018401546001600160a01b0316610cff8185846120ea565b610d0d818660020154610a8a565b6040516001600160a01b0382169084156108fc029085906000818181858888f19350505050158015610d43573d6000803e3d6000fd5b50506001840180546001600160a01b039094166001600160a01b03199485168117909155600060038601819055918252600d602052604090912060020180549093161790915550600701805460ff19169055610d9f6001600755565b50565b610dac338261224e565b610dc85760405162461bcd60e51b8152600401610aff90612f91565b610ba08383836120ea565b610ba083838360405180602001604052806000815250611e2a565b60606000610dfb600b5490565b905060008060005b83811015610e535760106000610e1a836001613075565b815260200190815260200160002060030154600014610e4157610e3e600184613075565b92505b610e4c600182613075565b9050610e03565b5060008267ffffffffffffffff811115610e7d57634e487b7160e01b600052604160045260246000fd5b604051908082528060200260200182016040528015610f0257816020015b610eef6040518061010001604052806000815260200160006001600160a01b031681526020016000815260200160008152602001600081526020016000815260200160008152602001600060ff1681525090565b815260200190600190039081610e9b5790505b50905060005b8481101561100b576000601081610f20846001613075565b8152602001908152602001600020905060106000836001610f419190613075565b815260200190815260200160002060030154600014610ff85760408051610100810182528254815260018301546001600160a01b031660208201526002830154918101919091526003820154606082015260048201546080820152600582015460a0820152600682015460c0820152600782015460ff1660e08201528351849086908110610fdf57634e487b7160e01b600052603260045260246000fd5b6020908102919091010152610ff5600185613075565b93505b50611004600182613075565b9050610f08565b50949350505050565b6000611024600b80546001019055565b600061102f600b5490565b905042600061103e8583613075565b60408051610100810182528581523360208083019182528284019a8b52606083018c8152608084019c8d5260a0840197885260c08401958652600160e0850181815260008b815260109094529590922093518455915190830180546001600160a01b0319166001600160a01b03909216919091179055985160028201559751600389015597516004880155915160058701555051600685015593516007909301805460ff191660ff909416939093179092555090919050565b6110ff612090565b61110882610ba5565b6111485760405162461bcd60e51b8152602060048201526011602482015270185d58dd1a5bdb881a185cc8195b991959607a1b6044820152606401610aff565b60008281526010602052604090206003015481116111a85760405162461bcd60e51b815260206004820152601f60248201527f56616c756520697320736d616c6c6572207468616e206269642076616c7565006044820152606401610aff565b6000828152601060205260409020600101546001600160a01b03163314156112125760405162461bcd60e51b815260206004820152601a60248201527f796f752063616e27742062696420796f7572206f776e206e66740000000000006044820152606401610aff565b611220600c80546001019055565b600061122b600c5490565b60408051608081018252600086815260106020908152838220600290810154845281840189815233858701908152606086018a81528886526015909452959093209351845591516001840155925190820180546001600160a01b0319166001600160a01b0390921691909117905590516003909101556014549091508211156112df576014829055600083815260126020908152604080832080546001600160a01b03191633179055601390915290208290555b506112ea6001600755565b5050565b606060006112fb60085490565b9050600080805b8381101561135d5733600d600061131a846001613075565b81526020810191909152604001600020600201546001600160a01b0316141561134b5781611347816130f4565b9250505b80611355816130f4565b915050611302565b5060008167ffffffffffffffff81111561138757634e487b7160e01b600052604160045260246000fd5b6040519080825280602002602001820160405280156113e057816020015b6040805160a0810182526000808252602080830182905292820181905260608201819052608082015282526000199092019101816113a55790505b50905060005b8481101561100b5733600d60006113fe846001613075565b81526020810191909152604001600020600201546001600160a01b031614156114d6576000600d81611431846001613075565b81526020808201929092526040908101600020815160a0810183528154815260018201549381019390935260028101546001600160a01b0381169284019290925260ff600160a01b8304811615156060850152600160a81b9092049091161515608083015284519092508490879081106114bb57634e487b7160e01b600052603260045260246000fd5b602002602001018190525084806114d1906130f4565b955050505b806114e0816130f4565b9150506113e6565b6000818152600260205260408120546001600160a01b0316806109cb5760405162461bcd60e51b8152602060048201526018602482015277115490cdcc8c4e881a5b9d985b1a59081d1bdad95b88125160421b6044820152606401610aff565b6000611558600880546001019055565b600061156360085490565b905061156f33826122cc565b61157981846122e6565b6040805160a08101825282815260006020808301828152338486019081526060850184815260808601858152888652600d9094529590932093518455516001840155905160029092018054935191511515600160a81b0260ff60a81b19921515600160a01b026001600160a81b03199095166001600160a01b039094169390931793909317161790556109cb565b60006001600160a01b0382166116715760405162461bcd60e51b815260206004820152602960248201527f4552433732313a2061646472657373207a65726f206973206e6f7420612076616044820152683634b21037bbb732b960b91b6064820152608401610aff565b506001600160a01b031660009081526003602052604090205490565b6060600061169a60085490565b905060008060005b838110156116f257600d60006116b9836001613075565b8152602001908152602001600020600101546000146116e0576116dd600184613075565b92505b6116eb600182613075565b90506116a2565b5060008267ffffffffffffffff81111561171c57634e487b7160e01b600052604160045260246000fd5b60405190808252806020026020018201604052801561177557816020015b6040805160a08101825260008082526020808301829052928201819052606082018190526080820152825260001990920191018161173a5790505b50905060005b8481101561100b576000600d81611793846001613075565b81526020019081526020016000209050600d60008360016117b49190613075565b81526020019081526020016000206001015460001461185a576040805160a081018252825481526001830154602082015260028301546001600160a01b0381169282019290925260ff600160a01b8304811615156060830152600160a81b90920490911615156080820152835184908690811061184157634e487b7160e01b600052603260045260246000fd5b6020908102919091010152611857600185613075565b93505b50611866600182613075565b905061177b565b6060600180546109e0906130b9565b6000818152600d6020526040902060018101546002909101546001600160a01b03163314156118ed5760405162461bcd60e51b815260206004820152601a60248201527f796f752063616e27742062757920796f7572206f776e206e66740000000000006044820152606401610aff565b6000828152600d60205260409020600201546001600160a01b03166119138133856120ea565b61191d8184610a8a565b6000838152600d6020526040808220600201805460ff60a81b1960ff60a01b1933166001600160a81b031990921691909117600160a01b1716600160a81b179055516001600160a01b038316913480156108fc02929091818181858888f19350505050158015611991573d6000803e3d6000fd5b506119a0600980546001019055565b60006119ab60095490565b6040805160a08101825286815260208082019687526001600160a01b0395861682840190815233606084019081526001608085018181526000978852600e8552868820955186559951858201559151600285018054918a166001600160a01b0319909216919091179055516003909301805498511515600160a01b026001600160a81b0319909916939097169290921796909617909455948152600d9093525091812090910155565b6112ea3383836123b8565b60606000611a6c60095490565b9050600080805b83811015611ace5733600e6000611a8b846001613075565b81526020810191909152604001600020600201546001600160a01b03161415611abc5781611ab8816130f4565b9250505b80611ac6816130f4565b915050611a73565b5060008167ffffffffffffffff811115611af857634e487b7160e01b600052604160045260246000fd5b604051908082528060200260200182016040528015611b5157816020015b6040805160a081018252600080825260208083018290529282018190526060820181905260808201528252600019909201910181611b165790505b50905060005b8481101561100b5733600e6000611b6f846001613075565b81526020810191909152604001600020600201546001600160a01b03161415611c43576000600e81611ba2846001613075565b81526020808201929092526040908101600020815160a0810183528154815260018201549381019390935260028101546001600160a01b039081169284019290925260038101549182166060840152600160a01b90910460ff16151560808301528451909250849087908110611c2857634e487b7160e01b600052603260045260246000fd5b60200260200101819052508480611c3e906130f4565b955050505b80611c4d816130f4565b915050611b57565b60606000611c62600c5490565b9050600080805b83811015611cb95760156000611c80836001613075565b815260200190815260200160002060030154600014611ca75781611ca3816130f4565b9250505b80611cb1816130f4565b915050611c69565b5060008167ffffffffffffffff811115611ce357634e487b7160e01b600052604160045260246000fd5b604051908082528060200260200182016040528015611d4857816020015b611d356040518060800160405280600081526020016000815260200160006001600160a01b03168152602001600081525090565b815260200190600190039081611d015790505b50905060005b8481101561100b5760156000611d65836001613075565b815260200190815260200160002060030154600014611e18576000601581611d8e846001613075565b8152602080820192909252604090810160002081516080810183528154815260018201549381019390935260028101546001600160a01b031691830191909152600381015460608301528451909250849087908110611dfd57634e487b7160e01b600052603260045260246000fd5b60200260200101819052508480611e13906130f4565b955050505b80611e22816130f4565b915050611d4e565b611e34338361224e565b611e505760405162461bcd60e51b8152600401610aff90612f91565b611e5c84848484612487565b50505050565b6060611e6d82611fc3565b60008281526006602052604081208054611e86906130b9565b80601f0160208091040260200160405190810160405280929190818152602001828054611eb2906130b9565b8015611eff5780601f10611ed457610100808354040283529160200191611eff565b820191906000526020600020905b815481529060010190602001808311611ee257829003601f168201915b505050505090506000611f1d60408051602081019091526000815290565b9050805160001415611f30575092915050565b815115611f62578082604051602001611f4a929190612d3a565b60405160208183030381529060405292505050919050565b611f6b846124ba565b949350505050565b60006001600160e01b031982166380ac58cd60e01b1480611fa457506001600160e01b03198216635b5e139f60e01b145b806109cb57506301ffc9a760e01b6001600160e01b03198316146109cb565b6000818152600260205260409020546001600160a01b0316610d9f5760405162461bcd60e51b8152602060048201526018602482015277115490cdcc8c4e881a5b9d985b1a59081d1bdad95b88125160421b6044820152606401610aff565b600081815260046020526040902080546001600160a01b0319166001600160a01b0384169081179091558190612057826114e8565b6001600160a01b03167f8c5be1e5ebec7d5bd14f71427d1e84f3dd0314c0f7b2291e5b200ac8c7c3b92560405160405180910390a45050565b600260075414156120e35760405162461bcd60e51b815260206004820152601f60248201527f5265656e7472616e637947756172643a207265656e7472616e742063616c6c006044820152606401610aff565b6002600755565b826001600160a01b03166120fd826114e8565b6001600160a01b0316146121235760405162461bcd60e51b8152600401610aff90613030565b6001600160a01b0382166121855760405162461bcd60e51b8152602060048201526024808201527f4552433732313a207472616e7366657220746f20746865207a65726f206164646044820152637265737360e01b6064820152608401610aff565b826001600160a01b0316612198826114e8565b6001600160a01b0316146121be5760405162461bcd60e51b8152600401610aff90613030565b600081815260046020908152604080832080546001600160a01b03199081169091556001600160a01b0387811680865260038552838620805460001901905590871680865283862080546001019055868652600290945282852080549092168417909155905184937fddf252ad1be2c89b69c2b068fc378daa952ba7f163c4a11628f55a4df523b3ef91a4505050565b60008061225a836114e8565b9050806001600160a01b0316846001600160a01b031614806122a157506001600160a01b0380821660009081526005602090815260408083209388168352929052205460ff165b80611f6b5750836001600160a01b03166122ba84610a63565b6001600160a01b031614949350505050565b6112ea82826040518060200160405280600081525061252e565b6000828152600260205260409020546001600160a01b03166123615760405162461bcd60e51b815260206004820152602e60248201527f45524337323155524953746f726167653a2055524920736574206f66206e6f6e60448201526d32bc34b9ba32b73a103a37b5b2b760911b6064820152608401610aff565b600082815260066020908152604090912082516123809284019061297c565b506040518281527ff8e1a15aba9398e019f0b49df1a4fde98ee17ae345cb5f6b5e2c27f5033e8ce79060200160405180910390a15050565b816001600160a01b0316836001600160a01b0316141561241a5760405162461bcd60e51b815260206004820152601960248201527f4552433732313a20617070726f766520746f2063616c6c6572000000000000006044820152606401610aff565b6001600160a01b03838116600081815260056020908152604080832094871680845294825291829020805460ff191686151590811790915591519182527f17307eab39ab6107e8899845ad3d59bd9653f200f220920489ca2b5937696c31910160405180910390a3505050565b6124928484846120ea565b61249e84848484612561565b611e5c5760405162461bcd60e51b8152600401610aff90612fde565b60606124c582611fc3565b60006124dc60408051602081019091526000815290565b905060008151116124fc5760405180602001604052806000815250612527565b806125068461266e565b604051602001612517929190612d3a565b6040516020818303038152906040525b9392505050565b6125388383612719565b6125456000848484612561565b610ba05760405162461bcd60e51b8152600401610aff90612fde565b60006001600160a01b0384163b1561266357604051630a85bd0160e11b81526001600160a01b0385169063150b7a02906125a5903390899088908890600401612d69565b602060405180830381600087803b1580156125bf57600080fd5b505af19250505080156125ef575060408051601f3d908101601f191682019092526125ec91810190612c26565b60015b612649573d80801561261d576040519150601f19603f3d011682016040523d82523d6000602084013e612622565b606091505b5080516126415760405162461bcd60e51b8152600401610aff90612fde565b805181602001fd5b6001600160e01b031916630a85bd0160e11b149050611f6b565b506001949350505050565b6060600061267b836128a4565b600101905060008167ffffffffffffffff8111156126a957634e487b7160e01b600052604160045260246000fd5b6040519080825280601f01601f1916602001820160405280156126d3576020820181803683370190505b5090508181016020015b600019016f181899199a1a9b1b9c1cb0b131b232b360811b600a86061a8153600a850494508461270c57612711565b6126dd565b509392505050565b6001600160a01b03821661276f5760405162461bcd60e51b815260206004820181905260248201527f4552433732313a206d696e7420746f20746865207a65726f20616464726573736044820152606401610aff565b6000818152600260205260409020546001600160a01b0316156127d45760405162461bcd60e51b815260206004820152601c60248201527f4552433732313a20746f6b656e20616c7265616479206d696e746564000000006044820152606401610aff565b6000818152600260205260409020546001600160a01b0316156128395760405162461bcd60e51b815260206004820152601c60248201527f4552433732313a20746f6b656e20616c7265616479206d696e746564000000006044820152606401610aff565b6001600160a01b038216600081815260036020908152604080832080546001019055848352600290915280822080546001600160a01b0319168417905551839291907fddf252ad1be2c89b69c2b068fc378daa952ba7f163c4a11628f55a4df523b3ef908290a45050565b60008072184f03e93ff9f4daa797ed6e38ed64bf6a1f0160401b83106128e35772184f03e93ff9f4daa797ed6e38ed64bf6a1f0160401b830492506040015b6d04ee2d6d415b85acef8100000000831061290f576d04ee2d6d415b85acef8100000000830492506020015b662386f26fc10000831061292d57662386f26fc10000830492506010015b6305f5e1008310612945576305f5e100830492506008015b612710831061295957612710830492506004015b6064831061296b576064830492506002015b600a83106109cb5760010192915050565b828054612988906130b9565b90600052602060002090601f0160209004810192826129aa57600085556129f0565b82601f106129c357805160ff19168380011785556129f0565b828001600101855582156129f0579182015b828111156129f05782518255916020019190600101906129d5565b506129fc929150612a00565b5090565b5b808211156129fc5760008155600101612a01565b600067ffffffffffffffff80841115612a3057612a30613125565b604051601f8501601f19908116603f01168101908282118183101715612a5857612a58613125565b81604052809350858152868686011115612a7157600080fd5b858560208301376000602087830101525050509392505050565b80356001600160a01b0381168114612aa257600080fd5b919050565b600060208284031215612ab8578081fd5b61252782612a8b565b60008060408385031215612ad3578081fd5b612adc83612a8b565b9150612aea60208401612a8b565b90509250929050565b600080600060608486031215612b07578081fd5b612b1084612a8b565b9250612b1e60208501612a8b565b9150604084013590509250925092565b60008060008060808587031215612b43578081fd5b612b4c85612a8b565b9350612b5a60208601612a8b565b925060408501359150606085013567ffffffffffffffff811115612b7c578182fd5b8501601f81018713612b8c578182fd5b612b9b87823560208401612a15565b91505092959194509250565b60008060408385031215612bb9578182fd5b612bc283612a8b565b915060208301358015158114612bd6578182fd5b809150509250929050565b60008060408385031215612bf3578182fd5b612bfc83612a8b565b946020939093013593505050565b600060208284031215612c1b578081fd5b81356125278161313b565b600060208284031215612c37578081fd5b81516125278161313b565b600060208284031215612c53578081fd5b813567ffffffffffffffff811115612c69578182fd5b8201601f81018413612c79578182fd5b611f6b84823560208401612a15565b600060208284031215612c99578081fd5b5035919050565b60008060408385031215612cb2578182fd5b82359150612aea60208401612a8b565b60008060408385031215612cd4578182fd5b50508035926020909101359150565b600080600060608486031215612cf7578283fd5b505081359360208301359350604090920135919050565b60008151808452612d2681602086016020860161308d565b601f01601f19169290920160200192915050565b60008351612d4c81846020880161308d565b835190830190612d6081836020880161308d565b01949350505050565b6001600160a01b0385811682528416602082015260408101839052608060608201819052600090612d9c90830184612d0e565b9695505050505050565b602080825282518282018190526000919060409081850190868401855b82811015612e06578151805185528681015187860152858101516001600160a01b0316868601526060908101519085015260809093019290850190600101612dc3565b5091979650505050505050565b602080825282518282018190526000919060409081850190868401855b82811015612e06578151805185528681015187860152858101516001600160a01b03908116878701526060808301519091169086015260809081015115159085015260a09093019290850190600101612e30565b602080825282518282018190526000919060409081850190868401855b82811015612e06578151805185528681015187860152858101516001600160a01b03168686015260608082015115159086015260809081015115159085015260a09093019290850190600101612ea1565b602080825282518282018190526000919060409081850190868401855b82811015612e0657815180518552868101516001600160a01b0316878601528581015186860152606080820151908601526080808201519086015260a0808201519086015260c0808201519086015260e09081015160ff16908501526101009093019290850190600101612f0f565b6020815260006125276020830184612d0e565b6020808252602d908201527f4552433732313a2063616c6c6572206973206e6f7420746f6b656e206f776e6560408201526c1c881bdc88185c1c1c9bdd9959609a1b606082015260800190565b60208082526032908201527f4552433732313a207472616e7366657220746f206e6f6e20455243373231526560408201527131b2b4bb32b91034b6b83632b6b2b73a32b960711b606082015260800190565b60208082526025908201527f4552433732313a207472616e736665722066726f6d20696e636f72726563742060408201526437bbb732b960d91b606082015260800190565b600082198211156130885761308861310f565b500190565b60005b838110156130a8578181015183820152602001613090565b83811115611e5c5750506000910152565b600181811c908216806130cd57607f821691505b602082108114156130ee57634e487b7160e01b600052602260045260246000fd5b50919050565b60006000198214156131085761310861310f565b5060010190565b634e487b7160e01b600052601160045260246000fd5b634e487b7160e01b600052604160045260246000fd5b6001600160e01b031981168114610d9f57600080fdfea2646970667358221220a21c5e6faa5626fa9a267930efd5861ec9abdbbb3d1222eefb9ddf217a6fca1e64736f6c63430008040033",
  "linkReferences": {},
  "deployedLinkReferences": {}
}