{
  "_format": "hh-sol-artifact-1",
  "contractName": "PolygonNFTMarketplace",
  "sourceName": "contracts/PolygonNFTMarketplace.sol",
  "abi": [
    {
      "inputs": [],
      "stateMutability": "nonpayable",
      "type": "constructor"
    },
    {
      "anonymous": false,
      "inputs": [
        {
          "indexed": true,
          "internalType": "address",
          "name": "owner",
          "type": "address"
        },
        {
          "indexed": true,
          "internalType": "address",
          "name": "approved",
          "type": "address"
        },
        {
          "indexed": true,
          "internalType": "uint256",
          "name": "tokenId",
          "type": "uint256"
        }
      ],
      "name": "Approval",
      "type": "event"
    },
    {
      "anonymous": false,
      "inputs": [
        {
          "indexed": true,
          "internalType": "address",
          "name": "owner",
          "type": "address"
        },
        {
          "indexed": true,
          "internalType": "address",
          "name": "operator",
          "type": "address"
        },
        {
          "indexed": false,
          "internalType": "bool",
          "name": "approved",
          "type": "bool"
        }
      ],
      "name": "ApprovalForAll",
      "type": "event"
    },
    {
      "anonymous": false,
      "inputs": [
        {
          "indexed": false,
          "internalType": "uint256",
          "name": "_fromTokenId",
          "type": "uint256"
        },
        {
          "indexed": false,
          "internalType": "uint256",
          "name": "_toTokenId",
          "type": "uint256"
        }
      ],
      "name": "BatchMetadataUpdate",
      "type": "event"
    },
    {
      "anonymous": false,
      "inputs": [
        {
          "indexed": false,
          "internalType": "uint256",
          "name": "_tokenId",
          "type": "uint256"
        }
      ],
      "name": "MetadataUpdate",
      "type": "event"
    },
    {
      "anonymous": false,
      "inputs": [
        {
          "indexed": true,
          "internalType": "address",
          "name": "from",
          "type": "address"
        },
        {
          "indexed": true,
          "internalType": "address",
          "name": "to",
          "type": "address"
        },
        {
          "indexed": true,
          "internalType": "uint256",
          "name": "tokenId",
          "type": "uint256"
        }
      ],
      "name": "Transfer",
      "type": "event"
    },
    {
      "inputs": [],
      "name": "BuyCount",
      "outputs": [
        {
          "internalType": "uint256",
          "name": "_value",
          "type": "uint256"
        }
      ],
      "stateMutability": "view",
      "type": "function"
    },
    {
      "inputs": [
        {
          "internalType": "string",
          "name": "tokenURI",
          "type": "string"
        }
      ],
      "name": "CreateToken",
      "outputs": [
        {
          "internalType": "uint256",
          "name": "",
          "type": "uint256"
        }
      ],
      "stateMutability": "payable",
      "type": "function"
    },
    {
      "inputs": [
        {
          "internalType": "uint256",
          "name": "price",
          "type": "uint256"
        },
        {
          "internalType": "uint256",
          "name": "id",
          "type": "uint256"
        }
      ],
      "name": "ListNFT",
      "outputs": [],
      "stateMutability": "nonpayable",
      "type": "function"
    },
    {
      "inputs": [],
      "name": "STATUS_DONE",
      "outputs": [
        {
          "internalType": "uint8",
          "name": "",
          "type": "uint8"
        }
      ],
      "stateMutability": "view",
      "type": "function"
    },
    {
      "inputs": [],
      "name": "STATUS_OPEN",
      "outputs": [
        {
          "internalType": "uint8",
          "name": "",
          "type": "uint8"
        }
      ],
      "stateMutability": "view",
      "type": "function"
    },
    {
      "inputs": [],
      "name": "SoldCount",
      "outputs": [
        {
          "internalType": "uint256",
          "name": "_value",
          "type": "uint256"
        }
      ],
      "stateMutability": "view",
      "type": "function"
    },
    {
      "inputs": [],
      "name": "TokenCount",
      "outputs": [
        {
          "internalType": "uint256",
          "name": "_value",
          "type": "uint256"
        }
      ],
      "stateMutability": "view",
      "type": "function"
    },
    {
      "inputs": [
        {
          "internalType": "address",
          "name": "to",
          "type": "address"
        },
        {
          "internalType": "uint256",
          "name": "tokenId",
          "type": "uint256"
        }
      ],
      "name": "approve",
      "outputs": [],
      "stateMutability": "nonpayable",
      "type": "function"
    },
    {
      "inputs": [
        {
          "internalType": "address",
          "name": "owner",
          "type": "address"
        }
      ],
      "name": "balanceOf",
      "outputs": [
        {
          "internalType": "uint256",
          "name": "",
          "type": "uint256"
        }
      ],
      "stateMutability": "view",
      "type": "function"
    },
    {
      "inputs": [
        {
          "internalType": "uint256",
          "name": "listingId",
          "type": "uint256"
        }
      ],
      "name": "bid",
      "outputs": [],
      "stateMutability": "payable",
      "type": "function"
    },
    {
      "inputs": [],
      "name": "biddingCounter",
      "outputs": [
        {
          "internalType": "uint256",
          "name": "_value",
          "type": "uint256"
        }
      ],
      "stateMutability": "view",
      "type": "function"
    },
    {
      "inputs": [
        {
          "internalType": "uint256",
          "name": "",
          "type": "uint256"
        },
        {
          "internalType": "address",
          "name": "",
          "type": "address"
        }
      ],
      "name": "bids",
      "outputs": [
        {
          "internalType": "uint256",
          "name": "",
          "type": "uint256"
        }
      ],
      "stateMutability": "view",
      "type": "function"
    },
    {
      "inputs": [
        {
          "internalType": "uint256",
          "name": "listingId",
          "type": "uint256"
        }
      ],
      "name": "completeAuction",
      "outputs": [],
      "stateMutability": "payable",
      "type": "function"
    },
    {
      "inputs": [
        {
          "internalType": "uint256",
          "name": "price",
          "type": "uint256"
        },
        {
          "internalType": "uint256",
          "name": "tokenId",
          "type": "uint256"
        },
        {
          "internalType": "uint256",
          "name": "deadline",
          "type": "uint256"
        }
      ],
      "name": "createAuctionListing",
      "outputs": [
        {
          "internalType": "uint256",
          "name": "",
          "type": "uint256"
        }
      ],
      "stateMutability": "nonpayable",
      "type": "function"
    },
    {
      "inputs": [
        {
          "internalType": "uint256",
          "name": "tokenId",
          "type": "uint256"
        }
      ],
      "name": "executeSale",
      "outputs": [],
      "stateMutability": "payable",
      "type": "function"
    },
    {
      "inputs": [],
      "name": "getAllBiddedNfts",
      "outputs": [
        {
          "components": [
            {
              "internalType": "uint256",
              "name": "biddingId",
              "type": "uint256"
            },
            {
              "internalType": "address payable",
              "name": "seller",
              "type": "address"
            },
            {
              "internalType": "uint256",
              "name": "tokenId",
              "type": "uint256"
            },
            {
              "internalType": "uint256",
              "name": "price",
              "type": "uint256"
            },
            {
              "internalType": "uint256",
              "name": "netPrice",
              "type": "uint256"
            },
            {
              "internalType": "uint256",
              "name": "startAt",
              "type": "uint256"
            },
            {
              "internalType": "uint256",
              "name": "deadline",
              "type": "uint256"
            },
            {
              "internalType": "uint8",
              "name": "status",
              "type": "uint8"
            }
          ],
          "internalType": "struct PolygonNFTMarketplace.Listing[]",
          "name": "",
          "type": "tuple[]"
        }
      ],
      "stateMutability": "view",
      "type": "function"
    },
    {
      "inputs": [],
      "name": "getAllBiddingWithListingID",
      "outputs": [
        {
          "components": [
            {
              "internalType": "uint256",
              "name": "tokenId",
              "type": "uint256"
            },
            {
              "internalType": "uint256",
              "name": "biddingId",
              "type": "uint256"
            },
            {
              "internalType": "address",
              "name": "bidder",
              "type": "address"
            },
            {
              "internalType": "uint256",
              "name": "price",
              "type": "uint256"
            }
          ],
          "internalType": "struct PolygonNFTMarketplace.Bidding[]",
          "name": "",
          "type": "tuple[]"
        }
      ],
      "stateMutability": "view",
      "type": "function"
    },
    {
      "inputs": [],
      "name": "getAllNfts",
      "outputs": [
        {
          "components": [
            {
              "internalType": "uint256",
              "name": "tokenId",
              "type": "uint256"
            },
            {
              "internalType": "uint256",
              "name": "price",
              "type": "uint256"
            },
            {
              "internalType": "address payable",
              "name": "owner",
              "type": "address"
            },
            {
              "internalType": "bool",
              "name": "NFTsold",
              "type": "bool"
            },
            {
              "internalType": "bool",
              "name": "NFTbought",
              "type": "bool"
            }
          ],
          "internalType": "struct PolygonNFTMarketplace.ListedToken[]",
          "name": "",
          "type": "tuple[]"
        }
      ],
      "stateMutability": "view",
      "type": "function"
    },
    {
      "inputs": [
        {
          "internalType": "uint256",
          "name": "tokenId",
          "type": "uint256"
        }
      ],
      "name": "getApproved",
      "outputs": [
        {
          "internalType": "address",
          "name": "",
          "type": "address"
        }
      ],
      "stateMutability": "view",
      "type": "function"
    },
    {
      "inputs": [],
      "name": "getMyNFTs",
      "outputs": [
        {
          "components": [
            {
              "internalType": "uint256",
              "name": "tokenId",
              "type": "uint256"
            },
            {
              "internalType": "uint256",
              "name": "price",
              "type": "uint256"
            },
            {
              "internalType": "address payable",
              "name": "owner",
              "type": "address"
            },
            {
              "internalType": "bool",
              "name": "NFTsold",
              "type": "bool"
            },
            {
              "internalType": "bool",
              "name": "NFTbought",
              "type": "bool"
            }
          ],
          "internalType": "struct PolygonNFTMarketplace.ListedToken[]",
          "name": "",
          "type": "tuple[]"
        }
      ],
      "stateMutability": "view",
      "type": "function"
    },
    {
      "inputs": [],
      "name": "getMySoldNFTs",
      "outputs": [
        {
          "components": [
            {
              "internalType": "uint256",
              "name": "tokenId",
              "type": "uint256"
            },
            {
              "internalType": "uint256",
              "name": "price",
              "type": "uint256"
            },
            {
              "internalType": "address payable",
              "name": "owner",
              "type": "address"
            },
            {
              "internalType": "address",
              "name": "newOwner",
              "type": "address"
            },
            {
              "internalType": "bool",
              "name": "NFTsold",
              "type": "bool"
            }
          ],
          "internalType": "struct PolygonNFTMarketplace.ItemsSold[]",
          "name": "",
          "type": "tuple[]"
        }
      ],
      "stateMutability": "view",
      "type": "function"
    },
    {
      "inputs": [
        {
          "internalType": "uint256",
          "name": "",
          "type": "uint256"
        }
      ],
      "name": "highestBidder",
      "outputs": [
        {
          "internalType": "address",
          "name": "",
          "type": "address"
        }
      ],
      "stateMutability": "view",
      "type": "function"
    },
    {
      "inputs": [],
      "name": "highestBidding",
      "outputs": [
        {
          "internalType": "uint256",
          "name": "",
          "type": "uint256"
        }
      ],
      "stateMutability": "view",
      "type": "function"
    },
    {
      "inputs": [
        {
          "internalType": "uint256",
          "name": "",
          "type": "uint256"
        }
      ],
      "name": "highestBiddingAmount",
      "outputs": [
        {
          "internalType": "uint256",
          "name": "",
          "type": "uint256"
        }
      ],
      "stateMutability": "view",
      "type": "function"
    },
    {
      "inputs": [
        {
          "internalType": "uint256",
          "name": "",
          "type": "uint256"
        }
      ],
      "name": "idToBiddedToken",
      "outputs": [
        {
          "internalType": "uint256",
          "name": "tokenId",
          "type": "uint256"
        },
        {
          "internalType": "uint256",
          "name": "biddingId",
          "type": "uint256"
        },
        {
          "internalType": "address",
          "name": "bidder",
          "type": "address"
        },
        {
          "internalType": "uint256",
          "name": "price",
          "type": "uint256"
        }
      ],
      "stateMutability": "view",
      "type": "function"
    },
    {
      "inputs": [
        {
          "internalType": "uint256",
          "name": "",
          "type": "uint256"
        }
      ],
      "name": "idToListedToken",
      "outputs": [
        {
          "internalType": "uint256",
          "name": "tokenId",
          "type": "uint256"
        },
        {
          "internalType": "uint256",
          "name": "price",
          "type": "uint256"
        },
        {
          "internalType": "address payable",
          "name": "owner",
          "type": "address"
        },
        {
          "internalType": "bool",
          "name": "NFTsold",
          "type": "bool"
        },
        {
          "internalType": "bool",
          "name": "NFTbought",
          "type": "bool"
        }
      ],
      "stateMutability": "view",
      "type": "function"
    },
    {
      "inputs": [
        {
          "internalType": "uint256",
          "name": "",
          "type": "uint256"
        }
      ],
      "name": "idToSoldItems",
      "outputs": [
        {
          "internalType": "uint256",
          "name": "tokenId",
          "type": "uint256"
        },
        {
          "internalType": "uint256",
          "name": "price",
          "type": "uint256"
        },
        {
          "internalType": "address payable",
          "name": "owner",
          "type": "address"
        },
        {
          "internalType": "address",
          "name": "newOwner",
          "type": "address"
        },
        {
          "internalType": "bool",
          "name": "NFTsold",
          "type": "bool"
        }
      ],
      "stateMutability": "view",
      "type": "function"
    },
    {
      "inputs": [
        {
          "internalType": "address",
          "name": "owner",
          "type": "address"
        },
        {
          "internalType": "address",
          "name": "operator",
          "type": "address"
        }
      ],
      "name": "isApprovedForAll",
      "outputs": [
        {
          "internalType": "bool",
          "name": "",
          "type": "bool"
        }
      ],
      "stateMutability": "view",
      "type": "function"
    },
    {
      "inputs": [
        {
          "internalType": "uint256",
          "name": "id",
          "type": "uint256"
        }
      ],
      "name": "isAuctionExpired",
      "outputs": [
        {
          "internalType": "bool",
          "name": "",
          "type": "bool"
        }
      ],
      "stateMutability": "view",
      "type": "function"
    },
    {
      "inputs": [
        {
          "internalType": "uint256",
          "name": "id",
          "type": "uint256"
        }
      ],
      "name": "isAuctionOpen",
      "outputs": [
        {
          "internalType": "bool",
          "name": "",
          "type": "bool"
        }
      ],
      "stateMutability": "view",
      "type": "function"
    },
    {
      "inputs": [],
      "name": "listingCounter",
      "outputs": [
        {
          "internalType": "uint256",
          "name": "_value",
          "type": "uint256"
        }
      ],
      "stateMutability": "view",
      "type": "function"
    },
    {
      "inputs": [
        {
          "internalType": "uint256",
          "name": "",
          "type": "uint256"
        }
      ],
      "name": "listings",
      "outputs": [
        {
          "internalType": "uint256",
          "name": "biddingId",
          "type": "uint256"
        },
        {
          "internalType": "address payable",
          "name": "seller",
          "type": "address"
        },
        {
          "internalType": "uint256",
          "name": "tokenId",
          "type": "uint256"
        },
        {
          "internalType": "uint256",
          "name": "price",
          "type": "uint256"
        },
        {
          "internalType": "uint256",
          "name": "netPrice",
          "type": "uint256"
        },
        {
          "internalType": "uint256",
          "name": "startAt",
          "type": "uint256"
        },
        {
          "internalType": "uint256",
          "name": "deadline",
          "type": "uint256"
        },
        {
          "internalType": "uint8",
          "name": "status",
          "type": "uint8"
        }
      ],
      "stateMutability": "view",
      "type": "function"
    },
    {
      "inputs": [],
      "name": "minAuctionIncrement",
      "outputs": [
        {
          "internalType": "uint256",
          "name": "",
          "type": "uint256"
        }
      ],
      "stateMutability": "view",
      "type": "function"
    },
    {
      "inputs": [],
      "name": "name",
      "outputs": [
        {
          "internalType": "string",
          "name": "",
          "type": "string"
        }
      ],
      "stateMutability": "view",
      "type": "function"
    },
    {
      "inputs": [
        {
          "internalType": "uint256",
          "name": "tokenId",
          "type": "uint256"
        }
      ],
      "name": "ownerOf",
      "outputs": [
        {
          "internalType": "address",
          "name": "",
          "type": "address"
        }
      ],
      "stateMutability": "view",
      "type": "function"
    },
    {
      "inputs": [
        {
          "internalType": "address",
          "name": "from",
          "type": "address"
        },
        {
          "internalType": "address",
          "name": "to",
          "type": "address"
        },
        {
          "internalType": "uint256",
          "name": "tokenId",
          "type": "uint256"
        }
      ],
      "name": "safeTransferFrom",
      "outputs": [],
      "stateMutability": "nonpayable",
      "type": "function"
    },
    {
      "inputs": [
        {
          "internalType": "address",
          "name": "from",
          "type": "address"
        },
        {
          "internalType": "address",
          "name": "to",
          "type": "address"
        },
        {
          "internalType": "uint256",
          "name": "tokenId",
          "type": "uint256"
        },
        {
          "internalType": "bytes",
          "name": "data",
          "type": "bytes"
        }
      ],
      "name": "safeTransferFrom",
      "outputs": [],
      "stateMutability": "nonpayable",
      "type": "function"
    },
    {
      "inputs": [
        {
          "internalType": "address",
          "name": "operator",
          "type": "address"
        },
        {
          "internalType": "bool",
          "name": "approved",
          "type": "bool"
        }
      ],
      "name": "setApprovalForAll",
      "outputs": [],
      "stateMutability": "nonpayable",
      "type": "function"
    },
    {
      "inputs": [
        {
          "internalType": "bytes4",
          "name": "interfaceId",
          "type": "bytes4"
        }
      ],
      "name": "supportsInterface",
      "outputs": [
        {
          "internalType": "bool",
          "name": "",
          "type": "bool"
        }
      ],
      "stateMutability": "view",
      "type": "function"
    },
    {
      "inputs": [],
      "name": "symbol",
      "outputs": [
        {
          "internalType": "string",
          "name": "",
          "type": "string"
        }
      ],
      "stateMutability": "view",
      "type": "function"
    },
    {
      "inputs": [
        {
          "internalType": "uint256",
          "name": "tokenId",
          "type": "uint256"
        }
      ],
      "name": "tokenURI",
      "outputs": [
        {
          "internalType": "string",
          "name": "",
          "type": "string"
        }
      ],
      "stateMutability": "view",
      "type": "function"
    },
    {
      "inputs": [
        {
          "internalType": "address",
          "name": "from",
          "type": "address"
        },
        {
          "internalType": "address",
          "name": "to",
          "type": "address"
        },
        {
          "internalType": "uint256",
          "name": "tokenId",
          "type": "uint256"
        }
      ],
      "name": "transferFrom",
      "outputs": [],
      "stateMutability": "nonpayable",
      "type": "function"
    }
  ],
  "bytecode": "0x6080604052600a600f5560006014553480156200001b57600080fd5b50604080518082018252601581527f506f6c79676f6e4e46544d61726b6574706c61636500000000000000000000006020808301918252835180850190945260048452634441524b60e01b9084015281519192916200007d91600091620000a1565b50805162000093906001906020840190620000a1565b505060016007555062000184565b828054620000af9062000147565b90600052602060002090601f016020900481019282620000d357600085556200011e565b82601f10620000ee57805160ff19168380011785556200011e565b828001600101855582156200011e579182015b828111156200011e57825182559160200191906001019062000101565b506200012c92915062000130565b5090565b5b808211156200012c576000815560010162000131565b600181811c908216806200015c57607f821691505b602082108114156200017e57634e487b7160e01b600052602260045260246000fd5b50919050565b61317780620001946000396000f3fe6080604052600436106102515760003560e01c80636c2c9c7d11610139578063adc2524c116100b6578063de74e57b1161007a578063de74e57b146107be578063e57a497a1461086f578063e877d3f814610902578063e985e9c51461092f578063edf2ebcc14610978578063fad266fe1461098f57600080fd5b8063adc2524c1461070b578063b27dce811461073a578063b820a6d11461075c578063b88d4fde1461077e578063c87b56dd1461079e57600080fd5b8063903405bb116100fd578063903405bb1461069657806395d89b41146106ac5780639b1225c4146106c1578063a22cb465146106d4578063a4fdb635146106f457600080fd5b80636c2c9c7d1461061f578063708d4d351461063657806370a082311461064c578063732e8d731461066c578063740db2801461068157600080fd5b806336ad658f116101d25780634945dcdd116101965780634945dcdd1461050b5780634c22f3811461052d578063629cb2e41461054d5780636352211e1461056f57806366b126e61461058f5780636b8c91cb146105a257600080fd5b806336ad658f146104455780633f1ffcec1461046a57806342842e0e146104a2578063451df52e146104c2578063454a2ab3146104f857600080fd5b80631389b117116102195780631389b1171461032757806321b628861461035a57806323b872dd1461036d57806324f8515b1461038d57806333024100146103b457600080fd5b806301ffc9a71461025657806306fdde031461028b578063081812fc146102ad578063095ea7b3146102e55780630ad4862814610307575b600080fd5b34801561026257600080fd5b50610276610271366004612bfa565b6109a6565b60405190151581526020015b60405180910390f35b34801561029757600080fd5b506102a06109d1565b6040516102829190612f6e565b3480156102b957600080fd5b506102cd6102c8366004612c78565b610a63565b6040516001600160a01b039091168152602001610282565b3480156102f157600080fd5b50610305610300366004612bd1565b610a8a565b005b34801561031357600080fd5b50610276610322366004612c78565b610ba5565b34801561033357600080fd5b50610276610342366004612c78565b60009081526010602052604090206006015442101590565b610305610368366004612c78565b610bdc565b34801561037957600080fd5b50610305610388366004612ae3565b610d94565b34801561039957600080fd5b506103a2600181565b60405160ff9091168152602001610282565b3480156103c057600080fd5b5061040f6103cf366004612c78565b600e602052600090815260409020805460018201546002830154600390930154919290916001600160a01b0391821691811690600160a01b900460ff1685565b6040805195865260208601949094526001600160a01b03928316938501939093521660608301521515608082015260a001610282565b34801561045157600080fd5b5060085461045c9081565b604051908152602001610282565b34801561047657600080fd5b5061045c610485366004612c90565b601160209081526000928352604080842090915290825290205481565b3480156104ae57600080fd5b506103056104bd366004612ae3565b610dc5565b3480156104ce57600080fd5b506102cd6104dd366004612c78565b6012602052600090815260409020546001600160a01b031681565b610305610506366004612c78565b610de0565b34801561051757600080fd5b50610520610fd1565b6040516102829190612ee2565b34801561053957600080fd5b5061045c610548366004612cd3565b6111f7565b34801561055957600080fd5b506105626112da565b6040516102829190612e74565b34801561057b57600080fd5b506102cd61058a366004612c78565b6114d4565b61045c61059d366004612c32565b611534565b3480156105ae57600080fd5b506105f06105bd366004612c78565b6015602052600090815260409020805460018201546002830154600390930154919290916001600160a01b039091169084565b604051610282949392919093845260208401929092526001600160a01b03166040830152606082015260800190565b34801561062b57600080fd5b50600b5461045c9081565b34801561064257600080fd5b5061045c600f5481565b34801561065857600080fd5b5061045c610667366004612a97565b6115f3565b34801561067857600080fd5b50610562611679565b34801561068d57600080fd5b506103a2600081565b3480156106a257600080fd5b5061045c60145481565b3480156106b857600080fd5b506102a0611859565b6103056106cf366004612c78565b611868565b3480156106e057600080fd5b506103056106ef366004612b97565b611a40565b34801561070057600080fd5b50600c5461045c9081565b34801561071757600080fd5b50610305610726366004612cb2565b6000908152600d6020526040902060010155565b34801561074657600080fd5b5061074f611a4f565b6040516102829190612e03565b34801561076857600080fd5b50610771611c45565b6040516102829190612d96565b34801561078a57600080fd5b50610305610799366004612b1e565b611e1a565b3480156107aa57600080fd5b506102a06107b9366004612c78565b611e52565b3480156107ca57600080fd5b506108296107d9366004612c78565b6010602052600090815260409020805460018201546002830154600384015460048501546005860154600687015460079097015495966001600160a01b0390951695939492939192909160ff1688565b604080519889526001600160a01b039097166020890152958701949094526060860192909252608085015260a084015260c083015260ff1660e082015261010001610282565b34801561087b57600080fd5b506108ca61088a366004612c78565b600d602052600090815260409020805460018201546002909201549091906001600160a01b0381169060ff600160a01b8204811691600160a81b90041685565b6040805195865260208601949094526001600160a01b039092169284019290925290151560608301521515608082015260a001610282565b34801561090e57600080fd5b5061045c61091d366004612c78565b60136020526000908152604090205481565b34801561093b57600080fd5b5061027661094a366004612ab1565b6001600160a01b03918216600090815260056020908152604080832093909416825291909152205460ff1690565b34801561098457600080fd5b5060095461045c9081565b34801561099b57600080fd5b50600a5461045c9081565b60006001600160e01b03198216632483248360e11b14806109cb57506109cb82611f63565b92915050565b6060600080546109e0906130a9565b80601f0160208091040260200160405190810160405280929190818152602001828054610a0c906130a9565b8015610a595780601f10610a2e57610100808354040283529160200191610a59565b820191906000526020600020905b815481529060010190602001808311610a3c57829003601f168201915b5050505050905090565b6000610a6e82611fb3565b506000908152600460205260409020546001600160a01b031690565b6000610a95826114d4565b9050806001600160a01b0316836001600160a01b03161415610b085760405162461bcd60e51b815260206004820152602160248201527f4552433732313a20617070726f76616c20746f2063757272656e74206f776e656044820152603960f91b60648201526084015b60405180910390fd5b336001600160a01b0382161480610b245750610b24813361094a565b610b965760405162461bcd60e51b815260206004820152603d60248201527f4552433732313a20617070726f76652063616c6c6572206973206e6f7420746f60448201527f6b656e206f776e6572206f7220617070726f76656420666f7220616c6c0000006064820152608401610aff565b610ba08383612012565b505050565b60008181526010602052604081206007015460ff1660011480156109cb575050600090815260106020526040902060060154421090565b610be4612080565b610bed81610ba5565b15610c325760405162461bcd60e51b815260206004820152601560248201527430bab1ba34b7b71034b99039ba34b6361037b832b760591b6044820152606401610aff565b600081815260106020908152604080832060129092529091205460018201546001600160a01b039182169116331480610c735750336001600160a01b038216145b610cd25760405162461bcd60e51b815260206004820152602a60248201527f6f6e6c792073656c6c6572206f722077696e6e65722063616e20636f6d706c656044820152693a329030bab1ba34b7b760b11b6064820152608401610aff565b600083815260136020526040902054600283015460018401546001600160a01b0316610cff8185846120da565b6040516001600160a01b0382169084156108fc029085906000818181858888f19350505050158015610d35573d6000803e3d6000fd5b50506001840180546001600160a01b039094166001600160a01b03199485168117909155600060038601819055918252600d602052604090912060020180549093161790915550600701805460ff19169055610d916001600755565b50565b610d9e338261223e565b610dba5760405162461bcd60e51b8152600401610aff90612f81565b610ba08383836120da565b610ba083838360405180602001604052806000815250611e1a565b610de8612080565b610df181610ba5565b610e315760405162461bcd60e51b8152602060048201526011602482015270185d58dd1a5bdb881a185cc8195b991959607a1b6044820152606401610aff565b6000818152601060205260409020600301543411610e915760405162461bcd60e51b815260206004820152601f60248201527f56616c756520697320736d616c6c6572207468616e206269642076616c7565006044820152606401610aff565b6000818152601060205260409020600101546001600160a01b0316331415610efb5760405162461bcd60e51b815260206004820152601a60248201527f796f752063616e27742062696420796f7572206f776e206e66740000000000006044820152606401610aff565b610f09600c80546001019055565b6000610f14600c5490565b60408051608081018252600085815260106020908152838220600290810154845281840188815233858701908152346060870181815289875260159095529690942094518555516001850155915191830180546001600160a01b0319166001600160a01b0390931692909217909155516003909101556014549192501115610fc657346014819055600083815260126020908152604080832080546001600160a01b0319163317905560139091529020555b50610d916001600755565b60606000610fde600b5490565b905060008060005b838110156110365760106000610ffd836001613065565b81526020019081526020016000206003015460001461102457611021600184613065565b92505b61102f600182613065565b9050610fe6565b5060008267ffffffffffffffff81111561106057634e487b7160e01b600052604160045260246000fd5b6040519080825280602002602001820160405280156110e557816020015b6110d26040518061010001604052806000815260200160006001600160a01b031681526020016000815260200160008152602001600081526020016000815260200160008152602001600060ff1681525090565b81526020019060019003908161107e5790505b50905060005b848110156111ee576000601081611103846001613065565b81526020019081526020016000209050601060008360016111249190613065565b8152602001908152602001600020600301546000146111db5760408051610100810182528254815260018301546001600160a01b031660208201526002830154918101919091526003820154606082015260048201546080820152600582015460a0820152600682015460c0820152600782015460ff1660e082015283518490869081106111c257634e487b7160e01b600052603260045260246000fd5b60209081029190910101526111d8600185613065565b93505b506111e7600182613065565b90506110eb565b50949350505050565b6000611207600b80546001019055565b6000611212600b5490565b90504260006112218583613065565b60408051610100810182528581523360208083019182528284019a8b52606083018c8152608084019c8d5260a0840197885260c08401958652600160e0850181815260008b815260109094529590922093518455915190830180546001600160a01b0319166001600160a01b03909216919091179055985160028201559751600389015597516004880155915160058701555051600685015593516007909301805460ff191660ff909416939093179092555090919050565b606060006112e760085490565b9050600080805b838110156113495733600d6000611306846001613065565b81526020810191909152604001600020600201546001600160a01b031614156113375781611333816130e4565b9250505b80611341816130e4565b9150506112ee565b5060008167ffffffffffffffff81111561137357634e487b7160e01b600052604160045260246000fd5b6040519080825280602002602001820160405280156113cc57816020015b6040805160a0810182526000808252602080830182905292820181905260608201819052608082015282526000199092019101816113915790505b50905060005b848110156111ee5733600d60006113ea846001613065565b81526020810191909152604001600020600201546001600160a01b031614156114c2576000600d8161141d846001613065565b81526020808201929092526040908101600020815160a0810183528154815260018201549381019390935260028101546001600160a01b0381169284019290925260ff600160a01b8304811615156060850152600160a81b9092049091161515608083015284519092508490879081106114a757634e487b7160e01b600052603260045260246000fd5b602002602001018190525084806114bd906130e4565b955050505b806114cc816130e4565b9150506113d2565b6000818152600260205260408120546001600160a01b0316806109cb5760405162461bcd60e51b8152602060048201526018602482015277115490cdcc8c4e881a5b9d985b1a59081d1bdad95b88125160421b6044820152606401610aff565b6000611544600880546001019055565b600061154f60085490565b905061155b33826122bc565b61156581846122d6565b6040805160a08101825282815260006020808301828152338486019081526060850184815260808601858152888652600d9094529590932093518455516001840155905160029092018054935191511515600160a81b0260ff60a81b19921515600160a01b026001600160a81b03199095166001600160a01b039094169390931793909317161790556109cb565b60006001600160a01b03821661165d5760405162461bcd60e51b815260206004820152602960248201527f4552433732313a2061646472657373207a65726f206973206e6f7420612076616044820152683634b21037bbb732b960b91b6064820152608401610aff565b506001600160a01b031660009081526003602052604090205490565b6060600061168660085490565b905060008060005b838110156116de57600d60006116a5836001613065565b8152602001908152602001600020600101546000146116cc576116c9600184613065565b92505b6116d7600182613065565b905061168e565b5060008267ffffffffffffffff81111561170857634e487b7160e01b600052604160045260246000fd5b60405190808252806020026020018201604052801561176157816020015b6040805160a0810182526000808252602080830182905292820181905260608201819052608082015282526000199092019101816117265790505b50905060005b848110156111ee576000600d8161177f846001613065565b81526020019081526020016000209050600d60008360016117a09190613065565b815260200190815260200160002060010154600014611846576040805160a081018252825481526001830154602082015260028301546001600160a01b0381169282019290925260ff600160a01b8304811615156060830152600160a81b90920490911615156080820152835184908690811061182d57634e487b7160e01b600052603260045260246000fd5b6020908102919091010152611843600185613065565b93505b50611852600182613065565b9050611767565b6060600180546109e0906130a9565b6000818152600d6020526040902060018101546002909101546001600160a01b03163314156118d95760405162461bcd60e51b815260206004820152601a60248201527f796f752063616e27742062757920796f7572206f776e206e66740000000000006044820152606401610aff565b6000828152600d60205260409020600201546001600160a01b03166118ff8133856120da565b6119098184610a8a565b6000838152600d6020526040808220600201805460ff60a81b1960ff60a01b1933166001600160a81b031990921691909117600160a01b1716600160a81b179055516001600160a01b038316913480156108fc02929091818181858888f1935050505015801561197d573d6000803e3d6000fd5b5061198c600980546001019055565b600061199760095490565b6040805160a08101825286815260208082019687526001600160a01b0395861682840190815233606084019081526001608085018181526000978852600e8552868820955186559951858201559151600285018054918a166001600160a01b0319909216919091179055516003909301805498511515600160a01b026001600160a81b0319909916939097169290921796909617909455948152600d9093525091812090910155565b611a4b3383836123a8565b5050565b60606000611a5c60095490565b9050600080805b83811015611abe5733600e6000611a7b846001613065565b81526020810191909152604001600020600201546001600160a01b03161415611aac5781611aa8816130e4565b9250505b80611ab6816130e4565b915050611a63565b5060008167ffffffffffffffff811115611ae857634e487b7160e01b600052604160045260246000fd5b604051908082528060200260200182016040528015611b4157816020015b6040805160a081018252600080825260208083018290529282018190526060820181905260808201528252600019909201910181611b065790505b50905060005b848110156111ee5733600e6000611b5f846001613065565b81526020810191909152604001600020600201546001600160a01b03161415611c33576000600e81611b92846001613065565b81526020808201929092526040908101600020815160a0810183528154815260018201549381019390935260028101546001600160a01b039081169284019290925260038101549182166060840152600160a01b90910460ff16151560808301528451909250849087908110611c1857634e487b7160e01b600052603260045260246000fd5b60200260200101819052508480611c2e906130e4565b955050505b80611c3d816130e4565b915050611b47565b60606000611c52600c5490565b9050600080805b83811015611ca95760156000611c70836001613065565b815260200190815260200160002060030154600014611c975781611c93816130e4565b9250505b80611ca1816130e4565b915050611c59565b5060008167ffffffffffffffff811115611cd357634e487b7160e01b600052604160045260246000fd5b604051908082528060200260200182016040528015611d3857816020015b611d256040518060800160405280600081526020016000815260200160006001600160a01b03168152602001600081525090565b815260200190600190039081611cf15790505b50905060005b848110156111ee5760156000611d55836001613065565b815260200190815260200160002060030154600014611e08576000601581611d7e846001613065565b8152602080820192909252604090810160002081516080810183528154815260018201549381019390935260028101546001600160a01b031691830191909152600381015460608301528451909250849087908110611ded57634e487b7160e01b600052603260045260246000fd5b60200260200101819052508480611e03906130e4565b955050505b80611e12816130e4565b915050611d3e565b611e24338361223e565b611e405760405162461bcd60e51b8152600401610aff90612f81565b611e4c84848484612477565b50505050565b6060611e5d82611fb3565b60008281526006602052604081208054611e76906130a9565b80601f0160208091040260200160405190810160405280929190818152602001828054611ea2906130a9565b8015611eef5780601f10611ec457610100808354040283529160200191611eef565b820191906000526020600020905b815481529060010190602001808311611ed257829003601f168201915b505050505090506000611f0d60408051602081019091526000815290565b9050805160001415611f20575092915050565b815115611f52578082604051602001611f3a929190612d2a565b60405160208183030381529060405292505050919050565b611f5b846124aa565b949350505050565b60006001600160e01b031982166380ac58cd60e01b1480611f9457506001600160e01b03198216635b5e139f60e01b145b806109cb57506301ffc9a760e01b6001600160e01b03198316146109cb565b6000818152600260205260409020546001600160a01b0316610d915760405162461bcd60e51b8152602060048201526018602482015277115490cdcc8c4e881a5b9d985b1a59081d1bdad95b88125160421b6044820152606401610aff565b600081815260046020526040902080546001600160a01b0319166001600160a01b0384169081179091558190612047826114d4565b6001600160a01b03167f8c5be1e5ebec7d5bd14f71427d1e84f3dd0314c0f7b2291e5b200ac8c7c3b92560405160405180910390a45050565b600260075414156120d35760405162461bcd60e51b815260206004820152601f60248201527f5265656e7472616e637947756172643a207265656e7472616e742063616c6c006044820152606401610aff565b6002600755565b826001600160a01b03166120ed826114d4565b6001600160a01b0316146121135760405162461bcd60e51b8152600401610aff90613020565b6001600160a01b0382166121755760405162461bcd60e51b8152602060048201526024808201527f4552433732313a207472616e7366657220746f20746865207a65726f206164646044820152637265737360e01b6064820152608401610aff565b826001600160a01b0316612188826114d4565b6001600160a01b0316146121ae5760405162461bcd60e51b8152600401610aff90613020565b600081815260046020908152604080832080546001600160a01b03199081169091556001600160a01b0387811680865260038552838620805460001901905590871680865283862080546001019055868652600290945282852080549092168417909155905184937fddf252ad1be2c89b69c2b068fc378daa952ba7f163c4a11628f55a4df523b3ef91a4505050565b60008061224a836114d4565b9050806001600160a01b0316846001600160a01b0316148061229157506001600160a01b0380821660009081526005602090815260408083209388168352929052205460ff165b80611f5b5750836001600160a01b03166122aa84610a63565b6001600160a01b031614949350505050565b611a4b82826040518060200160405280600081525061251e565b6000828152600260205260409020546001600160a01b03166123515760405162461bcd60e51b815260206004820152602e60248201527f45524337323155524953746f726167653a2055524920736574206f66206e6f6e60448201526d32bc34b9ba32b73a103a37b5b2b760911b6064820152608401610aff565b600082815260066020908152604090912082516123709284019061296c565b506040518281527ff8e1a15aba9398e019f0b49df1a4fde98ee17ae345cb5f6b5e2c27f5033e8ce79060200160405180910390a15050565b816001600160a01b0316836001600160a01b0316141561240a5760405162461bcd60e51b815260206004820152601960248201527f4552433732313a20617070726f766520746f2063616c6c6572000000000000006044820152606401610aff565b6001600160a01b03838116600081815260056020908152604080832094871680845294825291829020805460ff191686151590811790915591519182527f17307eab39ab6107e8899845ad3d59bd9653f200f220920489ca2b5937696c31910160405180910390a3505050565b6124828484846120da565b61248e84848484612551565b611e4c5760405162461bcd60e51b8152600401610aff90612fce565b60606124b582611fb3565b60006124cc60408051602081019091526000815290565b905060008151116124ec5760405180602001604052806000815250612517565b806124f68461265e565b604051602001612507929190612d2a565b6040516020818303038152906040525b9392505050565b6125288383612709565b6125356000848484612551565b610ba05760405162461bcd60e51b8152600401610aff90612fce565b60006001600160a01b0384163b1561265357604051630a85bd0160e11b81526001600160a01b0385169063150b7a0290612595903390899088908890600401612d59565b602060405180830381600087803b1580156125af57600080fd5b505af19250505080156125df575060408051601f3d908101601f191682019092526125dc91810190612c16565b60015b612639573d80801561260d576040519150601f19603f3d011682016040523d82523d6000602084013e612612565b606091505b5080516126315760405162461bcd60e51b8152600401610aff90612fce565b805181602001fd5b6001600160e01b031916630a85bd0160e11b149050611f5b565b506001949350505050565b6060600061266b83612894565b600101905060008167ffffffffffffffff81111561269957634e487b7160e01b600052604160045260246000fd5b6040519080825280601f01601f1916602001820160405280156126c3576020820181803683370190505b5090508181016020015b600019016f181899199a1a9b1b9c1cb0b131b232b360811b600a86061a8153600a85049450846126fc57612701565b6126cd565b509392505050565b6001600160a01b03821661275f5760405162461bcd60e51b815260206004820181905260248201527f4552433732313a206d696e7420746f20746865207a65726f20616464726573736044820152606401610aff565b6000818152600260205260409020546001600160a01b0316156127c45760405162461bcd60e51b815260206004820152601c60248201527f4552433732313a20746f6b656e20616c7265616479206d696e746564000000006044820152606401610aff565b6000818152600260205260409020546001600160a01b0316156128295760405162461bcd60e51b815260206004820152601c60248201527f4552433732313a20746f6b656e20616c7265616479206d696e746564000000006044820152606401610aff565b6001600160a01b038216600081815260036020908152604080832080546001019055848352600290915280822080546001600160a01b0319168417905551839291907fddf252ad1be2c89b69c2b068fc378daa952ba7f163c4a11628f55a4df523b3ef908290a45050565b60008072184f03e93ff9f4daa797ed6e38ed64bf6a1f0160401b83106128d35772184f03e93ff9f4daa797ed6e38ed64bf6a1f0160401b830492506040015b6d04ee2d6d415b85acef810000000083106128ff576d04ee2d6d415b85acef8100000000830492506020015b662386f26fc10000831061291d57662386f26fc10000830492506010015b6305f5e1008310612935576305f5e100830492506008015b612710831061294957612710830492506004015b6064831061295b576064830492506002015b600a83106109cb5760010192915050565b828054612978906130a9565b90600052602060002090601f01602090048101928261299a57600085556129e0565b82601f106129b357805160ff19168380011785556129e0565b828001600101855582156129e0579182015b828111156129e05782518255916020019190600101906129c5565b506129ec9291506129f0565b5090565b5b808211156129ec57600081556001016129f1565b600067ffffffffffffffff80841115612a2057612a20613115565b604051601f8501601f19908116603f01168101908282118183101715612a4857612a48613115565b81604052809350858152868686011115612a6157600080fd5b858560208301376000602087830101525050509392505050565b80356001600160a01b0381168114612a9257600080fd5b919050565b600060208284031215612aa8578081fd5b61251782612a7b565b60008060408385031215612ac3578081fd5b612acc83612a7b565b9150612ada60208401612a7b565b90509250929050565b600080600060608486031215612af7578081fd5b612b0084612a7b565b9250612b0e60208501612a7b565b9150604084013590509250925092565b60008060008060808587031215612b33578081fd5b612b3c85612a7b565b9350612b4a60208601612a7b565b925060408501359150606085013567ffffffffffffffff811115612b6c578182fd5b8501601f81018713612b7c578182fd5b612b8b87823560208401612a05565b91505092959194509250565b60008060408385031215612ba9578182fd5b612bb283612a7b565b915060208301358015158114612bc6578182fd5b809150509250929050565b60008060408385031215612be3578182fd5b612bec83612a7b565b946020939093013593505050565b600060208284031215612c0b578081fd5b81356125178161312b565b600060208284031215612c27578081fd5b81516125178161312b565b600060208284031215612c43578081fd5b813567ffffffffffffffff811115612c59578182fd5b8201601f81018413612c69578182fd5b611f5b84823560208401612a05565b600060208284031215612c89578081fd5b5035919050565b60008060408385031215612ca2578182fd5b82359150612ada60208401612a7b565b60008060408385031215612cc4578182fd5b50508035926020909101359150565b600080600060608486031215612ce7578283fd5b505081359360208301359350604090920135919050565b60008151808452612d1681602086016020860161307d565b601f01601f19169290920160200192915050565b60008351612d3c81846020880161307d565b835190830190612d5081836020880161307d565b01949350505050565b6001600160a01b0385811682528416602082015260408101839052608060608201819052600090612d8c90830184612cfe565b9695505050505050565b602080825282518282018190526000919060409081850190868401855b82811015612df6578151805185528681015187860152858101516001600160a01b0316868601526060908101519085015260809093019290850190600101612db3565b5091979650505050505050565b602080825282518282018190526000919060409081850190868401855b82811015612df6578151805185528681015187860152858101516001600160a01b03908116878701526060808301519091169086015260809081015115159085015260a09093019290850190600101612e20565b602080825282518282018190526000919060409081850190868401855b82811015612df6578151805185528681015187860152858101516001600160a01b03168686015260608082015115159086015260809081015115159085015260a09093019290850190600101612e91565b602080825282518282018190526000919060409081850190868401855b82811015612df657815180518552868101516001600160a01b0316878601528581015186860152606080820151908601526080808201519086015260a0808201519086015260c0808201519086015260e09081015160ff16908501526101009093019290850190600101612eff565b6020815260006125176020830184612cfe565b6020808252602d908201527f4552433732313a2063616c6c6572206973206e6f7420746f6b656e206f776e6560408201526c1c881bdc88185c1c1c9bdd9959609a1b606082015260800190565b60208082526032908201527f4552433732313a207472616e7366657220746f206e6f6e20455243373231526560408201527131b2b4bb32b91034b6b83632b6b2b73a32b960711b606082015260800190565b60208082526025908201527f4552433732313a207472616e736665722066726f6d20696e636f72726563742060408201526437bbb732b960d91b606082015260800190565b60008219821115613078576130786130ff565b500190565b60005b83811015613098578181015183820152602001613080565b83811115611e4c5750506000910152565b600181811c908216806130bd57607f821691505b602082108114156130de57634e487b7160e01b600052602260045260246000fd5b50919050565b60006000198214156130f8576130f86130ff565b5060010190565b634e487b7160e01b600052601160045260246000fd5b634e487b7160e01b600052604160045260246000fd5b6001600160e01b031981168114610d9157600080fdfea2646970667358221220b267d5504171606a056bcc99846d47b0d834797d78b4bbc773581c76e26df0e564736f6c63430008040033",
  "linkReferences": {},
  "deployedLinkReferences": {}
}