{
  "_format": "hh-sol-artifact-1",
  "contractName": "PolygonNFTMarketplace",
  "sourceName": "contracts/PolygonNFTMarketplace.sol",
  "abi": [
    {
      "inputs": [],
      "stateMutability": "nonpayable",
      "type": "constructor"
    },
    {
      "anonymous": false,
      "inputs": [
        {
          "indexed": true,
          "internalType": "address",
          "name": "owner",
          "type": "address"
        },
        {
          "indexed": true,
          "internalType": "address",
          "name": "approved",
          "type": "address"
        },
        {
          "indexed": true,
          "internalType": "uint256",
          "name": "tokenId",
          "type": "uint256"
        }
      ],
      "name": "Approval",
      "type": "event"
    },
    {
      "anonymous": false,
      "inputs": [
        {
          "indexed": true,
          "internalType": "address",
          "name": "owner",
          "type": "address"
        },
        {
          "indexed": true,
          "internalType": "address",
          "name": "operator",
          "type": "address"
        },
        {
          "indexed": false,
          "internalType": "bool",
          "name": "approved",
          "type": "bool"
        }
      ],
      "name": "ApprovalForAll",
      "type": "event"
    },
    {
      "anonymous": false,
      "inputs": [
        {
          "indexed": false,
          "internalType": "uint256",
          "name": "_fromTokenId",
          "type": "uint256"
        },
        {
          "indexed": false,
          "internalType": "uint256",
          "name": "_toTokenId",
          "type": "uint256"
        }
      ],
      "name": "BatchMetadataUpdate",
      "type": "event"
    },
    {
      "anonymous": false,
      "inputs": [
        {
          "indexed": false,
          "internalType": "uint256",
          "name": "_tokenId",
          "type": "uint256"
        }
      ],
      "name": "MetadataUpdate",
      "type": "event"
    },
    {
      "anonymous": false,
      "inputs": [
        {
          "indexed": true,
          "internalType": "address",
          "name": "from",
          "type": "address"
        },
        {
          "indexed": true,
          "internalType": "address",
          "name": "to",
          "type": "address"
        },
        {
          "indexed": true,
          "internalType": "uint256",
          "name": "tokenId",
          "type": "uint256"
        }
      ],
      "name": "Transfer",
      "type": "event"
    },
    {
      "inputs": [],
      "name": "BuyCount",
      "outputs": [
        {
          "internalType": "uint256",
          "name": "_value",
          "type": "uint256"
        }
      ],
      "stateMutability": "view",
      "type": "function"
    },
    {
      "inputs": [
        {
          "internalType": "string",
          "name": "tokenURI",
          "type": "string"
        },
        {
          "internalType": "string",
          "name": "imageHash",
          "type": "string"
        },
        {
          "internalType": "uint256",
          "name": "fileType",
          "type": "uint256"
        }
      ],
      "name": "CreateToken",
      "outputs": [
        {
          "internalType": "uint256",
          "name": "",
          "type": "uint256"
        }
      ],
      "stateMutability": "payable",
      "type": "function"
    },
    {
      "inputs": [
        {
          "internalType": "uint256",
          "name": "",
          "type": "uint256"
        }
      ],
      "name": "Creators",
      "outputs": [
        {
          "internalType": "address",
          "name": "",
          "type": "address"
        }
      ],
      "stateMutability": "view",
      "type": "function"
    },
    {
      "inputs": [],
      "name": "CreatorsCount",
      "outputs": [
        {
          "internalType": "uint256",
          "name": "_value",
          "type": "uint256"
        }
      ],
      "stateMutability": "view",
      "type": "function"
    },
    {
      "inputs": [
        {
          "internalType": "uint256",
          "name": "price",
          "type": "uint256"
        },
        {
          "internalType": "uint256",
          "name": "id",
          "type": "uint256"
        }
      ],
      "name": "ListNFT",
      "outputs": [],
      "stateMutability": "nonpayable",
      "type": "function"
    },
    {
      "inputs": [],
      "name": "STATUS_DONE",
      "outputs": [
        {
          "internalType": "uint8",
          "name": "",
          "type": "uint8"
        }
      ],
      "stateMutability": "view",
      "type": "function"
    },
    {
      "inputs": [],
      "name": "STATUS_OPEN",
      "outputs": [
        {
          "internalType": "uint8",
          "name": "",
          "type": "uint8"
        }
      ],
      "stateMutability": "view",
      "type": "function"
    },
    {
      "inputs": [],
      "name": "SoldCount",
      "outputs": [
        {
          "internalType": "uint256",
          "name": "_value",
          "type": "uint256"
        }
      ],
      "stateMutability": "view",
      "type": "function"
    },
    {
      "inputs": [],
      "name": "TokenCount",
      "outputs": [
        {
          "internalType": "uint256",
          "name": "_value",
          "type": "uint256"
        }
      ],
      "stateMutability": "view",
      "type": "function"
    },
    {
      "inputs": [
        {
          "internalType": "address",
          "name": "to",
          "type": "address"
        },
        {
          "internalType": "uint256",
          "name": "tokenId",
          "type": "uint256"
        }
      ],
      "name": "approve",
      "outputs": [],
      "stateMutability": "nonpayable",
      "type": "function"
    },
    {
      "inputs": [
        {
          "internalType": "address",
          "name": "owner",
          "type": "address"
        }
      ],
      "name": "balanceOf",
      "outputs": [
        {
          "internalType": "uint256",
          "name": "",
          "type": "uint256"
        }
      ],
      "stateMutability": "view",
      "type": "function"
    },
    {
      "inputs": [
        {
          "internalType": "uint256",
          "name": "listingId",
          "type": "uint256"
        }
      ],
      "name": "bid",
      "outputs": [],
      "stateMutability": "payable",
      "type": "function"
    },
    {
      "inputs": [],
      "name": "biddingCounter",
      "outputs": [
        {
          "internalType": "uint256",
          "name": "_value",
          "type": "uint256"
        }
      ],
      "stateMutability": "view",
      "type": "function"
    },
    {
      "inputs": [
        {
          "internalType": "string",
          "name": "imageHash",
          "type": "string"
        }
      ],
      "name": "checkImageExist",
      "outputs": [
        {
          "internalType": "bool",
          "name": "",
          "type": "bool"
        }
      ],
      "stateMutability": "view",
      "type": "function"
    },
    {
      "inputs": [
        {
          "internalType": "uint256",
          "name": "listingId",
          "type": "uint256"
        }
      ],
      "name": "completeAuction",
      "outputs": [],
      "stateMutability": "payable",
      "type": "function"
    },
    {
      "inputs": [
        {
          "internalType": "uint256",
          "name": "price",
          "type": "uint256"
        },
        {
          "internalType": "uint256",
          "name": "tokenId",
          "type": "uint256"
        },
        {
          "internalType": "uint256",
          "name": "deadline",
          "type": "uint256"
        },
        {
          "internalType": "string",
          "name": "aucDate",
          "type": "string"
        }
      ],
      "name": "createAuctionListing",
      "outputs": [
        {
          "internalType": "uint256",
          "name": "",
          "type": "uint256"
        }
      ],
      "stateMutability": "nonpayable",
      "type": "function"
    },
    {
      "inputs": [
        {
          "internalType": "uint256",
          "name": "tokenId",
          "type": "uint256"
        }
      ],
      "name": "executeSale",
      "outputs": [],
      "stateMutability": "payable",
      "type": "function"
    },
    {
      "inputs": [],
      "name": "getAllBiddedNfts",
      "outputs": [
        {
          "components": [
            {
              "internalType": "uint256",
              "name": "biddingId",
              "type": "uint256"
            },
            {
              "internalType": "address payable",
              "name": "seller",
              "type": "address"
            },
            {
              "internalType": "uint256",
              "name": "tokenId",
              "type": "uint256"
            },
            {
              "internalType": "uint256",
              "name": "price",
              "type": "uint256"
            },
            {
              "internalType": "uint256",
              "name": "netPrice",
              "type": "uint256"
            },
            {
              "internalType": "uint256",
              "name": "startAt",
              "type": "uint256"
            },
            {
              "internalType": "uint256",
              "name": "deadline",
              "type": "uint256"
            },
            {
              "internalType": "string",
              "name": "date",
              "type": "string"
            },
            {
              "internalType": "uint256",
              "name": "status",
              "type": "uint256"
            }
          ],
          "internalType": "struct PolygonNFTMarketplace.Listing[]",
          "name": "",
          "type": "tuple[]"
        }
      ],
      "stateMutability": "view",
      "type": "function"
    },
    {
      "inputs": [],
      "name": "getAllBiddingWithListingID",
      "outputs": [
        {
          "components": [
            {
              "internalType": "uint256",
              "name": "tokenId",
              "type": "uint256"
            },
            {
              "internalType": "uint256",
              "name": "biddingId",
              "type": "uint256"
            },
            {
              "internalType": "address",
              "name": "bidder",
              "type": "address"
            },
            {
              "internalType": "uint256",
              "name": "price",
              "type": "uint256"
            }
          ],
          "internalType": "struct PolygonNFTMarketplace.Bidding[]",
          "name": "",
          "type": "tuple[]"
        }
      ],
      "stateMutability": "view",
      "type": "function"
    },
    {
      "inputs": [],
      "name": "getAllNfts",
      "outputs": [
        {
          "components": [
            {
              "internalType": "uint256",
              "name": "tokenId",
              "type": "uint256"
            },
            {
              "internalType": "uint256",
              "name": "price",
              "type": "uint256"
            },
            {
              "internalType": "uint256",
              "name": "bidPrice",
              "type": "uint256"
            },
            {
              "internalType": "address payable",
              "name": "owner",
              "type": "address"
            },
            {
              "internalType": "uint256",
              "name": "format",
              "type": "uint256"
            },
            {
              "internalType": "bool",
              "name": "NFTsold",
              "type": "bool"
            },
            {
              "internalType": "bool",
              "name": "NFTbought",
              "type": "bool"
            },
            {
              "internalType": "bool",
              "name": "NFTListed",
              "type": "bool"
            },
            {
              "internalType": "bool",
              "name": "NFTBidded",
              "type": "bool"
            }
          ],
          "internalType": "struct PolygonNFTMarketplace.ListedToken[]",
          "name": "",
          "type": "tuple[]"
        }
      ],
      "stateMutability": "view",
      "type": "function"
    },
    {
      "inputs": [
        {
          "internalType": "uint256",
          "name": "tokenId",
          "type": "uint256"
        }
      ],
      "name": "getApproved",
      "outputs": [
        {
          "internalType": "address",
          "name": "",
          "type": "address"
        }
      ],
      "stateMutability": "view",
      "type": "function"
    },
    {
      "inputs": [
        {
          "internalType": "uint256",
          "name": "listingId",
          "type": "uint256"
        }
      ],
      "name": "getHighestBidder",
      "outputs": [
        {
          "internalType": "address",
          "name": "",
          "type": "address"
        }
      ],
      "stateMutability": "view",
      "type": "function"
    },
    {
      "inputs": [
        {
          "internalType": "uint256",
          "name": "listingId",
          "type": "uint256"
        }
      ],
      "name": "getHighestBiddingAmount",
      "outputs": [
        {
          "internalType": "uint256",
          "name": "",
          "type": "uint256"
        }
      ],
      "stateMutability": "view",
      "type": "function"
    },
    {
      "inputs": [],
      "name": "getMyNFTs",
      "outputs": [
        {
          "components": [
            {
              "internalType": "uint256",
              "name": "tokenId",
              "type": "uint256"
            },
            {
              "internalType": "uint256",
              "name": "price",
              "type": "uint256"
            },
            {
              "internalType": "uint256",
              "name": "bidPrice",
              "type": "uint256"
            },
            {
              "internalType": "address payable",
              "name": "owner",
              "type": "address"
            },
            {
              "internalType": "uint256",
              "name": "format",
              "type": "uint256"
            },
            {
              "internalType": "bool",
              "name": "NFTsold",
              "type": "bool"
            },
            {
              "internalType": "bool",
              "name": "NFTbought",
              "type": "bool"
            },
            {
              "internalType": "bool",
              "name": "NFTListed",
              "type": "bool"
            },
            {
              "internalType": "bool",
              "name": "NFTBidded",
              "type": "bool"
            }
          ],
          "internalType": "struct PolygonNFTMarketplace.ListedToken[]",
          "name": "",
          "type": "tuple[]"
        }
      ],
      "stateMutability": "view",
      "type": "function"
    },
    {
      "inputs": [],
      "name": "getMySoldNFTs",
      "outputs": [
        {
          "components": [
            {
              "internalType": "uint256",
              "name": "tokenId",
              "type": "uint256"
            },
            {
              "internalType": "uint256",
              "name": "price",
              "type": "uint256"
            },
            {
              "internalType": "address payable",
              "name": "owner",
              "type": "address"
            },
            {
              "internalType": "address",
              "name": "newOwner",
              "type": "address"
            },
            {
              "internalType": "bool",
              "name": "NFTsold",
              "type": "bool"
            }
          ],
          "internalType": "struct PolygonNFTMarketplace.ItemsSold[]",
          "name": "",
          "type": "tuple[]"
        }
      ],
      "stateMutability": "view",
      "type": "function"
    },
    {
      "inputs": [],
      "name": "getTotalBiddedTokens",
      "outputs": [
        {
          "internalType": "uint256",
          "name": "",
          "type": "uint256"
        }
      ],
      "stateMutability": "view",
      "type": "function"
    },
    {
      "inputs": [],
      "name": "getTotalMintedTokens",
      "outputs": [
        {
          "internalType": "uint256",
          "name": "",
          "type": "uint256"
        }
      ],
      "stateMutability": "view",
      "type": "function"
    },
    {
      "inputs": [],
      "name": "getTotalSoldTokens",
      "outputs": [
        {
          "internalType": "uint256",
          "name": "",
          "type": "uint256"
        }
      ],
      "stateMutability": "view",
      "type": "function"
    },
    {
      "inputs": [],
      "name": "getTotalUser",
      "outputs": [
        {
          "internalType": "uint256",
          "name": "",
          "type": "uint256"
        }
      ],
      "stateMutability": "view",
      "type": "function"
    },
    {
      "inputs": [
        {
          "internalType": "uint256",
          "name": "",
          "type": "uint256"
        }
      ],
      "name": "highestBidder",
      "outputs": [
        {
          "internalType": "address",
          "name": "",
          "type": "address"
        }
      ],
      "stateMutability": "view",
      "type": "function"
    },
    {
      "inputs": [
        {
          "internalType": "uint256",
          "name": "",
          "type": "uint256"
        }
      ],
      "name": "highestBiddingAmount",
      "outputs": [
        {
          "internalType": "uint256",
          "name": "",
          "type": "uint256"
        }
      ],
      "stateMutability": "view",
      "type": "function"
    },
    {
      "inputs": [
        {
          "internalType": "uint256",
          "name": "",
          "type": "uint256"
        }
      ],
      "name": "idToBiddedToken",
      "outputs": [
        {
          "internalType": "uint256",
          "name": "tokenId",
          "type": "uint256"
        },
        {
          "internalType": "uint256",
          "name": "biddingId",
          "type": "uint256"
        },
        {
          "internalType": "address",
          "name": "bidder",
          "type": "address"
        },
        {
          "internalType": "uint256",
          "name": "price",
          "type": "uint256"
        }
      ],
      "stateMutability": "view",
      "type": "function"
    },
    {
      "inputs": [
        {
          "internalType": "uint256",
          "name": "",
          "type": "uint256"
        }
      ],
      "name": "idToImageHash",
      "outputs": [
        {
          "internalType": "string",
          "name": "",
          "type": "string"
        }
      ],
      "stateMutability": "view",
      "type": "function"
    },
    {
      "inputs": [
        {
          "internalType": "uint256",
          "name": "",
          "type": "uint256"
        }
      ],
      "name": "idToListedToken",
      "outputs": [
        {
          "internalType": "uint256",
          "name": "tokenId",
          "type": "uint256"
        },
        {
          "internalType": "uint256",
          "name": "price",
          "type": "uint256"
        },
        {
          "internalType": "uint256",
          "name": "bidPrice",
          "type": "uint256"
        },
        {
          "internalType": "address payable",
          "name": "owner",
          "type": "address"
        },
        {
          "internalType": "uint256",
          "name": "format",
          "type": "uint256"
        },
        {
          "internalType": "bool",
          "name": "NFTsold",
          "type": "bool"
        },
        {
          "internalType": "bool",
          "name": "NFTbought",
          "type": "bool"
        },
        {
          "internalType": "bool",
          "name": "NFTListed",
          "type": "bool"
        },
        {
          "internalType": "bool",
          "name": "NFTBidded",
          "type": "bool"
        }
      ],
      "stateMutability": "view",
      "type": "function"
    },
    {
      "inputs": [
        {
          "internalType": "uint256",
          "name": "",
          "type": "uint256"
        }
      ],
      "name": "idToSoldItems",
      "outputs": [
        {
          "internalType": "uint256",
          "name": "tokenId",
          "type": "uint256"
        },
        {
          "internalType": "uint256",
          "name": "price",
          "type": "uint256"
        },
        {
          "internalType": "address payable",
          "name": "owner",
          "type": "address"
        },
        {
          "internalType": "address",
          "name": "newOwner",
          "type": "address"
        },
        {
          "internalType": "bool",
          "name": "NFTsold",
          "type": "bool"
        }
      ],
      "stateMutability": "view",
      "type": "function"
    },
    {
      "inputs": [
        {
          "internalType": "address",
          "name": "owner",
          "type": "address"
        },
        {
          "internalType": "address",
          "name": "operator",
          "type": "address"
        }
      ],
      "name": "isApprovedForAll",
      "outputs": [
        {
          "internalType": "bool",
          "name": "",
          "type": "bool"
        }
      ],
      "stateMutability": "view",
      "type": "function"
    },
    {
      "inputs": [
        {
          "internalType": "uint256",
          "name": "id",
          "type": "uint256"
        }
      ],
      "name": "isAuctionExpired",
      "outputs": [
        {
          "internalType": "bool",
          "name": "",
          "type": "bool"
        }
      ],
      "stateMutability": "view",
      "type": "function"
    },
    {
      "inputs": [
        {
          "internalType": "uint256",
          "name": "id",
          "type": "uint256"
        }
      ],
      "name": "isAuctionOpen",
      "outputs": [
        {
          "internalType": "bool",
          "name": "",
          "type": "bool"
        }
      ],
      "stateMutability": "view",
      "type": "function"
    },
    {
      "inputs": [],
      "name": "listingCounter",
      "outputs": [
        {
          "internalType": "uint256",
          "name": "_value",
          "type": "uint256"
        }
      ],
      "stateMutability": "view",
      "type": "function"
    },
    {
      "inputs": [
        {
          "internalType": "uint256",
          "name": "",
          "type": "uint256"
        }
      ],
      "name": "listings",
      "outputs": [
        {
          "internalType": "uint256",
          "name": "biddingId",
          "type": "uint256"
        },
        {
          "internalType": "address payable",
          "name": "seller",
          "type": "address"
        },
        {
          "internalType": "uint256",
          "name": "tokenId",
          "type": "uint256"
        },
        {
          "internalType": "uint256",
          "name": "price",
          "type": "uint256"
        },
        {
          "internalType": "uint256",
          "name": "netPrice",
          "type": "uint256"
        },
        {
          "internalType": "uint256",
          "name": "startAt",
          "type": "uint256"
        },
        {
          "internalType": "uint256",
          "name": "deadline",
          "type": "uint256"
        },
        {
          "internalType": "string",
          "name": "date",
          "type": "string"
        },
        {
          "internalType": "uint256",
          "name": "status",
          "type": "uint256"
        }
      ],
      "stateMutability": "view",
      "type": "function"
    },
    {
      "inputs": [],
      "name": "minAuctionIncrement",
      "outputs": [
        {
          "internalType": "uint256",
          "name": "",
          "type": "uint256"
        }
      ],
      "stateMutability": "view",
      "type": "function"
    },
    {
      "inputs": [],
      "name": "name",
      "outputs": [
        {
          "internalType": "string",
          "name": "",
          "type": "string"
        }
      ],
      "stateMutability": "view",
      "type": "function"
    },
    {
      "inputs": [
        {
          "internalType": "address",
          "name": "user",
          "type": "address"
        }
      ],
      "name": "newUser",
      "outputs": [],
      "stateMutability": "nonpayable",
      "type": "function"
    },
    {
      "inputs": [
        {
          "internalType": "uint256",
          "name": "tokenId",
          "type": "uint256"
        }
      ],
      "name": "ownerOf",
      "outputs": [
        {
          "internalType": "address",
          "name": "",
          "type": "address"
        }
      ],
      "stateMutability": "view",
      "type": "function"
    },
    {
      "inputs": [
        {
          "internalType": "address",
          "name": "from",
          "type": "address"
        },
        {
          "internalType": "address",
          "name": "to",
          "type": "address"
        },
        {
          "internalType": "uint256",
          "name": "tokenId",
          "type": "uint256"
        }
      ],
      "name": "safeTransferFrom",
      "outputs": [],
      "stateMutability": "nonpayable",
      "type": "function"
    },
    {
      "inputs": [
        {
          "internalType": "address",
          "name": "from",
          "type": "address"
        },
        {
          "internalType": "address",
          "name": "to",
          "type": "address"
        },
        {
          "internalType": "uint256",
          "name": "tokenId",
          "type": "uint256"
        },
        {
          "internalType": "bytes",
          "name": "data",
          "type": "bytes"
        }
      ],
      "name": "safeTransferFrom",
      "outputs": [],
      "stateMutability": "nonpayable",
      "type": "function"
    },
    {
      "inputs": [
        {
          "internalType": "address",
          "name": "operator",
          "type": "address"
        },
        {
          "internalType": "bool",
          "name": "approved",
          "type": "bool"
        }
      ],
      "name": "setApprovalForAll",
      "outputs": [],
      "stateMutability": "nonpayable",
      "type": "function"
    },
    {
      "inputs": [
        {
          "internalType": "bytes4",
          "name": "interfaceId",
          "type": "bytes4"
        }
      ],
      "name": "supportsInterface",
      "outputs": [
        {
          "internalType": "bool",
          "name": "",
          "type": "bool"
        }
      ],
      "stateMutability": "view",
      "type": "function"
    },
    {
      "inputs": [],
      "name": "symbol",
      "outputs": [
        {
          "internalType": "string",
          "name": "",
          "type": "string"
        }
      ],
      "stateMutability": "view",
      "type": "function"
    },
    {
      "inputs": [
        {
          "internalType": "uint256",
          "name": "tokenId",
          "type": "uint256"
        }
      ],
      "name": "tokenURI",
      "outputs": [
        {
          "internalType": "string",
          "name": "",
          "type": "string"
        }
      ],
      "stateMutability": "view",
      "type": "function"
    },
    {
      "inputs": [
        {
          "internalType": "address",
          "name": "from",
          "type": "address"
        },
        {
          "internalType": "address",
          "name": "to",
          "type": "address"
        },
        {
          "internalType": "uint256",
          "name": "tokenId",
          "type": "uint256"
        }
      ],
      "name": "transferFrom",
      "outputs": [],
      "stateMutability": "nonpayable",
      "type": "function"
    },
    {
      "inputs": [
        {
          "internalType": "uint256",
          "name": "listingId",
          "type": "uint256"
        }
      ],
      "name": "withdrawBid",
      "outputs": [],
      "stateMutability": "payable",
      "type": "function"
    }
  ],
  "bytecode": "0x6080604052600a6012553480156200001657600080fd5b50604080518082018252601581527f506f6c79676f6e4e46544d61726b6574706c61636500000000000000000000006020808301918252835180850190945260048452634441524b60e01b90840152815191929162000078916000916200009c565b5080516200008e9060019060208401906200009c565b50506001600755506200017f565b828054620000aa9062000142565b90600052602060002090601f016020900481019282620000ce576000855562000119565b82601f10620000e957805160ff191683800117855562000119565b8280016001018555821562000119579182015b8281111562000119578251825591602001919060010190620000fc565b50620001279291506200012b565b5090565b5b808211156200012757600081556001016200012c565b600181811c908216806200015757607f821691505b602082108114156200017957634e487b7160e01b600052602260045260246000fd5b50919050565b613e7e806200018f6000396000f3fe6080604052600436106102ff5760003560e01c806370a0823111610190578063adc2524c116100dc578063de74e57b11610095578063e985e9c51161006f578063e985e9c514610ac5578063edf2ebcc14610b0e578063f67a769c14610b25578063fad266fe14610b3a57600080fd5b8063de74e57b14610996578063e57a497a146109cb578063e877d3f814610a9857600080fd5b8063adc2524c14610897578063b27dce81146108dc578063b820a6d1146108fe578063b88d4fde14610920578063c750cb7914610940578063c87b56dd1461097657600080fd5b806395d89b4111610149578063a22cb46511610123578063a22cb46514610834578063a4fdb63514610854578063a71ffa761461086b578063a9c63aa01461088257600080fd5b806395d89b41146107f75780639b1225c41461080c5780639d6e5fb31461081f57600080fd5b806370a082311461072a578063732e8d731461074a578063740db2801461075f5780637aea3738146107745780638055ccaa146107a157806392a374b7146107d757600080fd5b8063356e93921161024f57806359be5e45116102085780636352211e116101e25780636352211e146106605780636b8c91cb146106805780636c2c9c7d146106fd578063708d4d351461071457600080fd5b806359be5e45146106095780635ac8b5b01461061e578063629cb2e41461063e57600080fd5b8063356e93921461054657806336ad658f1461056757806342842e0e1461057e578063451df52e1461059e578063454a2ab3146105d45780634945dcdd146105e757600080fd5b80630cb5f653116102bc57806321b628861161029657806321b628861461045b57806323b872dd1461046e57806324f8515b1461048e57806333024100146104b557600080fd5b80630cb5f653146103f55780630eaaf4c8146104155780631389b1171461042857600080fd5b806301ffc9a71461030457806306fdde0314610339578063081812fc1461035b578063095ea7b3146103935780630ad48628146103b55780630ad52cc6146103d5575b600080fd5b34801561031057600080fd5b5061032461031f3660046137c3565b610b51565b60405190151581526020015b60405180910390f35b34801561034557600080fd5b5061034e610b7c565b6040516103309190613c17565b34801561036757600080fd5b5061037b610376366004613898565b610c0e565b6040516001600160a01b039091168152602001610330565b34801561039f57600080fd5b506103b36103ae36600461379a565b610c35565b005b3480156103c157600080fd5b506103246103d0366004613898565b610d50565b3480156103e157600080fd5b5061034e6103f0366004613898565b610d84565b34801561040157600080fd5b506103b3610410366004613660565b610e1e565b6103b3610423366004613898565b610ede565b34801561043457600080fd5b50610324610443366004613898565b60009081526013602052604090206006015442101590565b6103b3610469366004613898565b6110cb565b34801561047a57600080fd5b506103b36104893660046136ac565b611360565b34801561049a57600080fd5b506104a3600181565b60405160ff9091168152602001610330565b3480156104c157600080fd5b506105106104d0366004613898565b600f602052600090815260409020805460018201546002830154600390930154919290916001600160a01b0391821691811690600160a01b900460ff1685565b6040805195865260208601949094526001600160a01b03928316938501939093521660608301521515608082015260a001610330565b61055961055436600461382e565b611391565b604051908152602001610330565b34801561057357600080fd5b506008546105599081565b34801561058a57600080fd5b506103b36105993660046136ac565b6113f4565b3480156105aa57600080fd5b5061037b6105b9366004613898565b6014602052600090815260409020546001600160a01b031681565b6103b36105e2366004613898565b61140f565b3480156105f357600080fd5b506105fc61175d565b6040516103309190613b4b565b34801561061557600080fd5b50610559611a1a565b34801561062a57600080fd5b506103246106393660046137fb565b611a2a565b34801561064a57600080fd5b50610653611b6c565b6040516103309190613aaf565b34801561066c57600080fd5b5061037b61067b366004613898565b611d74565b34801561068c57600080fd5b506106ce61069b366004613898565b6016602052600090815260409020805460018201546002830154600390930154919290916001600160a01b039091169084565b604051610330949392919093845260208401929092526001600160a01b03166040830152606082015260800190565b34801561070957600080fd5b50600b546105599081565b34801561072057600080fd5b5061055960125481565b34801561073657600080fd5b50610559610745366004613660565b611dd4565b34801561075657600080fd5b50610653611e5a565b34801561076b57600080fd5b506104a3600081565b34801561078057600080fd5b5061055961078f366004613898565b60009081526015602052604090205490565b3480156107ad57600080fd5b5061037b6107bc366004613898565b6011602052600090815260409020546001600160a01b031681565b3480156107e357600080fd5b506105596107f23660046138d1565b612048565b34801561080357600080fd5b5061034e6121b1565b6103b361081a366004613898565b6121c0565b34801561082b57600080fd5b506105596123b9565b34801561084057600080fd5b506103b361084f366004613760565b6123c4565b34801561086057600080fd5b50600c546105599081565b34801561087757600080fd5b50600d546105599081565b34801561088e57600080fd5b506105596123d3565b3480156108a357600080fd5b506103b36108b23660046138b0565b6000908152600e602052604090206001810191909155600501805462ff0000191662010000179055565b3480156108e857600080fd5b506108f16123de565b6040516103309190613a3e565b34801561090a57600080fd5b506109136125d4565b60405161033091906139d1565b34801561092c57600080fd5b506103b361093b3660046136e7565b6127a9565b34801561094c57600080fd5b5061037b61095b366004613898565b6000908152601460205260409020546001600160a01b031690565b34801561098257600080fd5b5061034e610991366004613898565b6127e1565b3480156109a257600080fd5b506109b66109b1366004613898565b6128ea565b60405161033099989796959493929190613d0e565b3480156109d757600080fd5b50610a446109e6366004613898565b600e602052600090815260409020805460018201546002830154600384015460048501546005909501549394929391926001600160a01b039091169160ff808216916101008104821691620100008204811691630100000090041689565b60408051998a5260208a0198909852968801959095526001600160a01b0390931660608701526080860191909152151560a0850152151560c0840152151560e0830152151561010082015261012001610330565b348015610aa457600080fd5b50610559610ab3366004613898565b60156020526000908152604090205481565b348015610ad157600080fd5b50610324610ae036600461367a565b6001600160a01b03918216600090815260056020908152604080832093909416825291909152205460ff1690565b348015610b1a57600080fd5b506009546105599081565b348015610b3157600080fd5b506105596129c9565b348015610b4657600080fd5b50600a546105599081565b60006001600160e01b03198216632483248360e11b1480610b765750610b76826129d4565b92915050565b606060008054610b8b90613db0565b80601f0160208091040260200160405190810160405280929190818152602001828054610bb790613db0565b8015610c045780601f10610bd957610100808354040283529160200191610c04565b820191906000526020600020905b815481529060010190602001808311610be757829003601f168201915b5050505050905090565b6000610c1982612a24565b506000908152600460205260409020546001600160a01b031690565b6000610c4082611d74565b9050806001600160a01b0316836001600160a01b03161415610cb35760405162461bcd60e51b815260206004820152602160248201527f4552433732313a20617070726f76616c20746f2063757272656e74206f776e656044820152603960f91b60648201526084015b60405180910390fd5b336001600160a01b0382161480610ccf5750610ccf8133610ae0565b610d415760405162461bcd60e51b815260206004820152603d60248201527f4552433732313a20617070726f76652063616c6c6572206973206e6f7420746f60448201527f6b656e206f776e6572206f7220617070726f76656420666f7220616c6c0000006064820152608401610caa565b610d4b8383612a83565b505050565b6000818152601360205260408120600801546001148015610b76575050600090815260136020526040902060060154421090565b60106020526000908152604090208054610d9d90613db0565b80601f0160208091040260200160405190810160405280929190818152602001828054610dc990613db0565b8015610e165780601f10610deb57610100808354040283529160200191610e16565b820191906000526020600020905b815481529060010190602001808311610df957829003601f168201915b505050505081565b6000610e29600d5490565b90506000805b82811015610e90576001600160a01b03841660116000610e50846001613d6c565b81526020810191909152604001600020546001600160a01b03161415610e7e57610e7b600183613d6c565b91505b80610e8881613deb565b915050610e2f565b5080610d4b57610ea4600d80546001019055565b6000610eaf600d5490565b600090815260116020526040902080546001600160a01b0386166001600160a01b031990911617905550505050565b610ee6612af1565b600081815260136020526040902060060154421015610f3f5760405162461bcd60e51b8152602060048201526015602482015274185d58dd1a5bdb881b5d5cdd08189948195b991959605a1b6044820152606401610caa565b6000818152601460205260409020546001600160a01b0316331415610fb15760405162461bcd60e51b815260206004820152602260248201527f68696768657374206269646465722063616e6e6f7420776974686472617720626044820152611a5960f21b6064820152608401610caa565b6000610fbc600c5490565b90506000805b8281101561108d573360166000610fda846001613d6c565b81526020810191909152604001600020600201546001600160a01b031614801561102357506016600061100e836001613d6c565b81526020019081526020016000206001015484145b1561107b5760166000611037836001613d6c565b815260200190815260200160002060030154826110549190613d6c565b91506000601681611066846001613d6c565b81526020810191909152604001600020600301555b8061108581613deb565b915050610fc2565b50604051339082156108fc029083906000818181858888f193505050501580156110bb573d6000803e3d6000fd5b5050506110c86001600755565b50565b6110d3612af1565b6110dc81610d50565b156111215760405162461bcd60e51b815260206004820152601560248201527430bab1ba34b7b71034b99039ba34b6361037b832b760591b6044820152606401610caa565b600081815260136020908152604080832060149092529091205460018201546001600160a01b0391821691163314806111625750336001600160a01b038216145b6111c15760405162461bcd60e51b815260206004820152602a60248201527f6f6e6c792073656c6c6572206f722077696e6e65722063616e20636f6d706c656044820152693a329030bab1ba34b7b760b11b6064820152608401610caa565b60008381526015602052604090205460028301548161120757600060088501819055818152600e6020526040812060058101805463ff0000001916905560020155611352565b600184015460028501546001600160a01b039091169061122a9082908690612b4b565b6040516001600160a01b0382169084156108fc029085906000818181858888f19350505050158015611260573d6000803e3d6000fd5b5061126f600980546001019055565b600061127a60095490565b6040805160a08101825285815260208082018881526001600160a01b0396871683850190815233606085019081526001608086018181526000988952600f865287892096518755935186820155915160028087018054928c166001600160a01b031993841617905591516003968701805495511515600160a01b026001600160a81b0319909616918c169190911794909417909355908c018054988c1698831689179055888652600e9092529284209182018054909316909517909155600888018290559283015550600501805463ff000000191690555b505050506110c86001600755565b61136a3382612caf565b6113865760405162461bcd60e51b8152600401610caa90613c2a565b610d4b838383612b4b565b60006113a1600880546001019055565b60006113ac60085490565b90506113b83382612d2d565b6113c28186612d47565b600081815260106020908152604090912085516113e1928701906134ca565b506113ec8184612e19565b949350505050565b610d4b838383604051806020016040528060008152506127a9565b611417612af1565b61142081610d50565b6114605760405162461bcd60e51b8152602060048201526011602482015270185d58dd1a5bdb881a185cc8195b991959607a1b6044820152606401610caa565b60008181526013602052604090206003015434116114c05760405162461bcd60e51b815260206004820152601f60248201527f56616c756520697320736d616c6c6572207468616e206269642076616c7565006044820152606401610caa565b6000818152601360205260409020600101546001600160a01b031633141561152a5760405162461bcd60e51b815260206004820152601a60248201527f796f752063616e27742062696420796f7572206f776e206e66740000000000006044820152606401610caa565b60008060005b600c5481101561166b5760166000611549836001613d6c565b81526020810191909152604001600020600201546001600160a01b03163314801561159357506016600061157e836001613d6c565b81526020019081526020016000206001015484145b156116595734601660006115a8846001613d6c565b815260200190815260200160002060030160008282546115c89190613d6c565b909155505060008481526015602052604081205460019450925082906016906115f18487613d6c565b815260200190815260200160002060030154111561165957600084815260146020526040812080546001600160a01b03191633179055601690611635836001613d6c565b81526020808201929092526040908101600090812060030154878252601590935220555b8061166381613deb565b915050611530565b50816117485761167f600c80546001019055565b600061168a600c5490565b6040805160808101825260008781526013602090815283822060029081015484528184018a8152338587019081523460608701818152898752601686528887209751885592516001880155905192860180546001600160a01b0319166001600160a01b039094169390931790925551600390940193909355888252601590529190912054935090915082101561174657600084815260146020908152604080832080546001600160a01b03191633179055601590915290203490555b505b61175133610e1e565b50506110c86001600755565b6060600061176a600b5490565b905060008060005b838110156117c25760136000611789836001613d6c565b8152602001908152602001600020600301546000146117b0576117ad600184613d6c565b92505b6117bb600182613d6c565b9050611772565b5060008267ffffffffffffffff8111156117ec57634e487b7160e01b600052604160045260246000fd5b60405190808252806020026020018201604052801561187557816020015b6118626040518061012001604052806000815260200160006001600160a01b03168152602001600081526020016000815260200160008152602001600081526020016000815260200160608152602001600081525090565b81526020019060019003908161180a5790505b50905060005b84811015611a11576000601381611893846001613d6c565b81526020019081526020016000209050601360008360016118b49190613d6c565b8152602001908152602001600020600301546000146119fe5760408051610120810182528254815260018301546001600160a01b031660208201526002830154918101919091526003820154606082015260048201546080820152600582015460a0820152600682015460c0820152600782018054839160e084019161193990613db0565b80601f016020809104026020016040519081016040528092919081815260200182805461196590613db0565b80156119b25780601f10611987576101008083540402835291602001916119b2565b820191906000526020600020905b81548152906001019060200180831161199557829003601f168201915b505050505081526020016008820154815250508385815181106119e557634e487b7160e01b600052603260045260246000fd5b60209081029190910101526119fb600185613d6c565b93505b50611a0a600182613d6c565b905061187b565b50949350505050565b6000611a2560095490565b905090565b600080611a3660085490565b905082606060005b83811015611b605760106000611a55836001613d6c565b81526020019081526020016000208054611a6e90613db0565b80601f0160208091040260200160405190810160405280929190818152602001828054611a9a90613db0565b8015611ae75780601f10611abc57610100808354040283529160200191611ae7565b820191906000526020600020905b815481529060010190602001808311611aca57829003601f168201915b5050505050915082604051602001611aff9190613949565b6040516020818303038152906040528051906020012082604051602001611b269190613949565b604051602081830303815290604052805190602001201415611b4e5750600095945050505050565b80611b5881613deb565b915050611a3e565b50600195945050505050565b60606000611b7960085490565b9050600080805b83811015611bdb5733600e6000611b98846001613d6c565b81526020810191909152604001600020600301546001600160a01b03161415611bc95781611bc581613deb565b9250505b80611bd381613deb565b915050611b80565b5060008167ffffffffffffffff811115611c0557634e487b7160e01b600052604160045260246000fd5b604051908082528060200260200182016040528015611c3e57816020015b611c2b61354e565b815260200190600190039081611c235790505b50905060005b84811015611a115733600e6000611c5c846001613d6c565b81526020810191909152604001600020600301546001600160a01b03161415611d62576000600e81611c8f846001613d6c565b815260208082019290925260409081016000208151610120810183528154815260018201549381019390935260028101549183019190915260038101546001600160a01b0316606083015260048101546080830152600581015460ff808216151560a08501526101008083048216151560c08601526201000083048216151560e08601526301000000909204161515908301528451909250849087908110611d4757634e487b7160e01b600052603260045260246000fd5b60200260200101819052508480611d5d90613deb565b955050505b80611d6c81613deb565b915050611c44565b6000818152600260205260408120546001600160a01b031680610b765760405162461bcd60e51b8152602060048201526018602482015277115490cdcc8c4e881a5b9d985b1a59081d1bdad95b88125160421b6044820152606401610caa565b60006001600160a01b038216611e3e5760405162461bcd60e51b815260206004820152602960248201527f4552433732313a2061646472657373207a65726f206973206e6f7420612076616044820152683634b21037bbb732b960b91b6064820152608401610caa565b506001600160a01b031660009081526003602052604090205490565b60606000611e6760085490565b905060008060005b83811015611ebf57600e6000611e86836001613d6c565b815260200190815260200160002060010154600014611ead57611eaa600184613d6c565b92505b611eb8600182613d6c565b9050611e6f565b5060008267ffffffffffffffff811115611ee957634e487b7160e01b600052604160045260246000fd5b604051908082528060200260200182016040528015611f2257816020015b611f0f61354e565b815260200190600190039081611f075790505b50905060005b84811015611a11576000600e81611f40846001613d6c565b81526020019081526020016000209050600e6000836001611f619190613d6c565b815260200190815260200160002060010154600014612035576040805161012081018252825481526001830154602082015260028301549181019190915260038201546001600160a01b0316606082015260048201546080820152600582015460ff808216151560a08401526101008083048216151560c08501526201000083048216151560e0850152630100000090920416151590820152835184908690811061201c57634e487b7160e01b600052603260045260246000fd5b6020908102919091010152612032600185613d6c565b93505b50612041600182613d6c565b9050611f28565b6000612058600b80546001019055565b6000612063600b5490565b90504260006120728683613d6c565b905087600e600089815260200190815260200160002060020181905550604051806101200160405280848152602001336001600160a01b03168152602001888152602001898152602001898152602001838152602001828152602001868152602001600160ff16815250601360008581526020019081526020016000206000820151816000015560208201518160010160006101000a8154816001600160a01b0302191690836001600160a01b0316021790555060408201518160020155606082015181600301556080820151816004015560a0820151816005015560c0820151816006015560e08201518160070190805190602001906121749291906134ca565b50610100919091015160089091015550506000858152600e60205260409020600501805463ff000000191663010000001790559050949350505050565b606060018054610b8b90613db0565b6000818152600e6020526040902060018101546003909101546001600160a01b03163314156122315760405162461bcd60e51b815260206004820152601a60248201527f796f752063616e27742062757920796f7572206f776e206e66740000000000006044820152606401610caa565b6000828152600e60205260409020600301546001600160a01b0316612257813385612b4b565b6122618184610c35565b6000838152600e60205260408082206003810180546001600160a01b03191633179055600501805461010161ffff19909116179055516001600160a01b038316913480156108fc02929091818181858888f193505050501580156122c9573d6000803e3d6000fd5b506122d8600980546001019055565b60006122e360095490565b6040805160a08101825286815260208082018781526001600160a01b03808816848601908152336060860181815260016080880181815260008b8152600f89528a812099518a5596518983015593516002890180549187166001600160a01b031990921691909117905590516003909701805493511515600160a01b026001600160a81b0319909416979094169690961791909117909155898252600e9092529283209091019190915590915061239990610e1e565b5050506000908152600e60205260409020600501805462ff000019169055565b6000611a25600c5490565b6123cf338383612f09565b5050565b6000611a25600d5490565b606060006123eb60095490565b9050600080805b8381101561244d5733600f600061240a846001613d6c565b81526020810191909152604001600020600201546001600160a01b0316141561243b578161243781613deb565b9250505b8061244581613deb565b9150506123f2565b5060008167ffffffffffffffff81111561247757634e487b7160e01b600052604160045260246000fd5b6040519080825280602002602001820160405280156124d057816020015b6040805160a0810182526000808252602080830182905292820181905260608201819052608082015282526000199092019101816124955790505b50905060005b84811015611a115733600f60006124ee846001613d6c565b81526020810191909152604001600020600201546001600160a01b031614156125c2576000600f81612521846001613d6c565b81526020808201929092526040908101600020815160a0810183528154815260018201549381019390935260028101546001600160a01b039081169284019290925260038101549182166060840152600160a01b90910460ff161515608083015284519092508490879081106125a757634e487b7160e01b600052603260045260246000fd5b602002602001018190525084806125bd90613deb565b955050505b806125cc81613deb565b9150506124d6565b606060006125e1600c5490565b9050600080805b8381101561263857601660006125ff836001613d6c565b815260200190815260200160002060030154600014612626578161262281613deb565b9250505b8061263081613deb565b9150506125e8565b5060008167ffffffffffffffff81111561266257634e487b7160e01b600052604160045260246000fd5b6040519080825280602002602001820160405280156126c757816020015b6126b46040518060800160405280600081526020016000815260200160006001600160a01b03168152602001600081525090565b8152602001906001900390816126805790505b50905060005b84811015611a1157601660006126e4836001613d6c565b81526020019081526020016000206003015460001461279757600060168161270d846001613d6c565b8152602080820192909252604090810160002081516080810183528154815260018201549381019390935260028101546001600160a01b03169183019190915260038101546060830152845190925084908790811061277c57634e487b7160e01b600052603260045260246000fd5b6020026020010181905250848061279290613deb565b955050505b806127a181613deb565b9150506126cd565b6127b33383612caf565b6127cf5760405162461bcd60e51b8152600401610caa90613c2a565b6127db84848484612fd8565b50505050565b60606127ec82612a24565b6000828152600660205260408120805461280590613db0565b80601f016020809104026020016040519081016040528092919081815260200182805461283190613db0565b801561287e5780601f106128535761010080835404028352916020019161287e565b820191906000526020600020905b81548152906001019060200180831161286157829003601f168201915b50505050509050600061289c60408051602081019091526000815290565b90508051600014156128af575092915050565b8151156128e15780826040516020016128c9929190613965565b60405160208183030381529060405292505050919050565b6113ec8461300b565b6013602052600090815260409020805460018201546002830154600384015460048501546005860154600687015460078801805497986001600160a01b0390971697959694959394929391929161294090613db0565b80601f016020809104026020016040519081016040528092919081815260200182805461296c90613db0565b80156129b95780601f1061298e576101008083540402835291602001916129b9565b820191906000526020600020905b81548152906001019060200180831161299c57829003601f168201915b5050505050908060080154905089565b6000611a2560085490565b60006001600160e01b031982166380ac58cd60e01b1480612a0557506001600160e01b03198216635b5e139f60e01b145b80610b7657506301ffc9a760e01b6001600160e01b0319831614610b76565b6000818152600260205260409020546001600160a01b03166110c85760405162461bcd60e51b8152602060048201526018602482015277115490cdcc8c4e881a5b9d985b1a59081d1bdad95b88125160421b6044820152606401610caa565b600081815260046020526040902080546001600160a01b0319166001600160a01b0384169081179091558190612ab882611d74565b6001600160a01b03167f8c5be1e5ebec7d5bd14f71427d1e84f3dd0314c0f7b2291e5b200ac8c7c3b92560405160405180910390a45050565b60026007541415612b445760405162461bcd60e51b815260206004820152601f60248201527f5265656e7472616e637947756172643a207265656e7472616e742063616c6c006044820152606401610caa565b6002600755565b826001600160a01b0316612b5e82611d74565b6001600160a01b031614612b845760405162461bcd60e51b8152600401610caa90613cc9565b6001600160a01b038216612be65760405162461bcd60e51b8152602060048201526024808201527f4552433732313a207472616e7366657220746f20746865207a65726f206164646044820152637265737360e01b6064820152608401610caa565b826001600160a01b0316612bf982611d74565b6001600160a01b031614612c1f5760405162461bcd60e51b8152600401610caa90613cc9565b600081815260046020908152604080832080546001600160a01b03199081169091556001600160a01b0387811680865260038552838620805460001901905590871680865283862080546001019055868652600290945282852080549092168417909155905184937fddf252ad1be2c89b69c2b068fc378daa952ba7f163c4a11628f55a4df523b3ef91a4505050565b600080612cbb83611d74565b9050806001600160a01b0316846001600160a01b03161480612d0257506001600160a01b0380821660009081526005602090815260408083209388168352929052205460ff165b806113ec5750836001600160a01b0316612d1b84610c0e565b6001600160a01b031614949350505050565b6123cf82826040518060200160405280600081525061307f565b6000828152600260205260409020546001600160a01b0316612dc25760405162461bcd60e51b815260206004820152602e60248201527f45524337323155524953746f726167653a2055524920736574206f66206e6f6e60448201526d32bc34b9ba32b73a103a37b5b2b760911b6064820152608401610caa565b60008281526006602090815260409091208251612de1928401906134ca565b506040518281527ff8e1a15aba9398e019f0b49df1a4fde98ee17ae345cb5f6b5e2c27f5033e8ce79060200160405180910390a15050565b60408051610120810182528381526000602080830182815283850183815233606086018181526080870189815260a0880187815260c0890188815260e08a01898152610100808c018b81528f8c52600e909a529b90992099518a55955160018a01559351600289015590516003880180546001600160a01b0319166001600160a01b0390921691909117905551600487015590516005909501805492519451935161ffff1990931695151561ff001916959095179315159095029290921763ffff00001916620100009115159190910263ff0000001916176301000000911515919091021790556123cf90610e1e565b816001600160a01b0316836001600160a01b03161415612f6b5760405162461bcd60e51b815260206004820152601960248201527f4552433732313a20617070726f766520746f2063616c6c6572000000000000006044820152606401610caa565b6001600160a01b03838116600081815260056020908152604080832094871680845294825291829020805460ff191686151590811790915591519182527f17307eab39ab6107e8899845ad3d59bd9653f200f220920489ca2b5937696c31910160405180910390a3505050565b612fe3848484612b4b565b612fef848484846130b2565b6127db5760405162461bcd60e51b8152600401610caa90613c77565b606061301682612a24565b600061302d60408051602081019091526000815290565b9050600081511161304d5760405180602001604052806000815250613078565b80613057846131bc565b604051602001613068929190613965565b6040516020818303038152906040525b9392505050565b6130898383613267565b61309660008484846130b2565b610d4b5760405162461bcd60e51b8152600401610caa90613c77565b60006001600160a01b0384163b156131b457604051630a85bd0160e11b81526001600160a01b0385169063150b7a02906130f6903390899088908890600401613994565b602060405180830381600087803b15801561311057600080fd5b505af1925050508015613140575060408051601f3d908101601f1916820190925261313d918101906137df565b60015b61319a573d80801561316e576040519150601f19603f3d011682016040523d82523d6000602084013e613173565b606091505b5080516131925760405162461bcd60e51b8152600401610caa90613c77565b805181602001fd5b6001600160e01b031916630a85bd0160e11b1490506113ec565b5060016113ec565b606060006131c9836133f2565b600101905060008167ffffffffffffffff8111156131f757634e487b7160e01b600052604160045260246000fd5b6040519080825280601f01601f191660200182016040528015613221576020820181803683370190505b5090508181016020015b600019016f181899199a1a9b1b9c1cb0b131b232b360811b600a86061a8153600a850494508461325a5761325f565b61322b565b509392505050565b6001600160a01b0382166132bd5760405162461bcd60e51b815260206004820181905260248201527f4552433732313a206d696e7420746f20746865207a65726f20616464726573736044820152606401610caa565b6000818152600260205260409020546001600160a01b0316156133225760405162461bcd60e51b815260206004820152601c60248201527f4552433732313a20746f6b656e20616c7265616479206d696e746564000000006044820152606401610caa565b6000818152600260205260409020546001600160a01b0316156133875760405162461bcd60e51b815260206004820152601c60248201527f4552433732313a20746f6b656e20616c7265616479206d696e746564000000006044820152606401610caa565b6001600160a01b038216600081815260036020908152604080832080546001019055848352600290915280822080546001600160a01b0319168417905551839291907fddf252ad1be2c89b69c2b068fc378daa952ba7f163c4a11628f55a4df523b3ef908290a45050565b60008072184f03e93ff9f4daa797ed6e38ed64bf6a1f0160401b83106134315772184f03e93ff9f4daa797ed6e38ed64bf6a1f0160401b830492506040015b6d04ee2d6d415b85acef8100000000831061345d576d04ee2d6d415b85acef8100000000830492506020015b662386f26fc10000831061347b57662386f26fc10000830492506010015b6305f5e1008310613493576305f5e100830492506008015b61271083106134a757612710830492506004015b606483106134b9576064830492506002015b600a8310610b765760010192915050565b8280546134d690613db0565b90600052602060002090601f0160209004810192826134f8576000855561353e565b82601f1061351157805160ff191683800117855561353e565b8280016001018555821561353e579182015b8281111561353e578251825591602001919060010190613523565b5061354a92915061359a565b5090565b6040805161012081018252600080825260208201819052918101829052606081018290526080810182905260a0810182905260c0810182905260e0810182905261010081019190915290565b5b8082111561354a576000815560010161359b565b600067ffffffffffffffff808411156135ca576135ca613e1c565b604051601f8501601f19908116603f011681019082821181831017156135f2576135f2613e1c565b8160405280935085815286868601111561360b57600080fd5b858560208301376000602087830101525050509392505050565b80356001600160a01b038116811461363c57600080fd5b919050565b600082601f830112613651578081fd5b613078838335602085016135af565b600060208284031215613671578081fd5b61307882613625565b6000806040838503121561368c578081fd5b61369583613625565b91506136a360208401613625565b90509250929050565b6000806000606084860312156136c0578081fd5b6136c984613625565b92506136d760208501613625565b9150604084013590509250925092565b600080600080608085870312156136fc578081fd5b61370585613625565b935061371360208601613625565b925060408501359150606085013567ffffffffffffffff811115613735578182fd5b8501601f81018713613745578182fd5b613754878235602084016135af565b91505092959194509250565b60008060408385031215613772578182fd5b61377b83613625565b91506020830135801515811461378f578182fd5b809150509250929050565b600080604083850312156137ac578182fd5b6137b583613625565b946020939093013593505050565b6000602082840312156137d4578081fd5b813561307881613e32565b6000602082840312156137f0578081fd5b815161307881613e32565b60006020828403121561380c578081fd5b813567ffffffffffffffff811115613822578182fd5b6113ec84828501613641565b600080600060608486031215613842578283fd5b833567ffffffffffffffff80821115613859578485fd5b61386587838801613641565b9450602086013591508082111561387a578384fd5b5061388786828701613641565b925050604084013590509250925092565b6000602082840312156138a9578081fd5b5035919050565b600080604083850312156138c2578182fd5b50508035926020909101359150565b600080600080608085870312156138e6578384fd5b843593506020850135925060408501359150606085013567ffffffffffffffff811115613911578182fd5b61375487828801613641565b60008151808452613935816020860160208601613d84565b601f01601f19169290920160200192915050565b6000825161395b818460208701613d84565b9190910192915050565b60008351613977818460208801613d84565b83519083019061398b818360208801613d84565b01949350505050565b6001600160a01b03858116825284166020820152604081018390526080606082018190526000906139c79083018461391d565b9695505050505050565b602080825282518282018190526000919060409081850190868401855b82811015613a31578151805185528681015187860152858101516001600160a01b03168686015260609081015190850152608090930192908501906001016139ee565b5091979650505050505050565b602080825282518282018190526000919060409081850190868401855b82811015613a31578151805185528681015187860152858101516001600160a01b03908116878701526060808301519091169086015260809081015115159085015260a09093019290850190600101613a5b565b602080825282518282018190526000919060409081850190868401855b82811015613a3157815180518552868101518786015285810151868601526060808201516001600160a01b0316908601526080808201519086015260a08082015115159086015260c08082015115159086015260e080820151151590860152610100908101511515908501526101209093019290850190600101613acc565b60006020808301818452808551808352604092508286019150828160051b870101848801865b83811015613c0957603f19898403018552815180518452878101516001600160a01b0316888501528681015187850152606080820151908501526080808201519085015260a0808201519085015260c0808201519085015260e0808201516101208287018190529190613be68388018261391d565b610100948501519790940196909652505094870194925090860190600101613b71565b509098975050505050505050565b602081526000613078602083018461391d565b6020808252602d908201527f4552433732313a2063616c6c6572206973206e6f7420746f6b656e206f776e6560408201526c1c881bdc88185c1c1c9bdd9959609a1b606082015260800190565b60208082526032908201527f4552433732313a207472616e7366657220746f206e6f6e20455243373231526560408201527131b2b4bb32b91034b6b83632b6b2b73a32b960711b606082015260800190565b60208082526025908201527f4552433732313a207472616e736665722066726f6d20696e636f72726563742060408201526437bbb732b960d91b606082015260800190565b60006101208b835260018060a01b038b1660208401528960408401528860608401528760808401528660a08401528560c08401528060e0840152613d548184018661391d565b915050826101008301529a9950505050505050505050565b60008219821115613d7f57613d7f613e06565b500190565b60005b83811015613d9f578181015183820152602001613d87565b838111156127db5750506000910152565b600181811c90821680613dc457607f821691505b60208210811415613de557634e487b7160e01b600052602260045260246000fd5b50919050565b6000600019821415613dff57613dff613e06565b5060010190565b634e487b7160e01b600052601160045260246000fd5b634e487b7160e01b600052604160045260246000fd5b6001600160e01b0319811681146110c857600080fdfea2646970667358221220170388d9306ea7582295a034053ac59d55371566c12ab1ca8662bb44d43899d364736f6c63430008040033",
  "linkReferences": {},
  "deployedLinkReferences": {}
}