{
  "_format": "hh-sol-artifact-1",
  "contractName": "PolygonNFTMarketplace",
  "sourceName": "contracts/PolygonNFTMarketplace.sol",
  "abi": [
    {
      "inputs": [],
      "stateMutability": "nonpayable",
      "type": "constructor"
    },
    {
      "anonymous": false,
      "inputs": [
        {
          "indexed": true,
          "internalType": "address",
          "name": "owner",
          "type": "address"
        },
        {
          "indexed": true,
          "internalType": "address",
          "name": "approved",
          "type": "address"
        },
        {
          "indexed": true,
          "internalType": "uint256",
          "name": "tokenId",
          "type": "uint256"
        }
      ],
      "name": "Approval",
      "type": "event"
    },
    {
      "anonymous": false,
      "inputs": [
        {
          "indexed": true,
          "internalType": "address",
          "name": "owner",
          "type": "address"
        },
        {
          "indexed": true,
          "internalType": "address",
          "name": "operator",
          "type": "address"
        },
        {
          "indexed": false,
          "internalType": "bool",
          "name": "approved",
          "type": "bool"
        }
      ],
      "name": "ApprovalForAll",
      "type": "event"
    },
    {
      "anonymous": false,
      "inputs": [
        {
          "indexed": false,
          "internalType": "uint256",
          "name": "listingId",
          "type": "uint256"
        },
        {
          "indexed": true,
          "internalType": "address",
          "name": "seller",
          "type": "address"
        },
        {
          "indexed": true,
          "internalType": "address",
          "name": "bidder",
          "type": "address"
        },
        {
          "indexed": false,
          "internalType": "uint256",
          "name": "bid",
          "type": "uint256"
        }
      ],
      "name": "AuctionCompleted",
      "type": "event"
    },
    {
      "anonymous": false,
      "inputs": [
        {
          "indexed": false,
          "internalType": "uint256",
          "name": "listingId",
          "type": "uint256"
        },
        {
          "indexed": true,
          "internalType": "address",
          "name": "seller",
          "type": "address"
        },
        {
          "indexed": false,
          "internalType": "uint256",
          "name": "price",
          "type": "uint256"
        },
        {
          "indexed": false,
          "internalType": "uint256",
          "name": "tokenId",
          "type": "uint256"
        },
        {
          "indexed": false,
          "internalType": "uint256",
          "name": "startAt",
          "type": "uint256"
        },
        {
          "indexed": false,
          "internalType": "uint256",
          "name": "endAt",
          "type": "uint256"
        }
      ],
      "name": "AuctionCreated",
      "type": "event"
    },
    {
      "anonymous": false,
      "inputs": [
        {
          "indexed": false,
          "internalType": "uint256",
          "name": "_fromTokenId",
          "type": "uint256"
        },
        {
          "indexed": false,
          "internalType": "uint256",
          "name": "_toTokenId",
          "type": "uint256"
        }
      ],
      "name": "BatchMetadataUpdate",
      "type": "event"
    },
    {
      "anonymous": false,
      "inputs": [
        {
          "indexed": false,
          "internalType": "uint256",
          "name": "listingId",
          "type": "uint256"
        },
        {
          "indexed": true,
          "internalType": "address",
          "name": "bidder",
          "type": "address"
        },
        {
          "indexed": false,
          "internalType": "uint256",
          "name": "bid",
          "type": "uint256"
        }
      ],
      "name": "BidCreated",
      "type": "event"
    },
    {
      "anonymous": false,
      "inputs": [
        {
          "indexed": false,
          "internalType": "uint256",
          "name": "_tokenId",
          "type": "uint256"
        }
      ],
      "name": "MetadataUpdate",
      "type": "event"
    },
    {
      "anonymous": false,
      "inputs": [
        {
          "indexed": true,
          "internalType": "address",
          "name": "minter",
          "type": "address"
        },
        {
          "indexed": false,
          "internalType": "uint256",
          "name": "nftID",
          "type": "uint256"
        },
        {
          "indexed": false,
          "internalType": "string",
          "name": "uri",
          "type": "string"
        }
      ],
      "name": "Minted",
      "type": "event"
    },
    {
      "anonymous": false,
      "inputs": [
        {
          "indexed": true,
          "internalType": "address",
          "name": "from",
          "type": "address"
        },
        {
          "indexed": true,
          "internalType": "address",
          "name": "to",
          "type": "address"
        },
        {
          "indexed": true,
          "internalType": "uint256",
          "name": "tokenId",
          "type": "uint256"
        }
      ],
      "name": "Transfer",
      "type": "event"
    },
    {
      "anonymous": false,
      "inputs": [
        {
          "indexed": false,
          "internalType": "uint256",
          "name": "listingId",
          "type": "uint256"
        },
        {
          "indexed": true,
          "internalType": "address",
          "name": "bidder",
          "type": "address"
        },
        {
          "indexed": false,
          "internalType": "uint256",
          "name": "bid",
          "type": "uint256"
        }
      ],
      "name": "WithdrawBid",
      "type": "event"
    },
    {
      "inputs": [],
      "name": "BuyCount",
      "outputs": [
        {
          "internalType": "uint256",
          "name": "_value",
          "type": "uint256"
        }
      ],
      "stateMutability": "view",
      "type": "function"
    },
    {
      "inputs": [
        {
          "internalType": "string",
          "name": "tokenURI",
          "type": "string"
        }
      ],
      "name": "CreateToken",
      "outputs": [
        {
          "internalType": "uint256",
          "name": "",
          "type": "uint256"
        }
      ],
      "stateMutability": "payable",
      "type": "function"
    },
    {
      "inputs": [
        {
          "internalType": "uint256",
          "name": "price",
          "type": "uint256"
        },
        {
          "internalType": "uint256",
          "name": "id",
          "type": "uint256"
        }
      ],
      "name": "ListNFT",
      "outputs": [],
      "stateMutability": "nonpayable",
      "type": "function"
    },
    {
      "inputs": [],
      "name": "STATUS_DONE",
      "outputs": [
        {
          "internalType": "uint8",
          "name": "",
          "type": "uint8"
        }
      ],
      "stateMutability": "view",
      "type": "function"
    },
    {
      "inputs": [],
      "name": "STATUS_OPEN",
      "outputs": [
        {
          "internalType": "uint8",
          "name": "",
          "type": "uint8"
        }
      ],
      "stateMutability": "view",
      "type": "function"
    },
    {
      "inputs": [],
      "name": "SoldCount",
      "outputs": [
        {
          "internalType": "uint256",
          "name": "_value",
          "type": "uint256"
        }
      ],
      "stateMutability": "view",
      "type": "function"
    },
    {
      "inputs": [],
      "name": "TokenCount",
      "outputs": [
        {
          "internalType": "uint256",
          "name": "_value",
          "type": "uint256"
        }
      ],
      "stateMutability": "view",
      "type": "function"
    },
    {
      "inputs": [
        {
          "internalType": "address",
          "name": "to",
          "type": "address"
        },
        {
          "internalType": "uint256",
          "name": "tokenId",
          "type": "uint256"
        }
      ],
      "name": "approve",
      "outputs": [],
      "stateMutability": "nonpayable",
      "type": "function"
    },
    {
      "inputs": [
        {
          "internalType": "address",
          "name": "owner",
          "type": "address"
        }
      ],
      "name": "balanceOf",
      "outputs": [
        {
          "internalType": "uint256",
          "name": "",
          "type": "uint256"
        }
      ],
      "stateMutability": "view",
      "type": "function"
    },
    {
      "inputs": [
        {
          "internalType": "uint256",
          "name": "listingId",
          "type": "uint256"
        }
      ],
      "name": "bid",
      "outputs": [],
      "stateMutability": "payable",
      "type": "function"
    },
    {
      "inputs": [
        {
          "internalType": "uint256",
          "name": "",
          "type": "uint256"
        },
        {
          "internalType": "address",
          "name": "",
          "type": "address"
        }
      ],
      "name": "bids",
      "outputs": [
        {
          "internalType": "uint256",
          "name": "",
          "type": "uint256"
        }
      ],
      "stateMutability": "view",
      "type": "function"
    },
    {
      "inputs": [
        {
          "internalType": "uint256",
          "name": "listingId",
          "type": "uint256"
        }
      ],
      "name": "completeAuction",
      "outputs": [],
      "stateMutability": "payable",
      "type": "function"
    },
    {
      "inputs": [
        {
          "internalType": "uint256",
          "name": "price",
          "type": "uint256"
        },
        {
          "internalType": "uint256",
          "name": "tokenId",
          "type": "uint256"
        },
        {
          "internalType": "uint256",
          "name": "durationInSeconds",
          "type": "uint256"
        }
      ],
      "name": "createAuctionListing",
      "outputs": [
        {
          "internalType": "uint256",
          "name": "",
          "type": "uint256"
        }
      ],
      "stateMutability": "nonpayable",
      "type": "function"
    },
    {
      "inputs": [
        {
          "internalType": "uint256",
          "name": "tokenId",
          "type": "uint256"
        }
      ],
      "name": "executeSale",
      "outputs": [],
      "stateMutability": "payable",
      "type": "function"
    },
    {
      "inputs": [],
      "name": "getAllNfts",
      "outputs": [
        {
          "components": [
            {
              "internalType": "uint256",
              "name": "tokenId",
              "type": "uint256"
            },
            {
              "internalType": "uint256",
              "name": "price",
              "type": "uint256"
            },
            {
              "internalType": "address payable",
              "name": "owner",
              "type": "address"
            },
            {
              "internalType": "bool",
              "name": "NFTsold",
              "type": "bool"
            },
            {
              "internalType": "bool",
              "name": "NFTbought",
              "type": "bool"
            }
          ],
          "internalType": "struct PolygonNFTMarketplace.ListedToken[]",
          "name": "",
          "type": "tuple[]"
        }
      ],
      "stateMutability": "view",
      "type": "function"
    },
    {
      "inputs": [
        {
          "internalType": "uint256",
          "name": "tokenId",
          "type": "uint256"
        }
      ],
      "name": "getApproved",
      "outputs": [
        {
          "internalType": "address",
          "name": "",
          "type": "address"
        }
      ],
      "stateMutability": "view",
      "type": "function"
    },
    {
      "inputs": [],
      "name": "getMyNFTs",
      "outputs": [
        {
          "components": [
            {
              "internalType": "uint256",
              "name": "tokenId",
              "type": "uint256"
            },
            {
              "internalType": "uint256",
              "name": "price",
              "type": "uint256"
            },
            {
              "internalType": "address payable",
              "name": "owner",
              "type": "address"
            },
            {
              "internalType": "bool",
              "name": "NFTsold",
              "type": "bool"
            },
            {
              "internalType": "bool",
              "name": "NFTbought",
              "type": "bool"
            }
          ],
          "internalType": "struct PolygonNFTMarketplace.ListedToken[]",
          "name": "",
          "type": "tuple[]"
        }
      ],
      "stateMutability": "view",
      "type": "function"
    },
    {
      "inputs": [],
      "name": "getMySoldNFTs",
      "outputs": [
        {
          "components": [
            {
              "internalType": "uint256",
              "name": "tokenId",
              "type": "uint256"
            },
            {
              "internalType": "uint256",
              "name": "price",
              "type": "uint256"
            },
            {
              "internalType": "address payable",
              "name": "owner",
              "type": "address"
            },
            {
              "internalType": "address",
              "name": "newOwner",
              "type": "address"
            },
            {
              "internalType": "bool",
              "name": "NFTsold",
              "type": "bool"
            }
          ],
          "internalType": "struct PolygonNFTMarketplace.ItemsSold[]",
          "name": "",
          "type": "tuple[]"
        }
      ],
      "stateMutability": "view",
      "type": "function"
    },
    {
      "inputs": [
        {
          "internalType": "uint256",
          "name": "",
          "type": "uint256"
        }
      ],
      "name": "highestBidder",
      "outputs": [
        {
          "internalType": "address",
          "name": "",
          "type": "address"
        }
      ],
      "stateMutability": "view",
      "type": "function"
    },
    {
      "inputs": [
        {
          "internalType": "uint256",
          "name": "",
          "type": "uint256"
        }
      ],
      "name": "idToListedToken",
      "outputs": [
        {
          "internalType": "uint256",
          "name": "tokenId",
          "type": "uint256"
        },
        {
          "internalType": "uint256",
          "name": "price",
          "type": "uint256"
        },
        {
          "internalType": "address payable",
          "name": "owner",
          "type": "address"
        },
        {
          "internalType": "bool",
          "name": "NFTsold",
          "type": "bool"
        },
        {
          "internalType": "bool",
          "name": "NFTbought",
          "type": "bool"
        }
      ],
      "stateMutability": "view",
      "type": "function"
    },
    {
      "inputs": [
        {
          "internalType": "uint256",
          "name": "",
          "type": "uint256"
        }
      ],
      "name": "idToSoldItems",
      "outputs": [
        {
          "internalType": "uint256",
          "name": "tokenId",
          "type": "uint256"
        },
        {
          "internalType": "uint256",
          "name": "price",
          "type": "uint256"
        },
        {
          "internalType": "address payable",
          "name": "owner",
          "type": "address"
        },
        {
          "internalType": "address",
          "name": "newOwner",
          "type": "address"
        },
        {
          "internalType": "bool",
          "name": "NFTsold",
          "type": "bool"
        }
      ],
      "stateMutability": "view",
      "type": "function"
    },
    {
      "inputs": [
        {
          "internalType": "address",
          "name": "owner",
          "type": "address"
        },
        {
          "internalType": "address",
          "name": "operator",
          "type": "address"
        }
      ],
      "name": "isApprovedForAll",
      "outputs": [
        {
          "internalType": "bool",
          "name": "",
          "type": "bool"
        }
      ],
      "stateMutability": "view",
      "type": "function"
    },
    {
      "inputs": [
        {
          "internalType": "uint256",
          "name": "id",
          "type": "uint256"
        }
      ],
      "name": "isAuctionExpired",
      "outputs": [
        {
          "internalType": "bool",
          "name": "",
          "type": "bool"
        }
      ],
      "stateMutability": "view",
      "type": "function"
    },
    {
      "inputs": [
        {
          "internalType": "uint256",
          "name": "id",
          "type": "uint256"
        }
      ],
      "name": "isAuctionOpen",
      "outputs": [
        {
          "internalType": "bool",
          "name": "",
          "type": "bool"
        }
      ],
      "stateMutability": "view",
      "type": "function"
    },
    {
      "inputs": [],
      "name": "listingCounter",
      "outputs": [
        {
          "internalType": "uint256",
          "name": "",
          "type": "uint256"
        }
      ],
      "stateMutability": "view",
      "type": "function"
    },
    {
      "inputs": [
        {
          "internalType": "uint256",
          "name": "",
          "type": "uint256"
        }
      ],
      "name": "listings",
      "outputs": [
        {
          "internalType": "address",
          "name": "seller",
          "type": "address"
        },
        {
          "internalType": "uint256",
          "name": "tokenId",
          "type": "uint256"
        },
        {
          "internalType": "uint256",
          "name": "price",
          "type": "uint256"
        },
        {
          "internalType": "uint256",
          "name": "netPrice",
          "type": "uint256"
        },
        {
          "internalType": "uint256",
          "name": "startAt",
          "type": "uint256"
        },
        {
          "internalType": "uint256",
          "name": "endAt",
          "type": "uint256"
        },
        {
          "internalType": "uint8",
          "name": "status",
          "type": "uint8"
        }
      ],
      "stateMutability": "view",
      "type": "function"
    },
    {
      "inputs": [],
      "name": "minAuctionIncrement",
      "outputs": [
        {
          "internalType": "uint256",
          "name": "",
          "type": "uint256"
        }
      ],
      "stateMutability": "view",
      "type": "function"
    },
    {
      "inputs": [],
      "name": "name",
      "outputs": [
        {
          "internalType": "string",
          "name": "",
          "type": "string"
        }
      ],
      "stateMutability": "view",
      "type": "function"
    },
    {
      "inputs": [
        {
          "internalType": "uint256",
          "name": "tokenId",
          "type": "uint256"
        }
      ],
      "name": "ownerOf",
      "outputs": [
        {
          "internalType": "address",
          "name": "",
          "type": "address"
        }
      ],
      "stateMutability": "view",
      "type": "function"
    },
    {
      "inputs": [
        {
          "internalType": "address",
          "name": "from",
          "type": "address"
        },
        {
          "internalType": "address",
          "name": "to",
          "type": "address"
        },
        {
          "internalType": "uint256",
          "name": "tokenId",
          "type": "uint256"
        }
      ],
      "name": "safeTransferFrom",
      "outputs": [],
      "stateMutability": "nonpayable",
      "type": "function"
    },
    {
      "inputs": [
        {
          "internalType": "address",
          "name": "from",
          "type": "address"
        },
        {
          "internalType": "address",
          "name": "to",
          "type": "address"
        },
        {
          "internalType": "uint256",
          "name": "tokenId",
          "type": "uint256"
        },
        {
          "internalType": "bytes",
          "name": "data",
          "type": "bytes"
        }
      ],
      "name": "safeTransferFrom",
      "outputs": [],
      "stateMutability": "nonpayable",
      "type": "function"
    },
    {
      "inputs": [
        {
          "internalType": "address",
          "name": "operator",
          "type": "address"
        },
        {
          "internalType": "bool",
          "name": "approved",
          "type": "bool"
        }
      ],
      "name": "setApprovalForAll",
      "outputs": [],
      "stateMutability": "nonpayable",
      "type": "function"
    },
    {
      "inputs": [
        {
          "internalType": "bytes4",
          "name": "interfaceId",
          "type": "bytes4"
        }
      ],
      "name": "supportsInterface",
      "outputs": [
        {
          "internalType": "bool",
          "name": "",
          "type": "bool"
        }
      ],
      "stateMutability": "view",
      "type": "function"
    },
    {
      "inputs": [],
      "name": "symbol",
      "outputs": [
        {
          "internalType": "string",
          "name": "",
          "type": "string"
        }
      ],
      "stateMutability": "view",
      "type": "function"
    },
    {
      "inputs": [
        {
          "internalType": "uint256",
          "name": "tokenId",
          "type": "uint256"
        }
      ],
      "name": "tokenURI",
      "outputs": [
        {
          "internalType": "string",
          "name": "",
          "type": "string"
        }
      ],
      "stateMutability": "view",
      "type": "function"
    },
    {
      "inputs": [
        {
          "internalType": "address",
          "name": "from",
          "type": "address"
        },
        {
          "internalType": "address",
          "name": "to",
          "type": "address"
        },
        {
          "internalType": "uint256",
          "name": "tokenId",
          "type": "uint256"
        }
      ],
      "name": "transferFrom",
      "outputs": [],
      "stateMutability": "nonpayable",
      "type": "function"
    },
    {
      "inputs": [
        {
          "internalType": "uint256",
          "name": "listingId",
          "type": "uint256"
        }
      ],
      "name": "withdrawBid",
      "outputs": [],
      "stateMutability": "payable",
      "type": "function"
    }
  ],
  "bytecode": "0x6080604052600a600e553480156200001657600080fd5b50604080518082018252601581527f506f6c79676f6e4e46544d61726b6574706c61636500000000000000000000006020808301918252835180850190945260048452634441524b60e01b90840152815191929162000078916000916200009c565b5080516200008e9060019060208401906200009c565b50506001600755506200017f565b828054620000aa9062000142565b90600052602060002090601f016020900481019282620000ce576000855562000119565b82601f10620000e957805160ff191683800117855562000119565b8280016001018555821562000119579182015b8281111562000119578251825591602001919060010190620000fc565b50620001279291506200012b565b5090565b5b808211156200012757600081556001016200012c565b600181811c908216806200015757607f821691505b602082108114156200017957634e487b7160e01b600052602260045260246000fd5b50919050565b612e4d806200018f6000396000f3fe60806040526004361061021a5760003560e01c80636352211e11610123578063a22cb465116100ab578063de74e57b1161006f578063de74e57b146106ab578063e57a497a14610752578063e985e9c5146107e5578063edf2ebcc1461082e578063fad266fe1461084557600080fd5b8063a22cb465146105fa578063adc2524c1461061a578063b27dce8114610649578063b88d4fde1461066b578063c87b56dd1461068b57600080fd5b806370a08231116100f257806370a0823114610588578063732e8d73146105a8578063740db280146105bd57806395d89b41146105d25780639b1225c4146105e757600080fd5b80636352211e1461052957806366b126e6146105495780636c2c9c7d1461055c578063708d4d351461057257600080fd5b806324f8515b116101a657806342842e0e1161017557806342842e0e1461047e578063451df52e1461049e578063454a2ab3146104d45780634c22f381146104e7578063629cb2e41461050757600080fd5b806324f8515b14610369578063330241001461039057806336ad658f146104215780633f1ffcec1461044657600080fd5b80630ad48628116101ed5780630ad48628146102d05780630eaaf4c8146102f05780631389b1171461030357806321b628861461033657806323b872dd1461034957600080fd5b806301ffc9a71461021f57806306fdde0314610254578063081812fc14610276578063095ea7b3146102ae575b600080fd5b34801561022b57600080fd5b5061023f61023a36600461299c565b61085c565b60405190151581526020015b60405180910390f35b34801561026057600080fd5b50610269610887565b60405161024b9190612c24565b34801561028257600080fd5b50610296610291366004612a1a565b610919565b6040516001600160a01b03909116815260200161024b565b3480156102ba57600080fd5b506102ce6102c9366004612973565b610940565b005b3480156102dc57600080fd5b5061023f6102eb366004612a1a565b610a5b565b6102ce6102fe366004612a1a565b610a92565b34801561030f57600080fd5b5061023f61031e366004612a1a565b6000908152600f602052604090206005015442101590565b6102ce610344366004612a1a565b610bd6565b34801561035557600080fd5b506102ce610364366004612885565b610dbd565b34801561037557600080fd5b5061037e600181565b60405160ff909116815260200161024b565b34801561039c57600080fd5b506103eb6103ab366004612a1a565b600c602052600090815260409020805460018201546002830154600390930154919290916001600160a01b0391821691811690600160a01b900460ff1685565b6040805195865260208601949094526001600160a01b03928316938501939093521660608301521515608082015260a00161024b565b34801561042d57600080fd5b506008546104389081565b60405190815260200161024b565b34801561045257600080fd5b50610438610461366004612a32565b601060209081526000928352604080842090915290825290205481565b34801561048a57600080fd5b506102ce610499366004612885565b610dee565b3480156104aa57600080fd5b506102966104b9366004612a1a565b6011602052600090815260409020546001600160a01b031681565b6102ce6104e2366004612a1a565b610e09565b3480156104f357600080fd5b50610438610502366004612a75565b61100c565b34801561051357600080fd5b5061051c61113a565b60405161024b9190612bb6565b34801561053557600080fd5b50610296610544366004612a1a565b61133d565b6104386105573660046129d4565b61139d565b34801561056857600080fd5b50610438600d5481565b34801561057e57600080fd5b50610438600e5481565b34801561059457600080fd5b506104386105a3366004612839565b61145c565b3480156105b457600080fd5b5061051c6114e2565b3480156105c957600080fd5b5061037e600281565b3480156105de57600080fd5b506102696116c2565b6102ce6105f5366004612a1a565b6116d1565b34801561060657600080fd5b506102ce610615366004612939565b6118a9565b34801561062657600080fd5b506102ce610635366004612a54565b6000908152600b6020526040902060010155565b34801561065557600080fd5b5061065e6118b8565b60405161024b9190612b38565b34801561067757600080fd5b506102ce6106863660046128c0565b611aae565b34801561069757600080fd5b506102696106a6366004612a1a565b611ae6565b3480156106b757600080fd5b506107106106c6366004612a1a565b600f6020526000908152604090208054600182015460028301546003840154600485015460058601546006909601546001600160a01b039095169593949293919290919060ff1687565b604080516001600160a01b0390981688526020880196909652948601939093526060850191909152608084015260a083015260ff1660c082015260e00161024b565b34801561075e57600080fd5b506107ad61076d366004612a1a565b600b602052600090815260409020805460018201546002909201549091906001600160a01b0381169060ff600160a01b8204811691600160a81b90041685565b6040805195865260208601949094526001600160a01b039092169284019290925290151560608301521515608082015260a00161024b565b3480156107f157600080fd5b5061023f610800366004612853565b6001600160a01b03918216600090815260056020908152604080832093909416825291909152205460ff1690565b34801561083a57600080fd5b506009546104389081565b34801561085157600080fd5b50600a546104389081565b60006001600160e01b03198216632483248360e11b1480610881575061088182611bf7565b92915050565b60606000805461089690612d7f565b80601f01602080910402602001604051908101604052809291908181526020018280546108c290612d7f565b801561090f5780601f106108e45761010080835404028352916020019161090f565b820191906000526020600020905b8154815290600101906020018083116108f257829003601f168201915b5050505050905090565b600061092482611c47565b506000908152600460205260409020546001600160a01b031690565b600061094b8261133d565b9050806001600160a01b0316836001600160a01b031614156109be5760405162461bcd60e51b815260206004820152602160248201527f4552433732313a20617070726f76616c20746f2063757272656e74206f776e656044820152603960f91b60648201526084015b60405180910390fd5b336001600160a01b03821614806109da57506109da8133610800565b610a4c5760405162461bcd60e51b815260206004820152603d60248201527f4552433732313a20617070726f76652063616c6c6572206973206e6f7420746f60448201527f6b656e206f776e6572206f7220617070726f76656420666f7220616c6c00000060648201526084016109b5565b610a568383611ca6565b505050565b6000818152600f602052604081206006015460ff1660011480156108815750506000908152600f6020526040902060050154421090565b610a9a611d14565b6000818152600f6020526040902060050154421015610af35760405162461bcd60e51b8152602060048201526015602482015274185d58dd1a5bdb881b5d5cdd08189948195b991959605a1b60448201526064016109b5565b6000818152601160205260409020546001600160a01b0316331415610b655760405162461bcd60e51b815260206004820152602260248201527f68696768657374206269646465722063616e6e6f7420776974686472617720626044820152611a5960f21b60648201526084016109b5565b600081815260106020908152604080832033808552925282208054929055610b8d9082611d6e565b604080518381526020810183905233917f5eec25485ddf1aad4b5c89eda65e6053949901bfb1fe6f4c553e9c208b5bd5f8910160405180910390a250610bd36001600755565b50565b610bde611d14565b610be781610a5b565b15610c2c5760405162461bcd60e51b815260206004820152601560248201527430bab1ba34b7b71034b99039ba34b6361037b832b760591b60448201526064016109b5565b6000818152600f6020908152604080832060119092529091205481546001600160a01b039182169116331480610c6a5750336001600160a01b038216145b610cc95760405162461bcd60e51b815260206004820152602a60248201527f6f6e6c792073656c6c6572206f722077696e6e65722063616e20636f6d706c656044820152693a329030bab1ba34b7b760b11b60648201526084016109b5565b6001600160a01b03811615610d2157610ce730828460010154611e7c565b60008381526010602090815260408083206001600160a01b0385811685529252822080549290558354610d1b911682611d6e565b50610d3f565b81546001830154610d3f9130916001600160a01b0390911690611e7c565b60068201805460ff19166002179055815460008481526010602090815260408083206001600160a01b0386811680865291845293829020548251898152938401529392909216917f7a59a6c36c8b7dc5080444722a7a194bf83837c893f984bcea8692e91551fc47910160405180910390a35050610bd36001600755565b610dc73382611fe0565b610de35760405162461bcd60e51b81526004016109b590612c37565b610a56838383611e7c565b610a5683838360405180602001604052806000815250611aae565b610e11611d14565b610e1a81610a5b565b610e5a5760405162461bcd60e51b8152602060048201526011602482015270185d58dd1a5bdb881a185cc8195b991959607a1b60448201526064016109b5565b6000818152600f6020526040902080546001600160a01b0316331415610ec25760405162461bcd60e51b815260206004820152601a60248201527f63616e6e6f7420626964206f6e207768617420796f75206f776e00000000000060448201526064016109b5565b6000828152601060209081526040808320338452909152812054610ee7903490612d1b565b90508160020154811015610f4f5760405162461bcd60e51b815260206004820152602960248201527f63616e6e6f74206269642062656c6f7720746865206c61746573742062696464604482015268696e6720707269636560b81b60648201526084016109b5565b600083815260106020908152604080832033845290915281208054349290610f78908490612d1b565b9091555050600083815260116020526040812080546001600160a01b03191633179055600e546002840154610fad9190612d33565b9050808360020154610fbf9190612d1b565b6002840155604080518581526020810184905233917f0bda7f7cf42011b27b057b83f3bf21f963b84eb591478e6b413b18d7872cd37a910160405180910390a2505050610bd36001600755565b600d80546000918261101d83612dba565b9091555050600d544260006110328583612d1b565b6040805160e0810182523380825260208083018b81528385018d8152606085018e8152608086018a815260a08701898152600160c0890181815260008f8152600f90985299909620975188546001600160a01b0319166001600160a01b03909116178855935194870194909455905160028601555160038501559051600484015551600583015591516006909101805460ff191660ff9092169190911790559091506110df903088611e7c565b6040805184815260208101899052908101879052606081018390526080810182905233907e09646912aaa7019ad837e57cc5c0613299c8432f5268d4450ab8673fe0fa039060a00160405180910390a2509095945050505050565b6060600061114760085490565b9050600080805b838110156111a95733600b6000611166846001612d1b565b81526020810191909152604001600020600201546001600160a01b03161415611197578161119381612dba565b9250505b806111a181612dba565b91505061114e565b5060008167ffffffffffffffff8111156111d357634e487b7160e01b600052604160045260246000fd5b60405190808252806020026020018201604052801561122c57816020015b6040805160a0810182526000808252602080830182905292820181905260608201819052608082015282526000199092019101816111f15790505b50905060005b848110156113345733600b600061124a846001612d1b565b81526020810191909152604001600020600201546001600160a01b03161415611322576000600b8161127d846001612d1b565b81526020808201929092526040908101600020815160a0810183528154815260018201549381019390935260028101546001600160a01b0381169284019290925260ff600160a01b8304811615156060850152600160a81b90920490911615156080830152845190925084908790811061130757634e487b7160e01b600052603260045260246000fd5b6020026020010181905250848061131d90612dba565b955050505b8061132c81612dba565b915050611232565b50949350505050565b6000818152600260205260408120546001600160a01b0316806108815760405162461bcd60e51b8152602060048201526018602482015277115490cdcc8c4e881a5b9d985b1a59081d1bdad95b88125160421b60448201526064016109b5565b60006113ad600880546001019055565b60006113b860085490565b90506113c4338261205e565b6113ce8184612078565b6040805160a08101825282815260006020808301828152338486019081526060850184815260808601858152888652600b9094529590932093518455516001840155905160029092018054935191511515600160a81b0260ff60a81b19921515600160a01b026001600160a81b03199095166001600160a01b03909416939093179390931716179055610881565b60006001600160a01b0382166114c65760405162461bcd60e51b815260206004820152602960248201527f4552433732313a2061646472657373207a65726f206973206e6f7420612076616044820152683634b21037bbb732b960b91b60648201526084016109b5565b506001600160a01b031660009081526003602052604090205490565b606060006114ef60085490565b905060008060005b8381101561154757600b600061150e836001612d1b565b81526020019081526020016000206001015460001461153557611532600184612d1b565b92505b611540600182612d1b565b90506114f7565b5060008267ffffffffffffffff81111561157157634e487b7160e01b600052604160045260246000fd5b6040519080825280602002602001820160405280156115ca57816020015b6040805160a08101825260008082526020808301829052928201819052606082018190526080820152825260001990920191018161158f5790505b50905060005b84811015611334576000600b816115e8846001612d1b565b81526020019081526020016000209050600b60008360016116099190612d1b565b8152602001908152602001600020600101546000146116af576040805160a081018252825481526001830154602082015260028301546001600160a01b0381169282019290925260ff600160a01b8304811615156060830152600160a81b90920490911615156080820152835184908690811061169657634e487b7160e01b600052603260045260246000fd5b60209081029190910101526116ac600185612d1b565b93505b506116bb600182612d1b565b90506115d0565b60606001805461089690612d7f565b6000818152600b6020526040902060018101546002909101546001600160a01b03163314156117425760405162461bcd60e51b815260206004820152601a60248201527f796f752063616e27742062757920796f7572206f776e206e667400000000000060448201526064016109b5565b6000828152600b60205260409020600201546001600160a01b0316611768813385611e7c565b6117728184610940565b6000838152600b6020526040808220600201805460ff60a81b1960ff60a01b1933166001600160a81b031990921691909117600160a01b1716600160a81b179055516001600160a01b038316913480156108fc02929091818181858888f193505050501580156117e6573d6000803e3d6000fd5b506117f5600980546001019055565b600061180060095490565b6040805160a08101825286815260208082019687526001600160a01b0395861682840190815233606084019081526001608085018181526000978852600c8552868820955186559951858201559151600285018054918a166001600160a01b0319909216919091179055516003909301805498511515600160a01b026001600160a81b0319909916939097169290921796909617909455948152600b9093525091812090910155565b6118b433838361214a565b5050565b606060006118c560095490565b9050600080805b838110156119275733600c60006118e4846001612d1b565b81526020810191909152604001600020600201546001600160a01b03161415611915578161191181612dba565b9250505b8061191f81612dba565b9150506118cc565b5060008167ffffffffffffffff81111561195157634e487b7160e01b600052604160045260246000fd5b6040519080825280602002602001820160405280156119aa57816020015b6040805160a08101825260008082526020808301829052928201819052606082018190526080820152825260001990920191018161196f5790505b50905060005b848110156113345733600c60006119c8846001612d1b565b81526020810191909152604001600020600201546001600160a01b03161415611a9c576000600c816119fb846001612d1b565b81526020808201929092526040908101600020815160a0810183528154815260018201549381019390935260028101546001600160a01b039081169284019290925260038101549182166060840152600160a01b90910460ff16151560808301528451909250849087908110611a8157634e487b7160e01b600052603260045260246000fd5b60200260200101819052508480611a9790612dba565b955050505b80611aa681612dba565b9150506119b0565b611ab83383611fe0565b611ad45760405162461bcd60e51b81526004016109b590612c37565b611ae084848484612219565b50505050565b6060611af182611c47565b60008281526006602052604081208054611b0a90612d7f565b80601f0160208091040260200160405190810160405280929190818152602001828054611b3690612d7f565b8015611b835780601f10611b5857610100808354040283529160200191611b83565b820191906000526020600020905b815481529060010190602001808311611b6657829003601f168201915b505050505090506000611ba160408051602081019091526000815290565b9050805160001415611bb4575092915050565b815115611be6578082604051602001611bce929190612acc565b60405160208183030381529060405292505050919050565b611bef8461224c565b949350505050565b60006001600160e01b031982166380ac58cd60e01b1480611c2857506001600160e01b03198216635b5e139f60e01b145b8061088157506301ffc9a760e01b6001600160e01b0319831614610881565b6000818152600260205260409020546001600160a01b0316610bd35760405162461bcd60e51b8152602060048201526018602482015277115490cdcc8c4e881a5b9d985b1a59081d1bdad95b88125160421b60448201526064016109b5565b600081815260046020526040902080546001600160a01b0319166001600160a01b0384169081179091558190611cdb8261133d565b6001600160a01b03167f8c5be1e5ebec7d5bd14f71427d1e84f3dd0314c0f7b2291e5b200ac8c7c3b92560405160405180910390a45050565b60026007541415611d675760405162461bcd60e51b815260206004820152601f60248201527f5265656e7472616e637947756172643a207265656e7472616e742063616c6c0060448201526064016109b5565b6002600755565b80611d77575050565b6001600160a01b038216611dd95760405162461bcd60e51b8152602060048201526024808201527f4572726f722c2063616e6e6f74207472616e7366657220746f206164647265736044820152637328302960e01b60648201526084016109b5565b6000826001600160a01b03168260405160006040518083038185875af1925050503d8060008114611e26576040519150601f19603f3d011682016040523d82523d6000602084013e611e2b565b606091505b5050905080610a565760405162461bcd60e51b815260206004820152601b60248201527f4572726f722c206661696c656420746f2073656e64204574686572000000000060448201526064016109b5565b826001600160a01b0316611e8f8261133d565b6001600160a01b031614611eb55760405162461bcd60e51b81526004016109b590612cd6565b6001600160a01b038216611f175760405162461bcd60e51b8152602060048201526024808201527f4552433732313a207472616e7366657220746f20746865207a65726f206164646044820152637265737360e01b60648201526084016109b5565b826001600160a01b0316611f2a8261133d565b6001600160a01b031614611f505760405162461bcd60e51b81526004016109b590612cd6565b600081815260046020908152604080832080546001600160a01b03199081169091556001600160a01b0387811680865260038552838620805460001901905590871680865283862080546001019055868652600290945282852080549092168417909155905184937fddf252ad1be2c89b69c2b068fc378daa952ba7f163c4a11628f55a4df523b3ef91a4505050565b600080611fec8361133d565b9050806001600160a01b0316846001600160a01b0316148061203357506001600160a01b0380821660009081526005602090815260408083209388168352929052205460ff165b80611bef5750836001600160a01b031661204c84610919565b6001600160a01b031614949350505050565b6118b48282604051806020016040528060008152506122c0565b6000828152600260205260409020546001600160a01b03166120f35760405162461bcd60e51b815260206004820152602e60248201527f45524337323155524953746f726167653a2055524920736574206f66206e6f6e60448201526d32bc34b9ba32b73a103a37b5b2b760911b60648201526084016109b5565b600082815260066020908152604090912082516121129284019061270e565b506040518281527ff8e1a15aba9398e019f0b49df1a4fde98ee17ae345cb5f6b5e2c27f5033e8ce79060200160405180910390a15050565b816001600160a01b0316836001600160a01b031614156121ac5760405162461bcd60e51b815260206004820152601960248201527f4552433732313a20617070726f766520746f2063616c6c65720000000000000060448201526064016109b5565b6001600160a01b03838116600081815260056020908152604080832094871680845294825291829020805460ff191686151590811790915591519182527f17307eab39ab6107e8899845ad3d59bd9653f200f220920489ca2b5937696c31910160405180910390a3505050565b612224848484611e7c565b612230848484846122f3565b611ae05760405162461bcd60e51b81526004016109b590612c84565b606061225782611c47565b600061226e60408051602081019091526000815290565b9050600081511161228e57604051806020016040528060008152506122b9565b8061229884612400565b6040516020016122a9929190612acc565b6040516020818303038152906040525b9392505050565b6122ca83836124ab565b6122d760008484846122f3565b610a565760405162461bcd60e51b81526004016109b590612c84565b60006001600160a01b0384163b156123f557604051630a85bd0160e11b81526001600160a01b0385169063150b7a0290612337903390899088908890600401612afb565b602060405180830381600087803b15801561235157600080fd5b505af1925050508015612381575060408051601f3d908101601f1916820190925261237e918101906129b8565b60015b6123db573d8080156123af576040519150601f19603f3d011682016040523d82523d6000602084013e6123b4565b606091505b5080516123d35760405162461bcd60e51b81526004016109b590612c84565b805181602001fd5b6001600160e01b031916630a85bd0160e11b149050611bef565b506001949350505050565b6060600061240d83612636565b600101905060008167ffffffffffffffff81111561243b57634e487b7160e01b600052604160045260246000fd5b6040519080825280601f01601f191660200182016040528015612465576020820181803683370190505b5090508181016020015b600019016f181899199a1a9b1b9c1cb0b131b232b360811b600a86061a8153600a850494508461249e576124a3565b61246f565b509392505050565b6001600160a01b0382166125015760405162461bcd60e51b815260206004820181905260248201527f4552433732313a206d696e7420746f20746865207a65726f206164647265737360448201526064016109b5565b6000818152600260205260409020546001600160a01b0316156125665760405162461bcd60e51b815260206004820152601c60248201527f4552433732313a20746f6b656e20616c7265616479206d696e7465640000000060448201526064016109b5565b6000818152600260205260409020546001600160a01b0316156125cb5760405162461bcd60e51b815260206004820152601c60248201527f4552433732313a20746f6b656e20616c7265616479206d696e7465640000000060448201526064016109b5565b6001600160a01b038216600081815260036020908152604080832080546001019055848352600290915280822080546001600160a01b0319168417905551839291907fddf252ad1be2c89b69c2b068fc378daa952ba7f163c4a11628f55a4df523b3ef908290a45050565b60008072184f03e93ff9f4daa797ed6e38ed64bf6a1f0160401b83106126755772184f03e93ff9f4daa797ed6e38ed64bf6a1f0160401b830492506040015b6d04ee2d6d415b85acef810000000083106126a1576d04ee2d6d415b85acef8100000000830492506020015b662386f26fc1000083106126bf57662386f26fc10000830492506010015b6305f5e10083106126d7576305f5e100830492506008015b61271083106126eb57612710830492506004015b606483106126fd576064830492506002015b600a83106108815760010192915050565b82805461271a90612d7f565b90600052602060002090601f01602090048101928261273c5760008555612782565b82601f1061275557805160ff1916838001178555612782565b82800160010185558215612782579182015b82811115612782578251825591602001919060010190612767565b5061278e929150612792565b5090565b5b8082111561278e5760008155600101612793565b600067ffffffffffffffff808411156127c2576127c2612deb565b604051601f8501601f19908116603f011681019082821181831017156127ea576127ea612deb565b8160405280935085815286868601111561280357600080fd5b858560208301376000602087830101525050509392505050565b80356001600160a01b038116811461283457600080fd5b919050565b60006020828403121561284a578081fd5b6122b98261281d565b60008060408385031215612865578081fd5b61286e8361281d565b915061287c6020840161281d565b90509250929050565b600080600060608486031215612899578081fd5b6128a28461281d565b92506128b06020850161281d565b9150604084013590509250925092565b600080600080608085870312156128d5578081fd5b6128de8561281d565b93506128ec6020860161281d565b925060408501359150606085013567ffffffffffffffff81111561290e578182fd5b8501601f8101871361291e578182fd5b61292d878235602084016127a7565b91505092959194509250565b6000806040838503121561294b578182fd5b6129548361281d565b915060208301358015158114612968578182fd5b809150509250929050565b60008060408385031215612985578182fd5b61298e8361281d565b946020939093013593505050565b6000602082840312156129ad578081fd5b81356122b981612e01565b6000602082840312156129c9578081fd5b81516122b981612e01565b6000602082840312156129e5578081fd5b813567ffffffffffffffff8111156129fb578182fd5b8201601f81018413612a0b578182fd5b611bef848235602084016127a7565b600060208284031215612a2b578081fd5b5035919050565b60008060408385031215612a44578182fd5b8235915061287c6020840161281d565b60008060408385031215612a66578182fd5b50508035926020909101359150565b600080600060608486031215612a89578283fd5b505081359360208301359350604090920135919050565b60008151808452612ab8816020860160208601612d53565b601f01601f19169290920160200192915050565b60008351612ade818460208801612d53565b835190830190612af2818360208801612d53565b01949350505050565b6001600160a01b0385811682528416602082015260408101839052608060608201819052600090612b2e90830184612aa0565b9695505050505050565b602080825282518282018190526000919060409081850190868401855b82811015612ba9578151805185528681015187860152858101516001600160a01b03908116878701526060808301519091169086015260809081015115159085015260a09093019290850190600101612b55565b5091979650505050505050565b602080825282518282018190526000919060409081850190868401855b82811015612ba9578151805185528681015187860152858101516001600160a01b03168686015260608082015115159086015260809081015115159085015260a09093019290850190600101612bd3565b6020815260006122b96020830184612aa0565b6020808252602d908201527f4552433732313a2063616c6c6572206973206e6f7420746f6b656e206f776e6560408201526c1c881bdc88185c1c1c9bdd9959609a1b606082015260800190565b60208082526032908201527f4552433732313a207472616e7366657220746f206e6f6e20455243373231526560408201527131b2b4bb32b91034b6b83632b6b2b73a32b960711b606082015260800190565b60208082526025908201527f4552433732313a207472616e736665722066726f6d20696e636f72726563742060408201526437bbb732b960d91b606082015260800190565b60008219821115612d2e57612d2e612dd5565b500190565b600082612d4e57634e487b7160e01b81526012600452602481fd5b500490565b60005b83811015612d6e578181015183820152602001612d56565b83811115611ae05750506000910152565b600181811c90821680612d9357607f821691505b60208210811415612db457634e487b7160e01b600052602260045260246000fd5b50919050565b6000600019821415612dce57612dce612dd5565b5060010190565b634e487b7160e01b600052601160045260246000fd5b634e487b7160e01b600052604160045260246000fd5b6001600160e01b031981168114610bd357600080fdfea2646970667358221220b3c59480821012422b9fd489b918cec99c6d9caee97059ad52e703f027606a8864736f6c63430008040033",
  "linkReferences": {},
  "deployedLinkReferences": {}
}