{
  "_format": "hh-sol-artifact-1",
  "contractName": "PolygonNFTMarketplace",
  "sourceName": "contracts/PolygonNFTMarketplace.sol",
  "abi": [
    {
      "inputs": [],
      "stateMutability": "nonpayable",
      "type": "constructor"
    },
    {
      "anonymous": false,
      "inputs": [
        {
          "indexed": true,
          "internalType": "address",
          "name": "owner",
          "type": "address"
        },
        {
          "indexed": true,
          "internalType": "address",
          "name": "approved",
          "type": "address"
        },
        {
          "indexed": true,
          "internalType": "uint256",
          "name": "tokenId",
          "type": "uint256"
        }
      ],
      "name": "Approval",
      "type": "event"
    },
    {
      "anonymous": false,
      "inputs": [
        {
          "indexed": true,
          "internalType": "address",
          "name": "owner",
          "type": "address"
        },
        {
          "indexed": true,
          "internalType": "address",
          "name": "operator",
          "type": "address"
        },
        {
          "indexed": false,
          "internalType": "bool",
          "name": "approved",
          "type": "bool"
        }
      ],
      "name": "ApprovalForAll",
      "type": "event"
    },
    {
      "anonymous": false,
      "inputs": [
        {
          "indexed": false,
          "internalType": "uint256",
          "name": "_fromTokenId",
          "type": "uint256"
        },
        {
          "indexed": false,
          "internalType": "uint256",
          "name": "_toTokenId",
          "type": "uint256"
        }
      ],
      "name": "BatchMetadataUpdate",
      "type": "event"
    },
    {
      "anonymous": false,
      "inputs": [
        {
          "indexed": false,
          "internalType": "uint256",
          "name": "_tokenId",
          "type": "uint256"
        }
      ],
      "name": "MetadataUpdate",
      "type": "event"
    },
    {
      "anonymous": false,
      "inputs": [
        {
          "indexed": true,
          "internalType": "address",
          "name": "from",
          "type": "address"
        },
        {
          "indexed": true,
          "internalType": "address",
          "name": "to",
          "type": "address"
        },
        {
          "indexed": true,
          "internalType": "uint256",
          "name": "tokenId",
          "type": "uint256"
        }
      ],
      "name": "Transfer",
      "type": "event"
    },
    {
      "inputs": [],
      "name": "BuyCount",
      "outputs": [
        {
          "internalType": "uint256",
          "name": "_value",
          "type": "uint256"
        }
      ],
      "stateMutability": "view",
      "type": "function"
    },
    {
      "inputs": [
        {
          "internalType": "string",
          "name": "tokenURI",
          "type": "string"
        },
        {
          "internalType": "string",
          "name": "imageHash",
          "type": "string"
        }
      ],
      "name": "CreateToken",
      "outputs": [
        {
          "internalType": "uint256",
          "name": "",
          "type": "uint256"
        }
      ],
      "stateMutability": "payable",
      "type": "function"
    },
    {
      "inputs": [
        {
          "internalType": "uint256",
          "name": "",
          "type": "uint256"
        }
      ],
      "name": "Creators",
      "outputs": [
        {
          "internalType": "address",
          "name": "",
          "type": "address"
        }
      ],
      "stateMutability": "view",
      "type": "function"
    },
    {
      "inputs": [],
      "name": "CreatorsCount",
      "outputs": [
        {
          "internalType": "uint256",
          "name": "_value",
          "type": "uint256"
        }
      ],
      "stateMutability": "view",
      "type": "function"
    },
    {
      "inputs": [
        {
          "internalType": "uint256",
          "name": "price",
          "type": "uint256"
        },
        {
          "internalType": "uint256",
          "name": "id",
          "type": "uint256"
        }
      ],
      "name": "ListNFT",
      "outputs": [],
      "stateMutability": "nonpayable",
      "type": "function"
    },
    {
      "inputs": [],
      "name": "STATUS_DONE",
      "outputs": [
        {
          "internalType": "uint8",
          "name": "",
          "type": "uint8"
        }
      ],
      "stateMutability": "view",
      "type": "function"
    },
    {
      "inputs": [],
      "name": "STATUS_OPEN",
      "outputs": [
        {
          "internalType": "uint8",
          "name": "",
          "type": "uint8"
        }
      ],
      "stateMutability": "view",
      "type": "function"
    },
    {
      "inputs": [],
      "name": "SoldCount",
      "outputs": [
        {
          "internalType": "uint256",
          "name": "_value",
          "type": "uint256"
        }
      ],
      "stateMutability": "view",
      "type": "function"
    },
    {
      "inputs": [],
      "name": "TokenCount",
      "outputs": [
        {
          "internalType": "uint256",
          "name": "_value",
          "type": "uint256"
        }
      ],
      "stateMutability": "view",
      "type": "function"
    },
    {
      "inputs": [
        {
          "internalType": "address",
          "name": "to",
          "type": "address"
        },
        {
          "internalType": "uint256",
          "name": "tokenId",
          "type": "uint256"
        }
      ],
      "name": "approve",
      "outputs": [],
      "stateMutability": "nonpayable",
      "type": "function"
    },
    {
      "inputs": [
        {
          "internalType": "address",
          "name": "owner",
          "type": "address"
        }
      ],
      "name": "balanceOf",
      "outputs": [
        {
          "internalType": "uint256",
          "name": "",
          "type": "uint256"
        }
      ],
      "stateMutability": "view",
      "type": "function"
    },
    {
      "inputs": [
        {
          "internalType": "uint256",
          "name": "listingId",
          "type": "uint256"
        }
      ],
      "name": "bid",
      "outputs": [],
      "stateMutability": "payable",
      "type": "function"
    },
    {
      "inputs": [],
      "name": "biddingCounter",
      "outputs": [
        {
          "internalType": "uint256",
          "name": "_value",
          "type": "uint256"
        }
      ],
      "stateMutability": "view",
      "type": "function"
    },
    {
      "inputs": [
        {
          "internalType": "string",
          "name": "imageHash",
          "type": "string"
        }
      ],
      "name": "checkImageExist",
      "outputs": [
        {
          "internalType": "bool",
          "name": "",
          "type": "bool"
        }
      ],
      "stateMutability": "view",
      "type": "function"
    },
    {
      "inputs": [
        {
          "internalType": "uint256",
          "name": "listingId",
          "type": "uint256"
        }
      ],
      "name": "completeAuction",
      "outputs": [],
      "stateMutability": "payable",
      "type": "function"
    },
    {
      "inputs": [
        {
          "internalType": "uint256",
          "name": "price",
          "type": "uint256"
        },
        {
          "internalType": "uint256",
          "name": "tokenId",
          "type": "uint256"
        },
        {
          "internalType": "uint256",
          "name": "deadline",
          "type": "uint256"
        },
        {
          "internalType": "string",
          "name": "aucDate",
          "type": "string"
        }
      ],
      "name": "createAuctionListing",
      "outputs": [
        {
          "internalType": "uint256",
          "name": "",
          "type": "uint256"
        }
      ],
      "stateMutability": "nonpayable",
      "type": "function"
    },
    {
      "inputs": [
        {
          "internalType": "uint256",
          "name": "tokenId",
          "type": "uint256"
        }
      ],
      "name": "executeSale",
      "outputs": [],
      "stateMutability": "payable",
      "type": "function"
    },
    {
      "inputs": [],
      "name": "getAllBiddedNfts",
      "outputs": [
        {
          "components": [
            {
              "internalType": "uint256",
              "name": "biddingId",
              "type": "uint256"
            },
            {
              "internalType": "address payable",
              "name": "seller",
              "type": "address"
            },
            {
              "internalType": "uint256",
              "name": "tokenId",
              "type": "uint256"
            },
            {
              "internalType": "uint256",
              "name": "price",
              "type": "uint256"
            },
            {
              "internalType": "uint256",
              "name": "netPrice",
              "type": "uint256"
            },
            {
              "internalType": "uint256",
              "name": "startAt",
              "type": "uint256"
            },
            {
              "internalType": "uint256",
              "name": "deadline",
              "type": "uint256"
            },
            {
              "internalType": "string",
              "name": "date",
              "type": "string"
            },
            {
              "internalType": "uint256",
              "name": "status",
              "type": "uint256"
            }
          ],
          "internalType": "struct PolygonNFTMarketplace.Listing[]",
          "name": "",
          "type": "tuple[]"
        }
      ],
      "stateMutability": "view",
      "type": "function"
    },
    {
      "inputs": [],
      "name": "getAllBiddingWithListingID",
      "outputs": [
        {
          "components": [
            {
              "internalType": "uint256",
              "name": "tokenId",
              "type": "uint256"
            },
            {
              "internalType": "uint256",
              "name": "biddingId",
              "type": "uint256"
            },
            {
              "internalType": "address",
              "name": "bidder",
              "type": "address"
            },
            {
              "internalType": "uint256",
              "name": "price",
              "type": "uint256"
            }
          ],
          "internalType": "struct PolygonNFTMarketplace.Bidding[]",
          "name": "",
          "type": "tuple[]"
        }
      ],
      "stateMutability": "view",
      "type": "function"
    },
    {
      "inputs": [],
      "name": "getAllNfts",
      "outputs": [
        {
          "components": [
            {
              "internalType": "uint256",
              "name": "tokenId",
              "type": "uint256"
            },
            {
              "internalType": "uint256",
              "name": "price",
              "type": "uint256"
            },
            {
              "internalType": "address payable",
              "name": "owner",
              "type": "address"
            },
            {
              "internalType": "bool",
              "name": "NFTsold",
              "type": "bool"
            },
            {
              "internalType": "bool",
              "name": "NFTbought",
              "type": "bool"
            },
            {
              "internalType": "bool",
              "name": "NFTListed",
              "type": "bool"
            },
            {
              "internalType": "bool",
              "name": "NFTBidded",
              "type": "bool"
            }
          ],
          "internalType": "struct PolygonNFTMarketplace.ListedToken[]",
          "name": "",
          "type": "tuple[]"
        }
      ],
      "stateMutability": "view",
      "type": "function"
    },
    {
      "inputs": [
        {
          "internalType": "uint256",
          "name": "tokenId",
          "type": "uint256"
        }
      ],
      "name": "getApproved",
      "outputs": [
        {
          "internalType": "address",
          "name": "",
          "type": "address"
        }
      ],
      "stateMutability": "view",
      "type": "function"
    },
    {
      "inputs": [
        {
          "internalType": "uint256",
          "name": "listingId",
          "type": "uint256"
        }
      ],
      "name": "getHighestBidder",
      "outputs": [
        {
          "internalType": "address",
          "name": "",
          "type": "address"
        }
      ],
      "stateMutability": "view",
      "type": "function"
    },
    {
      "inputs": [],
      "name": "getMyNFTs",
      "outputs": [
        {
          "components": [
            {
              "internalType": "uint256",
              "name": "tokenId",
              "type": "uint256"
            },
            {
              "internalType": "uint256",
              "name": "price",
              "type": "uint256"
            },
            {
              "internalType": "address payable",
              "name": "owner",
              "type": "address"
            },
            {
              "internalType": "bool",
              "name": "NFTsold",
              "type": "bool"
            },
            {
              "internalType": "bool",
              "name": "NFTbought",
              "type": "bool"
            },
            {
              "internalType": "bool",
              "name": "NFTListed",
              "type": "bool"
            },
            {
              "internalType": "bool",
              "name": "NFTBidded",
              "type": "bool"
            }
          ],
          "internalType": "struct PolygonNFTMarketplace.ListedToken[]",
          "name": "",
          "type": "tuple[]"
        }
      ],
      "stateMutability": "view",
      "type": "function"
    },
    {
      "inputs": [],
      "name": "getMySoldNFTs",
      "outputs": [
        {
          "components": [
            {
              "internalType": "uint256",
              "name": "tokenId",
              "type": "uint256"
            },
            {
              "internalType": "uint256",
              "name": "price",
              "type": "uint256"
            },
            {
              "internalType": "address payable",
              "name": "owner",
              "type": "address"
            },
            {
              "internalType": "address",
              "name": "newOwner",
              "type": "address"
            },
            {
              "internalType": "bool",
              "name": "NFTsold",
              "type": "bool"
            }
          ],
          "internalType": "struct PolygonNFTMarketplace.ItemsSold[]",
          "name": "",
          "type": "tuple[]"
        }
      ],
      "stateMutability": "view",
      "type": "function"
    },
    {
      "inputs": [],
      "name": "getTotalBiddedTokens",
      "outputs": [
        {
          "internalType": "uint256",
          "name": "",
          "type": "uint256"
        }
      ],
      "stateMutability": "view",
      "type": "function"
    },
    {
      "inputs": [],
      "name": "getTotalMintedTokens",
      "outputs": [
        {
          "internalType": "uint256",
          "name": "",
          "type": "uint256"
        }
      ],
      "stateMutability": "view",
      "type": "function"
    },
    {
      "inputs": [],
      "name": "getTotalSoldTokens",
      "outputs": [
        {
          "internalType": "uint256",
          "name": "",
          "type": "uint256"
        }
      ],
      "stateMutability": "view",
      "type": "function"
    },
    {
      "inputs": [],
      "name": "getTotalUser",
      "outputs": [
        {
          "internalType": "uint256",
          "name": "",
          "type": "uint256"
        }
      ],
      "stateMutability": "view",
      "type": "function"
    },
    {
      "inputs": [
        {
          "internalType": "uint256",
          "name": "",
          "type": "uint256"
        }
      ],
      "name": "highestBidder",
      "outputs": [
        {
          "internalType": "address",
          "name": "",
          "type": "address"
        }
      ],
      "stateMutability": "view",
      "type": "function"
    },
    {
      "inputs": [],
      "name": "highestBidding",
      "outputs": [
        {
          "internalType": "uint256",
          "name": "",
          "type": "uint256"
        }
      ],
      "stateMutability": "view",
      "type": "function"
    },
    {
      "inputs": [
        {
          "internalType": "uint256",
          "name": "",
          "type": "uint256"
        }
      ],
      "name": "highestBiddingAmount",
      "outputs": [
        {
          "internalType": "uint256",
          "name": "",
          "type": "uint256"
        }
      ],
      "stateMutability": "view",
      "type": "function"
    },
    {
      "inputs": [
        {
          "internalType": "uint256",
          "name": "",
          "type": "uint256"
        }
      ],
      "name": "idToBiddedToken",
      "outputs": [
        {
          "internalType": "uint256",
          "name": "tokenId",
          "type": "uint256"
        },
        {
          "internalType": "uint256",
          "name": "biddingId",
          "type": "uint256"
        },
        {
          "internalType": "address",
          "name": "bidder",
          "type": "address"
        },
        {
          "internalType": "uint256",
          "name": "price",
          "type": "uint256"
        }
      ],
      "stateMutability": "view",
      "type": "function"
    },
    {
      "inputs": [
        {
          "internalType": "uint256",
          "name": "",
          "type": "uint256"
        }
      ],
      "name": "idToImageHash",
      "outputs": [
        {
          "internalType": "string",
          "name": "",
          "type": "string"
        }
      ],
      "stateMutability": "view",
      "type": "function"
    },
    {
      "inputs": [
        {
          "internalType": "uint256",
          "name": "",
          "type": "uint256"
        }
      ],
      "name": "idToListedToken",
      "outputs": [
        {
          "internalType": "uint256",
          "name": "tokenId",
          "type": "uint256"
        },
        {
          "internalType": "uint256",
          "name": "price",
          "type": "uint256"
        },
        {
          "internalType": "address payable",
          "name": "owner",
          "type": "address"
        },
        {
          "internalType": "bool",
          "name": "NFTsold",
          "type": "bool"
        },
        {
          "internalType": "bool",
          "name": "NFTbought",
          "type": "bool"
        },
        {
          "internalType": "bool",
          "name": "NFTListed",
          "type": "bool"
        },
        {
          "internalType": "bool",
          "name": "NFTBidded",
          "type": "bool"
        }
      ],
      "stateMutability": "view",
      "type": "function"
    },
    {
      "inputs": [
        {
          "internalType": "uint256",
          "name": "",
          "type": "uint256"
        }
      ],
      "name": "idToSoldItems",
      "outputs": [
        {
          "internalType": "uint256",
          "name": "tokenId",
          "type": "uint256"
        },
        {
          "internalType": "uint256",
          "name": "price",
          "type": "uint256"
        },
        {
          "internalType": "address payable",
          "name": "owner",
          "type": "address"
        },
        {
          "internalType": "address",
          "name": "newOwner",
          "type": "address"
        },
        {
          "internalType": "bool",
          "name": "NFTsold",
          "type": "bool"
        }
      ],
      "stateMutability": "view",
      "type": "function"
    },
    {
      "inputs": [
        {
          "internalType": "address",
          "name": "owner",
          "type": "address"
        },
        {
          "internalType": "address",
          "name": "operator",
          "type": "address"
        }
      ],
      "name": "isApprovedForAll",
      "outputs": [
        {
          "internalType": "bool",
          "name": "",
          "type": "bool"
        }
      ],
      "stateMutability": "view",
      "type": "function"
    },
    {
      "inputs": [
        {
          "internalType": "uint256",
          "name": "id",
          "type": "uint256"
        }
      ],
      "name": "isAuctionExpired",
      "outputs": [
        {
          "internalType": "bool",
          "name": "",
          "type": "bool"
        }
      ],
      "stateMutability": "view",
      "type": "function"
    },
    {
      "inputs": [
        {
          "internalType": "uint256",
          "name": "id",
          "type": "uint256"
        }
      ],
      "name": "isAuctionOpen",
      "outputs": [
        {
          "internalType": "bool",
          "name": "",
          "type": "bool"
        }
      ],
      "stateMutability": "view",
      "type": "function"
    },
    {
      "inputs": [],
      "name": "listingCounter",
      "outputs": [
        {
          "internalType": "uint256",
          "name": "_value",
          "type": "uint256"
        }
      ],
      "stateMutability": "view",
      "type": "function"
    },
    {
      "inputs": [
        {
          "internalType": "uint256",
          "name": "",
          "type": "uint256"
        }
      ],
      "name": "listings",
      "outputs": [
        {
          "internalType": "uint256",
          "name": "biddingId",
          "type": "uint256"
        },
        {
          "internalType": "address payable",
          "name": "seller",
          "type": "address"
        },
        {
          "internalType": "uint256",
          "name": "tokenId",
          "type": "uint256"
        },
        {
          "internalType": "uint256",
          "name": "price",
          "type": "uint256"
        },
        {
          "internalType": "uint256",
          "name": "netPrice",
          "type": "uint256"
        },
        {
          "internalType": "uint256",
          "name": "startAt",
          "type": "uint256"
        },
        {
          "internalType": "uint256",
          "name": "deadline",
          "type": "uint256"
        },
        {
          "internalType": "string",
          "name": "date",
          "type": "string"
        },
        {
          "internalType": "uint256",
          "name": "status",
          "type": "uint256"
        }
      ],
      "stateMutability": "view",
      "type": "function"
    },
    {
      "inputs": [],
      "name": "minAuctionIncrement",
      "outputs": [
        {
          "internalType": "uint256",
          "name": "",
          "type": "uint256"
        }
      ],
      "stateMutability": "view",
      "type": "function"
    },
    {
      "inputs": [],
      "name": "name",
      "outputs": [
        {
          "internalType": "string",
          "name": "",
          "type": "string"
        }
      ],
      "stateMutability": "view",
      "type": "function"
    },
    {
      "inputs": [
        {
          "internalType": "address",
          "name": "user",
          "type": "address"
        }
      ],
      "name": "newUser",
      "outputs": [],
      "stateMutability": "nonpayable",
      "type": "function"
    },
    {
      "inputs": [
        {
          "internalType": "uint256",
          "name": "tokenId",
          "type": "uint256"
        }
      ],
      "name": "ownerOf",
      "outputs": [
        {
          "internalType": "address",
          "name": "",
          "type": "address"
        }
      ],
      "stateMutability": "view",
      "type": "function"
    },
    {
      "inputs": [
        {
          "internalType": "address",
          "name": "from",
          "type": "address"
        },
        {
          "internalType": "address",
          "name": "to",
          "type": "address"
        },
        {
          "internalType": "uint256",
          "name": "tokenId",
          "type": "uint256"
        }
      ],
      "name": "safeTransferFrom",
      "outputs": [],
      "stateMutability": "nonpayable",
      "type": "function"
    },
    {
      "inputs": [
        {
          "internalType": "address",
          "name": "from",
          "type": "address"
        },
        {
          "internalType": "address",
          "name": "to",
          "type": "address"
        },
        {
          "internalType": "uint256",
          "name": "tokenId",
          "type": "uint256"
        },
        {
          "internalType": "bytes",
          "name": "data",
          "type": "bytes"
        }
      ],
      "name": "safeTransferFrom",
      "outputs": [],
      "stateMutability": "nonpayable",
      "type": "function"
    },
    {
      "inputs": [
        {
          "internalType": "address",
          "name": "operator",
          "type": "address"
        },
        {
          "internalType": "bool",
          "name": "approved",
          "type": "bool"
        }
      ],
      "name": "setApprovalForAll",
      "outputs": [],
      "stateMutability": "nonpayable",
      "type": "function"
    },
    {
      "inputs": [
        {
          "internalType": "bytes4",
          "name": "interfaceId",
          "type": "bytes4"
        }
      ],
      "name": "supportsInterface",
      "outputs": [
        {
          "internalType": "bool",
          "name": "",
          "type": "bool"
        }
      ],
      "stateMutability": "view",
      "type": "function"
    },
    {
      "inputs": [],
      "name": "symbol",
      "outputs": [
        {
          "internalType": "string",
          "name": "",
          "type": "string"
        }
      ],
      "stateMutability": "view",
      "type": "function"
    },
    {
      "inputs": [
        {
          "internalType": "uint256",
          "name": "tokenId",
          "type": "uint256"
        }
      ],
      "name": "tokenURI",
      "outputs": [
        {
          "internalType": "string",
          "name": "",
          "type": "string"
        }
      ],
      "stateMutability": "view",
      "type": "function"
    },
    {
      "inputs": [
        {
          "internalType": "address",
          "name": "from",
          "type": "address"
        },
        {
          "internalType": "address",
          "name": "to",
          "type": "address"
        },
        {
          "internalType": "uint256",
          "name": "tokenId",
          "type": "uint256"
        }
      ],
      "name": "transferFrom",
      "outputs": [],
      "stateMutability": "nonpayable",
      "type": "function"
    },
    {
      "inputs": [
        {
          "internalType": "uint256",
          "name": "listingId",
          "type": "uint256"
        }
      ],
      "name": "withdrawBid",
      "outputs": [],
      "stateMutability": "payable",
      "type": "function"
    }
  ],
  "bytecode": "0x6080604052600a60125560006016553480156200001b57600080fd5b50604080518082018252601581527f506f6c79676f6e4e46544d61726b6574706c61636500000000000000000000006020808301918252835180850190945260048452634441524b60e01b9084015281519192916200007d91600091620000a1565b50805162000093906001906020840190620000a1565b505060016007555062000184565b828054620000af9062000147565b90600052602060002090601f016020900481019282620000d357600085556200011e565b82601f10620000ee57805160ff19168380011785556200011e565b828001600101855582156200011e579182015b828111156200011e57825182559160200191906001019062000101565b506200012c92915062000130565b5090565b5b808211156200012c576000815560010162000131565b600181811c908216806200015c57607f821691505b602082108114156200017e57634e487b7160e01b600052602260045260246000fd5b50919050565b613b5780620001946000396000f3fe6080604052600436106102ff5760003560e01c806370a0823111610190578063adc2524c116100dc578063de74e57b11610095578063e985e9c51161006f578063e985e9c514610a99578063edf2ebcc14610ae2578063f67a769c14610af9578063fad266fe14610b0e57600080fd5b8063de74e57b14610981578063e57a497a146109b6578063e877d3f814610a6c57600080fd5b8063adc2524c14610880578063b27dce81146108c7578063b820a6d1146108e9578063b88d4fde1461090b578063c750cb791461092b578063c87b56dd1461096157600080fd5b806395d89b4111610149578063a22cb46511610123578063a22cb4651461081d578063a4fdb6351461083d578063a71ffa7614610854578063a9c63aa01461086b57600080fd5b806395d89b41146107e05780639b1225c4146107f55780639d6e5fb31461080857600080fd5b806370a082311461072a578063732e8d731461074a578063740db2801461075f5780638055ccaa14610774578063903405bb146107aa57806392a374b7146107c057600080fd5b8063330241001161024f57806359be5e45116102085780636352211e116101e25780636352211e146106605780636b8c91cb146106805780636c2c9c7d146106fd578063708d4d351461071457600080fd5b806359be5e45146106095780635ac8b5b01461061e578063629cb2e41461063e57600080fd5b806333024100146104d657806336ad658f1461056757806342842e0e1461057e578063451df52e1461059e578063454a2ab3146105d45780634945dcdd146105e757600080fd5b80630cb5f653116102bc5780631389b117116102965780631389b1171461044957806321b628861461047c57806323b872dd1461048f57806324f8515b146104af57600080fd5b80630cb5f653146103f55780630eaaf4c8146104155780631053aff21461042857600080fd5b806301ffc9a71461030457806306fdde0314610339578063081812fc1461035b578063095ea7b3146103935780630ad48628146103b55780630ad52cc6146103d5575b600080fd5b34801561031057600080fd5b5061032461031f3660046134bb565b610b25565b60405190151581526020015b60405180910390f35b34801561034557600080fd5b5061034e610b50565b60405161033091906138f0565b34801561036757600080fd5b5061037b610376366004613587565b610be2565b6040516001600160a01b039091168152602001610330565b34801561039f57600080fd5b506103b36103ae366004613492565b610c09565b005b3480156103c157600080fd5b506103246103d0366004613587565b610d24565b3480156103e157600080fd5b5061034e6103f0366004613587565b610d58565b34801561040157600080fd5b506103b3610410366004613358565b610df2565b6103b3610423366004613587565b610eb2565b61043b610436366004613526565b611074565b604051908152602001610330565b34801561045557600080fd5b50610324610464366004613587565b60009081526013602052604090206006015442101590565b6103b361048a366004613587565b6110d5565b34801561049b57600080fd5b506103b36104aa3660046133a4565b61128f565b3480156104bb57600080fd5b506104c4600181565b60405160ff9091168152602001610330565b3480156104e257600080fd5b506105316104f1366004613587565b600f602052600090815260409020805460018201546002830154600390930154919290916001600160a01b0391821691811690600160a01b900460ff1685565b6040805195865260208601949094526001600160a01b03928316938501939093521660608301521515608082015260a001610330565b34801561057357600080fd5b5060085461043b9081565b34801561058a57600080fd5b506103b36105993660046133a4565b6112c0565b3480156105aa57600080fd5b5061037b6105b9366004613587565b6014602052600090815260409020546001600160a01b031681565b6103b36105e2366004613587565b6112db565b3480156105f357600080fd5b506105fc6114d5565b6040516103309190613824565b34801561061557600080fd5b5061043b611792565b34801561062a57600080fd5b506103246106393660046134f3565b6117a2565b34801561064a57600080fd5b506106536118e4565b604051610330919061379e565b34801561066c57600080fd5b5061037b61067b366004613587565b611b0c565b34801561068c57600080fd5b506106ce61069b366004613587565b6017602052600090815260409020805460018201546002830154600390930154919290916001600160a01b039091169084565b604051610330949392919093845260208401929092526001600160a01b03166040830152606082015260800190565b34801561070957600080fd5b50600b5461043b9081565b34801561072057600080fd5b5061043b60125481565b34801561073657600080fd5b5061043b610745366004613358565b611b6c565b34801561075657600080fd5b50610653611bf2565b34801561076b57600080fd5b506104c4600081565b34801561078057600080fd5b5061037b61078f366004613587565b6011602052600090815260409020546001600160a01b031681565b3480156107b657600080fd5b5061043b60165481565b3480156107cc57600080fd5b5061043b6107db3660046135c0565b611e00565b3480156107ec57600080fd5b5061034e611f22565b6103b3610803366004613587565b611f31565b34801561081457600080fd5b5061043b61211c565b34801561082957600080fd5b506103b3610838366004613458565b612127565b34801561084957600080fd5b50600c5461043b9081565b34801561086057600080fd5b50600d5461043b9081565b34801561087757600080fd5b5061043b612136565b34801561088c57600080fd5b506103b361089b36600461359f565b6000908152600e602052604090206001810191909155600201805460ff60b01b1916600160b01b179055565b3480156108d357600080fd5b506108dc612141565b604051610330919061372d565b3480156108f557600080fd5b506108fe612337565b60405161033091906136c0565b34801561091757600080fd5b506103b36109263660046133df565b61250c565b34801561093757600080fd5b5061037b610946366004613587565b6000908152601460205260409020546001600160a01b031690565b34801561096d57600080fd5b5061034e61097c366004613587565b61253e565b34801561098d57600080fd5b506109a161099c366004613587565b612647565b604051610330999897969594939291906139e7565b3480156109c257600080fd5b50610a256109d1366004613587565b600e602052600090815260409020805460018201546002909201549091906001600160a01b0381169060ff600160a01b8204811691600160a81b8104821691600160b01b8204811691600160b81b90041687565b6040805197885260208801969096526001600160a01b039094169486019490945290151560608501521515608084015290151560a0830152151560c082015260e001610330565b348015610a7857600080fd5b5061043b610a87366004613587565b60156020526000908152604090205481565b348015610aa557600080fd5b50610324610ab4366004613372565b6001600160a01b03918216600090815260056020908152604080832093909416825291909152205460ff1690565b348015610aee57600080fd5b5060095461043b9081565b348015610b0557600080fd5b5061043b612726565b348015610b1a57600080fd5b50600a5461043b9081565b60006001600160e01b03198216632483248360e11b1480610b4a5750610b4a82612731565b92915050565b606060008054610b5f90613a89565b80601f0160208091040260200160405190810160405280929190818152602001828054610b8b90613a89565b8015610bd85780601f10610bad57610100808354040283529160200191610bd8565b820191906000526020600020905b815481529060010190602001808311610bbb57829003601f168201915b5050505050905090565b6000610bed82612781565b506000908152600460205260409020546001600160a01b031690565b6000610c1482611b0c565b9050806001600160a01b0316836001600160a01b03161415610c875760405162461bcd60e51b815260206004820152602160248201527f4552433732313a20617070726f76616c20746f2063757272656e74206f776e656044820152603960f91b60648201526084015b60405180910390fd5b336001600160a01b0382161480610ca35750610ca38133610ab4565b610d155760405162461bcd60e51b815260206004820152603d60248201527f4552433732313a20617070726f76652063616c6c6572206973206e6f7420746f60448201527f6b656e206f776e6572206f7220617070726f76656420666f7220616c6c0000006064820152608401610c7e565b610d1f83836127e0565b505050565b6000818152601360205260408120600801546001148015610b4a575050600090815260136020526040902060060154421090565b60106020526000908152604090208054610d7190613a89565b80601f0160208091040260200160405190810160405280929190818152602001828054610d9d90613a89565b8015610dea5780601f10610dbf57610100808354040283529160200191610dea565b820191906000526020600020905b815481529060010190602001808311610dcd57829003601f168201915b505050505081565b6000610dfd600d5490565b90506000805b82811015610e64576001600160a01b03841660116000610e24846001613a45565b81526020810191909152604001600020546001600160a01b03161415610e5257610e4f600183613a45565b91505b80610e5c81613ac4565b915050610e03565b5080610d1f57610e78600d80546001019055565b6000610e83600d5490565b600090815260116020526040902080546001600160a01b0386166001600160a01b031990911617905550505050565b610eba61284e565b600081815260136020526040902060060154421015610f135760405162461bcd60e51b8152602060048201526015602482015274185d58dd1a5bdb881b5d5cdd08189948195b991959605a1b6044820152606401610c7e565b6000818152601460205260409020546001600160a01b0316331415610f855760405162461bcd60e51b815260206004820152602260248201527f68696768657374206269646465722063616e6e6f7420776974686472617720626044820152611a5960f21b6064820152608401610c7e565b6000610f90600c5490565b90506000805b82811015611036573360176000610fae846001613a45565b81526020810191909152604001600020600201546001600160a01b031614156110245760176000610fe0836001613a45565b81526020019081526020016000206003015482610ffd9190613a45565b9150600060178161100f846001613a45565b81526020810191909152604001600020600301555b8061102e81613ac4565b915050610f96565b50604051339082156108fc029083906000818181858888f19350505050158015611064573d6000803e3d6000fd5b5050506110716001600755565b50565b6000611084600880546001019055565b600061108f60085490565b905061109b33826128a8565b6110a581856128c2565b600081815260106020908152604090912084516110c49286019061320e565b506110ce81612994565b9392505050565b6110dd61284e565b6110e681610d24565b1561112b5760405162461bcd60e51b815260206004820152601560248201527430bab1ba34b7b71034b99039ba34b6361037b832b760591b6044820152606401610c7e565b600081815260136020908152604080832060149092529091205460018201546001600160a01b03918216911633148061116c5750336001600160a01b038216145b6111cb5760405162461bcd60e51b815260206004820152602a60248201527f6f6e6c792073656c6c6572206f722077696e6e65722063616e20636f6d706c656044820152693a329030bab1ba34b7b760b11b6064820152608401610c7e565b600083815260156020526040902054806111eb5760006008840155611064565b600283015460018401546001600160a01b0316611209818584612a6c565b6040516001600160a01b0382169084156108fc029085906000818181858888f1935050505015801561123f573d6000803e3d6000fd5b50506001840180546001600160a01b0385166001600160a01b031991821681179092556000928352600e602052604083206002018054909116909117905560088401555050506110716001600755565b6112993382612bd0565b6112b55760405162461bcd60e51b8152600401610c7e90613903565b610d1f838383612a6c565b610d1f8383836040518060200160405280600081525061250c565b6112e361284e565b6112ec81610d24565b61132c5760405162461bcd60e51b8152602060048201526011602482015270185d58dd1a5bdb881a185cc8195b991959607a1b6044820152606401610c7e565b600081815260136020526040902060030154341161138c5760405162461bcd60e51b815260206004820152601f60248201527f56616c756520697320736d616c6c6572207468616e206269642076616c7565006044820152606401610c7e565b6000818152601360205260409020600101546001600160a01b03163314156113f65760405162461bcd60e51b815260206004820152601a60248201527f796f752063616e27742062696420796f7572206f776e206e66740000000000006044820152606401610c7e565b611404600c80546001019055565b600061140f600c5490565b60408051608081018252600085815260136020908152838220600290810154845281840188815233858701908152346060870181815289875260179095529690942094518555516001850155915191830180546001600160a01b0319166001600160a01b03909316929092179091555160039091015560165491925011156114c157346016819055600083815260146020908152604080832080546001600160a01b0319163317905560159091529020555b6114ca33610df2565b506110716001600755565b606060006114e2600b5490565b905060008060005b8381101561153a5760136000611501836001613a45565b81526020019081526020016000206003015460001461152857611525600184613a45565b92505b611533600182613a45565b90506114ea565b5060008267ffffffffffffffff81111561156457634e487b7160e01b600052604160045260246000fd5b6040519080825280602002602001820160405280156115ed57816020015b6115da6040518061012001604052806000815260200160006001600160a01b03168152602001600081526020016000815260200160008152602001600081526020016000815260200160608152602001600081525090565b8152602001906001900390816115825790505b50905060005b8481101561178957600060138161160b846001613a45565b815260200190815260200160002090506013600083600161162c9190613a45565b8152602001908152602001600020600301546000146117765760408051610120810182528254815260018301546001600160a01b031660208201526002830154918101919091526003820154606082015260048201546080820152600582015460a0820152600682015460c0820152600782018054839160e08401916116b190613a89565b80601f01602080910402602001604051908101604052809291908181526020018280546116dd90613a89565b801561172a5780601f106116ff5761010080835404028352916020019161172a565b820191906000526020600020905b81548152906001019060200180831161170d57829003601f168201915b5050505050815260200160088201548152505083858151811061175d57634e487b7160e01b600052603260045260246000fd5b6020908102919091010152611773600185613a45565b93505b50611782600182613a45565b90506115f3565b50949350505050565b600061179d60095490565b905090565b6000806117ae60085490565b905082606060005b838110156118d857601060006117cd836001613a45565b815260200190815260200160002080546117e690613a89565b80601f016020809104026020016040519081016040528092919081815260200182805461181290613a89565b801561185f5780601f106118345761010080835404028352916020019161185f565b820191906000526020600020905b81548152906001019060200180831161184257829003601f168201915b50505050509150826040516020016118779190613638565b604051602081830303815290604052805190602001208260405160200161189e9190613638565b6040516020818303038152906040528051906020012014156118c65750600095945050505050565b806118d081613ac4565b9150506117b6565b50600195945050505050565b606060006118f160085490565b9050600080805b838110156119535733600e6000611910846001613a45565b81526020810191909152604001600020600201546001600160a01b03161415611941578161193d81613ac4565b9250505b8061194b81613ac4565b9150506118f8565b5060008167ffffffffffffffff81111561197d57634e487b7160e01b600052604160045260246000fd5b6040519080825280602002602001820160405280156119e457816020015b6040805160e08101825260008082526020808301829052928201819052606082018190526080820181905260a0820181905260c0820152825260001990920191018161199b5790505b50905060005b848110156117895733600e6000611a02846001613a45565b81526020810191909152604001600020600201546001600160a01b03161415611afa576000600e81611a35846001613a45565b81526020808201929092526040908101600020815160e0810183528154815260018201549381019390935260028101546001600160a01b0381169284019290925260ff600160a01b8304811615156060850152600160a81b8304811615156080850152600160b01b83048116151560a0850152600160b81b909204909116151560c08301528451909250849087908110611adf57634e487b7160e01b600052603260045260246000fd5b60200260200101819052508480611af590613ac4565b955050505b80611b0481613ac4565b9150506119ea565b6000818152600260205260408120546001600160a01b031680610b4a5760405162461bcd60e51b8152602060048201526018602482015277115490cdcc8c4e881a5b9d985b1a59081d1bdad95b88125160421b6044820152606401610c7e565b60006001600160a01b038216611bd65760405162461bcd60e51b815260206004820152602960248201527f4552433732313a2061646472657373207a65726f206973206e6f7420612076616044820152683634b21037bbb732b960b91b6064820152608401610c7e565b506001600160a01b031660009081526003602052604090205490565b60606000611bff60085490565b905060008060005b83811015611c5757600e6000611c1e836001613a45565b815260200190815260200160002060010154600014611c4557611c42600184613a45565b92505b611c50600182613a45565b9050611c07565b5060008267ffffffffffffffff811115611c8157634e487b7160e01b600052604160045260246000fd5b604051908082528060200260200182016040528015611ce857816020015b6040805160e08101825260008082526020808301829052928201819052606082018190526080820181905260a0820181905260c08201528252600019909201910181611c9f5790505b50905060005b84811015611789576000600e81611d06846001613a45565b81526020019081526020016000209050600e6000836001611d279190613a45565b815260200190815260200160002060010154600014611ded576040805160e081018252825481526001830154602082015260028301546001600160a01b0381169282019290925260ff600160a01b8304811615156060830152600160a81b8304811615156080830152600160b01b83048116151560a0830152600160b81b909204909116151560c08201528351849086908110611dd457634e487b7160e01b600052603260045260246000fd5b6020908102919091010152611dea600185613a45565b93505b50611df9600182613a45565b9050611cee565b6000611e10600b80546001019055565b6000611e1b600b5490565b9050426000611e2a8683613a45565b60408051610120810182528581523360208083019182528284018c8152606084018e8152608085018f815260a086018a815260c0870189815260e088018f815260016101008a0181905260008f8152601389529a909a2089518155975199880180546001600160a01b0319166001600160a01b03909b169a909a1790995593516002870155915160038601555160048501555160058401555160068301559251805194955091939092611ee492600785019291019061320e565b50610100919091015160089091015550506000858152600e60205260409020600201805460ff60b81b1916600160b81b17905590505b949350505050565b606060018054610b5f90613a89565b6000818152600e6020526040902060018101546002909101546001600160a01b0316331415611fa25760405162461bcd60e51b815260206004820152601a60248201527f796f752063616e27742062757920796f7572206f776e206e66740000000000006044820152606401610c7e565b6000828152600e60205260409020600201546001600160a01b0316611fc8813385612a6c565b611fd28184610c09565b6000838152600e6020526040808220600201805460ff60a81b1960ff60a01b1933166001600160a81b031990921691909117600160a01b1716600160a81b179055516001600160a01b038316913480156108fc02929091818181858888f19350505050158015612046573d6000803e3d6000fd5b50612055600980546001019055565b600061206060095490565b6040805160a08101825286815260208082018781526001600160a01b03808816848601908152336060860181815260016080880181815260008b8152600f89528a812099518a5596518983015593516002890180549187166001600160a01b031990921691909117905590516003909701805493511515600160a01b026001600160a81b0319909416979094169690961791909117909155898252600e9092529283209091019190915590915061211690610df2565b50505050565b600061179d600c5490565b612132338383612c4e565b5050565b600061179d600d5490565b6060600061214e60095490565b9050600080805b838110156121b05733600f600061216d846001613a45565b81526020810191909152604001600020600201546001600160a01b0316141561219e578161219a81613ac4565b9250505b806121a881613ac4565b915050612155565b5060008167ffffffffffffffff8111156121da57634e487b7160e01b600052604160045260246000fd5b60405190808252806020026020018201604052801561223357816020015b6040805160a0810182526000808252602080830182905292820181905260608201819052608082015282526000199092019101816121f85790505b50905060005b848110156117895733600f6000612251846001613a45565b81526020810191909152604001600020600201546001600160a01b03161415612325576000600f81612284846001613a45565b81526020808201929092526040908101600020815160a0810183528154815260018201549381019390935260028101546001600160a01b039081169284019290925260038101549182166060840152600160a01b90910460ff1615156080830152845190925084908790811061230a57634e487b7160e01b600052603260045260246000fd5b6020026020010181905250848061232090613ac4565b955050505b8061232f81613ac4565b915050612239565b60606000612344600c5490565b9050600080805b8381101561239b5760176000612362836001613a45565b815260200190815260200160002060030154600014612389578161238581613ac4565b9250505b8061239381613ac4565b91505061234b565b5060008167ffffffffffffffff8111156123c557634e487b7160e01b600052604160045260246000fd5b60405190808252806020026020018201604052801561242a57816020015b6124176040518060800160405280600081526020016000815260200160006001600160a01b03168152602001600081525090565b8152602001906001900390816123e35790505b50905060005b848110156117895760176000612447836001613a45565b8152602001908152602001600020600301546000146124fa576000601781612470846001613a45565b8152602080820192909252604090810160002081516080810183528154815260018201549381019390935260028101546001600160a01b0316918301919091526003810154606083015284519092508490879081106124df57634e487b7160e01b600052603260045260246000fd5b602002602001018190525084806124f590613ac4565b955050505b8061250481613ac4565b915050612430565b6125163383612bd0565b6125325760405162461bcd60e51b8152600401610c7e90613903565b61211684848484612d1d565b606061254982612781565b6000828152600660205260408120805461256290613a89565b80601f016020809104026020016040519081016040528092919081815260200182805461258e90613a89565b80156125db5780601f106125b0576101008083540402835291602001916125db565b820191906000526020600020905b8154815290600101906020018083116125be57829003601f168201915b5050505050905060006125f960408051602081019091526000815290565b905080516000141561260c575092915050565b81511561263e578082604051602001612626929190613654565b60405160208183030381529060405292505050919050565b611f1a84612d50565b6013602052600090815260409020805460018201546002830154600384015460048501546005860154600687015460078801805497986001600160a01b0390971697959694959394929391929161269d90613a89565b80601f01602080910402602001604051908101604052809291908181526020018280546126c990613a89565b80156127165780601f106126eb57610100808354040283529160200191612716565b820191906000526020600020905b8154815290600101906020018083116126f957829003601f168201915b5050505050908060080154905089565b600061179d60085490565b60006001600160e01b031982166380ac58cd60e01b148061276257506001600160e01b03198216635b5e139f60e01b145b80610b4a57506301ffc9a760e01b6001600160e01b0319831614610b4a565b6000818152600260205260409020546001600160a01b03166110715760405162461bcd60e51b8152602060048201526018602482015277115490cdcc8c4e881a5b9d985b1a59081d1bdad95b88125160421b6044820152606401610c7e565b600081815260046020526040902080546001600160a01b0319166001600160a01b038416908117909155819061281582611b0c565b6001600160a01b03167f8c5be1e5ebec7d5bd14f71427d1e84f3dd0314c0f7b2291e5b200ac8c7c3b92560405160405180910390a45050565b600260075414156128a15760405162461bcd60e51b815260206004820152601f60248201527f5265656e7472616e637947756172643a207265656e7472616e742063616c6c006044820152606401610c7e565b6002600755565b612132828260405180602001604052806000815250612dc3565b6000828152600260205260409020546001600160a01b031661293d5760405162461bcd60e51b815260206004820152602e60248201527f45524337323155524953746f726167653a2055524920736574206f66206e6f6e60448201526d32bc34b9ba32b73a103a37b5b2b760911b6064820152608401610c7e565b6000828152600660209081526040909120825161295c9284019061320e565b506040518281527ff8e1a15aba9398e019f0b49df1a4fde98ee17ae345cb5f6b5e2c27f5033e8ce79060200160405180910390a15050565b6040805160e0810182528281526000602080830182815233848601818152606086018581526080870186815260a0880187815260c089018881528b8952600e909752989096209651875592516001870155516002909501805492519451965193511515600160b81b0260ff60b81b19941515600160b01b0260ff60b01b19981515600160a81b029890981661ffff60a81b19961515600160a01b026001600160a81b03199095166001600160a01b03989098169790971793909317949094169490941794909417169290921790915561107190610df2565b826001600160a01b0316612a7f82611b0c565b6001600160a01b031614612aa55760405162461bcd60e51b8152600401610c7e906139a2565b6001600160a01b038216612b075760405162461bcd60e51b8152602060048201526024808201527f4552433732313a207472616e7366657220746f20746865207a65726f206164646044820152637265737360e01b6064820152608401610c7e565b826001600160a01b0316612b1a82611b0c565b6001600160a01b031614612b405760405162461bcd60e51b8152600401610c7e906139a2565b600081815260046020908152604080832080546001600160a01b03199081169091556001600160a01b0387811680865260038552838620805460001901905590871680865283862080546001019055868652600290945282852080549092168417909155905184937fddf252ad1be2c89b69c2b068fc378daa952ba7f163c4a11628f55a4df523b3ef91a4505050565b600080612bdc83611b0c565b9050806001600160a01b0316846001600160a01b03161480612c2357506001600160a01b0380821660009081526005602090815260408083209388168352929052205460ff165b80611f1a5750836001600160a01b0316612c3c84610be2565b6001600160a01b031614949350505050565b816001600160a01b0316836001600160a01b03161415612cb05760405162461bcd60e51b815260206004820152601960248201527f4552433732313a20617070726f766520746f2063616c6c6572000000000000006044820152606401610c7e565b6001600160a01b03838116600081815260056020908152604080832094871680845294825291829020805460ff191686151590811790915591519182527f17307eab39ab6107e8899845ad3d59bd9653f200f220920489ca2b5937696c31910160405180910390a3505050565b612d28848484612a6c565b612d3484848484612df6565b6121165760405162461bcd60e51b8152600401610c7e90613950565b6060612d5b82612781565b6000612d7260408051602081019091526000815290565b90506000815111612d9257604051806020016040528060008152506110ce565b80612d9c84612f00565b604051602001612dad929190613654565b6040516020818303038152906040529392505050565b612dcd8383612fab565b612dda6000848484612df6565b610d1f5760405162461bcd60e51b8152600401610c7e90613950565b60006001600160a01b0384163b15612ef857604051630a85bd0160e11b81526001600160a01b0385169063150b7a0290612e3a903390899088908890600401613683565b602060405180830381600087803b158015612e5457600080fd5b505af1925050508015612e84575060408051601f3d908101601f19168201909252612e81918101906134d7565b60015b612ede573d808015612eb2576040519150601f19603f3d011682016040523d82523d6000602084013e612eb7565b606091505b508051612ed65760405162461bcd60e51b8152600401610c7e90613950565b805181602001fd5b6001600160e01b031916630a85bd0160e11b149050611f1a565b506001611f1a565b60606000612f0d83613136565b600101905060008167ffffffffffffffff811115612f3b57634e487b7160e01b600052604160045260246000fd5b6040519080825280601f01601f191660200182016040528015612f65576020820181803683370190505b5090508181016020015b600019016f181899199a1a9b1b9c1cb0b131b232b360811b600a86061a8153600a8504945084612f9e57612fa3565b612f6f565b509392505050565b6001600160a01b0382166130015760405162461bcd60e51b815260206004820181905260248201527f4552433732313a206d696e7420746f20746865207a65726f20616464726573736044820152606401610c7e565b6000818152600260205260409020546001600160a01b0316156130665760405162461bcd60e51b815260206004820152601c60248201527f4552433732313a20746f6b656e20616c7265616479206d696e746564000000006044820152606401610c7e565b6000818152600260205260409020546001600160a01b0316156130cb5760405162461bcd60e51b815260206004820152601c60248201527f4552433732313a20746f6b656e20616c7265616479206d696e746564000000006044820152606401610c7e565b6001600160a01b038216600081815260036020908152604080832080546001019055848352600290915280822080546001600160a01b0319168417905551839291907fddf252ad1be2c89b69c2b068fc378daa952ba7f163c4a11628f55a4df523b3ef908290a45050565b60008072184f03e93ff9f4daa797ed6e38ed64bf6a1f0160401b83106131755772184f03e93ff9f4daa797ed6e38ed64bf6a1f0160401b830492506040015b6d04ee2d6d415b85acef810000000083106131a1576d04ee2d6d415b85acef8100000000830492506020015b662386f26fc1000083106131bf57662386f26fc10000830492506010015b6305f5e10083106131d7576305f5e100830492506008015b61271083106131eb57612710830492506004015b606483106131fd576064830492506002015b600a8310610b4a5760010192915050565b82805461321a90613a89565b90600052602060002090601f01602090048101928261323c5760008555613282565b82601f1061325557805160ff1916838001178555613282565b82800160010185558215613282579182015b82811115613282578251825591602001919060010190613267565b5061328e929150613292565b5090565b5b8082111561328e5760008155600101613293565b600067ffffffffffffffff808411156132c2576132c2613af5565b604051601f8501601f19908116603f011681019082821181831017156132ea576132ea613af5565b8160405280935085815286868601111561330357600080fd5b858560208301376000602087830101525050509392505050565b80356001600160a01b038116811461333457600080fd5b919050565b600082601f830112613349578081fd5b6110ce838335602085016132a7565b600060208284031215613369578081fd5b6110ce8261331d565b60008060408385031215613384578081fd5b61338d8361331d565b915061339b6020840161331d565b90509250929050565b6000806000606084860312156133b8578081fd5b6133c18461331d565b92506133cf6020850161331d565b9150604084013590509250925092565b600080600080608085870312156133f4578081fd5b6133fd8561331d565b935061340b6020860161331d565b925060408501359150606085013567ffffffffffffffff81111561342d578182fd5b8501601f8101871361343d578182fd5b61344c878235602084016132a7565b91505092959194509250565b6000806040838503121561346a578182fd5b6134738361331d565b915060208301358015158114613487578182fd5b809150509250929050565b600080604083850312156134a4578182fd5b6134ad8361331d565b946020939093013593505050565b6000602082840312156134cc578081fd5b81356110ce81613b0b565b6000602082840312156134e8578081fd5b81516110ce81613b0b565b600060208284031215613504578081fd5b813567ffffffffffffffff81111561351a578182fd5b611f1a84828501613339565b60008060408385031215613538578182fd5b823567ffffffffffffffff8082111561354f578384fd5b61355b86838701613339565b93506020850135915080821115613570578283fd5b5061357d85828601613339565b9150509250929050565b600060208284031215613598578081fd5b5035919050565b600080604083850312156135b1578182fd5b50508035926020909101359150565b600080600080608085870312156135d5578384fd5b843593506020850135925060408501359150606085013567ffffffffffffffff811115613600578182fd5b61344c87828801613339565b60008151808452613624816020860160208601613a5d565b601f01601f19169290920160200192915050565b6000825161364a818460208701613a5d565b9190910192915050565b60008351613666818460208801613a5d565b83519083019061367a818360208801613a5d565b01949350505050565b6001600160a01b03858116825284166020820152604081018390526080606082018190526000906136b69083018461360c565b9695505050505050565b602080825282518282018190526000919060409081850190868401855b82811015613720578151805185528681015187860152858101516001600160a01b03168686015260609081015190850152608090930192908501906001016136dd565b5091979650505050505050565b602080825282518282018190526000919060409081850190868401855b82811015613720578151805185528681015187860152858101516001600160a01b03908116878701526060808301519091169086015260809081015115159085015260a0909301929085019060010161374a565b602080825282518282018190526000919060409081850190868401855b82811015613720578151805185528681015187860152858101516001600160a01b03168686015260608082015115159086015260808082015115159086015260a08082015115159086015260c09081015115159085015260e090930192908501906001016137bb565b60006020808301818452808551808352604092508286019150828160051b870101848801865b838110156138e257603f19898403018552815180518452878101516001600160a01b0316888501528681015187850152606080820151908501526080808201519085015260a0808201519085015260c0808201519085015260e08082015161012082870181905291906138bf8388018261360c565b61010094850151979094019690965250509487019492509086019060010161384a565b509098975050505050505050565b6020815260006110ce602083018461360c565b6020808252602d908201527f4552433732313a2063616c6c6572206973206e6f7420746f6b656e206f776e6560408201526c1c881bdc88185c1c1c9bdd9959609a1b606082015260800190565b60208082526032908201527f4552433732313a207472616e7366657220746f206e6f6e20455243373231526560408201527131b2b4bb32b91034b6b83632b6b2b73a32b960711b606082015260800190565b60208082526025908201527f4552433732313a207472616e736665722066726f6d20696e636f72726563742060408201526437bbb732b960d91b606082015260800190565b60006101208b835260018060a01b038b1660208401528960408401528860608401528760808401528660a08401528560c08401528060e0840152613a2d8184018661360c565b915050826101008301529a9950505050505050505050565b60008219821115613a5857613a58613adf565b500190565b60005b83811015613a78578181015183820152602001613a60565b838111156121165750506000910152565b600181811c90821680613a9d57607f821691505b60208210811415613abe57634e487b7160e01b600052602260045260246000fd5b50919050565b6000600019821415613ad857613ad8613adf565b5060010190565b634e487b7160e01b600052601160045260246000fd5b634e487b7160e01b600052604160045260246000fd5b6001600160e01b03198116811461107157600080fdfea2646970667358221220ab2f265b247c6b22d13fb1814855425d928dab5dbd1974d195adf067594edd6b64736f6c63430008040033",
  "linkReferences": {},
  "deployedLinkReferences": {}
}