{
  "_format": "hh-sol-artifact-1",
  "contractName": "PolygonNFTMarketplace",
  "sourceName": "contracts/PolygonNFTMarketplace.sol",
  "abi": [
    {
      "inputs": [],
      "stateMutability": "nonpayable",
      "type": "constructor"
    },
    {
      "anonymous": false,
      "inputs": [
        {
          "indexed": true,
          "internalType": "address",
          "name": "owner",
          "type": "address"
        },
        {
          "indexed": true,
          "internalType": "address",
          "name": "approved",
          "type": "address"
        },
        {
          "indexed": true,
          "internalType": "uint256",
          "name": "tokenId",
          "type": "uint256"
        }
      ],
      "name": "Approval",
      "type": "event"
    },
    {
      "anonymous": false,
      "inputs": [
        {
          "indexed": true,
          "internalType": "address",
          "name": "owner",
          "type": "address"
        },
        {
          "indexed": true,
          "internalType": "address",
          "name": "operator",
          "type": "address"
        },
        {
          "indexed": false,
          "internalType": "bool",
          "name": "approved",
          "type": "bool"
        }
      ],
      "name": "ApprovalForAll",
      "type": "event"
    },
    {
      "anonymous": false,
      "inputs": [
        {
          "indexed": false,
          "internalType": "uint256",
          "name": "_fromTokenId",
          "type": "uint256"
        },
        {
          "indexed": false,
          "internalType": "uint256",
          "name": "_toTokenId",
          "type": "uint256"
        }
      ],
      "name": "BatchMetadataUpdate",
      "type": "event"
    },
    {
      "anonymous": false,
      "inputs": [
        {
          "indexed": false,
          "internalType": "uint256",
          "name": "_tokenId",
          "type": "uint256"
        }
      ],
      "name": "MetadataUpdate",
      "type": "event"
    },
    {
      "anonymous": false,
      "inputs": [
        {
          "indexed": true,
          "internalType": "address",
          "name": "from",
          "type": "address"
        },
        {
          "indexed": true,
          "internalType": "address",
          "name": "to",
          "type": "address"
        },
        {
          "indexed": true,
          "internalType": "uint256",
          "name": "tokenId",
          "type": "uint256"
        }
      ],
      "name": "Transfer",
      "type": "event"
    },
    {
      "inputs": [],
      "name": "BuyCount",
      "outputs": [
        {
          "internalType": "uint256",
          "name": "_value",
          "type": "uint256"
        }
      ],
      "stateMutability": "view",
      "type": "function"
    },
    {
      "inputs": [
        {
          "internalType": "string",
          "name": "tokenURI",
          "type": "string"
        },
        {
          "internalType": "string",
          "name": "imageHash",
          "type": "string"
        }
      ],
      "name": "CreateToken",
      "outputs": [
        {
          "internalType": "uint256",
          "name": "",
          "type": "uint256"
        }
      ],
      "stateMutability": "payable",
      "type": "function"
    },
    {
      "inputs": [
        {
          "internalType": "uint256",
          "name": "",
          "type": "uint256"
        }
      ],
      "name": "Creators",
      "outputs": [
        {
          "internalType": "address",
          "name": "",
          "type": "address"
        }
      ],
      "stateMutability": "view",
      "type": "function"
    },
    {
      "inputs": [],
      "name": "CreatorsCount",
      "outputs": [
        {
          "internalType": "uint256",
          "name": "_value",
          "type": "uint256"
        }
      ],
      "stateMutability": "view",
      "type": "function"
    },
    {
      "inputs": [
        {
          "internalType": "uint256",
          "name": "price",
          "type": "uint256"
        },
        {
          "internalType": "uint256",
          "name": "id",
          "type": "uint256"
        }
      ],
      "name": "ListNFT",
      "outputs": [],
      "stateMutability": "nonpayable",
      "type": "function"
    },
    {
      "inputs": [],
      "name": "STATUS_DONE",
      "outputs": [
        {
          "internalType": "uint8",
          "name": "",
          "type": "uint8"
        }
      ],
      "stateMutability": "view",
      "type": "function"
    },
    {
      "inputs": [],
      "name": "STATUS_OPEN",
      "outputs": [
        {
          "internalType": "uint8",
          "name": "",
          "type": "uint8"
        }
      ],
      "stateMutability": "view",
      "type": "function"
    },
    {
      "inputs": [],
      "name": "SoldCount",
      "outputs": [
        {
          "internalType": "uint256",
          "name": "_value",
          "type": "uint256"
        }
      ],
      "stateMutability": "view",
      "type": "function"
    },
    {
      "inputs": [],
      "name": "TokenCount",
      "outputs": [
        {
          "internalType": "uint256",
          "name": "_value",
          "type": "uint256"
        }
      ],
      "stateMutability": "view",
      "type": "function"
    },
    {
      "inputs": [
        {
          "internalType": "address",
          "name": "to",
          "type": "address"
        },
        {
          "internalType": "uint256",
          "name": "tokenId",
          "type": "uint256"
        }
      ],
      "name": "approve",
      "outputs": [],
      "stateMutability": "nonpayable",
      "type": "function"
    },
    {
      "inputs": [
        {
          "internalType": "address",
          "name": "owner",
          "type": "address"
        }
      ],
      "name": "balanceOf",
      "outputs": [
        {
          "internalType": "uint256",
          "name": "",
          "type": "uint256"
        }
      ],
      "stateMutability": "view",
      "type": "function"
    },
    {
      "inputs": [
        {
          "internalType": "uint256",
          "name": "listingId",
          "type": "uint256"
        }
      ],
      "name": "bid",
      "outputs": [],
      "stateMutability": "payable",
      "type": "function"
    },
    {
      "inputs": [],
      "name": "biddingCounter",
      "outputs": [
        {
          "internalType": "uint256",
          "name": "_value",
          "type": "uint256"
        }
      ],
      "stateMutability": "view",
      "type": "function"
    },
    {
      "inputs": [
        {
          "internalType": "string",
          "name": "imageHash",
          "type": "string"
        }
      ],
      "name": "checkImageExist",
      "outputs": [
        {
          "internalType": "bool",
          "name": "",
          "type": "bool"
        }
      ],
      "stateMutability": "view",
      "type": "function"
    },
    {
      "inputs": [
        {
          "internalType": "uint256",
          "name": "listingId",
          "type": "uint256"
        }
      ],
      "name": "completeAuction",
      "outputs": [],
      "stateMutability": "payable",
      "type": "function"
    },
    {
      "inputs": [
        {
          "internalType": "uint256",
          "name": "price",
          "type": "uint256"
        },
        {
          "internalType": "uint256",
          "name": "tokenId",
          "type": "uint256"
        },
        {
          "internalType": "uint256",
          "name": "deadline",
          "type": "uint256"
        },
        {
          "internalType": "string",
          "name": "aucDate",
          "type": "string"
        }
      ],
      "name": "createAuctionListing",
      "outputs": [
        {
          "internalType": "uint256",
          "name": "",
          "type": "uint256"
        }
      ],
      "stateMutability": "nonpayable",
      "type": "function"
    },
    {
      "inputs": [
        {
          "internalType": "uint256",
          "name": "tokenId",
          "type": "uint256"
        }
      ],
      "name": "executeSale",
      "outputs": [],
      "stateMutability": "payable",
      "type": "function"
    },
    {
      "inputs": [],
      "name": "getAllBiddedNfts",
      "outputs": [
        {
          "components": [
            {
              "internalType": "uint256",
              "name": "biddingId",
              "type": "uint256"
            },
            {
              "internalType": "address payable",
              "name": "seller",
              "type": "address"
            },
            {
              "internalType": "uint256",
              "name": "tokenId",
              "type": "uint256"
            },
            {
              "internalType": "uint256",
              "name": "price",
              "type": "uint256"
            },
            {
              "internalType": "uint256",
              "name": "netPrice",
              "type": "uint256"
            },
            {
              "internalType": "uint256",
              "name": "startAt",
              "type": "uint256"
            },
            {
              "internalType": "uint256",
              "name": "deadline",
              "type": "uint256"
            },
            {
              "internalType": "string",
              "name": "date",
              "type": "string"
            },
            {
              "internalType": "uint256",
              "name": "status",
              "type": "uint256"
            }
          ],
          "internalType": "struct PolygonNFTMarketplace.Listing[]",
          "name": "",
          "type": "tuple[]"
        }
      ],
      "stateMutability": "view",
      "type": "function"
    },
    {
      "inputs": [],
      "name": "getAllBiddingWithListingID",
      "outputs": [
        {
          "components": [
            {
              "internalType": "uint256",
              "name": "tokenId",
              "type": "uint256"
            },
            {
              "internalType": "uint256",
              "name": "biddingId",
              "type": "uint256"
            },
            {
              "internalType": "address",
              "name": "bidder",
              "type": "address"
            },
            {
              "internalType": "uint256",
              "name": "price",
              "type": "uint256"
            }
          ],
          "internalType": "struct PolygonNFTMarketplace.Bidding[]",
          "name": "",
          "type": "tuple[]"
        }
      ],
      "stateMutability": "view",
      "type": "function"
    },
    {
      "inputs": [],
      "name": "getAllNfts",
      "outputs": [
        {
          "components": [
            {
              "internalType": "uint256",
              "name": "tokenId",
              "type": "uint256"
            },
            {
              "internalType": "uint256",
              "name": "price",
              "type": "uint256"
            },
            {
              "internalType": "address payable",
              "name": "owner",
              "type": "address"
            },
            {
              "internalType": "bool",
              "name": "NFTsold",
              "type": "bool"
            },
            {
              "internalType": "bool",
              "name": "NFTbought",
              "type": "bool"
            },
            {
              "internalType": "bool",
              "name": "NFTListed",
              "type": "bool"
            },
            {
              "internalType": "bool",
              "name": "NFTBidded",
              "type": "bool"
            }
          ],
          "internalType": "struct PolygonNFTMarketplace.ListedToken[]",
          "name": "",
          "type": "tuple[]"
        }
      ],
      "stateMutability": "view",
      "type": "function"
    },
    {
      "inputs": [
        {
          "internalType": "uint256",
          "name": "tokenId",
          "type": "uint256"
        }
      ],
      "name": "getApproved",
      "outputs": [
        {
          "internalType": "address",
          "name": "",
          "type": "address"
        }
      ],
      "stateMutability": "view",
      "type": "function"
    },
    {
      "inputs": [
        {
          "internalType": "uint256",
          "name": "listingId",
          "type": "uint256"
        }
      ],
      "name": "getHighestBidder",
      "outputs": [
        {
          "internalType": "address",
          "name": "",
          "type": "address"
        }
      ],
      "stateMutability": "view",
      "type": "function"
    },
    {
      "inputs": [
        {
          "internalType": "uint256",
          "name": "listingId",
          "type": "uint256"
        }
      ],
      "name": "getHighestBiddingAmount",
      "outputs": [
        {
          "internalType": "uint256",
          "name": "",
          "type": "uint256"
        }
      ],
      "stateMutability": "view",
      "type": "function"
    },
    {
      "inputs": [],
      "name": "getMyNFTs",
      "outputs": [
        {
          "components": [
            {
              "internalType": "uint256",
              "name": "tokenId",
              "type": "uint256"
            },
            {
              "internalType": "uint256",
              "name": "price",
              "type": "uint256"
            },
            {
              "internalType": "address payable",
              "name": "owner",
              "type": "address"
            },
            {
              "internalType": "bool",
              "name": "NFTsold",
              "type": "bool"
            },
            {
              "internalType": "bool",
              "name": "NFTbought",
              "type": "bool"
            },
            {
              "internalType": "bool",
              "name": "NFTListed",
              "type": "bool"
            },
            {
              "internalType": "bool",
              "name": "NFTBidded",
              "type": "bool"
            }
          ],
          "internalType": "struct PolygonNFTMarketplace.ListedToken[]",
          "name": "",
          "type": "tuple[]"
        }
      ],
      "stateMutability": "view",
      "type": "function"
    },
    {
      "inputs": [],
      "name": "getMySoldNFTs",
      "outputs": [
        {
          "components": [
            {
              "internalType": "uint256",
              "name": "tokenId",
              "type": "uint256"
            },
            {
              "internalType": "uint256",
              "name": "price",
              "type": "uint256"
            },
            {
              "internalType": "address payable",
              "name": "owner",
              "type": "address"
            },
            {
              "internalType": "address",
              "name": "newOwner",
              "type": "address"
            },
            {
              "internalType": "bool",
              "name": "NFTsold",
              "type": "bool"
            }
          ],
          "internalType": "struct PolygonNFTMarketplace.ItemsSold[]",
          "name": "",
          "type": "tuple[]"
        }
      ],
      "stateMutability": "view",
      "type": "function"
    },
    {
      "inputs": [],
      "name": "getTotalBiddedTokens",
      "outputs": [
        {
          "internalType": "uint256",
          "name": "",
          "type": "uint256"
        }
      ],
      "stateMutability": "view",
      "type": "function"
    },
    {
      "inputs": [],
      "name": "getTotalMintedTokens",
      "outputs": [
        {
          "internalType": "uint256",
          "name": "",
          "type": "uint256"
        }
      ],
      "stateMutability": "view",
      "type": "function"
    },
    {
      "inputs": [],
      "name": "getTotalSoldTokens",
      "outputs": [
        {
          "internalType": "uint256",
          "name": "",
          "type": "uint256"
        }
      ],
      "stateMutability": "view",
      "type": "function"
    },
    {
      "inputs": [],
      "name": "getTotalUser",
      "outputs": [
        {
          "internalType": "uint256",
          "name": "",
          "type": "uint256"
        }
      ],
      "stateMutability": "view",
      "type": "function"
    },
    {
      "inputs": [
        {
          "internalType": "uint256",
          "name": "",
          "type": "uint256"
        }
      ],
      "name": "highestBidder",
      "outputs": [
        {
          "internalType": "address",
          "name": "",
          "type": "address"
        }
      ],
      "stateMutability": "view",
      "type": "function"
    },
    {
      "inputs": [
        {
          "internalType": "uint256",
          "name": "",
          "type": "uint256"
        }
      ],
      "name": "highestBiddingAmount",
      "outputs": [
        {
          "internalType": "uint256",
          "name": "",
          "type": "uint256"
        }
      ],
      "stateMutability": "view",
      "type": "function"
    },
    {
      "inputs": [
        {
          "internalType": "uint256",
          "name": "",
          "type": "uint256"
        }
      ],
      "name": "idToBiddedToken",
      "outputs": [
        {
          "internalType": "uint256",
          "name": "tokenId",
          "type": "uint256"
        },
        {
          "internalType": "uint256",
          "name": "biddingId",
          "type": "uint256"
        },
        {
          "internalType": "address",
          "name": "bidder",
          "type": "address"
        },
        {
          "internalType": "uint256",
          "name": "price",
          "type": "uint256"
        }
      ],
      "stateMutability": "view",
      "type": "function"
    },
    {
      "inputs": [
        {
          "internalType": "uint256",
          "name": "",
          "type": "uint256"
        }
      ],
      "name": "idToImageHash",
      "outputs": [
        {
          "internalType": "string",
          "name": "",
          "type": "string"
        }
      ],
      "stateMutability": "view",
      "type": "function"
    },
    {
      "inputs": [
        {
          "internalType": "uint256",
          "name": "",
          "type": "uint256"
        }
      ],
      "name": "idToListedToken",
      "outputs": [
        {
          "internalType": "uint256",
          "name": "tokenId",
          "type": "uint256"
        },
        {
          "internalType": "uint256",
          "name": "price",
          "type": "uint256"
        },
        {
          "internalType": "address payable",
          "name": "owner",
          "type": "address"
        },
        {
          "internalType": "bool",
          "name": "NFTsold",
          "type": "bool"
        },
        {
          "internalType": "bool",
          "name": "NFTbought",
          "type": "bool"
        },
        {
          "internalType": "bool",
          "name": "NFTListed",
          "type": "bool"
        },
        {
          "internalType": "bool",
          "name": "NFTBidded",
          "type": "bool"
        }
      ],
      "stateMutability": "view",
      "type": "function"
    },
    {
      "inputs": [
        {
          "internalType": "uint256",
          "name": "",
          "type": "uint256"
        }
      ],
      "name": "idToSoldItems",
      "outputs": [
        {
          "internalType": "uint256",
          "name": "tokenId",
          "type": "uint256"
        },
        {
          "internalType": "uint256",
          "name": "price",
          "type": "uint256"
        },
        {
          "internalType": "address payable",
          "name": "owner",
          "type": "address"
        },
        {
          "internalType": "address",
          "name": "newOwner",
          "type": "address"
        },
        {
          "internalType": "bool",
          "name": "NFTsold",
          "type": "bool"
        }
      ],
      "stateMutability": "view",
      "type": "function"
    },
    {
      "inputs": [
        {
          "internalType": "address",
          "name": "owner",
          "type": "address"
        },
        {
          "internalType": "address",
          "name": "operator",
          "type": "address"
        }
      ],
      "name": "isApprovedForAll",
      "outputs": [
        {
          "internalType": "bool",
          "name": "",
          "type": "bool"
        }
      ],
      "stateMutability": "view",
      "type": "function"
    },
    {
      "inputs": [
        {
          "internalType": "uint256",
          "name": "id",
          "type": "uint256"
        }
      ],
      "name": "isAuctionExpired",
      "outputs": [
        {
          "internalType": "bool",
          "name": "",
          "type": "bool"
        }
      ],
      "stateMutability": "view",
      "type": "function"
    },
    {
      "inputs": [
        {
          "internalType": "uint256",
          "name": "id",
          "type": "uint256"
        }
      ],
      "name": "isAuctionOpen",
      "outputs": [
        {
          "internalType": "bool",
          "name": "",
          "type": "bool"
        }
      ],
      "stateMutability": "view",
      "type": "function"
    },
    {
      "inputs": [],
      "name": "listingCounter",
      "outputs": [
        {
          "internalType": "uint256",
          "name": "_value",
          "type": "uint256"
        }
      ],
      "stateMutability": "view",
      "type": "function"
    },
    {
      "inputs": [
        {
          "internalType": "uint256",
          "name": "",
          "type": "uint256"
        }
      ],
      "name": "listings",
      "outputs": [
        {
          "internalType": "uint256",
          "name": "biddingId",
          "type": "uint256"
        },
        {
          "internalType": "address payable",
          "name": "seller",
          "type": "address"
        },
        {
          "internalType": "uint256",
          "name": "tokenId",
          "type": "uint256"
        },
        {
          "internalType": "uint256",
          "name": "price",
          "type": "uint256"
        },
        {
          "internalType": "uint256",
          "name": "netPrice",
          "type": "uint256"
        },
        {
          "internalType": "uint256",
          "name": "startAt",
          "type": "uint256"
        },
        {
          "internalType": "uint256",
          "name": "deadline",
          "type": "uint256"
        },
        {
          "internalType": "string",
          "name": "date",
          "type": "string"
        },
        {
          "internalType": "uint256",
          "name": "status",
          "type": "uint256"
        }
      ],
      "stateMutability": "view",
      "type": "function"
    },
    {
      "inputs": [],
      "name": "minAuctionIncrement",
      "outputs": [
        {
          "internalType": "uint256",
          "name": "",
          "type": "uint256"
        }
      ],
      "stateMutability": "view",
      "type": "function"
    },
    {
      "inputs": [],
      "name": "name",
      "outputs": [
        {
          "internalType": "string",
          "name": "",
          "type": "string"
        }
      ],
      "stateMutability": "view",
      "type": "function"
    },
    {
      "inputs": [
        {
          "internalType": "address",
          "name": "user",
          "type": "address"
        }
      ],
      "name": "newUser",
      "outputs": [],
      "stateMutability": "nonpayable",
      "type": "function"
    },
    {
      "inputs": [
        {
          "internalType": "uint256",
          "name": "tokenId",
          "type": "uint256"
        }
      ],
      "name": "ownerOf",
      "outputs": [
        {
          "internalType": "address",
          "name": "",
          "type": "address"
        }
      ],
      "stateMutability": "view",
      "type": "function"
    },
    {
      "inputs": [
        {
          "internalType": "address",
          "name": "from",
          "type": "address"
        },
        {
          "internalType": "address",
          "name": "to",
          "type": "address"
        },
        {
          "internalType": "uint256",
          "name": "tokenId",
          "type": "uint256"
        }
      ],
      "name": "safeTransferFrom",
      "outputs": [],
      "stateMutability": "nonpayable",
      "type": "function"
    },
    {
      "inputs": [
        {
          "internalType": "address",
          "name": "from",
          "type": "address"
        },
        {
          "internalType": "address",
          "name": "to",
          "type": "address"
        },
        {
          "internalType": "uint256",
          "name": "tokenId",
          "type": "uint256"
        },
        {
          "internalType": "bytes",
          "name": "data",
          "type": "bytes"
        }
      ],
      "name": "safeTransferFrom",
      "outputs": [],
      "stateMutability": "nonpayable",
      "type": "function"
    },
    {
      "inputs": [
        {
          "internalType": "address",
          "name": "operator",
          "type": "address"
        },
        {
          "internalType": "bool",
          "name": "approved",
          "type": "bool"
        }
      ],
      "name": "setApprovalForAll",
      "outputs": [],
      "stateMutability": "nonpayable",
      "type": "function"
    },
    {
      "inputs": [
        {
          "internalType": "bytes4",
          "name": "interfaceId",
          "type": "bytes4"
        }
      ],
      "name": "supportsInterface",
      "outputs": [
        {
          "internalType": "bool",
          "name": "",
          "type": "bool"
        }
      ],
      "stateMutability": "view",
      "type": "function"
    },
    {
      "inputs": [],
      "name": "symbol",
      "outputs": [
        {
          "internalType": "string",
          "name": "",
          "type": "string"
        }
      ],
      "stateMutability": "view",
      "type": "function"
    },
    {
      "inputs": [
        {
          "internalType": "uint256",
          "name": "tokenId",
          "type": "uint256"
        }
      ],
      "name": "tokenURI",
      "outputs": [
        {
          "internalType": "string",
          "name": "",
          "type": "string"
        }
      ],
      "stateMutability": "view",
      "type": "function"
    },
    {
      "inputs": [
        {
          "internalType": "address",
          "name": "from",
          "type": "address"
        },
        {
          "internalType": "address",
          "name": "to",
          "type": "address"
        },
        {
          "internalType": "uint256",
          "name": "tokenId",
          "type": "uint256"
        }
      ],
      "name": "transferFrom",
      "outputs": [],
      "stateMutability": "nonpayable",
      "type": "function"
    },
    {
      "inputs": [
        {
          "internalType": "uint256",
          "name": "listingId",
          "type": "uint256"
        }
      ],
      "name": "withdrawBid",
      "outputs": [],
      "stateMutability": "payable",
      "type": "function"
    }
  ],
  "bytecode": "0x6080604052600a6012553480156200001657600080fd5b50604080518082018252601581527f506f6c79676f6e4e46544d61726b6574706c61636500000000000000000000006020808301918252835180850190945260048452634441524b60e01b90840152815191929162000078916000916200009c565b5080516200008e9060019060208401906200009c565b50506001600755506200017f565b828054620000aa9062000142565b90600052602060002090601f016020900481019282620000ce576000855562000119565b82601f10620000e957805160ff191683800117855562000119565b8280016001018555821562000119579182015b8281111562000119578251825591602001919060010190620000fc565b50620001279291506200012b565b5090565b5b808211156200012757600081556001016200012c565b600181811c908216806200015757607f821691505b602082108114156200017957634e487b7160e01b600052602260045260246000fd5b50919050565b613d15806200018f6000396000f3fe6080604052600436106102ff5760003560e01c806370a0823111610190578063adc2524c116100dc578063de74e57b11610095578063e985e9c51161006f578063e985e9c514610ab0578063edf2ebcc14610af9578063f67a769c14610b10578063fad266fe14610b2557600080fd5b8063de74e57b14610998578063e57a497a146109cd578063e877d3f814610a8357600080fd5b8063adc2524c14610897578063b27dce81146108de578063b820a6d114610900578063b88d4fde14610922578063c750cb7914610942578063c87b56dd1461097857600080fd5b806395d89b4111610149578063a22cb46511610123578063a22cb46514610834578063a4fdb63514610854578063a71ffa761461086b578063a9c63aa01461088257600080fd5b806395d89b41146107f75780639b1225c41461080c5780639d6e5fb31461081f57600080fd5b806370a082311461072a578063732e8d731461074a578063740db2801461075f5780637aea3738146107745780638055ccaa146107a157806392a374b7146107d757600080fd5b8063330241001161024f57806359be5e45116102085780636352211e116101e25780636352211e146106605780636b8c91cb146106805780636c2c9c7d146106fd578063708d4d351461071457600080fd5b806359be5e45146106095780635ac8b5b01461061e578063629cb2e41461063e57600080fd5b806333024100146104d657806336ad658f1461056757806342842e0e1461057e578063451df52e1461059e578063454a2ab3146105d45780634945dcdd146105e757600080fd5b80630cb5f653116102bc5780631389b117116102965780631389b1171461044957806321b628861461047c57806323b872dd1461048f57806324f8515b146104af57600080fd5b80630cb5f653146103f55780630eaaf4c8146104155780631053aff21461042857600080fd5b806301ffc9a71461030457806306fdde0314610339578063081812fc1461035b578063095ea7b3146103935780630ad48628146103b55780630ad52cc6146103d5575b600080fd5b34801561031057600080fd5b5061032461031f366004613679565b610b3c565b60405190151581526020015b60405180910390f35b34801561034557600080fd5b5061034e610b67565b6040516103309190613aae565b34801561036757600080fd5b5061037b610376366004613745565b610bf9565b6040516001600160a01b039091168152602001610330565b34801561039f57600080fd5b506103b36103ae366004613650565b610c20565b005b3480156103c157600080fd5b506103246103d0366004613745565b610d3b565b3480156103e157600080fd5b5061034e6103f0366004613745565b610d6f565b34801561040157600080fd5b506103b3610410366004613516565b610e09565b6103b3610423366004613745565b610ec9565b61043b6104363660046136e4565b6110b6565b604051908152602001610330565b34801561045557600080fd5b50610324610464366004613745565b60009081526013602052604090206006015442101590565b6103b361048a366004613745565b611117565b34801561049b57600080fd5b506103b36104aa366004613562565b6112d8565b3480156104bb57600080fd5b506104c4600181565b60405160ff9091168152602001610330565b3480156104e257600080fd5b506105316104f1366004613745565b600f602052600090815260409020805460018201546002830154600390930154919290916001600160a01b0391821691811690600160a01b900460ff1685565b6040805195865260208601949094526001600160a01b03928316938501939093521660608301521515608082015260a001610330565b34801561057357600080fd5b5060085461043b9081565b34801561058a57600080fd5b506103b3610599366004613562565b611309565b3480156105aa57600080fd5b5061037b6105b9366004613745565b6014602052600090815260409020546001600160a01b031681565b6103b36105e2366004613745565b611324565b3480156105f357600080fd5b506105fc611672565b60405161033091906139e2565b34801561061557600080fd5b5061043b61192f565b34801561062a57600080fd5b506103246106393660046136b1565b61193f565b34801561064a57600080fd5b50610653611a81565b604051610330919061395c565b34801561066c57600080fd5b5061037b61067b366004613745565b611ca9565b34801561068c57600080fd5b506106ce61069b366004613745565b6016602052600090815260409020805460018201546002830154600390930154919290916001600160a01b039091169084565b604051610330949392919093845260208401929092526001600160a01b03166040830152606082015260800190565b34801561070957600080fd5b50600b5461043b9081565b34801561072057600080fd5b5061043b60125481565b34801561073657600080fd5b5061043b610745366004613516565b611d09565b34801561075657600080fd5b50610653611d8f565b34801561076b57600080fd5b506104c4600081565b34801561078057600080fd5b5061043b61078f366004613745565b60009081526015602052604090205490565b3480156107ad57600080fd5b5061037b6107bc366004613745565b6011602052600090815260409020546001600160a01b031681565b3480156107e357600080fd5b5061043b6107f236600461377e565b611f9d565b34801561080357600080fd5b5061034e6120bf565b6103b361081a366004613745565b6120ce565b34801561082b57600080fd5b5061043b6122d4565b34801561084057600080fd5b506103b361084f366004613616565b6122df565b34801561086057600080fd5b50600c5461043b9081565b34801561087757600080fd5b50600d5461043b9081565b34801561088e57600080fd5b5061043b6122ee565b3480156108a357600080fd5b506103b36108b236600461375d565b6000908152600e602052604090206001810191909155600201805460ff60b01b1916600160b01b179055565b3480156108ea57600080fd5b506108f36122f9565b60405161033091906138eb565b34801561090c57600080fd5b506109156124ef565b604051610330919061387e565b34801561092e57600080fd5b506103b361093d36600461359d565b6126c4565b34801561094e57600080fd5b5061037b61095d366004613745565b6000908152601460205260409020546001600160a01b031690565b34801561098457600080fd5b5061034e610993366004613745565b6126fc565b3480156109a457600080fd5b506109b86109b3366004613745565b612805565b60405161033099989796959493929190613ba5565b3480156109d957600080fd5b50610a3c6109e8366004613745565b600e602052600090815260409020805460018201546002909201549091906001600160a01b0381169060ff600160a01b8204811691600160a81b8104821691600160b01b8204811691600160b81b90041687565b6040805197885260208801969096526001600160a01b039094169486019490945290151560608501521515608084015290151560a0830152151560c082015260e001610330565b348015610a8f57600080fd5b5061043b610a9e366004613745565b60156020526000908152604090205481565b348015610abc57600080fd5b50610324610acb366004613530565b6001600160a01b03918216600090815260056020908152604080832093909416825291909152205460ff1690565b348015610b0557600080fd5b5060095461043b9081565b348015610b1c57600080fd5b5061043b6128e4565b348015610b3157600080fd5b50600a5461043b9081565b60006001600160e01b03198216632483248360e11b1480610b615750610b61826128ef565b92915050565b606060008054610b7690613c47565b80601f0160208091040260200160405190810160405280929190818152602001828054610ba290613c47565b8015610bef5780601f10610bc457610100808354040283529160200191610bef565b820191906000526020600020905b815481529060010190602001808311610bd257829003601f168201915b5050505050905090565b6000610c048261293f565b506000908152600460205260409020546001600160a01b031690565b6000610c2b82611ca9565b9050806001600160a01b0316836001600160a01b03161415610c9e5760405162461bcd60e51b815260206004820152602160248201527f4552433732313a20617070726f76616c20746f2063757272656e74206f776e656044820152603960f91b60648201526084015b60405180910390fd5b336001600160a01b0382161480610cba5750610cba8133610acb565b610d2c5760405162461bcd60e51b815260206004820152603d60248201527f4552433732313a20617070726f76652063616c6c6572206973206e6f7420746f60448201527f6b656e206f776e6572206f7220617070726f76656420666f7220616c6c0000006064820152608401610c95565b610d36838361299e565b505050565b6000818152601360205260408120600801546001148015610b61575050600090815260136020526040902060060154421090565b60106020526000908152604090208054610d8890613c47565b80601f0160208091040260200160405190810160405280929190818152602001828054610db490613c47565b8015610e015780601f10610dd657610100808354040283529160200191610e01565b820191906000526020600020905b815481529060010190602001808311610de457829003601f168201915b505050505081565b6000610e14600d5490565b90506000805b82811015610e7b576001600160a01b03841660116000610e3b846001613c03565b81526020810191909152604001600020546001600160a01b03161415610e6957610e66600183613c03565b91505b80610e7381613c82565b915050610e1a565b5080610d3657610e8f600d80546001019055565b6000610e9a600d5490565b600090815260116020526040902080546001600160a01b0386166001600160a01b031990911617905550505050565b610ed1612a0c565b600081815260136020526040902060060154421015610f2a5760405162461bcd60e51b8152602060048201526015602482015274185d58dd1a5bdb881b5d5cdd08189948195b991959605a1b6044820152606401610c95565b6000818152601460205260409020546001600160a01b0316331415610f9c5760405162461bcd60e51b815260206004820152602260248201527f68696768657374206269646465722063616e6e6f7420776974686472617720626044820152611a5960f21b6064820152608401610c95565b6000610fa7600c5490565b90506000805b82811015611078573360166000610fc5846001613c03565b81526020810191909152604001600020600201546001600160a01b031614801561100e575060166000610ff9836001613c03565b81526020019081526020016000206001015484145b156110665760166000611022836001613c03565b8152602001908152602001600020600301548261103f9190613c03565b91506000601681611051846001613c03565b81526020810191909152604001600020600301555b8061107081613c82565b915050610fad565b50604051339082156108fc029083906000818181858888f193505050501580156110a6573d6000803e3d6000fd5b5050506110b36001600755565b50565b60006110c6600880546001019055565b60006110d160085490565b90506110dd3382612a66565b6110e78185612a80565b60008181526010602090815260409091208451611106928601906133cc565b5061111081612b52565b9392505050565b61111f612a0c565b61112881610d3b565b1561116d5760405162461bcd60e51b815260206004820152601560248201527430bab1ba34b7b71034b99039ba34b6361037b832b760591b6044820152606401610c95565b600081815260136020908152604080832060149092529091205460018201546001600160a01b0391821691163314806111ae5750336001600160a01b038216145b61120d5760405162461bcd60e51b815260206004820152602a60248201527f6f6e6c792073656c6c6572206f722077696e6e65722063616e20636f6d706c656044820152693a329030bab1ba34b7b760b11b6064820152608401610c95565b6000838152601560205260409020548061122d57600060088401556110a6565b600283015460018401546001600160a01b031661124b818584612c2a565b6040516001600160a01b0382169084156108fc029085906000818181858888f19350505050158015611281573d6000803e3d6000fd5b5050600184810180546001600160a01b03959095166001600160a01b031995861681179091556000928352600e60205260408320600201805490951617845560089094015550805460ff60b81b1916905560075550565b6112e23382612d8e565b6112fe5760405162461bcd60e51b8152600401610c9590613ac1565b610d36838383612c2a565b610d36838383604051806020016040528060008152506126c4565b61132c612a0c565b61133581610d3b565b6113755760405162461bcd60e51b8152602060048201526011602482015270185d58dd1a5bdb881a185cc8195b991959607a1b6044820152606401610c95565b60008181526013602052604090206003015434116113d55760405162461bcd60e51b815260206004820152601f60248201527f56616c756520697320736d616c6c6572207468616e206269642076616c7565006044820152606401610c95565b6000818152601360205260409020600101546001600160a01b031633141561143f5760405162461bcd60e51b815260206004820152601a60248201527f796f752063616e27742062696420796f7572206f776e206e66740000000000006044820152606401610c95565b60008060005b600c54811015611580576016600061145e836001613c03565b81526020810191909152604001600020600201546001600160a01b0316331480156114a8575060166000611493836001613c03565b81526020019081526020016000206001015484145b1561156e5734601660006114bd846001613c03565b815260200190815260200160002060030160008282546114dd9190613c03565b909155505060008481526015602052604081205460019450925082906016906115068487613c03565b815260200190815260200160002060030154111561156e57600084815260146020526040812080546001600160a01b0319163317905560169061154a836001613c03565b81526020808201929092526040908101600090812060030154878252601590935220555b8061157881613c82565b915050611445565b508161165d57611594600c80546001019055565b600061159f600c5490565b6040805160808101825260008781526013602090815283822060029081015484528184018a8152338587019081523460608701818152898752601686528887209751885592516001880155905192860180546001600160a01b0319166001600160a01b039094169390931790925551600390940193909355888252601590529190912054935090915082101561165b57600084815260146020908152604080832080546001600160a01b03191633179055601590915290203490555b505b61166633610e09565b50506110b36001600755565b6060600061167f600b5490565b905060008060005b838110156116d7576013600061169e836001613c03565b8152602001908152602001600020600301546000146116c5576116c2600184613c03565b92505b6116d0600182613c03565b9050611687565b5060008267ffffffffffffffff81111561170157634e487b7160e01b600052604160045260246000fd5b60405190808252806020026020018201604052801561178a57816020015b6117776040518061012001604052806000815260200160006001600160a01b03168152602001600081526020016000815260200160008152602001600081526020016000815260200160608152602001600081525090565b81526020019060019003908161171f5790505b50905060005b848110156119265760006013816117a8846001613c03565b81526020019081526020016000209050601360008360016117c99190613c03565b8152602001908152602001600020600301546000146119135760408051610120810182528254815260018301546001600160a01b031660208201526002830154918101919091526003820154606082015260048201546080820152600582015460a0820152600682015460c0820152600782018054839160e084019161184e90613c47565b80601f016020809104026020016040519081016040528092919081815260200182805461187a90613c47565b80156118c75780601f1061189c576101008083540402835291602001916118c7565b820191906000526020600020905b8154815290600101906020018083116118aa57829003601f168201915b505050505081526020016008820154815250508385815181106118fa57634e487b7160e01b600052603260045260246000fd5b6020908102919091010152611910600185613c03565b93505b5061191f600182613c03565b9050611790565b50949350505050565b600061193a60095490565b905090565b60008061194b60085490565b905082606060005b83811015611a75576010600061196a836001613c03565b8152602001908152602001600020805461198390613c47565b80601f01602080910402602001604051908101604052809291908181526020018280546119af90613c47565b80156119fc5780601f106119d1576101008083540402835291602001916119fc565b820191906000526020600020905b8154815290600101906020018083116119df57829003601f168201915b5050505050915082604051602001611a1491906137f6565b6040516020818303038152906040528051906020012082604051602001611a3b91906137f6565b604051602081830303815290604052805190602001201415611a635750600095945050505050565b80611a6d81613c82565b915050611953565b50600195945050505050565b60606000611a8e60085490565b9050600080805b83811015611af05733600e6000611aad846001613c03565b81526020810191909152604001600020600201546001600160a01b03161415611ade5781611ada81613c82565b9250505b80611ae881613c82565b915050611a95565b5060008167ffffffffffffffff811115611b1a57634e487b7160e01b600052604160045260246000fd5b604051908082528060200260200182016040528015611b8157816020015b6040805160e08101825260008082526020808301829052928201819052606082018190526080820181905260a0820181905260c08201528252600019909201910181611b385790505b50905060005b848110156119265733600e6000611b9f846001613c03565b81526020810191909152604001600020600201546001600160a01b03161415611c97576000600e81611bd2846001613c03565b81526020808201929092526040908101600020815160e0810183528154815260018201549381019390935260028101546001600160a01b0381169284019290925260ff600160a01b8304811615156060850152600160a81b8304811615156080850152600160b01b83048116151560a0850152600160b81b909204909116151560c08301528451909250849087908110611c7c57634e487b7160e01b600052603260045260246000fd5b60200260200101819052508480611c9290613c82565b955050505b80611ca181613c82565b915050611b87565b6000818152600260205260408120546001600160a01b031680610b615760405162461bcd60e51b8152602060048201526018602482015277115490cdcc8c4e881a5b9d985b1a59081d1bdad95b88125160421b6044820152606401610c95565b60006001600160a01b038216611d735760405162461bcd60e51b815260206004820152602960248201527f4552433732313a2061646472657373207a65726f206973206e6f7420612076616044820152683634b21037bbb732b960b91b6064820152608401610c95565b506001600160a01b031660009081526003602052604090205490565b60606000611d9c60085490565b905060008060005b83811015611df457600e6000611dbb836001613c03565b815260200190815260200160002060010154600014611de257611ddf600184613c03565b92505b611ded600182613c03565b9050611da4565b5060008267ffffffffffffffff811115611e1e57634e487b7160e01b600052604160045260246000fd5b604051908082528060200260200182016040528015611e8557816020015b6040805160e08101825260008082526020808301829052928201819052606082018190526080820181905260a0820181905260c08201528252600019909201910181611e3c5790505b50905060005b84811015611926576000600e81611ea3846001613c03565b81526020019081526020016000209050600e6000836001611ec49190613c03565b815260200190815260200160002060010154600014611f8a576040805160e081018252825481526001830154602082015260028301546001600160a01b0381169282019290925260ff600160a01b8304811615156060830152600160a81b8304811615156080830152600160b01b83048116151560a0830152600160b81b909204909116151560c08201528351849086908110611f7157634e487b7160e01b600052603260045260246000fd5b6020908102919091010152611f87600185613c03565b93505b50611f96600182613c03565b9050611e8b565b6000611fad600b80546001019055565b6000611fb8600b5490565b9050426000611fc78683613c03565b60408051610120810182528581523360208083019182528284018c8152606084018e8152608085018f815260a086018a815260c0870189815260e088018f815260016101008a0181905260008f8152601389529a909a2089518155975199880180546001600160a01b0319166001600160a01b03909b169a909a17909955935160028701559151600386015551600485015551600584015551600683015592518051949550919390926120819260078501929101906133cc565b50610100919091015160089091015550506000858152600e60205260409020600201805460ff60b81b1916600160b81b17905590505b949350505050565b606060018054610b7690613c47565b6000818152600e6020526040902060018101546002909101546001600160a01b031633141561213f5760405162461bcd60e51b815260206004820152601a60248201527f796f752063616e27742062757920796f7572206f776e206e66740000000000006044820152606401610c95565b6000828152600e60205260409020600201546001600160a01b0316612165813385612c2a565b61216f8184610c20565b6000838152600e6020526040808220600201805460ff60a81b1960ff60a01b1933166001600160a81b031990921691909117600160a01b1716600160a81b179055516001600160a01b038316913480156108fc02929091818181858888f193505050501580156121e3573d6000803e3d6000fd5b506121f2600980546001019055565b60006121fd60095490565b6040805160a08101825286815260208082018781526001600160a01b03808816848601908152336060860181815260016080880181815260008b8152600f89528a812099518a5596518983015593516002890180549187166001600160a01b031990921691909117905590516003909701805493511515600160a01b026001600160a81b0319909416979094169690961791909117909155898252600e909252928320909101919091559091506122b390610e09565b5050506000908152600e60205260409020600201805460ff60b01b19169055565b600061193a600c5490565b6122ea338383612e0c565b5050565b600061193a600d5490565b6060600061230660095490565b9050600080805b838110156123685733600f6000612325846001613c03565b81526020810191909152604001600020600201546001600160a01b03161415612356578161235281613c82565b9250505b8061236081613c82565b91505061230d565b5060008167ffffffffffffffff81111561239257634e487b7160e01b600052604160045260246000fd5b6040519080825280602002602001820160405280156123eb57816020015b6040805160a0810182526000808252602080830182905292820181905260608201819052608082015282526000199092019101816123b05790505b50905060005b848110156119265733600f6000612409846001613c03565b81526020810191909152604001600020600201546001600160a01b031614156124dd576000600f8161243c846001613c03565b81526020808201929092526040908101600020815160a0810183528154815260018201549381019390935260028101546001600160a01b039081169284019290925260038101549182166060840152600160a01b90910460ff161515608083015284519092508490879081106124c257634e487b7160e01b600052603260045260246000fd5b602002602001018190525084806124d890613c82565b955050505b806124e781613c82565b9150506123f1565b606060006124fc600c5490565b9050600080805b83811015612553576016600061251a836001613c03565b815260200190815260200160002060030154600014612541578161253d81613c82565b9250505b8061254b81613c82565b915050612503565b5060008167ffffffffffffffff81111561257d57634e487b7160e01b600052604160045260246000fd5b6040519080825280602002602001820160405280156125e257816020015b6125cf6040518060800160405280600081526020016000815260200160006001600160a01b03168152602001600081525090565b81526020019060019003908161259b5790505b50905060005b8481101561192657601660006125ff836001613c03565b8152602001908152602001600020600301546000146126b2576000601681612628846001613c03565b8152602080820192909252604090810160002081516080810183528154815260018201549381019390935260028101546001600160a01b03169183019190915260038101546060830152845190925084908790811061269757634e487b7160e01b600052603260045260246000fd5b602002602001018190525084806126ad90613c82565b955050505b806126bc81613c82565b9150506125e8565b6126ce3383612d8e565b6126ea5760405162461bcd60e51b8152600401610c9590613ac1565b6126f684848484612edb565b50505050565b60606127078261293f565b6000828152600660205260408120805461272090613c47565b80601f016020809104026020016040519081016040528092919081815260200182805461274c90613c47565b80156127995780601f1061276e57610100808354040283529160200191612799565b820191906000526020600020905b81548152906001019060200180831161277c57829003601f168201915b5050505050905060006127b760408051602081019091526000815290565b90508051600014156127ca575092915050565b8151156127fc5780826040516020016127e4929190613812565b60405160208183030381529060405292505050919050565b6120b784612f0e565b6013602052600090815260409020805460018201546002830154600384015460048501546005860154600687015460078801805497986001600160a01b0390971697959694959394929391929161285b90613c47565b80601f016020809104026020016040519081016040528092919081815260200182805461288790613c47565b80156128d45780601f106128a9576101008083540402835291602001916128d4565b820191906000526020600020905b8154815290600101906020018083116128b757829003601f168201915b5050505050908060080154905089565b600061193a60085490565b60006001600160e01b031982166380ac58cd60e01b148061292057506001600160e01b03198216635b5e139f60e01b145b80610b6157506301ffc9a760e01b6001600160e01b0319831614610b61565b6000818152600260205260409020546001600160a01b03166110b35760405162461bcd60e51b8152602060048201526018602482015277115490cdcc8c4e881a5b9d985b1a59081d1bdad95b88125160421b6044820152606401610c95565b600081815260046020526040902080546001600160a01b0319166001600160a01b03841690811790915581906129d382611ca9565b6001600160a01b03167f8c5be1e5ebec7d5bd14f71427d1e84f3dd0314c0f7b2291e5b200ac8c7c3b92560405160405180910390a45050565b60026007541415612a5f5760405162461bcd60e51b815260206004820152601f60248201527f5265656e7472616e637947756172643a207265656e7472616e742063616c6c006044820152606401610c95565b6002600755565b6122ea828260405180602001604052806000815250612f81565b6000828152600260205260409020546001600160a01b0316612afb5760405162461bcd60e51b815260206004820152602e60248201527f45524337323155524953746f726167653a2055524920736574206f66206e6f6e60448201526d32bc34b9ba32b73a103a37b5b2b760911b6064820152608401610c95565b60008281526006602090815260409091208251612b1a928401906133cc565b506040518281527ff8e1a15aba9398e019f0b49df1a4fde98ee17ae345cb5f6b5e2c27f5033e8ce79060200160405180910390a15050565b6040805160e0810182528281526000602080830182815233848601818152606086018581526080870186815260a0880187815260c089018881528b8952600e909752989096209651875592516001870155516002909501805492519451965193511515600160b81b0260ff60b81b19941515600160b01b0260ff60b01b19981515600160a81b029890981661ffff60a81b19961515600160a01b026001600160a81b03199095166001600160a01b0398909816979097179390931794909416949094179490941716929092179091556110b390610e09565b826001600160a01b0316612c3d82611ca9565b6001600160a01b031614612c635760405162461bcd60e51b8152600401610c9590613b60565b6001600160a01b038216612cc55760405162461bcd60e51b8152602060048201526024808201527f4552433732313a207472616e7366657220746f20746865207a65726f206164646044820152637265737360e01b6064820152608401610c95565b826001600160a01b0316612cd882611ca9565b6001600160a01b031614612cfe5760405162461bcd60e51b8152600401610c9590613b60565b600081815260046020908152604080832080546001600160a01b03199081169091556001600160a01b0387811680865260038552838620805460001901905590871680865283862080546001019055868652600290945282852080549092168417909155905184937fddf252ad1be2c89b69c2b068fc378daa952ba7f163c4a11628f55a4df523b3ef91a4505050565b600080612d9a83611ca9565b9050806001600160a01b0316846001600160a01b03161480612de157506001600160a01b0380821660009081526005602090815260408083209388168352929052205460ff165b806120b75750836001600160a01b0316612dfa84610bf9565b6001600160a01b031614949350505050565b816001600160a01b0316836001600160a01b03161415612e6e5760405162461bcd60e51b815260206004820152601960248201527f4552433732313a20617070726f766520746f2063616c6c6572000000000000006044820152606401610c95565b6001600160a01b03838116600081815260056020908152604080832094871680845294825291829020805460ff191686151590811790915591519182527f17307eab39ab6107e8899845ad3d59bd9653f200f220920489ca2b5937696c31910160405180910390a3505050565b612ee6848484612c2a565b612ef284848484612fb4565b6126f65760405162461bcd60e51b8152600401610c9590613b0e565b6060612f198261293f565b6000612f3060408051602081019091526000815290565b90506000815111612f505760405180602001604052806000815250611110565b80612f5a846130be565b604051602001612f6b929190613812565b6040516020818303038152906040529392505050565b612f8b8383613169565b612f986000848484612fb4565b610d365760405162461bcd60e51b8152600401610c9590613b0e565b60006001600160a01b0384163b156130b657604051630a85bd0160e11b81526001600160a01b0385169063150b7a0290612ff8903390899088908890600401613841565b602060405180830381600087803b15801561301257600080fd5b505af1925050508015613042575060408051601f3d908101601f1916820190925261303f91810190613695565b60015b61309c573d808015613070576040519150601f19603f3d011682016040523d82523d6000602084013e613075565b606091505b5080516130945760405162461bcd60e51b8152600401610c9590613b0e565b805181602001fd5b6001600160e01b031916630a85bd0160e11b1490506120b7565b5060016120b7565b606060006130cb836132f4565b600101905060008167ffffffffffffffff8111156130f957634e487b7160e01b600052604160045260246000fd5b6040519080825280601f01601f191660200182016040528015613123576020820181803683370190505b5090508181016020015b600019016f181899199a1a9b1b9c1cb0b131b232b360811b600a86061a8153600a850494508461315c57613161565b61312d565b509392505050565b6001600160a01b0382166131bf5760405162461bcd60e51b815260206004820181905260248201527f4552433732313a206d696e7420746f20746865207a65726f20616464726573736044820152606401610c95565b6000818152600260205260409020546001600160a01b0316156132245760405162461bcd60e51b815260206004820152601c60248201527f4552433732313a20746f6b656e20616c7265616479206d696e746564000000006044820152606401610c95565b6000818152600260205260409020546001600160a01b0316156132895760405162461bcd60e51b815260206004820152601c60248201527f4552433732313a20746f6b656e20616c7265616479206d696e746564000000006044820152606401610c95565b6001600160a01b038216600081815260036020908152604080832080546001019055848352600290915280822080546001600160a01b0319168417905551839291907fddf252ad1be2c89b69c2b068fc378daa952ba7f163c4a11628f55a4df523b3ef908290a45050565b60008072184f03e93ff9f4daa797ed6e38ed64bf6a1f0160401b83106133335772184f03e93ff9f4daa797ed6e38ed64bf6a1f0160401b830492506040015b6d04ee2d6d415b85acef8100000000831061335f576d04ee2d6d415b85acef8100000000830492506020015b662386f26fc10000831061337d57662386f26fc10000830492506010015b6305f5e1008310613395576305f5e100830492506008015b61271083106133a957612710830492506004015b606483106133bb576064830492506002015b600a8310610b615760010192915050565b8280546133d890613c47565b90600052602060002090601f0160209004810192826133fa5760008555613440565b82601f1061341357805160ff1916838001178555613440565b82800160010185558215613440579182015b82811115613440578251825591602001919060010190613425565b5061344c929150613450565b5090565b5b8082111561344c5760008155600101613451565b600067ffffffffffffffff8084111561348057613480613cb3565b604051601f8501601f19908116603f011681019082821181831017156134a8576134a8613cb3565b816040528093508581528686860111156134c157600080fd5b858560208301376000602087830101525050509392505050565b80356001600160a01b03811681146134f257600080fd5b919050565b600082601f830112613507578081fd5b61111083833560208501613465565b600060208284031215613527578081fd5b611110826134db565b60008060408385031215613542578081fd5b61354b836134db565b9150613559602084016134db565b90509250929050565b600080600060608486031215613576578081fd5b61357f846134db565b925061358d602085016134db565b9150604084013590509250925092565b600080600080608085870312156135b2578081fd5b6135bb856134db565b93506135c9602086016134db565b925060408501359150606085013567ffffffffffffffff8111156135eb578182fd5b8501601f810187136135fb578182fd5b61360a87823560208401613465565b91505092959194509250565b60008060408385031215613628578182fd5b613631836134db565b915060208301358015158114613645578182fd5b809150509250929050565b60008060408385031215613662578182fd5b61366b836134db565b946020939093013593505050565b60006020828403121561368a578081fd5b813561111081613cc9565b6000602082840312156136a6578081fd5b815161111081613cc9565b6000602082840312156136c2578081fd5b813567ffffffffffffffff8111156136d8578182fd5b6120b7848285016134f7565b600080604083850312156136f6578182fd5b823567ffffffffffffffff8082111561370d578384fd5b613719868387016134f7565b9350602085013591508082111561372e578283fd5b5061373b858286016134f7565b9150509250929050565b600060208284031215613756578081fd5b5035919050565b6000806040838503121561376f578182fd5b50508035926020909101359150565b60008060008060808587031215613793578384fd5b843593506020850135925060408501359150606085013567ffffffffffffffff8111156137be578182fd5b61360a878288016134f7565b600081518084526137e2816020860160208601613c1b565b601f01601f19169290920160200192915050565b60008251613808818460208701613c1b565b9190910192915050565b60008351613824818460208801613c1b565b835190830190613838818360208801613c1b565b01949350505050565b6001600160a01b0385811682528416602082015260408101839052608060608201819052600090613874908301846137ca565b9695505050505050565b602080825282518282018190526000919060409081850190868401855b828110156138de578151805185528681015187860152858101516001600160a01b031686860152606090810151908501526080909301929085019060010161389b565b5091979650505050505050565b602080825282518282018190526000919060409081850190868401855b828110156138de578151805185528681015187860152858101516001600160a01b03908116878701526060808301519091169086015260809081015115159085015260a09093019290850190600101613908565b602080825282518282018190526000919060409081850190868401855b828110156138de578151805185528681015187860152858101516001600160a01b03168686015260608082015115159086015260808082015115159086015260a08082015115159086015260c09081015115159085015260e09093019290850190600101613979565b60006020808301818452808551808352604092508286019150828160051b870101848801865b83811015613aa057603f19898403018552815180518452878101516001600160a01b0316888501528681015187850152606080820151908501526080808201519085015260a0808201519085015260c0808201519085015260e0808201516101208287018190529190613a7d838801826137ca565b610100948501519790940196909652505094870194925090860190600101613a08565b509098975050505050505050565b60208152600061111060208301846137ca565b6020808252602d908201527f4552433732313a2063616c6c6572206973206e6f7420746f6b656e206f776e6560408201526c1c881bdc88185c1c1c9bdd9959609a1b606082015260800190565b60208082526032908201527f4552433732313a207472616e7366657220746f206e6f6e20455243373231526560408201527131b2b4bb32b91034b6b83632b6b2b73a32b960711b606082015260800190565b60208082526025908201527f4552433732313a207472616e736665722066726f6d20696e636f72726563742060408201526437bbb732b960d91b606082015260800190565b60006101208b835260018060a01b038b1660208401528960408401528860608401528760808401528660a08401528560c08401528060e0840152613beb818401866137ca565b915050826101008301529a9950505050505050505050565b60008219821115613c1657613c16613c9d565b500190565b60005b83811015613c36578181015183820152602001613c1e565b838111156126f65750506000910152565b600181811c90821680613c5b57607f821691505b60208210811415613c7c57634e487b7160e01b600052602260045260246000fd5b50919050565b6000600019821415613c9657613c96613c9d565b5060010190565b634e487b7160e01b600052601160045260246000fd5b634e487b7160e01b600052604160045260246000fd5b6001600160e01b0319811681146110b357600080fdfea2646970667358221220cf0f3203c1dc37c74f00366667947a86a239be4c04d5aadc778a51e55bfa2b0764736f6c63430008040033",
  "linkReferences": {},
  "deployedLinkReferences": {}
}