{
  "_format": "hh-sol-artifact-1",
  "contractName": "PolygonNFTMarketplace",
  "sourceName": "contracts/PolygonNFTMarketplace.sol",
  "abi": [
    {
      "inputs": [],
      "stateMutability": "nonpayable",
      "type": "constructor"
    },
    {
      "anonymous": false,
      "inputs": [
        {
          "indexed": true,
          "internalType": "address",
          "name": "owner",
          "type": "address"
        },
        {
          "indexed": true,
          "internalType": "address",
          "name": "approved",
          "type": "address"
        },
        {
          "indexed": true,
          "internalType": "uint256",
          "name": "tokenId",
          "type": "uint256"
        }
      ],
      "name": "Approval",
      "type": "event"
    },
    {
      "anonymous": false,
      "inputs": [
        {
          "indexed": true,
          "internalType": "address",
          "name": "owner",
          "type": "address"
        },
        {
          "indexed": true,
          "internalType": "address",
          "name": "operator",
          "type": "address"
        },
        {
          "indexed": false,
          "internalType": "bool",
          "name": "approved",
          "type": "bool"
        }
      ],
      "name": "ApprovalForAll",
      "type": "event"
    },
    {
      "anonymous": false,
      "inputs": [
        {
          "indexed": false,
          "internalType": "uint256",
          "name": "_fromTokenId",
          "type": "uint256"
        },
        {
          "indexed": false,
          "internalType": "uint256",
          "name": "_toTokenId",
          "type": "uint256"
        }
      ],
      "name": "BatchMetadataUpdate",
      "type": "event"
    },
    {
      "anonymous": false,
      "inputs": [
        {
          "indexed": false,
          "internalType": "uint256",
          "name": "_tokenId",
          "type": "uint256"
        }
      ],
      "name": "MetadataUpdate",
      "type": "event"
    },
    {
      "anonymous": false,
      "inputs": [
        {
          "indexed": true,
          "internalType": "address",
          "name": "from",
          "type": "address"
        },
        {
          "indexed": true,
          "internalType": "address",
          "name": "to",
          "type": "address"
        },
        {
          "indexed": true,
          "internalType": "uint256",
          "name": "tokenId",
          "type": "uint256"
        }
      ],
      "name": "Transfer",
      "type": "event"
    },
    {
      "inputs": [],
      "name": "BuyCount",
      "outputs": [
        {
          "internalType": "uint256",
          "name": "_value",
          "type": "uint256"
        }
      ],
      "stateMutability": "view",
      "type": "function"
    },
    {
      "inputs": [
        {
          "internalType": "string",
          "name": "tokenURI",
          "type": "string"
        }
      ],
      "name": "CreateToken",
      "outputs": [
        {
          "internalType": "uint256",
          "name": "",
          "type": "uint256"
        }
      ],
      "stateMutability": "payable",
      "type": "function"
    },
    {
      "inputs": [
        {
          "internalType": "uint256",
          "name": "price",
          "type": "uint256"
        },
        {
          "internalType": "uint256",
          "name": "id",
          "type": "uint256"
        }
      ],
      "name": "ListNFT",
      "outputs": [],
      "stateMutability": "nonpayable",
      "type": "function"
    },
    {
      "inputs": [],
      "name": "STATUS_DONE",
      "outputs": [
        {
          "internalType": "uint8",
          "name": "",
          "type": "uint8"
        }
      ],
      "stateMutability": "view",
      "type": "function"
    },
    {
      "inputs": [],
      "name": "STATUS_OPEN",
      "outputs": [
        {
          "internalType": "uint8",
          "name": "",
          "type": "uint8"
        }
      ],
      "stateMutability": "view",
      "type": "function"
    },
    {
      "inputs": [],
      "name": "SoldCount",
      "outputs": [
        {
          "internalType": "uint256",
          "name": "_value",
          "type": "uint256"
        }
      ],
      "stateMutability": "view",
      "type": "function"
    },
    {
      "inputs": [],
      "name": "TokenCount",
      "outputs": [
        {
          "internalType": "uint256",
          "name": "_value",
          "type": "uint256"
        }
      ],
      "stateMutability": "view",
      "type": "function"
    },
    {
      "inputs": [
        {
          "internalType": "address",
          "name": "to",
          "type": "address"
        },
        {
          "internalType": "uint256",
          "name": "tokenId",
          "type": "uint256"
        }
      ],
      "name": "approve",
      "outputs": [],
      "stateMutability": "nonpayable",
      "type": "function"
    },
    {
      "inputs": [
        {
          "internalType": "address",
          "name": "owner",
          "type": "address"
        }
      ],
      "name": "balanceOf",
      "outputs": [
        {
          "internalType": "uint256",
          "name": "",
          "type": "uint256"
        }
      ],
      "stateMutability": "view",
      "type": "function"
    },
    {
      "inputs": [
        {
          "internalType": "uint256",
          "name": "listingId",
          "type": "uint256"
        }
      ],
      "name": "bid",
      "outputs": [],
      "stateMutability": "payable",
      "type": "function"
    },
    {
      "inputs": [],
      "name": "biddingCounter",
      "outputs": [
        {
          "internalType": "uint256",
          "name": "_value",
          "type": "uint256"
        }
      ],
      "stateMutability": "view",
      "type": "function"
    },
    {
      "inputs": [
        {
          "internalType": "uint256",
          "name": "",
          "type": "uint256"
        },
        {
          "internalType": "address",
          "name": "",
          "type": "address"
        }
      ],
      "name": "bids",
      "outputs": [
        {
          "internalType": "uint256",
          "name": "",
          "type": "uint256"
        }
      ],
      "stateMutability": "view",
      "type": "function"
    },
    {
      "inputs": [
        {
          "internalType": "uint256",
          "name": "listingId",
          "type": "uint256"
        }
      ],
      "name": "completeAuction",
      "outputs": [],
      "stateMutability": "payable",
      "type": "function"
    },
    {
      "inputs": [
        {
          "internalType": "uint256",
          "name": "price",
          "type": "uint256"
        },
        {
          "internalType": "uint256",
          "name": "tokenId",
          "type": "uint256"
        },
        {
          "internalType": "uint256",
          "name": "deadline",
          "type": "uint256"
        }
      ],
      "name": "createAuctionListing",
      "outputs": [
        {
          "internalType": "uint256",
          "name": "",
          "type": "uint256"
        }
      ],
      "stateMutability": "nonpayable",
      "type": "function"
    },
    {
      "inputs": [
        {
          "internalType": "uint256",
          "name": "tokenId",
          "type": "uint256"
        }
      ],
      "name": "executeSale",
      "outputs": [],
      "stateMutability": "payable",
      "type": "function"
    },
    {
      "inputs": [],
      "name": "getAllBiddedNfts",
      "outputs": [
        {
          "components": [
            {
              "internalType": "uint256",
              "name": "biddingId",
              "type": "uint256"
            },
            {
              "internalType": "address payable",
              "name": "seller",
              "type": "address"
            },
            {
              "internalType": "uint256",
              "name": "tokenId",
              "type": "uint256"
            },
            {
              "internalType": "uint256",
              "name": "price",
              "type": "uint256"
            },
            {
              "internalType": "uint256",
              "name": "netPrice",
              "type": "uint256"
            },
            {
              "internalType": "uint256",
              "name": "startAt",
              "type": "uint256"
            },
            {
              "internalType": "uint256",
              "name": "deadline",
              "type": "uint256"
            },
            {
              "internalType": "uint8",
              "name": "status",
              "type": "uint8"
            }
          ],
          "internalType": "struct PolygonNFTMarketplace.Listing[]",
          "name": "",
          "type": "tuple[]"
        }
      ],
      "stateMutability": "view",
      "type": "function"
    },
    {
      "inputs": [],
      "name": "getAllBiddingWithListingID",
      "outputs": [
        {
          "components": [
            {
              "internalType": "uint256",
              "name": "tokenId",
              "type": "uint256"
            },
            {
              "internalType": "uint256",
              "name": "biddingId",
              "type": "uint256"
            },
            {
              "internalType": "address",
              "name": "bidder",
              "type": "address"
            },
            {
              "internalType": "uint256",
              "name": "price",
              "type": "uint256"
            }
          ],
          "internalType": "struct PolygonNFTMarketplace.Bidding[]",
          "name": "",
          "type": "tuple[]"
        }
      ],
      "stateMutability": "view",
      "type": "function"
    },
    {
      "inputs": [],
      "name": "getAllNfts",
      "outputs": [
        {
          "components": [
            {
              "internalType": "uint256",
              "name": "tokenId",
              "type": "uint256"
            },
            {
              "internalType": "uint256",
              "name": "price",
              "type": "uint256"
            },
            {
              "internalType": "address payable",
              "name": "owner",
              "type": "address"
            },
            {
              "internalType": "bool",
              "name": "NFTsold",
              "type": "bool"
            },
            {
              "internalType": "bool",
              "name": "NFTbought",
              "type": "bool"
            }
          ],
          "internalType": "struct PolygonNFTMarketplace.ListedToken[]",
          "name": "",
          "type": "tuple[]"
        }
      ],
      "stateMutability": "view",
      "type": "function"
    },
    {
      "inputs": [
        {
          "internalType": "uint256",
          "name": "tokenId",
          "type": "uint256"
        }
      ],
      "name": "getApproved",
      "outputs": [
        {
          "internalType": "address",
          "name": "",
          "type": "address"
        }
      ],
      "stateMutability": "view",
      "type": "function"
    },
    {
      "inputs": [],
      "name": "getMyNFTs",
      "outputs": [
        {
          "components": [
            {
              "internalType": "uint256",
              "name": "tokenId",
              "type": "uint256"
            },
            {
              "internalType": "uint256",
              "name": "price",
              "type": "uint256"
            },
            {
              "internalType": "address payable",
              "name": "owner",
              "type": "address"
            },
            {
              "internalType": "bool",
              "name": "NFTsold",
              "type": "bool"
            },
            {
              "internalType": "bool",
              "name": "NFTbought",
              "type": "bool"
            }
          ],
          "internalType": "struct PolygonNFTMarketplace.ListedToken[]",
          "name": "",
          "type": "tuple[]"
        }
      ],
      "stateMutability": "view",
      "type": "function"
    },
    {
      "inputs": [],
      "name": "getMySoldNFTs",
      "outputs": [
        {
          "components": [
            {
              "internalType": "uint256",
              "name": "tokenId",
              "type": "uint256"
            },
            {
              "internalType": "uint256",
              "name": "price",
              "type": "uint256"
            },
            {
              "internalType": "address payable",
              "name": "owner",
              "type": "address"
            },
            {
              "internalType": "address",
              "name": "newOwner",
              "type": "address"
            },
            {
              "internalType": "bool",
              "name": "NFTsold",
              "type": "bool"
            }
          ],
          "internalType": "struct PolygonNFTMarketplace.ItemsSold[]",
          "name": "",
          "type": "tuple[]"
        }
      ],
      "stateMutability": "view",
      "type": "function"
    },
    {
      "inputs": [],
      "name": "getTotalMintedTokens",
      "outputs": [
        {
          "internalType": "uint256",
          "name": "",
          "type": "uint256"
        }
      ],
      "stateMutability": "view",
      "type": "function"
    },
    {
      "inputs": [],
      "name": "getTotalSoldTokens",
      "outputs": [
        {
          "internalType": "uint256",
          "name": "",
          "type": "uint256"
        }
      ],
      "stateMutability": "view",
      "type": "function"
    },
    {
      "inputs": [
        {
          "internalType": "uint256",
          "name": "",
          "type": "uint256"
        }
      ],
      "name": "highestBidder",
      "outputs": [
        {
          "internalType": "address",
          "name": "",
          "type": "address"
        }
      ],
      "stateMutability": "view",
      "type": "function"
    },
    {
      "inputs": [],
      "name": "highestBidding",
      "outputs": [
        {
          "internalType": "uint256",
          "name": "",
          "type": "uint256"
        }
      ],
      "stateMutability": "view",
      "type": "function"
    },
    {
      "inputs": [
        {
          "internalType": "uint256",
          "name": "",
          "type": "uint256"
        }
      ],
      "name": "highestBiddingAmount",
      "outputs": [
        {
          "internalType": "uint256",
          "name": "",
          "type": "uint256"
        }
      ],
      "stateMutability": "view",
      "type": "function"
    },
    {
      "inputs": [
        {
          "internalType": "uint256",
          "name": "",
          "type": "uint256"
        }
      ],
      "name": "idToBiddedToken",
      "outputs": [
        {
          "internalType": "uint256",
          "name": "tokenId",
          "type": "uint256"
        },
        {
          "internalType": "uint256",
          "name": "biddingId",
          "type": "uint256"
        },
        {
          "internalType": "address",
          "name": "bidder",
          "type": "address"
        },
        {
          "internalType": "uint256",
          "name": "price",
          "type": "uint256"
        }
      ],
      "stateMutability": "view",
      "type": "function"
    },
    {
      "inputs": [
        {
          "internalType": "uint256",
          "name": "",
          "type": "uint256"
        }
      ],
      "name": "idToListedToken",
      "outputs": [
        {
          "internalType": "uint256",
          "name": "tokenId",
          "type": "uint256"
        },
        {
          "internalType": "uint256",
          "name": "price",
          "type": "uint256"
        },
        {
          "internalType": "address payable",
          "name": "owner",
          "type": "address"
        },
        {
          "internalType": "bool",
          "name": "NFTsold",
          "type": "bool"
        },
        {
          "internalType": "bool",
          "name": "NFTbought",
          "type": "bool"
        }
      ],
      "stateMutability": "view",
      "type": "function"
    },
    {
      "inputs": [
        {
          "internalType": "uint256",
          "name": "",
          "type": "uint256"
        }
      ],
      "name": "idToSoldItems",
      "outputs": [
        {
          "internalType": "uint256",
          "name": "tokenId",
          "type": "uint256"
        },
        {
          "internalType": "uint256",
          "name": "price",
          "type": "uint256"
        },
        {
          "internalType": "address payable",
          "name": "owner",
          "type": "address"
        },
        {
          "internalType": "address",
          "name": "newOwner",
          "type": "address"
        },
        {
          "internalType": "bool",
          "name": "NFTsold",
          "type": "bool"
        }
      ],
      "stateMutability": "view",
      "type": "function"
    },
    {
      "inputs": [
        {
          "internalType": "address",
          "name": "owner",
          "type": "address"
        },
        {
          "internalType": "address",
          "name": "operator",
          "type": "address"
        }
      ],
      "name": "isApprovedForAll",
      "outputs": [
        {
          "internalType": "bool",
          "name": "",
          "type": "bool"
        }
      ],
      "stateMutability": "view",
      "type": "function"
    },
    {
      "inputs": [
        {
          "internalType": "uint256",
          "name": "id",
          "type": "uint256"
        }
      ],
      "name": "isAuctionExpired",
      "outputs": [
        {
          "internalType": "bool",
          "name": "",
          "type": "bool"
        }
      ],
      "stateMutability": "view",
      "type": "function"
    },
    {
      "inputs": [
        {
          "internalType": "uint256",
          "name": "id",
          "type": "uint256"
        }
      ],
      "name": "isAuctionOpen",
      "outputs": [
        {
          "internalType": "bool",
          "name": "",
          "type": "bool"
        }
      ],
      "stateMutability": "view",
      "type": "function"
    },
    {
      "inputs": [],
      "name": "listingCounter",
      "outputs": [
        {
          "internalType": "uint256",
          "name": "_value",
          "type": "uint256"
        }
      ],
      "stateMutability": "view",
      "type": "function"
    },
    {
      "inputs": [
        {
          "internalType": "uint256",
          "name": "",
          "type": "uint256"
        }
      ],
      "name": "listings",
      "outputs": [
        {
          "internalType": "uint256",
          "name": "biddingId",
          "type": "uint256"
        },
        {
          "internalType": "address payable",
          "name": "seller",
          "type": "address"
        },
        {
          "internalType": "uint256",
          "name": "tokenId",
          "type": "uint256"
        },
        {
          "internalType": "uint256",
          "name": "price",
          "type": "uint256"
        },
        {
          "internalType": "uint256",
          "name": "netPrice",
          "type": "uint256"
        },
        {
          "internalType": "uint256",
          "name": "startAt",
          "type": "uint256"
        },
        {
          "internalType": "uint256",
          "name": "deadline",
          "type": "uint256"
        },
        {
          "internalType": "uint8",
          "name": "status",
          "type": "uint8"
        }
      ],
      "stateMutability": "view",
      "type": "function"
    },
    {
      "inputs": [],
      "name": "minAuctionIncrement",
      "outputs": [
        {
          "internalType": "uint256",
          "name": "",
          "type": "uint256"
        }
      ],
      "stateMutability": "view",
      "type": "function"
    },
    {
      "inputs": [],
      "name": "name",
      "outputs": [
        {
          "internalType": "string",
          "name": "",
          "type": "string"
        }
      ],
      "stateMutability": "view",
      "type": "function"
    },
    {
      "inputs": [
        {
          "internalType": "uint256",
          "name": "tokenId",
          "type": "uint256"
        }
      ],
      "name": "ownerOf",
      "outputs": [
        {
          "internalType": "address",
          "name": "",
          "type": "address"
        }
      ],
      "stateMutability": "view",
      "type": "function"
    },
    {
      "inputs": [
        {
          "internalType": "address",
          "name": "from",
          "type": "address"
        },
        {
          "internalType": "address",
          "name": "to",
          "type": "address"
        },
        {
          "internalType": "uint256",
          "name": "tokenId",
          "type": "uint256"
        }
      ],
      "name": "safeTransferFrom",
      "outputs": [],
      "stateMutability": "nonpayable",
      "type": "function"
    },
    {
      "inputs": [
        {
          "internalType": "address",
          "name": "from",
          "type": "address"
        },
        {
          "internalType": "address",
          "name": "to",
          "type": "address"
        },
        {
          "internalType": "uint256",
          "name": "tokenId",
          "type": "uint256"
        },
        {
          "internalType": "bytes",
          "name": "data",
          "type": "bytes"
        }
      ],
      "name": "safeTransferFrom",
      "outputs": [],
      "stateMutability": "nonpayable",
      "type": "function"
    },
    {
      "inputs": [
        {
          "internalType": "address",
          "name": "operator",
          "type": "address"
        },
        {
          "internalType": "bool",
          "name": "approved",
          "type": "bool"
        }
      ],
      "name": "setApprovalForAll",
      "outputs": [],
      "stateMutability": "nonpayable",
      "type": "function"
    },
    {
      "inputs": [
        {
          "internalType": "bytes4",
          "name": "interfaceId",
          "type": "bytes4"
        }
      ],
      "name": "supportsInterface",
      "outputs": [
        {
          "internalType": "bool",
          "name": "",
          "type": "bool"
        }
      ],
      "stateMutability": "view",
      "type": "function"
    },
    {
      "inputs": [],
      "name": "symbol",
      "outputs": [
        {
          "internalType": "string",
          "name": "",
          "type": "string"
        }
      ],
      "stateMutability": "view",
      "type": "function"
    },
    {
      "inputs": [
        {
          "internalType": "uint256",
          "name": "tokenId",
          "type": "uint256"
        }
      ],
      "name": "tokenURI",
      "outputs": [
        {
          "internalType": "string",
          "name": "",
          "type": "string"
        }
      ],
      "stateMutability": "view",
      "type": "function"
    },
    {
      "inputs": [
        {
          "internalType": "address",
          "name": "from",
          "type": "address"
        },
        {
          "internalType": "address",
          "name": "to",
          "type": "address"
        },
        {
          "internalType": "uint256",
          "name": "tokenId",
          "type": "uint256"
        }
      ],
      "name": "transferFrom",
      "outputs": [],
      "stateMutability": "nonpayable",
      "type": "function"
    },
    {
      "inputs": [
        {
          "internalType": "uint256",
          "name": "listingId",
          "type": "uint256"
        }
      ],
      "name": "withdrawBid",
      "outputs": [],
      "stateMutability": "payable",
      "type": "function"
    }
  ],
  "bytecode": "0x6080604052600a600f5560006014553480156200001b57600080fd5b50604080518082018252601581527f506f6c79676f6e4e46544d61726b6574706c61636500000000000000000000006020808301918252835180850190945260048452634441524b60e01b9084015281519192916200007d91600091620000a1565b50805162000093906001906020840190620000a1565b505060016007555062000184565b828054620000af9062000147565b90600052602060002090601f016020900481019282620000d357600085556200011e565b82601f10620000ee57805160ff19168380011785556200011e565b828001600101855582156200011e579182015b828111156200011e57825182559160200191906001019062000101565b506200012c92915062000130565b5090565b5b808211156200012c576000815560010162000131565b600181811c908216806200015c57607f821691505b602082108114156200017e57634e487b7160e01b600052602260045260246000fd5b50919050565b61339b80620001946000396000f3fe6080604052600436106102725760003560e01c80636b8c91cb1161014f578063adc2524c116100c1578063e57a497a1161007a578063e57a497a146108b8578063e877d3f81461094b578063e985e9c514610978578063edf2ebcc146109c1578063f67a769c146109d8578063fad266fe146109ed57600080fd5b8063adc2524c14610754578063b27dce8114610783578063b820a6d1146107a5578063b88d4fde146107c7578063c87b56dd146107e7578063de74e57b1461080757600080fd5b8063740db28011610113578063740db280146106ca578063903405bb146106df57806395d89b41146106f55780639b1225c41461070a578063a22cb4651461071d578063a4fdb6351461073d57600080fd5b80636b8c91cb146105eb5780636c2c9c7d14610668578063708d4d351461067f57806370a0823114610695578063732e8d73146106b557600080fd5b806336ad658f116101e85780634945dcdd116101ac5780634945dcdd1461053f5780634c22f3811461056157806359be5e4514610581578063629cb2e4146105965780636352211e146105b857806366b126e6146105d857600080fd5b806336ad658f146104795780633f1ffcec1461049e57806342842e0e146104d6578063451df52e146104f6578063454a2ab31461052c57600080fd5b80630eaaf4c81161023a5780630eaaf4c8146103485780631389b1171461035b57806321b628861461038e57806323b872dd146103a157806324f8515b146103c157806333024100146103e857600080fd5b806301ffc9a71461027757806306fdde03146102ac578063081812fc146102ce578063095ea7b3146103065780630ad4862814610328575b600080fd5b34801561028357600080fd5b50610297610292366004612e1e565b610a04565b60405190151581526020015b60405180910390f35b3480156102b857600080fd5b506102c1610a2f565b6040516102a39190613192565b3480156102da57600080fd5b506102ee6102e9366004612e9c565b610ac1565b6040516001600160a01b0390911681526020016102a3565b34801561031257600080fd5b50610326610321366004612df5565b610ae8565b005b34801561033457600080fd5b50610297610343366004612e9c565b610c03565b610326610356366004612e9c565b610c3a565b34801561036757600080fd5b50610297610376366004612e9c565b60009081526010602052604090206006015442101590565b61032661039c366004612e9c565b610dd8565b3480156103ad57600080fd5b506103266103bc366004612d07565b610f9d565b3480156103cd57600080fd5b506103d6600181565b60405160ff90911681526020016102a3565b3480156103f457600080fd5b50610443610403366004612e9c565b600e602052600090815260409020805460018201546002830154600390930154919290916001600160a01b0391821691811690600160a01b900460ff1685565b6040805195865260208601949094526001600160a01b03928316938501939093521660608301521515608082015260a0016102a3565b34801561048557600080fd5b506008546104909081565b6040519081526020016102a3565b3480156104aa57600080fd5b506104906104b9366004612eb4565b601160209081526000928352604080842090915290825290205481565b3480156104e257600080fd5b506103266104f1366004612d07565b610fce565b34801561050257600080fd5b506102ee610511366004612e9c565b6012602052600090815260409020546001600160a01b031681565b61032661053a366004612e9c565b610fe9565b34801561054b57600080fd5b506105546111da565b6040516102a39190613106565b34801561056d57600080fd5b5061049061057c366004612ef7565b611400565b34801561058d57600080fd5b506104906114e3565b3480156105a257600080fd5b506105ab6114f3565b6040516102a39190613098565b3480156105c457600080fd5b506102ee6105d3366004612e9c565b6116ed565b6104906105e6366004612e56565b61174d565b3480156105f757600080fd5b50610639610606366004612e9c565b6015602052600090815260409020805460018201546002830154600390930154919290916001600160a01b039091169084565b6040516102a3949392919093845260208401929092526001600160a01b03166040830152606082015260800190565b34801561067457600080fd5b50600b546104909081565b34801561068b57600080fd5b50610490600f5481565b3480156106a157600080fd5b506104906106b0366004612cbb565b61180c565b3480156106c157600080fd5b506105ab611892565b3480156106d657600080fd5b506103d6600081565b3480156106eb57600080fd5b5061049060145481565b34801561070157600080fd5b506102c1611a72565b610326610718366004612e9c565b611a81565b34801561072957600080fd5b50610326610738366004612dbb565b611c59565b34801561074957600080fd5b50600c546104909081565b34801561076057600080fd5b5061032661076f366004612ed6565b6000908152600d6020526040902060010155565b34801561078f57600080fd5b50610798611c68565b6040516102a39190613027565b3480156107b157600080fd5b506107ba611e5e565b6040516102a39190612fba565b3480156107d357600080fd5b506103266107e2366004612d42565b612033565b3480156107f357600080fd5b506102c1610802366004612e9c565b61206b565b34801561081357600080fd5b50610872610822366004612e9c565b6010602052600090815260409020805460018201546002830154600384015460048501546005860154600687015460079097015495966001600160a01b0390951695939492939192909160ff1688565b604080519889526001600160a01b039097166020890152958701949094526060860192909252608085015260a084015260c083015260ff1660e0820152610100016102a3565b3480156108c457600080fd5b506109136108d3366004612e9c565b600d602052600090815260409020805460018201546002909201549091906001600160a01b0381169060ff600160a01b8204811691600160a81b90041685565b6040805195865260208601949094526001600160a01b039092169284019290925290151560608301521515608082015260a0016102a3565b34801561095757600080fd5b50610490610966366004612e9c565b60136020526000908152604090205481565b34801561098457600080fd5b50610297610993366004612cd5565b6001600160a01b03918216600090815260056020908152604080832093909416825291909152205460ff1690565b3480156109cd57600080fd5b506009546104909081565b3480156109e457600080fd5b5061049061217c565b3480156109f957600080fd5b50600a546104909081565b60006001600160e01b03198216632483248360e11b1480610a295750610a2982612187565b92915050565b606060008054610a3e906132cd565b80601f0160208091040260200160405190810160405280929190818152602001828054610a6a906132cd565b8015610ab75780601f10610a8c57610100808354040283529160200191610ab7565b820191906000526020600020905b815481529060010190602001808311610a9a57829003601f168201915b5050505050905090565b6000610acc826121d7565b506000908152600460205260409020546001600160a01b031690565b6000610af3826116ed565b9050806001600160a01b0316836001600160a01b03161415610b665760405162461bcd60e51b815260206004820152602160248201527f4552433732313a20617070726f76616c20746f2063757272656e74206f776e656044820152603960f91b60648201526084015b60405180910390fd5b336001600160a01b0382161480610b825750610b828133610993565b610bf45760405162461bcd60e51b815260206004820152603d60248201527f4552433732313a20617070726f76652063616c6c6572206973206e6f7420746f60448201527f6b656e206f776e6572206f7220617070726f76656420666f7220616c6c0000006064820152608401610b5d565b610bfe8383612236565b505050565b60008181526010602052604081206007015460ff166001148015610a29575050600090815260106020526040902060060154421090565b610c426122a4565b600081815260106020526040902060060154421015610c9b5760405162461bcd60e51b8152602060048201526015602482015274185d58dd1a5bdb881b5d5cdd08189948195b991959605a1b6044820152606401610b5d565b6000818152601260205260409020546001600160a01b0316331415610d0d5760405162461bcd60e51b815260206004820152602260248201527f68696768657374206269646465722063616e6e6f7420776974686472617720626044820152611a5960f21b6064820152608401610b5d565b6000610d18600c5490565b90506000805b82811015610d9a573360156000610d36846001613289565b81526020810191909152604001600020600201546001600160a01b03161415610d885760156000610d68836001613289565b81526020019081526020016000206003015482610d859190613289565b91505b80610d9281613308565b915050610d1e565b50604051339082156108fc029083906000818181858888f19350505050158015610dc8573d6000803e3d6000fd5b505050610dd56001600755565b50565b610de06122a4565b610de981610c03565b15610e2e5760405162461bcd60e51b815260206004820152601560248201527430bab1ba34b7b71034b99039ba34b6361037b832b760591b6044820152606401610b5d565b600081815260106020908152604080832060129092529091205460018201546001600160a01b039182169116331480610e6f5750336001600160a01b038216145b610ece5760405162461bcd60e51b815260206004820152602a60248201527f6f6e6c792073656c6c6572206f722077696e6e65722063616e20636f6d706c656044820152693a329030bab1ba34b7b760b11b6064820152608401610b5d565b60008381526013602052604090205480610ef35760078301805460ff19169055610dc8565b600283015460018401546001600160a01b0316610f118185846122fe565b6040516001600160a01b0382169084156108fc029085906000818181858888f19350505050158015610f47573d6000803e3d6000fd5b50506001840180546001600160a01b0385166001600160a01b031991821681179092556000928352600d6020526040909220600201805490921617905560078301805460ff19169055505050610dd56001600755565b610fa73382612462565b610fc35760405162461bcd60e51b8152600401610b5d906131a5565b610bfe8383836122fe565b610bfe83838360405180602001604052806000815250612033565b610ff16122a4565b610ffa81610c03565b61103a5760405162461bcd60e51b8152602060048201526011602482015270185d58dd1a5bdb881a185cc8195b991959607a1b6044820152606401610b5d565b600081815260106020526040902060030154341161109a5760405162461bcd60e51b815260206004820152601f60248201527f56616c756520697320736d616c6c6572207468616e206269642076616c7565006044820152606401610b5d565b6000818152601060205260409020600101546001600160a01b03163314156111045760405162461bcd60e51b815260206004820152601a60248201527f796f752063616e27742062696420796f7572206f776e206e66740000000000006044820152606401610b5d565b611112600c80546001019055565b600061111d600c5490565b60408051608081018252600085815260106020908152838220600290810154845281840188815233858701908152346060870181815289875260159095529690942094518555516001850155915191830180546001600160a01b0319166001600160a01b03909316929092179091555160039091015560145491925011156111cf57346014819055600083815260126020908152604080832080546001600160a01b0319163317905560139091529020555b50610dd56001600755565b606060006111e7600b5490565b905060008060005b8381101561123f5760106000611206836001613289565b81526020019081526020016000206003015460001461122d5761122a600184613289565b92505b611238600182613289565b90506111ef565b5060008267ffffffffffffffff81111561126957634e487b7160e01b600052604160045260246000fd5b6040519080825280602002602001820160405280156112ee57816020015b6112db6040518061010001604052806000815260200160006001600160a01b031681526020016000815260200160008152602001600081526020016000815260200160008152602001600060ff1681525090565b8152602001906001900390816112875790505b50905060005b848110156113f757600060108161130c846001613289565b815260200190815260200160002090506010600083600161132d9190613289565b8152602001908152602001600020600301546000146113e45760408051610100810182528254815260018301546001600160a01b031660208201526002830154918101919091526003820154606082015260048201546080820152600582015460a0820152600682015460c0820152600782015460ff1660e082015283518490869081106113cb57634e487b7160e01b600052603260045260246000fd5b60209081029190910101526113e1600185613289565b93505b506113f0600182613289565b90506112f4565b50949350505050565b6000611410600b80546001019055565b600061141b600b5490565b905042600061142a8583613289565b60408051610100810182528581523360208083019182528284019a8b52606083018c8152608084019c8d5260a0840197885260c08401958652600160e0850181815260008b815260109094529590922093518455915190830180546001600160a01b0319166001600160a01b03909216919091179055985160028201559751600389015597516004880155915160058701555051600685015593516007909301805460ff191660ff909416939093179092555090919050565b60006114ee60095490565b905090565b6060600061150060085490565b9050600080805b838110156115625733600d600061151f846001613289565b81526020810191909152604001600020600201546001600160a01b03161415611550578161154c81613308565b9250505b8061155a81613308565b915050611507565b5060008167ffffffffffffffff81111561158c57634e487b7160e01b600052604160045260246000fd5b6040519080825280602002602001820160405280156115e557816020015b6040805160a0810182526000808252602080830182905292820181905260608201819052608082015282526000199092019101816115aa5790505b50905060005b848110156113f75733600d6000611603846001613289565b81526020810191909152604001600020600201546001600160a01b031614156116db576000600d81611636846001613289565b81526020808201929092526040908101600020815160a0810183528154815260018201549381019390935260028101546001600160a01b0381169284019290925260ff600160a01b8304811615156060850152600160a81b9092049091161515608083015284519092508490879081106116c057634e487b7160e01b600052603260045260246000fd5b602002602001018190525084806116d690613308565b955050505b806116e581613308565b9150506115eb565b6000818152600260205260408120546001600160a01b031680610a295760405162461bcd60e51b8152602060048201526018602482015277115490cdcc8c4e881a5b9d985b1a59081d1bdad95b88125160421b6044820152606401610b5d565b600061175d600880546001019055565b600061176860085490565b905061177433826124e0565b61177e81846124fa565b6040805160a08101825282815260006020808301828152338486019081526060850184815260808601858152888652600d9094529590932093518455516001840155905160029092018054935191511515600160a81b0260ff60a81b19921515600160a01b026001600160a81b03199095166001600160a01b03909416939093179390931716179055610a29565b60006001600160a01b0382166118765760405162461bcd60e51b815260206004820152602960248201527f4552433732313a2061646472657373207a65726f206973206e6f7420612076616044820152683634b21037bbb732b960b91b6064820152608401610b5d565b506001600160a01b031660009081526003602052604090205490565b6060600061189f60085490565b905060008060005b838110156118f757600d60006118be836001613289565b8152602001908152602001600020600101546000146118e5576118e2600184613289565b92505b6118f0600182613289565b90506118a7565b5060008267ffffffffffffffff81111561192157634e487b7160e01b600052604160045260246000fd5b60405190808252806020026020018201604052801561197a57816020015b6040805160a08101825260008082526020808301829052928201819052606082018190526080820152825260001990920191018161193f5790505b50905060005b848110156113f7576000600d81611998846001613289565b81526020019081526020016000209050600d60008360016119b99190613289565b815260200190815260200160002060010154600014611a5f576040805160a081018252825481526001830154602082015260028301546001600160a01b0381169282019290925260ff600160a01b8304811615156060830152600160a81b909204909116151560808201528351849086908110611a4657634e487b7160e01b600052603260045260246000fd5b6020908102919091010152611a5c600185613289565b93505b50611a6b600182613289565b9050611980565b606060018054610a3e906132cd565b6000818152600d6020526040902060018101546002909101546001600160a01b0316331415611af25760405162461bcd60e51b815260206004820152601a60248201527f796f752063616e27742062757920796f7572206f776e206e66740000000000006044820152606401610b5d565b6000828152600d60205260409020600201546001600160a01b0316611b188133856122fe565b611b228184610ae8565b6000838152600d6020526040808220600201805460ff60a81b1960ff60a01b1933166001600160a81b031990921691909117600160a01b1716600160a81b179055516001600160a01b038316913480156108fc02929091818181858888f19350505050158015611b96573d6000803e3d6000fd5b50611ba5600980546001019055565b6000611bb060095490565b6040805160a08101825286815260208082019687526001600160a01b0395861682840190815233606084019081526001608085018181526000978852600e8552868820955186559951858201559151600285018054918a166001600160a01b0319909216919091179055516003909301805498511515600160a01b026001600160a81b0319909916939097169290921796909617909455948152600d9093525091812090910155565b611c643383836125cc565b5050565b60606000611c7560095490565b9050600080805b83811015611cd75733600e6000611c94846001613289565b81526020810191909152604001600020600201546001600160a01b03161415611cc55781611cc181613308565b9250505b80611ccf81613308565b915050611c7c565b5060008167ffffffffffffffff811115611d0157634e487b7160e01b600052604160045260246000fd5b604051908082528060200260200182016040528015611d5a57816020015b6040805160a081018252600080825260208083018290529282018190526060820181905260808201528252600019909201910181611d1f5790505b50905060005b848110156113f75733600e6000611d78846001613289565b81526020810191909152604001600020600201546001600160a01b03161415611e4c576000600e81611dab846001613289565b81526020808201929092526040908101600020815160a0810183528154815260018201549381019390935260028101546001600160a01b039081169284019290925260038101549182166060840152600160a01b90910460ff16151560808301528451909250849087908110611e3157634e487b7160e01b600052603260045260246000fd5b60200260200101819052508480611e4790613308565b955050505b80611e5681613308565b915050611d60565b60606000611e6b600c5490565b9050600080805b83811015611ec25760156000611e89836001613289565b815260200190815260200160002060030154600014611eb05781611eac81613308565b9250505b80611eba81613308565b915050611e72565b5060008167ffffffffffffffff811115611eec57634e487b7160e01b600052604160045260246000fd5b604051908082528060200260200182016040528015611f5157816020015b611f3e6040518060800160405280600081526020016000815260200160006001600160a01b03168152602001600081525090565b815260200190600190039081611f0a5790505b50905060005b848110156113f75760156000611f6e836001613289565b815260200190815260200160002060030154600014612021576000601581611f97846001613289565b8152602080820192909252604090810160002081516080810183528154815260018201549381019390935260028101546001600160a01b03169183019190915260038101546060830152845190925084908790811061200657634e487b7160e01b600052603260045260246000fd5b6020026020010181905250848061201c90613308565b955050505b8061202b81613308565b915050611f57565b61203d3383612462565b6120595760405162461bcd60e51b8152600401610b5d906131a5565b6120658484848461269b565b50505050565b6060612076826121d7565b6000828152600660205260408120805461208f906132cd565b80601f01602080910402602001604051908101604052809291908181526020018280546120bb906132cd565b80156121085780601f106120dd57610100808354040283529160200191612108565b820191906000526020600020905b8154815290600101906020018083116120eb57829003601f168201915b50505050509050600061212660408051602081019091526000815290565b9050805160001415612139575092915050565b81511561216b578082604051602001612153929190612f4e565b60405160208183030381529060405292505050919050565b612174846126ce565b949350505050565b60006114ee60085490565b60006001600160e01b031982166380ac58cd60e01b14806121b857506001600160e01b03198216635b5e139f60e01b145b80610a2957506301ffc9a760e01b6001600160e01b0319831614610a29565b6000818152600260205260409020546001600160a01b0316610dd55760405162461bcd60e51b8152602060048201526018602482015277115490cdcc8c4e881a5b9d985b1a59081d1bdad95b88125160421b6044820152606401610b5d565b600081815260046020526040902080546001600160a01b0319166001600160a01b038416908117909155819061226b826116ed565b6001600160a01b03167f8c5be1e5ebec7d5bd14f71427d1e84f3dd0314c0f7b2291e5b200ac8c7c3b92560405160405180910390a45050565b600260075414156122f75760405162461bcd60e51b815260206004820152601f60248201527f5265656e7472616e637947756172643a207265656e7472616e742063616c6c006044820152606401610b5d565b6002600755565b826001600160a01b0316612311826116ed565b6001600160a01b0316146123375760405162461bcd60e51b8152600401610b5d90613244565b6001600160a01b0382166123995760405162461bcd60e51b8152602060048201526024808201527f4552433732313a207472616e7366657220746f20746865207a65726f206164646044820152637265737360e01b6064820152608401610b5d565b826001600160a01b03166123ac826116ed565b6001600160a01b0316146123d25760405162461bcd60e51b8152600401610b5d90613244565b600081815260046020908152604080832080546001600160a01b03199081169091556001600160a01b0387811680865260038552838620805460001901905590871680865283862080546001019055868652600290945282852080549092168417909155905184937fddf252ad1be2c89b69c2b068fc378daa952ba7f163c4a11628f55a4df523b3ef91a4505050565b60008061246e836116ed565b9050806001600160a01b0316846001600160a01b031614806124b557506001600160a01b0380821660009081526005602090815260408083209388168352929052205460ff165b806121745750836001600160a01b03166124ce84610ac1565b6001600160a01b031614949350505050565b611c64828260405180602001604052806000815250612742565b6000828152600260205260409020546001600160a01b03166125755760405162461bcd60e51b815260206004820152602e60248201527f45524337323155524953746f726167653a2055524920736574206f66206e6f6e60448201526d32bc34b9ba32b73a103a37b5b2b760911b6064820152608401610b5d565b6000828152600660209081526040909120825161259492840190612b90565b506040518281527ff8e1a15aba9398e019f0b49df1a4fde98ee17ae345cb5f6b5e2c27f5033e8ce79060200160405180910390a15050565b816001600160a01b0316836001600160a01b0316141561262e5760405162461bcd60e51b815260206004820152601960248201527f4552433732313a20617070726f766520746f2063616c6c6572000000000000006044820152606401610b5d565b6001600160a01b03838116600081815260056020908152604080832094871680845294825291829020805460ff191686151590811790915591519182527f17307eab39ab6107e8899845ad3d59bd9653f200f220920489ca2b5937696c31910160405180910390a3505050565b6126a68484846122fe565b6126b284848484612775565b6120655760405162461bcd60e51b8152600401610b5d906131f2565b60606126d9826121d7565b60006126f060408051602081019091526000815290565b90506000815111612710576040518060200160405280600081525061273b565b8061271a84612882565b60405160200161272b929190612f4e565b6040516020818303038152906040525b9392505050565b61274c838361292d565b6127596000848484612775565b610bfe5760405162461bcd60e51b8152600401610b5d906131f2565b60006001600160a01b0384163b1561287757604051630a85bd0160e11b81526001600160a01b0385169063150b7a02906127b9903390899088908890600401612f7d565b602060405180830381600087803b1580156127d357600080fd5b505af1925050508015612803575060408051601f3d908101601f1916820190925261280091810190612e3a565b60015b61285d573d808015612831576040519150601f19603f3d011682016040523d82523d6000602084013e612836565b606091505b5080516128555760405162461bcd60e51b8152600401610b5d906131f2565b805181602001fd5b6001600160e01b031916630a85bd0160e11b149050612174565b506001949350505050565b6060600061288f83612ab8565b600101905060008167ffffffffffffffff8111156128bd57634e487b7160e01b600052604160045260246000fd5b6040519080825280601f01601f1916602001820160405280156128e7576020820181803683370190505b5090508181016020015b600019016f181899199a1a9b1b9c1cb0b131b232b360811b600a86061a8153600a850494508461292057612925565b6128f1565b509392505050565b6001600160a01b0382166129835760405162461bcd60e51b815260206004820181905260248201527f4552433732313a206d696e7420746f20746865207a65726f20616464726573736044820152606401610b5d565b6000818152600260205260409020546001600160a01b0316156129e85760405162461bcd60e51b815260206004820152601c60248201527f4552433732313a20746f6b656e20616c7265616479206d696e746564000000006044820152606401610b5d565b6000818152600260205260409020546001600160a01b031615612a4d5760405162461bcd60e51b815260206004820152601c60248201527f4552433732313a20746f6b656e20616c7265616479206d696e746564000000006044820152606401610b5d565b6001600160a01b038216600081815260036020908152604080832080546001019055848352600290915280822080546001600160a01b0319168417905551839291907fddf252ad1be2c89b69c2b068fc378daa952ba7f163c4a11628f55a4df523b3ef908290a45050565b60008072184f03e93ff9f4daa797ed6e38ed64bf6a1f0160401b8310612af75772184f03e93ff9f4daa797ed6e38ed64bf6a1f0160401b830492506040015b6d04ee2d6d415b85acef81000000008310612b23576d04ee2d6d415b85acef8100000000830492506020015b662386f26fc100008310612b4157662386f26fc10000830492506010015b6305f5e1008310612b59576305f5e100830492506008015b6127108310612b6d57612710830492506004015b60648310612b7f576064830492506002015b600a8310610a295760010192915050565b828054612b9c906132cd565b90600052602060002090601f016020900481019282612bbe5760008555612c04565b82601f10612bd757805160ff1916838001178555612c04565b82800160010185558215612c04579182015b82811115612c04578251825591602001919060010190612be9565b50612c10929150612c14565b5090565b5b80821115612c105760008155600101612c15565b600067ffffffffffffffff80841115612c4457612c44613339565b604051601f8501601f19908116603f01168101908282118183101715612c6c57612c6c613339565b81604052809350858152868686011115612c8557600080fd5b858560208301376000602087830101525050509392505050565b80356001600160a01b0381168114612cb657600080fd5b919050565b600060208284031215612ccc578081fd5b61273b82612c9f565b60008060408385031215612ce7578081fd5b612cf083612c9f565b9150612cfe60208401612c9f565b90509250929050565b600080600060608486031215612d1b578081fd5b612d2484612c9f565b9250612d3260208501612c9f565b9150604084013590509250925092565b60008060008060808587031215612d57578081fd5b612d6085612c9f565b9350612d6e60208601612c9f565b925060408501359150606085013567ffffffffffffffff811115612d90578182fd5b8501601f81018713612da0578182fd5b612daf87823560208401612c29565b91505092959194509250565b60008060408385031215612dcd578182fd5b612dd683612c9f565b915060208301358015158114612dea578182fd5b809150509250929050565b60008060408385031215612e07578182fd5b612e1083612c9f565b946020939093013593505050565b600060208284031215612e2f578081fd5b813561273b8161334f565b600060208284031215612e4b578081fd5b815161273b8161334f565b600060208284031215612e67578081fd5b813567ffffffffffffffff811115612e7d578182fd5b8201601f81018413612e8d578182fd5b61217484823560208401612c29565b600060208284031215612ead578081fd5b5035919050565b60008060408385031215612ec6578182fd5b82359150612cfe60208401612c9f565b60008060408385031215612ee8578182fd5b50508035926020909101359150565b600080600060608486031215612f0b578283fd5b505081359360208301359350604090920135919050565b60008151808452612f3a8160208601602086016132a1565b601f01601f19169290920160200192915050565b60008351612f608184602088016132a1565b835190830190612f748183602088016132a1565b01949350505050565b6001600160a01b0385811682528416602082015260408101839052608060608201819052600090612fb090830184612f22565b9695505050505050565b602080825282518282018190526000919060409081850190868401855b8281101561301a578151805185528681015187860152858101516001600160a01b0316868601526060908101519085015260809093019290850190600101612fd7565b5091979650505050505050565b602080825282518282018190526000919060409081850190868401855b8281101561301a578151805185528681015187860152858101516001600160a01b03908116878701526060808301519091169086015260809081015115159085015260a09093019290850190600101613044565b602080825282518282018190526000919060409081850190868401855b8281101561301a578151805185528681015187860152858101516001600160a01b03168686015260608082015115159086015260809081015115159085015260a090930192908501906001016130b5565b602080825282518282018190526000919060409081850190868401855b8281101561301a57815180518552868101516001600160a01b0316878601528581015186860152606080820151908601526080808201519086015260a0808201519086015260c0808201519086015260e09081015160ff16908501526101009093019290850190600101613123565b60208152600061273b6020830184612f22565b6020808252602d908201527f4552433732313a2063616c6c6572206973206e6f7420746f6b656e206f776e6560408201526c1c881bdc88185c1c1c9bdd9959609a1b606082015260800190565b60208082526032908201527f4552433732313a207472616e7366657220746f206e6f6e20455243373231526560408201527131b2b4bb32b91034b6b83632b6b2b73a32b960711b606082015260800190565b60208082526025908201527f4552433732313a207472616e736665722066726f6d20696e636f72726563742060408201526437bbb732b960d91b606082015260800190565b6000821982111561329c5761329c613323565b500190565b60005b838110156132bc5781810151838201526020016132a4565b838111156120655750506000910152565b600181811c908216806132e157607f821691505b6020821081141561330257634e487b7160e01b600052602260045260246000fd5b50919050565b600060001982141561331c5761331c613323565b5060010190565b634e487b7160e01b600052601160045260246000fd5b634e487b7160e01b600052604160045260246000fd5b6001600160e01b031981168114610dd557600080fdfea264697066735822122099f1a1f3066185f4162ab330bca4400ce3f1500355b7b14b2054a33636673d8d64736f6c63430008040033",
  "linkReferences": {},
  "deployedLinkReferences": {}
}