{
  "_format": "hh-sol-artifact-1",
  "contractName": "PolygonNFTMarketplace",
  "sourceName": "contracts/PolygonNFTMarketplace.sol",
  "abi": [
    {
      "inputs": [],
      "stateMutability": "nonpayable",
      "type": "constructor"
    },
    {
      "anonymous": false,
      "inputs": [
        {
          "indexed": true,
          "internalType": "address",
          "name": "owner",
          "type": "address"
        },
        {
          "indexed": true,
          "internalType": "address",
          "name": "approved",
          "type": "address"
        },
        {
          "indexed": true,
          "internalType": "uint256",
          "name": "tokenId",
          "type": "uint256"
        }
      ],
      "name": "Approval",
      "type": "event"
    },
    {
      "anonymous": false,
      "inputs": [
        {
          "indexed": true,
          "internalType": "address",
          "name": "owner",
          "type": "address"
        },
        {
          "indexed": true,
          "internalType": "address",
          "name": "operator",
          "type": "address"
        },
        {
          "indexed": false,
          "internalType": "bool",
          "name": "approved",
          "type": "bool"
        }
      ],
      "name": "ApprovalForAll",
      "type": "event"
    },
    {
      "anonymous": false,
      "inputs": [
        {
          "indexed": false,
          "internalType": "uint256",
          "name": "_fromTokenId",
          "type": "uint256"
        },
        {
          "indexed": false,
          "internalType": "uint256",
          "name": "_toTokenId",
          "type": "uint256"
        }
      ],
      "name": "BatchMetadataUpdate",
      "type": "event"
    },
    {
      "anonymous": false,
      "inputs": [
        {
          "indexed": false,
          "internalType": "uint256",
          "name": "_tokenId",
          "type": "uint256"
        }
      ],
      "name": "MetadataUpdate",
      "type": "event"
    },
    {
      "anonymous": false,
      "inputs": [
        {
          "indexed": true,
          "internalType": "address",
          "name": "from",
          "type": "address"
        },
        {
          "indexed": true,
          "internalType": "address",
          "name": "to",
          "type": "address"
        },
        {
          "indexed": true,
          "internalType": "uint256",
          "name": "tokenId",
          "type": "uint256"
        }
      ],
      "name": "Transfer",
      "type": "event"
    },
    {
      "inputs": [],
      "name": "BuyCount",
      "outputs": [
        {
          "internalType": "uint256",
          "name": "_value",
          "type": "uint256"
        }
      ],
      "stateMutability": "view",
      "type": "function"
    },
    {
      "inputs": [
        {
          "internalType": "string",
          "name": "tokenURI",
          "type": "string"
        },
        {
          "internalType": "string",
          "name": "imageHash",
          "type": "string"
        }
      ],
      "name": "CreateToken",
      "outputs": [
        {
          "internalType": "uint256",
          "name": "",
          "type": "uint256"
        }
      ],
      "stateMutability": "payable",
      "type": "function"
    },
    {
      "inputs": [
        {
          "internalType": "uint256",
          "name": "price",
          "type": "uint256"
        },
        {
          "internalType": "uint256",
          "name": "id",
          "type": "uint256"
        }
      ],
      "name": "ListNFT",
      "outputs": [],
      "stateMutability": "nonpayable",
      "type": "function"
    },
    {
      "inputs": [],
      "name": "STATUS_DONE",
      "outputs": [
        {
          "internalType": "uint8",
          "name": "",
          "type": "uint8"
        }
      ],
      "stateMutability": "view",
      "type": "function"
    },
    {
      "inputs": [],
      "name": "STATUS_OPEN",
      "outputs": [
        {
          "internalType": "uint8",
          "name": "",
          "type": "uint8"
        }
      ],
      "stateMutability": "view",
      "type": "function"
    },
    {
      "inputs": [],
      "name": "SoldCount",
      "outputs": [
        {
          "internalType": "uint256",
          "name": "_value",
          "type": "uint256"
        }
      ],
      "stateMutability": "view",
      "type": "function"
    },
    {
      "inputs": [],
      "name": "TokenCount",
      "outputs": [
        {
          "internalType": "uint256",
          "name": "_value",
          "type": "uint256"
        }
      ],
      "stateMutability": "view",
      "type": "function"
    },
    {
      "inputs": [
        {
          "internalType": "address",
          "name": "to",
          "type": "address"
        },
        {
          "internalType": "uint256",
          "name": "tokenId",
          "type": "uint256"
        }
      ],
      "name": "approve",
      "outputs": [],
      "stateMutability": "nonpayable",
      "type": "function"
    },
    {
      "inputs": [
        {
          "internalType": "address",
          "name": "owner",
          "type": "address"
        }
      ],
      "name": "balanceOf",
      "outputs": [
        {
          "internalType": "uint256",
          "name": "",
          "type": "uint256"
        }
      ],
      "stateMutability": "view",
      "type": "function"
    },
    {
      "inputs": [
        {
          "internalType": "uint256",
          "name": "listingId",
          "type": "uint256"
        }
      ],
      "name": "bid",
      "outputs": [],
      "stateMutability": "payable",
      "type": "function"
    },
    {
      "inputs": [],
      "name": "biddingCounter",
      "outputs": [
        {
          "internalType": "uint256",
          "name": "_value",
          "type": "uint256"
        }
      ],
      "stateMutability": "view",
      "type": "function"
    },
    {
      "inputs": [
        {
          "internalType": "uint256",
          "name": "",
          "type": "uint256"
        },
        {
          "internalType": "address",
          "name": "",
          "type": "address"
        }
      ],
      "name": "bids",
      "outputs": [
        {
          "internalType": "uint256",
          "name": "",
          "type": "uint256"
        }
      ],
      "stateMutability": "view",
      "type": "function"
    },
    {
      "inputs": [
        {
          "internalType": "string",
          "name": "imageHash",
          "type": "string"
        }
      ],
      "name": "checkImageExist",
      "outputs": [
        {
          "internalType": "bool",
          "name": "",
          "type": "bool"
        }
      ],
      "stateMutability": "view",
      "type": "function"
    },
    {
      "inputs": [
        {
          "internalType": "uint256",
          "name": "listingId",
          "type": "uint256"
        }
      ],
      "name": "completeAuction",
      "outputs": [],
      "stateMutability": "payable",
      "type": "function"
    },
    {
      "inputs": [
        {
          "internalType": "uint256",
          "name": "price",
          "type": "uint256"
        },
        {
          "internalType": "uint256",
          "name": "tokenId",
          "type": "uint256"
        },
        {
          "internalType": "uint256",
          "name": "deadline",
          "type": "uint256"
        }
      ],
      "name": "createAuctionListing",
      "outputs": [
        {
          "internalType": "uint256",
          "name": "",
          "type": "uint256"
        }
      ],
      "stateMutability": "nonpayable",
      "type": "function"
    },
    {
      "inputs": [
        {
          "internalType": "uint256",
          "name": "tokenId",
          "type": "uint256"
        }
      ],
      "name": "executeSale",
      "outputs": [],
      "stateMutability": "payable",
      "type": "function"
    },
    {
      "inputs": [],
      "name": "getAllBiddedNfts",
      "outputs": [
        {
          "components": [
            {
              "internalType": "uint256",
              "name": "biddingId",
              "type": "uint256"
            },
            {
              "internalType": "address payable",
              "name": "seller",
              "type": "address"
            },
            {
              "internalType": "uint256",
              "name": "tokenId",
              "type": "uint256"
            },
            {
              "internalType": "uint256",
              "name": "price",
              "type": "uint256"
            },
            {
              "internalType": "uint256",
              "name": "netPrice",
              "type": "uint256"
            },
            {
              "internalType": "uint256",
              "name": "startAt",
              "type": "uint256"
            },
            {
              "internalType": "uint256",
              "name": "deadline",
              "type": "uint256"
            },
            {
              "internalType": "uint8",
              "name": "status",
              "type": "uint8"
            }
          ],
          "internalType": "struct PolygonNFTMarketplace.Listing[]",
          "name": "",
          "type": "tuple[]"
        }
      ],
      "stateMutability": "view",
      "type": "function"
    },
    {
      "inputs": [],
      "name": "getAllBiddingWithListingID",
      "outputs": [
        {
          "components": [
            {
              "internalType": "uint256",
              "name": "tokenId",
              "type": "uint256"
            },
            {
              "internalType": "uint256",
              "name": "biddingId",
              "type": "uint256"
            },
            {
              "internalType": "address",
              "name": "bidder",
              "type": "address"
            },
            {
              "internalType": "uint256",
              "name": "price",
              "type": "uint256"
            }
          ],
          "internalType": "struct PolygonNFTMarketplace.Bidding[]",
          "name": "",
          "type": "tuple[]"
        }
      ],
      "stateMutability": "view",
      "type": "function"
    },
    {
      "inputs": [],
      "name": "getAllNfts",
      "outputs": [
        {
          "components": [
            {
              "internalType": "uint256",
              "name": "tokenId",
              "type": "uint256"
            },
            {
              "internalType": "uint256",
              "name": "price",
              "type": "uint256"
            },
            {
              "internalType": "address payable",
              "name": "owner",
              "type": "address"
            },
            {
              "internalType": "bool",
              "name": "NFTsold",
              "type": "bool"
            },
            {
              "internalType": "bool",
              "name": "NFTbought",
              "type": "bool"
            }
          ],
          "internalType": "struct PolygonNFTMarketplace.ListedToken[]",
          "name": "",
          "type": "tuple[]"
        }
      ],
      "stateMutability": "view",
      "type": "function"
    },
    {
      "inputs": [
        {
          "internalType": "uint256",
          "name": "tokenId",
          "type": "uint256"
        }
      ],
      "name": "getApproved",
      "outputs": [
        {
          "internalType": "address",
          "name": "",
          "type": "address"
        }
      ],
      "stateMutability": "view",
      "type": "function"
    },
    {
      "inputs": [],
      "name": "getMyNFTs",
      "outputs": [
        {
          "components": [
            {
              "internalType": "uint256",
              "name": "tokenId",
              "type": "uint256"
            },
            {
              "internalType": "uint256",
              "name": "price",
              "type": "uint256"
            },
            {
              "internalType": "address payable",
              "name": "owner",
              "type": "address"
            },
            {
              "internalType": "bool",
              "name": "NFTsold",
              "type": "bool"
            },
            {
              "internalType": "bool",
              "name": "NFTbought",
              "type": "bool"
            }
          ],
          "internalType": "struct PolygonNFTMarketplace.ListedToken[]",
          "name": "",
          "type": "tuple[]"
        }
      ],
      "stateMutability": "view",
      "type": "function"
    },
    {
      "inputs": [],
      "name": "getMySoldNFTs",
      "outputs": [
        {
          "components": [
            {
              "internalType": "uint256",
              "name": "tokenId",
              "type": "uint256"
            },
            {
              "internalType": "uint256",
              "name": "price",
              "type": "uint256"
            },
            {
              "internalType": "address payable",
              "name": "owner",
              "type": "address"
            },
            {
              "internalType": "address",
              "name": "newOwner",
              "type": "address"
            },
            {
              "internalType": "bool",
              "name": "NFTsold",
              "type": "bool"
            }
          ],
          "internalType": "struct PolygonNFTMarketplace.ItemsSold[]",
          "name": "",
          "type": "tuple[]"
        }
      ],
      "stateMutability": "view",
      "type": "function"
    },
    {
      "inputs": [],
      "name": "getTotalMintedTokens",
      "outputs": [
        {
          "internalType": "uint256",
          "name": "",
          "type": "uint256"
        }
      ],
      "stateMutability": "view",
      "type": "function"
    },
    {
      "inputs": [],
      "name": "getTotalSoldTokens",
      "outputs": [
        {
          "internalType": "uint256",
          "name": "",
          "type": "uint256"
        }
      ],
      "stateMutability": "view",
      "type": "function"
    },
    {
      "inputs": [
        {
          "internalType": "uint256",
          "name": "",
          "type": "uint256"
        }
      ],
      "name": "highestBidder",
      "outputs": [
        {
          "internalType": "address",
          "name": "",
          "type": "address"
        }
      ],
      "stateMutability": "view",
      "type": "function"
    },
    {
      "inputs": [],
      "name": "highestBidding",
      "outputs": [
        {
          "internalType": "uint256",
          "name": "",
          "type": "uint256"
        }
      ],
      "stateMutability": "view",
      "type": "function"
    },
    {
      "inputs": [
        {
          "internalType": "uint256",
          "name": "",
          "type": "uint256"
        }
      ],
      "name": "highestBiddingAmount",
      "outputs": [
        {
          "internalType": "uint256",
          "name": "",
          "type": "uint256"
        }
      ],
      "stateMutability": "view",
      "type": "function"
    },
    {
      "inputs": [
        {
          "internalType": "uint256",
          "name": "",
          "type": "uint256"
        }
      ],
      "name": "idToBiddedToken",
      "outputs": [
        {
          "internalType": "uint256",
          "name": "tokenId",
          "type": "uint256"
        },
        {
          "internalType": "uint256",
          "name": "biddingId",
          "type": "uint256"
        },
        {
          "internalType": "address",
          "name": "bidder",
          "type": "address"
        },
        {
          "internalType": "uint256",
          "name": "price",
          "type": "uint256"
        }
      ],
      "stateMutability": "view",
      "type": "function"
    },
    {
      "inputs": [
        {
          "internalType": "uint256",
          "name": "",
          "type": "uint256"
        }
      ],
      "name": "idToImageHash",
      "outputs": [
        {
          "internalType": "string",
          "name": "",
          "type": "string"
        }
      ],
      "stateMutability": "view",
      "type": "function"
    },
    {
      "inputs": [
        {
          "internalType": "uint256",
          "name": "",
          "type": "uint256"
        }
      ],
      "name": "idToListedToken",
      "outputs": [
        {
          "internalType": "uint256",
          "name": "tokenId",
          "type": "uint256"
        },
        {
          "internalType": "uint256",
          "name": "price",
          "type": "uint256"
        },
        {
          "internalType": "address payable",
          "name": "owner",
          "type": "address"
        },
        {
          "internalType": "bool",
          "name": "NFTsold",
          "type": "bool"
        },
        {
          "internalType": "bool",
          "name": "NFTbought",
          "type": "bool"
        }
      ],
      "stateMutability": "view",
      "type": "function"
    },
    {
      "inputs": [
        {
          "internalType": "uint256",
          "name": "",
          "type": "uint256"
        }
      ],
      "name": "idToSoldItems",
      "outputs": [
        {
          "internalType": "uint256",
          "name": "tokenId",
          "type": "uint256"
        },
        {
          "internalType": "uint256",
          "name": "price",
          "type": "uint256"
        },
        {
          "internalType": "address payable",
          "name": "owner",
          "type": "address"
        },
        {
          "internalType": "address",
          "name": "newOwner",
          "type": "address"
        },
        {
          "internalType": "bool",
          "name": "NFTsold",
          "type": "bool"
        }
      ],
      "stateMutability": "view",
      "type": "function"
    },
    {
      "inputs": [
        {
          "internalType": "address",
          "name": "owner",
          "type": "address"
        },
        {
          "internalType": "address",
          "name": "operator",
          "type": "address"
        }
      ],
      "name": "isApprovedForAll",
      "outputs": [
        {
          "internalType": "bool",
          "name": "",
          "type": "bool"
        }
      ],
      "stateMutability": "view",
      "type": "function"
    },
    {
      "inputs": [
        {
          "internalType": "uint256",
          "name": "id",
          "type": "uint256"
        }
      ],
      "name": "isAuctionExpired",
      "outputs": [
        {
          "internalType": "bool",
          "name": "",
          "type": "bool"
        }
      ],
      "stateMutability": "view",
      "type": "function"
    },
    {
      "inputs": [
        {
          "internalType": "uint256",
          "name": "id",
          "type": "uint256"
        }
      ],
      "name": "isAuctionOpen",
      "outputs": [
        {
          "internalType": "bool",
          "name": "",
          "type": "bool"
        }
      ],
      "stateMutability": "view",
      "type": "function"
    },
    {
      "inputs": [],
      "name": "listingCounter",
      "outputs": [
        {
          "internalType": "uint256",
          "name": "_value",
          "type": "uint256"
        }
      ],
      "stateMutability": "view",
      "type": "function"
    },
    {
      "inputs": [
        {
          "internalType": "uint256",
          "name": "",
          "type": "uint256"
        }
      ],
      "name": "listings",
      "outputs": [
        {
          "internalType": "uint256",
          "name": "biddingId",
          "type": "uint256"
        },
        {
          "internalType": "address payable",
          "name": "seller",
          "type": "address"
        },
        {
          "internalType": "uint256",
          "name": "tokenId",
          "type": "uint256"
        },
        {
          "internalType": "uint256",
          "name": "price",
          "type": "uint256"
        },
        {
          "internalType": "uint256",
          "name": "netPrice",
          "type": "uint256"
        },
        {
          "internalType": "uint256",
          "name": "startAt",
          "type": "uint256"
        },
        {
          "internalType": "uint256",
          "name": "deadline",
          "type": "uint256"
        },
        {
          "internalType": "uint8",
          "name": "status",
          "type": "uint8"
        }
      ],
      "stateMutability": "view",
      "type": "function"
    },
    {
      "inputs": [],
      "name": "minAuctionIncrement",
      "outputs": [
        {
          "internalType": "uint256",
          "name": "",
          "type": "uint256"
        }
      ],
      "stateMutability": "view",
      "type": "function"
    },
    {
      "inputs": [],
      "name": "name",
      "outputs": [
        {
          "internalType": "string",
          "name": "",
          "type": "string"
        }
      ],
      "stateMutability": "view",
      "type": "function"
    },
    {
      "inputs": [
        {
          "internalType": "uint256",
          "name": "tokenId",
          "type": "uint256"
        }
      ],
      "name": "ownerOf",
      "outputs": [
        {
          "internalType": "address",
          "name": "",
          "type": "address"
        }
      ],
      "stateMutability": "view",
      "type": "function"
    },
    {
      "inputs": [
        {
          "internalType": "address",
          "name": "from",
          "type": "address"
        },
        {
          "internalType": "address",
          "name": "to",
          "type": "address"
        },
        {
          "internalType": "uint256",
          "name": "tokenId",
          "type": "uint256"
        }
      ],
      "name": "safeTransferFrom",
      "outputs": [],
      "stateMutability": "nonpayable",
      "type": "function"
    },
    {
      "inputs": [
        {
          "internalType": "address",
          "name": "from",
          "type": "address"
        },
        {
          "internalType": "address",
          "name": "to",
          "type": "address"
        },
        {
          "internalType": "uint256",
          "name": "tokenId",
          "type": "uint256"
        },
        {
          "internalType": "bytes",
          "name": "data",
          "type": "bytes"
        }
      ],
      "name": "safeTransferFrom",
      "outputs": [],
      "stateMutability": "nonpayable",
      "type": "function"
    },
    {
      "inputs": [
        {
          "internalType": "address",
          "name": "operator",
          "type": "address"
        },
        {
          "internalType": "bool",
          "name": "approved",
          "type": "bool"
        }
      ],
      "name": "setApprovalForAll",
      "outputs": [],
      "stateMutability": "nonpayable",
      "type": "function"
    },
    {
      "inputs": [
        {
          "internalType": "bytes4",
          "name": "interfaceId",
          "type": "bytes4"
        }
      ],
      "name": "supportsInterface",
      "outputs": [
        {
          "internalType": "bool",
          "name": "",
          "type": "bool"
        }
      ],
      "stateMutability": "view",
      "type": "function"
    },
    {
      "inputs": [],
      "name": "symbol",
      "outputs": [
        {
          "internalType": "string",
          "name": "",
          "type": "string"
        }
      ],
      "stateMutability": "view",
      "type": "function"
    },
    {
      "inputs": [
        {
          "internalType": "uint256",
          "name": "tokenId",
          "type": "uint256"
        }
      ],
      "name": "tokenURI",
      "outputs": [
        {
          "internalType": "string",
          "name": "",
          "type": "string"
        }
      ],
      "stateMutability": "view",
      "type": "function"
    },
    {
      "inputs": [
        {
          "internalType": "address",
          "name": "from",
          "type": "address"
        },
        {
          "internalType": "address",
          "name": "to",
          "type": "address"
        },
        {
          "internalType": "uint256",
          "name": "tokenId",
          "type": "uint256"
        }
      ],
      "name": "transferFrom",
      "outputs": [],
      "stateMutability": "nonpayable",
      "type": "function"
    },
    {
      "inputs": [
        {
          "internalType": "uint256",
          "name": "listingId",
          "type": "uint256"
        }
      ],
      "name": "withdrawBid",
      "outputs": [],
      "stateMutability": "payable",
      "type": "function"
    }
  ],
  "bytecode": "0x6080604052600a60105560006015553480156200001b57600080fd5b50604080518082018252601581527f506f6c79676f6e4e46544d61726b6574706c61636500000000000000000000006020808301918252835180850190945260048452634441524b60e01b9084015281519192916200007d91600091620000a1565b50805162000093906001906020840190620000a1565b505060016007555062000184565b828054620000af9062000147565b90600052602060002090601f016020900481019282620000d357600085556200011e565b82601f10620000ee57805160ff19168380011785556200011e565b828001600101855582156200011e579182015b828111156200011e57825182559160200191906001019062000101565b506200012c92915062000130565b5090565b5b808211156200012c576000815560010162000131565b600181811c908216806200015c57607f821691505b602082108114156200017e57634e487b7160e01b600052602260045260246000fd5b50919050565b6136c580620001946000396000f3fe6080604052600436106102885760003560e01c80636352211e1161015a578063adc2524c116100c1578063e57a497a1161007a578063e57a497a1461090e578063e877d3f8146109a1578063e985e9c5146109ce578063edf2ebcc14610a17578063f67a769c14610a2e578063fad266fe14610a4357600080fd5b8063adc2524c146107aa578063b27dce81146107d9578063b820a6d1146107fb578063b88d4fde1461081d578063c87b56dd1461083d578063de74e57b1461085d57600080fd5b8063740db28011610113578063740db28014610720578063903405bb1461073557806395d89b411461074b5780639b1225c414610760578063a22cb46514610773578063a4fdb6351461079357600080fd5b80636352211e146106215780636b8c91cb146106415780636c2c9c7d146106be578063708d4d35146106d557806370a08231146106eb578063732e8d731461070b57600080fd5b806324f8515b116101fe578063454a2ab3116101b7578063454a2ab3146105755780634945dcdd146105885780634c22f381146105aa57806359be5e45146105ca5780635ac8b5b0146105df578063629cb2e4146105ff57600080fd5b806324f8515b14610418578063330241001461043f57806336ad658f146104d05780633f1ffcec146104e757806342842e0e1461051f578063451df52e1461053f57600080fd5b80630ad52cc6116102505780630ad52cc61461035e5780630eaaf4c81461037e5780631053aff2146103915780631389b117146103b257806321b62886146103e557806323b872dd146103f857600080fd5b806301ffc9a71461028d57806306fdde03146102c2578063081812fc146102e4578063095ea7b31461031c5780630ad486281461033e575b600080fd5b34801561029957600080fd5b506102ad6102a83660046130de565b610a5a565b60405190151581526020015b60405180910390f35b3480156102ce57600080fd5b506102d7610a85565b6040516102b991906134bc565b3480156102f057600080fd5b506103046102ff3660046131aa565b610b17565b6040516001600160a01b0390911681526020016102b9565b34801561032857600080fd5b5061033c6103373660046130b5565b610b3e565b005b34801561034a57600080fd5b506102ad6103593660046131aa565b610c59565b34801561036a57600080fd5b506102d76103793660046131aa565b610c90565b61033c61038c3660046131aa565b610d2a565b6103a461039f366004613149565b610ec8565b6040519081526020016102b9565b3480156103be57600080fd5b506102ad6103cd3660046131aa565b60009081526011602052604090206006015442101590565b61033c6103f33660046131aa565b610ffe565b34801561040457600080fd5b5061033c610413366004612fc7565b6111c3565b34801561042457600080fd5b5061042d600181565b60405160ff90911681526020016102b9565b34801561044b57600080fd5b5061049a61045a3660046131aa565b600e602052600090815260409020805460018201546002830154600390930154919290916001600160a01b0391821691811690600160a01b900460ff1685565b6040805195865260208601949094526001600160a01b03928316938501939093521660608301521515608082015260a0016102b9565b3480156104dc57600080fd5b506008546103a49081565b3480156104f357600080fd5b506103a46105023660046131c2565b601260209081526000928352604080842090915290825290205481565b34801561052b57600080fd5b5061033c61053a366004612fc7565b6111f4565b34801561054b57600080fd5b5061030461055a3660046131aa565b6013602052600090815260409020546001600160a01b031681565b61033c6105833660046131aa565b61120f565b34801561059457600080fd5b5061059d611400565b6040516102b99190613430565b3480156105b657600080fd5b506103a46105c5366004613205565b611626565b3480156105d657600080fd5b506103a4611709565b3480156105eb57600080fd5b506102ad6105fa366004613116565b611719565b34801561060b57600080fd5b5061061461185b565b6040516102b991906133c2565b34801561062d57600080fd5b5061030461063c3660046131aa565b611a55565b34801561064d57600080fd5b5061068f61065c3660046131aa565b6016602052600090815260409020805460018201546002830154600390930154919290916001600160a01b039091169084565b6040516102b9949392919093845260208401929092526001600160a01b03166040830152606082015260800190565b3480156106ca57600080fd5b50600b546103a49081565b3480156106e157600080fd5b506103a460105481565b3480156106f757600080fd5b506103a4610706366004612f7b565b611ab5565b34801561071757600080fd5b50610614611b3b565b34801561072c57600080fd5b5061042d600081565b34801561074157600080fd5b506103a460155481565b34801561075757600080fd5b506102d7611d1b565b61033c61076e3660046131aa565b611d2a565b34801561077f57600080fd5b5061033c61078e36600461307b565b611f02565b34801561079f57600080fd5b50600c546103a49081565b3480156107b657600080fd5b5061033c6107c53660046131e4565b6000908152600d6020526040902060010155565b3480156107e557600080fd5b506107ee611f11565b6040516102b99190613351565b34801561080757600080fd5b50610810612107565b6040516102b991906132e4565b34801561082957600080fd5b5061033c610838366004613002565b6122dc565b34801561084957600080fd5b506102d76108583660046131aa565b612314565b34801561086957600080fd5b506108c86108783660046131aa565b6011602052600090815260409020805460018201546002830154600384015460048501546005860154600687015460079097015495966001600160a01b0390951695939492939192909160ff1688565b604080519889526001600160a01b039097166020890152958701949094526060860192909252608085015260a084015260c083015260ff1660e0820152610100016102b9565b34801561091a57600080fd5b506109696109293660046131aa565b600d602052600090815260409020805460018201546002909201549091906001600160a01b0381169060ff600160a01b8204811691600160a81b90041685565b6040805195865260208601949094526001600160a01b039092169284019290925290151560608301521515608082015260a0016102b9565b3480156109ad57600080fd5b506103a46109bc3660046131aa565b60146020526000908152604090205481565b3480156109da57600080fd5b506102ad6109e9366004612f95565b6001600160a01b03918216600090815260056020908152604080832093909416825291909152205460ff1690565b348015610a2357600080fd5b506009546103a49081565b348015610a3a57600080fd5b506103a461241d565b348015610a4f57600080fd5b50600a546103a49081565b60006001600160e01b03198216632483248360e11b1480610a7f5750610a7f82612428565b92915050565b606060008054610a94906135f7565b80601f0160208091040260200160405190810160405280929190818152602001828054610ac0906135f7565b8015610b0d5780601f10610ae257610100808354040283529160200191610b0d565b820191906000526020600020905b815481529060010190602001808311610af057829003601f168201915b5050505050905090565b6000610b2282612478565b506000908152600460205260409020546001600160a01b031690565b6000610b4982611a55565b9050806001600160a01b0316836001600160a01b03161415610bbc5760405162461bcd60e51b815260206004820152602160248201527f4552433732313a20617070726f76616c20746f2063757272656e74206f776e656044820152603960f91b60648201526084015b60405180910390fd5b336001600160a01b0382161480610bd85750610bd881336109e9565b610c4a5760405162461bcd60e51b815260206004820152603d60248201527f4552433732313a20617070726f76652063616c6c6572206973206e6f7420746f60448201527f6b656e206f776e6572206f7220617070726f76656420666f7220616c6c0000006064820152608401610bb3565b610c5483836124d7565b505050565b60008181526011602052604081206007015460ff166001148015610a7f575050600090815260116020526040902060060154421090565b600f6020526000908152604090208054610ca9906135f7565b80601f0160208091040260200160405190810160405280929190818152602001828054610cd5906135f7565b8015610d225780601f10610cf757610100808354040283529160200191610d22565b820191906000526020600020905b815481529060010190602001808311610d0557829003601f168201915b505050505081565b610d32612545565b600081815260116020526040902060060154421015610d8b5760405162461bcd60e51b8152602060048201526015602482015274185d58dd1a5bdb881b5d5cdd08189948195b991959605a1b6044820152606401610bb3565b6000818152601360205260409020546001600160a01b0316331415610dfd5760405162461bcd60e51b815260206004820152602260248201527f68696768657374206269646465722063616e6e6f7420776974686472617720626044820152611a5960f21b6064820152608401610bb3565b6000610e08600c5490565b90506000805b82811015610e8a573360166000610e268460016135b3565b81526020810191909152604001600020600201546001600160a01b03161415610e785760166000610e588360016135b3565b81526020019081526020016000206003015482610e7591906135b3565b91505b80610e8281613632565b915050610e0e565b50604051339082156108fc029083906000818181858888f19350505050158015610eb8573d6000803e3d6000fd5b505050610ec56001600755565b50565b600080610ed483611719565b905060018115151415610f1d5760405162461bcd60e51b815260206004820152601160248201527013919508185b1c9958591e48195e1a5cdd607a1b6044820152606401610bb3565b610f2b600880546001019055565b6000610f3660085490565b9050610f42338261259f565b610f4c81866125b9565b6000818152600f602090815260409091208551610f6b92870190612e31565b506040805160a08101825282815260006020808301828152338486019081526060850184815260808601858152888652600d9094529590932093518455516001840155905160029092018054935191511515600160a81b0260ff60a81b19921515600160a01b026001600160a81b03199095166001600160a01b039094169390931793909317161790555b949350505050565b611006612545565b61100f81610c59565b156110545760405162461bcd60e51b815260206004820152601560248201527430bab1ba34b7b71034b99039ba34b6361037b832b760591b6044820152606401610bb3565b600081815260116020908152604080832060139092529091205460018201546001600160a01b0391821691163314806110955750336001600160a01b038216145b6110f45760405162461bcd60e51b815260206004820152602a60248201527f6f6e6c792073656c6c6572206f722077696e6e65722063616e20636f6d706c656044820152693a329030bab1ba34b7b760b11b6064820152608401610bb3565b600083815260146020526040902054806111195760078301805460ff19169055610eb8565b600283015460018401546001600160a01b031661113781858461268b565b6040516001600160a01b0382169084156108fc029085906000818181858888f1935050505015801561116d573d6000803e3d6000fd5b50506001840180546001600160a01b0385166001600160a01b031991821681179092556000928352600d6020526040909220600201805490921617905560078301805460ff19169055505050610ec56001600755565b6111cd33826127ef565b6111e95760405162461bcd60e51b8152600401610bb3906134cf565b610c5483838361268b565b610c54838383604051806020016040528060008152506122dc565b611217612545565b61122081610c59565b6112605760405162461bcd60e51b8152602060048201526011602482015270185d58dd1a5bdb881a185cc8195b991959607a1b6044820152606401610bb3565b60008181526011602052604090206003015434116112c05760405162461bcd60e51b815260206004820152601f60248201527f56616c756520697320736d616c6c6572207468616e206269642076616c7565006044820152606401610bb3565b6000818152601160205260409020600101546001600160a01b031633141561132a5760405162461bcd60e51b815260206004820152601a60248201527f796f752063616e27742062696420796f7572206f776e206e66740000000000006044820152606401610bb3565b611338600c80546001019055565b6000611343600c5490565b60408051608081018252600085815260116020908152838220600290810154845281840188815233858701908152346060870181815289875260169095529690942094518555516001850155915191830180546001600160a01b0319166001600160a01b03909316929092179091555160039091015560155491925011156113f557346015819055600083815260136020908152604080832080546001600160a01b0319163317905560149091529020555b50610ec56001600755565b6060600061140d600b5490565b905060008060005b83811015611465576011600061142c8360016135b3565b815260200190815260200160002060030154600014611453576114506001846135b3565b92505b61145e6001826135b3565b9050611415565b5060008267ffffffffffffffff81111561148f57634e487b7160e01b600052604160045260246000fd5b60405190808252806020026020018201604052801561151457816020015b6115016040518061010001604052806000815260200160006001600160a01b031681526020016000815260200160008152602001600081526020016000815260200160008152602001600060ff1681525090565b8152602001906001900390816114ad5790505b50905060005b8481101561161d5760006011816115328460016135b3565b815260200190815260200160002090506011600083600161155391906135b3565b81526020019081526020016000206003015460001461160a5760408051610100810182528254815260018301546001600160a01b031660208201526002830154918101919091526003820154606082015260048201546080820152600582015460a0820152600682015460c0820152600782015460ff1660e082015283518490869081106115f157634e487b7160e01b600052603260045260246000fd5b60209081029190910101526116076001856135b3565b93505b506116166001826135b3565b905061151a565b50949350505050565b6000611636600b80546001019055565b6000611641600b5490565b905042600061165085836135b3565b60408051610100810182528581523360208083019182528284019a8b52606083018c8152608084019c8d5260a0840197885260c08401958652600160e0850181815260008b815260119094529590922093518455915190830180546001600160a01b0319166001600160a01b03909216919091179055985160028201559751600389015597516004880155915160058701555051600685015593516007909301805460ff191660ff909416939093179092555090919050565b600061171460095490565b905090565b60008061172560085490565b905082606060005b8381101561184f57600f60006117448360016135b3565b8152602001908152602001600020805461175d906135f7565b80601f0160208091040260200160405190810160405280929190818152602001828054611789906135f7565b80156117d65780601f106117ab576101008083540402835291602001916117d6565b820191906000526020600020905b8154815290600101906020018083116117b957829003601f168201915b50505050509150826040516020016117ee919061325c565b6040516020818303038152906040528051906020012082604051602001611815919061325c565b60405160208183030381529060405280519060200120141561183d5750600195945050505050565b8061184781613632565b91505061172d565b50600095945050505050565b6060600061186860085490565b9050600080805b838110156118ca5733600d60006118878460016135b3565b81526020810191909152604001600020600201546001600160a01b031614156118b857816118b481613632565b9250505b806118c281613632565b91505061186f565b5060008167ffffffffffffffff8111156118f457634e487b7160e01b600052604160045260246000fd5b60405190808252806020026020018201604052801561194d57816020015b6040805160a0810182526000808252602080830182905292820181905260608201819052608082015282526000199092019101816119125790505b50905060005b8481101561161d5733600d600061196b8460016135b3565b81526020810191909152604001600020600201546001600160a01b03161415611a43576000600d8161199e8460016135b3565b81526020808201929092526040908101600020815160a0810183528154815260018201549381019390935260028101546001600160a01b0381169284019290925260ff600160a01b8304811615156060850152600160a81b909204909116151560808301528451909250849087908110611a2857634e487b7160e01b600052603260045260246000fd5b60200260200101819052508480611a3e90613632565b955050505b80611a4d81613632565b915050611953565b6000818152600260205260408120546001600160a01b031680610a7f5760405162461bcd60e51b8152602060048201526018602482015277115490cdcc8c4e881a5b9d985b1a59081d1bdad95b88125160421b6044820152606401610bb3565b60006001600160a01b038216611b1f5760405162461bcd60e51b815260206004820152602960248201527f4552433732313a2061646472657373207a65726f206973206e6f7420612076616044820152683634b21037bbb732b960b91b6064820152608401610bb3565b506001600160a01b031660009081526003602052604090205490565b60606000611b4860085490565b905060008060005b83811015611ba057600d6000611b678360016135b3565b815260200190815260200160002060010154600014611b8e57611b8b6001846135b3565b92505b611b996001826135b3565b9050611b50565b5060008267ffffffffffffffff811115611bca57634e487b7160e01b600052604160045260246000fd5b604051908082528060200260200182016040528015611c2357816020015b6040805160a081018252600080825260208083018290529282018190526060820181905260808201528252600019909201910181611be85790505b50905060005b8481101561161d576000600d81611c418460016135b3565b81526020019081526020016000209050600d6000836001611c6291906135b3565b815260200190815260200160002060010154600014611d08576040805160a081018252825481526001830154602082015260028301546001600160a01b0381169282019290925260ff600160a01b8304811615156060830152600160a81b909204909116151560808201528351849086908110611cef57634e487b7160e01b600052603260045260246000fd5b6020908102919091010152611d056001856135b3565b93505b50611d146001826135b3565b9050611c29565b606060018054610a94906135f7565b6000818152600d6020526040902060018101546002909101546001600160a01b0316331415611d9b5760405162461bcd60e51b815260206004820152601a60248201527f796f752063616e27742062757920796f7572206f776e206e66740000000000006044820152606401610bb3565b6000828152600d60205260409020600201546001600160a01b0316611dc181338561268b565b611dcb8184610b3e565b6000838152600d6020526040808220600201805460ff60a81b1960ff60a01b1933166001600160a81b031990921691909117600160a01b1716600160a81b179055516001600160a01b038316913480156108fc02929091818181858888f19350505050158015611e3f573d6000803e3d6000fd5b50611e4e600980546001019055565b6000611e5960095490565b6040805160a08101825286815260208082019687526001600160a01b0395861682840190815233606084019081526001608085018181526000978852600e8552868820955186559951858201559151600285018054918a166001600160a01b0319909216919091179055516003909301805498511515600160a01b026001600160a81b0319909916939097169290921796909617909455948152600d9093525091812090910155565b611f0d33838361286d565b5050565b60606000611f1e60095490565b9050600080805b83811015611f805733600e6000611f3d8460016135b3565b81526020810191909152604001600020600201546001600160a01b03161415611f6e5781611f6a81613632565b9250505b80611f7881613632565b915050611f25565b5060008167ffffffffffffffff811115611faa57634e487b7160e01b600052604160045260246000fd5b60405190808252806020026020018201604052801561200357816020015b6040805160a081018252600080825260208083018290529282018190526060820181905260808201528252600019909201910181611fc85790505b50905060005b8481101561161d5733600e60006120218460016135b3565b81526020810191909152604001600020600201546001600160a01b031614156120f5576000600e816120548460016135b3565b81526020808201929092526040908101600020815160a0810183528154815260018201549381019390935260028101546001600160a01b039081169284019290925260038101549182166060840152600160a01b90910460ff161515608083015284519092508490879081106120da57634e487b7160e01b600052603260045260246000fd5b602002602001018190525084806120f090613632565b955050505b806120ff81613632565b915050612009565b60606000612114600c5490565b9050600080805b8381101561216b57601660006121328360016135b3565b815260200190815260200160002060030154600014612159578161215581613632565b9250505b8061216381613632565b91505061211b565b5060008167ffffffffffffffff81111561219557634e487b7160e01b600052604160045260246000fd5b6040519080825280602002602001820160405280156121fa57816020015b6121e76040518060800160405280600081526020016000815260200160006001600160a01b03168152602001600081525090565b8152602001906001900390816121b35790505b50905060005b8481101561161d57601660006122178360016135b3565b8152602001908152602001600020600301546000146122ca5760006016816122408460016135b3565b8152602080820192909252604090810160002081516080810183528154815260018201549381019390935260028101546001600160a01b0316918301919091526003810154606083015284519092508490879081106122af57634e487b7160e01b600052603260045260246000fd5b602002602001018190525084806122c590613632565b955050505b806122d481613632565b915050612200565b6122e633836127ef565b6123025760405162461bcd60e51b8152600401610bb3906134cf565b61230e8484848461293c565b50505050565b606061231f82612478565b60008281526006602052604081208054612338906135f7565b80601f0160208091040260200160405190810160405280929190818152602001828054612364906135f7565b80156123b15780601f10612386576101008083540402835291602001916123b1565b820191906000526020600020905b81548152906001019060200180831161239457829003601f168201915b5050505050905060006123cf60408051602081019091526000815290565b90508051600014156123e2575092915050565b8151156124145780826040516020016123fc929190613278565b60405160208183030381529060405292505050919050565b610ff68461296f565b600061171460085490565b60006001600160e01b031982166380ac58cd60e01b148061245957506001600160e01b03198216635b5e139f60e01b145b80610a7f57506301ffc9a760e01b6001600160e01b0319831614610a7f565b6000818152600260205260409020546001600160a01b0316610ec55760405162461bcd60e51b8152602060048201526018602482015277115490cdcc8c4e881a5b9d985b1a59081d1bdad95b88125160421b6044820152606401610bb3565b600081815260046020526040902080546001600160a01b0319166001600160a01b038416908117909155819061250c82611a55565b6001600160a01b03167f8c5be1e5ebec7d5bd14f71427d1e84f3dd0314c0f7b2291e5b200ac8c7c3b92560405160405180910390a45050565b600260075414156125985760405162461bcd60e51b815260206004820152601f60248201527f5265656e7472616e637947756172643a207265656e7472616e742063616c6c006044820152606401610bb3565b6002600755565b611f0d8282604051806020016040528060008152506129e3565b6000828152600260205260409020546001600160a01b03166126345760405162461bcd60e51b815260206004820152602e60248201527f45524337323155524953746f726167653a2055524920736574206f66206e6f6e60448201526d32bc34b9ba32b73a103a37b5b2b760911b6064820152608401610bb3565b6000828152600660209081526040909120825161265392840190612e31565b506040518281527ff8e1a15aba9398e019f0b49df1a4fde98ee17ae345cb5f6b5e2c27f5033e8ce79060200160405180910390a15050565b826001600160a01b031661269e82611a55565b6001600160a01b0316146126c45760405162461bcd60e51b8152600401610bb39061356e565b6001600160a01b0382166127265760405162461bcd60e51b8152602060048201526024808201527f4552433732313a207472616e7366657220746f20746865207a65726f206164646044820152637265737360e01b6064820152608401610bb3565b826001600160a01b031661273982611a55565b6001600160a01b03161461275f5760405162461bcd60e51b8152600401610bb39061356e565b600081815260046020908152604080832080546001600160a01b03199081169091556001600160a01b0387811680865260038552838620805460001901905590871680865283862080546001019055868652600290945282852080549092168417909155905184937fddf252ad1be2c89b69c2b068fc378daa952ba7f163c4a11628f55a4df523b3ef91a4505050565b6000806127fb83611a55565b9050806001600160a01b0316846001600160a01b0316148061284257506001600160a01b0380821660009081526005602090815260408083209388168352929052205460ff165b80610ff65750836001600160a01b031661285b84610b17565b6001600160a01b031614949350505050565b816001600160a01b0316836001600160a01b031614156128cf5760405162461bcd60e51b815260206004820152601960248201527f4552433732313a20617070726f766520746f2063616c6c6572000000000000006044820152606401610bb3565b6001600160a01b03838116600081815260056020908152604080832094871680845294825291829020805460ff191686151590811790915591519182527f17307eab39ab6107e8899845ad3d59bd9653f200f220920489ca2b5937696c31910160405180910390a3505050565b61294784848461268b565b61295384848484612a16565b61230e5760405162461bcd60e51b8152600401610bb39061351c565b606061297a82612478565b600061299160408051602081019091526000815290565b905060008151116129b157604051806020016040528060008152506129dc565b806129bb84612b23565b6040516020016129cc929190613278565b6040516020818303038152906040525b9392505050565b6129ed8383612bce565b6129fa6000848484612a16565b610c545760405162461bcd60e51b8152600401610bb39061351c565b60006001600160a01b0384163b15612b1857604051630a85bd0160e11b81526001600160a01b0385169063150b7a0290612a5a9033908990889088906004016132a7565b602060405180830381600087803b158015612a7457600080fd5b505af1925050508015612aa4575060408051601f3d908101601f19168201909252612aa1918101906130fa565b60015b612afe573d808015612ad2576040519150601f19603f3d011682016040523d82523d6000602084013e612ad7565b606091505b508051612af65760405162461bcd60e51b8152600401610bb39061351c565b805181602001fd5b6001600160e01b031916630a85bd0160e11b149050610ff6565b506001949350505050565b60606000612b3083612d59565b600101905060008167ffffffffffffffff811115612b5e57634e487b7160e01b600052604160045260246000fd5b6040519080825280601f01601f191660200182016040528015612b88576020820181803683370190505b5090508181016020015b600019016f181899199a1a9b1b9c1cb0b131b232b360811b600a86061a8153600a8504945084612bc157612bc6565b612b92565b509392505050565b6001600160a01b038216612c245760405162461bcd60e51b815260206004820181905260248201527f4552433732313a206d696e7420746f20746865207a65726f20616464726573736044820152606401610bb3565b6000818152600260205260409020546001600160a01b031615612c895760405162461bcd60e51b815260206004820152601c60248201527f4552433732313a20746f6b656e20616c7265616479206d696e746564000000006044820152606401610bb3565b6000818152600260205260409020546001600160a01b031615612cee5760405162461bcd60e51b815260206004820152601c60248201527f4552433732313a20746f6b656e20616c7265616479206d696e746564000000006044820152606401610bb3565b6001600160a01b038216600081815260036020908152604080832080546001019055848352600290915280822080546001600160a01b0319168417905551839291907fddf252ad1be2c89b69c2b068fc378daa952ba7f163c4a11628f55a4df523b3ef908290a45050565b60008072184f03e93ff9f4daa797ed6e38ed64bf6a1f0160401b8310612d985772184f03e93ff9f4daa797ed6e38ed64bf6a1f0160401b830492506040015b6d04ee2d6d415b85acef81000000008310612dc4576d04ee2d6d415b85acef8100000000830492506020015b662386f26fc100008310612de257662386f26fc10000830492506010015b6305f5e1008310612dfa576305f5e100830492506008015b6127108310612e0e57612710830492506004015b60648310612e20576064830492506002015b600a8310610a7f5760010192915050565b828054612e3d906135f7565b90600052602060002090601f016020900481019282612e5f5760008555612ea5565b82601f10612e7857805160ff1916838001178555612ea5565b82800160010185558215612ea5579182015b82811115612ea5578251825591602001919060010190612e8a565b50612eb1929150612eb5565b5090565b5b80821115612eb15760008155600101612eb6565b600067ffffffffffffffff80841115612ee557612ee5613663565b604051601f8501601f19908116603f01168101908282118183101715612f0d57612f0d613663565b81604052809350858152868686011115612f2657600080fd5b858560208301376000602087830101525050509392505050565b80356001600160a01b0381168114612f5757600080fd5b919050565b600082601f830112612f6c578081fd5b6129dc83833560208501612eca565b600060208284031215612f8c578081fd5b6129dc82612f40565b60008060408385031215612fa7578081fd5b612fb083612f40565b9150612fbe60208401612f40565b90509250929050565b600080600060608486031215612fdb578081fd5b612fe484612f40565b9250612ff260208501612f40565b9150604084013590509250925092565b60008060008060808587031215613017578081fd5b61302085612f40565b935061302e60208601612f40565b925060408501359150606085013567ffffffffffffffff811115613050578182fd5b8501601f81018713613060578182fd5b61306f87823560208401612eca565b91505092959194509250565b6000806040838503121561308d578182fd5b61309683612f40565b9150602083013580151581146130aa578182fd5b809150509250929050565b600080604083850312156130c7578182fd5b6130d083612f40565b946020939093013593505050565b6000602082840312156130ef578081fd5b81356129dc81613679565b60006020828403121561310b578081fd5b81516129dc81613679565b600060208284031215613127578081fd5b813567ffffffffffffffff81111561313d578182fd5b610ff684828501612f5c565b6000806040838503121561315b578182fd5b823567ffffffffffffffff80821115613172578384fd5b61317e86838701612f5c565b93506020850135915080821115613193578283fd5b506131a085828601612f5c565b9150509250929050565b6000602082840312156131bb578081fd5b5035919050565b600080604083850312156131d4578182fd5b82359150612fbe60208401612f40565b600080604083850312156131f6578182fd5b50508035926020909101359150565b600080600060608486031215613219578283fd5b505081359360208301359350604090920135919050565b600081518084526132488160208601602086016135cb565b601f01601f19169290920160200192915050565b6000825161326e8184602087016135cb565b9190910192915050565b6000835161328a8184602088016135cb565b83519083019061329e8183602088016135cb565b01949350505050565b6001600160a01b03858116825284166020820152604081018390526080606082018190526000906132da90830184613230565b9695505050505050565b602080825282518282018190526000919060409081850190868401855b82811015613344578151805185528681015187860152858101516001600160a01b0316868601526060908101519085015260809093019290850190600101613301565b5091979650505050505050565b602080825282518282018190526000919060409081850190868401855b82811015613344578151805185528681015187860152858101516001600160a01b03908116878701526060808301519091169086015260809081015115159085015260a0909301929085019060010161336e565b602080825282518282018190526000919060409081850190868401855b82811015613344578151805185528681015187860152858101516001600160a01b03168686015260608082015115159086015260809081015115159085015260a090930192908501906001016133df565b602080825282518282018190526000919060409081850190868401855b8281101561334457815180518552868101516001600160a01b0316878601528581015186860152606080820151908601526080808201519086015260a0808201519086015260c0808201519086015260e09081015160ff1690850152610100909301929085019060010161344d565b6020815260006129dc6020830184613230565b6020808252602d908201527f4552433732313a2063616c6c6572206973206e6f7420746f6b656e206f776e6560408201526c1c881bdc88185c1c1c9bdd9959609a1b606082015260800190565b60208082526032908201527f4552433732313a207472616e7366657220746f206e6f6e20455243373231526560408201527131b2b4bb32b91034b6b83632b6b2b73a32b960711b606082015260800190565b60208082526025908201527f4552433732313a207472616e736665722066726f6d20696e636f72726563742060408201526437bbb732b960d91b606082015260800190565b600082198211156135c6576135c661364d565b500190565b60005b838110156135e65781810151838201526020016135ce565b8381111561230e5750506000910152565b600181811c9082168061360b57607f821691505b6020821081141561362c57634e487b7160e01b600052602260045260246000fd5b50919050565b60006000198214156136465761364661364d565b5060010190565b634e487b7160e01b600052601160045260246000fd5b634e487b7160e01b600052604160045260246000fd5b6001600160e01b031981168114610ec557600080fdfea2646970667358221220c32011f1485bfd6435557291a2c999c65326957da22eac5b3d7ec8f98438040264736f6c63430008040033",
  "linkReferences": {},
  "deployedLinkReferences": {}
}