{
  "_format": "hh-sol-artifact-1",
  "contractName": "PolygonNFTMarketplace",
  "sourceName": "contracts/PolygonNFTMarketplace.sol",
  "abi": [
    {
      "inputs": [],
      "stateMutability": "nonpayable",
      "type": "constructor"
    },
    {
      "anonymous": false,
      "inputs": [
        {
          "indexed": true,
          "internalType": "address",
          "name": "owner",
          "type": "address"
        },
        {
          "indexed": true,
          "internalType": "address",
          "name": "approved",
          "type": "address"
        },
        {
          "indexed": true,
          "internalType": "uint256",
          "name": "tokenId",
          "type": "uint256"
        }
      ],
      "name": "Approval",
      "type": "event"
    },
    {
      "anonymous": false,
      "inputs": [
        {
          "indexed": true,
          "internalType": "address",
          "name": "owner",
          "type": "address"
        },
        {
          "indexed": true,
          "internalType": "address",
          "name": "operator",
          "type": "address"
        },
        {
          "indexed": false,
          "internalType": "bool",
          "name": "approved",
          "type": "bool"
        }
      ],
      "name": "ApprovalForAll",
      "type": "event"
    },
    {
      "anonymous": false,
      "inputs": [
        {
          "indexed": false,
          "internalType": "uint256",
          "name": "_fromTokenId",
          "type": "uint256"
        },
        {
          "indexed": false,
          "internalType": "uint256",
          "name": "_toTokenId",
          "type": "uint256"
        }
      ],
      "name": "BatchMetadataUpdate",
      "type": "event"
    },
    {
      "anonymous": false,
      "inputs": [
        {
          "indexed": false,
          "internalType": "uint256",
          "name": "_tokenId",
          "type": "uint256"
        }
      ],
      "name": "MetadataUpdate",
      "type": "event"
    },
    {
      "anonymous": false,
      "inputs": [
        {
          "indexed": true,
          "internalType": "address",
          "name": "from",
          "type": "address"
        },
        {
          "indexed": true,
          "internalType": "address",
          "name": "to",
          "type": "address"
        },
        {
          "indexed": true,
          "internalType": "uint256",
          "name": "tokenId",
          "type": "uint256"
        }
      ],
      "name": "Transfer",
      "type": "event"
    },
    {
      "inputs": [
        {
          "internalType": "uint256",
          "name": "tokenId",
          "type": "uint256"
        }
      ],
      "name": "BuyNFt",
      "outputs": [],
      "stateMutability": "payable",
      "type": "function"
    },
    {
      "inputs": [],
      "name": "TokenCount",
      "outputs": [
        {
          "internalType": "uint256",
          "name": "_value",
          "type": "uint256"
        }
      ],
      "stateMutability": "view",
      "type": "function"
    },
    {
      "inputs": [
        {
          "internalType": "address",
          "name": "to",
          "type": "address"
        },
        {
          "internalType": "uint256",
          "name": "tokenId",
          "type": "uint256"
        }
      ],
      "name": "approve",
      "outputs": [],
      "stateMutability": "nonpayable",
      "type": "function"
    },
    {
      "inputs": [
        {
          "internalType": "address",
          "name": "owner",
          "type": "address"
        }
      ],
      "name": "balanceOf",
      "outputs": [
        {
          "internalType": "uint256",
          "name": "",
          "type": "uint256"
        }
      ],
      "stateMutability": "view",
      "type": "function"
    },
    {
      "inputs": [],
      "name": "getAllNfts",
      "outputs": [
        {
          "components": [
            {
              "internalType": "uint256",
              "name": "tokenId",
              "type": "uint256"
            },
            {
              "internalType": "uint256",
              "name": "price",
              "type": "uint256"
            },
            {
              "internalType": "address payable",
              "name": "owner",
              "type": "address"
            },
            {
              "internalType": "bool",
              "name": "NFTsold",
              "type": "bool"
            }
          ],
          "internalType": "struct PolygonNFTMarketplace.ListedToken[]",
          "name": "",
          "type": "tuple[]"
        }
      ],
      "stateMutability": "view",
      "type": "function"
    },
    {
      "inputs": [
        {
          "internalType": "uint256",
          "name": "tokenId",
          "type": "uint256"
        }
      ],
      "name": "getApproved",
      "outputs": [
        {
          "internalType": "address",
          "name": "",
          "type": "address"
        }
      ],
      "stateMutability": "view",
      "type": "function"
    },
    {
      "inputs": [],
      "name": "getMyNFTs",
      "outputs": [
        {
          "components": [
            {
              "internalType": "uint256",
              "name": "tokenId",
              "type": "uint256"
            },
            {
              "internalType": "uint256",
              "name": "price",
              "type": "uint256"
            },
            {
              "internalType": "address payable",
              "name": "owner",
              "type": "address"
            },
            {
              "internalType": "bool",
              "name": "NFTsold",
              "type": "bool"
            }
          ],
          "internalType": "struct PolygonNFTMarketplace.ListedToken[]",
          "name": "",
          "type": "tuple[]"
        }
      ],
      "stateMutability": "view",
      "type": "function"
    },
    {
      "inputs": [
        {
          "internalType": "uint256",
          "name": "",
          "type": "uint256"
        }
      ],
      "name": "idToListedToken",
      "outputs": [
        {
          "internalType": "uint256",
          "name": "tokenId",
          "type": "uint256"
        },
        {
          "internalType": "uint256",
          "name": "price",
          "type": "uint256"
        },
        {
          "internalType": "address payable",
          "name": "owner",
          "type": "address"
        },
        {
          "internalType": "bool",
          "name": "NFTsold",
          "type": "bool"
        }
      ],
      "stateMutability": "view",
      "type": "function"
    },
    {
      "inputs": [
        {
          "internalType": "address",
          "name": "owner",
          "type": "address"
        },
        {
          "internalType": "address",
          "name": "operator",
          "type": "address"
        }
      ],
      "name": "isApprovedForAll",
      "outputs": [
        {
          "internalType": "bool",
          "name": "",
          "type": "bool"
        }
      ],
      "stateMutability": "view",
      "type": "function"
    },
    {
      "inputs": [
        {
          "internalType": "string",
          "name": "tokenURI",
          "type": "string"
        },
        {
          "internalType": "uint256",
          "name": "price",
          "type": "uint256"
        }
      ],
      "name": "mint",
      "outputs": [
        {
          "internalType": "uint256",
          "name": "",
          "type": "uint256"
        }
      ],
      "stateMutability": "payable",
      "type": "function"
    },
    {
      "inputs": [],
      "name": "name",
      "outputs": [
        {
          "internalType": "string",
          "name": "",
          "type": "string"
        }
      ],
      "stateMutability": "view",
      "type": "function"
    },
    {
      "inputs": [
        {
          "internalType": "uint256",
          "name": "tokenId",
          "type": "uint256"
        }
      ],
      "name": "ownerOf",
      "outputs": [
        {
          "internalType": "address",
          "name": "",
          "type": "address"
        }
      ],
      "stateMutability": "view",
      "type": "function"
    },
    {
      "inputs": [
        {
          "internalType": "address",
          "name": "from",
          "type": "address"
        },
        {
          "internalType": "address",
          "name": "to",
          "type": "address"
        },
        {
          "internalType": "uint256",
          "name": "tokenId",
          "type": "uint256"
        }
      ],
      "name": "safeTransferFrom",
      "outputs": [],
      "stateMutability": "nonpayable",
      "type": "function"
    },
    {
      "inputs": [
        {
          "internalType": "address",
          "name": "from",
          "type": "address"
        },
        {
          "internalType": "address",
          "name": "to",
          "type": "address"
        },
        {
          "internalType": "uint256",
          "name": "tokenId",
          "type": "uint256"
        },
        {
          "internalType": "bytes",
          "name": "data",
          "type": "bytes"
        }
      ],
      "name": "safeTransferFrom",
      "outputs": [],
      "stateMutability": "nonpayable",
      "type": "function"
    },
    {
      "inputs": [
        {
          "internalType": "address",
          "name": "operator",
          "type": "address"
        },
        {
          "internalType": "bool",
          "name": "approved",
          "type": "bool"
        }
      ],
      "name": "setApprovalForAll",
      "outputs": [],
      "stateMutability": "nonpayable",
      "type": "function"
    },
    {
      "inputs": [
        {
          "internalType": "bytes4",
          "name": "interfaceId",
          "type": "bytes4"
        }
      ],
      "name": "supportsInterface",
      "outputs": [
        {
          "internalType": "bool",
          "name": "",
          "type": "bool"
        }
      ],
      "stateMutability": "view",
      "type": "function"
    },
    {
      "inputs": [],
      "name": "symbol",
      "outputs": [
        {
          "internalType": "string",
          "name": "",
          "type": "string"
        }
      ],
      "stateMutability": "view",
      "type": "function"
    },
    {
      "inputs": [
        {
          "internalType": "uint256",
          "name": "tokenId",
          "type": "uint256"
        }
      ],
      "name": "tokenURI",
      "outputs": [
        {
          "internalType": "string",
          "name": "",
          "type": "string"
        }
      ],
      "stateMutability": "view",
      "type": "function"
    },
    {
      "inputs": [
        {
          "internalType": "address",
          "name": "from",
          "type": "address"
        },
        {
          "internalType": "address",
          "name": "to",
          "type": "address"
        },
        {
          "internalType": "uint256",
          "name": "tokenId",
          "type": "uint256"
        }
      ],
      "name": "transferFrom",
      "outputs": [],
      "stateMutability": "nonpayable",
      "type": "function"
    }
  ],
  "bytecode": "0x60806040523480156200001157600080fd5b50604080518082018252601581527f506f6c79676f6e4e46544d61726b6574706c61636500000000000000000000006020808301918252835180850190945260048452634441524b60e01b908401528151919291620000739160009162000092565b5080516200008990600190602084019062000092565b50505062000175565b828054620000a09062000138565b90600052602060002090601f016020900481019282620000c457600085556200010f565b82601f10620000df57805160ff19168380011785556200010f565b828001600101855582156200010f579182015b828111156200010f578251825591602001919060010190620000f2565b506200011d92915062000121565b5090565b5b808211156200011d576000815560010162000122565b600181811c908216806200014d57607f821691505b602082108114156200016f57634e487b7160e01b600052602260045260246000fd5b50919050565b611dca80620001856000396000f3fe6080604052600436106101145760003560e01c80636352211e116100a0578063a22cb46511610064578063a22cb465146102e1578063b88d4fde14610301578063c87b56dd14610321578063e57a497a14610341578063e985e9c5146103c357600080fd5b80636352211e1461026457806370a0823114610284578063732e8d73146102a45780638e76d2ea146102b957806395d89b41146102cc57600080fd5b8063095ea7b3116100e7578063095ea7b3146101c957806323b872dd146101eb57806336ad658f1461020b57806342842e0e14610222578063629cb2e41461024257600080fd5b806301ffc9a714610119578063056b01ce1461014e57806306fdde031461016f578063081812fc14610191575b600080fd5b34801561012557600080fd5b50610139610134366004611a14565b61040c565b60405190151581526020015b60405180910390f35b61016161015c366004611a4c565b610437565b604051908152602001610145565b34801561017b57600080fd5b50610184610533565b6040516101459190611bc1565b34801561019d57600080fd5b506101b16101ac366004611aa2565b6105c5565b6040516001600160a01b039091168152602001610145565b3480156101d557600080fd5b506101e96101e43660046119eb565b6105ec565b005b3480156101f757600080fd5b506101e96102063660046118fd565b610702565b34801561021757600080fd5b506007546101619081565b34801561022e57600080fd5b506101e961023d3660046118fd565b610733565b34801561024e57600080fd5b5061025761074e565b6040516101459190611b52565b34801561027057600080fd5b506101b161027f366004611aa2565b610938565b34801561029057600080fd5b5061016161029f3660046118b1565b610998565b3480156102b057600080fd5b50610257610a1e565b6101e96102c7366004611aa2565b610b73565b3480156102d857600080fd5b50610184610c76565b3480156102ed57600080fd5b506101e96102fc3660046119b1565b610c85565b34801561030d57600080fd5b506101e961031c366004611938565b610c94565b34801561032d57600080fd5b5061018461033c366004611aa2565b610ccc565b34801561034d57600080fd5b5061039261035c366004611aa2565b6008602052600090815260409020805460018201546002909201549091906001600160a01b03811690600160a01b900460ff1684565b604051610145949392919093845260208401929092526001600160a01b031660408301521515606082015260800190565b3480156103cf57600080fd5b506101396103de3660046118cb565b6001600160a01b03918216600090815260056020908152604080832093909416825291909152205460ff1690565b60006001600160e01b03198216632483248360e11b1480610431575061043182610ddd565b92915050565b600080821161048d5760405162461bcd60e51b815260206004820152601860248201527f70726963652063616e742774206265206e65676174697665000000000000000060448201526064015b60405180910390fd5b61049b600780546001019055565b60006104a660075490565b90506104b23382610e2d565b6104bc8185610e47565b604080516080810182528281526020808201868152338385019081526000606085018181528782526008909452949094209251835551600183015591516002909101805492511515600160a01b026001600160a81b03199093166001600160a01b03909216919091179190911790555b9392505050565b60606000805461054290611cfc565b80601f016020809104026020016040519081016040528092919081815260200182805461056e90611cfc565b80156105bb5780601f10610590576101008083540402835291602001916105bb565b820191906000526020600020905b81548152906001019060200180831161059e57829003601f168201915b5050505050905090565b60006105d082610f19565b506000908152600460205260409020546001600160a01b031690565b60006105f782610938565b9050806001600160a01b0316836001600160a01b031614156106655760405162461bcd60e51b815260206004820152602160248201527f4552433732313a20617070726f76616c20746f2063757272656e74206f776e656044820152603960f91b6064820152608401610484565b336001600160a01b0382161480610681575061068181336103de565b6106f35760405162461bcd60e51b815260206004820152603d60248201527f4552433732313a20617070726f76652063616c6c6572206973206e6f7420746f60448201527f6b656e206f776e6572206f7220617070726f76656420666f7220616c6c0000006064820152608401610484565b6106fd8383610f7b565b505050565b61070c3382610fe9565b6107285760405162461bcd60e51b815260040161048490611bd4565b6106fd838383611067565b6106fd83838360405180602001604052806000815250610c94565b6060600061075b60075490565b9050600080805b838110156107bd57336008600061077a846001611cb8565b81526020810191909152604001600020600201546001600160a01b031614156107ab57816107a781611d37565b9250505b806107b581611d37565b915050610762565b5060008167ffffffffffffffff8111156107e757634e487b7160e01b600052604160045260246000fd5b60405190808252806020026020018201604052801561083957816020015b6040805160808101825260008082526020808301829052928201819052606082015282526000199092019101816108055790505b50905060005b8481101561092f573360086000610857846001611cb8565b81526020810191909152604001600020600201546001600160a01b0316141561091d57600060088161088a846001611cb8565b8152602080820192909252604090810160002081516080810183528154815260018201549381019390935260028101546001600160a01b03811692840192909252600160a01b90910460ff1615156060830152845190925084908790811061090257634e487b7160e01b600052603260045260246000fd5b6020026020010181905250848061091890611d37565b955050505b8061092781611d37565b91505061083f565b50949350505050565b6000818152600260205260408120546001600160a01b0316806104315760405162461bcd60e51b8152602060048201526018602482015277115490cdcc8c4e881a5b9d985b1a59081d1bdad95b88125160421b6044820152606401610484565b60006001600160a01b038216610a025760405162461bcd60e51b815260206004820152602960248201527f4552433732313a2061646472657373207a65726f206973206e6f7420612076616044820152683634b21037bbb732b960b91b6064820152608401610484565b506001600160a01b031660009081526003602052604090205490565b60606000610a2b60075490565b90506000808267ffffffffffffffff811115610a5757634e487b7160e01b600052604160045260246000fd5b604051908082528060200260200182016040528015610aa957816020015b604080516080810182526000808252602080830182905292820181905260608201528252600019909201910181610a755790505b50905060005b83811015610b6b576000600881610ac7846001611cb8565b8152602080820192909252604090810160002081516080810183528154815260018201549381019390935260028101546001600160a01b03811692840192909252600160a01b90910460ff16151560608301528451909250849086908110610b3f57634e487b7160e01b600052603260045260246000fd5b6020908102919091010152610b55600185611cb8565b9350610b649050600182611cb8565b9050610aaf565b509392505050565b6000818152600860205260409020600201546001600160a01b0316331415610bdd5760405162461bcd60e51b815260206004820152601a60248201527f796f752063616e27742062757920796f7572206f776e206e66740000000000006044820152606401610484565b6000818152600860205260409020600201546001600160a01b0316610c03813384611067565b610c0d81836105ec565b60008281526008602052604080822060028101805460ff60a01b1933166001600160a81b031990911617600160a01b1790556001015490516001600160a01b0384169282156108fc02929190818181858888f193505050501580156106fd573d6000803e3d6000fd5b60606001805461054290611cfc565b610c903383836111cb565b5050565b610c9e3383610fe9565b610cba5760405162461bcd60e51b815260040161048490611bd4565b610cc68484848461129a565b50505050565b6060610cd782610f19565b60008281526006602052604081208054610cf090611cfc565b80601f0160208091040260200160405190810160405280929190818152602001828054610d1c90611cfc565b8015610d695780601f10610d3e57610100808354040283529160200191610d69565b820191906000526020600020905b815481529060010190602001808311610d4c57829003601f168201915b505050505090506000610d8760408051602081019091526000815290565b9050805160001415610d9a575092915050565b815115610dcc578082604051602001610db4929190611ae6565b60405160208183030381529060405292505050919050565b610dd5846112cd565b949350505050565b60006001600160e01b031982166380ac58cd60e01b1480610e0e57506001600160e01b03198216635b5e139f60e01b145b8061043157506301ffc9a760e01b6001600160e01b0319831614610431565b610c90828260405180602001604052806000815250611340565b6000828152600260205260409020546001600160a01b0316610ec25760405162461bcd60e51b815260206004820152602e60248201527f45524337323155524953746f726167653a2055524920736574206f66206e6f6e60448201526d32bc34b9ba32b73a103a37b5b2b760911b6064820152608401610484565b60008281526006602090815260409091208251610ee192840190611786565b506040518281527ff8e1a15aba9398e019f0b49df1a4fde98ee17ae345cb5f6b5e2c27f5033e8ce79060200160405180910390a15050565b6000818152600260205260409020546001600160a01b0316610f785760405162461bcd60e51b8152602060048201526018602482015277115490cdcc8c4e881a5b9d985b1a59081d1bdad95b88125160421b6044820152606401610484565b50565b600081815260046020526040902080546001600160a01b0319166001600160a01b0384169081179091558190610fb082610938565b6001600160a01b03167f8c5be1e5ebec7d5bd14f71427d1e84f3dd0314c0f7b2291e5b200ac8c7c3b92560405160405180910390a45050565b600080610ff583610938565b9050806001600160a01b0316846001600160a01b0316148061103c57506001600160a01b0380821660009081526005602090815260408083209388168352929052205460ff165b80610dd55750836001600160a01b0316611055846105c5565b6001600160a01b031614949350505050565b826001600160a01b031661107a82610938565b6001600160a01b0316146110a05760405162461bcd60e51b815260040161048490611c73565b6001600160a01b0382166111025760405162461bcd60e51b8152602060048201526024808201527f4552433732313a207472616e7366657220746f20746865207a65726f206164646044820152637265737360e01b6064820152608401610484565b826001600160a01b031661111582610938565b6001600160a01b03161461113b5760405162461bcd60e51b815260040161048490611c73565b600081815260046020908152604080832080546001600160a01b03199081169091556001600160a01b0387811680865260038552838620805460001901905590871680865283862080546001019055868652600290945282852080549092168417909155905184937fddf252ad1be2c89b69c2b068fc378daa952ba7f163c4a11628f55a4df523b3ef91a4505050565b816001600160a01b0316836001600160a01b0316141561122d5760405162461bcd60e51b815260206004820152601960248201527f4552433732313a20617070726f766520746f2063616c6c6572000000000000006044820152606401610484565b6001600160a01b03838116600081815260056020908152604080832094871680845294825291829020805460ff191686151590811790915591519182527f17307eab39ab6107e8899845ad3d59bd9653f200f220920489ca2b5937696c31910160405180910390a3505050565b6112a5848484611067565b6112b184848484611373565b610cc65760405162461bcd60e51b815260040161048490611c21565b60606112d882610f19565b60006112ef60408051602081019091526000815290565b9050600081511161130f576040518060200160405280600081525061052c565b8061131984611480565b60405160200161132a929190611ae6565b6040516020818303038152906040529392505050565b61134a8383611523565b6113576000848484611373565b6106fd5760405162461bcd60e51b815260040161048490611c21565b60006001600160a01b0384163b1561147557604051630a85bd0160e11b81526001600160a01b0385169063150b7a02906113b7903390899088908890600401611b15565b602060405180830381600087803b1580156113d157600080fd5b505af1925050508015611401575060408051601f3d908101601f191682019092526113fe91810190611a30565b60015b61145b573d80801561142f576040519150601f19603f3d011682016040523d82523d6000602084013e611434565b606091505b5080516114535760405162461bcd60e51b815260040161048490611c21565b805181602001fd5b6001600160e01b031916630a85bd0160e11b149050610dd5565b506001949350505050565b6060600061148d836116ae565b600101905060008167ffffffffffffffff8111156114bb57634e487b7160e01b600052604160045260246000fd5b6040519080825280601f01601f1916602001820160405280156114e5576020820181803683370190505b5090508181016020015b600019016f181899199a1a9b1b9c1cb0b131b232b360811b600a86061a8153600a850494508461151e57610b6b565b6114ef565b6001600160a01b0382166115795760405162461bcd60e51b815260206004820181905260248201527f4552433732313a206d696e7420746f20746865207a65726f20616464726573736044820152606401610484565b6000818152600260205260409020546001600160a01b0316156115de5760405162461bcd60e51b815260206004820152601c60248201527f4552433732313a20746f6b656e20616c7265616479206d696e746564000000006044820152606401610484565b6000818152600260205260409020546001600160a01b0316156116435760405162461bcd60e51b815260206004820152601c60248201527f4552433732313a20746f6b656e20616c7265616479206d696e746564000000006044820152606401610484565b6001600160a01b038216600081815260036020908152604080832080546001019055848352600290915280822080546001600160a01b0319168417905551839291907fddf252ad1be2c89b69c2b068fc378daa952ba7f163c4a11628f55a4df523b3ef908290a45050565b60008072184f03e93ff9f4daa797ed6e38ed64bf6a1f0160401b83106116ed5772184f03e93ff9f4daa797ed6e38ed64bf6a1f0160401b830492506040015b6d04ee2d6d415b85acef81000000008310611719576d04ee2d6d415b85acef8100000000830492506020015b662386f26fc10000831061173757662386f26fc10000830492506010015b6305f5e100831061174f576305f5e100830492506008015b612710831061176357612710830492506004015b60648310611775576064830492506002015b600a83106104315760010192915050565b82805461179290611cfc565b90600052602060002090601f0160209004810192826117b457600085556117fa565b82601f106117cd57805160ff19168380011785556117fa565b828001600101855582156117fa579182015b828111156117fa5782518255916020019190600101906117df565b5061180692915061180a565b5090565b5b80821115611806576000815560010161180b565b600067ffffffffffffffff8084111561183a5761183a611d68565b604051601f8501601f19908116603f0116810190828211818310171561186257611862611d68565b8160405280935085815286868601111561187b57600080fd5b858560208301376000602087830101525050509392505050565b80356001600160a01b03811681146118ac57600080fd5b919050565b6000602082840312156118c2578081fd5b61052c82611895565b600080604083850312156118dd578081fd5b6118e683611895565b91506118f460208401611895565b90509250929050565b600080600060608486031215611911578081fd5b61191a84611895565b925061192860208501611895565b9150604084013590509250925092565b6000806000806080858703121561194d578081fd5b61195685611895565b935061196460208601611895565b925060408501359150606085013567ffffffffffffffff811115611986578182fd5b8501601f81018713611996578182fd5b6119a58782356020840161181f565b91505092959194509250565b600080604083850312156119c3578182fd5b6119cc83611895565b9150602083013580151581146119e0578182fd5b809150509250929050565b600080604083850312156119fd578182fd5b611a0683611895565b946020939093013593505050565b600060208284031215611a25578081fd5b813561052c81611d7e565b600060208284031215611a41578081fd5b815161052c81611d7e565b60008060408385031215611a5e578182fd5b823567ffffffffffffffff811115611a74578283fd5b8301601f81018513611a84578283fd5b611a938582356020840161181f565b95602094909401359450505050565b600060208284031215611ab3578081fd5b5035919050565b60008151808452611ad2816020860160208601611cd0565b601f01601f19169290920160200192915050565b60008351611af8818460208801611cd0565b835190830190611b0c818360208801611cd0565b01949350505050565b6001600160a01b0385811682528416602082015260408101839052608060608201819052600090611b4890830184611aba565b9695505050505050565b602080825282518282018190526000919060409081850190868401855b82811015611bb4578151805185528681015187860152858101516001600160a01b03168686015260609081015115159085015260809093019290850190600101611b6f565b5091979650505050505050565b60208152600061052c6020830184611aba565b6020808252602d908201527f4552433732313a2063616c6c6572206973206e6f7420746f6b656e206f776e6560408201526c1c881bdc88185c1c1c9bdd9959609a1b606082015260800190565b60208082526032908201527f4552433732313a207472616e7366657220746f206e6f6e20455243373231526560408201527131b2b4bb32b91034b6b83632b6b2b73a32b960711b606082015260800190565b60208082526025908201527f4552433732313a207472616e736665722066726f6d20696e636f72726563742060408201526437bbb732b960d91b606082015260800190565b60008219821115611ccb57611ccb611d52565b500190565b60005b83811015611ceb578181015183820152602001611cd3565b83811115610cc65750506000910152565b600181811c90821680611d1057607f821691505b60208210811415611d3157634e487b7160e01b600052602260045260246000fd5b50919050565b6000600019821415611d4b57611d4b611d52565b5060010190565b634e487b7160e01b600052601160045260246000fd5b634e487b7160e01b600052604160045260246000fd5b6001600160e01b031981168114610f7857600080fdfea264697066735822122010fb5f44b2d586d03dbea91e636bc06d7db452992da519f2ff48d08dec31510f64736f6c63430008040033",
  "linkReferences": {},
  "deployedLinkReferences": {}
}