{
  "_format": "hh-sol-artifact-1",
  "contractName": "PolygonNFTMarketplace",
  "sourceName": "contracts/PolygonNFTMarketplace.sol",
  "abi": [
    {
      "inputs": [],
      "stateMutability": "nonpayable",
      "type": "constructor"
    },
    {
      "anonymous": false,
      "inputs": [
        {
          "indexed": true,
          "internalType": "address",
          "name": "owner",
          "type": "address"
        },
        {
          "indexed": true,
          "internalType": "address",
          "name": "approved",
          "type": "address"
        },
        {
          "indexed": true,
          "internalType": "uint256",
          "name": "tokenId",
          "type": "uint256"
        }
      ],
      "name": "Approval",
      "type": "event"
    },
    {
      "anonymous": false,
      "inputs": [
        {
          "indexed": true,
          "internalType": "address",
          "name": "owner",
          "type": "address"
        },
        {
          "indexed": true,
          "internalType": "address",
          "name": "operator",
          "type": "address"
        },
        {
          "indexed": false,
          "internalType": "bool",
          "name": "approved",
          "type": "bool"
        }
      ],
      "name": "ApprovalForAll",
      "type": "event"
    },
    {
      "anonymous": false,
      "inputs": [
        {
          "indexed": false,
          "internalType": "uint256",
          "name": "_fromTokenId",
          "type": "uint256"
        },
        {
          "indexed": false,
          "internalType": "uint256",
          "name": "_toTokenId",
          "type": "uint256"
        }
      ],
      "name": "BatchMetadataUpdate",
      "type": "event"
    },
    {
      "anonymous": false,
      "inputs": [
        {
          "indexed": false,
          "internalType": "uint256",
          "name": "_tokenId",
          "type": "uint256"
        }
      ],
      "name": "MetadataUpdate",
      "type": "event"
    },
    {
      "anonymous": false,
      "inputs": [
        {
          "indexed": true,
          "internalType": "address",
          "name": "from",
          "type": "address"
        },
        {
          "indexed": true,
          "internalType": "address",
          "name": "to",
          "type": "address"
        },
        {
          "indexed": true,
          "internalType": "uint256",
          "name": "tokenId",
          "type": "uint256"
        }
      ],
      "name": "Transfer",
      "type": "event"
    },
    {
      "inputs": [],
      "name": "BuyCount",
      "outputs": [
        {
          "internalType": "uint256",
          "name": "_value",
          "type": "uint256"
        }
      ],
      "stateMutability": "view",
      "type": "function"
    },
    {
      "inputs": [
        {
          "internalType": "string",
          "name": "tokenURI",
          "type": "string"
        },
        {
          "internalType": "string",
          "name": "imageHash",
          "type": "string"
        }
      ],
      "name": "CreateToken",
      "outputs": [
        {
          "internalType": "uint256",
          "name": "",
          "type": "uint256"
        }
      ],
      "stateMutability": "payable",
      "type": "function"
    },
    {
      "inputs": [
        {
          "internalType": "uint256",
          "name": "",
          "type": "uint256"
        }
      ],
      "name": "Creators",
      "outputs": [
        {
          "internalType": "address",
          "name": "",
          "type": "address"
        }
      ],
      "stateMutability": "view",
      "type": "function"
    },
    {
      "inputs": [],
      "name": "CreatorsCount",
      "outputs": [
        {
          "internalType": "uint256",
          "name": "_value",
          "type": "uint256"
        }
      ],
      "stateMutability": "view",
      "type": "function"
    },
    {
      "inputs": [
        {
          "internalType": "uint256",
          "name": "price",
          "type": "uint256"
        },
        {
          "internalType": "uint256",
          "name": "id",
          "type": "uint256"
        }
      ],
      "name": "ListNFT",
      "outputs": [],
      "stateMutability": "nonpayable",
      "type": "function"
    },
    {
      "inputs": [],
      "name": "STATUS_DONE",
      "outputs": [
        {
          "internalType": "uint8",
          "name": "",
          "type": "uint8"
        }
      ],
      "stateMutability": "view",
      "type": "function"
    },
    {
      "inputs": [],
      "name": "STATUS_OPEN",
      "outputs": [
        {
          "internalType": "uint8",
          "name": "",
          "type": "uint8"
        }
      ],
      "stateMutability": "view",
      "type": "function"
    },
    {
      "inputs": [],
      "name": "SoldCount",
      "outputs": [
        {
          "internalType": "uint256",
          "name": "_value",
          "type": "uint256"
        }
      ],
      "stateMutability": "view",
      "type": "function"
    },
    {
      "inputs": [],
      "name": "TokenCount",
      "outputs": [
        {
          "internalType": "uint256",
          "name": "_value",
          "type": "uint256"
        }
      ],
      "stateMutability": "view",
      "type": "function"
    },
    {
      "inputs": [
        {
          "internalType": "address",
          "name": "to",
          "type": "address"
        },
        {
          "internalType": "uint256",
          "name": "tokenId",
          "type": "uint256"
        }
      ],
      "name": "approve",
      "outputs": [],
      "stateMutability": "nonpayable",
      "type": "function"
    },
    {
      "inputs": [
        {
          "internalType": "address",
          "name": "owner",
          "type": "address"
        }
      ],
      "name": "balanceOf",
      "outputs": [
        {
          "internalType": "uint256",
          "name": "",
          "type": "uint256"
        }
      ],
      "stateMutability": "view",
      "type": "function"
    },
    {
      "inputs": [
        {
          "internalType": "uint256",
          "name": "listingId",
          "type": "uint256"
        }
      ],
      "name": "bid",
      "outputs": [],
      "stateMutability": "payable",
      "type": "function"
    },
    {
      "inputs": [],
      "name": "biddingCounter",
      "outputs": [
        {
          "internalType": "uint256",
          "name": "_value",
          "type": "uint256"
        }
      ],
      "stateMutability": "view",
      "type": "function"
    },
    {
      "inputs": [
        {
          "internalType": "string",
          "name": "imageHash",
          "type": "string"
        },
        {
          "internalType": "string",
          "name": "tokenURI",
          "type": "string"
        }
      ],
      "name": "checkImageExist",
      "outputs": [],
      "stateMutability": "nonpayable",
      "type": "function"
    },
    {
      "inputs": [
        {
          "internalType": "uint256",
          "name": "listingId",
          "type": "uint256"
        }
      ],
      "name": "completeAuction",
      "outputs": [],
      "stateMutability": "payable",
      "type": "function"
    },
    {
      "inputs": [
        {
          "internalType": "uint256",
          "name": "price",
          "type": "uint256"
        },
        {
          "internalType": "uint256",
          "name": "tokenId",
          "type": "uint256"
        },
        {
          "internalType": "uint256",
          "name": "deadline",
          "type": "uint256"
        },
        {
          "internalType": "string",
          "name": "aucDate",
          "type": "string"
        }
      ],
      "name": "createAuctionListing",
      "outputs": [
        {
          "internalType": "uint256",
          "name": "",
          "type": "uint256"
        }
      ],
      "stateMutability": "nonpayable",
      "type": "function"
    },
    {
      "inputs": [
        {
          "internalType": "uint256",
          "name": "tokenId",
          "type": "uint256"
        }
      ],
      "name": "executeSale",
      "outputs": [],
      "stateMutability": "payable",
      "type": "function"
    },
    {
      "inputs": [],
      "name": "getAllBiddedNfts",
      "outputs": [
        {
          "components": [
            {
              "internalType": "uint256",
              "name": "biddingId",
              "type": "uint256"
            },
            {
              "internalType": "address payable",
              "name": "seller",
              "type": "address"
            },
            {
              "internalType": "uint256",
              "name": "tokenId",
              "type": "uint256"
            },
            {
              "internalType": "uint256",
              "name": "price",
              "type": "uint256"
            },
            {
              "internalType": "uint256",
              "name": "netPrice",
              "type": "uint256"
            },
            {
              "internalType": "uint256",
              "name": "startAt",
              "type": "uint256"
            },
            {
              "internalType": "uint256",
              "name": "deadline",
              "type": "uint256"
            },
            {
              "internalType": "string",
              "name": "date",
              "type": "string"
            },
            {
              "internalType": "uint256",
              "name": "status",
              "type": "uint256"
            }
          ],
          "internalType": "struct PolygonNFTMarketplace.Listing[]",
          "name": "",
          "type": "tuple[]"
        }
      ],
      "stateMutability": "view",
      "type": "function"
    },
    {
      "inputs": [],
      "name": "getAllBiddingWithListingID",
      "outputs": [
        {
          "components": [
            {
              "internalType": "uint256",
              "name": "tokenId",
              "type": "uint256"
            },
            {
              "internalType": "uint256",
              "name": "biddingId",
              "type": "uint256"
            },
            {
              "internalType": "address",
              "name": "bidder",
              "type": "address"
            },
            {
              "internalType": "uint256",
              "name": "price",
              "type": "uint256"
            }
          ],
          "internalType": "struct PolygonNFTMarketplace.Bidding[]",
          "name": "",
          "type": "tuple[]"
        }
      ],
      "stateMutability": "view",
      "type": "function"
    },
    {
      "inputs": [],
      "name": "getAllNfts",
      "outputs": [
        {
          "components": [
            {
              "internalType": "uint256",
              "name": "tokenId",
              "type": "uint256"
            },
            {
              "internalType": "uint256",
              "name": "price",
              "type": "uint256"
            },
            {
              "internalType": "address payable",
              "name": "owner",
              "type": "address"
            },
            {
              "internalType": "bool",
              "name": "NFTsold",
              "type": "bool"
            },
            {
              "internalType": "bool",
              "name": "NFTbought",
              "type": "bool"
            },
            {
              "internalType": "bool",
              "name": "NFTListed",
              "type": "bool"
            },
            {
              "internalType": "bool",
              "name": "NFTBidded",
              "type": "bool"
            }
          ],
          "internalType": "struct PolygonNFTMarketplace.ListedToken[]",
          "name": "",
          "type": "tuple[]"
        }
      ],
      "stateMutability": "view",
      "type": "function"
    },
    {
      "inputs": [
        {
          "internalType": "uint256",
          "name": "tokenId",
          "type": "uint256"
        }
      ],
      "name": "getApproved",
      "outputs": [
        {
          "internalType": "address",
          "name": "",
          "type": "address"
        }
      ],
      "stateMutability": "view",
      "type": "function"
    },
    {
      "inputs": [],
      "name": "getMyNFTs",
      "outputs": [
        {
          "components": [
            {
              "internalType": "uint256",
              "name": "tokenId",
              "type": "uint256"
            },
            {
              "internalType": "uint256",
              "name": "price",
              "type": "uint256"
            },
            {
              "internalType": "address payable",
              "name": "owner",
              "type": "address"
            },
            {
              "internalType": "bool",
              "name": "NFTsold",
              "type": "bool"
            },
            {
              "internalType": "bool",
              "name": "NFTbought",
              "type": "bool"
            },
            {
              "internalType": "bool",
              "name": "NFTListed",
              "type": "bool"
            },
            {
              "internalType": "bool",
              "name": "NFTBidded",
              "type": "bool"
            }
          ],
          "internalType": "struct PolygonNFTMarketplace.ListedToken[]",
          "name": "",
          "type": "tuple[]"
        }
      ],
      "stateMutability": "view",
      "type": "function"
    },
    {
      "inputs": [],
      "name": "getMySoldNFTs",
      "outputs": [
        {
          "components": [
            {
              "internalType": "uint256",
              "name": "tokenId",
              "type": "uint256"
            },
            {
              "internalType": "uint256",
              "name": "price",
              "type": "uint256"
            },
            {
              "internalType": "address payable",
              "name": "owner",
              "type": "address"
            },
            {
              "internalType": "address",
              "name": "newOwner",
              "type": "address"
            },
            {
              "internalType": "bool",
              "name": "NFTsold",
              "type": "bool"
            }
          ],
          "internalType": "struct PolygonNFTMarketplace.ItemsSold[]",
          "name": "",
          "type": "tuple[]"
        }
      ],
      "stateMutability": "view",
      "type": "function"
    },
    {
      "inputs": [],
      "name": "getTotalBiddedTokens",
      "outputs": [
        {
          "internalType": "uint256",
          "name": "",
          "type": "uint256"
        }
      ],
      "stateMutability": "view",
      "type": "function"
    },
    {
      "inputs": [],
      "name": "getTotalMintedTokens",
      "outputs": [
        {
          "internalType": "uint256",
          "name": "",
          "type": "uint256"
        }
      ],
      "stateMutability": "view",
      "type": "function"
    },
    {
      "inputs": [],
      "name": "getTotalSoldTokens",
      "outputs": [
        {
          "internalType": "uint256",
          "name": "",
          "type": "uint256"
        }
      ],
      "stateMutability": "view",
      "type": "function"
    },
    {
      "inputs": [],
      "name": "getTotalUser",
      "outputs": [
        {
          "internalType": "uint256",
          "name": "",
          "type": "uint256"
        }
      ],
      "stateMutability": "view",
      "type": "function"
    },
    {
      "inputs": [
        {
          "internalType": "uint256",
          "name": "",
          "type": "uint256"
        }
      ],
      "name": "highestBidder",
      "outputs": [
        {
          "internalType": "address",
          "name": "",
          "type": "address"
        }
      ],
      "stateMutability": "view",
      "type": "function"
    },
    {
      "inputs": [],
      "name": "highestBidding",
      "outputs": [
        {
          "internalType": "uint256",
          "name": "",
          "type": "uint256"
        }
      ],
      "stateMutability": "view",
      "type": "function"
    },
    {
      "inputs": [
        {
          "internalType": "uint256",
          "name": "",
          "type": "uint256"
        }
      ],
      "name": "highestBiddingAmount",
      "outputs": [
        {
          "internalType": "uint256",
          "name": "",
          "type": "uint256"
        }
      ],
      "stateMutability": "view",
      "type": "function"
    },
    {
      "inputs": [
        {
          "internalType": "uint256",
          "name": "",
          "type": "uint256"
        }
      ],
      "name": "idToBiddedToken",
      "outputs": [
        {
          "internalType": "uint256",
          "name": "tokenId",
          "type": "uint256"
        },
        {
          "internalType": "uint256",
          "name": "biddingId",
          "type": "uint256"
        },
        {
          "internalType": "address",
          "name": "bidder",
          "type": "address"
        },
        {
          "internalType": "uint256",
          "name": "price",
          "type": "uint256"
        }
      ],
      "stateMutability": "view",
      "type": "function"
    },
    {
      "inputs": [
        {
          "internalType": "uint256",
          "name": "",
          "type": "uint256"
        }
      ],
      "name": "idToImageHash",
      "outputs": [
        {
          "internalType": "string",
          "name": "",
          "type": "string"
        }
      ],
      "stateMutability": "view",
      "type": "function"
    },
    {
      "inputs": [
        {
          "internalType": "uint256",
          "name": "",
          "type": "uint256"
        }
      ],
      "name": "idToListedToken",
      "outputs": [
        {
          "internalType": "uint256",
          "name": "tokenId",
          "type": "uint256"
        },
        {
          "internalType": "uint256",
          "name": "price",
          "type": "uint256"
        },
        {
          "internalType": "address payable",
          "name": "owner",
          "type": "address"
        },
        {
          "internalType": "bool",
          "name": "NFTsold",
          "type": "bool"
        },
        {
          "internalType": "bool",
          "name": "NFTbought",
          "type": "bool"
        },
        {
          "internalType": "bool",
          "name": "NFTListed",
          "type": "bool"
        },
        {
          "internalType": "bool",
          "name": "NFTBidded",
          "type": "bool"
        }
      ],
      "stateMutability": "view",
      "type": "function"
    },
    {
      "inputs": [
        {
          "internalType": "uint256",
          "name": "",
          "type": "uint256"
        }
      ],
      "name": "idToSoldItems",
      "outputs": [
        {
          "internalType": "uint256",
          "name": "tokenId",
          "type": "uint256"
        },
        {
          "internalType": "uint256",
          "name": "price",
          "type": "uint256"
        },
        {
          "internalType": "address payable",
          "name": "owner",
          "type": "address"
        },
        {
          "internalType": "address",
          "name": "newOwner",
          "type": "address"
        },
        {
          "internalType": "bool",
          "name": "NFTsold",
          "type": "bool"
        }
      ],
      "stateMutability": "view",
      "type": "function"
    },
    {
      "inputs": [
        {
          "internalType": "address",
          "name": "owner",
          "type": "address"
        },
        {
          "internalType": "address",
          "name": "operator",
          "type": "address"
        }
      ],
      "name": "isApprovedForAll",
      "outputs": [
        {
          "internalType": "bool",
          "name": "",
          "type": "bool"
        }
      ],
      "stateMutability": "view",
      "type": "function"
    },
    {
      "inputs": [
        {
          "internalType": "uint256",
          "name": "id",
          "type": "uint256"
        }
      ],
      "name": "isAuctionExpired",
      "outputs": [
        {
          "internalType": "bool",
          "name": "",
          "type": "bool"
        }
      ],
      "stateMutability": "view",
      "type": "function"
    },
    {
      "inputs": [
        {
          "internalType": "uint256",
          "name": "id",
          "type": "uint256"
        }
      ],
      "name": "isAuctionOpen",
      "outputs": [
        {
          "internalType": "bool",
          "name": "",
          "type": "bool"
        }
      ],
      "stateMutability": "view",
      "type": "function"
    },
    {
      "inputs": [],
      "name": "listingCounter",
      "outputs": [
        {
          "internalType": "uint256",
          "name": "_value",
          "type": "uint256"
        }
      ],
      "stateMutability": "view",
      "type": "function"
    },
    {
      "inputs": [
        {
          "internalType": "uint256",
          "name": "",
          "type": "uint256"
        }
      ],
      "name": "listings",
      "outputs": [
        {
          "internalType": "uint256",
          "name": "biddingId",
          "type": "uint256"
        },
        {
          "internalType": "address payable",
          "name": "seller",
          "type": "address"
        },
        {
          "internalType": "uint256",
          "name": "tokenId",
          "type": "uint256"
        },
        {
          "internalType": "uint256",
          "name": "price",
          "type": "uint256"
        },
        {
          "internalType": "uint256",
          "name": "netPrice",
          "type": "uint256"
        },
        {
          "internalType": "uint256",
          "name": "startAt",
          "type": "uint256"
        },
        {
          "internalType": "uint256",
          "name": "deadline",
          "type": "uint256"
        },
        {
          "internalType": "string",
          "name": "date",
          "type": "string"
        },
        {
          "internalType": "uint256",
          "name": "status",
          "type": "uint256"
        }
      ],
      "stateMutability": "view",
      "type": "function"
    },
    {
      "inputs": [],
      "name": "minAuctionIncrement",
      "outputs": [
        {
          "internalType": "uint256",
          "name": "",
          "type": "uint256"
        }
      ],
      "stateMutability": "view",
      "type": "function"
    },
    {
      "inputs": [],
      "name": "name",
      "outputs": [
        {
          "internalType": "string",
          "name": "",
          "type": "string"
        }
      ],
      "stateMutability": "view",
      "type": "function"
    },
    {
      "inputs": [
        {
          "internalType": "address",
          "name": "user",
          "type": "address"
        }
      ],
      "name": "newUser",
      "outputs": [],
      "stateMutability": "nonpayable",
      "type": "function"
    },
    {
      "inputs": [
        {
          "internalType": "uint256",
          "name": "tokenId",
          "type": "uint256"
        }
      ],
      "name": "ownerOf",
      "outputs": [
        {
          "internalType": "address",
          "name": "",
          "type": "address"
        }
      ],
      "stateMutability": "view",
      "type": "function"
    },
    {
      "inputs": [
        {
          "internalType": "address",
          "name": "from",
          "type": "address"
        },
        {
          "internalType": "address",
          "name": "to",
          "type": "address"
        },
        {
          "internalType": "uint256",
          "name": "tokenId",
          "type": "uint256"
        }
      ],
      "name": "safeTransferFrom",
      "outputs": [],
      "stateMutability": "nonpayable",
      "type": "function"
    },
    {
      "inputs": [
        {
          "internalType": "address",
          "name": "from",
          "type": "address"
        },
        {
          "internalType": "address",
          "name": "to",
          "type": "address"
        },
        {
          "internalType": "uint256",
          "name": "tokenId",
          "type": "uint256"
        },
        {
          "internalType": "bytes",
          "name": "data",
          "type": "bytes"
        }
      ],
      "name": "safeTransferFrom",
      "outputs": [],
      "stateMutability": "nonpayable",
      "type": "function"
    },
    {
      "inputs": [
        {
          "internalType": "address",
          "name": "operator",
          "type": "address"
        },
        {
          "internalType": "bool",
          "name": "approved",
          "type": "bool"
        }
      ],
      "name": "setApprovalForAll",
      "outputs": [],
      "stateMutability": "nonpayable",
      "type": "function"
    },
    {
      "inputs": [
        {
          "internalType": "bytes4",
          "name": "interfaceId",
          "type": "bytes4"
        }
      ],
      "name": "supportsInterface",
      "outputs": [
        {
          "internalType": "bool",
          "name": "",
          "type": "bool"
        }
      ],
      "stateMutability": "view",
      "type": "function"
    },
    {
      "inputs": [],
      "name": "symbol",
      "outputs": [
        {
          "internalType": "string",
          "name": "",
          "type": "string"
        }
      ],
      "stateMutability": "view",
      "type": "function"
    },
    {
      "inputs": [
        {
          "internalType": "uint256",
          "name": "tokenId",
          "type": "uint256"
        }
      ],
      "name": "tokenURI",
      "outputs": [
        {
          "internalType": "string",
          "name": "",
          "type": "string"
        }
      ],
      "stateMutability": "view",
      "type": "function"
    },
    {
      "inputs": [
        {
          "internalType": "address",
          "name": "from",
          "type": "address"
        },
        {
          "internalType": "address",
          "name": "to",
          "type": "address"
        },
        {
          "internalType": "uint256",
          "name": "tokenId",
          "type": "uint256"
        }
      ],
      "name": "transferFrom",
      "outputs": [],
      "stateMutability": "nonpayable",
      "type": "function"
    },
    {
      "inputs": [
        {
          "internalType": "uint256",
          "name": "listingId",
          "type": "uint256"
        }
      ],
      "name": "withdrawBid",
      "outputs": [],
      "stateMutability": "payable",
      "type": "function"
    }
  ],
  "bytecode": "0x6080604052600a60125560006016553480156200001b57600080fd5b50604080518082018252601581527f506f6c79676f6e4e46544d61726b6574706c61636500000000000000000000006020808301918252835180850190945260048452634441524b60e01b9084015281519192916200007d91600091620000a1565b50805162000093906001906020840190620000a1565b505060016007555062000184565b828054620000af9062000147565b90600052602060002090601f016020900481019282620000d357600085556200011e565b82601f10620000ee57805160ff19168380011785556200011e565b828001600101855582156200011e579182015b828111156200011e57825182559160200191906001019062000101565b506200012c92915062000130565b5090565b5b808211156200012c576000815560010162000131565b600181811c908216806200015c57607f821691505b602082108114156200017e57634e487b7160e01b600052602260045260246000fd5b50919050565b613b3b80620001946000396000f3fe6080604052600436106102e45760003560e01c8063708d4d3511610190578063a9c63aa0116100dc578063de74e57b11610095578063e985e9c51161006f578063e985e9c514610a48578063edf2ebcc14610a91578063f67a769c14610aa8578063fad266fe14610abd57600080fd5b8063de74e57b14610930578063e57a497a14610965578063e877d3f814610a1b57600080fd5b8063a9c63aa014610850578063adc2524c14610865578063b27dce81146108ac578063b820a6d1146108ce578063b88d4fde146108f0578063c87b56dd1461091057600080fd5b806392a374b7116101495780639d6e5fb3116101235780639d6e5fb3146107ed578063a22cb46514610802578063a4fdb63514610822578063a71ffa761461083957600080fd5b806392a374b7146107a557806395d89b41146107c55780639b1225c4146107da57600080fd5b8063708d4d35146106f957806370a082311461070f578063732e8d731461072f578063740db280146107445780638055ccaa14610759578063903405bb1461078f57600080fd5b806324f8515b1161024f5780634945dcdd116102085780636352211e116101e25780636352211e146106255780636b8c91cb146106455780636c2c9c7d146106c25780636c3b1790146106d957600080fd5b80634945dcdd146105cc57806359be5e45146105ee578063629cb2e41461060357600080fd5b806324f8515b1461049457806333024100146104bb57806336ad658f1461054c57806342842e0e14610563578063451df52e14610583578063454a2ab3146105b957600080fd5b80630cb5f653116102a15780630cb5f653146103da5780630eaaf4c8146103fa5780631053aff21461040d5780631389b1171461042e57806321b628861461046157806323b872dd1461047457600080fd5b806301ffc9a7146102e957806306fdde031461031e578063081812fc14610340578063095ea7b3146103785780630ad486281461039a5780630ad52cc6146103ba575b600080fd5b3480156102f557600080fd5b506103096103043660046134d2565b610ad4565b60405190151581526020015b60405180910390f35b34801561032a57600080fd5b50610333610aff565b60405161031591906138d4565b34801561034c57600080fd5b5061036061035b36600461356b565b610b91565b6040516001600160a01b039091168152602001610315565b34801561038457600080fd5b506103986103933660046134a9565b610bb8565b005b3480156103a657600080fd5b506103096103b536600461356b565b610cd3565b3480156103c657600080fd5b506103336103d536600461356b565b610d07565b3480156103e657600080fd5b506103986103f536600461336f565b610da1565b61039861040836600461356b565b610e61565b61042061041b36600461350a565b611023565b604051908152602001610315565b34801561043a57600080fd5b5061030961044936600461356b565b60009081526013602052604090206006015442101590565b61039861046f36600461356b565b611084565b34801561048057600080fd5b5061039861048f3660046133bb565b61123e565b3480156104a057600080fd5b506104a9600181565b60405160ff9091168152602001610315565b3480156104c757600080fd5b506105166104d636600461356b565b600f602052600090815260409020805460018201546002830154600390930154919290916001600160a01b0391821691811690600160a01b900460ff1685565b6040805195865260208601949094526001600160a01b03928316938501939093521660608301521515608082015260a001610315565b34801561055857600080fd5b506008546104209081565b34801561056f57600080fd5b5061039861057e3660046133bb565b61126f565b34801561058f57600080fd5b5061036061059e36600461356b565b6014602052600090815260409020546001600160a01b031681565b6103986105c736600461356b565b61128a565b3480156105d857600080fd5b506105e16114b7565b6040516103159190613808565b3480156105fa57600080fd5b50610420611774565b34801561060f57600080fd5b50610618611784565b6040516103159190613782565b34801561063157600080fd5b5061036061064036600461356b565b6119ac565b34801561065157600080fd5b5061069361066036600461356b565b6017602052600090815260409020805460018201546002830154600390930154919290916001600160a01b039091169084565b604051610315949392919093845260208401929092526001600160a01b03166040830152606082015260800190565b3480156106ce57600080fd5b50600b546104209081565b3480156106e557600080fd5b506103986106f436600461350a565b611a0c565b34801561070557600080fd5b5061042060125481565b34801561071b57600080fd5b5061042061072a36600461336f565b611ba4565b34801561073b57600080fd5b50610618611c2a565b34801561075057600080fd5b506104a9600081565b34801561076557600080fd5b5061036061077436600461356b565b6011602052600090815260409020546001600160a01b031681565b34801561079b57600080fd5b5061042060165481565b3480156107b157600080fd5b506104206107c03660046135a4565b611e38565b3480156107d157600080fd5b50610333611f39565b6103986107e836600461356b565b611f48565b3480156107f957600080fd5b50610420612133565b34801561080e57600080fd5b5061039861081d36600461346f565b61213e565b34801561082e57600080fd5b50600c546104209081565b34801561084557600080fd5b50600d546104209081565b34801561085c57600080fd5b5061042061214d565b34801561087157600080fd5b50610398610880366004613583565b6000908152600e602052604090206001810191909155600201805460ff60b01b1916600160b01b179055565b3480156108b857600080fd5b506108c1612158565b6040516103159190613711565b3480156108da57600080fd5b506108e361234e565b60405161031591906136a4565b3480156108fc57600080fd5b5061039861090b3660046133f6565b612523565b34801561091c57600080fd5b5061033361092b36600461356b565b612555565b34801561093c57600080fd5b5061095061094b36600461356b565b61265e565b604051610315999897969594939291906139cb565b34801561097157600080fd5b506109d461098036600461356b565b600e602052600090815260409020805460018201546002909201549091906001600160a01b0381169060ff600160a01b8204811691600160a81b8104821691600160b01b8204811691600160b81b90041687565b6040805197885260208801969096526001600160a01b039094169486019490945290151560608501521515608084015290151560a0830152151560c082015260e001610315565b348015610a2757600080fd5b50610420610a3636600461356b565b60156020526000908152604090205481565b348015610a5457600080fd5b50610309610a63366004613389565b6001600160a01b03918216600090815260056020908152604080832093909416825291909152205460ff1690565b348015610a9d57600080fd5b506009546104209081565b348015610ab457600080fd5b5061042061273d565b348015610ac957600080fd5b50600a546104209081565b60006001600160e01b03198216632483248360e11b1480610af95750610af982612748565b92915050565b606060008054610b0e90613a6d565b80601f0160208091040260200160405190810160405280929190818152602001828054610b3a90613a6d565b8015610b875780601f10610b5c57610100808354040283529160200191610b87565b820191906000526020600020905b815481529060010190602001808311610b6a57829003601f168201915b5050505050905090565b6000610b9c82612798565b506000908152600460205260409020546001600160a01b031690565b6000610bc3826119ac565b9050806001600160a01b0316836001600160a01b03161415610c365760405162461bcd60e51b815260206004820152602160248201527f4552433732313a20617070726f76616c20746f2063757272656e74206f776e656044820152603960f91b60648201526084015b60405180910390fd5b336001600160a01b0382161480610c525750610c528133610a63565b610cc45760405162461bcd60e51b815260206004820152603d60248201527f4552433732313a20617070726f76652063616c6c6572206973206e6f7420746f60448201527f6b656e206f776e6572206f7220617070726f76656420666f7220616c6c0000006064820152608401610c2d565b610cce83836127f7565b505050565b6000818152601360205260408120600801546001148015610af9575050600090815260136020526040902060060154421090565b60106020526000908152604090208054610d2090613a6d565b80601f0160208091040260200160405190810160405280929190818152602001828054610d4c90613a6d565b8015610d995780601f10610d6e57610100808354040283529160200191610d99565b820191906000526020600020905b815481529060010190602001808311610d7c57829003601f168201915b505050505081565b6000610dac600d5490565b90506000805b82811015610e13576001600160a01b03841660116000610dd3846001613a29565b81526020810191909152604001600020546001600160a01b03161415610e0157610dfe600183613a29565b91505b80610e0b81613aa8565b915050610db2565b5080610cce57610e27600d80546001019055565b6000610e32600d5490565b600090815260116020526040902080546001600160a01b0386166001600160a01b031990911617905550505050565b610e69612865565b600081815260136020526040902060060154421015610ec25760405162461bcd60e51b8152602060048201526015602482015274185d58dd1a5bdb881b5d5cdd08189948195b991959605a1b6044820152606401610c2d565b6000818152601460205260409020546001600160a01b0316331415610f345760405162461bcd60e51b815260206004820152602260248201527f68696768657374206269646465722063616e6e6f7420776974686472617720626044820152611a5960f21b6064820152608401610c2d565b6000610f3f600c5490565b90506000805b82811015610fe5573360176000610f5d846001613a29565b81526020810191909152604001600020600201546001600160a01b03161415610fd35760176000610f8f836001613a29565b81526020019081526020016000206003015482610fac9190613a29565b91506000601781610fbe846001613a29565b81526020810191909152604001600020600301555b80610fdd81613aa8565b915050610f45565b50604051339082156108fc029083906000818181858888f19350505050158015611013573d6000803e3d6000fd5b5050506110206001600755565b50565b6000611033600880546001019055565b600061103e60085490565b905061104a33826128bf565b61105481856128d9565b6000818152601060209081526040909120845161107392860190613225565b5061107d816129ab565b9392505050565b61108c612865565b61109581610cd3565b156110da5760405162461bcd60e51b815260206004820152601560248201527430bab1ba34b7b71034b99039ba34b6361037b832b760591b6044820152606401610c2d565b600081815260136020908152604080832060149092529091205460018201546001600160a01b03918216911633148061111b5750336001600160a01b038216145b61117a5760405162461bcd60e51b815260206004820152602a60248201527f6f6e6c792073656c6c6572206f722077696e6e65722063616e20636f6d706c656044820152693a329030bab1ba34b7b760b11b6064820152608401610c2d565b6000838152601560205260409020548061119a5760006008840155611013565b600283015460018401546001600160a01b03166111b8818584612a83565b6040516001600160a01b0382169084156108fc029085906000818181858888f193505050501580156111ee573d6000803e3d6000fd5b50506001840180546001600160a01b0385166001600160a01b031991821681179092556000928352600e602052604083206002018054909116909117905560088401555050506110206001600755565b6112483382612be7565b6112645760405162461bcd60e51b8152600401610c2d906138e7565b610cce838383612a83565b610cce83838360405180602001604052806000815250612523565b611292612865565b61129b81610cd3565b6112db5760405162461bcd60e51b8152602060048201526011602482015270185d58dd1a5bdb881a185cc8195b991959607a1b6044820152606401610c2d565b600081815260136020526040902060030154341161133b5760405162461bcd60e51b815260206004820152601f60248201527f56616c756520697320736d616c6c6572207468616e206269642076616c7565006044820152606401610c2d565b6000818152601360205260409020600101546001600160a01b03163314156113a55760405162461bcd60e51b815260206004820152601a60248201527f796f752063616e27742062696420796f7572206f776e206e66740000000000006044820152606401610c2d565b6113b3600c80546001019055565b60006113be600c5490565b60408051608081018252600085815260136020908152838220600290810154845281840188815233858701908152346060870181815289875260179095529690942094518555516001850155915191830180546001600160a01b0319166001600160a01b039093169290921790915551600390910155601654919250111561147057346016819055600083815260146020908152604080832080546001600160a01b0319163317905560159091529020555b60008281526013602090815260408083206002908101548452600e90925290912001805460ff60b81b1916600160b81b1790556114ac33610da1565b506110206001600755565b606060006114c4600b5490565b905060008060005b8381101561151c57601360006114e3836001613a29565b81526020019081526020016000206003015460001461150a57611507600184613a29565b92505b611515600182613a29565b90506114cc565b5060008267ffffffffffffffff81111561154657634e487b7160e01b600052604160045260246000fd5b6040519080825280602002602001820160405280156115cf57816020015b6115bc6040518061012001604052806000815260200160006001600160a01b03168152602001600081526020016000815260200160008152602001600081526020016000815260200160608152602001600081525090565b8152602001906001900390816115645790505b50905060005b8481101561176b5760006013816115ed846001613a29565b815260200190815260200160002090506013600083600161160e9190613a29565b8152602001908152602001600020600301546000146117585760408051610120810182528254815260018301546001600160a01b031660208201526002830154918101919091526003820154606082015260048201546080820152600582015460a0820152600682015460c0820152600782018054839160e084019161169390613a6d565b80601f01602080910402602001604051908101604052809291908181526020018280546116bf90613a6d565b801561170c5780601f106116e15761010080835404028352916020019161170c565b820191906000526020600020905b8154815290600101906020018083116116ef57829003601f168201915b5050505050815260200160088201548152505083858151811061173f57634e487b7160e01b600052603260045260246000fd5b6020908102919091010152611755600185613a29565b93505b50611764600182613a29565b90506115d5565b50949350505050565b600061177f60095490565b905090565b6060600061179160085490565b9050600080805b838110156117f35733600e60006117b0846001613a29565b81526020810191909152604001600020600201546001600160a01b031614156117e157816117dd81613aa8565b9250505b806117eb81613aa8565b915050611798565b5060008167ffffffffffffffff81111561181d57634e487b7160e01b600052604160045260246000fd5b60405190808252806020026020018201604052801561188457816020015b6040805160e08101825260008082526020808301829052928201819052606082018190526080820181905260a0820181905260c0820152825260001990920191018161183b5790505b50905060005b8481101561176b5733600e60006118a2846001613a29565b81526020810191909152604001600020600201546001600160a01b0316141561199a576000600e816118d5846001613a29565b81526020808201929092526040908101600020815160e0810183528154815260018201549381019390935260028101546001600160a01b0381169284019290925260ff600160a01b8304811615156060850152600160a81b8304811615156080850152600160b01b83048116151560a0850152600160b81b909204909116151560c0830152845190925084908790811061197f57634e487b7160e01b600052603260045260246000fd5b6020026020010181905250848061199590613aa8565b955050505b806119a481613aa8565b91505061188a565b6000818152600260205260408120546001600160a01b031680610af95760405162461bcd60e51b8152602060048201526018602482015277115490cdcc8c4e881a5b9d985b1a59081d1bdad95b88125160421b6044820152606401610c2d565b6000611a1760085490565b90508260606000805b84811015611b445760106000611a37836001613a29565b81526020019081526020016000208054611a5090613a6d565b80601f0160208091040260200160405190810160405280929190818152602001828054611a7c90613a6d565b8015611ac95780601f10611a9e57610100808354040283529160200191611ac9565b820191906000526020600020905b815481529060010190602001808311611aac57829003601f168201915b5050505050925083604051602001611ae1919061361c565b6040516020818303038152906040528051906020012083604051602001611b08919061361c565b604051602081830303815290604052805190602001201415611b3257611b2f600183613a29565b91505b80611b3c81613aa8565b915050611a20565b5080611b5a57611b548587611023565b50611b9c565b8015611b9c5760405162461bcd60e51b815260206004820152601160248201527013919508185b1c9958591e48195e1a5cdd607a1b6044820152606401610c2d565b505050505050565b60006001600160a01b038216611c0e5760405162461bcd60e51b815260206004820152602960248201527f4552433732313a2061646472657373207a65726f206973206e6f7420612076616044820152683634b21037bbb732b960b91b6064820152608401610c2d565b506001600160a01b031660009081526003602052604090205490565b60606000611c3760085490565b905060008060005b83811015611c8f57600e6000611c56836001613a29565b815260200190815260200160002060010154600014611c7d57611c7a600184613a29565b92505b611c88600182613a29565b9050611c3f565b5060008267ffffffffffffffff811115611cb957634e487b7160e01b600052604160045260246000fd5b604051908082528060200260200182016040528015611d2057816020015b6040805160e08101825260008082526020808301829052928201819052606082018190526080820181905260a0820181905260c08201528252600019909201910181611cd75790505b50905060005b8481101561176b576000600e81611d3e846001613a29565b81526020019081526020016000209050600e6000836001611d5f9190613a29565b815260200190815260200160002060010154600014611e25576040805160e081018252825481526001830154602082015260028301546001600160a01b0381169282019290925260ff600160a01b8304811615156060830152600160a81b8304811615156080830152600160b01b83048116151560a0830152600160b81b909204909116151560c08201528351849086908110611e0c57634e487b7160e01b600052603260045260246000fd5b6020908102919091010152611e22600185613a29565b93505b50611e31600182613a29565b9050611d26565b6000611e48600b80546001019055565b6000611e53600b5490565b9050426000611e628683613a29565b60408051610120810182528581523360208083019182528284018c8152606084018e8152608085018f815260a086018a815260c0870189815260e088018f815260016101008a0181905260008f8152601389529a909a2089518155975199880180546001600160a01b0319166001600160a01b03909b169a909a1790995593516002870155915160038601555160048501555160058401555160068301559251805194955091939092611f1c926007850192910190613225565b50610100919091015160089091015550909150505b949350505050565b606060018054610b0e90613a6d565b6000818152600e6020526040902060018101546002909101546001600160a01b0316331415611fb95760405162461bcd60e51b815260206004820152601a60248201527f796f752063616e27742062757920796f7572206f776e206e66740000000000006044820152606401610c2d565b6000828152600e60205260409020600201546001600160a01b0316611fdf813385612a83565b611fe98184610bb8565b6000838152600e6020526040808220600201805460ff60a81b1960ff60a01b1933166001600160a81b031990921691909117600160a01b1716600160a81b179055516001600160a01b038316913480156108fc02929091818181858888f1935050505015801561205d573d6000803e3d6000fd5b5061206c600980546001019055565b600061207760095490565b6040805160a08101825286815260208082018781526001600160a01b03808816848601908152336060860181815260016080880181815260008b8152600f89528a812099518a5596518983015593516002890180549187166001600160a01b031990921691909117905590516003909701805493511515600160a01b026001600160a81b0319909416979094169690961791909117909155898252600e9092529283209091019190915590915061212d90610da1565b50505050565b600061177f600c5490565b612149338383612c65565b5050565b600061177f600d5490565b6060600061216560095490565b9050600080805b838110156121c75733600f6000612184846001613a29565b81526020810191909152604001600020600201546001600160a01b031614156121b557816121b181613aa8565b9250505b806121bf81613aa8565b91505061216c565b5060008167ffffffffffffffff8111156121f157634e487b7160e01b600052604160045260246000fd5b60405190808252806020026020018201604052801561224a57816020015b6040805160a08101825260008082526020808301829052928201819052606082018190526080820152825260001990920191018161220f5790505b50905060005b8481101561176b5733600f6000612268846001613a29565b81526020810191909152604001600020600201546001600160a01b0316141561233c576000600f8161229b846001613a29565b81526020808201929092526040908101600020815160a0810183528154815260018201549381019390935260028101546001600160a01b039081169284019290925260038101549182166060840152600160a01b90910460ff1615156080830152845190925084908790811061232157634e487b7160e01b600052603260045260246000fd5b6020026020010181905250848061233790613aa8565b955050505b8061234681613aa8565b915050612250565b6060600061235b600c5490565b9050600080805b838110156123b25760176000612379836001613a29565b8152602001908152602001600020600301546000146123a0578161239c81613aa8565b9250505b806123aa81613aa8565b915050612362565b5060008167ffffffffffffffff8111156123dc57634e487b7160e01b600052604160045260246000fd5b60405190808252806020026020018201604052801561244157816020015b61242e6040518060800160405280600081526020016000815260200160006001600160a01b03168152602001600081525090565b8152602001906001900390816123fa5790505b50905060005b8481101561176b576017600061245e836001613a29565b815260200190815260200160002060030154600014612511576000601781612487846001613a29565b8152602080820192909252604090810160002081516080810183528154815260018201549381019390935260028101546001600160a01b0316918301919091526003810154606083015284519092508490879081106124f657634e487b7160e01b600052603260045260246000fd5b6020026020010181905250848061250c90613aa8565b955050505b8061251b81613aa8565b915050612447565b61252d3383612be7565b6125495760405162461bcd60e51b8152600401610c2d906138e7565b61212d84848484612d34565b606061256082612798565b6000828152600660205260408120805461257990613a6d565b80601f01602080910402602001604051908101604052809291908181526020018280546125a590613a6d565b80156125f25780601f106125c7576101008083540402835291602001916125f2565b820191906000526020600020905b8154815290600101906020018083116125d557829003601f168201915b50505050509050600061261060408051602081019091526000815290565b9050805160001415612623575092915050565b81511561265557808260405160200161263d929190613638565b60405160208183030381529060405292505050919050565b611f3184612d67565b6013602052600090815260409020805460018201546002830154600384015460048501546005860154600687015460078801805497986001600160a01b039097169795969495939492939192916126b490613a6d565b80601f01602080910402602001604051908101604052809291908181526020018280546126e090613a6d565b801561272d5780601f106127025761010080835404028352916020019161272d565b820191906000526020600020905b81548152906001019060200180831161271057829003601f168201915b5050505050908060080154905089565b600061177f60085490565b60006001600160e01b031982166380ac58cd60e01b148061277957506001600160e01b03198216635b5e139f60e01b145b80610af957506301ffc9a760e01b6001600160e01b0319831614610af9565b6000818152600260205260409020546001600160a01b03166110205760405162461bcd60e51b8152602060048201526018602482015277115490cdcc8c4e881a5b9d985b1a59081d1bdad95b88125160421b6044820152606401610c2d565b600081815260046020526040902080546001600160a01b0319166001600160a01b038416908117909155819061282c826119ac565b6001600160a01b03167f8c5be1e5ebec7d5bd14f71427d1e84f3dd0314c0f7b2291e5b200ac8c7c3b92560405160405180910390a45050565b600260075414156128b85760405162461bcd60e51b815260206004820152601f60248201527f5265656e7472616e637947756172643a207265656e7472616e742063616c6c006044820152606401610c2d565b6002600755565b612149828260405180602001604052806000815250612dda565b6000828152600260205260409020546001600160a01b03166129545760405162461bcd60e51b815260206004820152602e60248201527f45524337323155524953746f726167653a2055524920736574206f66206e6f6e60448201526d32bc34b9ba32b73a103a37b5b2b760911b6064820152608401610c2d565b6000828152600660209081526040909120825161297392840190613225565b506040518281527ff8e1a15aba9398e019f0b49df1a4fde98ee17ae345cb5f6b5e2c27f5033e8ce79060200160405180910390a15050565b6040805160e0810182528281526000602080830182815233848601818152606086018581526080870186815260a0880187815260c089018881528b8952600e909752989096209651875592516001870155516002909501805492519451965193511515600160b81b0260ff60b81b19941515600160b01b0260ff60b01b19981515600160a81b029890981661ffff60a81b19961515600160a01b026001600160a81b03199095166001600160a01b03989098169790971793909317949094169490941794909417169290921790915561102090610da1565b826001600160a01b0316612a96826119ac565b6001600160a01b031614612abc5760405162461bcd60e51b8152600401610c2d90613986565b6001600160a01b038216612b1e5760405162461bcd60e51b8152602060048201526024808201527f4552433732313a207472616e7366657220746f20746865207a65726f206164646044820152637265737360e01b6064820152608401610c2d565b826001600160a01b0316612b31826119ac565b6001600160a01b031614612b575760405162461bcd60e51b8152600401610c2d90613986565b600081815260046020908152604080832080546001600160a01b03199081169091556001600160a01b0387811680865260038552838620805460001901905590871680865283862080546001019055868652600290945282852080549092168417909155905184937fddf252ad1be2c89b69c2b068fc378daa952ba7f163c4a11628f55a4df523b3ef91a4505050565b600080612bf3836119ac565b9050806001600160a01b0316846001600160a01b03161480612c3a57506001600160a01b0380821660009081526005602090815260408083209388168352929052205460ff165b80611f315750836001600160a01b0316612c5384610b91565b6001600160a01b031614949350505050565b816001600160a01b0316836001600160a01b03161415612cc75760405162461bcd60e51b815260206004820152601960248201527f4552433732313a20617070726f766520746f2063616c6c6572000000000000006044820152606401610c2d565b6001600160a01b03838116600081815260056020908152604080832094871680845294825291829020805460ff191686151590811790915591519182527f17307eab39ab6107e8899845ad3d59bd9653f200f220920489ca2b5937696c31910160405180910390a3505050565b612d3f848484612a83565b612d4b84848484612e0d565b61212d5760405162461bcd60e51b8152600401610c2d90613934565b6060612d7282612798565b6000612d8960408051602081019091526000815290565b90506000815111612da9576040518060200160405280600081525061107d565b80612db384612f17565b604051602001612dc4929190613638565b6040516020818303038152906040529392505050565b612de48383612fc2565b612df16000848484612e0d565b610cce5760405162461bcd60e51b8152600401610c2d90613934565b60006001600160a01b0384163b15612f0f57604051630a85bd0160e11b81526001600160a01b0385169063150b7a0290612e51903390899088908890600401613667565b602060405180830381600087803b158015612e6b57600080fd5b505af1925050508015612e9b575060408051601f3d908101601f19168201909252612e98918101906134ee565b60015b612ef5573d808015612ec9576040519150601f19603f3d011682016040523d82523d6000602084013e612ece565b606091505b508051612eed5760405162461bcd60e51b8152600401610c2d90613934565b805181602001fd5b6001600160e01b031916630a85bd0160e11b149050611f31565b506001611f31565b60606000612f248361314d565b600101905060008167ffffffffffffffff811115612f5257634e487b7160e01b600052604160045260246000fd5b6040519080825280601f01601f191660200182016040528015612f7c576020820181803683370190505b5090508181016020015b600019016f181899199a1a9b1b9c1cb0b131b232b360811b600a86061a8153600a8504945084612fb557612fba565b612f86565b509392505050565b6001600160a01b0382166130185760405162461bcd60e51b815260206004820181905260248201527f4552433732313a206d696e7420746f20746865207a65726f20616464726573736044820152606401610c2d565b6000818152600260205260409020546001600160a01b03161561307d5760405162461bcd60e51b815260206004820152601c60248201527f4552433732313a20746f6b656e20616c7265616479206d696e746564000000006044820152606401610c2d565b6000818152600260205260409020546001600160a01b0316156130e25760405162461bcd60e51b815260206004820152601c60248201527f4552433732313a20746f6b656e20616c7265616479206d696e746564000000006044820152606401610c2d565b6001600160a01b038216600081815260036020908152604080832080546001019055848352600290915280822080546001600160a01b0319168417905551839291907fddf252ad1be2c89b69c2b068fc378daa952ba7f163c4a11628f55a4df523b3ef908290a45050565b60008072184f03e93ff9f4daa797ed6e38ed64bf6a1f0160401b831061318c5772184f03e93ff9f4daa797ed6e38ed64bf6a1f0160401b830492506040015b6d04ee2d6d415b85acef810000000083106131b8576d04ee2d6d415b85acef8100000000830492506020015b662386f26fc1000083106131d657662386f26fc10000830492506010015b6305f5e10083106131ee576305f5e100830492506008015b612710831061320257612710830492506004015b60648310613214576064830492506002015b600a8310610af95760010192915050565b82805461323190613a6d565b90600052602060002090601f0160209004810192826132535760008555613299565b82601f1061326c57805160ff1916838001178555613299565b82800160010185558215613299579182015b8281111561329957825182559160200191906001019061327e565b506132a59291506132a9565b5090565b5b808211156132a557600081556001016132aa565b600067ffffffffffffffff808411156132d9576132d9613ad9565b604051601f8501601f19908116603f0116810190828211818310171561330157613301613ad9565b8160405280935085815286868601111561331a57600080fd5b858560208301376000602087830101525050509392505050565b80356001600160a01b038116811461334b57600080fd5b919050565b600082601f830112613360578081fd5b61107d838335602085016132be565b600060208284031215613380578081fd5b61107d82613334565b6000806040838503121561339b578081fd5b6133a483613334565b91506133b260208401613334565b90509250929050565b6000806000606084860312156133cf578081fd5b6133d884613334565b92506133e660208501613334565b9150604084013590509250925092565b6000806000806080858703121561340b578081fd5b61341485613334565b935061342260208601613334565b925060408501359150606085013567ffffffffffffffff811115613444578182fd5b8501601f81018713613454578182fd5b613463878235602084016132be565b91505092959194509250565b60008060408385031215613481578182fd5b61348a83613334565b91506020830135801515811461349e578182fd5b809150509250929050565b600080604083850312156134bb578182fd5b6134c483613334565b946020939093013593505050565b6000602082840312156134e3578081fd5b813561107d81613aef565b6000602082840312156134ff578081fd5b815161107d81613aef565b6000806040838503121561351c578182fd5b823567ffffffffffffffff80821115613533578384fd5b61353f86838701613350565b93506020850135915080821115613554578283fd5b5061356185828601613350565b9150509250929050565b60006020828403121561357c578081fd5b5035919050565b60008060408385031215613595578182fd5b50508035926020909101359150565b600080600080608085870312156135b9578384fd5b843593506020850135925060408501359150606085013567ffffffffffffffff8111156135e4578182fd5b61346387828801613350565b60008151808452613608816020860160208601613a41565b601f01601f19169290920160200192915050565b6000825161362e818460208701613a41565b9190910192915050565b6000835161364a818460208801613a41565b83519083019061365e818360208801613a41565b01949350505050565b6001600160a01b038581168252841660208201526040810183905260806060820181905260009061369a908301846135f0565b9695505050505050565b602080825282518282018190526000919060409081850190868401855b82811015613704578151805185528681015187860152858101516001600160a01b03168686015260609081015190850152608090930192908501906001016136c1565b5091979650505050505050565b602080825282518282018190526000919060409081850190868401855b82811015613704578151805185528681015187860152858101516001600160a01b03908116878701526060808301519091169086015260809081015115159085015260a0909301929085019060010161372e565b602080825282518282018190526000919060409081850190868401855b82811015613704578151805185528681015187860152858101516001600160a01b03168686015260608082015115159086015260808082015115159086015260a08082015115159086015260c09081015115159085015260e0909301929085019060010161379f565b60006020808301818452808551808352604092508286019150828160051b870101848801865b838110156138c657603f19898403018552815180518452878101516001600160a01b0316888501528681015187850152606080820151908501526080808201519085015260a0808201519085015260c0808201519085015260e08082015161012082870181905291906138a3838801826135f0565b61010094850151979094019690965250509487019492509086019060010161382e565b509098975050505050505050565b60208152600061107d60208301846135f0565b6020808252602d908201527f4552433732313a2063616c6c6572206973206e6f7420746f6b656e206f776e6560408201526c1c881bdc88185c1c1c9bdd9959609a1b606082015260800190565b60208082526032908201527f4552433732313a207472616e7366657220746f206e6f6e20455243373231526560408201527131b2b4bb32b91034b6b83632b6b2b73a32b960711b606082015260800190565b60208082526025908201527f4552433732313a207472616e736665722066726f6d20696e636f72726563742060408201526437bbb732b960d91b606082015260800190565b60006101208b835260018060a01b038b1660208401528960408401528860608401528760808401528660a08401528560c08401528060e0840152613a11818401866135f0565b915050826101008301529a9950505050505050505050565b60008219821115613a3c57613a3c613ac3565b500190565b60005b83811015613a5c578181015183820152602001613a44565b8381111561212d5750506000910152565b600181811c90821680613a8157607f821691505b60208210811415613aa257634e487b7160e01b600052602260045260246000fd5b50919050565b6000600019821415613abc57613abc613ac3565b5060010190565b634e487b7160e01b600052601160045260246000fd5b634e487b7160e01b600052604160045260246000fd5b6001600160e01b03198116811461102057600080fdfea2646970667358221220e5cb5f5b32cb3376a3b707887abcdfc522617b90f4f7230bf6452cadb7c82f8164736f6c63430008040033",
  "linkReferences": {},
  "deployedLinkReferences": {}
}