{
  "_format": "hh-sol-artifact-1",
  "contractName": "PolygonNFTMarketplace",
  "sourceName": "contracts/PolygonNFTMarketplace.sol",
  "abi": [
    {
      "inputs": [],
      "stateMutability": "nonpayable",
      "type": "constructor"
    },
    {
      "anonymous": false,
      "inputs": [
        {
          "indexed": true,
          "internalType": "address",
          "name": "owner",
          "type": "address"
        },
        {
          "indexed": true,
          "internalType": "address",
          "name": "approved",
          "type": "address"
        },
        {
          "indexed": true,
          "internalType": "uint256",
          "name": "tokenId",
          "type": "uint256"
        }
      ],
      "name": "Approval",
      "type": "event"
    },
    {
      "anonymous": false,
      "inputs": [
        {
          "indexed": true,
          "internalType": "address",
          "name": "owner",
          "type": "address"
        },
        {
          "indexed": true,
          "internalType": "address",
          "name": "operator",
          "type": "address"
        },
        {
          "indexed": false,
          "internalType": "bool",
          "name": "approved",
          "type": "bool"
        }
      ],
      "name": "ApprovalForAll",
      "type": "event"
    },
    {
      "anonymous": false,
      "inputs": [
        {
          "indexed": false,
          "internalType": "uint256",
          "name": "_fromTokenId",
          "type": "uint256"
        },
        {
          "indexed": false,
          "internalType": "uint256",
          "name": "_toTokenId",
          "type": "uint256"
        }
      ],
      "name": "BatchMetadataUpdate",
      "type": "event"
    },
    {
      "anonymous": false,
      "inputs": [
        {
          "indexed": false,
          "internalType": "uint256",
          "name": "_tokenId",
          "type": "uint256"
        }
      ],
      "name": "MetadataUpdate",
      "type": "event"
    },
    {
      "anonymous": false,
      "inputs": [
        {
          "indexed": true,
          "internalType": "address",
          "name": "from",
          "type": "address"
        },
        {
          "indexed": true,
          "internalType": "address",
          "name": "to",
          "type": "address"
        },
        {
          "indexed": true,
          "internalType": "uint256",
          "name": "tokenId",
          "type": "uint256"
        }
      ],
      "name": "Transfer",
      "type": "event"
    },
    {
      "inputs": [],
      "name": "BuyCount",
      "outputs": [
        {
          "internalType": "uint256",
          "name": "_value",
          "type": "uint256"
        }
      ],
      "stateMutability": "view",
      "type": "function"
    },
    {
      "inputs": [
        {
          "internalType": "string",
          "name": "tokenURI",
          "type": "string"
        },
        {
          "internalType": "string",
          "name": "imageHash",
          "type": "string"
        }
      ],
      "name": "CreateToken",
      "outputs": [
        {
          "internalType": "uint256",
          "name": "",
          "type": "uint256"
        }
      ],
      "stateMutability": "payable",
      "type": "function"
    },
    {
      "inputs": [
        {
          "internalType": "uint256",
          "name": "",
          "type": "uint256"
        }
      ],
      "name": "Creators",
      "outputs": [
        {
          "internalType": "address",
          "name": "",
          "type": "address"
        }
      ],
      "stateMutability": "view",
      "type": "function"
    },
    {
      "inputs": [],
      "name": "CreatorsCount",
      "outputs": [
        {
          "internalType": "uint256",
          "name": "_value",
          "type": "uint256"
        }
      ],
      "stateMutability": "view",
      "type": "function"
    },
    {
      "inputs": [
        {
          "internalType": "uint256",
          "name": "price",
          "type": "uint256"
        },
        {
          "internalType": "uint256",
          "name": "id",
          "type": "uint256"
        }
      ],
      "name": "ListNFT",
      "outputs": [],
      "stateMutability": "nonpayable",
      "type": "function"
    },
    {
      "inputs": [],
      "name": "STATUS_DONE",
      "outputs": [
        {
          "internalType": "uint8",
          "name": "",
          "type": "uint8"
        }
      ],
      "stateMutability": "view",
      "type": "function"
    },
    {
      "inputs": [],
      "name": "STATUS_OPEN",
      "outputs": [
        {
          "internalType": "uint8",
          "name": "",
          "type": "uint8"
        }
      ],
      "stateMutability": "view",
      "type": "function"
    },
    {
      "inputs": [],
      "name": "SoldCount",
      "outputs": [
        {
          "internalType": "uint256",
          "name": "_value",
          "type": "uint256"
        }
      ],
      "stateMutability": "view",
      "type": "function"
    },
    {
      "inputs": [],
      "name": "TokenCount",
      "outputs": [
        {
          "internalType": "uint256",
          "name": "_value",
          "type": "uint256"
        }
      ],
      "stateMutability": "view",
      "type": "function"
    },
    {
      "inputs": [
        {
          "internalType": "address",
          "name": "to",
          "type": "address"
        },
        {
          "internalType": "uint256",
          "name": "tokenId",
          "type": "uint256"
        }
      ],
      "name": "approve",
      "outputs": [],
      "stateMutability": "nonpayable",
      "type": "function"
    },
    {
      "inputs": [
        {
          "internalType": "address",
          "name": "owner",
          "type": "address"
        }
      ],
      "name": "balanceOf",
      "outputs": [
        {
          "internalType": "uint256",
          "name": "",
          "type": "uint256"
        }
      ],
      "stateMutability": "view",
      "type": "function"
    },
    {
      "inputs": [
        {
          "internalType": "uint256",
          "name": "listingId",
          "type": "uint256"
        }
      ],
      "name": "bid",
      "outputs": [],
      "stateMutability": "payable",
      "type": "function"
    },
    {
      "inputs": [],
      "name": "biddingCounter",
      "outputs": [
        {
          "internalType": "uint256",
          "name": "_value",
          "type": "uint256"
        }
      ],
      "stateMutability": "view",
      "type": "function"
    },
    {
      "inputs": [
        {
          "internalType": "string",
          "name": "imageHash",
          "type": "string"
        }
      ],
      "name": "checkImageExist",
      "outputs": [
        {
          "internalType": "bool",
          "name": "",
          "type": "bool"
        }
      ],
      "stateMutability": "view",
      "type": "function"
    },
    {
      "inputs": [
        {
          "internalType": "uint256",
          "name": "listingId",
          "type": "uint256"
        }
      ],
      "name": "completeAuction",
      "outputs": [],
      "stateMutability": "payable",
      "type": "function"
    },
    {
      "inputs": [
        {
          "internalType": "uint256",
          "name": "price",
          "type": "uint256"
        },
        {
          "internalType": "uint256",
          "name": "tokenId",
          "type": "uint256"
        },
        {
          "internalType": "uint256",
          "name": "deadline",
          "type": "uint256"
        }
      ],
      "name": "createAuctionListing",
      "outputs": [
        {
          "internalType": "uint256",
          "name": "",
          "type": "uint256"
        }
      ],
      "stateMutability": "nonpayable",
      "type": "function"
    },
    {
      "inputs": [
        {
          "internalType": "uint256",
          "name": "tokenId",
          "type": "uint256"
        }
      ],
      "name": "executeSale",
      "outputs": [],
      "stateMutability": "payable",
      "type": "function"
    },
    {
      "inputs": [],
      "name": "getAllBiddedNfts",
      "outputs": [
        {
          "components": [
            {
              "internalType": "uint256",
              "name": "biddingId",
              "type": "uint256"
            },
            {
              "internalType": "address payable",
              "name": "seller",
              "type": "address"
            },
            {
              "internalType": "uint256",
              "name": "tokenId",
              "type": "uint256"
            },
            {
              "internalType": "uint256",
              "name": "price",
              "type": "uint256"
            },
            {
              "internalType": "uint256",
              "name": "netPrice",
              "type": "uint256"
            },
            {
              "internalType": "uint256",
              "name": "startAt",
              "type": "uint256"
            },
            {
              "internalType": "uint256",
              "name": "deadline",
              "type": "uint256"
            },
            {
              "internalType": "uint256",
              "name": "status",
              "type": "uint256"
            }
          ],
          "internalType": "struct PolygonNFTMarketplace.Listing[]",
          "name": "",
          "type": "tuple[]"
        }
      ],
      "stateMutability": "view",
      "type": "function"
    },
    {
      "inputs": [],
      "name": "getAllBiddingWithListingID",
      "outputs": [
        {
          "components": [
            {
              "internalType": "uint256",
              "name": "tokenId",
              "type": "uint256"
            },
            {
              "internalType": "uint256",
              "name": "biddingId",
              "type": "uint256"
            },
            {
              "internalType": "address",
              "name": "bidder",
              "type": "address"
            },
            {
              "internalType": "uint256",
              "name": "price",
              "type": "uint256"
            }
          ],
          "internalType": "struct PolygonNFTMarketplace.Bidding[]",
          "name": "",
          "type": "tuple[]"
        }
      ],
      "stateMutability": "view",
      "type": "function"
    },
    {
      "inputs": [],
      "name": "getAllNfts",
      "outputs": [
        {
          "components": [
            {
              "internalType": "uint256",
              "name": "tokenId",
              "type": "uint256"
            },
            {
              "internalType": "uint256",
              "name": "price",
              "type": "uint256"
            },
            {
              "internalType": "address payable",
              "name": "owner",
              "type": "address"
            },
            {
              "internalType": "bool",
              "name": "NFTsold",
              "type": "bool"
            },
            {
              "internalType": "bool",
              "name": "NFTbought",
              "type": "bool"
            }
          ],
          "internalType": "struct PolygonNFTMarketplace.ListedToken[]",
          "name": "",
          "type": "tuple[]"
        }
      ],
      "stateMutability": "view",
      "type": "function"
    },
    {
      "inputs": [
        {
          "internalType": "uint256",
          "name": "tokenId",
          "type": "uint256"
        }
      ],
      "name": "getApproved",
      "outputs": [
        {
          "internalType": "address",
          "name": "",
          "type": "address"
        }
      ],
      "stateMutability": "view",
      "type": "function"
    },
    {
      "inputs": [],
      "name": "getMyNFTs",
      "outputs": [
        {
          "components": [
            {
              "internalType": "uint256",
              "name": "tokenId",
              "type": "uint256"
            },
            {
              "internalType": "uint256",
              "name": "price",
              "type": "uint256"
            },
            {
              "internalType": "address payable",
              "name": "owner",
              "type": "address"
            },
            {
              "internalType": "bool",
              "name": "NFTsold",
              "type": "bool"
            },
            {
              "internalType": "bool",
              "name": "NFTbought",
              "type": "bool"
            }
          ],
          "internalType": "struct PolygonNFTMarketplace.ListedToken[]",
          "name": "",
          "type": "tuple[]"
        }
      ],
      "stateMutability": "view",
      "type": "function"
    },
    {
      "inputs": [],
      "name": "getMySoldNFTs",
      "outputs": [
        {
          "components": [
            {
              "internalType": "uint256",
              "name": "tokenId",
              "type": "uint256"
            },
            {
              "internalType": "uint256",
              "name": "price",
              "type": "uint256"
            },
            {
              "internalType": "address payable",
              "name": "owner",
              "type": "address"
            },
            {
              "internalType": "address",
              "name": "newOwner",
              "type": "address"
            },
            {
              "internalType": "bool",
              "name": "NFTsold",
              "type": "bool"
            }
          ],
          "internalType": "struct PolygonNFTMarketplace.ItemsSold[]",
          "name": "",
          "type": "tuple[]"
        }
      ],
      "stateMutability": "view",
      "type": "function"
    },
    {
      "inputs": [],
      "name": "getTotalBiddedTokens",
      "outputs": [
        {
          "internalType": "uint256",
          "name": "",
          "type": "uint256"
        }
      ],
      "stateMutability": "view",
      "type": "function"
    },
    {
      "inputs": [],
      "name": "getTotalMintedTokens",
      "outputs": [
        {
          "internalType": "uint256",
          "name": "",
          "type": "uint256"
        }
      ],
      "stateMutability": "view",
      "type": "function"
    },
    {
      "inputs": [],
      "name": "getTotalSoldTokens",
      "outputs": [
        {
          "internalType": "uint256",
          "name": "",
          "type": "uint256"
        }
      ],
      "stateMutability": "view",
      "type": "function"
    },
    {
      "inputs": [],
      "name": "getTotalUser",
      "outputs": [
        {
          "internalType": "uint256",
          "name": "",
          "type": "uint256"
        }
      ],
      "stateMutability": "view",
      "type": "function"
    },
    {
      "inputs": [
        {
          "internalType": "uint256",
          "name": "",
          "type": "uint256"
        }
      ],
      "name": "highestBidder",
      "outputs": [
        {
          "internalType": "address",
          "name": "",
          "type": "address"
        }
      ],
      "stateMutability": "view",
      "type": "function"
    },
    {
      "inputs": [],
      "name": "highestBidding",
      "outputs": [
        {
          "internalType": "uint256",
          "name": "",
          "type": "uint256"
        }
      ],
      "stateMutability": "view",
      "type": "function"
    },
    {
      "inputs": [
        {
          "internalType": "uint256",
          "name": "",
          "type": "uint256"
        }
      ],
      "name": "highestBiddingAmount",
      "outputs": [
        {
          "internalType": "uint256",
          "name": "",
          "type": "uint256"
        }
      ],
      "stateMutability": "view",
      "type": "function"
    },
    {
      "inputs": [
        {
          "internalType": "uint256",
          "name": "",
          "type": "uint256"
        }
      ],
      "name": "idToBiddedToken",
      "outputs": [
        {
          "internalType": "uint256",
          "name": "tokenId",
          "type": "uint256"
        },
        {
          "internalType": "uint256",
          "name": "biddingId",
          "type": "uint256"
        },
        {
          "internalType": "address",
          "name": "bidder",
          "type": "address"
        },
        {
          "internalType": "uint256",
          "name": "price",
          "type": "uint256"
        }
      ],
      "stateMutability": "view",
      "type": "function"
    },
    {
      "inputs": [
        {
          "internalType": "uint256",
          "name": "",
          "type": "uint256"
        }
      ],
      "name": "idToImageHash",
      "outputs": [
        {
          "internalType": "string",
          "name": "",
          "type": "string"
        }
      ],
      "stateMutability": "view",
      "type": "function"
    },
    {
      "inputs": [
        {
          "internalType": "uint256",
          "name": "",
          "type": "uint256"
        }
      ],
      "name": "idToListedToken",
      "outputs": [
        {
          "internalType": "uint256",
          "name": "tokenId",
          "type": "uint256"
        },
        {
          "internalType": "uint256",
          "name": "price",
          "type": "uint256"
        },
        {
          "internalType": "address payable",
          "name": "owner",
          "type": "address"
        },
        {
          "internalType": "bool",
          "name": "NFTsold",
          "type": "bool"
        },
        {
          "internalType": "bool",
          "name": "NFTbought",
          "type": "bool"
        }
      ],
      "stateMutability": "view",
      "type": "function"
    },
    {
      "inputs": [
        {
          "internalType": "uint256",
          "name": "",
          "type": "uint256"
        }
      ],
      "name": "idToSoldItems",
      "outputs": [
        {
          "internalType": "uint256",
          "name": "tokenId",
          "type": "uint256"
        },
        {
          "internalType": "uint256",
          "name": "price",
          "type": "uint256"
        },
        {
          "internalType": "address payable",
          "name": "owner",
          "type": "address"
        },
        {
          "internalType": "address",
          "name": "newOwner",
          "type": "address"
        },
        {
          "internalType": "bool",
          "name": "NFTsold",
          "type": "bool"
        }
      ],
      "stateMutability": "view",
      "type": "function"
    },
    {
      "inputs": [
        {
          "internalType": "address",
          "name": "owner",
          "type": "address"
        },
        {
          "internalType": "address",
          "name": "operator",
          "type": "address"
        }
      ],
      "name": "isApprovedForAll",
      "outputs": [
        {
          "internalType": "bool",
          "name": "",
          "type": "bool"
        }
      ],
      "stateMutability": "view",
      "type": "function"
    },
    {
      "inputs": [
        {
          "internalType": "uint256",
          "name": "id",
          "type": "uint256"
        }
      ],
      "name": "isAuctionExpired",
      "outputs": [
        {
          "internalType": "bool",
          "name": "",
          "type": "bool"
        }
      ],
      "stateMutability": "view",
      "type": "function"
    },
    {
      "inputs": [
        {
          "internalType": "uint256",
          "name": "id",
          "type": "uint256"
        }
      ],
      "name": "isAuctionOpen",
      "outputs": [
        {
          "internalType": "bool",
          "name": "",
          "type": "bool"
        }
      ],
      "stateMutability": "view",
      "type": "function"
    },
    {
      "inputs": [],
      "name": "listingCounter",
      "outputs": [
        {
          "internalType": "uint256",
          "name": "_value",
          "type": "uint256"
        }
      ],
      "stateMutability": "view",
      "type": "function"
    },
    {
      "inputs": [
        {
          "internalType": "uint256",
          "name": "",
          "type": "uint256"
        }
      ],
      "name": "listings",
      "outputs": [
        {
          "internalType": "uint256",
          "name": "biddingId",
          "type": "uint256"
        },
        {
          "internalType": "address payable",
          "name": "seller",
          "type": "address"
        },
        {
          "internalType": "uint256",
          "name": "tokenId",
          "type": "uint256"
        },
        {
          "internalType": "uint256",
          "name": "price",
          "type": "uint256"
        },
        {
          "internalType": "uint256",
          "name": "netPrice",
          "type": "uint256"
        },
        {
          "internalType": "uint256",
          "name": "startAt",
          "type": "uint256"
        },
        {
          "internalType": "uint256",
          "name": "deadline",
          "type": "uint256"
        },
        {
          "internalType": "uint256",
          "name": "status",
          "type": "uint256"
        }
      ],
      "stateMutability": "view",
      "type": "function"
    },
    {
      "inputs": [],
      "name": "minAuctionIncrement",
      "outputs": [
        {
          "internalType": "uint256",
          "name": "",
          "type": "uint256"
        }
      ],
      "stateMutability": "view",
      "type": "function"
    },
    {
      "inputs": [],
      "name": "name",
      "outputs": [
        {
          "internalType": "string",
          "name": "",
          "type": "string"
        }
      ],
      "stateMutability": "view",
      "type": "function"
    },
    {
      "inputs": [
        {
          "internalType": "address",
          "name": "user",
          "type": "address"
        }
      ],
      "name": "newUser",
      "outputs": [],
      "stateMutability": "nonpayable",
      "type": "function"
    },
    {
      "inputs": [
        {
          "internalType": "uint256",
          "name": "tokenId",
          "type": "uint256"
        }
      ],
      "name": "ownerOf",
      "outputs": [
        {
          "internalType": "address",
          "name": "",
          "type": "address"
        }
      ],
      "stateMutability": "view",
      "type": "function"
    },
    {
      "inputs": [
        {
          "internalType": "address",
          "name": "from",
          "type": "address"
        },
        {
          "internalType": "address",
          "name": "to",
          "type": "address"
        },
        {
          "internalType": "uint256",
          "name": "tokenId",
          "type": "uint256"
        }
      ],
      "name": "safeTransferFrom",
      "outputs": [],
      "stateMutability": "nonpayable",
      "type": "function"
    },
    {
      "inputs": [
        {
          "internalType": "address",
          "name": "from",
          "type": "address"
        },
        {
          "internalType": "address",
          "name": "to",
          "type": "address"
        },
        {
          "internalType": "uint256",
          "name": "tokenId",
          "type": "uint256"
        },
        {
          "internalType": "bytes",
          "name": "data",
          "type": "bytes"
        }
      ],
      "name": "safeTransferFrom",
      "outputs": [],
      "stateMutability": "nonpayable",
      "type": "function"
    },
    {
      "inputs": [
        {
          "internalType": "address",
          "name": "operator",
          "type": "address"
        },
        {
          "internalType": "bool",
          "name": "approved",
          "type": "bool"
        }
      ],
      "name": "setApprovalForAll",
      "outputs": [],
      "stateMutability": "nonpayable",
      "type": "function"
    },
    {
      "inputs": [
        {
          "internalType": "bytes4",
          "name": "interfaceId",
          "type": "bytes4"
        }
      ],
      "name": "supportsInterface",
      "outputs": [
        {
          "internalType": "bool",
          "name": "",
          "type": "bool"
        }
      ],
      "stateMutability": "view",
      "type": "function"
    },
    {
      "inputs": [],
      "name": "symbol",
      "outputs": [
        {
          "internalType": "string",
          "name": "",
          "type": "string"
        }
      ],
      "stateMutability": "view",
      "type": "function"
    },
    {
      "inputs": [
        {
          "internalType": "uint256",
          "name": "tokenId",
          "type": "uint256"
        }
      ],
      "name": "tokenURI",
      "outputs": [
        {
          "internalType": "string",
          "name": "",
          "type": "string"
        }
      ],
      "stateMutability": "view",
      "type": "function"
    },
    {
      "inputs": [
        {
          "internalType": "address",
          "name": "from",
          "type": "address"
        },
        {
          "internalType": "address",
          "name": "to",
          "type": "address"
        },
        {
          "internalType": "uint256",
          "name": "tokenId",
          "type": "uint256"
        }
      ],
      "name": "transferFrom",
      "outputs": [],
      "stateMutability": "nonpayable",
      "type": "function"
    },
    {
      "inputs": [
        {
          "internalType": "uint256",
          "name": "listingId",
          "type": "uint256"
        }
      ],
      "name": "withdrawBid",
      "outputs": [],
      "stateMutability": "payable",
      "type": "function"
    }
  ],
  "bytecode": "0x6080604052600a60125560006016553480156200001b57600080fd5b50604080518082018252601581527f506f6c79676f6e4e46544d61726b6574706c61636500000000000000000000006020808301918252835180850190945260048452634441524b60e01b9084015281519192916200007d91600091620000a1565b50805162000093906001906020840190620000a1565b505060016007555062000184565b828054620000af9062000147565b90600052602060002090601f016020900481019282620000d357600085556200011e565b82601f10620000ee57805160ff19168380011785556200011e565b828001600101855582156200011e579182015b828111156200011e57825182559160200191906001019062000101565b506200012c92915062000130565b5090565b5b808211156200012c576000815560010162000131565b600181811c908216806200015c57607f821691505b602082108114156200017e57634e487b7160e01b600052602260045260246000fd5b50919050565b61385580620001946000396000f3fe6080604052600436106102e45760003560e01c80636c2c9c7d11610190578063a9c63aa0116100dc578063de74e57b11610095578063e985e9c51161006f578063e985e9c514610a83578063edf2ebcc14610acc578063f67a769c14610ae3578063fad266fe14610af857600080fd5b8063de74e57b14610918578063e57a497a146109c3578063e877d3f814610a5657600080fd5b8063a9c63aa014610850578063adc2524c14610865578063b27dce8114610894578063b820a6d1146108b6578063b88d4fde146108d8578063c87b56dd146108f857600080fd5b8063903405bb116101495780639d6e5fb3116101235780639d6e5fb3146107ed578063a22cb46514610802578063a4fdb63514610822578063a71ffa761461083957600080fd5b8063903405bb146107af57806395d89b41146107c55780639b1225c4146107da57600080fd5b80636c2c9c7d14610702578063708d4d351461071957806370a082311461072f578063732e8d731461074f578063740db280146107645780638055ccaa1461077957600080fd5b806324f8515b1161024f5780634945dcdd116102085780635ac8b5b0116101e25780635ac8b5b014610623578063629cb2e4146106435780636352211e146106655780636b8c91cb1461068557600080fd5b80634945dcdd146105cc5780634c22f381146105ee57806359be5e451461060e57600080fd5b806324f8515b1461049457806333024100146104bb57806336ad658f1461054c57806342842e0e14610563578063451df52e14610583578063454a2ab3146105b957600080fd5b80630cb5f653116102a15780630cb5f653146103da5780630eaaf4c8146103fa5780631053aff21461040d5780631389b1171461042e57806321b628861461046157806323b872dd1461047457600080fd5b806301ffc9a7146102e957806306fdde031461031e578063081812fc14610340578063095ea7b3146103785780630ad486281461039a5780630ad52cc6146103ba575b600080fd5b3480156102f557600080fd5b50610309610304366004613293565b610b0f565b60405190151581526020015b60405180910390f35b34801561032a57600080fd5b50610333610b3a565b604051610315919061364c565b34801561034c57600080fd5b5061036061035b36600461335f565b610bcc565b6040516001600160a01b039091168152602001610315565b34801561038457600080fd5b5061039861039336600461326a565b610bf3565b005b3480156103a657600080fd5b506103096103b536600461335f565b610d0e565b3480156103c657600080fd5b506103336103d536600461335f565b610d42565b3480156103e657600080fd5b506103986103f5366004613130565b610ddc565b61039861040836600461335f565b610e9c565b61042061041b3660046132fe565b61105e565b604051908152602001610315565b34801561043a57600080fd5b5061030961044936600461335f565b60009081526013602052604090206006015442101590565b61039861046f36600461335f565b61110e565b34801561048057600080fd5b5061039861048f36600461317c565b6112c8565b3480156104a057600080fd5b506104a9600181565b60405160ff9091168152602001610315565b3480156104c757600080fd5b506105166104d636600461335f565b600f602052600090815260409020805460018201546002830154600390930154919290916001600160a01b0391821691811690600160a01b900460ff1685565b6040805195865260208601949094526001600160a01b03928316938501939093521660608301521515608082015260a001610315565b34801561055857600080fd5b506008546104209081565b34801561056f57600080fd5b5061039861057e36600461317c565b6112f9565b34801561058f57600080fd5b5061036061059e36600461335f565b6014602052600090815260409020546001600160a01b031681565b6103986105c736600461335f565b611314565b3480156105d857600080fd5b506105e161150e565b60405161031591906135c3565b3480156105fa57600080fd5b50610420610609366004613398565b61172e565b34801561061a57600080fd5b50610420611803565b34801561062f57600080fd5b5061030961063e3660046132cb565b611813565b34801561064f57600080fd5b50610658611955565b6040516103159190613555565b34801561067157600080fd5b5061036061068036600461335f565b611b4f565b34801561069157600080fd5b506106d36106a036600461335f565b6017602052600090815260409020805460018201546002830154600390930154919290916001600160a01b039091169084565b604051610315949392919093845260208401929092526001600160a01b03166040830152606082015260800190565b34801561070e57600080fd5b50600b546104209081565b34801561072557600080fd5b5061042060125481565b34801561073b57600080fd5b5061042061074a366004613130565b611baf565b34801561075b57600080fd5b50610658611c35565b34801561077057600080fd5b506104a9600081565b34801561078557600080fd5b5061036061079436600461335f565b6011602052600090815260409020546001600160a01b031681565b3480156107bb57600080fd5b5061042060165481565b3480156107d157600080fd5b50610333611e15565b6103986107e836600461335f565b611e24565b3480156107f957600080fd5b5061042061200f565b34801561080e57600080fd5b5061039861081d366004613230565b61201a565b34801561082e57600080fd5b50600c546104209081565b34801561084557600080fd5b50600d546104209081565b34801561085c57600080fd5b50610420612029565b34801561087157600080fd5b50610398610880366004613377565b6000908152600e6020526040902060010155565b3480156108a057600080fd5b506108a9612034565b60405161031591906134e4565b3480156108c257600080fd5b506108cb61222a565b6040516103159190613477565b3480156108e457600080fd5b506103986108f33660046131b7565b6123ff565b34801561090457600080fd5b5061033361091336600461335f565b612431565b34801561092457600080fd5b5061098061093336600461335f565b6013602052600090815260409020805460018201546002830154600384015460048501546005860154600687015460079097015495966001600160a01b0390951695939492939192909188565b604080519889526001600160a01b039097166020890152958701949094526060860192909252608085015260a084015260c083015260e082015261010001610315565b3480156109cf57600080fd5b50610a1e6109de36600461335f565b600e602052600090815260409020805460018201546002909201549091906001600160a01b0381169060ff600160a01b8204811691600160a81b90041685565b6040805195865260208601949094526001600160a01b039092169284019290925290151560608301521515608082015260a001610315565b348015610a6257600080fd5b50610420610a7136600461335f565b60156020526000908152604090205481565b348015610a8f57600080fd5b50610309610a9e36600461314a565b6001600160a01b03918216600090815260056020908152604080832093909416825291909152205460ff1690565b348015610ad857600080fd5b506009546104209081565b348015610aef57600080fd5b5061042061253a565b348015610b0457600080fd5b50600a546104209081565b60006001600160e01b03198216632483248360e11b1480610b345750610b3482612545565b92915050565b606060008054610b4990613787565b80601f0160208091040260200160405190810160405280929190818152602001828054610b7590613787565b8015610bc25780601f10610b9757610100808354040283529160200191610bc2565b820191906000526020600020905b815481529060010190602001808311610ba557829003601f168201915b5050505050905090565b6000610bd782612595565b506000908152600460205260409020546001600160a01b031690565b6000610bfe82611b4f565b9050806001600160a01b0316836001600160a01b03161415610c715760405162461bcd60e51b815260206004820152602160248201527f4552433732313a20617070726f76616c20746f2063757272656e74206f776e656044820152603960f91b60648201526084015b60405180910390fd5b336001600160a01b0382161480610c8d5750610c8d8133610a9e565b610cff5760405162461bcd60e51b815260206004820152603d60248201527f4552433732313a20617070726f76652063616c6c6572206973206e6f7420746f60448201527f6b656e206f776e6572206f7220617070726f76656420666f7220616c6c0000006064820152608401610c68565b610d0983836125f4565b505050565b6000818152601360205260408120600701546001148015610b34575050600090815260136020526040902060060154421090565b60106020526000908152604090208054610d5b90613787565b80601f0160208091040260200160405190810160405280929190818152602001828054610d8790613787565b8015610dd45780601f10610da957610100808354040283529160200191610dd4565b820191906000526020600020905b815481529060010190602001808311610db757829003601f168201915b505050505081565b6000610de7600d5490565b90506000805b82811015610e4e576001600160a01b03841660116000610e0e846001613743565b81526020810191909152604001600020546001600160a01b03161415610e3c57610e39600183613743565b91505b80610e46816137c2565b915050610ded565b5080610d0957610e62600d80546001019055565b6000610e6d600d5490565b600090815260116020526040902080546001600160a01b0386166001600160a01b031990911617905550505050565b610ea4612662565b600081815260136020526040902060060154421015610efd5760405162461bcd60e51b8152602060048201526015602482015274185d58dd1a5bdb881b5d5cdd08189948195b991959605a1b6044820152606401610c68565b6000818152601460205260409020546001600160a01b0316331415610f6f5760405162461bcd60e51b815260206004820152602260248201527f68696768657374206269646465722063616e6e6f7420776974686472617720626044820152611a5960f21b6064820152608401610c68565b6000610f7a600c5490565b90506000805b82811015611020573360176000610f98846001613743565b81526020810191909152604001600020600201546001600160a01b0316141561100e5760176000610fca836001613743565b81526020019081526020016000206003015482610fe79190613743565b91506000601781610ff9846001613743565b81526020810191909152604001600020600301555b80611018816137c2565b915050610f80565b50604051339082156108fc029083906000818181858888f1935050505015801561104e573d6000803e3d6000fd5b50505061105b6001600755565b50565b60008061106a83611813565b905080156110ae5760405162461bcd60e51b815260206004820152601160248201527013919508185b1c9958591e48195e1a5cdd607a1b6044820152606401610c68565b6110bc600880546001019055565b60006110c760085490565b90506110d333826126bc565b6110dd81866126d6565b600081815260106020908152604090912085516110fc92870190612fe6565b50611106816127a8565b949350505050565b611116612662565b61111f81610d0e565b156111645760405162461bcd60e51b815260206004820152601560248201527430bab1ba34b7b71034b99039ba34b6361037b832b760591b6044820152606401610c68565b600081815260136020908152604080832060149092529091205460018201546001600160a01b0391821691163314806111a55750336001600160a01b038216145b6112045760405162461bcd60e51b815260206004820152602a60248201527f6f6e6c792073656c6c6572206f722077696e6e65722063616e20636f6d706c656044820152693a329030bab1ba34b7b760b11b6064820152608401610c68565b60008381526015602052604090205480611224576000600784015561104e565b600283015460018401546001600160a01b0316611242818584612840565b6040516001600160a01b0382169084156108fc029085906000818181858888f19350505050158015611278573d6000803e3d6000fd5b50506001840180546001600160a01b0385166001600160a01b031991821681179092556000928352600e6020526040832060020180549091169091179055600784015550505061105b6001600755565b6112d233826129a4565b6112ee5760405162461bcd60e51b8152600401610c689061365f565b610d09838383612840565b610d09838383604051806020016040528060008152506123ff565b61131c612662565b61132581610d0e565b6113655760405162461bcd60e51b8152602060048201526011602482015270185d58dd1a5bdb881a185cc8195b991959607a1b6044820152606401610c68565b60008181526013602052604090206003015434116113c55760405162461bcd60e51b815260206004820152601f60248201527f56616c756520697320736d616c6c6572207468616e206269642076616c7565006044820152606401610c68565b6000818152601360205260409020600101546001600160a01b031633141561142f5760405162461bcd60e51b815260206004820152601a60248201527f796f752063616e27742062696420796f7572206f776e206e66740000000000006044820152606401610c68565b61143d600c80546001019055565b6000611448600c5490565b60408051608081018252600085815260136020908152838220600290810154845281840188815233858701908152346060870181815289875260179095529690942094518555516001850155915191830180546001600160a01b0319166001600160a01b03909316929092179091555160039091015560165491925011156114fa57346016819055600083815260146020908152604080832080546001600160a01b0319163317905560159091529020555b61150333610ddc565b5061105b6001600755565b6060600061151b600b5490565b905060008060005b83811015611573576013600061153a836001613743565b8152602001908152602001600020600301546000146115615761155e600184613743565b92505b61156c600182613743565b9050611523565b5060008267ffffffffffffffff81111561159d57634e487b7160e01b600052604160045260246000fd5b60405190808252806020026020018201604052801561161f57816020015b61160c6040518061010001604052806000815260200160006001600160a01b031681526020016000815260200160008152602001600081526020016000815260200160008152602001600081525090565b8152602001906001900390816115bb5790505b50905060005b8481101561172557600060138161163d846001613743565b815260200190815260200160002090506013600083600161165e9190613743565b8152602001908152602001600020600301546000146117125760408051610100810182528254815260018301546001600160a01b031660208201526002830154918101919091526003820154606082015260048201546080820152600582015460a0820152600682015460c0820152600782015460e082015283518490869081106116f957634e487b7160e01b600052603260045260246000fd5b602090810291909101015261170f600185613743565b93505b5061171e600182613743565b9050611625565b50949350505050565b600061173e600b80546001019055565b6000611749600b5490565b90504260006117588583613743565b60408051610100810182528581523360208083019182528284019a8b52606083018c8152608084019c8d5260a0840197885260c08401958652600160e0850181815260008b815260139094529590922093518455915190830180546001600160a01b0319166001600160a01b03909216919091179055985160028201559751600389015597516004880155915160058701555051600685015593516007909301929092555090919050565b600061180e60095490565b905090565b60008061181f60085490565b905082606060005b83811015611949576010600061183e836001613743565b8152602001908152602001600020805461185790613787565b80601f016020809104026020016040519081016040528092919081815260200182805461188390613787565b80156118d05780601f106118a5576101008083540402835291602001916118d0565b820191906000526020600020905b8154815290600101906020018083116118b357829003601f168201915b50505050509150826040516020016118e891906133ef565b604051602081830303815290604052805190602001208260405160200161190f91906133ef565b6040516020818303038152906040528051906020012014156119375750600195945050505050565b80611941816137c2565b915050611827565b50600095945050505050565b6060600061196260085490565b9050600080805b838110156119c45733600e6000611981846001613743565b81526020810191909152604001600020600201546001600160a01b031614156119b257816119ae816137c2565b9250505b806119bc816137c2565b915050611969565b5060008167ffffffffffffffff8111156119ee57634e487b7160e01b600052604160045260246000fd5b604051908082528060200260200182016040528015611a4757816020015b6040805160a081018252600080825260208083018290529282018190526060820181905260808201528252600019909201910181611a0c5790505b50905060005b848110156117255733600e6000611a65846001613743565b81526020810191909152604001600020600201546001600160a01b03161415611b3d576000600e81611a98846001613743565b81526020808201929092526040908101600020815160a0810183528154815260018201549381019390935260028101546001600160a01b0381169284019290925260ff600160a01b8304811615156060850152600160a81b909204909116151560808301528451909250849087908110611b2257634e487b7160e01b600052603260045260246000fd5b60200260200101819052508480611b38906137c2565b955050505b80611b47816137c2565b915050611a4d565b6000818152600260205260408120546001600160a01b031680610b345760405162461bcd60e51b8152602060048201526018602482015277115490cdcc8c4e881a5b9d985b1a59081d1bdad95b88125160421b6044820152606401610c68565b60006001600160a01b038216611c195760405162461bcd60e51b815260206004820152602960248201527f4552433732313a2061646472657373207a65726f206973206e6f7420612076616044820152683634b21037bbb732b960b91b6064820152608401610c68565b506001600160a01b031660009081526003602052604090205490565b60606000611c4260085490565b905060008060005b83811015611c9a57600e6000611c61836001613743565b815260200190815260200160002060010154600014611c8857611c85600184613743565b92505b611c93600182613743565b9050611c4a565b5060008267ffffffffffffffff811115611cc457634e487b7160e01b600052604160045260246000fd5b604051908082528060200260200182016040528015611d1d57816020015b6040805160a081018252600080825260208083018290529282018190526060820181905260808201528252600019909201910181611ce25790505b50905060005b84811015611725576000600e81611d3b846001613743565b81526020019081526020016000209050600e6000836001611d5c9190613743565b815260200190815260200160002060010154600014611e02576040805160a081018252825481526001830154602082015260028301546001600160a01b0381169282019290925260ff600160a01b8304811615156060830152600160a81b909204909116151560808201528351849086908110611de957634e487b7160e01b600052603260045260246000fd5b6020908102919091010152611dff600185613743565b93505b50611e0e600182613743565b9050611d23565b606060018054610b4990613787565b6000818152600e6020526040902060018101546002909101546001600160a01b0316331415611e955760405162461bcd60e51b815260206004820152601a60248201527f796f752063616e27742062757920796f7572206f776e206e66740000000000006044820152606401610c68565b6000828152600e60205260409020600201546001600160a01b0316611ebb813385612840565b611ec58184610bf3565b6000838152600e6020526040808220600201805460ff60a81b1960ff60a01b1933166001600160a81b031990921691909117600160a01b1716600160a81b179055516001600160a01b038316913480156108fc02929091818181858888f19350505050158015611f39573d6000803e3d6000fd5b50611f48600980546001019055565b6000611f5360095490565b6040805160a08101825286815260208082018781526001600160a01b03808816848601908152336060860181815260016080880181815260008b8152600f89528a812099518a5596518983015593516002890180549187166001600160a01b031990921691909117905590516003909701805493511515600160a01b026001600160a81b0319909416979094169690961791909117909155898252600e9092529283209091019190915590915061200990610ddc565b50505050565b600061180e600c5490565b612025338383612a22565b5050565b600061180e600d5490565b6060600061204160095490565b9050600080805b838110156120a35733600f6000612060846001613743565b81526020810191909152604001600020600201546001600160a01b03161415612091578161208d816137c2565b9250505b8061209b816137c2565b915050612048565b5060008167ffffffffffffffff8111156120cd57634e487b7160e01b600052604160045260246000fd5b60405190808252806020026020018201604052801561212657816020015b6040805160a0810182526000808252602080830182905292820181905260608201819052608082015282526000199092019101816120eb5790505b50905060005b848110156117255733600f6000612144846001613743565b81526020810191909152604001600020600201546001600160a01b03161415612218576000600f81612177846001613743565b81526020808201929092526040908101600020815160a0810183528154815260018201549381019390935260028101546001600160a01b039081169284019290925260038101549182166060840152600160a01b90910460ff161515608083015284519092508490879081106121fd57634e487b7160e01b600052603260045260246000fd5b60200260200101819052508480612213906137c2565b955050505b80612222816137c2565b91505061212c565b60606000612237600c5490565b9050600080805b8381101561228e5760176000612255836001613743565b81526020019081526020016000206003015460001461227c5781612278816137c2565b9250505b80612286816137c2565b91505061223e565b5060008167ffffffffffffffff8111156122b857634e487b7160e01b600052604160045260246000fd5b60405190808252806020026020018201604052801561231d57816020015b61230a6040518060800160405280600081526020016000815260200160006001600160a01b03168152602001600081525090565b8152602001906001900390816122d65790505b50905060005b84811015611725576017600061233a836001613743565b8152602001908152602001600020600301546000146123ed576000601781612363846001613743565b8152602080820192909252604090810160002081516080810183528154815260018201549381019390935260028101546001600160a01b0316918301919091526003810154606083015284519092508490879081106123d257634e487b7160e01b600052603260045260246000fd5b602002602001018190525084806123e8906137c2565b955050505b806123f7816137c2565b915050612323565b61240933836129a4565b6124255760405162461bcd60e51b8152600401610c689061365f565b61200984848484612af1565b606061243c82612595565b6000828152600660205260408120805461245590613787565b80601f016020809104026020016040519081016040528092919081815260200182805461248190613787565b80156124ce5780601f106124a3576101008083540402835291602001916124ce565b820191906000526020600020905b8154815290600101906020018083116124b157829003601f168201915b5050505050905060006124ec60408051602081019091526000815290565b90508051600014156124ff575092915050565b81511561253157808260405160200161251992919061340b565b60405160208183030381529060405292505050919050565b61110684612b24565b600061180e60085490565b60006001600160e01b031982166380ac58cd60e01b148061257657506001600160e01b03198216635b5e139f60e01b145b80610b3457506301ffc9a760e01b6001600160e01b0319831614610b34565b6000818152600260205260409020546001600160a01b031661105b5760405162461bcd60e51b8152602060048201526018602482015277115490cdcc8c4e881a5b9d985b1a59081d1bdad95b88125160421b6044820152606401610c68565b600081815260046020526040902080546001600160a01b0319166001600160a01b038416908117909155819061262982611b4f565b6001600160a01b03167f8c5be1e5ebec7d5bd14f71427d1e84f3dd0314c0f7b2291e5b200ac8c7c3b92560405160405180910390a45050565b600260075414156126b55760405162461bcd60e51b815260206004820152601f60248201527f5265656e7472616e637947756172643a207265656e7472616e742063616c6c006044820152606401610c68565b6002600755565b612025828260405180602001604052806000815250612b98565b6000828152600260205260409020546001600160a01b03166127515760405162461bcd60e51b815260206004820152602e60248201527f45524337323155524953746f726167653a2055524920736574206f66206e6f6e60448201526d32bc34b9ba32b73a103a37b5b2b760911b6064820152608401610c68565b6000828152600660209081526040909120825161277092840190612fe6565b506040518281527ff8e1a15aba9398e019f0b49df1a4fde98ee17ae345cb5f6b5e2c27f5033e8ce79060200160405180910390a15050565b6040805160a08101825282815260006020808301828152338486018181526060860185815260808701868152898752600e909552969094209451855590516001850155915160029093018054945191511515600160a81b0260ff60a81b19921515600160a01b026001600160a81b03199096166001600160a01b03959095169490941794909417169190911790915561105b90610ddc565b826001600160a01b031661285382611b4f565b6001600160a01b0316146128795760405162461bcd60e51b8152600401610c68906136fe565b6001600160a01b0382166128db5760405162461bcd60e51b8152602060048201526024808201527f4552433732313a207472616e7366657220746f20746865207a65726f206164646044820152637265737360e01b6064820152608401610c68565b826001600160a01b03166128ee82611b4f565b6001600160a01b0316146129145760405162461bcd60e51b8152600401610c68906136fe565b600081815260046020908152604080832080546001600160a01b03199081169091556001600160a01b0387811680865260038552838620805460001901905590871680865283862080546001019055868652600290945282852080549092168417909155905184937fddf252ad1be2c89b69c2b068fc378daa952ba7f163c4a11628f55a4df523b3ef91a4505050565b6000806129b083611b4f565b9050806001600160a01b0316846001600160a01b031614806129f757506001600160a01b0380821660009081526005602090815260408083209388168352929052205460ff165b806111065750836001600160a01b0316612a1084610bcc565b6001600160a01b031614949350505050565b816001600160a01b0316836001600160a01b03161415612a845760405162461bcd60e51b815260206004820152601960248201527f4552433732313a20617070726f766520746f2063616c6c6572000000000000006044820152606401610c68565b6001600160a01b03838116600081815260056020908152604080832094871680845294825291829020805460ff191686151590811790915591519182527f17307eab39ab6107e8899845ad3d59bd9653f200f220920489ca2b5937696c31910160405180910390a3505050565b612afc848484612840565b612b0884848484612bcb565b6120095760405162461bcd60e51b8152600401610c68906136ac565b6060612b2f82612595565b6000612b4660408051602081019091526000815290565b90506000815111612b665760405180602001604052806000815250612b91565b80612b7084612cd8565b604051602001612b8192919061340b565b6040516020818303038152906040525b9392505050565b612ba28383612d83565b612baf6000848484612bcb565b610d095760405162461bcd60e51b8152600401610c68906136ac565b60006001600160a01b0384163b15612ccd57604051630a85bd0160e11b81526001600160a01b0385169063150b7a0290612c0f90339089908890889060040161343a565b602060405180830381600087803b158015612c2957600080fd5b505af1925050508015612c59575060408051601f3d908101601f19168201909252612c56918101906132af565b60015b612cb3573d808015612c87576040519150601f19603f3d011682016040523d82523d6000602084013e612c8c565b606091505b508051612cab5760405162461bcd60e51b8152600401610c68906136ac565b805181602001fd5b6001600160e01b031916630a85bd0160e11b149050611106565b506001949350505050565b60606000612ce583612f0e565b600101905060008167ffffffffffffffff811115612d1357634e487b7160e01b600052604160045260246000fd5b6040519080825280601f01601f191660200182016040528015612d3d576020820181803683370190505b5090508181016020015b600019016f181899199a1a9b1b9c1cb0b131b232b360811b600a86061a8153600a8504945084612d7657612d7b565b612d47565b509392505050565b6001600160a01b038216612dd95760405162461bcd60e51b815260206004820181905260248201527f4552433732313a206d696e7420746f20746865207a65726f20616464726573736044820152606401610c68565b6000818152600260205260409020546001600160a01b031615612e3e5760405162461bcd60e51b815260206004820152601c60248201527f4552433732313a20746f6b656e20616c7265616479206d696e746564000000006044820152606401610c68565b6000818152600260205260409020546001600160a01b031615612ea35760405162461bcd60e51b815260206004820152601c60248201527f4552433732313a20746f6b656e20616c7265616479206d696e746564000000006044820152606401610c68565b6001600160a01b038216600081815260036020908152604080832080546001019055848352600290915280822080546001600160a01b0319168417905551839291907fddf252ad1be2c89b69c2b068fc378daa952ba7f163c4a11628f55a4df523b3ef908290a45050565b60008072184f03e93ff9f4daa797ed6e38ed64bf6a1f0160401b8310612f4d5772184f03e93ff9f4daa797ed6e38ed64bf6a1f0160401b830492506040015b6d04ee2d6d415b85acef81000000008310612f79576d04ee2d6d415b85acef8100000000830492506020015b662386f26fc100008310612f9757662386f26fc10000830492506010015b6305f5e1008310612faf576305f5e100830492506008015b6127108310612fc357612710830492506004015b60648310612fd5576064830492506002015b600a8310610b345760010192915050565b828054612ff290613787565b90600052602060002090601f016020900481019282613014576000855561305a565b82601f1061302d57805160ff191683800117855561305a565b8280016001018555821561305a579182015b8281111561305a57825182559160200191906001019061303f565b5061306692915061306a565b5090565b5b80821115613066576000815560010161306b565b600067ffffffffffffffff8084111561309a5761309a6137f3565b604051601f8501601f19908116603f011681019082821181831017156130c2576130c26137f3565b816040528093508581528686860111156130db57600080fd5b858560208301376000602087830101525050509392505050565b80356001600160a01b038116811461310c57600080fd5b919050565b600082601f830112613121578081fd5b612b918383356020850161307f565b600060208284031215613141578081fd5b612b91826130f5565b6000806040838503121561315c578081fd5b613165836130f5565b9150613173602084016130f5565b90509250929050565b600080600060608486031215613190578081fd5b613199846130f5565b92506131a7602085016130f5565b9150604084013590509250925092565b600080600080608085870312156131cc578081fd5b6131d5856130f5565b93506131e3602086016130f5565b925060408501359150606085013567ffffffffffffffff811115613205578182fd5b8501601f81018713613215578182fd5b6132248782356020840161307f565b91505092959194509250565b60008060408385031215613242578182fd5b61324b836130f5565b91506020830135801515811461325f578182fd5b809150509250929050565b6000806040838503121561327c578182fd5b613285836130f5565b946020939093013593505050565b6000602082840312156132a4578081fd5b8135612b9181613809565b6000602082840312156132c0578081fd5b8151612b9181613809565b6000602082840312156132dc578081fd5b813567ffffffffffffffff8111156132f2578182fd5b61110684828501613111565b60008060408385031215613310578182fd5b823567ffffffffffffffff80821115613327578384fd5b61333386838701613111565b93506020850135915080821115613348578283fd5b5061335585828601613111565b9150509250929050565b600060208284031215613370578081fd5b5035919050565b60008060408385031215613389578182fd5b50508035926020909101359150565b6000806000606084860312156133ac578283fd5b505081359360208301359350604090920135919050565b600081518084526133db81602086016020860161375b565b601f01601f19169290920160200192915050565b6000825161340181846020870161375b565b9190910192915050565b6000835161341d81846020880161375b565b83519083019061343181836020880161375b565b01949350505050565b6001600160a01b038581168252841660208201526040810183905260806060820181905260009061346d908301846133c3565b9695505050505050565b602080825282518282018190526000919060409081850190868401855b828110156134d7578151805185528681015187860152858101516001600160a01b0316868601526060908101519085015260809093019290850190600101613494565b5091979650505050505050565b602080825282518282018190526000919060409081850190868401855b828110156134d7578151805185528681015187860152858101516001600160a01b03908116878701526060808301519091169086015260809081015115159085015260a09093019290850190600101613501565b602080825282518282018190526000919060409081850190868401855b828110156134d7578151805185528681015187860152858101516001600160a01b03168686015260608082015115159086015260809081015115159085015260a09093019290850190600101613572565b602080825282518282018190526000919060409081850190868401855b828110156134d757815180518552868101516001600160a01b0316878601528581015186860152606080820151908601526080808201519086015260a0808201519086015260c0808201519086015260e0908101519085015261010090930192908501906001016135e0565b602081526000612b9160208301846133c3565b6020808252602d908201527f4552433732313a2063616c6c6572206973206e6f7420746f6b656e206f776e6560408201526c1c881bdc88185c1c1c9bdd9959609a1b606082015260800190565b60208082526032908201527f4552433732313a207472616e7366657220746f206e6f6e20455243373231526560408201527131b2b4bb32b91034b6b83632b6b2b73a32b960711b606082015260800190565b60208082526025908201527f4552433732313a207472616e736665722066726f6d20696e636f72726563742060408201526437bbb732b960d91b606082015260800190565b60008219821115613756576137566137dd565b500190565b60005b8381101561377657818101518382015260200161375e565b838111156120095750506000910152565b600181811c9082168061379b57607f821691505b602082108114156137bc57634e487b7160e01b600052602260045260246000fd5b50919050565b60006000198214156137d6576137d66137dd565b5060010190565b634e487b7160e01b600052601160045260246000fd5b634e487b7160e01b600052604160045260246000fd5b6001600160e01b03198116811461105b57600080fdfea2646970667358221220b86d060a47967503db957afa7ea6cedc60afdd3250bbf1a12fdc39b28b5f0fbd64736f6c63430008040033",
  "linkReferences": {},
  "deployedLinkReferences": {}
}