{
  "_format": "hh-sol-artifact-1",
  "contractName": "PolygonNFTMarketplace",
  "sourceName": "contracts/PolygonNFTMarketplace.sol",
  "abi": [
    {
      "inputs": [],
      "stateMutability": "nonpayable",
      "type": "constructor"
    },
    {
      "anonymous": false,
      "inputs": [
        {
          "indexed": true,
          "internalType": "address",
          "name": "owner",
          "type": "address"
        },
        {
          "indexed": true,
          "internalType": "address",
          "name": "approved",
          "type": "address"
        },
        {
          "indexed": true,
          "internalType": "uint256",
          "name": "tokenId",
          "type": "uint256"
        }
      ],
      "name": "Approval",
      "type": "event"
    },
    {
      "anonymous": false,
      "inputs": [
        {
          "indexed": true,
          "internalType": "address",
          "name": "owner",
          "type": "address"
        },
        {
          "indexed": true,
          "internalType": "address",
          "name": "operator",
          "type": "address"
        },
        {
          "indexed": false,
          "internalType": "bool",
          "name": "approved",
          "type": "bool"
        }
      ],
      "name": "ApprovalForAll",
      "type": "event"
    },
    {
      "anonymous": false,
      "inputs": [
        {
          "indexed": false,
          "internalType": "uint256",
          "name": "_fromTokenId",
          "type": "uint256"
        },
        {
          "indexed": false,
          "internalType": "uint256",
          "name": "_toTokenId",
          "type": "uint256"
        }
      ],
      "name": "BatchMetadataUpdate",
      "type": "event"
    },
    {
      "anonymous": false,
      "inputs": [
        {
          "indexed": false,
          "internalType": "uint256",
          "name": "_tokenId",
          "type": "uint256"
        }
      ],
      "name": "MetadataUpdate",
      "type": "event"
    },
    {
      "anonymous": false,
      "inputs": [
        {
          "indexed": true,
          "internalType": "address",
          "name": "from",
          "type": "address"
        },
        {
          "indexed": true,
          "internalType": "address",
          "name": "to",
          "type": "address"
        },
        {
          "indexed": true,
          "internalType": "uint256",
          "name": "tokenId",
          "type": "uint256"
        }
      ],
      "name": "Transfer",
      "type": "event"
    },
    {
      "inputs": [],
      "name": "TokenCount",
      "outputs": [
        {
          "internalType": "uint256",
          "name": "_value",
          "type": "uint256"
        }
      ],
      "stateMutability": "view",
      "type": "function"
    },
    {
      "inputs": [
        {
          "internalType": "address",
          "name": "to",
          "type": "address"
        },
        {
          "internalType": "uint256",
          "name": "tokenId",
          "type": "uint256"
        }
      ],
      "name": "approve",
      "outputs": [],
      "stateMutability": "nonpayable",
      "type": "function"
    },
    {
      "inputs": [
        {
          "internalType": "address",
          "name": "owner",
          "type": "address"
        }
      ],
      "name": "balanceOf",
      "outputs": [
        {
          "internalType": "uint256",
          "name": "",
          "type": "uint256"
        }
      ],
      "stateMutability": "view",
      "type": "function"
    },
    {
      "inputs": [
        {
          "internalType": "uint256",
          "name": "tokenId",
          "type": "uint256"
        }
      ],
      "name": "executeSale",
      "outputs": [],
      "stateMutability": "payable",
      "type": "function"
    },
    {
      "inputs": [],
      "name": "getAllNfts",
      "outputs": [
        {
          "components": [
            {
              "internalType": "uint256",
              "name": "tokenId",
              "type": "uint256"
            },
            {
              "internalType": "uint256",
              "name": "price",
              "type": "uint256"
            },
            {
              "internalType": "address payable",
              "name": "owner",
              "type": "address"
            },
            {
              "internalType": "bool",
              "name": "NFTsold",
              "type": "bool"
            }
          ],
          "internalType": "struct PolygonNFTMarketplace.ListedToken[]",
          "name": "",
          "type": "tuple[]"
        }
      ],
      "stateMutability": "view",
      "type": "function"
    },
    {
      "inputs": [
        {
          "internalType": "uint256",
          "name": "tokenId",
          "type": "uint256"
        }
      ],
      "name": "getApproved",
      "outputs": [
        {
          "internalType": "address",
          "name": "",
          "type": "address"
        }
      ],
      "stateMutability": "view",
      "type": "function"
    },
    {
      "inputs": [],
      "name": "getMyNFTs",
      "outputs": [
        {
          "components": [
            {
              "internalType": "uint256",
              "name": "tokenId",
              "type": "uint256"
            },
            {
              "internalType": "uint256",
              "name": "price",
              "type": "uint256"
            },
            {
              "internalType": "address payable",
              "name": "owner",
              "type": "address"
            },
            {
              "internalType": "bool",
              "name": "NFTsold",
              "type": "bool"
            }
          ],
          "internalType": "struct PolygonNFTMarketplace.ListedToken[]",
          "name": "",
          "type": "tuple[]"
        }
      ],
      "stateMutability": "view",
      "type": "function"
    },
    {
      "inputs": [
        {
          "internalType": "uint256",
          "name": "",
          "type": "uint256"
        }
      ],
      "name": "idToListedToken",
      "outputs": [
        {
          "internalType": "uint256",
          "name": "tokenId",
          "type": "uint256"
        },
        {
          "internalType": "uint256",
          "name": "price",
          "type": "uint256"
        },
        {
          "internalType": "address payable",
          "name": "owner",
          "type": "address"
        },
        {
          "internalType": "bool",
          "name": "NFTsold",
          "type": "bool"
        }
      ],
      "stateMutability": "view",
      "type": "function"
    },
    {
      "inputs": [
        {
          "internalType": "address",
          "name": "owner",
          "type": "address"
        },
        {
          "internalType": "address",
          "name": "operator",
          "type": "address"
        }
      ],
      "name": "isApprovedForAll",
      "outputs": [
        {
          "internalType": "bool",
          "name": "",
          "type": "bool"
        }
      ],
      "stateMutability": "view",
      "type": "function"
    },
    {
      "inputs": [
        {
          "internalType": "string",
          "name": "tokenURI",
          "type": "string"
        },
        {
          "internalType": "uint256",
          "name": "price",
          "type": "uint256"
        }
      ],
      "name": "mint",
      "outputs": [
        {
          "internalType": "uint256",
          "name": "",
          "type": "uint256"
        }
      ],
      "stateMutability": "payable",
      "type": "function"
    },
    {
      "inputs": [],
      "name": "name",
      "outputs": [
        {
          "internalType": "string",
          "name": "",
          "type": "string"
        }
      ],
      "stateMutability": "view",
      "type": "function"
    },
    {
      "inputs": [
        {
          "internalType": "uint256",
          "name": "tokenId",
          "type": "uint256"
        }
      ],
      "name": "ownerOf",
      "outputs": [
        {
          "internalType": "address",
          "name": "",
          "type": "address"
        }
      ],
      "stateMutability": "view",
      "type": "function"
    },
    {
      "inputs": [
        {
          "internalType": "address",
          "name": "from",
          "type": "address"
        },
        {
          "internalType": "address",
          "name": "to",
          "type": "address"
        },
        {
          "internalType": "uint256",
          "name": "tokenId",
          "type": "uint256"
        }
      ],
      "name": "safeTransferFrom",
      "outputs": [],
      "stateMutability": "nonpayable",
      "type": "function"
    },
    {
      "inputs": [
        {
          "internalType": "address",
          "name": "from",
          "type": "address"
        },
        {
          "internalType": "address",
          "name": "to",
          "type": "address"
        },
        {
          "internalType": "uint256",
          "name": "tokenId",
          "type": "uint256"
        },
        {
          "internalType": "bytes",
          "name": "data",
          "type": "bytes"
        }
      ],
      "name": "safeTransferFrom",
      "outputs": [],
      "stateMutability": "nonpayable",
      "type": "function"
    },
    {
      "inputs": [
        {
          "internalType": "address",
          "name": "operator",
          "type": "address"
        },
        {
          "internalType": "bool",
          "name": "approved",
          "type": "bool"
        }
      ],
      "name": "setApprovalForAll",
      "outputs": [],
      "stateMutability": "nonpayable",
      "type": "function"
    },
    {
      "inputs": [
        {
          "internalType": "bytes4",
          "name": "interfaceId",
          "type": "bytes4"
        }
      ],
      "name": "supportsInterface",
      "outputs": [
        {
          "internalType": "bool",
          "name": "",
          "type": "bool"
        }
      ],
      "stateMutability": "view",
      "type": "function"
    },
    {
      "inputs": [],
      "name": "symbol",
      "outputs": [
        {
          "internalType": "string",
          "name": "",
          "type": "string"
        }
      ],
      "stateMutability": "view",
      "type": "function"
    },
    {
      "inputs": [
        {
          "internalType": "uint256",
          "name": "tokenId",
          "type": "uint256"
        }
      ],
      "name": "tokenURI",
      "outputs": [
        {
          "internalType": "string",
          "name": "",
          "type": "string"
        }
      ],
      "stateMutability": "view",
      "type": "function"
    },
    {
      "inputs": [
        {
          "internalType": "address",
          "name": "from",
          "type": "address"
        },
        {
          "internalType": "address",
          "name": "to",
          "type": "address"
        },
        {
          "internalType": "uint256",
          "name": "tokenId",
          "type": "uint256"
        }
      ],
      "name": "transferFrom",
      "outputs": [],
      "stateMutability": "nonpayable",
      "type": "function"
    }
  ],
  "bytecode": "0x60806040523480156200001157600080fd5b50604080518082018252601581527f506f6c79676f6e4e46544d61726b6574706c61636500000000000000000000006020808301918252835180850190945260048452634441524b60e01b908401528151919291620000739160009162000092565b5080516200008990600190602084019062000092565b50505062000175565b828054620000a09062000138565b90600052602060002090601f016020900481019282620000c457600085556200010f565b82601f10620000df57805160ff19168380011785556200010f565b828001600101855582156200010f579182015b828111156200010f578251825591602001919060010190620000f2565b506200011d92915062000121565b5090565b5b808211156200011d576000815560010162000122565b600181811c908216806200014d57607f821691505b602082108114156200016f57634e487b7160e01b600052602260045260246000fd5b50919050565b611e1180620001856000396000f3fe6080604052600436106101145760003560e01c80636352211e116100a0578063a22cb46511610064578063a22cb465146102e1578063b88d4fde14610301578063c87b56dd14610321578063e57a497a14610341578063e985e9c5146103c357600080fd5b80636352211e1461026457806370a0823114610284578063732e8d73146102a457806395d89b41146102b95780639b1225c4146102ce57600080fd5b8063095ea7b3116100e7578063095ea7b3146101c957806323b872dd146101eb57806336ad658f1461020b57806342842e0e14610222578063629cb2e41461024257600080fd5b806301ffc9a714610119578063056b01ce1461014e57806306fdde031461016f578063081812fc14610191575b600080fd5b34801561012557600080fd5b50610139610134366004611a5b565b61040c565b60405190151581526020015b60405180910390f35b61016161015c366004611a93565b610437565b604051908152602001610145565b34801561017b57600080fd5b50610184610533565b6040516101459190611c08565b34801561019d57600080fd5b506101b16101ac366004611ae9565b6105c5565b6040516001600160a01b039091168152602001610145565b3480156101d557600080fd5b506101e96101e4366004611a32565b6105ec565b005b3480156101f757600080fd5b506101e9610206366004611944565b610702565b34801561021757600080fd5b506007546101619081565b34801561022e57600080fd5b506101e961023d366004611944565b610733565b34801561024e57600080fd5b5061025761074e565b6040516101459190611b99565b34801561027057600080fd5b506101b161027f366004611ae9565b610938565b34801561029057600080fd5b5061016161029f3660046118f8565b610998565b3480156102b057600080fd5b50610257610a1e565b3480156102c557600080fd5b50610184610b73565b6101e96102dc366004611ae9565b610b82565b3480156102ed57600080fd5b506101e96102fc3660046119f8565b610cd2565b34801561030d57600080fd5b506101e961031c36600461197f565b610ce1565b34801561032d57600080fd5b5061018461033c366004611ae9565b610d13565b34801561034d57600080fd5b5061039261035c366004611ae9565b6008602052600090815260409020805460018201546002909201549091906001600160a01b03811690600160a01b900460ff1684565b604051610145949392919093845260208401929092526001600160a01b031660408301521515606082015260800190565b3480156103cf57600080fd5b506101396103de366004611912565b6001600160a01b03918216600090815260056020908152604080832093909416825291909152205460ff1690565b60006001600160e01b03198216632483248360e11b1480610431575061043182610e24565b92915050565b600080821161048d5760405162461bcd60e51b815260206004820152601860248201527f70726963652063616e742774206265206e65676174697665000000000000000060448201526064015b60405180910390fd5b61049b600780546001019055565b60006104a660075490565b90506104b23382610e74565b6104bc8185610e8e565b604080516080810182528281526020808201868152338385019081526000606085018181528782526008909452949094209251835551600183015591516002909101805492511515600160a01b026001600160a81b03199093166001600160a01b03909216919091179190911790555b9392505050565b60606000805461054290611d43565b80601f016020809104026020016040519081016040528092919081815260200182805461056e90611d43565b80156105bb5780601f10610590576101008083540402835291602001916105bb565b820191906000526020600020905b81548152906001019060200180831161059e57829003601f168201915b5050505050905090565b60006105d082610f60565b506000908152600460205260409020546001600160a01b031690565b60006105f782610938565b9050806001600160a01b0316836001600160a01b031614156106655760405162461bcd60e51b815260206004820152602160248201527f4552433732313a20617070726f76616c20746f2063757272656e74206f776e656044820152603960f91b6064820152608401610484565b336001600160a01b0382161480610681575061068181336103de565b6106f35760405162461bcd60e51b815260206004820152603d60248201527f4552433732313a20617070726f76652063616c6c6572206973206e6f7420746f60448201527f6b656e206f776e6572206f7220617070726f76656420666f7220616c6c0000006064820152608401610484565b6106fd8383610fc2565b505050565b61070c3382611030565b6107285760405162461bcd60e51b815260040161048490611c1b565b6106fd8383836110ae565b6106fd83838360405180602001604052806000815250610ce1565b6060600061075b60075490565b9050600080805b838110156107bd57336008600061077a846001611cff565b81526020810191909152604001600020600201546001600160a01b031614156107ab57816107a781611d7e565b9250505b806107b581611d7e565b915050610762565b5060008167ffffffffffffffff8111156107e757634e487b7160e01b600052604160045260246000fd5b60405190808252806020026020018201604052801561083957816020015b6040805160808101825260008082526020808301829052928201819052606082015282526000199092019101816108055790505b50905060005b8481101561092f573360086000610857846001611cff565b81526020810191909152604001600020600201546001600160a01b0316141561091d57600060088161088a846001611cff565b8152602080820192909252604090810160002081516080810183528154815260018201549381019390935260028101546001600160a01b03811692840192909252600160a01b90910460ff1615156060830152845190925084908790811061090257634e487b7160e01b600052603260045260246000fd5b6020026020010181905250848061091890611d7e565b955050505b8061092781611d7e565b91505061083f565b50949350505050565b6000818152600260205260408120546001600160a01b0316806104315760405162461bcd60e51b8152602060048201526018602482015277115490cdcc8c4e881a5b9d985b1a59081d1bdad95b88125160421b6044820152606401610484565b60006001600160a01b038216610a025760405162461bcd60e51b815260206004820152602960248201527f4552433732313a2061646472657373207a65726f206973206e6f7420612076616044820152683634b21037bbb732b960b91b6064820152608401610484565b506001600160a01b031660009081526003602052604090205490565b60606000610a2b60075490565b90506000808267ffffffffffffffff811115610a5757634e487b7160e01b600052604160045260246000fd5b604051908082528060200260200182016040528015610aa957816020015b604080516080810182526000808252602080830182905292820181905260608201528252600019909201910181610a755790505b50905060005b83811015610b6b576000600881610ac7846001611cff565b8152602080820192909252604090810160002081516080810183528154815260018201549381019390935260028101546001600160a01b03811692840192909252600160a01b90910460ff16151560608301528451909250849086908110610b3f57634e487b7160e01b600052603260045260246000fd5b6020908102919091010152610b55600185611cff565b9350610b649050600182611cff565b9050610aaf565b509392505050565b60606001805461054290611d43565b600081815260086020526040902060018101546002909101546001600160a01b0316331415610bf35760405162461bcd60e51b815260206004820152601a60248201527f796f752063616e27742062757920796f7572206f776e206e66740000000000006044820152606401610484565b803414610c385760405162461bcd60e51b8152602060048201526013602482015272707269636520646f6573206e6f742073616d6560681b6044820152606401610484565b6000828152600860205260409020600201546001600160a01b0316610c5e8133856110ae565b610c6881846105ec565b600083815260086020526040808220600201805460ff60a01b1933166001600160a81b031990911617600160a01b179055516001600160a01b038316913480156108fc02929091818181858888f19350505050158015610ccc573d6000803e3d6000fd5b50505050565b610cdd338383611212565b5050565b610ceb3383611030565b610d075760405162461bcd60e51b815260040161048490611c1b565b610ccc848484846112e1565b6060610d1e82610f60565b60008281526006602052604081208054610d3790611d43565b80601f0160208091040260200160405190810160405280929190818152602001828054610d6390611d43565b8015610db05780601f10610d8557610100808354040283529160200191610db0565b820191906000526020600020905b815481529060010190602001808311610d9357829003601f168201915b505050505090506000610dce60408051602081019091526000815290565b9050805160001415610de1575092915050565b815115610e13578082604051602001610dfb929190611b2d565b60405160208183030381529060405292505050919050565b610e1c84611314565b949350505050565b60006001600160e01b031982166380ac58cd60e01b1480610e5557506001600160e01b03198216635b5e139f60e01b145b8061043157506301ffc9a760e01b6001600160e01b0319831614610431565b610cdd828260405180602001604052806000815250611387565b6000828152600260205260409020546001600160a01b0316610f095760405162461bcd60e51b815260206004820152602e60248201527f45524337323155524953746f726167653a2055524920736574206f66206e6f6e60448201526d32bc34b9ba32b73a103a37b5b2b760911b6064820152608401610484565b60008281526006602090815260409091208251610f28928401906117cd565b506040518281527ff8e1a15aba9398e019f0b49df1a4fde98ee17ae345cb5f6b5e2c27f5033e8ce79060200160405180910390a15050565b6000818152600260205260409020546001600160a01b0316610fbf5760405162461bcd60e51b8152602060048201526018602482015277115490cdcc8c4e881a5b9d985b1a59081d1bdad95b88125160421b6044820152606401610484565b50565b600081815260046020526040902080546001600160a01b0319166001600160a01b0384169081179091558190610ff782610938565b6001600160a01b03167f8c5be1e5ebec7d5bd14f71427d1e84f3dd0314c0f7b2291e5b200ac8c7c3b92560405160405180910390a45050565b60008061103c83610938565b9050806001600160a01b0316846001600160a01b0316148061108357506001600160a01b0380821660009081526005602090815260408083209388168352929052205460ff165b80610e1c5750836001600160a01b031661109c846105c5565b6001600160a01b031614949350505050565b826001600160a01b03166110c182610938565b6001600160a01b0316146110e75760405162461bcd60e51b815260040161048490611cba565b6001600160a01b0382166111495760405162461bcd60e51b8152602060048201526024808201527f4552433732313a207472616e7366657220746f20746865207a65726f206164646044820152637265737360e01b6064820152608401610484565b826001600160a01b031661115c82610938565b6001600160a01b0316146111825760405162461bcd60e51b815260040161048490611cba565b600081815260046020908152604080832080546001600160a01b03199081169091556001600160a01b0387811680865260038552838620805460001901905590871680865283862080546001019055868652600290945282852080549092168417909155905184937fddf252ad1be2c89b69c2b068fc378daa952ba7f163c4a11628f55a4df523b3ef91a4505050565b816001600160a01b0316836001600160a01b031614156112745760405162461bcd60e51b815260206004820152601960248201527f4552433732313a20617070726f766520746f2063616c6c6572000000000000006044820152606401610484565b6001600160a01b03838116600081815260056020908152604080832094871680845294825291829020805460ff191686151590811790915591519182527f17307eab39ab6107e8899845ad3d59bd9653f200f220920489ca2b5937696c31910160405180910390a3505050565b6112ec8484846110ae565b6112f8848484846113ba565b610ccc5760405162461bcd60e51b815260040161048490611c68565b606061131f82610f60565b600061133660408051602081019091526000815290565b90506000815111611356576040518060200160405280600081525061052c565b80611360846114c7565b604051602001611371929190611b2d565b6040516020818303038152906040529392505050565b611391838361156a565b61139e60008484846113ba565b6106fd5760405162461bcd60e51b815260040161048490611c68565b60006001600160a01b0384163b156114bc57604051630a85bd0160e11b81526001600160a01b0385169063150b7a02906113fe903390899088908890600401611b5c565b602060405180830381600087803b15801561141857600080fd5b505af1925050508015611448575060408051601f3d908101601f1916820190925261144591810190611a77565b60015b6114a2573d808015611476576040519150601f19603f3d011682016040523d82523d6000602084013e61147b565b606091505b50805161149a5760405162461bcd60e51b815260040161048490611c68565b805181602001fd5b6001600160e01b031916630a85bd0160e11b149050610e1c565b506001949350505050565b606060006114d4836116f5565b600101905060008167ffffffffffffffff81111561150257634e487b7160e01b600052604160045260246000fd5b6040519080825280601f01601f19166020018201604052801561152c576020820181803683370190505b5090508181016020015b600019016f181899199a1a9b1b9c1cb0b131b232b360811b600a86061a8153600a850494508461156557610b6b565b611536565b6001600160a01b0382166115c05760405162461bcd60e51b815260206004820181905260248201527f4552433732313a206d696e7420746f20746865207a65726f20616464726573736044820152606401610484565b6000818152600260205260409020546001600160a01b0316156116255760405162461bcd60e51b815260206004820152601c60248201527f4552433732313a20746f6b656e20616c7265616479206d696e746564000000006044820152606401610484565b6000818152600260205260409020546001600160a01b03161561168a5760405162461bcd60e51b815260206004820152601c60248201527f4552433732313a20746f6b656e20616c7265616479206d696e746564000000006044820152606401610484565b6001600160a01b038216600081815260036020908152604080832080546001019055848352600290915280822080546001600160a01b0319168417905551839291907fddf252ad1be2c89b69c2b068fc378daa952ba7f163c4a11628f55a4df523b3ef908290a45050565b60008072184f03e93ff9f4daa797ed6e38ed64bf6a1f0160401b83106117345772184f03e93ff9f4daa797ed6e38ed64bf6a1f0160401b830492506040015b6d04ee2d6d415b85acef81000000008310611760576d04ee2d6d415b85acef8100000000830492506020015b662386f26fc10000831061177e57662386f26fc10000830492506010015b6305f5e1008310611796576305f5e100830492506008015b61271083106117aa57612710830492506004015b606483106117bc576064830492506002015b600a83106104315760010192915050565b8280546117d990611d43565b90600052602060002090601f0160209004810192826117fb5760008555611841565b82601f1061181457805160ff1916838001178555611841565b82800160010185558215611841579182015b82811115611841578251825591602001919060010190611826565b5061184d929150611851565b5090565b5b8082111561184d5760008155600101611852565b600067ffffffffffffffff8084111561188157611881611daf565b604051601f8501601f19908116603f011681019082821181831017156118a9576118a9611daf565b816040528093508581528686860111156118c257600080fd5b858560208301376000602087830101525050509392505050565b80356001600160a01b03811681146118f357600080fd5b919050565b600060208284031215611909578081fd5b61052c826118dc565b60008060408385031215611924578081fd5b61192d836118dc565b915061193b602084016118dc565b90509250929050565b600080600060608486031215611958578081fd5b611961846118dc565b925061196f602085016118dc565b9150604084013590509250925092565b60008060008060808587031215611994578081fd5b61199d856118dc565b93506119ab602086016118dc565b925060408501359150606085013567ffffffffffffffff8111156119cd578182fd5b8501601f810187136119dd578182fd5b6119ec87823560208401611866565b91505092959194509250565b60008060408385031215611a0a578182fd5b611a13836118dc565b915060208301358015158114611a27578182fd5b809150509250929050565b60008060408385031215611a44578182fd5b611a4d836118dc565b946020939093013593505050565b600060208284031215611a6c578081fd5b813561052c81611dc5565b600060208284031215611a88578081fd5b815161052c81611dc5565b60008060408385031215611aa5578182fd5b823567ffffffffffffffff811115611abb578283fd5b8301601f81018513611acb578283fd5b611ada85823560208401611866565b95602094909401359450505050565b600060208284031215611afa578081fd5b5035919050565b60008151808452611b19816020860160208601611d17565b601f01601f19169290920160200192915050565b60008351611b3f818460208801611d17565b835190830190611b53818360208801611d17565b01949350505050565b6001600160a01b0385811682528416602082015260408101839052608060608201819052600090611b8f90830184611b01565b9695505050505050565b602080825282518282018190526000919060409081850190868401855b82811015611bfb578151805185528681015187860152858101516001600160a01b03168686015260609081015115159085015260809093019290850190600101611bb6565b5091979650505050505050565b60208152600061052c6020830184611b01565b6020808252602d908201527f4552433732313a2063616c6c6572206973206e6f7420746f6b656e206f776e6560408201526c1c881bdc88185c1c1c9bdd9959609a1b606082015260800190565b60208082526032908201527f4552433732313a207472616e7366657220746f206e6f6e20455243373231526560408201527131b2b4bb32b91034b6b83632b6b2b73a32b960711b606082015260800190565b60208082526025908201527f4552433732313a207472616e736665722066726f6d20696e636f72726563742060408201526437bbb732b960d91b606082015260800190565b60008219821115611d1257611d12611d99565b500190565b60005b83811015611d32578181015183820152602001611d1a565b83811115610ccc5750506000910152565b600181811c90821680611d5757607f821691505b60208210811415611d7857634e487b7160e01b600052602260045260246000fd5b50919050565b6000600019821415611d9257611d92611d99565b5060010190565b634e487b7160e01b600052601160045260246000fd5b634e487b7160e01b600052604160045260246000fd5b6001600160e01b031981168114610fbf57600080fdfea2646970667358221220451d73f982f54aca2e56eda1a3ba41c29b27ab3ed9de525bb9f0cf48ffb70c0464736f6c63430008040033",
  "linkReferences": {},
  "deployedLinkReferences": {}
}